{
	"VOTACIONES/Votaciones.sol": {
		"Votacion": {
			"abi": [
				{
					"inputs": [],
					"stateMutability": "nonpayable",
					"type": "constructor"
				},
				{
					"inputs": [],
					"name": "ganador",
					"outputs": [
						{
							"internalType": "string",
							"name": "",
							"type": "string"
						}
					],
					"stateMutability": "view",
					"type": "function"
				},
				{
					"inputs": [
						{
							"internalType": "string",
							"name": "_nombre",
							"type": "string"
						},
						{
							"internalType": "uint256",
							"name": "_edad",
							"type": "uint256"
						},
						{
							"internalType": "string",
							"name": "_id",
							"type": "string"
						}
					],
					"name": "representar",
					"outputs": [],
					"stateMutability": "nonpayable",
					"type": "function"
				},
				{
					"inputs": [],
					"name": "verCandidatos",
					"outputs": [
						{
							"internalType": "string[]",
							"name": "",
							"type": "string[]"
						}
					],
					"stateMutability": "view",
					"type": "function"
				},
				{
					"inputs": [],
					"name": "verResultados",
					"outputs": [
						{
							"internalType": "string",
							"name": "",
							"type": "string"
						}
					],
					"stateMutability": "view",
					"type": "function"
				},
				{
					"inputs": [
						{
							"internalType": "string",
							"name": "_nombre",
							"type": "string"
						}
					],
					"name": "verVotos",
					"outputs": [
						{
							"internalType": "uint256",
							"name": "",
							"type": "uint256"
						}
					],
					"stateMutability": "view",
					"type": "function"
				},
				{
					"inputs": [
						{
							"internalType": "string",
							"name": "_candidato",
							"type": "string"
						}
					],
					"name": "votar",
					"outputs": [],
					"stateMutability": "nonpayable",
					"type": "function"
				}
			],
			"devdoc": {
				"kind": "dev",
				"methods": {},
				"version": 1
			},
			"evm": {
				"assembly": "    /* \"VOTACIONES/Votaciones.sol\":376:4431  contract Votacion {... */\n  mstore(0x40, 0x80)\n    /* \"VOTACIONES/Votaciones.sol\":916:965  constructor() {... */\n  callvalue\n  dup1\n  iszero\n  tag_1\n  jumpi\n  0x00\n  dup1\n  revert\ntag_1:\n  pop\n    /* \"VOTACIONES/Votaciones.sol\":948:958  msg.sender */\n  caller\n    /* \"VOTACIONES/Votaciones.sol\":940:945  owner */\n  0x00\n  dup1\n    /* \"VOTACIONES/Votaciones.sol\":940:958  owner = msg.sender */\n  0x0100\n  exp\n  dup2\n  sload\n  dup2\n  0xffffffffffffffffffffffffffffffffffffffff\n  mul\n  not\n  and\n  swap1\n  dup4\n  0xffffffffffffffffffffffffffffffffffffffff\n  and\n  mul\n  or\n  swap1\n  sstore\n  pop\n    /* \"VOTACIONES/Votaciones.sol\":376:4431  contract Votacion {... */\n  dataSize(sub_0)\n  dup1\n  dataOffset(sub_0)\n  0x00\n  codecopy\n  0x00\n  return\nstop\n\nsub_0: assembly {\n        /* \"VOTACIONES/Votaciones.sol\":376:4431  contract Votacion {... */\n      mstore(0x40, 0x80)\n      callvalue\n      dup1\n      iszero\n      tag_1\n      jumpi\n      0x00\n      dup1\n      revert\n    tag_1:\n      pop\n      jumpi(tag_2, lt(calldatasize, 0x04))\n      shr(0xe0, calldataload(0x00))\n      dup1\n      0x2e9452bc\n      eq\n      tag_3\n      jumpi\n      dup1\n      0x58c6414f\n      eq\n      tag_4\n      jumpi\n      dup1\n      0x60df75d4\n      eq\n      tag_5\n      jumpi\n      dup1\n      0x9114bde8\n      eq\n      tag_6\n      jumpi\n      dup1\n      0xcaaa49a6\n      eq\n      tag_7\n      jumpi\n      dup1\n      0xce3fe641\n      eq\n      tag_8\n      jumpi\n    tag_2:\n      0x00\n      dup1\n      revert\n        /* \"VOTACIONES/Votaciones.sol\":1054:1524  function representar(... */\n    tag_3:\n      tag_9\n      0x04\n      dup1\n      calldatasize\n      sub\n      dup2\n      add\n      swap1\n      tag_10\n      swap2\n      swap1\n      tag_11\n      jump\t// in\n    tag_10:\n      tag_12\n      jump\t// in\n    tag_9:\n      stop\n        /* \"VOTACIONES/Votaciones.sol\":2670:3514  function verResultados() public view returns (string memory) {... */\n    tag_4:\n      tag_13\n      tag_14\n      jump\t// in\n    tag_13:\n      mload(0x40)\n      tag_15\n      swap2\n      swap1\n      tag_16\n      jump\t// in\n    tag_15:\n      mload(0x40)\n      dup1\n      swap2\n      sub\n      swap1\n      return\n        /* \"VOTACIONES/Votaciones.sol\":2495:2613  function verVotos(string memory _nombre) public view returns (uint256) {... */\n    tag_5:\n      tag_17\n      0x04\n      dup1\n      calldatasize\n      sub\n      dup2\n      add\n      swap1\n      tag_18\n      swap2\n      swap1\n      tag_19\n      jump\t// in\n    tag_18:\n      tag_20\n      jump\t// in\n    tag_17:\n      mload(0x40)\n      tag_21\n      swap2\n      swap1\n      tag_22\n      jump\t// in\n    tag_21:\n      mload(0x40)\n      dup1\n      swap2\n      sub\n      swap1\n      return\n        /* \"VOTACIONES/Votaciones.sol\":3520:4429  function ganador() public view returns (string memory) {... */\n    tag_6:\n      tag_23\n      tag_24\n      jump\t// in\n    tag_23:\n      mload(0x40)\n      tag_25\n      swap2\n      swap1\n      tag_16\n      jump\t// in\n    tag_25:\n      mload(0x40)\n      dup1\n      swap2\n      sub\n      swap1\n      return\n        /* \"VOTACIONES/Votaciones.sol\":1624:1780  function verCandidatos() public view returns (string[] memory) {... */\n    tag_7:\n      tag_26\n      tag_27\n      jump\t// in\n    tag_26:\n      mload(0x40)\n      tag_28\n      swap2\n      swap1\n      tag_29\n      jump\t// in\n    tag_28:\n      mload(0x40)\n      dup1\n      swap2\n      sub\n      swap1\n      return\n        /* \"VOTACIONES/Votaciones.sol\":1824:2416  function votar(string memory _candidato) public {... */\n    tag_8:\n      tag_30\n      0x04\n      dup1\n      calldatasize\n      sub\n      dup2\n      add\n      swap1\n      tag_31\n      swap2\n      swap1\n      tag_19\n      jump\t// in\n    tag_31:\n      tag_32\n      jump\t// in\n    tag_30:\n      stop\n        /* \"VOTACIONES/Votaciones.sol\":1054:1524  function representar(... */\n    tag_12:\n        /* \"VOTACIONES/Votaciones.sol\":1222:1243  bytes32 hashCandidato */\n      0x00\n        /* \"VOTACIONES/Votaciones.sol\":1286:1293  _nombre */\n      dup4\n        /* \"VOTACIONES/Votaciones.sol\":1295:1300  _edad */\n      dup4\n        /* \"VOTACIONES/Votaciones.sol\":1302:1305  _id */\n      dup4\n        /* \"VOTACIONES/Votaciones.sol\":1269:1306  abi.encodePacked(_nombre, _edad, _id) */\n      add(0x20, mload(0x40))\n      tag_34\n      swap4\n      swap3\n      swap2\n      swap1\n      tag_35\n      jump\t// in\n    tag_34:\n      mload(0x40)\n      0x20\n      dup2\n      dup4\n      sub\n      sub\n      dup2\n      mstore\n      swap1\n      0x40\n      mstore\n        /* \"VOTACIONES/Votaciones.sol\":1246:1316  keccak256(... */\n      dup1\n      mload\n      swap1\n      0x20\n      add\n      keccak256\n        /* \"VOTACIONES/Votaciones.sol\":1222:1316  bytes32 hashCandidato = keccak256(... */\n      swap1\n      pop\n        /* \"VOTACIONES/Votaciones.sol\":1425:1438  hashCandidato */\n      dup1\n        /* \"VOTACIONES/Votaciones.sol\":1402:1413  idCandidato */\n      0x01\n        /* \"VOTACIONES/Votaciones.sol\":1414:1421  _nombre */\n      dup6\n        /* \"VOTACIONES/Votaciones.sol\":1402:1422  idCandidato[_nombre] */\n      mload(0x40)\n      tag_36\n      swap2\n      swap1\n      tag_37\n      jump\t// in\n    tag_36:\n      swap1\n      dup2\n      mstore\n      0x20\n      add\n      mload(0x40)\n      dup1\n      swap2\n      sub\n      swap1\n      keccak256\n        /* \"VOTACIONES/Votaciones.sol\":1402:1438  idCandidato[_nombre] = hashCandidato */\n      dup2\n      swap1\n      sstore\n      pop\n        /* \"VOTACIONES/Votaciones.sol\":1493:1503  candidatos */\n      0x03\n        /* \"VOTACIONES/Votaciones.sol\":1509:1516  _nombre */\n      dup5\n        /* \"VOTACIONES/Votaciones.sol\":1493:1517  candidatos.push(_nombre) */\n      swap1\n      dup1\n      0x01\n      dup2\n      sload\n      add\n      dup1\n      dup3\n      sstore\n      dup1\n      swap2\n      pop\n      pop\n      0x01\n      swap1\n      sub\n      swap1\n      0x00\n      mstore\n      keccak256(0x00, 0x20)\n      add\n      0x00\n      swap1\n      swap2\n      swap1\n      swap2\n      swap1\n      swap2\n      pop\n      swap1\n      dup2\n      tag_39\n      swap2\n      swap1\n      tag_40\n      jump\t// in\n    tag_39:\n      pop\n        /* \"VOTACIONES/Votaciones.sol\":1169:1524  {... */\n      pop\n        /* \"VOTACIONES/Votaciones.sol\":1054:1524  function representar(... */\n      pop\n      pop\n      pop\n      jump\t// out\n        /* \"VOTACIONES/Votaciones.sol\":2670:3514  function verResultados() public view returns (string memory) {... */\n    tag_14:\n        /* \"VOTACIONES/Votaciones.sol\":2716:2729  string memory */\n      0x60\n        /* \"VOTACIONES/Votaciones.sol\":2825:2849  string memory resultados */\n      0x00\n        /* \"VOTACIONES/Votaciones.sol\":2825:2854  string memory resultados = \"\" */\n      mload(0x40)\n      dup1\n      0x20\n      add\n      0x40\n      mstore\n      dup1\n      0x00\n      dup2\n      mstore\n      pop\n      swap1\n      pop\n        /* \"VOTACIONES/Votaciones.sol\":2870:2879  uint256 i */\n      0x00\n        /* \"VOTACIONES/Votaciones.sol\":2865:3480  for (uint256 i = 0; i < candidatos.length; i++) {... */\n    tag_42:\n        /* \"VOTACIONES/Votaciones.sol\":2889:2899  candidatos */\n      0x03\n        /* \"VOTACIONES/Votaciones.sol\":2889:2906  candidatos.length */\n      dup1\n      sload\n      swap1\n      pop\n        /* \"VOTACIONES/Votaciones.sol\":2885:2886  i */\n      dup2\n        /* \"VOTACIONES/Votaciones.sol\":2885:2906  i < candidatos.length */\n      lt\n        /* \"VOTACIONES/Votaciones.sol\":2865:3480  for (uint256 i = 0; i < candidatos.length; i++) {... */\n      iszero\n      tag_43\n      jumpi\n        /* \"VOTACIONES/Votaciones.sol\":2927:2950  uint256 votosCandidato_ */\n      0x00\n        /* \"VOTACIONES/Votaciones.sol\":2953:2976  verVotos(candidatos[i]) */\n      tag_45\n        /* \"VOTACIONES/Votaciones.sol\":2962:2972  candidatos */\n      0x03\n        /* \"VOTACIONES/Votaciones.sol\":2973:2974  i */\n      dup4\n        /* \"VOTACIONES/Votaciones.sol\":2962:2975  candidatos[i] */\n      dup2\n      sload\n      dup2\n      lt\n      tag_46\n      jumpi\n      tag_47\n      tag_48\n      jump\t// in\n    tag_47:\n    tag_46:\n      swap1\n      0x00\n      mstore\n      keccak256(0x00, 0x20)\n      add\n        /* \"VOTACIONES/Votaciones.sol\":2953:2976  verVotos(candidatos[i]) */\n      dup1\n      sload\n      tag_50\n      swap1\n      tag_51\n      jump\t// in\n    tag_50:\n      dup1\n      0x1f\n      add\n      0x20\n      dup1\n      swap2\n      div\n      mul\n      0x20\n      add\n      mload(0x40)\n      swap1\n      dup2\n      add\n      0x40\n      mstore\n      dup1\n      swap3\n      swap2\n      swap1\n      dup2\n      dup2\n      mstore\n      0x20\n      add\n      dup3\n      dup1\n      sload\n      tag_52\n      swap1\n      tag_51\n      jump\t// in\n    tag_52:\n      dup1\n      iszero\n      tag_53\n      jumpi\n      dup1\n      0x1f\n      lt\n      tag_54\n      jumpi\n      0x0100\n      dup1\n      dup4\n      sload\n      div\n      mul\n      dup4\n      mstore\n      swap2\n      0x20\n      add\n      swap2\n      jump(tag_53)\n    tag_54:\n      dup3\n      add\n      swap2\n      swap1\n      0x00\n      mstore\n      keccak256(0x00, 0x20)\n      swap1\n    tag_55:\n      dup2\n      sload\n      dup2\n      mstore\n      swap1\n      0x01\n      add\n      swap1\n      0x20\n      add\n      dup1\n      dup4\n      gt\n      tag_55\n      jumpi\n      dup3\n      swap1\n      sub\n      0x1f\n      and\n      dup3\n      add\n      swap2\n    tag_53:\n      pop\n      pop\n      pop\n      pop\n      pop\n        /* \"VOTACIONES/Votaciones.sol\":2953:2961  verVotos */\n      tag_20\n        /* \"VOTACIONES/Votaciones.sol\":2953:2976  verVotos(candidatos[i]) */\n      jump\t// in\n    tag_45:\n        /* \"VOTACIONES/Votaciones.sol\":2927:2976  uint256 votosCandidato_ = verVotos(candidatos[i]) */\n      swap1\n      pop\n        /* \"VOTACIONES/Votaciones.sol\":2990:3013  string memory votosStr_ */\n      0x00\n        /* \"VOTACIONES/Votaciones.sol\":3016:3049  Strings.toString(votosCandidato_) */\n      tag_56\n        /* \"VOTACIONES/Votaciones.sol\":3033:3048  votosCandidato_ */\n      dup3\n        /* \"VOTACIONES/Votaciones.sol\":3016:3032  Strings.toString */\n      tag_57\n        /* \"VOTACIONES/Votaciones.sol\":3016:3049  Strings.toString(votosCandidato_) */\n      jump\t// in\n    tag_56:\n        /* \"VOTACIONES/Votaciones.sol\":2990:3049  string memory votosStr_ = Strings.toString(votosCandidato_) */\n      swap1\n      pop\n        /* \"VOTACIONES/Votaciones.sol\":3276:3286  resultados */\n      dup4\n        /* \"VOTACIONES/Votaciones.sol\":3333:3343  candidatos */\n      0x03\n        /* \"VOTACIONES/Votaciones.sol\":3344:3345  i */\n      dup5\n        /* \"VOTACIONES/Votaciones.sol\":3333:3346  candidatos[i] */\n      dup2\n      sload\n      dup2\n      lt\n      tag_58\n      jumpi\n      tag_59\n      tag_48\n      jump\t// in\n    tag_59:\n    tag_58:\n      swap1\n      0x00\n      mstore\n      keccak256(0x00, 0x20)\n      add\n        /* \"VOTACIONES/Votaciones.sol\":3394:3403  votosStr_ */\n      dup3\n        /* \"VOTACIONES/Votaciones.sol\":3238:3455  abi.encodePacked(... */\n      add(0x20, mload(0x40))\n      tag_61\n      swap4\n      swap3\n      swap2\n      swap1\n      tag_62\n      jump\t// in\n    tag_61:\n      mload(0x40)\n      0x20\n      dup2\n      dup4\n      sub\n      sub\n      dup2\n      mstore\n      swap1\n      0x40\n      mstore\n        /* \"VOTACIONES/Votaciones.sol\":3201:3469  resultados = string(... */\n      swap4\n      pop\n        /* \"VOTACIONES/Votaciones.sol\":2913:3480  {... */\n      pop\n      pop\n        /* \"VOTACIONES/Votaciones.sol\":2908:2911  i++ */\n      dup1\n      dup1\n      0x01\n      add\n      swap2\n      pop\n      pop\n        /* \"VOTACIONES/Votaciones.sol\":2865:3480  for (uint256 i = 0; i < candidatos.length; i++) {... */\n      jump(tag_42)\n    tag_43:\n      pop\n        /* \"VOTACIONES/Votaciones.sol\":3497:3507  resultados */\n      dup1\n        /* \"VOTACIONES/Votaciones.sol\":3490:3507  return resultados */\n      swap2\n      pop\n      pop\n        /* \"VOTACIONES/Votaciones.sol\":2670:3514  function verResultados() public view returns (string memory) {... */\n      swap1\n      jump\t// out\n        /* \"VOTACIONES/Votaciones.sol\":2495:2613  function verVotos(string memory _nombre) public view returns (uint256) {... */\n    tag_20:\n        /* \"VOTACIONES/Votaciones.sol\":2557:2564  uint256 */\n      0x00\n        /* \"VOTACIONES/Votaciones.sol\":2583:2597  votosCandidato */\n      0x02\n        /* \"VOTACIONES/Votaciones.sol\":2598:2605  _nombre */\n      dup3\n        /* \"VOTACIONES/Votaciones.sol\":2583:2606  votosCandidato[_nombre] */\n      mload(0x40)\n      tag_64\n      swap2\n      swap1\n      tag_37\n      jump\t// in\n    tag_64:\n      swap1\n      dup2\n      mstore\n      0x20\n      add\n      mload(0x40)\n      dup1\n      swap2\n      sub\n      swap1\n      keccak256\n      sload\n        /* \"VOTACIONES/Votaciones.sol\":2576:2606  return votosCandidato[_nombre] */\n      swap1\n      pop\n        /* \"VOTACIONES/Votaciones.sol\":2495:2613  function verVotos(string memory _nombre) public view returns (uint256) {... */\n      swap2\n      swap1\n      pop\n      jump\t// out\n        /* \"VOTACIONES/Votaciones.sol\":3520:4429  function ganador() public view returns (string memory) {... */\n    tag_24:\n        /* \"VOTACIONES/Votaciones.sol\":3560:3573  string memory */\n      0x60\n        /* \"VOTACIONES/Votaciones.sol\":3662:3684  string memory ganador_ */\n      0x00\n        /* \"VOTACIONES/Votaciones.sol\":3687:3697  candidatos */\n      0x03\n        /* \"VOTACIONES/Votaciones.sol\":3698:3699  0 */\n      0x00\n        /* \"VOTACIONES/Votaciones.sol\":3687:3700  candidatos[0] */\n      dup2\n      sload\n      dup2\n      lt\n      tag_66\n      jumpi\n      tag_67\n      tag_48\n      jump\t// in\n    tag_67:\n    tag_66:\n      swap1\n      0x00\n      mstore\n      keccak256(0x00, 0x20)\n      add\n        /* \"VOTACIONES/Votaciones.sol\":3662:3700  string memory ganador_ = candidatos[0] */\n      dup1\n      sload\n      tag_69\n      swap1\n      tag_51\n      jump\t// in\n    tag_69:\n      dup1\n      0x1f\n      add\n      0x20\n      dup1\n      swap2\n      div\n      mul\n      0x20\n      add\n      mload(0x40)\n      swap1\n      dup2\n      add\n      0x40\n      mstore\n      dup1\n      swap3\n      swap2\n      swap1\n      dup2\n      dup2\n      mstore\n      0x20\n      add\n      dup3\n      dup1\n      sload\n      tag_70\n      swap1\n      tag_51\n      jump\t// in\n    tag_70:\n      dup1\n      iszero\n      tag_71\n      jumpi\n      dup1\n      0x1f\n      lt\n      tag_72\n      jumpi\n      0x0100\n      dup1\n      dup4\n      sload\n      div\n      mul\n      dup4\n      mstore\n      swap2\n      0x20\n      add\n      swap2\n      jump(tag_71)\n    tag_72:\n      dup3\n      add\n      swap2\n      swap1\n      0x00\n      mstore\n      keccak256(0x00, 0x20)\n      swap1\n    tag_73:\n      dup2\n      sload\n      dup2\n      mstore\n      swap1\n      0x01\n      add\n      swap1\n      0x20\n      add\n      dup1\n      dup4\n      gt\n      tag_73\n      jumpi\n      dup3\n      swap1\n      sub\n      0x1f\n      and\n      dup3\n      add\n      swap2\n    tag_71:\n      pop\n      pop\n      pop\n      pop\n      pop\n      swap1\n      pop\n        /* \"VOTACIONES/Votaciones.sol\":3758:3767  bool flag */\n      0x00\n        /* \"VOTACIONES/Votaciones.sol\":3783:3789  uint i */\n      dup1\n        /* \"VOTACIONES/Votaciones.sol\":3792:3793  1 */\n      0x01\n        /* \"VOTACIONES/Votaciones.sol\":3783:3793  uint i = 1 */\n      swap1\n      pop\n        /* \"VOTACIONES/Votaciones.sol\":3778:4237  for (uint i = 1; i < candidatos.length; i++) {... */\n    tag_74:\n        /* \"VOTACIONES/Votaciones.sol\":3799:3809  candidatos */\n      0x03\n        /* \"VOTACIONES/Votaciones.sol\":3799:3816  candidatos.length */\n      dup1\n      sload\n      swap1\n      pop\n        /* \"VOTACIONES/Votaciones.sol\":3795:3796  i */\n      dup2\n        /* \"VOTACIONES/Votaciones.sol\":3795:3816  i < candidatos.length */\n      lt\n        /* \"VOTACIONES/Votaciones.sol\":3778:4237  for (uint i = 1; i < candidatos.length; i++) {... */\n      iszero\n      tag_75\n      jumpi\n        /* \"VOTACIONES/Votaciones.sol\":3942:3956  votosCandidato */\n      0x02\n        /* \"VOTACIONES/Votaciones.sol\":3957:3967  candidatos */\n      0x03\n        /* \"VOTACIONES/Votaciones.sol\":3968:3969  i */\n      dup3\n        /* \"VOTACIONES/Votaciones.sol\":3957:3970  candidatos[i] */\n      dup2\n      sload\n      dup2\n      lt\n      tag_77\n      jumpi\n      tag_78\n      tag_48\n      jump\t// in\n    tag_78:\n    tag_77:\n      swap1\n      0x00\n      mstore\n      keccak256(0x00, 0x20)\n      add\n        /* \"VOTACIONES/Votaciones.sol\":3942:3971  votosCandidato[candidatos[i]] */\n      mload(0x40)\n      tag_80\n      swap2\n      swap1\n      tag_81\n      jump\t// in\n    tag_80:\n      swap1\n      dup2\n      mstore\n      0x20\n      add\n      mload(0x40)\n      dup1\n      swap2\n      sub\n      swap1\n      keccak256\n      sload\n        /* \"VOTACIONES/Votaciones.sol\":3915:3929  votosCandidato */\n      0x02\n        /* \"VOTACIONES/Votaciones.sol\":3930:3938  ganador_ */\n      dup5\n        /* \"VOTACIONES/Votaciones.sol\":3915:3939  votosCandidato[ganador_] */\n      mload(0x40)\n      tag_82\n      swap2\n      swap1\n      tag_37\n      jump\t// in\n    tag_82:\n      swap1\n      dup2\n      mstore\n      0x20\n      add\n      mload(0x40)\n      dup1\n      swap2\n      sub\n      swap1\n      keccak256\n      sload\n        /* \"VOTACIONES/Votaciones.sol\":3915:3971  votosCandidato[ganador_] < votosCandidato[candidatos[i]] */\n      lt\n        /* \"VOTACIONES/Votaciones.sol\":3911:4227  if (votosCandidato[ganador_] < votosCandidato[candidatos[i]]) {... */\n      iszero\n      tag_83\n      jumpi\n        /* \"VOTACIONES/Votaciones.sol\":4002:4012  candidatos */\n      0x03\n        /* \"VOTACIONES/Votaciones.sol\":4013:4014  i */\n      dup2\n        /* \"VOTACIONES/Votaciones.sol\":4002:4015  candidatos[i] */\n      dup2\n      sload\n      dup2\n      lt\n      tag_84\n      jumpi\n      tag_85\n      tag_48\n      jump\t// in\n    tag_85:\n    tag_84:\n      swap1\n      0x00\n      mstore\n      keccak256(0x00, 0x20)\n      add\n        /* \"VOTACIONES/Votaciones.sol\":3991:4015  ganador_ = candidatos[i] */\n      dup1\n      sload\n      tag_87\n      swap1\n      tag_51\n      jump\t// in\n    tag_87:\n      dup1\n      0x1f\n      add\n      0x20\n      dup1\n      swap2\n      div\n      mul\n      0x20\n      add\n      mload(0x40)\n      swap1\n      dup2\n      add\n      0x40\n      mstore\n      dup1\n      swap3\n      swap2\n      swap1\n      dup2\n      dup2\n      mstore\n      0x20\n      add\n      dup3\n      dup1\n      sload\n      tag_88\n      swap1\n      tag_51\n      jump\t// in\n    tag_88:\n      dup1\n      iszero\n      tag_89\n      jumpi\n      dup1\n      0x1f\n      lt\n      tag_90\n      jumpi\n      0x0100\n      dup1\n      dup4\n      sload\n      div\n      mul\n      dup4\n      mstore\n      swap2\n      0x20\n      add\n      swap2\n      jump(tag_89)\n    tag_90:\n      dup3\n      add\n      swap2\n      swap1\n      0x00\n      mstore\n      keccak256(0x00, 0x20)\n      swap1\n    tag_91:\n      dup2\n      sload\n      dup2\n      mstore\n      swap1\n      0x01\n      add\n      swap1\n      0x20\n      add\n      dup1\n      dup4\n      gt\n      tag_91\n      jumpi\n      dup3\n      swap1\n      sub\n      0x1f\n      and\n      dup3\n      add\n      swap2\n    tag_89:\n      pop\n      pop\n      pop\n      pop\n      pop\n      swap3\n      pop\n        /* \"VOTACIONES/Votaciones.sol\":4040:4045  false */\n      0x00\n        /* \"VOTACIONES/Votaciones.sol\":4033:4045  flag = false */\n      swap2\n      pop\n        /* \"VOTACIONES/Votaciones.sol\":3911:4227  if (votosCandidato[ganador_] < votosCandidato[candidatos[i]]) {... */\n      jump(tag_92)\n    tag_83:\n        /* \"VOTACIONES/Votaciones.sol\":4152:4166  votosCandidato */\n      0x02\n        /* \"VOTACIONES/Votaciones.sol\":4167:4177  candidatos */\n      0x03\n        /* \"VOTACIONES/Votaciones.sol\":4178:4179  i */\n      dup3\n        /* \"VOTACIONES/Votaciones.sol\":4167:4180  candidatos[i] */\n      dup2\n      sload\n      dup2\n      lt\n      tag_93\n      jumpi\n      tag_94\n      tag_48\n      jump\t// in\n    tag_94:\n    tag_93:\n      swap1\n      0x00\n      mstore\n      keccak256(0x00, 0x20)\n      add\n        /* \"VOTACIONES/Votaciones.sol\":4152:4181  votosCandidato[candidatos[i]] */\n      mload(0x40)\n      tag_96\n      swap2\n      swap1\n      tag_81\n      jump\t// in\n    tag_96:\n      swap1\n      dup2\n      mstore\n      0x20\n      add\n      mload(0x40)\n      dup1\n      swap2\n      sub\n      swap1\n      keccak256\n      sload\n        /* \"VOTACIONES/Votaciones.sol\":4124:4138  votosCandidato */\n      0x02\n        /* \"VOTACIONES/Votaciones.sol\":4139:4147  ganador_ */\n      dup5\n        /* \"VOTACIONES/Votaciones.sol\":4124:4148  votosCandidato[ganador_] */\n      mload(0x40)\n      tag_97\n      swap2\n      swap1\n      tag_37\n      jump\t// in\n    tag_97:\n      swap1\n      dup2\n      mstore\n      0x20\n      add\n      mload(0x40)\n      dup1\n      swap2\n      sub\n      swap1\n      keccak256\n      sload\n        /* \"VOTACIONES/Votaciones.sol\":4124:4181  votosCandidato[ganador_] == votosCandidato[candidatos[i]] */\n      sub\n        /* \"VOTACIONES/Votaciones.sol\":4120:4227  if (votosCandidato[ganador_] == votosCandidato[candidatos[i]]) {... */\n      tag_98\n      jumpi\n        /* \"VOTACIONES/Votaciones.sol\":4208:4212  true */\n      0x01\n        /* \"VOTACIONES/Votaciones.sol\":4201:4212  flag = true */\n      swap2\n      pop\n        /* \"VOTACIONES/Votaciones.sol\":4120:4227  if (votosCandidato[ganador_] == votosCandidato[candidatos[i]]) {... */\n    tag_98:\n        /* \"VOTACIONES/Votaciones.sol\":3911:4227  if (votosCandidato[ganador_] < votosCandidato[candidatos[i]]) {... */\n    tag_92:\n        /* \"VOTACIONES/Votaciones.sol\":3818:3821  i++ */\n      dup1\n      dup1\n      0x01\n      add\n      swap2\n      pop\n      pop\n        /* \"VOTACIONES/Votaciones.sol\":3778:4237  for (uint i = 1; i < candidatos.length; i++) {... */\n      jump(tag_74)\n    tag_75:\n      pop\n        /* \"VOTACIONES/Votaciones.sol\":4318:4322  flag */\n      dup1\n        /* \"VOTACIONES/Votaciones.sol\":4314:4397  if (flag) {... */\n      iszero\n      tag_99\n      jumpi\n        /* \"VOTACIONES/Votaciones.sol\":4338:4386  ganador_ = \"Hay un empate entre los candidatos.\" */\n      mload(0x40)\n      dup1\n      0x60\n      add\n      0x40\n      mstore\n      dup1\n      0x23\n      dup2\n      mstore\n      0x20\n      add\n      data_ceb3a4a4e2bd02a183fc9d1bb220039ba202785f26bbcce8965a0302c29f713a\n      0x23\n      swap2\n      codecopy\n      swap2\n      pop\n        /* \"VOTACIONES/Votaciones.sol\":4314:4397  if (flag) {... */\n    tag_99:\n        /* \"VOTACIONES/Votaciones.sol\":4414:4422  ganador_ */\n      dup2\n        /* \"VOTACIONES/Votaciones.sol\":4407:4422  return ganador_ */\n      swap3\n      pop\n      pop\n      pop\n        /* \"VOTACIONES/Votaciones.sol\":3520:4429  function ganador() public view returns (string memory) {... */\n      swap1\n      jump\t// out\n        /* \"VOTACIONES/Votaciones.sol\":1624:1780  function verCandidatos() public view returns (string[] memory) {... */\n    tag_27:\n        /* \"VOTACIONES/Votaciones.sol\":1670:1685  string[] memory */\n      0x60\n        /* \"VOTACIONES/Votaciones.sol\":1763:1773  candidatos */\n      0x03\n        /* \"VOTACIONES/Votaciones.sol\":1756:1773  return candidatos */\n      dup1\n      sload\n      dup1\n      0x20\n      mul\n      0x20\n      add\n      mload(0x40)\n      swap1\n      dup2\n      add\n      0x40\n      mstore\n      dup1\n      swap3\n      swap2\n      swap1\n      dup2\n      dup2\n      mstore\n      0x20\n      add\n      0x00\n      swap1\n    tag_101:\n      dup3\n      dup3\n      lt\n      iszero\n      tag_102\n      jumpi\n      dup4\n      dup3\n      swap1\n      0x00\n      mstore\n      keccak256(0x00, 0x20)\n      add\n      dup1\n      sload\n      tag_104\n      swap1\n      tag_51\n      jump\t// in\n    tag_104:\n      dup1\n      0x1f\n      add\n      0x20\n      dup1\n      swap2\n      div\n      mul\n      0x20\n      add\n      mload(0x40)\n      swap1\n      dup2\n      add\n      0x40\n      mstore\n      dup1\n      swap3\n      swap2\n      swap1\n      dup2\n      dup2\n      mstore\n      0x20\n      add\n      dup3\n      dup1\n      sload\n      tag_105\n      swap1\n      tag_51\n      jump\t// in\n    tag_105:\n      dup1\n      iszero\n      tag_106\n      jumpi\n      dup1\n      0x1f\n      lt\n      tag_107\n      jumpi\n      0x0100\n      dup1\n      dup4\n      sload\n      div\n      mul\n      dup4\n      mstore\n      swap2\n      0x20\n      add\n      swap2\n      jump(tag_106)\n    tag_107:\n      dup3\n      add\n      swap2\n      swap1\n      0x00\n      mstore\n      keccak256(0x00, 0x20)\n      swap1\n    tag_108:\n      dup2\n      sload\n      dup2\n      mstore\n      swap1\n      0x01\n      add\n      swap1\n      0x20\n      add\n      dup1\n      dup4\n      gt\n      tag_108\n      jumpi\n      dup3\n      swap1\n      sub\n      0x1f\n      and\n      dup3\n      add\n      swap2\n    tag_106:\n      pop\n      pop\n      pop\n      pop\n      pop\n      dup2\n      mstore\n      0x20\n      add\n      swap1\n      0x01\n      add\n      swap1\n      jump(tag_101)\n    tag_102:\n      pop\n      pop\n      pop\n      pop\n      swap1\n      pop\n        /* \"VOTACIONES/Votaciones.sol\":1624:1780  function verCandidatos() public view returns (string[] memory) {... */\n      swap1\n      jump\t// out\n        /* \"VOTACIONES/Votaciones.sol\":1824:2416  function votar(string memory _candidato) public {... */\n    tag_32:\n        /* \"VOTACIONES/Votaciones.sol\":1953:1972  bytes32 hashVotante */\n      0x00\n        /* \"VOTACIONES/Votaciones.sol\":2002:2012  msg.sender */\n      caller\n        /* \"VOTACIONES/Votaciones.sol\":1985:2013  abi.encodePacked(msg.sender) */\n      add(0x20, mload(0x40))\n      tag_110\n      swap2\n      swap1\n      tag_111\n      jump\t// in\n    tag_110:\n      mload(0x40)\n      0x20\n      dup2\n      dup4\n      sub\n      sub\n      dup2\n      mstore\n      swap1\n      0x40\n      mstore\n        /* \"VOTACIONES/Votaciones.sol\":1975:2014  keccak256(abi.encodePacked(msg.sender)) */\n      dup1\n      mload\n      swap1\n      0x20\n      add\n      keccak256\n        /* \"VOTACIONES/Votaciones.sol\":1953:2014  bytes32 hashVotante = keccak256(abi.encodePacked(msg.sender)) */\n      swap1\n      pop\n        /* \"VOTACIONES/Votaciones.sol\":2078:2087  uint256 i */\n      0x00\n        /* \"VOTACIONES/Votaciones.sol\":2073:2208  for (uint256 i = 0; i < votantes.length; i++) {... */\n    tag_112:\n        /* \"VOTACIONES/Votaciones.sol\":2097:2105  votantes */\n      0x04\n        /* \"VOTACIONES/Votaciones.sol\":2097:2112  votantes.length */\n      dup1\n      sload\n      swap1\n      pop\n        /* \"VOTACIONES/Votaciones.sol\":2093:2094  i */\n      dup2\n        /* \"VOTACIONES/Votaciones.sol\":2093:2112  i < votantes.length */\n      lt\n        /* \"VOTACIONES/Votaciones.sol\":2073:2208  for (uint256 i = 0; i < votantes.length; i++) {... */\n      iszero\n      tag_113\n      jumpi\n        /* \"VOTACIONES/Votaciones.sol\":2156:2167  hashVotante */\n      dup2\n        /* \"VOTACIONES/Votaciones.sol\":2141:2149  votantes */\n      0x04\n        /* \"VOTACIONES/Votaciones.sol\":2150:2151  i */\n      dup3\n        /* \"VOTACIONES/Votaciones.sol\":2141:2152  votantes[i] */\n      dup2\n      sload\n      dup2\n      lt\n      tag_115\n      jumpi\n      tag_116\n      tag_48\n      jump\t// in\n    tag_116:\n    tag_115:\n      swap1\n      0x00\n      mstore\n      keccak256(0x00, 0x20)\n      add\n      sload\n        /* \"VOTACIONES/Votaciones.sol\":2141:2167  votantes[i] != hashVotante */\n      sub\n        /* \"VOTACIONES/Votaciones.sol\":2133:2197  require(votantes[i] != hashVotante, \"Ya has votado previamente\") */\n      tag_118\n      jumpi\n      mload(0x40)\n      0x08c379a000000000000000000000000000000000000000000000000000000000\n      dup2\n      mstore\n      0x04\n      add\n      tag_119\n      swap1\n      tag_120\n      jump\t// in\n    tag_119:\n      mload(0x40)\n      dup1\n      swap2\n      sub\n      swap1\n      revert\n    tag_118:\n        /* \"VOTACIONES/Votaciones.sol\":2114:2117  i++ */\n      dup1\n      dup1\n      0x01\n      add\n      swap2\n      pop\n      pop\n        /* \"VOTACIONES/Votaciones.sol\":2073:2208  for (uint256 i = 0; i < votantes.length; i++) {... */\n      jump(tag_112)\n    tag_113:\n      pop\n        /* \"VOTACIONES/Votaciones.sol\":2290:2298  votantes */\n      0x04\n        /* \"VOTACIONES/Votaciones.sol\":2304:2315  hashVotante */\n      dup2\n        /* \"VOTACIONES/Votaciones.sol\":2290:2316  votantes.push(hashVotante) */\n      swap1\n      dup1\n      0x01\n      dup2\n      sload\n      add\n      dup1\n      dup3\n      sstore\n      dup1\n      swap2\n      pop\n      pop\n      0x01\n      swap1\n      sub\n      swap1\n      0x00\n      mstore\n      keccak256(0x00, 0x20)\n      add\n      0x00\n      swap1\n      swap2\n      swap1\n      swap2\n      swap1\n      swap2\n      pop\n      sstore\n        /* \"VOTACIONES/Votaciones.sol\":2381:2395  votosCandidato */\n      0x02\n        /* \"VOTACIONES/Votaciones.sol\":2396:2406  _candidato */\n      dup3\n        /* \"VOTACIONES/Votaciones.sol\":2381:2407  votosCandidato[_candidato] */\n      mload(0x40)\n      tag_122\n      swap2\n      swap1\n      tag_37\n      jump\t// in\n    tag_122:\n      swap1\n      dup2\n      mstore\n      0x20\n      add\n      mload(0x40)\n      dup1\n      swap2\n      sub\n      swap1\n      keccak256\n      0x00\n        /* \"VOTACIONES/Votaciones.sol\":2381:2409  votosCandidato[_candidato]++ */\n      dup2\n      sload\n      dup1\n      swap3\n      swap2\n      swap1\n      tag_123\n      swap1\n      tag_124\n      jump\t// in\n    tag_123:\n      swap2\n      swap1\n      pop\n      sstore\n      pop\n        /* \"VOTACIONES/Votaciones.sol\":1872:2416  {... */\n      pop\n        /* \"VOTACIONES/Votaciones.sol\":1824:2416  function votar(string memory _candidato) public {... */\n      pop\n      jump\t// out\n        /* \"@openzeppelin/contracts/utils/Strings.sol\":637:1335  function toString(uint256 value) internal pure returns (string memory) {... */\n    tag_57:\n        /* \"@openzeppelin/contracts/utils/Strings.sol\":693:706  string memory */\n      0x60\n        /* \"@openzeppelin/contracts/utils/Strings.sol\":742:756  uint256 length */\n      0x00\n        /* \"@openzeppelin/contracts/utils/Strings.sol\":779:780  1 */\n      0x01\n        /* \"@openzeppelin/contracts/utils/Strings.sol\":759:776  Math.log10(value) */\n      tag_126\n        /* \"@openzeppelin/contracts/utils/Strings.sol\":770:775  value */\n      dup5\n        /* \"@openzeppelin/contracts/utils/Strings.sol\":759:769  Math.log10 */\n      tag_127\n        /* \"@openzeppelin/contracts/utils/Strings.sol\":759:776  Math.log10(value) */\n      jump\t// in\n    tag_126:\n        /* \"@openzeppelin/contracts/utils/Strings.sol\":759:780  Math.log10(value) + 1 */\n      add\n        /* \"@openzeppelin/contracts/utils/Strings.sol\":742:780  uint256 length = Math.log10(value) + 1 */\n      swap1\n      pop\n        /* \"@openzeppelin/contracts/utils/Strings.sol\":794:814  string memory buffer */\n      0x00\n        /* \"@openzeppelin/contracts/utils/Strings.sol\":828:834  length */\n      dup2\n        /* \"@openzeppelin/contracts/utils/Strings.sol\":817:835  new string(length) */\n      0xffffffffffffffff\n      dup2\n      gt\n      iszero\n      tag_128\n      jumpi\n      tag_129\n      tag_130\n      jump\t// in\n    tag_129:\n    tag_128:\n      mload(0x40)\n      swap1\n      dup1\n      dup3\n      mstore\n      dup1\n      0x1f\n      add\n      not(0x1f)\n      and\n      0x20\n      add\n      dup3\n      add\n      0x40\n      mstore\n      dup1\n      iszero\n      tag_131\n      jumpi\n      dup2\n      0x20\n      add\n      0x01\n      dup3\n      mul\n      dup1\n      calldatasize\n      dup4\n      calldatacopy\n      dup1\n      dup3\n      add\n      swap2\n      pop\n      pop\n      swap1\n      pop\n    tag_131:\n      pop\n        /* \"@openzeppelin/contracts/utils/Strings.sol\":794:835  string memory buffer = new string(length) */\n      swap1\n      pop\n        /* \"@openzeppelin/contracts/utils/Strings.sol\":849:860  uint256 ptr */\n      0x00\n        /* \"@openzeppelin/contracts/utils/Strings.sol\":975:981  length */\n      dup3\n        /* \"@openzeppelin/contracts/utils/Strings.sol\":971:973  32 */\n      0x20\n        /* \"@openzeppelin/contracts/utils/Strings.sol\":967:982  add(32, length) */\n      add\n        /* \"@openzeppelin/contracts/utils/Strings.sol\":959:965  buffer */\n      dup3\n        /* \"@openzeppelin/contracts/utils/Strings.sol\":955:983  add(buffer, add(32, length)) */\n      add\n        /* \"@openzeppelin/contracts/utils/Strings.sol\":948:983  ptr := add(buffer, add(32, length)) */\n      swap1\n      pop\n        /* \"@openzeppelin/contracts/utils/Strings.sol\":1010:1292  while (true) {... */\n    tag_132:\n        /* \"@openzeppelin/contracts/utils/Strings.sol\":1017:1021  true */\n      0x01\n        /* \"@openzeppelin/contracts/utils/Strings.sol\":1010:1292  while (true) {... */\n      iszero\n      tag_133\n      jumpi\n        /* \"@openzeppelin/contracts/utils/Strings.sol\":1041:1046  ptr-- */\n      dup1\n      dup1\n      0x01\n      swap1\n      sub\n      swap2\n      pop\n      pop\n        /* \"@openzeppelin/contracts/utils/Strings.sol\":1180:1190  HEX_DIGITS */\n      0x3031323334353637383961626364656600000000000000000000000000000000\n        /* \"@openzeppelin/contracts/utils/Strings.sol\":1175:1177  10 */\n      0x0a\n        /* \"@openzeppelin/contracts/utils/Strings.sol\":1168:1173  value */\n      dup7\n        /* \"@openzeppelin/contracts/utils/Strings.sol\":1164:1178  mod(value, 10) */\n      mod\n        /* \"@openzeppelin/contracts/utils/Strings.sol\":1159:1191  byte(mod(value, 10), HEX_DIGITS) */\n      byte\n        /* \"@openzeppelin/contracts/utils/Strings.sol\":1154:1157  ptr */\n      dup2\n        /* \"@openzeppelin/contracts/utils/Strings.sol\":1146:1192  mstore8(ptr, byte(mod(value, 10), HEX_DIGITS)) */\n      mstore8\n        /* \"@openzeppelin/contracts/utils/Strings.sol\":1236:1238  10 */\n      0x0a\n        /* \"@openzeppelin/contracts/utils/Strings.sol\":1227:1238  value /= 10 */\n      dup6\n      dup2\n      tag_134\n      jumpi\n      tag_135\n      tag_136\n      jump\t// in\n    tag_135:\n    tag_134:\n      div\n      swap5\n      pop\n        /* \"@openzeppelin/contracts/utils/Strings.sol\":1269:1270  0 */\n      0x00\n        /* \"@openzeppelin/contracts/utils/Strings.sol\":1260:1265  value */\n      dup6\n        /* \"@openzeppelin/contracts/utils/Strings.sol\":1260:1270  value == 0 */\n      sub\n        /* \"@openzeppelin/contracts/utils/Strings.sol\":1010:1292  while (true) {... */\n      tag_132\n        /* \"@openzeppelin/contracts/utils/Strings.sol\":1256:1277  if (value == 0) break */\n      jumpi\n        /* \"@openzeppelin/contracts/utils/Strings.sol\":1010:1292  while (true) {... */\n    tag_133:\n        /* \"@openzeppelin/contracts/utils/Strings.sol\":1312:1318  buffer */\n      dup2\n        /* \"@openzeppelin/contracts/utils/Strings.sol\":1305:1318  return buffer */\n      swap4\n      pop\n      pop\n      pop\n      pop\n        /* \"@openzeppelin/contracts/utils/Strings.sol\":637:1335  function toString(uint256 value) internal pure returns (string memory) {... */\n      swap2\n      swap1\n      pop\n      jump\t// out\n        /* \"@openzeppelin/contracts/utils/math/Math.sol\":12214:13130  function log10(uint256 value) internal pure returns (uint256) {... */\n    tag_127:\n        /* \"@openzeppelin/contracts/utils/math/Math.sol\":12267:12274  uint256 */\n      0x00\n        /* \"@openzeppelin/contracts/utils/math/Math.sol\":12286:12300  uint256 result */\n      dup1\n        /* \"@openzeppelin/contracts/utils/math/Math.sol\":12303:12304  0 */\n      0x00\n        /* \"@openzeppelin/contracts/utils/math/Math.sol\":12286:12304  uint256 result = 0 */\n      swap1\n      pop\n        /* \"@openzeppelin/contracts/utils/math/Math.sol\":12351:12359  10 ** 64 */\n      0x184f03e93ff9f4daa797ed6e38ed64bf6a1f010000000000000000\n        /* \"@openzeppelin/contracts/utils/math/Math.sol\":12342:12347  value */\n      dup4\n        /* \"@openzeppelin/contracts/utils/math/Math.sol\":12342:12359  value >= 10 ** 64 */\n      lt\n        /* \"@openzeppelin/contracts/utils/math/Math.sol\":12338:12441  if (value >= 10 ** 64) {... */\n      tag_139\n      jumpi\n        /* \"@openzeppelin/contracts/utils/math/Math.sol\":12388:12396  10 ** 64 */\n      0x184f03e93ff9f4daa797ed6e38ed64bf6a1f010000000000000000\n        /* \"@openzeppelin/contracts/utils/math/Math.sol\":12379:12396  value /= 10 ** 64 */\n      dup4\n      dup2\n      tag_140\n      jumpi\n      tag_141\n      tag_136\n      jump\t// in\n    tag_141:\n    tag_140:\n      div\n      swap3\n      pop\n        /* \"@openzeppelin/contracts/utils/math/Math.sol\":12424:12426  64 */\n      0x40\n        /* \"@openzeppelin/contracts/utils/math/Math.sol\":12414:12426  result += 64 */\n      dup2\n      add\n      swap1\n      pop\n        /* \"@openzeppelin/contracts/utils/math/Math.sol\":12338:12441  if (value >= 10 ** 64) {... */\n    tag_139:\n        /* \"@openzeppelin/contracts/utils/math/Math.sol\":12467:12475  10 ** 32 */\n      0x04ee2d6d415b85acef8100000000\n        /* \"@openzeppelin/contracts/utils/math/Math.sol\":12458:12463  value */\n      dup4\n        /* \"@openzeppelin/contracts/utils/math/Math.sol\":12458:12475  value >= 10 ** 32 */\n      lt\n        /* \"@openzeppelin/contracts/utils/math/Math.sol\":12454:12557  if (value >= 10 ** 32) {... */\n      tag_142\n      jumpi\n        /* \"@openzeppelin/contracts/utils/math/Math.sol\":12504:12512  10 ** 32 */\n      0x04ee2d6d415b85acef8100000000\n        /* \"@openzeppelin/contracts/utils/math/Math.sol\":12495:12512  value /= 10 ** 32 */\n      dup4\n      dup2\n      tag_143\n      jumpi\n      tag_144\n      tag_136\n      jump\t// in\n    tag_144:\n    tag_143:\n      div\n      swap3\n      pop\n        /* \"@openzeppelin/contracts/utils/math/Math.sol\":12540:12542  32 */\n      0x20\n        /* \"@openzeppelin/contracts/utils/math/Math.sol\":12530:12542  result += 32 */\n      dup2\n      add\n      swap1\n      pop\n        /* \"@openzeppelin/contracts/utils/math/Math.sol\":12454:12557  if (value >= 10 ** 32) {... */\n    tag_142:\n        /* \"@openzeppelin/contracts/utils/math/Math.sol\":12583:12591  10 ** 16 */\n      0x2386f26fc10000\n        /* \"@openzeppelin/contracts/utils/math/Math.sol\":12574:12579  value */\n      dup4\n        /* \"@openzeppelin/contracts/utils/math/Math.sol\":12574:12591  value >= 10 ** 16 */\n      lt\n        /* \"@openzeppelin/contracts/utils/math/Math.sol\":12570:12673  if (value >= 10 ** 16) {... */\n      tag_145\n      jumpi\n        /* \"@openzeppelin/contracts/utils/math/Math.sol\":12620:12628  10 ** 16 */\n      0x2386f26fc10000\n        /* \"@openzeppelin/contracts/utils/math/Math.sol\":12611:12628  value /= 10 ** 16 */\n      dup4\n      dup2\n      tag_146\n      jumpi\n      tag_147\n      tag_136\n      jump\t// in\n    tag_147:\n    tag_146:\n      div\n      swap3\n      pop\n        /* \"@openzeppelin/contracts/utils/math/Math.sol\":12656:12658  16 */\n      0x10\n        /* \"@openzeppelin/contracts/utils/math/Math.sol\":12646:12658  result += 16 */\n      dup2\n      add\n      swap1\n      pop\n        /* \"@openzeppelin/contracts/utils/math/Math.sol\":12570:12673  if (value >= 10 ** 16) {... */\n    tag_145:\n        /* \"@openzeppelin/contracts/utils/math/Math.sol\":12699:12706  10 ** 8 */\n      0x05f5e100\n        /* \"@openzeppelin/contracts/utils/math/Math.sol\":12690:12695  value */\n      dup4\n        /* \"@openzeppelin/contracts/utils/math/Math.sol\":12690:12706  value >= 10 ** 8 */\n      lt\n        /* \"@openzeppelin/contracts/utils/math/Math.sol\":12686:12786  if (value >= 10 ** 8) {... */\n      tag_148\n      jumpi\n        /* \"@openzeppelin/contracts/utils/math/Math.sol\":12735:12742  10 ** 8 */\n      0x05f5e100\n        /* \"@openzeppelin/contracts/utils/math/Math.sol\":12726:12742  value /= 10 ** 8 */\n      dup4\n      dup2\n      tag_149\n      jumpi\n      tag_150\n      tag_136\n      jump\t// in\n    tag_150:\n    tag_149:\n      div\n      swap3\n      pop\n        /* \"@openzeppelin/contracts/utils/math/Math.sol\":12770:12771  8 */\n      0x08\n        /* \"@openzeppelin/contracts/utils/math/Math.sol\":12760:12771  result += 8 */\n      dup2\n      add\n      swap1\n      pop\n        /* \"@openzeppelin/contracts/utils/math/Math.sol\":12686:12786  if (value >= 10 ** 8) {... */\n    tag_148:\n        /* \"@openzeppelin/contracts/utils/math/Math.sol\":12812:12819  10 ** 4 */\n      0x2710\n        /* \"@openzeppelin/contracts/utils/math/Math.sol\":12803:12808  value */\n      dup4\n        /* \"@openzeppelin/contracts/utils/math/Math.sol\":12803:12819  value >= 10 ** 4 */\n      lt\n        /* \"@openzeppelin/contracts/utils/math/Math.sol\":12799:12899  if (value >= 10 ** 4) {... */\n      tag_151\n      jumpi\n        /* \"@openzeppelin/contracts/utils/math/Math.sol\":12848:12855  10 ** 4 */\n      0x2710\n        /* \"@openzeppelin/contracts/utils/math/Math.sol\":12839:12855  value /= 10 ** 4 */\n      dup4\n      dup2\n      tag_152\n      jumpi\n      tag_153\n      tag_136\n      jump\t// in\n    tag_153:\n    tag_152:\n      div\n      swap3\n      pop\n        /* \"@openzeppelin/contracts/utils/math/Math.sol\":12883:12884  4 */\n      0x04\n        /* \"@openzeppelin/contracts/utils/math/Math.sol\":12873:12884  result += 4 */\n      dup2\n      add\n      swap1\n      pop\n        /* \"@openzeppelin/contracts/utils/math/Math.sol\":12799:12899  if (value >= 10 ** 4) {... */\n    tag_151:\n        /* \"@openzeppelin/contracts/utils/math/Math.sol\":12925:12932  10 ** 2 */\n      0x64\n        /* \"@openzeppelin/contracts/utils/math/Math.sol\":12916:12921  value */\n      dup4\n        /* \"@openzeppelin/contracts/utils/math/Math.sol\":12916:12932  value >= 10 ** 2 */\n      lt\n        /* \"@openzeppelin/contracts/utils/math/Math.sol\":12912:13012  if (value >= 10 ** 2) {... */\n      tag_154\n      jumpi\n        /* \"@openzeppelin/contracts/utils/math/Math.sol\":12961:12968  10 ** 2 */\n      0x64\n        /* \"@openzeppelin/contracts/utils/math/Math.sol\":12952:12968  value /= 10 ** 2 */\n      dup4\n      dup2\n      tag_155\n      jumpi\n      tag_156\n      tag_136\n      jump\t// in\n    tag_156:\n    tag_155:\n      div\n      swap3\n      pop\n        /* \"@openzeppelin/contracts/utils/math/Math.sol\":12996:12997  2 */\n      0x02\n        /* \"@openzeppelin/contracts/utils/math/Math.sol\":12986:12997  result += 2 */\n      dup2\n      add\n      swap1\n      pop\n        /* \"@openzeppelin/contracts/utils/math/Math.sol\":12912:13012  if (value >= 10 ** 2) {... */\n    tag_154:\n        /* \"@openzeppelin/contracts/utils/math/Math.sol\":13038:13045  10 ** 1 */\n      0x0a\n        /* \"@openzeppelin/contracts/utils/math/Math.sol\":13029:13034  value */\n      dup4\n        /* \"@openzeppelin/contracts/utils/math/Math.sol\":13029:13045  value >= 10 ** 1 */\n      lt\n        /* \"@openzeppelin/contracts/utils/math/Math.sol\":13025:13091  if (value >= 10 ** 1) {... */\n      tag_157\n      jumpi\n        /* \"@openzeppelin/contracts/utils/math/Math.sol\":13075:13076  1 */\n      0x01\n        /* \"@openzeppelin/contracts/utils/math/Math.sol\":13065:13076  result += 1 */\n      dup2\n      add\n      swap1\n      pop\n        /* \"@openzeppelin/contracts/utils/math/Math.sol\":13025:13091  if (value >= 10 ** 1) {... */\n    tag_157:\n        /* \"@openzeppelin/contracts/utils/math/Math.sol\":13117:13123  result */\n      dup1\n        /* \"@openzeppelin/contracts/utils/math/Math.sol\":13110:13123  return result */\n      swap2\n      pop\n      pop\n        /* \"@openzeppelin/contracts/utils/math/Math.sol\":12214:13130  function log10(uint256 value) internal pure returns (uint256) {... */\n      swap2\n      swap1\n      pop\n      jump\t// out\n        /* \"#utility.yul\":7:82   */\n    tag_158:\n        /* \"#utility.yul\":40:46   */\n      0x00\n        /* \"#utility.yul\":73:75   */\n      0x40\n        /* \"#utility.yul\":67:76   */\n      mload\n        /* \"#utility.yul\":57:76   */\n      swap1\n      pop\n        /* \"#utility.yul\":7:82   */\n      swap1\n      jump\t// out\n        /* \"#utility.yul\":88:205   */\n    tag_159:\n        /* \"#utility.yul\":197:198   */\n      0x00\n        /* \"#utility.yul\":194:195   */\n      dup1\n        /* \"#utility.yul\":187:199   */\n      revert\n        /* \"#utility.yul\":211:328   */\n    tag_160:\n        /* \"#utility.yul\":320:321   */\n      0x00\n        /* \"#utility.yul\":317:318   */\n      dup1\n        /* \"#utility.yul\":310:322   */\n      revert\n        /* \"#utility.yul\":334:451   */\n    tag_161:\n        /* \"#utility.yul\":443:444   */\n      0x00\n        /* \"#utility.yul\":440:441   */\n      dup1\n        /* \"#utility.yul\":433:445   */\n      revert\n        /* \"#utility.yul\":457:574   */\n    tag_162:\n        /* \"#utility.yul\":566:567   */\n      0x00\n        /* \"#utility.yul\":563:564   */\n      dup1\n        /* \"#utility.yul\":556:568   */\n      revert\n        /* \"#utility.yul\":580:682   */\n    tag_163:\n        /* \"#utility.yul\":621:627   */\n      0x00\n        /* \"#utility.yul\":672:674   */\n      0x1f\n        /* \"#utility.yul\":668:675   */\n      not\n        /* \"#utility.yul\":663:665   */\n      0x1f\n        /* \"#utility.yul\":656:661   */\n      dup4\n        /* \"#utility.yul\":652:666   */\n      add\n        /* \"#utility.yul\":648:676   */\n      and\n        /* \"#utility.yul\":638:676   */\n      swap1\n      pop\n        /* \"#utility.yul\":580:682   */\n      swap2\n      swap1\n      pop\n      jump\t// out\n        /* \"#utility.yul\":688:868   */\n    tag_130:\n        /* \"#utility.yul\":736:813   */\n      0x4e487b7100000000000000000000000000000000000000000000000000000000\n        /* \"#utility.yul\":733:734   */\n      0x00\n        /* \"#utility.yul\":726:814   */\n      mstore\n        /* \"#utility.yul\":833:837   */\n      0x41\n        /* \"#utility.yul\":830:831   */\n      0x04\n        /* \"#utility.yul\":823:838   */\n      mstore\n        /* \"#utility.yul\":857:861   */\n      0x24\n        /* \"#utility.yul\":854:855   */\n      0x00\n        /* \"#utility.yul\":847:862   */\n      revert\n        /* \"#utility.yul\":874:1155   */\n    tag_164:\n        /* \"#utility.yul\":957:984   */\n      tag_231\n        /* \"#utility.yul\":979:983   */\n      dup3\n        /* \"#utility.yul\":957:984   */\n      tag_163\n      jump\t// in\n    tag_231:\n        /* \"#utility.yul\":949:955   */\n      dup2\n        /* \"#utility.yul\":945:985   */\n      add\n        /* \"#utility.yul\":1087:1093   */\n      dup2\n        /* \"#utility.yul\":1075:1085   */\n      dup2\n        /* \"#utility.yul\":1072:1094   */\n      lt\n        /* \"#utility.yul\":1051:1069   */\n      0xffffffffffffffff\n        /* \"#utility.yul\":1039:1049   */\n      dup3\n        /* \"#utility.yul\":1036:1070   */\n      gt\n        /* \"#utility.yul\":1033:1095   */\n      or\n        /* \"#utility.yul\":1030:1118   */\n      iszero\n      tag_232\n      jumpi\n        /* \"#utility.yul\":1098:1116   */\n      tag_233\n      tag_130\n      jump\t// in\n    tag_233:\n        /* \"#utility.yul\":1030:1118   */\n    tag_232:\n        /* \"#utility.yul\":1138:1148   */\n      dup1\n        /* \"#utility.yul\":1134:1136   */\n      0x40\n        /* \"#utility.yul\":1127:1149   */\n      mstore\n        /* \"#utility.yul\":917:1155   */\n      pop\n        /* \"#utility.yul\":874:1155   */\n      pop\n      pop\n      jump\t// out\n        /* \"#utility.yul\":1161:1290   */\n    tag_165:\n        /* \"#utility.yul\":1195:1201   */\n      0x00\n        /* \"#utility.yul\":1222:1242   */\n      tag_235\n      tag_158\n      jump\t// in\n    tag_235:\n        /* \"#utility.yul\":1212:1242   */\n      swap1\n      pop\n        /* \"#utility.yul\":1251:1284   */\n      tag_236\n        /* \"#utility.yul\":1279:1283   */\n      dup3\n        /* \"#utility.yul\":1271:1277   */\n      dup3\n        /* \"#utility.yul\":1251:1284   */\n      tag_164\n      jump\t// in\n    tag_236:\n        /* \"#utility.yul\":1161:1290   */\n      swap2\n      swap1\n      pop\n      jump\t// out\n        /* \"#utility.yul\":1296:1604   */\n    tag_166:\n        /* \"#utility.yul\":1358:1362   */\n      0x00\n        /* \"#utility.yul\":1448:1466   */\n      0xffffffffffffffff\n        /* \"#utility.yul\":1440:1446   */\n      dup3\n        /* \"#utility.yul\":1437:1467   */\n      gt\n        /* \"#utility.yul\":1434:1490   */\n      iszero\n      tag_238\n      jumpi\n        /* \"#utility.yul\":1470:1488   */\n      tag_239\n      tag_130\n      jump\t// in\n    tag_239:\n        /* \"#utility.yul\":1434:1490   */\n    tag_238:\n        /* \"#utility.yul\":1508:1537   */\n      tag_240\n        /* \"#utility.yul\":1530:1536   */\n      dup3\n        /* \"#utility.yul\":1508:1537   */\n      tag_163\n      jump\t// in\n    tag_240:\n        /* \"#utility.yul\":1500:1537   */\n      swap1\n      pop\n        /* \"#utility.yul\":1592:1596   */\n      0x20\n        /* \"#utility.yul\":1586:1590   */\n      dup2\n        /* \"#utility.yul\":1582:1597   */\n      add\n        /* \"#utility.yul\":1574:1597   */\n      swap1\n      pop\n        /* \"#utility.yul\":1296:1604   */\n      swap2\n      swap1\n      pop\n      jump\t// out\n        /* \"#utility.yul\":1610:1756   */\n    tag_167:\n        /* \"#utility.yul\":1707:1713   */\n      dup3\n        /* \"#utility.yul\":1702:1705   */\n      dup2\n        /* \"#utility.yul\":1697:1700   */\n      dup4\n        /* \"#utility.yul\":1684:1714   */\n      calldatacopy\n        /* \"#utility.yul\":1748:1749   */\n      0x00\n        /* \"#utility.yul\":1739:1745   */\n      dup4\n        /* \"#utility.yul\":1734:1737   */\n      dup4\n        /* \"#utility.yul\":1730:1746   */\n      add\n        /* \"#utility.yul\":1723:1750   */\n      mstore\n        /* \"#utility.yul\":1610:1756   */\n      pop\n      pop\n      pop\n      jump\t// out\n        /* \"#utility.yul\":1762:2187   */\n    tag_168:\n        /* \"#utility.yul\":1840:1845   */\n      0x00\n        /* \"#utility.yul\":1865:1931   */\n      tag_243\n        /* \"#utility.yul\":1881:1930   */\n      tag_244\n        /* \"#utility.yul\":1923:1929   */\n      dup5\n        /* \"#utility.yul\":1881:1930   */\n      tag_166\n      jump\t// in\n    tag_244:\n        /* \"#utility.yul\":1865:1931   */\n      tag_165\n      jump\t// in\n    tag_243:\n        /* \"#utility.yul\":1856:1931   */\n      swap1\n      pop\n        /* \"#utility.yul\":1954:1960   */\n      dup3\n        /* \"#utility.yul\":1947:1952   */\n      dup2\n        /* \"#utility.yul\":1940:1961   */\n      mstore\n        /* \"#utility.yul\":1992:1996   */\n      0x20\n        /* \"#utility.yul\":1985:1990   */\n      dup2\n        /* \"#utility.yul\":1981:1997   */\n      add\n        /* \"#utility.yul\":2030:2033   */\n      dup5\n        /* \"#utility.yul\":2021:2027   */\n      dup5\n        /* \"#utility.yul\":2016:2019   */\n      dup5\n        /* \"#utility.yul\":2012:2028   */\n      add\n        /* \"#utility.yul\":2009:2034   */\n      gt\n        /* \"#utility.yul\":2006:2118   */\n      iszero\n      tag_245\n      jumpi\n        /* \"#utility.yul\":2037:2116   */\n      tag_246\n      tag_162\n      jump\t// in\n    tag_246:\n        /* \"#utility.yul\":2006:2118   */\n    tag_245:\n        /* \"#utility.yul\":2127:2181   */\n      tag_247\n        /* \"#utility.yul\":2174:2180   */\n      dup5\n        /* \"#utility.yul\":2169:2172   */\n      dup3\n        /* \"#utility.yul\":2164:2167   */\n      dup6\n        /* \"#utility.yul\":2127:2181   */\n      tag_167\n      jump\t// in\n    tag_247:\n        /* \"#utility.yul\":1846:2187   */\n      pop\n        /* \"#utility.yul\":1762:2187   */\n      swap4\n      swap3\n      pop\n      pop\n      pop\n      jump\t// out\n        /* \"#utility.yul\":2207:2547   */\n    tag_169:\n        /* \"#utility.yul\":2263:2268   */\n      0x00\n        /* \"#utility.yul\":2312:2315   */\n      dup3\n        /* \"#utility.yul\":2305:2309   */\n      0x1f\n        /* \"#utility.yul\":2297:2303   */\n      dup4\n        /* \"#utility.yul\":2293:2310   */\n      add\n        /* \"#utility.yul\":2289:2316   */\n      slt\n        /* \"#utility.yul\":2279:2401   */\n      tag_249\n      jumpi\n        /* \"#utility.yul\":2320:2399   */\n      tag_250\n      tag_161\n      jump\t// in\n    tag_250:\n        /* \"#utility.yul\":2279:2401   */\n    tag_249:\n        /* \"#utility.yul\":2437:2443   */\n      dup2\n        /* \"#utility.yul\":2424:2444   */\n      calldataload\n        /* \"#utility.yul\":2462:2541   */\n      tag_251\n        /* \"#utility.yul\":2537:2540   */\n      dup5\n        /* \"#utility.yul\":2529:2535   */\n      dup3\n        /* \"#utility.yul\":2522:2526   */\n      0x20\n        /* \"#utility.yul\":2514:2520   */\n      dup7\n        /* \"#utility.yul\":2510:2527   */\n      add\n        /* \"#utility.yul\":2462:2541   */\n      tag_168\n      jump\t// in\n    tag_251:\n        /* \"#utility.yul\":2453:2541   */\n      swap2\n      pop\n        /* \"#utility.yul\":2269:2547   */\n      pop\n        /* \"#utility.yul\":2207:2547   */\n      swap3\n      swap2\n      pop\n      pop\n      jump\t// out\n        /* \"#utility.yul\":2553:2630   */\n    tag_170:\n        /* \"#utility.yul\":2590:2597   */\n      0x00\n        /* \"#utility.yul\":2619:2624   */\n      dup2\n        /* \"#utility.yul\":2608:2624   */\n      swap1\n      pop\n        /* \"#utility.yul\":2553:2630   */\n      swap2\n      swap1\n      pop\n      jump\t// out\n        /* \"#utility.yul\":2636:2758   */\n    tag_171:\n        /* \"#utility.yul\":2709:2733   */\n      tag_254\n        /* \"#utility.yul\":2727:2732   */\n      dup2\n        /* \"#utility.yul\":2709:2733   */\n      tag_170\n      jump\t// in\n    tag_254:\n        /* \"#utility.yul\":2702:2707   */\n      dup2\n        /* \"#utility.yul\":2699:2734   */\n      eq\n        /* \"#utility.yul\":2689:2752   */\n      tag_255\n      jumpi\n        /* \"#utility.yul\":2748:2749   */\n      0x00\n        /* \"#utility.yul\":2745:2746   */\n      dup1\n        /* \"#utility.yul\":2738:2750   */\n      revert\n        /* \"#utility.yul\":2689:2752   */\n    tag_255:\n        /* \"#utility.yul\":2636:2758   */\n      pop\n      jump\t// out\n        /* \"#utility.yul\":2764:2903   */\n    tag_172:\n        /* \"#utility.yul\":2810:2815   */\n      0x00\n        /* \"#utility.yul\":2848:2854   */\n      dup2\n        /* \"#utility.yul\":2835:2855   */\n      calldataload\n        /* \"#utility.yul\":2826:2855   */\n      swap1\n      pop\n        /* \"#utility.yul\":2864:2897   */\n      tag_257\n        /* \"#utility.yul\":2891:2896   */\n      dup2\n        /* \"#utility.yul\":2864:2897   */\n      tag_171\n      jump\t// in\n    tag_257:\n        /* \"#utility.yul\":2764:2903   */\n      swap3\n      swap2\n      pop\n      pop\n      jump\t// out\n        /* \"#utility.yul\":2909:3888   */\n    tag_11:\n        /* \"#utility.yul\":3006:3012   */\n      0x00\n        /* \"#utility.yul\":3014:3020   */\n      dup1\n        /* \"#utility.yul\":3022:3028   */\n      0x00\n        /* \"#utility.yul\":3071:3073   */\n      0x60\n        /* \"#utility.yul\":3059:3068   */\n      dup5\n        /* \"#utility.yul\":3050:3057   */\n      dup7\n        /* \"#utility.yul\":3046:3069   */\n      sub\n        /* \"#utility.yul\":3042:3074   */\n      slt\n        /* \"#utility.yul\":3039:3158   */\n      iszero\n      tag_259\n      jumpi\n        /* \"#utility.yul\":3077:3156   */\n      tag_260\n      tag_159\n      jump\t// in\n    tag_260:\n        /* \"#utility.yul\":3039:3158   */\n    tag_259:\n        /* \"#utility.yul\":3225:3226   */\n      0x00\n        /* \"#utility.yul\":3214:3223   */\n      dup5\n        /* \"#utility.yul\":3210:3227   */\n      add\n        /* \"#utility.yul\":3197:3228   */\n      calldataload\n        /* \"#utility.yul\":3255:3273   */\n      0xffffffffffffffff\n        /* \"#utility.yul\":3247:3253   */\n      dup2\n        /* \"#utility.yul\":3244:3274   */\n      gt\n        /* \"#utility.yul\":3241:3358   */\n      iszero\n      tag_261\n      jumpi\n        /* \"#utility.yul\":3277:3356   */\n      tag_262\n      tag_160\n      jump\t// in\n    tag_262:\n        /* \"#utility.yul\":3241:3358   */\n    tag_261:\n        /* \"#utility.yul\":3382:3445   */\n      tag_263\n        /* \"#utility.yul\":3437:3444   */\n      dup7\n        /* \"#utility.yul\":3428:3434   */\n      dup3\n        /* \"#utility.yul\":3417:3426   */\n      dup8\n        /* \"#utility.yul\":3413:3435   */\n      add\n        /* \"#utility.yul\":3382:3445   */\n      tag_169\n      jump\t// in\n    tag_263:\n        /* \"#utility.yul\":3372:3445   */\n      swap4\n      pop\n        /* \"#utility.yul\":3168:3455   */\n      pop\n        /* \"#utility.yul\":3494:3496   */\n      0x20\n        /* \"#utility.yul\":3520:3573   */\n      tag_264\n        /* \"#utility.yul\":3565:3572   */\n      dup7\n        /* \"#utility.yul\":3556:3562   */\n      dup3\n        /* \"#utility.yul\":3545:3554   */\n      dup8\n        /* \"#utility.yul\":3541:3563   */\n      add\n        /* \"#utility.yul\":3520:3573   */\n      tag_172\n      jump\t// in\n    tag_264:\n        /* \"#utility.yul\":3510:3573   */\n      swap3\n      pop\n        /* \"#utility.yul\":3465:3583   */\n      pop\n        /* \"#utility.yul\":3650:3652   */\n      0x40\n        /* \"#utility.yul\":3639:3648   */\n      dup5\n        /* \"#utility.yul\":3635:3653   */\n      add\n        /* \"#utility.yul\":3622:3654   */\n      calldataload\n        /* \"#utility.yul\":3681:3699   */\n      0xffffffffffffffff\n        /* \"#utility.yul\":3673:3679   */\n      dup2\n        /* \"#utility.yul\":3670:3700   */\n      gt\n        /* \"#utility.yul\":3667:3784   */\n      iszero\n      tag_265\n      jumpi\n        /* \"#utility.yul\":3703:3782   */\n      tag_266\n      tag_160\n      jump\t// in\n    tag_266:\n        /* \"#utility.yul\":3667:3784   */\n    tag_265:\n        /* \"#utility.yul\":3808:3871   */\n      tag_267\n        /* \"#utility.yul\":3863:3870   */\n      dup7\n        /* \"#utility.yul\":3854:3860   */\n      dup3\n        /* \"#utility.yul\":3843:3852   */\n      dup8\n        /* \"#utility.yul\":3839:3861   */\n      add\n        /* \"#utility.yul\":3808:3871   */\n      tag_169\n      jump\t// in\n    tag_267:\n        /* \"#utility.yul\":3798:3871   */\n      swap2\n      pop\n        /* \"#utility.yul\":3593:3881   */\n      pop\n        /* \"#utility.yul\":2909:3888   */\n      swap3\n      pop\n      swap3\n      pop\n      swap3\n      jump\t// out\n        /* \"#utility.yul\":3894:3993   */\n    tag_173:\n        /* \"#utility.yul\":3946:3952   */\n      0x00\n        /* \"#utility.yul\":3980:3985   */\n      dup2\n        /* \"#utility.yul\":3974:3986   */\n      mload\n        /* \"#utility.yul\":3964:3986   */\n      swap1\n      pop\n        /* \"#utility.yul\":3894:3993   */\n      swap2\n      swap1\n      pop\n      jump\t// out\n        /* \"#utility.yul\":3999:4168   */\n    tag_174:\n        /* \"#utility.yul\":4083:4094   */\n      0x00\n        /* \"#utility.yul\":4117:4123   */\n      dup3\n        /* \"#utility.yul\":4112:4115   */\n      dup3\n        /* \"#utility.yul\":4105:4124   */\n      mstore\n        /* \"#utility.yul\":4157:4161   */\n      0x20\n        /* \"#utility.yul\":4152:4155   */\n      dup3\n        /* \"#utility.yul\":4148:4162   */\n      add\n        /* \"#utility.yul\":4133:4162   */\n      swap1\n      pop\n        /* \"#utility.yul\":3999:4168   */\n      swap3\n      swap2\n      pop\n      pop\n      jump\t// out\n        /* \"#utility.yul\":4174:4420   */\n    tag_175:\n        /* \"#utility.yul\":4255:4256   */\n      0x00\n        /* \"#utility.yul\":4265:4378   */\n    tag_271:\n        /* \"#utility.yul\":4279:4285   */\n      dup4\n        /* \"#utility.yul\":4276:4277   */\n      dup2\n        /* \"#utility.yul\":4273:4286   */\n      lt\n        /* \"#utility.yul\":4265:4378   */\n      iszero\n      tag_273\n      jumpi\n        /* \"#utility.yul\":4364:4365   */\n      dup1\n        /* \"#utility.yul\":4359:4362   */\n      dup3\n        /* \"#utility.yul\":4355:4366   */\n      add\n        /* \"#utility.yul\":4349:4367   */\n      mload\n        /* \"#utility.yul\":4345:4346   */\n      dup2\n        /* \"#utility.yul\":4340:4343   */\n      dup5\n        /* \"#utility.yul\":4336:4347   */\n      add\n        /* \"#utility.yul\":4329:4368   */\n      mstore\n        /* \"#utility.yul\":4301:4303   */\n      0x20\n        /* \"#utility.yul\":4298:4299   */\n      dup2\n        /* \"#utility.yul\":4294:4304   */\n      add\n        /* \"#utility.yul\":4289:4304   */\n      swap1\n      pop\n        /* \"#utility.yul\":4265:4378   */\n      jump(tag_271)\n    tag_273:\n        /* \"#utility.yul\":4412:4413   */\n      0x00\n        /* \"#utility.yul\":4403:4409   */\n      dup5\n        /* \"#utility.yul\":4398:4401   */\n      dup5\n        /* \"#utility.yul\":4394:4410   */\n      add\n        /* \"#utility.yul\":4387:4414   */\n      mstore\n        /* \"#utility.yul\":4236:4420   */\n      pop\n        /* \"#utility.yul\":4174:4420   */\n      pop\n      pop\n      pop\n      jump\t// out\n        /* \"#utility.yul\":4426:4803   */\n    tag_176:\n        /* \"#utility.yul\":4514:4517   */\n      0x00\n        /* \"#utility.yul\":4542:4581   */\n      tag_275\n        /* \"#utility.yul\":4575:4580   */\n      dup3\n        /* \"#utility.yul\":4542:4581   */\n      tag_173\n      jump\t// in\n    tag_275:\n        /* \"#utility.yul\":4597:4668   */\n      tag_276\n        /* \"#utility.yul\":4661:4667   */\n      dup2\n        /* \"#utility.yul\":4656:4659   */\n      dup6\n        /* \"#utility.yul\":4597:4668   */\n      tag_174\n      jump\t// in\n    tag_276:\n        /* \"#utility.yul\":4590:4668   */\n      swap4\n      pop\n        /* \"#utility.yul\":4677:4742   */\n      tag_277\n        /* \"#utility.yul\":4735:4741   */\n      dup2\n        /* \"#utility.yul\":4730:4733   */\n      dup6\n        /* \"#utility.yul\":4723:4727   */\n      0x20\n        /* \"#utility.yul\":4716:4721   */\n      dup7\n        /* \"#utility.yul\":4712:4728   */\n      add\n        /* \"#utility.yul\":4677:4742   */\n      tag_175\n      jump\t// in\n    tag_277:\n        /* \"#utility.yul\":4767:4796   */\n      tag_278\n        /* \"#utility.yul\":4789:4795   */\n      dup2\n        /* \"#utility.yul\":4767:4796   */\n      tag_163\n      jump\t// in\n    tag_278:\n        /* \"#utility.yul\":4762:4765   */\n      dup5\n        /* \"#utility.yul\":4758:4797   */\n      add\n        /* \"#utility.yul\":4751:4797   */\n      swap2\n      pop\n        /* \"#utility.yul\":4518:4803   */\n      pop\n        /* \"#utility.yul\":4426:4803   */\n      swap3\n      swap2\n      pop\n      pop\n      jump\t// out\n        /* \"#utility.yul\":4809:5122   */\n    tag_16:\n        /* \"#utility.yul\":4922:4926   */\n      0x00\n        /* \"#utility.yul\":4960:4962   */\n      0x20\n        /* \"#utility.yul\":4949:4958   */\n      dup3\n        /* \"#utility.yul\":4945:4963   */\n      add\n        /* \"#utility.yul\":4937:4963   */\n      swap1\n      pop\n        /* \"#utility.yul\":5009:5018   */\n      dup2\n        /* \"#utility.yul\":5003:5007   */\n      dup2\n        /* \"#utility.yul\":4999:5019   */\n      sub\n        /* \"#utility.yul\":4995:4996   */\n      0x00\n        /* \"#utility.yul\":4984:4993   */\n      dup4\n        /* \"#utility.yul\":4980:4997   */\n      add\n        /* \"#utility.yul\":4973:5020   */\n      mstore\n        /* \"#utility.yul\":5037:5115   */\n      tag_280\n        /* \"#utility.yul\":5110:5114   */\n      dup2\n        /* \"#utility.yul\":5101:5107   */\n      dup5\n        /* \"#utility.yul\":5037:5115   */\n      tag_176\n      jump\t// in\n    tag_280:\n        /* \"#utility.yul\":5029:5115   */\n      swap1\n      pop\n        /* \"#utility.yul\":4809:5122   */\n      swap3\n      swap2\n      pop\n      pop\n      jump\t// out\n        /* \"#utility.yul\":5128:5637   */\n    tag_19:\n        /* \"#utility.yul\":5197:5203   */\n      0x00\n        /* \"#utility.yul\":5246:5248   */\n      0x20\n        /* \"#utility.yul\":5234:5243   */\n      dup3\n        /* \"#utility.yul\":5225:5232   */\n      dup5\n        /* \"#utility.yul\":5221:5244   */\n      sub\n        /* \"#utility.yul\":5217:5249   */\n      slt\n        /* \"#utility.yul\":5214:5333   */\n      iszero\n      tag_282\n      jumpi\n        /* \"#utility.yul\":5252:5331   */\n      tag_283\n      tag_159\n      jump\t// in\n    tag_283:\n        /* \"#utility.yul\":5214:5333   */\n    tag_282:\n        /* \"#utility.yul\":5400:5401   */\n      0x00\n        /* \"#utility.yul\":5389:5398   */\n      dup3\n        /* \"#utility.yul\":5385:5402   */\n      add\n        /* \"#utility.yul\":5372:5403   */\n      calldataload\n        /* \"#utility.yul\":5430:5448   */\n      0xffffffffffffffff\n        /* \"#utility.yul\":5422:5428   */\n      dup2\n        /* \"#utility.yul\":5419:5449   */\n      gt\n        /* \"#utility.yul\":5416:5533   */\n      iszero\n      tag_284\n      jumpi\n        /* \"#utility.yul\":5452:5531   */\n      tag_285\n      tag_160\n      jump\t// in\n    tag_285:\n        /* \"#utility.yul\":5416:5533   */\n    tag_284:\n        /* \"#utility.yul\":5557:5620   */\n      tag_286\n        /* \"#utility.yul\":5612:5619   */\n      dup5\n        /* \"#utility.yul\":5603:5609   */\n      dup3\n        /* \"#utility.yul\":5592:5601   */\n      dup6\n        /* \"#utility.yul\":5588:5610   */\n      add\n        /* \"#utility.yul\":5557:5620   */\n      tag_169\n      jump\t// in\n    tag_286:\n        /* \"#utility.yul\":5547:5620   */\n      swap2\n      pop\n        /* \"#utility.yul\":5343:5630   */\n      pop\n        /* \"#utility.yul\":5128:5637   */\n      swap3\n      swap2\n      pop\n      pop\n      jump\t// out\n        /* \"#utility.yul\":5643:5761   */\n    tag_177:\n        /* \"#utility.yul\":5730:5754   */\n      tag_288\n        /* \"#utility.yul\":5748:5753   */\n      dup2\n        /* \"#utility.yul\":5730:5754   */\n      tag_170\n      jump\t// in\n    tag_288:\n        /* \"#utility.yul\":5725:5728   */\n      dup3\n        /* \"#utility.yul\":5718:5755   */\n      mstore\n        /* \"#utility.yul\":5643:5761   */\n      pop\n      pop\n      jump\t// out\n        /* \"#utility.yul\":5767:5989   */\n    tag_22:\n        /* \"#utility.yul\":5860:5864   */\n      0x00\n        /* \"#utility.yul\":5898:5900   */\n      0x20\n        /* \"#utility.yul\":5887:5896   */\n      dup3\n        /* \"#utility.yul\":5883:5901   */\n      add\n        /* \"#utility.yul\":5875:5901   */\n      swap1\n      pop\n        /* \"#utility.yul\":5911:5982   */\n      tag_290\n        /* \"#utility.yul\":5979:5980   */\n      0x00\n        /* \"#utility.yul\":5968:5977   */\n      dup4\n        /* \"#utility.yul\":5964:5981   */\n      add\n        /* \"#utility.yul\":5955:5961   */\n      dup5\n        /* \"#utility.yul\":5911:5982   */\n      tag_177\n      jump\t// in\n    tag_290:\n        /* \"#utility.yul\":5767:5989   */\n      swap3\n      swap2\n      pop\n      pop\n      jump\t// out\n        /* \"#utility.yul\":5995:6119   */\n    tag_178:\n        /* \"#utility.yul\":6072:6078   */\n      0x00\n        /* \"#utility.yul\":6106:6111   */\n      dup2\n        /* \"#utility.yul\":6100:6112   */\n      mload\n        /* \"#utility.yul\":6090:6112   */\n      swap1\n      pop\n        /* \"#utility.yul\":5995:6119   */\n      swap2\n      swap1\n      pop\n      jump\t// out\n        /* \"#utility.yul\":6125:6319   */\n    tag_179:\n        /* \"#utility.yul\":6234:6245   */\n      0x00\n        /* \"#utility.yul\":6268:6274   */\n      dup3\n        /* \"#utility.yul\":6263:6266   */\n      dup3\n        /* \"#utility.yul\":6256:6275   */\n      mstore\n        /* \"#utility.yul\":6308:6312   */\n      0x20\n        /* \"#utility.yul\":6303:6306   */\n      dup3\n        /* \"#utility.yul\":6299:6313   */\n      add\n        /* \"#utility.yul\":6284:6313   */\n      swap1\n      pop\n        /* \"#utility.yul\":6125:6319   */\n      swap3\n      swap2\n      pop\n      pop\n      jump\t// out\n        /* \"#utility.yul\":6325:6467   */\n    tag_180:\n        /* \"#utility.yul\":6402:6406   */\n      0x00\n        /* \"#utility.yul\":6425:6428   */\n      dup2\n        /* \"#utility.yul\":6417:6428   */\n      swap1\n      pop\n        /* \"#utility.yul\":6455:6459   */\n      0x20\n        /* \"#utility.yul\":6450:6453   */\n      dup3\n        /* \"#utility.yul\":6446:6460   */\n      add\n        /* \"#utility.yul\":6438:6460   */\n      swap1\n      pop\n        /* \"#utility.yul\":6325:6467   */\n      swap2\n      swap1\n      pop\n      jump\t// out\n        /* \"#utility.yul\":6473:6632   */\n    tag_181:\n        /* \"#utility.yul\":6547:6558   */\n      0x00\n        /* \"#utility.yul\":6581:6587   */\n      dup3\n        /* \"#utility.yul\":6576:6579   */\n      dup3\n        /* \"#utility.yul\":6569:6588   */\n      mstore\n        /* \"#utility.yul\":6621:6625   */\n      0x20\n        /* \"#utility.yul\":6616:6619   */\n      dup3\n        /* \"#utility.yul\":6612:6626   */\n      add\n        /* \"#utility.yul\":6597:6626   */\n      swap1\n      pop\n        /* \"#utility.yul\":6473:6632   */\n      swap3\n      swap2\n      pop\n      pop\n      jump\t// out\n        /* \"#utility.yul\":6638:6995   */\n    tag_182:\n        /* \"#utility.yul\":6716:6719   */\n      0x00\n        /* \"#utility.yul\":6744:6783   */\n      tag_296\n        /* \"#utility.yul\":6777:6782   */\n      dup3\n        /* \"#utility.yul\":6744:6783   */\n      tag_173\n      jump\t// in\n    tag_296:\n        /* \"#utility.yul\":6799:6860   */\n      tag_297\n        /* \"#utility.yul\":6853:6859   */\n      dup2\n        /* \"#utility.yul\":6848:6851   */\n      dup6\n        /* \"#utility.yul\":6799:6860   */\n      tag_181\n      jump\t// in\n    tag_297:\n        /* \"#utility.yul\":6792:6860   */\n      swap4\n      pop\n        /* \"#utility.yul\":6869:6934   */\n      tag_298\n        /* \"#utility.yul\":6927:6933   */\n      dup2\n        /* \"#utility.yul\":6922:6925   */\n      dup6\n        /* \"#utility.yul\":6915:6919   */\n      0x20\n        /* \"#utility.yul\":6908:6913   */\n      dup7\n        /* \"#utility.yul\":6904:6920   */\n      add\n        /* \"#utility.yul\":6869:6934   */\n      tag_175\n      jump\t// in\n    tag_298:\n        /* \"#utility.yul\":6959:6988   */\n      tag_299\n        /* \"#utility.yul\":6981:6987   */\n      dup2\n        /* \"#utility.yul\":6959:6988   */\n      tag_163\n      jump\t// in\n    tag_299:\n        /* \"#utility.yul\":6954:6957   */\n      dup5\n        /* \"#utility.yul\":6950:6989   */\n      add\n        /* \"#utility.yul\":6943:6989   */\n      swap2\n      pop\n        /* \"#utility.yul\":6720:6995   */\n      pop\n        /* \"#utility.yul\":6638:6995   */\n      swap3\n      swap2\n      pop\n      pop\n      jump\t// out\n        /* \"#utility.yul\":7001:7197   */\n    tag_183:\n        /* \"#utility.yul\":7090:7100   */\n      0x00\n        /* \"#utility.yul\":7125:7191   */\n      tag_301\n        /* \"#utility.yul\":7187:7190   */\n      dup4\n        /* \"#utility.yul\":7179:7185   */\n      dup4\n        /* \"#utility.yul\":7125:7191   */\n      tag_182\n      jump\t// in\n    tag_301:\n        /* \"#utility.yul\":7111:7191   */\n      swap1\n      pop\n        /* \"#utility.yul\":7001:7197   */\n      swap3\n      swap2\n      pop\n      pop\n      jump\t// out\n        /* \"#utility.yul\":7203:7326   */\n    tag_184:\n        /* \"#utility.yul\":7283:7287   */\n      0x00\n        /* \"#utility.yul\":7315:7319   */\n      0x20\n        /* \"#utility.yul\":7310:7313   */\n      dup3\n        /* \"#utility.yul\":7306:7320   */\n      add\n        /* \"#utility.yul\":7298:7320   */\n      swap1\n      pop\n        /* \"#utility.yul\":7203:7326   */\n      swap2\n      swap1\n      pop\n      jump\t// out\n        /* \"#utility.yul\":7360:8351   */\n    tag_185:\n        /* \"#utility.yul\":7499:7502   */\n      0x00\n        /* \"#utility.yul\":7528:7592   */\n      tag_304\n        /* \"#utility.yul\":7586:7591   */\n      dup3\n        /* \"#utility.yul\":7528:7592   */\n      tag_178\n      jump\t// in\n    tag_304:\n        /* \"#utility.yul\":7608:7704   */\n      tag_305\n        /* \"#utility.yul\":7697:7703   */\n      dup2\n        /* \"#utility.yul\":7692:7695   */\n      dup6\n        /* \"#utility.yul\":7608:7704   */\n      tag_179\n      jump\t// in\n    tag_305:\n        /* \"#utility.yul\":7601:7704   */\n      swap4\n      pop\n        /* \"#utility.yul\":7730:7733   */\n      dup4\n        /* \"#utility.yul\":7775:7779   */\n      0x20\n        /* \"#utility.yul\":7767:7773   */\n      dup3\n        /* \"#utility.yul\":7763:7780   */\n      mul\n        /* \"#utility.yul\":7758:7761   */\n      dup6\n        /* \"#utility.yul\":7754:7781   */\n      add\n        /* \"#utility.yul\":7805:7871   */\n      tag_306\n        /* \"#utility.yul\":7865:7870   */\n      dup6\n        /* \"#utility.yul\":7805:7871   */\n      tag_180\n      jump\t// in\n    tag_306:\n        /* \"#utility.yul\":7894:7901   */\n      dup1\n        /* \"#utility.yul\":7925:7926   */\n      0x00\n        /* \"#utility.yul\":7910:8306   */\n    tag_307:\n        /* \"#utility.yul\":7935:7941   */\n      dup6\n        /* \"#utility.yul\":7932:7933   */\n      dup2\n        /* \"#utility.yul\":7929:7942   */\n      lt\n        /* \"#utility.yul\":7910:8306   */\n      iszero\n      tag_309\n      jumpi\n        /* \"#utility.yul\":8006:8015   */\n      dup5\n        /* \"#utility.yul\":8000:8004   */\n      dup5\n        /* \"#utility.yul\":7996:8016   */\n      sub\n        /* \"#utility.yul\":7991:7994   */\n      dup10\n        /* \"#utility.yul\":7984:8017   */\n      mstore\n        /* \"#utility.yul\":8057:8063   */\n      dup2\n        /* \"#utility.yul\":8051:8064   */\n      mload\n        /* \"#utility.yul\":8085:8169   */\n      tag_310\n        /* \"#utility.yul\":8164:8168   */\n      dup6\n        /* \"#utility.yul\":8149:8162   */\n      dup3\n        /* \"#utility.yul\":8085:8169   */\n      tag_183\n      jump\t// in\n    tag_310:\n        /* \"#utility.yul\":8077:8169   */\n      swap5\n      pop\n        /* \"#utility.yul\":8192:8262   */\n      tag_311\n        /* \"#utility.yul\":8255:8261   */\n      dup4\n        /* \"#utility.yul\":8192:8262   */\n      tag_184\n      jump\t// in\n    tag_311:\n        /* \"#utility.yul\":8182:8262   */\n      swap3\n      pop\n        /* \"#utility.yul\":8291:8295   */\n      0x20\n        /* \"#utility.yul\":8286:8289   */\n      dup11\n        /* \"#utility.yul\":8282:8296   */\n      add\n        /* \"#utility.yul\":8275:8296   */\n      swap10\n      pop\n        /* \"#utility.yul\":7970:8306   */\n      pop\n        /* \"#utility.yul\":7957:7958   */\n      0x01\n        /* \"#utility.yul\":7954:7955   */\n      dup2\n        /* \"#utility.yul\":7950:7959   */\n      add\n        /* \"#utility.yul\":7945:7959   */\n      swap1\n      pop\n        /* \"#utility.yul\":7910:8306   */\n      jump(tag_307)\n    tag_309:\n        /* \"#utility.yul\":7914:7928   */\n      pop\n        /* \"#utility.yul\":8322:8326   */\n      dup3\n        /* \"#utility.yul\":8315:8326   */\n      swap8\n      pop\n        /* \"#utility.yul\":8342:8345   */\n      dup8\n        /* \"#utility.yul\":8335:8345   */\n      swap6\n      pop\n        /* \"#utility.yul\":7504:8351   */\n      pop\n      pop\n      pop\n      pop\n      pop\n        /* \"#utility.yul\":7360:8351   */\n      swap3\n      swap2\n      pop\n      pop\n      jump\t// out\n        /* \"#utility.yul\":8357:8770   */\n    tag_29:\n        /* \"#utility.yul\":8520:8524   */\n      0x00\n        /* \"#utility.yul\":8558:8560   */\n      0x20\n        /* \"#utility.yul\":8547:8556   */\n      dup3\n        /* \"#utility.yul\":8543:8561   */\n      add\n        /* \"#utility.yul\":8535:8561   */\n      swap1\n      pop\n        /* \"#utility.yul\":8607:8616   */\n      dup2\n        /* \"#utility.yul\":8601:8605   */\n      dup2\n        /* \"#utility.yul\":8597:8617   */\n      sub\n        /* \"#utility.yul\":8593:8594   */\n      0x00\n        /* \"#utility.yul\":8582:8591   */\n      dup4\n        /* \"#utility.yul\":8578:8595   */\n      add\n        /* \"#utility.yul\":8571:8618   */\n      mstore\n        /* \"#utility.yul\":8635:8763   */\n      tag_313\n        /* \"#utility.yul\":8758:8762   */\n      dup2\n        /* \"#utility.yul\":8749:8755   */\n      dup5\n        /* \"#utility.yul\":8635:8763   */\n      tag_185\n      jump\t// in\n    tag_313:\n        /* \"#utility.yul\":8627:8763   */\n      swap1\n      pop\n        /* \"#utility.yul\":8357:8770   */\n      swap3\n      swap2\n      pop\n      pop\n      jump\t// out\n        /* \"#utility.yul\":8776:8924   */\n    tag_186:\n        /* \"#utility.yul\":8878:8889   */\n      0x00\n        /* \"#utility.yul\":8915:8918   */\n      dup2\n        /* \"#utility.yul\":8900:8918   */\n      swap1\n      pop\n        /* \"#utility.yul\":8776:8924   */\n      swap3\n      swap2\n      pop\n      pop\n      jump\t// out\n        /* \"#utility.yul\":8930:9320   */\n    tag_187:\n        /* \"#utility.yul\":9036:9039   */\n      0x00\n        /* \"#utility.yul\":9064:9103   */\n      tag_316\n        /* \"#utility.yul\":9097:9102   */\n      dup3\n        /* \"#utility.yul\":9064:9103   */\n      tag_173\n      jump\t// in\n    tag_316:\n        /* \"#utility.yul\":9119:9208   */\n      tag_317\n        /* \"#utility.yul\":9201:9207   */\n      dup2\n        /* \"#utility.yul\":9196:9199   */\n      dup6\n        /* \"#utility.yul\":9119:9208   */\n      tag_186\n      jump\t// in\n    tag_317:\n        /* \"#utility.yul\":9112:9208   */\n      swap4\n      pop\n        /* \"#utility.yul\":9217:9282   */\n      tag_318\n        /* \"#utility.yul\":9275:9281   */\n      dup2\n        /* \"#utility.yul\":9270:9273   */\n      dup6\n        /* \"#utility.yul\":9263:9267   */\n      0x20\n        /* \"#utility.yul\":9256:9261   */\n      dup7\n        /* \"#utility.yul\":9252:9268   */\n      add\n        /* \"#utility.yul\":9217:9282   */\n      tag_175\n      jump\t// in\n    tag_318:\n        /* \"#utility.yul\":9307:9313   */\n      dup1\n        /* \"#utility.yul\":9302:9305   */\n      dup5\n        /* \"#utility.yul\":9298:9314   */\n      add\n        /* \"#utility.yul\":9291:9314   */\n      swap2\n      pop\n        /* \"#utility.yul\":9040:9320   */\n      pop\n        /* \"#utility.yul\":8930:9320   */\n      swap3\n      swap2\n      pop\n      pop\n      jump\t// out\n        /* \"#utility.yul\":9326:9405   */\n    tag_188:\n        /* \"#utility.yul\":9365:9372   */\n      0x00\n        /* \"#utility.yul\":9394:9399   */\n      dup2\n        /* \"#utility.yul\":9383:9399   */\n      swap1\n      pop\n        /* \"#utility.yul\":9326:9405   */\n      swap2\n      swap1\n      pop\n      jump\t// out\n        /* \"#utility.yul\":9411:9568   */\n    tag_189:\n        /* \"#utility.yul\":9516:9561   */\n      tag_321\n        /* \"#utility.yul\":9536:9560   */\n      tag_322\n        /* \"#utility.yul\":9554:9559   */\n      dup3\n        /* \"#utility.yul\":9536:9560   */\n      tag_170\n      jump\t// in\n    tag_322:\n        /* \"#utility.yul\":9516:9561   */\n      tag_188\n      jump\t// in\n    tag_321:\n        /* \"#utility.yul\":9511:9514   */\n      dup3\n        /* \"#utility.yul\":9504:9562   */\n      mstore\n        /* \"#utility.yul\":9411:9568   */\n      pop\n      pop\n      jump\t// out\n        /* \"#utility.yul\":9574:10150   */\n    tag_35:\n        /* \"#utility.yul\":9782:9785   */\n      0x00\n        /* \"#utility.yul\":9804:9899   */\n      tag_324\n        /* \"#utility.yul\":9895:9898   */\n      dup3\n        /* \"#utility.yul\":9886:9892   */\n      dup7\n        /* \"#utility.yul\":9804:9899   */\n      tag_187\n      jump\t// in\n    tag_324:\n        /* \"#utility.yul\":9797:9899   */\n      swap2\n      pop\n        /* \"#utility.yul\":9909:9984   */\n      tag_325\n        /* \"#utility.yul\":9980:9983   */\n      dup3\n        /* \"#utility.yul\":9971:9977   */\n      dup6\n        /* \"#utility.yul\":9909:9984   */\n      tag_189\n      jump\t// in\n    tag_325:\n        /* \"#utility.yul\":10009:10011   */\n      0x20\n        /* \"#utility.yul\":10004:10007   */\n      dup3\n        /* \"#utility.yul\":10000:10012   */\n      add\n        /* \"#utility.yul\":9993:10012   */\n      swap2\n      pop\n        /* \"#utility.yul\":10029:10124   */\n      tag_326\n        /* \"#utility.yul\":10120:10123   */\n      dup3\n        /* \"#utility.yul\":10111:10117   */\n      dup5\n        /* \"#utility.yul\":10029:10124   */\n      tag_187\n      jump\t// in\n    tag_326:\n        /* \"#utility.yul\":10022:10124   */\n      swap2\n      pop\n        /* \"#utility.yul\":10141:10144   */\n      dup2\n        /* \"#utility.yul\":10134:10144   */\n      swap1\n      pop\n        /* \"#utility.yul\":9574:10150   */\n      swap5\n      swap4\n      pop\n      pop\n      pop\n      pop\n      jump\t// out\n        /* \"#utility.yul\":10156:10431   */\n    tag_37:\n        /* \"#utility.yul\":10288:10291   */\n      0x00\n        /* \"#utility.yul\":10310:10405   */\n      tag_328\n        /* \"#utility.yul\":10401:10404   */\n      dup3\n        /* \"#utility.yul\":10392:10398   */\n      dup5\n        /* \"#utility.yul\":10310:10405   */\n      tag_187\n      jump\t// in\n    tag_328:\n        /* \"#utility.yul\":10303:10405   */\n      swap2\n      pop\n        /* \"#utility.yul\":10422:10425   */\n      dup2\n        /* \"#utility.yul\":10415:10425   */\n      swap1\n      pop\n        /* \"#utility.yul\":10156:10431   */\n      swap3\n      swap2\n      pop\n      pop\n      jump\t// out\n        /* \"#utility.yul\":10437:10617   */\n    tag_190:\n        /* \"#utility.yul\":10485:10562   */\n      0x4e487b7100000000000000000000000000000000000000000000000000000000\n        /* \"#utility.yul\":10482:10483   */\n      0x00\n        /* \"#utility.yul\":10475:10563   */\n      mstore\n        /* \"#utility.yul\":10582:10586   */\n      0x22\n        /* \"#utility.yul\":10579:10580   */\n      0x04\n        /* \"#utility.yul\":10572:10587   */\n      mstore\n        /* \"#utility.yul\":10606:10610   */\n      0x24\n        /* \"#utility.yul\":10603:10604   */\n      0x00\n        /* \"#utility.yul\":10596:10611   */\n      revert\n        /* \"#utility.yul\":10623:10943   */\n    tag_51:\n        /* \"#utility.yul\":10667:10673   */\n      0x00\n        /* \"#utility.yul\":10704:10705   */\n      0x02\n        /* \"#utility.yul\":10698:10702   */\n      dup3\n        /* \"#utility.yul\":10694:10706   */\n      div\n        /* \"#utility.yul\":10684:10706   */\n      swap1\n      pop\n        /* \"#utility.yul\":10751:10752   */\n      0x01\n        /* \"#utility.yul\":10745:10749   */\n      dup3\n        /* \"#utility.yul\":10741:10753   */\n      and\n        /* \"#utility.yul\":10772:10790   */\n      dup1\n        /* \"#utility.yul\":10762:10843   */\n      tag_331\n      jumpi\n        /* \"#utility.yul\":10828:10832   */\n      0x7f\n        /* \"#utility.yul\":10820:10826   */\n      dup3\n        /* \"#utility.yul\":10816:10833   */\n      and\n        /* \"#utility.yul\":10806:10833   */\n      swap2\n      pop\n        /* \"#utility.yul\":10762:10843   */\n    tag_331:\n        /* \"#utility.yul\":10890:10892   */\n      0x20\n        /* \"#utility.yul\":10882:10888   */\n      dup3\n        /* \"#utility.yul\":10879:10893   */\n      lt\n        /* \"#utility.yul\":10859:10877   */\n      dup2\n        /* \"#utility.yul\":10856:10894   */\n      sub\n        /* \"#utility.yul\":10853:10937   */\n      tag_332\n      jumpi\n        /* \"#utility.yul\":10909:10927   */\n      tag_333\n      tag_190\n      jump\t// in\n    tag_333:\n        /* \"#utility.yul\":10853:10937   */\n    tag_332:\n        /* \"#utility.yul\":10674:10943   */\n      pop\n        /* \"#utility.yul\":10623:10943   */\n      swap2\n      swap1\n      pop\n      jump\t// out\n        /* \"#utility.yul\":10949:11090   */\n    tag_191:\n        /* \"#utility.yul\":10998:11002   */\n      0x00\n        /* \"#utility.yul\":11021:11024   */\n      dup2\n        /* \"#utility.yul\":11013:11024   */\n      swap1\n      pop\n        /* \"#utility.yul\":11044:11047   */\n      dup2\n        /* \"#utility.yul\":11041:11042   */\n      0x00\n        /* \"#utility.yul\":11034:11048   */\n      mstore\n        /* \"#utility.yul\":11078:11082   */\n      0x20\n        /* \"#utility.yul\":11075:11076   */\n      0x00\n        /* \"#utility.yul\":11065:11083   */\n      keccak256\n        /* \"#utility.yul\":11057:11083   */\n      swap1\n      pop\n        /* \"#utility.yul\":10949:11090   */\n      swap2\n      swap1\n      pop\n      jump\t// out\n        /* \"#utility.yul\":11096:11189   */\n    tag_192:\n        /* \"#utility.yul\":11133:11139   */\n      0x00\n        /* \"#utility.yul\":11180:11182   */\n      0x20\n        /* \"#utility.yul\":11175:11177   */\n      0x1f\n        /* \"#utility.yul\":11168:11173   */\n      dup4\n        /* \"#utility.yul\":11164:11178   */\n      add\n        /* \"#utility.yul\":11160:11183   */\n      div\n        /* \"#utility.yul\":11150:11183   */\n      swap1\n      pop\n        /* \"#utility.yul\":11096:11189   */\n      swap2\n      swap1\n      pop\n      jump\t// out\n        /* \"#utility.yul\":11195:11302   */\n    tag_193:\n        /* \"#utility.yul\":11239:11247   */\n      0x00\n        /* \"#utility.yul\":11289:11294   */\n      dup3\n        /* \"#utility.yul\":11283:11287   */\n      dup3\n        /* \"#utility.yul\":11279:11295   */\n      shl\n        /* \"#utility.yul\":11258:11295   */\n      swap1\n      pop\n        /* \"#utility.yul\":11195:11302   */\n      swap3\n      swap2\n      pop\n      pop\n      jump\t// out\n        /* \"#utility.yul\":11308:11701   */\n    tag_194:\n        /* \"#utility.yul\":11377:11383   */\n      0x00\n        /* \"#utility.yul\":11427:11428   */\n      0x08\n        /* \"#utility.yul\":11415:11425   */\n      dup4\n        /* \"#utility.yul\":11411:11429   */\n      mul\n        /* \"#utility.yul\":11450:11547   */\n      tag_338\n        /* \"#utility.yul\":11480:11546   */\n      0xffffffffffffffffffffffffffffffffffffffffffffffffffffffffffffffff\n        /* \"#utility.yul\":11469:11478   */\n      dup3\n        /* \"#utility.yul\":11450:11547   */\n      tag_193\n      jump\t// in\n    tag_338:\n        /* \"#utility.yul\":11568:11607   */\n      tag_339\n        /* \"#utility.yul\":11598:11606   */\n      dup7\n        /* \"#utility.yul\":11587:11596   */\n      dup4\n        /* \"#utility.yul\":11568:11607   */\n      tag_193\n      jump\t// in\n    tag_339:\n        /* \"#utility.yul\":11556:11607   */\n      swap6\n      pop\n        /* \"#utility.yul\":11640:11644   */\n      dup1\n        /* \"#utility.yul\":11636:11645   */\n      not\n        /* \"#utility.yul\":11629:11634   */\n      dup5\n        /* \"#utility.yul\":11625:11646   */\n      and\n        /* \"#utility.yul\":11616:11646   */\n      swap4\n      pop\n        /* \"#utility.yul\":11689:11693   */\n      dup1\n        /* \"#utility.yul\":11679:11687   */\n      dup7\n        /* \"#utility.yul\":11675:11694   */\n      and\n        /* \"#utility.yul\":11668:11673   */\n      dup5\n        /* \"#utility.yul\":11665:11695   */\n      or\n        /* \"#utility.yul\":11655:11695   */\n      swap3\n      pop\n        /* \"#utility.yul\":11384:11701   */\n      pop\n      pop\n        /* \"#utility.yul\":11308:11701   */\n      swap4\n      swap3\n      pop\n      pop\n      pop\n      jump\t// out\n        /* \"#utility.yul\":11707:11767   */\n    tag_195:\n        /* \"#utility.yul\":11735:11738   */\n      0x00\n        /* \"#utility.yul\":11756:11761   */\n      dup2\n        /* \"#utility.yul\":11749:11761   */\n      swap1\n      pop\n        /* \"#utility.yul\":11707:11767   */\n      swap2\n      swap1\n      pop\n      jump\t// out\n        /* \"#utility.yul\":11773:11915   */\n    tag_196:\n        /* \"#utility.yul\":11823:11832   */\n      0x00\n        /* \"#utility.yul\":11856:11909   */\n      tag_342\n        /* \"#utility.yul\":11874:11908   */\n      tag_343\n        /* \"#utility.yul\":11883:11907   */\n      tag_344\n        /* \"#utility.yul\":11901:11906   */\n      dup5\n        /* \"#utility.yul\":11883:11907   */\n      tag_170\n      jump\t// in\n    tag_344:\n        /* \"#utility.yul\":11874:11908   */\n      tag_195\n      jump\t// in\n    tag_343:\n        /* \"#utility.yul\":11856:11909   */\n      tag_170\n      jump\t// in\n    tag_342:\n        /* \"#utility.yul\":11843:11909   */\n      swap1\n      pop\n        /* \"#utility.yul\":11773:11915   */\n      swap2\n      swap1\n      pop\n      jump\t// out\n        /* \"#utility.yul\":11921:11996   */\n    tag_197:\n        /* \"#utility.yul\":11964:11967   */\n      0x00\n        /* \"#utility.yul\":11985:11990   */\n      dup2\n        /* \"#utility.yul\":11978:11990   */\n      swap1\n      pop\n        /* \"#utility.yul\":11921:11996   */\n      swap2\n      swap1\n      pop\n      jump\t// out\n        /* \"#utility.yul\":12002:12271   */\n    tag_198:\n        /* \"#utility.yul\":12112:12151   */\n      tag_347\n        /* \"#utility.yul\":12143:12150   */\n      dup4\n        /* \"#utility.yul\":12112:12151   */\n      tag_196\n      jump\t// in\n    tag_347:\n        /* \"#utility.yul\":12173:12264   */\n      tag_348\n        /* \"#utility.yul\":12222:12263   */\n      tag_349\n        /* \"#utility.yul\":12246:12262   */\n      dup3\n        /* \"#utility.yul\":12222:12263   */\n      tag_197\n      jump\t// in\n    tag_349:\n        /* \"#utility.yul\":12214:12220   */\n      dup5\n        /* \"#utility.yul\":12207:12211   */\n      dup5\n        /* \"#utility.yul\":12201:12212   */\n      sload\n        /* \"#utility.yul\":12173:12264   */\n      tag_194\n      jump\t// in\n    tag_348:\n        /* \"#utility.yul\":12167:12171   */\n      dup3\n        /* \"#utility.yul\":12160:12265   */\n      sstore\n        /* \"#utility.yul\":12078:12271   */\n      pop\n        /* \"#utility.yul\":12002:12271   */\n      pop\n      pop\n      pop\n      jump\t// out\n        /* \"#utility.yul\":12277:12350   */\n    tag_199:\n        /* \"#utility.yul\":12322:12325   */\n      0x00\n        /* \"#utility.yul\":12277:12350   */\n      swap1\n      jump\t// out\n        /* \"#utility.yul\":12356:12545   */\n    tag_200:\n        /* \"#utility.yul\":12433:12465   */\n      tag_352\n      tag_199\n      jump\t// in\n    tag_352:\n        /* \"#utility.yul\":12474:12539   */\n      tag_353\n        /* \"#utility.yul\":12532:12538   */\n      dup2\n        /* \"#utility.yul\":12524:12530   */\n      dup5\n        /* \"#utility.yul\":12518:12522   */\n      dup5\n        /* \"#utility.yul\":12474:12539   */\n      tag_198\n      jump\t// in\n    tag_353:\n        /* \"#utility.yul\":12409:12545   */\n      pop\n        /* \"#utility.yul\":12356:12545   */\n      pop\n      pop\n      jump\t// out\n        /* \"#utility.yul\":12551:12737   */\n    tag_201:\n        /* \"#utility.yul\":12611:12731   */\n    tag_355:\n        /* \"#utility.yul\":12628:12631   */\n      dup2\n        /* \"#utility.yul\":12621:12626   */\n      dup2\n        /* \"#utility.yul\":12618:12632   */\n      lt\n        /* \"#utility.yul\":12611:12731   */\n      iszero\n      tag_357\n      jumpi\n        /* \"#utility.yul\":12682:12721   */\n      tag_358\n        /* \"#utility.yul\":12719:12720   */\n      0x00\n        /* \"#utility.yul\":12712:12717   */\n      dup3\n        /* \"#utility.yul\":12682:12721   */\n      tag_200\n      jump\t// in\n    tag_358:\n        /* \"#utility.yul\":12655:12656   */\n      0x01\n        /* \"#utility.yul\":12648:12653   */\n      dup2\n        /* \"#utility.yul\":12644:12657   */\n      add\n        /* \"#utility.yul\":12635:12657   */\n      swap1\n      pop\n        /* \"#utility.yul\":12611:12731   */\n      jump(tag_355)\n    tag_357:\n        /* \"#utility.yul\":12551:12737   */\n      pop\n      pop\n      jump\t// out\n        /* \"#utility.yul\":12743:13286   */\n    tag_202:\n        /* \"#utility.yul\":12844:12846   */\n      0x1f\n        /* \"#utility.yul\":12839:12842   */\n      dup3\n        /* \"#utility.yul\":12836:12847   */\n      gt\n        /* \"#utility.yul\":12833:13279   */\n      iszero\n      tag_360\n      jumpi\n        /* \"#utility.yul\":12878:12916   */\n      tag_361\n        /* \"#utility.yul\":12910:12915   */\n      dup2\n        /* \"#utility.yul\":12878:12916   */\n      tag_191\n      jump\t// in\n    tag_361:\n        /* \"#utility.yul\":12962:12991   */\n      tag_362\n        /* \"#utility.yul\":12980:12990   */\n      dup5\n        /* \"#utility.yul\":12962:12991   */\n      tag_192\n      jump\t// in\n    tag_362:\n        /* \"#utility.yul\":12952:12960   */\n      dup2\n        /* \"#utility.yul\":12948:12992   */\n      add\n        /* \"#utility.yul\":13145:13147   */\n      0x20\n        /* \"#utility.yul\":13133:13143   */\n      dup6\n        /* \"#utility.yul\":13130:13148   */\n      lt\n        /* \"#utility.yul\":13127:13176   */\n      iszero\n      tag_363\n      jumpi\n        /* \"#utility.yul\":13166:13174   */\n      dup2\n        /* \"#utility.yul\":13151:13174   */\n      swap1\n      pop\n        /* \"#utility.yul\":13127:13176   */\n    tag_363:\n        /* \"#utility.yul\":13189:13269   */\n      tag_364\n        /* \"#utility.yul\":13245:13267   */\n      tag_365\n        /* \"#utility.yul\":13263:13266   */\n      dup6\n        /* \"#utility.yul\":13245:13267   */\n      tag_192\n      jump\t// in\n    tag_365:\n        /* \"#utility.yul\":13235:13243   */\n      dup4\n        /* \"#utility.yul\":13231:13268   */\n      add\n        /* \"#utility.yul\":13218:13229   */\n      dup3\n        /* \"#utility.yul\":13189:13269   */\n      tag_201\n      jump\t// in\n    tag_364:\n        /* \"#utility.yul\":12848:13279   */\n      pop\n      pop\n        /* \"#utility.yul\":12833:13279   */\n    tag_360:\n        /* \"#utility.yul\":12743:13286   */\n      pop\n      pop\n      pop\n      jump\t// out\n        /* \"#utility.yul\":13292:13409   */\n    tag_203:\n        /* \"#utility.yul\":13346:13354   */\n      0x00\n        /* \"#utility.yul\":13396:13401   */\n      dup3\n        /* \"#utility.yul\":13390:13394   */\n      dup3\n        /* \"#utility.yul\":13386:13402   */\n      shr\n        /* \"#utility.yul\":13365:13402   */\n      swap1\n      pop\n        /* \"#utility.yul\":13292:13409   */\n      swap3\n      swap2\n      pop\n      pop\n      jump\t// out\n        /* \"#utility.yul\":13415:13584   */\n    tag_204:\n        /* \"#utility.yul\":13459:13465   */\n      0x00\n        /* \"#utility.yul\":13492:13543   */\n      tag_368\n        /* \"#utility.yul\":13540:13541   */\n      0x00\n        /* \"#utility.yul\":13536:13542   */\n      not\n        /* \"#utility.yul\":13528:13533   */\n      dup5\n        /* \"#utility.yul\":13525:13526   */\n      0x08\n        /* \"#utility.yul\":13521:13534   */\n      mul\n        /* \"#utility.yul\":13492:13543   */\n      tag_203\n      jump\t// in\n    tag_368:\n        /* \"#utility.yul\":13488:13544   */\n      not\n        /* \"#utility.yul\":13573:13577   */\n      dup1\n        /* \"#utility.yul\":13567:13571   */\n      dup4\n        /* \"#utility.yul\":13563:13578   */\n      and\n        /* \"#utility.yul\":13553:13578   */\n      swap2\n      pop\n        /* \"#utility.yul\":13466:13584   */\n      pop\n        /* \"#utility.yul\":13415:13584   */\n      swap3\n      swap2\n      pop\n      pop\n      jump\t// out\n        /* \"#utility.yul\":13589:13884   */\n    tag_205:\n        /* \"#utility.yul\":13665:13669   */\n      0x00\n        /* \"#utility.yul\":13811:13840   */\n      tag_370\n        /* \"#utility.yul\":13836:13839   */\n      dup4\n        /* \"#utility.yul\":13830:13834   */\n      dup4\n        /* \"#utility.yul\":13811:13840   */\n      tag_204\n      jump\t// in\n    tag_370:\n        /* \"#utility.yul\":13803:13840   */\n      swap2\n      pop\n        /* \"#utility.yul\":13873:13876   */\n      dup3\n        /* \"#utility.yul\":13870:13871   */\n      0x02\n        /* \"#utility.yul\":13866:13877   */\n      mul\n        /* \"#utility.yul\":13860:13864   */\n      dup3\n        /* \"#utility.yul\":13857:13878   */\n      or\n        /* \"#utility.yul\":13849:13878   */\n      swap1\n      pop\n        /* \"#utility.yul\":13589:13884   */\n      swap3\n      swap2\n      pop\n      pop\n      jump\t// out\n        /* \"#utility.yul\":13889:15284   */\n    tag_40:\n        /* \"#utility.yul\":14006:14043   */\n      tag_372\n        /* \"#utility.yul\":14039:14042   */\n      dup3\n        /* \"#utility.yul\":14006:14043   */\n      tag_173\n      jump\t// in\n    tag_372:\n        /* \"#utility.yul\":14108:14126   */\n      0xffffffffffffffff\n        /* \"#utility.yul\":14100:14106   */\n      dup2\n        /* \"#utility.yul\":14097:14127   */\n      gt\n        /* \"#utility.yul\":14094:14150   */\n      iszero\n      tag_373\n      jumpi\n        /* \"#utility.yul\":14130:14148   */\n      tag_374\n      tag_130\n      jump\t// in\n    tag_374:\n        /* \"#utility.yul\":14094:14150   */\n    tag_373:\n        /* \"#utility.yul\":14174:14212   */\n      tag_375\n        /* \"#utility.yul\":14206:14210   */\n      dup3\n        /* \"#utility.yul\":14200:14211   */\n      sload\n        /* \"#utility.yul\":14174:14212   */\n      tag_51\n      jump\t// in\n    tag_375:\n        /* \"#utility.yul\":14259:14326   */\n      tag_376\n        /* \"#utility.yul\":14319:14325   */\n      dup3\n        /* \"#utility.yul\":14311:14317   */\n      dup3\n        /* \"#utility.yul\":14305:14309   */\n      dup6\n        /* \"#utility.yul\":14259:14326   */\n      tag_202\n      jump\t// in\n    tag_376:\n        /* \"#utility.yul\":14353:14354   */\n      0x00\n        /* \"#utility.yul\":14377:14381   */\n      0x20\n        /* \"#utility.yul\":14364:14381   */\n      swap1\n      pop\n        /* \"#utility.yul\":14409:14411   */\n      0x1f\n        /* \"#utility.yul\":14401:14407   */\n      dup4\n        /* \"#utility.yul\":14398:14412   */\n      gt\n        /* \"#utility.yul\":14426:14427   */\n      0x01\n        /* \"#utility.yul\":14421:15039   */\n      dup2\n      eq\n      tag_378\n      jumpi\n        /* \"#utility.yul\":15083:15084   */\n      0x00\n        /* \"#utility.yul\":15100:15106   */\n      dup5\n        /* \"#utility.yul\":15097:15174   */\n      iszero\n      tag_379\n      jumpi\n        /* \"#utility.yul\":15149:15158   */\n      dup3\n        /* \"#utility.yul\":15144:15147   */\n      dup8\n        /* \"#utility.yul\":15140:15159   */\n      add\n        /* \"#utility.yul\":15134:15160   */\n      mload\n        /* \"#utility.yul\":15125:15160   */\n      swap1\n      pop\n        /* \"#utility.yul\":15097:15174   */\n    tag_379:\n        /* \"#utility.yul\":15200:15267   */\n      tag_380\n        /* \"#utility.yul\":15260:15266   */\n      dup6\n        /* \"#utility.yul\":15253:15258   */\n      dup3\n        /* \"#utility.yul\":15200:15267   */\n      tag_205\n      jump\t// in\n    tag_380:\n        /* \"#utility.yul\":15194:15198   */\n      dup7\n        /* \"#utility.yul\":15187:15268   */\n      sstore\n        /* \"#utility.yul\":15056:15278   */\n      pop\n        /* \"#utility.yul\":14391:15278   */\n      jump(tag_377)\n        /* \"#utility.yul\":14421:15039   */\n    tag_378:\n        /* \"#utility.yul\":14473:14477   */\n      0x1f\n        /* \"#utility.yul\":14469:14478   */\n      not\n        /* \"#utility.yul\":14461:14467   */\n      dup5\n        /* \"#utility.yul\":14457:14479   */\n      and\n        /* \"#utility.yul\":14507:14544   */\n      tag_381\n        /* \"#utility.yul\":14539:14543   */\n      dup7\n        /* \"#utility.yul\":14507:14544   */\n      tag_191\n      jump\t// in\n    tag_381:\n        /* \"#utility.yul\":14566:14567   */\n      0x00\n        /* \"#utility.yul\":14580:14788   */\n    tag_382:\n        /* \"#utility.yul\":14594:14601   */\n      dup3\n        /* \"#utility.yul\":14591:14592   */\n      dup2\n        /* \"#utility.yul\":14588:14602   */\n      lt\n        /* \"#utility.yul\":14580:14788   */\n      iszero\n      tag_384\n      jumpi\n        /* \"#utility.yul\":14673:14682   */\n      dup5\n        /* \"#utility.yul\":14668:14671   */\n      dup10\n        /* \"#utility.yul\":14664:14683   */\n      add\n        /* \"#utility.yul\":14658:14684   */\n      mload\n        /* \"#utility.yul\":14650:14656   */\n      dup3\n        /* \"#utility.yul\":14643:14685   */\n      sstore\n        /* \"#utility.yul\":14724:14725   */\n      0x01\n        /* \"#utility.yul\":14716:14722   */\n      dup3\n        /* \"#utility.yul\":14712:14726   */\n      add\n        /* \"#utility.yul\":14702:14726   */\n      swap2\n      pop\n        /* \"#utility.yul\":14771:14773   */\n      0x20\n        /* \"#utility.yul\":14760:14769   */\n      dup6\n        /* \"#utility.yul\":14756:14774   */\n      add\n        /* \"#utility.yul\":14743:14774   */\n      swap5\n      pop\n        /* \"#utility.yul\":14617:14621   */\n      0x20\n        /* \"#utility.yul\":14614:14615   */\n      dup2\n        /* \"#utility.yul\":14610:14622   */\n      add\n        /* \"#utility.yul\":14605:14622   */\n      swap1\n      pop\n        /* \"#utility.yul\":14580:14788   */\n      jump(tag_382)\n    tag_384:\n        /* \"#utility.yul\":14816:14822   */\n      dup7\n        /* \"#utility.yul\":14807:14814   */\n      dup4\n        /* \"#utility.yul\":14804:14823   */\n      lt\n        /* \"#utility.yul\":14801:14980   */\n      iszero\n      tag_385\n      jumpi\n        /* \"#utility.yul\":14874:14883   */\n      dup5\n        /* \"#utility.yul\":14869:14872   */\n      dup10\n        /* \"#utility.yul\":14865:14884   */\n      add\n        /* \"#utility.yul\":14859:14885   */\n      mload\n        /* \"#utility.yul\":14917:14965   */\n      tag_386\n        /* \"#utility.yul\":14959:14963   */\n      0x1f\n        /* \"#utility.yul\":14951:14957   */\n      dup10\n        /* \"#utility.yul\":14947:14964   */\n      and\n        /* \"#utility.yul\":14936:14945   */\n      dup3\n        /* \"#utility.yul\":14917:14965   */\n      tag_204\n      jump\t// in\n    tag_386:\n        /* \"#utility.yul\":14909:14915   */\n      dup4\n        /* \"#utility.yul\":14902:14966   */\n      sstore\n        /* \"#utility.yul\":14824:14980   */\n      pop\n        /* \"#utility.yul\":14801:14980   */\n    tag_385:\n        /* \"#utility.yul\":15026:15027   */\n      0x01\n        /* \"#utility.yul\":15022:15023   */\n      0x02\n        /* \"#utility.yul\":15014:15020   */\n      dup9\n        /* \"#utility.yul\":15010:15024   */\n      mul\n        /* \"#utility.yul\":15006:15028   */\n      add\n        /* \"#utility.yul\":15000:15004   */\n      dup9\n        /* \"#utility.yul\":14993:15029   */\n      sstore\n        /* \"#utility.yul\":14428:15039   */\n      pop\n      pop\n      pop\n        /* \"#utility.yul\":14391:15278   */\n    tag_377:\n      pop\n        /* \"#utility.yul\":13981:15284   */\n      pop\n      pop\n      pop\n        /* \"#utility.yul\":13889:15284   */\n      pop\n      pop\n      jump\t// out\n        /* \"#utility.yul\":15290:15470   */\n    tag_48:\n        /* \"#utility.yul\":15338:15415   */\n      0x4e487b7100000000000000000000000000000000000000000000000000000000\n        /* \"#utility.yul\":15335:15336   */\n      0x00\n        /* \"#utility.yul\":15328:15416   */\n      mstore\n        /* \"#utility.yul\":15435:15439   */\n      0x32\n        /* \"#utility.yul\":15432:15433   */\n      0x04\n        /* \"#utility.yul\":15425:15440   */\n      mstore\n        /* \"#utility.yul\":15459:15463   */\n      0x24\n        /* \"#utility.yul\":15456:15457   */\n      0x00\n        /* \"#utility.yul\":15449:15464   */\n      revert\n        /* \"#utility.yul\":15476:15631   */\n    tag_206:\n        /* \"#utility.yul\":15616:15619   */\n      0x2800000000000000000000000000000000000000000000000000000000000000\n        /* \"#utility.yul\":15612:15613   */\n      0x00\n        /* \"#utility.yul\":15604:15610   */\n      dup3\n        /* \"#utility.yul\":15600:15614   */\n      add\n        /* \"#utility.yul\":15593:15620   */\n      mstore\n        /* \"#utility.yul\":15476:15631   */\n      pop\n      jump\t// out\n        /* \"#utility.yul\":15641:16057   */\n    tag_207:\n        /* \"#utility.yul\":15801:15804   */\n      0x00\n        /* \"#utility.yul\":15826:15910   */\n      tag_390\n        /* \"#utility.yul\":15908:15909   */\n      0x01\n        /* \"#utility.yul\":15903:15906   */\n      dup4\n        /* \"#utility.yul\":15826:15910   */\n      tag_186\n      jump\t// in\n    tag_390:\n        /* \"#utility.yul\":15819:15910   */\n      swap2\n      pop\n        /* \"#utility.yul\":15923:16016   */\n      tag_391\n        /* \"#utility.yul\":16012:16015   */\n      dup3\n        /* \"#utility.yul\":15923:16016   */\n      tag_206\n      jump\t// in\n    tag_391:\n        /* \"#utility.yul\":16045:16046   */\n      0x01\n        /* \"#utility.yul\":16040:16043   */\n      dup3\n        /* \"#utility.yul\":16036:16047   */\n      add\n        /* \"#utility.yul\":16029:16047   */\n      swap1\n      pop\n        /* \"#utility.yul\":15641:16057   */\n      swap2\n      swap1\n      pop\n      jump\t// out\n        /* \"#utility.yul\":16095:17049   */\n    tag_208:\n        /* \"#utility.yul\":16198:16201   */\n      0x00\n        /* \"#utility.yul\":16239:16244   */\n      dup2\n        /* \"#utility.yul\":16233:16245   */\n      sload\n        /* \"#utility.yul\":16272:16308   */\n      tag_393\n        /* \"#utility.yul\":16298:16307   */\n      dup2\n        /* \"#utility.yul\":16272:16308   */\n      tag_51\n      jump\t// in\n    tag_393:\n        /* \"#utility.yul\":16328:16417   */\n      tag_394\n        /* \"#utility.yul\":16410:16416   */\n      dup2\n        /* \"#utility.yul\":16405:16408   */\n      dup7\n        /* \"#utility.yul\":16328:16417   */\n      tag_186\n      jump\t// in\n    tag_394:\n        /* \"#utility.yul\":16321:16417   */\n      swap5\n      pop\n        /* \"#utility.yul\":16452:16453   */\n      0x01\n        /* \"#utility.yul\":16441:16450   */\n      dup3\n        /* \"#utility.yul\":16437:16454   */\n      and\n        /* \"#utility.yul\":16472:16473   */\n      0x00\n        /* \"#utility.yul\":16467:16649   */\n      dup2\n      eq\n      tag_396\n      jumpi\n        /* \"#utility.yul\":16667:16668   */\n      0x01\n        /* \"#utility.yul\":16662:17039   */\n      dup2\n      eq\n      tag_397\n      jumpi\n        /* \"#utility.yul\":16430:17039   */\n      jump(tag_395)\n        /* \"#utility.yul\":16467:16649   */\n    tag_396:\n        /* \"#utility.yul\":16559:16563   */\n      0xff\n        /* \"#utility.yul\":16555:16564   */\n      not\n        /* \"#utility.yul\":16544:16553   */\n      dup4\n        /* \"#utility.yul\":16540:16565   */\n      and\n        /* \"#utility.yul\":16535:16538   */\n      dup7\n        /* \"#utility.yul\":16528:16566   */\n      mstore\n        /* \"#utility.yul\":16625:16631   */\n      dup2\n        /* \"#utility.yul\":16618:16632   */\n      iszero\n        /* \"#utility.yul\":16611:16633   */\n      iszero\n        /* \"#utility.yul\":16603:16609   */\n      dup3\n        /* \"#utility.yul\":16599:16634   */\n      mul\n        /* \"#utility.yul\":16594:16597   */\n      dup7\n        /* \"#utility.yul\":16590:16635   */\n      add\n        /* \"#utility.yul\":16583:16635   */\n      swap4\n      pop\n        /* \"#utility.yul\":16467:16649   */\n      jump(tag_395)\n        /* \"#utility.yul\":16662:17039   */\n    tag_397:\n        /* \"#utility.yul\":16737:16775   */\n      tag_398\n        /* \"#utility.yul\":16769:16774   */\n      dup6\n        /* \"#utility.yul\":16737:16775   */\n      tag_191\n      jump\t// in\n    tag_398:\n        /* \"#utility.yul\":16801:16802   */\n      0x00\n        /* \"#utility.yul\":16819:16985   */\n    tag_399:\n        /* \"#utility.yul\":16833:16839   */\n      dup4\n        /* \"#utility.yul\":16830:16831   */\n      dup2\n        /* \"#utility.yul\":16827:16840   */\n      lt\n        /* \"#utility.yul\":16819:16985   */\n      iszero\n      tag_401\n      jumpi\n        /* \"#utility.yul\":16911:16918   */\n      dup2\n        /* \"#utility.yul\":16905:16919   */\n      sload\n        /* \"#utility.yul\":16901:16902   */\n      dup2\n        /* \"#utility.yul\":16896:16899   */\n      dup10\n        /* \"#utility.yul\":16892:16903   */\n      add\n        /* \"#utility.yul\":16885:16920   */\n      mstore\n        /* \"#utility.yul\":16965:16966   */\n      0x01\n        /* \"#utility.yul\":16956:16963   */\n      dup3\n        /* \"#utility.yul\":16952:16967   */\n      add\n        /* \"#utility.yul\":16941:16967   */\n      swap2\n      pop\n        /* \"#utility.yul\":16855:16859   */\n      0x20\n        /* \"#utility.yul\":16852:16853   */\n      dup2\n        /* \"#utility.yul\":16848:16860   */\n      add\n        /* \"#utility.yul\":16843:16860   */\n      swap1\n      pop\n        /* \"#utility.yul\":16819:16985   */\n      jump(tag_399)\n    tag_401:\n        /* \"#utility.yul\":17018:17024   */\n      dup4\n        /* \"#utility.yul\":17013:17016   */\n      dup9\n        /* \"#utility.yul\":17009:17025   */\n      add\n        /* \"#utility.yul\":17002:17025   */\n      swap6\n      pop\n        /* \"#utility.yul\":16669:17039   */\n      pop\n      pop\n        /* \"#utility.yul\":16430:17039   */\n    tag_395:\n      pop\n        /* \"#utility.yul\":16202:17049   */\n      pop\n      pop\n        /* \"#utility.yul\":16095:17049   */\n      swap3\n      swap2\n      pop\n      pop\n      jump\t// out\n        /* \"#utility.yul\":17059:17219   */\n    tag_209:\n        /* \"#utility.yul\":17203:17207   */\n      0x2c20000000000000000000000000000000000000000000000000000000000000\n        /* \"#utility.yul\":17199:17200   */\n      0x00\n        /* \"#utility.yul\":17191:17197   */\n      dup3\n        /* \"#utility.yul\":17187:17201   */\n      add\n        /* \"#utility.yul\":17180:17208   */\n      mstore\n        /* \"#utility.yul\":17059:17219   */\n      pop\n      jump\t// out\n        /* \"#utility.yul\":17229:17645   */\n    tag_210:\n        /* \"#utility.yul\":17389:17392   */\n      0x00\n        /* \"#utility.yul\":17414:17498   */\n      tag_404\n        /* \"#utility.yul\":17496:17497   */\n      0x02\n        /* \"#utility.yul\":17491:17494   */\n      dup4\n        /* \"#utility.yul\":17414:17498   */\n      tag_186\n      jump\t// in\n    tag_404:\n        /* \"#utility.yul\":17407:17498   */\n      swap2\n      pop\n        /* \"#utility.yul\":17511:17604   */\n      tag_405\n        /* \"#utility.yul\":17600:17603   */\n      dup3\n        /* \"#utility.yul\":17511:17604   */\n      tag_209\n      jump\t// in\n    tag_405:\n        /* \"#utility.yul\":17633:17634   */\n      0x02\n        /* \"#utility.yul\":17628:17631   */\n      dup3\n        /* \"#utility.yul\":17624:17635   */\n      add\n        /* \"#utility.yul\":17617:17635   */\n      swap1\n      pop\n        /* \"#utility.yul\":17229:17645   */\n      swap2\n      swap1\n      pop\n      jump\t// out\n        /* \"#utility.yul\":17655:17815   */\n    tag_211:\n        /* \"#utility.yul\":17795:17807   */\n      0x29202d2d2d2d2d2d2d2d00000000000000000000000000000000000000000000\n        /* \"#utility.yul\":17791:17792   */\n      0x00\n        /* \"#utility.yul\":17783:17789   */\n      dup3\n        /* \"#utility.yul\":17779:17793   */\n      add\n        /* \"#utility.yul\":17772:17808   */\n      mstore\n        /* \"#utility.yul\":17655:17815   */\n      pop\n      jump\t// out\n        /* \"#utility.yul\":17821:18223   */\n    tag_212:\n        /* \"#utility.yul\":17981:17984   */\n      0x00\n        /* \"#utility.yul\":18002:18087   */\n      tag_408\n        /* \"#utility.yul\":18084:18086   */\n      0x0a\n        /* \"#utility.yul\":18079:18082   */\n      dup4\n        /* \"#utility.yul\":18002:18087   */\n      tag_186\n      jump\t// in\n    tag_408:\n        /* \"#utility.yul\":17995:18087   */\n      swap2\n      pop\n        /* \"#utility.yul\":18096:18189   */\n      tag_409\n        /* \"#utility.yul\":18185:18188   */\n      dup3\n        /* \"#utility.yul\":18096:18189   */\n      tag_211\n      jump\t// in\n    tag_409:\n        /* \"#utility.yul\":18214:18216   */\n      0x0a\n        /* \"#utility.yul\":18209:18212   */\n      dup3\n        /* \"#utility.yul\":18205:18217   */\n      add\n        /* \"#utility.yul\":18198:18217   */\n      swap1\n      pop\n        /* \"#utility.yul\":17821:18223   */\n      swap2\n      swap1\n      pop\n      jump\t// out\n        /* \"#utility.yul\":18229:19616   */\n    tag_62:\n        /* \"#utility.yul\":18757:18760   */\n      0x00\n        /* \"#utility.yul\":18779:18874   */\n      tag_411\n        /* \"#utility.yul\":18870:18873   */\n      dup3\n        /* \"#utility.yul\":18861:18867   */\n      dup7\n        /* \"#utility.yul\":18779:18874   */\n      tag_187\n      jump\t// in\n    tag_411:\n        /* \"#utility.yul\":18772:18874   */\n      swap2\n      pop\n        /* \"#utility.yul\":18891:19039   */\n      tag_412\n        /* \"#utility.yul\":19035:19038   */\n      dup3\n        /* \"#utility.yul\":18891:19039   */\n      tag_207\n      jump\t// in\n    tag_412:\n        /* \"#utility.yul\":18884:19039   */\n      swap2\n      pop\n        /* \"#utility.yul\":19056:19148   */\n      tag_413\n        /* \"#utility.yul\":19144:19147   */\n      dup3\n        /* \"#utility.yul\":19135:19141   */\n      dup6\n        /* \"#utility.yul\":19056:19148   */\n      tag_208\n      jump\t// in\n    tag_413:\n        /* \"#utility.yul\":19049:19148   */\n      swap2\n      pop\n        /* \"#utility.yul\":19165:19313   */\n      tag_414\n        /* \"#utility.yul\":19309:19312   */\n      dup3\n        /* \"#utility.yul\":19165:19313   */\n      tag_210\n      jump\t// in\n    tag_414:\n        /* \"#utility.yul\":19158:19313   */\n      swap2\n      pop\n        /* \"#utility.yul\":19330:19425   */\n      tag_415\n        /* \"#utility.yul\":19421:19424   */\n      dup3\n        /* \"#utility.yul\":19412:19418   */\n      dup5\n        /* \"#utility.yul\":19330:19425   */\n      tag_187\n      jump\t// in\n    tag_415:\n        /* \"#utility.yul\":19323:19425   */\n      swap2\n      pop\n        /* \"#utility.yul\":19442:19590   */\n      tag_416\n        /* \"#utility.yul\":19586:19589   */\n      dup3\n        /* \"#utility.yul\":19442:19590   */\n      tag_212\n      jump\t// in\n    tag_416:\n        /* \"#utility.yul\":19435:19590   */\n      swap2\n      pop\n        /* \"#utility.yul\":19607:19610   */\n      dup2\n        /* \"#utility.yul\":19600:19610   */\n      swap1\n      pop\n        /* \"#utility.yul\":18229:19616   */\n      swap5\n      swap4\n      pop\n      pop\n      pop\n      pop\n      jump\t// out\n        /* \"#utility.yul\":19622:19891   */\n    tag_81:\n        /* \"#utility.yul\":19751:19754   */\n      0x00\n        /* \"#utility.yul\":19773:19865   */\n      tag_418\n        /* \"#utility.yul\":19861:19864   */\n      dup3\n        /* \"#utility.yul\":19852:19858   */\n      dup5\n        /* \"#utility.yul\":19773:19865   */\n      tag_208\n      jump\t// in\n    tag_418:\n        /* \"#utility.yul\":19766:19865   */\n      swap2\n      pop\n        /* \"#utility.yul\":19882:19885   */\n      dup2\n        /* \"#utility.yul\":19875:19885   */\n      swap1\n      pop\n        /* \"#utility.yul\":19622:19891   */\n      swap3\n      swap2\n      pop\n      pop\n      jump\t// out\n        /* \"#utility.yul\":19897:20023   */\n    tag_213:\n        /* \"#utility.yul\":19934:19941   */\n      0x00\n        /* \"#utility.yul\":19974:20016   */\n      0xffffffffffffffffffffffffffffffffffffffff\n        /* \"#utility.yul\":19967:19972   */\n      dup3\n        /* \"#utility.yul\":19963:20017   */\n      and\n        /* \"#utility.yul\":19952:20017   */\n      swap1\n      pop\n        /* \"#utility.yul\":19897:20023   */\n      swap2\n      swap1\n      pop\n      jump\t// out\n        /* \"#utility.yul\":20029:20125   */\n    tag_214:\n        /* \"#utility.yul\":20066:20073   */\n      0x00\n        /* \"#utility.yul\":20095:20119   */\n      tag_421\n        /* \"#utility.yul\":20113:20118   */\n      dup3\n        /* \"#utility.yul\":20095:20119   */\n      tag_213\n      jump\t// in\n    tag_421:\n        /* \"#utility.yul\":20084:20119   */\n      swap1\n      pop\n        /* \"#utility.yul\":20029:20125   */\n      swap2\n      swap1\n      pop\n      jump\t// out\n        /* \"#utility.yul\":20131:20225   */\n    tag_215:\n        /* \"#utility.yul\":20164:20172   */\n      0x00\n        /* \"#utility.yul\":20212:20217   */\n      dup2\n        /* \"#utility.yul\":20208:20210   */\n      0x60\n        /* \"#utility.yul\":20204:20218   */\n      shl\n        /* \"#utility.yul\":20183:20218   */\n      swap1\n      pop\n        /* \"#utility.yul\":20131:20225   */\n      swap2\n      swap1\n      pop\n      jump\t// out\n        /* \"#utility.yul\":20231:20325   */\n    tag_216:\n        /* \"#utility.yul\":20270:20277   */\n      0x00\n        /* \"#utility.yul\":20299:20319   */\n      tag_424\n        /* \"#utility.yul\":20313:20318   */\n      dup3\n        /* \"#utility.yul\":20299:20319   */\n      tag_215\n      jump\t// in\n    tag_424:\n        /* \"#utility.yul\":20288:20319   */\n      swap1\n      pop\n        /* \"#utility.yul\":20231:20325   */\n      swap2\n      swap1\n      pop\n      jump\t// out\n        /* \"#utility.yul\":20331:20431   */\n    tag_217:\n        /* \"#utility.yul\":20370:20377   */\n      0x00\n        /* \"#utility.yul\":20399:20425   */\n      tag_426\n        /* \"#utility.yul\":20419:20424   */\n      dup3\n        /* \"#utility.yul\":20399:20425   */\n      tag_216\n      jump\t// in\n    tag_426:\n        /* \"#utility.yul\":20388:20425   */\n      swap1\n      pop\n        /* \"#utility.yul\":20331:20431   */\n      swap2\n      swap1\n      pop\n      jump\t// out\n        /* \"#utility.yul\":20437:20594   */\n    tag_218:\n        /* \"#utility.yul\":20542:20587   */\n      tag_428\n        /* \"#utility.yul\":20562:20586   */\n      tag_429\n        /* \"#utility.yul\":20580:20585   */\n      dup3\n        /* \"#utility.yul\":20562:20586   */\n      tag_214\n      jump\t// in\n    tag_429:\n        /* \"#utility.yul\":20542:20587   */\n      tag_217\n      jump\t// in\n    tag_428:\n        /* \"#utility.yul\":20537:20540   */\n      dup3\n        /* \"#utility.yul\":20530:20588   */\n      mstore\n        /* \"#utility.yul\":20437:20594   */\n      pop\n      pop\n      jump\t// out\n        /* \"#utility.yul\":20600:20856   */\n    tag_111:\n        /* \"#utility.yul\":20712:20715   */\n      0x00\n        /* \"#utility.yul\":20727:20802   */\n      tag_431\n        /* \"#utility.yul\":20798:20801   */\n      dup3\n        /* \"#utility.yul\":20789:20795   */\n      dup5\n        /* \"#utility.yul\":20727:20802   */\n      tag_218\n      jump\t// in\n    tag_431:\n        /* \"#utility.yul\":20827:20829   */\n      0x14\n        /* \"#utility.yul\":20822:20825   */\n      dup3\n        /* \"#utility.yul\":20818:20830   */\n      add\n        /* \"#utility.yul\":20811:20830   */\n      swap2\n      pop\n        /* \"#utility.yul\":20847:20850   */\n      dup2\n        /* \"#utility.yul\":20840:20850   */\n      swap1\n      pop\n        /* \"#utility.yul\":20600:20856   */\n      swap3\n      swap2\n      pop\n      pop\n      jump\t// out\n        /* \"#utility.yul\":20862:21037   */\n    tag_219:\n        /* \"#utility.yul\":21002:21029   */\n      0x59612068617320766f7461646f207072657669616d656e746500000000000000\n        /* \"#utility.yul\":20998:20999   */\n      0x00\n        /* \"#utility.yul\":20990:20996   */\n      dup3\n        /* \"#utility.yul\":20986:21000   */\n      add\n        /* \"#utility.yul\":20979:21030   */\n      mstore\n        /* \"#utility.yul\":20862:21037   */\n      pop\n      jump\t// out\n        /* \"#utility.yul\":21043:21409   */\n    tag_220:\n        /* \"#utility.yul\":21185:21188   */\n      0x00\n        /* \"#utility.yul\":21206:21273   */\n      tag_434\n        /* \"#utility.yul\":21270:21272   */\n      0x19\n        /* \"#utility.yul\":21265:21268   */\n      dup4\n        /* \"#utility.yul\":21206:21273   */\n      tag_174\n      jump\t// in\n    tag_434:\n        /* \"#utility.yul\":21199:21273   */\n      swap2\n      pop\n        /* \"#utility.yul\":21282:21375   */\n      tag_435\n        /* \"#utility.yul\":21371:21374   */\n      dup3\n        /* \"#utility.yul\":21282:21375   */\n      tag_219\n      jump\t// in\n    tag_435:\n        /* \"#utility.yul\":21400:21402   */\n      0x20\n        /* \"#utility.yul\":21395:21398   */\n      dup3\n        /* \"#utility.yul\":21391:21403   */\n      add\n        /* \"#utility.yul\":21384:21403   */\n      swap1\n      pop\n        /* \"#utility.yul\":21043:21409   */\n      swap2\n      swap1\n      pop\n      jump\t// out\n        /* \"#utility.yul\":21415:21834   */\n    tag_120:\n        /* \"#utility.yul\":21581:21585   */\n      0x00\n        /* \"#utility.yul\":21619:21621   */\n      0x20\n        /* \"#utility.yul\":21608:21617   */\n      dup3\n        /* \"#utility.yul\":21604:21622   */\n      add\n        /* \"#utility.yul\":21596:21622   */\n      swap1\n      pop\n        /* \"#utility.yul\":21668:21677   */\n      dup2\n        /* \"#utility.yul\":21662:21666   */\n      dup2\n        /* \"#utility.yul\":21658:21678   */\n      sub\n        /* \"#utility.yul\":21654:21655   */\n      0x00\n        /* \"#utility.yul\":21643:21652   */\n      dup4\n        /* \"#utility.yul\":21639:21656   */\n      add\n        /* \"#utility.yul\":21632:21679   */\n      mstore\n        /* \"#utility.yul\":21696:21827   */\n      tag_437\n        /* \"#utility.yul\":21822:21826   */\n      dup2\n        /* \"#utility.yul\":21696:21827   */\n      tag_220\n      jump\t// in\n    tag_437:\n        /* \"#utility.yul\":21688:21827   */\n      swap1\n      pop\n        /* \"#utility.yul\":21415:21834   */\n      swap2\n      swap1\n      pop\n      jump\t// out\n        /* \"#utility.yul\":21840:22020   */\n    tag_221:\n        /* \"#utility.yul\":21888:21965   */\n      0x4e487b7100000000000000000000000000000000000000000000000000000000\n        /* \"#utility.yul\":21885:21886   */\n      0x00\n        /* \"#utility.yul\":21878:21966   */\n      mstore\n        /* \"#utility.yul\":21985:21989   */\n      0x11\n        /* \"#utility.yul\":21982:21983   */\n      0x04\n        /* \"#utility.yul\":21975:21990   */\n      mstore\n        /* \"#utility.yul\":22009:22013   */\n      0x24\n        /* \"#utility.yul\":22006:22007   */\n      0x00\n        /* \"#utility.yul\":21999:22014   */\n      revert\n        /* \"#utility.yul\":22026:22259   */\n    tag_124:\n        /* \"#utility.yul\":22065:22068   */\n      0x00\n        /* \"#utility.yul\":22088:22112   */\n      tag_440\n        /* \"#utility.yul\":22106:22111   */\n      dup3\n        /* \"#utility.yul\":22088:22112   */\n      tag_170\n      jump\t// in\n    tag_440:\n        /* \"#utility.yul\":22079:22112   */\n      swap2\n      pop\n        /* \"#utility.yul\":22134:22200   */\n      0xffffffffffffffffffffffffffffffffffffffffffffffffffffffffffffffff\n        /* \"#utility.yul\":22127:22132   */\n      dup3\n        /* \"#utility.yul\":22124:22201   */\n      sub\n        /* \"#utility.yul\":22121:22224   */\n      tag_441\n      jumpi\n        /* \"#utility.yul\":22204:22222   */\n      tag_442\n      tag_221\n      jump\t// in\n    tag_442:\n        /* \"#utility.yul\":22121:22224   */\n    tag_441:\n        /* \"#utility.yul\":22251:22252   */\n      0x01\n        /* \"#utility.yul\":22244:22249   */\n      dup3\n        /* \"#utility.yul\":22240:22253   */\n      add\n        /* \"#utility.yul\":22233:22253   */\n      swap1\n      pop\n        /* \"#utility.yul\":22026:22259   */\n      swap2\n      swap1\n      pop\n      jump\t// out\n        /* \"#utility.yul\":22265:22445   */\n    tag_136:\n        /* \"#utility.yul\":22313:22390   */\n      0x4e487b7100000000000000000000000000000000000000000000000000000000\n        /* \"#utility.yul\":22310:22311   */\n      0x00\n        /* \"#utility.yul\":22303:22391   */\n      mstore\n        /* \"#utility.yul\":22410:22414   */\n      0x12\n        /* \"#utility.yul\":22407:22408   */\n      0x04\n        /* \"#utility.yul\":22400:22415   */\n      mstore\n        /* \"#utility.yul\":22434:22438   */\n      0x24\n        /* \"#utility.yul\":22431:22432   */\n      0x00\n        /* \"#utility.yul\":22424:22439   */\n      revert\n    stop\n    data_ceb3a4a4e2bd02a183fc9d1bb220039ba202785f26bbcce8965a0302c29f713a 48617920756e20656d7061746520656e747265206c6f732063616e64696461746f732e\n\n    auxdata: 0xa26469706673582212206f5ba4a7cb9caba4d9f709dfc56e9d63906402b254cf53c6fce0ea1b1fddb98a64736f6c63430008160033\n}\n",
				"bytecode": {
					"linkReferences": {},
					"object": "608060405234801561000f575f80fd5b50335f806101000a81548173ffffffffffffffffffffffffffffffffffffffff021916908373ffffffffffffffffffffffffffffffffffffffff1602179055506114e48061005c5f395ff3fe608060405234801561000f575f80fd5b5060043610610060575f3560e01c80632e9452bc1461006457806358c6414f1461008057806360df75d41461009e5780639114bde8146100ce578063caaa49a6146100ec578063ce3fe6411461010a575b5f80fd5b61007e60048036038101906100799190610ae0565b610126565b005b6100886101af565b6040516100959190610be2565b60405180910390f35b6100b860048036038101906100b39190610c02565b6102e4565b6040516100c59190610c58565b60405180910390f35b6100d661030b565b6040516100e39190610be2565b60405180910390f35b6100f461056f565b6040516101019190610d74565b60405180910390f35b610124600480360381019061011f9190610c02565b610643565b005b5f83838360405160200161013c93929190610dee565b604051602081830303815290604052805190602001209050806001856040516101659190610e22565b908152602001604051809103902081905550600384908060018154018082558091505060019003905f5260205f20015f9091909190915090816101a89190611032565b5050505050565b60605f60405180602001604052805f81525090505f5b6003805490508110156102dc575f61027e600383815481106101ea576101e9611101565b5b905f5260205f200180546101fd90610e65565b80601f016020809104026020016040519081016040528092919081815260200182805461022990610e65565b80156102745780601f1061024b57610100808354040283529160200191610274565b820191905f5260205f20905b81548152906001019060200180831161025757829003601f168201915b50505050506102e4565b90505f61028a82610745565b905083600384815481106102a1576102a0611101565b5b905f5260205f2001826040516020016102bc9392919061128c565b6040516020818303038152906040529350505080806001019150506101c5565b508091505090565b5f6002826040516102f59190610e22565b9081526020016040518091039020549050919050565b60605f60035f8154811061032257610321611101565b5b905f5260205f2001805461033590610e65565b80601f016020809104026020016040519081016040528092919081815260200182805461036190610e65565b80156103ac5780601f10610383576101008083540402835291602001916103ac565b820191905f5260205f20905b81548152906001019060200180831161038f57829003601f168201915b505050505090505f80600190505b600380549050811015610544576002600382815481106103dd576103dc611101565b5b905f5260205f20016040516103f291906112dd565b9081526020016040518091039020546002846040516104119190610e22565b90815260200160405180910390205410156104d3576003818154811061043a57610439611101565b5b905f5260205f2001805461044d90610e65565b80601f016020809104026020016040519081016040528092919081815260200182805461047990610e65565b80156104c45780601f1061049b576101008083540402835291602001916104c4565b820191905f5260205f20905b8154815290600101906020018083116104a757829003601f168201915b505050505092505f9150610537565b6002600382815481106104e9576104e8611101565b5b905f5260205f20016040516104fe91906112dd565b90815260200160405180910390205460028460405161051d9190610e22565b9081526020016040518091039020540361053657600191505b5b80806001019150506103ba565b5080156105675760405180606001604052806023815260200161148c6023913991505b819250505090565b60606003805480602002602001604051908101604052809291908181526020015f905b8282101561063a578382905f5260205f200180546105af90610e65565b80601f01602080910402602001604051908101604052809291908181526020018280546105db90610e65565b80156106265780601f106105fd57610100808354040283529160200191610626565b820191905f5260205f20905b81548152906001019060200180831161060957829003601f168201915b505050505081526020019060010190610592565b50505050905090565b5f336040516020016106559190611368565b6040516020818303038152906040528051906020012090505f5b6004805490508110156106e757816004828154811061069157610690611101565b5b905f5260205f200154036106da576040517f08c379a00000000000000000000000000000000000000000000000000000000081526004016106d1906113cc565b60405180910390fd5b808060010191505061066f565b50600481908060018154018082558091505060019003905f5260205f20015f909190919091505560028260405161071e9190610e22565b90815260200160405180910390205f81548092919061073c90611417565b91905055505050565b60605f60016107538461080f565b0190505f8167ffffffffffffffff81111561077157610770610989565b5b6040519080825280601f01601f1916602001820160405280156107a35781602001600182028036833780820191505090505b5090505f82602001820190505b600115610804578080600190039150507f3031323334353637383961626364656600000000000000000000000000000000600a86061a8153600a85816107f9576107f861145e565b5b0494505f85036107b0575b819350505050919050565b5f805f90507a184f03e93ff9f4daa797ed6e38ed64bf6a1f010000000000000000831061086b577a184f03e93ff9f4daa797ed6e38ed64bf6a1f01000000000000000083816108615761086061145e565b5b0492506040810190505b6d04ee2d6d415b85acef810000000083106108a8576d04ee2d6d415b85acef8100000000838161089e5761089d61145e565b5b0492506020810190505b662386f26fc1000083106108d757662386f26fc1000083816108cd576108cc61145e565b5b0492506010810190505b6305f5e1008310610900576305f5e10083816108f6576108f561145e565b5b0492506008810190505b612710831061092557612710838161091b5761091a61145e565b5b0492506004810190505b60648310610948576064838161093e5761093d61145e565b5b0492506002810190505b600a8310610957576001810190505b80915050919050565b5f604051905090565b5f80fd5b5f80fd5b5f80fd5b5f80fd5b5f601f19601f8301169050919050565b7f4e487b71000000000000000000000000000000000000000000000000000000005f52604160045260245ffd5b6109bf82610979565b810181811067ffffffffffffffff821117156109de576109dd610989565b5b80604052505050565b5f6109f0610960565b90506109fc82826109b6565b919050565b5f67ffffffffffffffff821115610a1b57610a1a610989565b5b610a2482610979565b9050602081019050919050565b828183375f83830152505050565b5f610a51610a4c84610a01565b6109e7565b905082815260208101848484011115610a6d57610a6c610975565b5b610a78848285610a31565b509392505050565b5f82601f830112610a9457610a93610971565b5b8135610aa4848260208601610a3f565b91505092915050565b5f819050919050565b610abf81610aad565b8114610ac9575f80fd5b50565b5f81359050610ada81610ab6565b92915050565b5f805f60608486031215610af757610af6610969565b5b5f84013567ffffffffffffffff811115610b1457610b1361096d565b5b610b2086828701610a80565b9350506020610b3186828701610acc565b925050604084013567ffffffffffffffff811115610b5257610b5161096d565b5b610b5e86828701610a80565b9150509250925092565b5f81519050919050565b5f82825260208201905092915050565b5f5b83811015610b9f578082015181840152602081019050610b84565b5f8484015250505050565b5f610bb482610b68565b610bbe8185610b72565b9350610bce818560208601610b82565b610bd781610979565b840191505092915050565b5f6020820190508181035f830152610bfa8184610baa565b905092915050565b5f60208284031215610c1757610c16610969565b5b5f82013567ffffffffffffffff811115610c3457610c3361096d565b5b610c4084828501610a80565b91505092915050565b610c5281610aad565b82525050565b5f602082019050610c6b5f830184610c49565b92915050565b5f81519050919050565b5f82825260208201905092915050565b5f819050602082019050919050565b5f82825260208201905092915050565b5f610cb482610b68565b610cbe8185610c9a565b9350610cce818560208601610b82565b610cd781610979565b840191505092915050565b5f610ced8383610caa565b905092915050565b5f602082019050919050565b5f610d0b82610c71565b610d158185610c7b565b935083602082028501610d2785610c8b565b805f5b85811015610d625784840389528151610d438582610ce2565b9450610d4e83610cf5565b925060208a01995050600181019050610d2a565b50829750879550505050505092915050565b5f6020820190508181035f830152610d8c8184610d01565b905092915050565b5f81905092915050565b5f610da882610b68565b610db28185610d94565b9350610dc2818560208601610b82565b80840191505092915050565b5f819050919050565b610de8610de382610aad565b610dce565b82525050565b5f610df98286610d9e565b9150610e058285610dd7565b602082019150610e158284610d9e565b9150819050949350505050565b5f610e2d8284610d9e565b915081905092915050565b7f4e487b71000000000000000000000000000000000000000000000000000000005f52602260045260245ffd5b5f6002820490506001821680610e7c57607f821691505b602082108103610e8f57610e8e610e38565b5b50919050565b5f819050815f5260205f209050919050565b5f6020601f8301049050919050565b5f82821b905092915050565b5f60088302610ef17fffffffffffffffffffffffffffffffffffffffffffffffffffffffffffffffff82610eb6565b610efb8683610eb6565b95508019841693508086168417925050509392505050565b5f819050919050565b5f610f36610f31610f2c84610aad565b610f13565b610aad565b9050919050565b5f819050919050565b610f4f83610f1c565b610f63610f5b82610f3d565b848454610ec2565b825550505050565b5f90565b610f77610f6b565b610f82818484610f46565b505050565b5b81811015610fa557610f9a5f82610f6f565b600181019050610f88565b5050565b601f821115610fea57610fbb81610e95565b610fc484610ea7565b81016020851015610fd3578190505b610fe7610fdf85610ea7565b830182610f87565b50505b505050565b5f82821c905092915050565b5f61100a5f1984600802610fef565b1980831691505092915050565b5f6110228383610ffb565b9150826002028217905092915050565b61103b82610b68565b67ffffffffffffffff81111561105457611053610989565b5b61105e8254610e65565b611069828285610fa9565b5f60209050601f83116001811461109a575f8415611088578287015190505b6110928582611017565b8655506110f9565b601f1984166110a886610e95565b5f5b828110156110cf578489015182556001820191506020850194506020810190506110aa565b868310156110ec57848901516110e8601f891682610ffb565b8355505b6001600288020188555050505b505050505050565b7f4e487b71000000000000000000000000000000000000000000000000000000005f52603260045260245ffd5b7f28000000000000000000000000000000000000000000000000000000000000005f82015250565b5f611162600183610d94565b915061116d8261112e565b600182019050919050565b5f815461118481610e65565b61118e8186610d94565b9450600182165f81146111a857600181146111bd576111ef565b60ff19831686528115158202860193506111ef565b6111c685610e95565b5f5b838110156111e7578154818901526001820191506020810190506111c8565b838801955050505b50505092915050565b7f2c200000000000000000000000000000000000000000000000000000000000005f82015250565b5f61122c600283610d94565b9150611237826111f8565b600282019050919050565b7f29202d2d2d2d2d2d2d2d000000000000000000000000000000000000000000005f82015250565b5f611276600a83610d94565b915061128182611242565b600a82019050919050565b5f6112978286610d9e565b91506112a282611156565b91506112ae8285611178565b91506112b982611220565b91506112c58284610d9e565b91506112d08261126a565b9150819050949350505050565b5f6112e88284611178565b915081905092915050565b5f73ffffffffffffffffffffffffffffffffffffffff82169050919050565b5f61131c826112f3565b9050919050565b5f8160601b9050919050565b5f61133982611323565b9050919050565b5f61134a8261132f565b9050919050565b61136261135d82611312565b611340565b82525050565b5f6113738284611351565b60148201915081905092915050565b7f59612068617320766f7461646f207072657669616d656e7465000000000000005f82015250565b5f6113b6601983610b72565b91506113c182611382565b602082019050919050565b5f6020820190508181035f8301526113e3816113aa565b9050919050565b7f4e487b71000000000000000000000000000000000000000000000000000000005f52601160045260245ffd5b5f61142182610aad565b91507fffffffffffffffffffffffffffffffffffffffffffffffffffffffffffffffff8203611453576114526113ea565b5b600182019050919050565b7f4e487b71000000000000000000000000000000000000000000000000000000005f52601260045260245ffdfe48617920756e20656d7061746520656e747265206c6f732063616e64696461746f732ea26469706673582212206f5ba4a7cb9caba4d9f709dfc56e9d63906402b254cf53c6fce0ea1b1fddb98a64736f6c63430008160033",
					"opcodes": "PUSH1 0x80 PUSH1 0x40 MSTORE CALLVALUE DUP1 ISZERO PUSH2 0xF JUMPI PUSH0 DUP1 REVERT JUMPDEST POP CALLER PUSH0 DUP1 PUSH2 0x100 EXP DUP2 SLOAD DUP2 PUSH20 0xFFFFFFFFFFFFFFFFFFFFFFFFFFFFFFFFFFFFFFFF MUL NOT AND SWAP1 DUP4 PUSH20 0xFFFFFFFFFFFFFFFFFFFFFFFFFFFFFFFFFFFFFFFF AND MUL OR SWAP1 SSTORE POP PUSH2 0x14E4 DUP1 PUSH2 0x5C PUSH0 CODECOPY PUSH0 RETURN INVALID PUSH1 0x80 PUSH1 0x40 MSTORE CALLVALUE DUP1 ISZERO PUSH2 0xF JUMPI PUSH0 DUP1 REVERT JUMPDEST POP PUSH1 0x4 CALLDATASIZE LT PUSH2 0x60 JUMPI PUSH0 CALLDATALOAD PUSH1 0xE0 SHR DUP1 PUSH4 0x2E9452BC EQ PUSH2 0x64 JUMPI DUP1 PUSH4 0x58C6414F EQ PUSH2 0x80 JUMPI DUP1 PUSH4 0x60DF75D4 EQ PUSH2 0x9E JUMPI DUP1 PUSH4 0x9114BDE8 EQ PUSH2 0xCE JUMPI DUP1 PUSH4 0xCAAA49A6 EQ PUSH2 0xEC JUMPI DUP1 PUSH4 0xCE3FE641 EQ PUSH2 0x10A JUMPI JUMPDEST PUSH0 DUP1 REVERT JUMPDEST PUSH2 0x7E PUSH1 0x4 DUP1 CALLDATASIZE SUB DUP2 ADD SWAP1 PUSH2 0x79 SWAP2 SWAP1 PUSH2 0xAE0 JUMP JUMPDEST PUSH2 0x126 JUMP JUMPDEST STOP JUMPDEST PUSH2 0x88 PUSH2 0x1AF JUMP JUMPDEST PUSH1 0x40 MLOAD PUSH2 0x95 SWAP2 SWAP1 PUSH2 0xBE2 JUMP JUMPDEST PUSH1 0x40 MLOAD DUP1 SWAP2 SUB SWAP1 RETURN JUMPDEST PUSH2 0xB8 PUSH1 0x4 DUP1 CALLDATASIZE SUB DUP2 ADD SWAP1 PUSH2 0xB3 SWAP2 SWAP1 PUSH2 0xC02 JUMP JUMPDEST PUSH2 0x2E4 JUMP JUMPDEST PUSH1 0x40 MLOAD PUSH2 0xC5 SWAP2 SWAP1 PUSH2 0xC58 JUMP JUMPDEST PUSH1 0x40 MLOAD DUP1 SWAP2 SUB SWAP1 RETURN JUMPDEST PUSH2 0xD6 PUSH2 0x30B JUMP JUMPDEST PUSH1 0x40 MLOAD PUSH2 0xE3 SWAP2 SWAP1 PUSH2 0xBE2 JUMP JUMPDEST PUSH1 0x40 MLOAD DUP1 SWAP2 SUB SWAP1 RETURN JUMPDEST PUSH2 0xF4 PUSH2 0x56F JUMP JUMPDEST PUSH1 0x40 MLOAD PUSH2 0x101 SWAP2 SWAP1 PUSH2 0xD74 JUMP JUMPDEST PUSH1 0x40 MLOAD DUP1 SWAP2 SUB SWAP1 RETURN JUMPDEST PUSH2 0x124 PUSH1 0x4 DUP1 CALLDATASIZE SUB DUP2 ADD SWAP1 PUSH2 0x11F SWAP2 SWAP1 PUSH2 0xC02 JUMP JUMPDEST PUSH2 0x643 JUMP JUMPDEST STOP JUMPDEST PUSH0 DUP4 DUP4 DUP4 PUSH1 0x40 MLOAD PUSH1 0x20 ADD PUSH2 0x13C SWAP4 SWAP3 SWAP2 SWAP1 PUSH2 0xDEE JUMP JUMPDEST PUSH1 0x40 MLOAD PUSH1 0x20 DUP2 DUP4 SUB SUB DUP2 MSTORE SWAP1 PUSH1 0x40 MSTORE DUP1 MLOAD SWAP1 PUSH1 0x20 ADD KECCAK256 SWAP1 POP DUP1 PUSH1 0x1 DUP6 PUSH1 0x40 MLOAD PUSH2 0x165 SWAP2 SWAP1 PUSH2 0xE22 JUMP JUMPDEST SWAP1 DUP2 MSTORE PUSH1 0x20 ADD PUSH1 0x40 MLOAD DUP1 SWAP2 SUB SWAP1 KECCAK256 DUP2 SWAP1 SSTORE POP PUSH1 0x3 DUP5 SWAP1 DUP1 PUSH1 0x1 DUP2 SLOAD ADD DUP1 DUP3 SSTORE DUP1 SWAP2 POP POP PUSH1 0x1 SWAP1 SUB SWAP1 PUSH0 MSTORE PUSH1 0x20 PUSH0 KECCAK256 ADD PUSH0 SWAP1 SWAP2 SWAP1 SWAP2 SWAP1 SWAP2 POP SWAP1 DUP2 PUSH2 0x1A8 SWAP2 SWAP1 PUSH2 0x1032 JUMP JUMPDEST POP POP POP POP POP JUMP JUMPDEST PUSH1 0x60 PUSH0 PUSH1 0x40 MLOAD DUP1 PUSH1 0x20 ADD PUSH1 0x40 MSTORE DUP1 PUSH0 DUP2 MSTORE POP SWAP1 POP PUSH0 JUMPDEST PUSH1 0x3 DUP1 SLOAD SWAP1 POP DUP2 LT ISZERO PUSH2 0x2DC JUMPI PUSH0 PUSH2 0x27E PUSH1 0x3 DUP4 DUP2 SLOAD DUP2 LT PUSH2 0x1EA JUMPI PUSH2 0x1E9 PUSH2 0x1101 JUMP JUMPDEST JUMPDEST SWAP1 PUSH0 MSTORE PUSH1 0x20 PUSH0 KECCAK256 ADD DUP1 SLOAD PUSH2 0x1FD SWAP1 PUSH2 0xE65 JUMP JUMPDEST DUP1 PUSH1 0x1F ADD PUSH1 0x20 DUP1 SWAP2 DIV MUL PUSH1 0x20 ADD PUSH1 0x40 MLOAD SWAP1 DUP2 ADD PUSH1 0x40 MSTORE DUP1 SWAP3 SWAP2 SWAP1 DUP2 DUP2 MSTORE PUSH1 0x20 ADD DUP3 DUP1 SLOAD PUSH2 0x229 SWAP1 PUSH2 0xE65 JUMP JUMPDEST DUP1 ISZERO PUSH2 0x274 JUMPI DUP1 PUSH1 0x1F LT PUSH2 0x24B JUMPI PUSH2 0x100 DUP1 DUP4 SLOAD DIV MUL DUP4 MSTORE SWAP2 PUSH1 0x20 ADD SWAP2 PUSH2 0x274 JUMP JUMPDEST DUP3 ADD SWAP2 SWAP1 PUSH0 MSTORE PUSH1 0x20 PUSH0 KECCAK256 SWAP1 JUMPDEST DUP2 SLOAD DUP2 MSTORE SWAP1 PUSH1 0x1 ADD SWAP1 PUSH1 0x20 ADD DUP1 DUP4 GT PUSH2 0x257 JUMPI DUP3 SWAP1 SUB PUSH1 0x1F AND DUP3 ADD SWAP2 JUMPDEST POP POP POP POP POP PUSH2 0x2E4 JUMP JUMPDEST SWAP1 POP PUSH0 PUSH2 0x28A DUP3 PUSH2 0x745 JUMP JUMPDEST SWAP1 POP DUP4 PUSH1 0x3 DUP5 DUP2 SLOAD DUP2 LT PUSH2 0x2A1 JUMPI PUSH2 0x2A0 PUSH2 0x1101 JUMP JUMPDEST JUMPDEST SWAP1 PUSH0 MSTORE PUSH1 0x20 PUSH0 KECCAK256 ADD DUP3 PUSH1 0x40 MLOAD PUSH1 0x20 ADD PUSH2 0x2BC SWAP4 SWAP3 SWAP2 SWAP1 PUSH2 0x128C JUMP JUMPDEST PUSH1 0x40 MLOAD PUSH1 0x20 DUP2 DUP4 SUB SUB DUP2 MSTORE SWAP1 PUSH1 0x40 MSTORE SWAP4 POP POP POP DUP1 DUP1 PUSH1 0x1 ADD SWAP2 POP POP PUSH2 0x1C5 JUMP JUMPDEST POP DUP1 SWAP2 POP POP SWAP1 JUMP JUMPDEST PUSH0 PUSH1 0x2 DUP3 PUSH1 0x40 MLOAD PUSH2 0x2F5 SWAP2 SWAP1 PUSH2 0xE22 JUMP JUMPDEST SWAP1 DUP2 MSTORE PUSH1 0x20 ADD PUSH1 0x40 MLOAD DUP1 SWAP2 SUB SWAP1 KECCAK256 SLOAD SWAP1 POP SWAP2 SWAP1 POP JUMP JUMPDEST PUSH1 0x60 PUSH0 PUSH1 0x3 PUSH0 DUP2 SLOAD DUP2 LT PUSH2 0x322 JUMPI PUSH2 0x321 PUSH2 0x1101 JUMP JUMPDEST JUMPDEST SWAP1 PUSH0 MSTORE PUSH1 0x20 PUSH0 KECCAK256 ADD DUP1 SLOAD PUSH2 0x335 SWAP1 PUSH2 0xE65 JUMP JUMPDEST DUP1 PUSH1 0x1F ADD PUSH1 0x20 DUP1 SWAP2 DIV MUL PUSH1 0x20 ADD PUSH1 0x40 MLOAD SWAP1 DUP2 ADD PUSH1 0x40 MSTORE DUP1 SWAP3 SWAP2 SWAP1 DUP2 DUP2 MSTORE PUSH1 0x20 ADD DUP3 DUP1 SLOAD PUSH2 0x361 SWAP1 PUSH2 0xE65 JUMP JUMPDEST DUP1 ISZERO PUSH2 0x3AC JUMPI DUP1 PUSH1 0x1F LT PUSH2 0x383 JUMPI PUSH2 0x100 DUP1 DUP4 SLOAD DIV MUL DUP4 MSTORE SWAP2 PUSH1 0x20 ADD SWAP2 PUSH2 0x3AC JUMP JUMPDEST DUP3 ADD SWAP2 SWAP1 PUSH0 MSTORE PUSH1 0x20 PUSH0 KECCAK256 SWAP1 JUMPDEST DUP2 SLOAD DUP2 MSTORE SWAP1 PUSH1 0x1 ADD SWAP1 PUSH1 0x20 ADD DUP1 DUP4 GT PUSH2 0x38F JUMPI DUP3 SWAP1 SUB PUSH1 0x1F AND DUP3 ADD SWAP2 JUMPDEST POP POP POP POP POP SWAP1 POP PUSH0 DUP1 PUSH1 0x1 SWAP1 POP JUMPDEST PUSH1 0x3 DUP1 SLOAD SWAP1 POP DUP2 LT ISZERO PUSH2 0x544 JUMPI PUSH1 0x2 PUSH1 0x3 DUP3 DUP2 SLOAD DUP2 LT PUSH2 0x3DD JUMPI PUSH2 0x3DC PUSH2 0x1101 JUMP JUMPDEST JUMPDEST SWAP1 PUSH0 MSTORE PUSH1 0x20 PUSH0 KECCAK256 ADD PUSH1 0x40 MLOAD PUSH2 0x3F2 SWAP2 SWAP1 PUSH2 0x12DD JUMP JUMPDEST SWAP1 DUP2 MSTORE PUSH1 0x20 ADD PUSH1 0x40 MLOAD DUP1 SWAP2 SUB SWAP1 KECCAK256 SLOAD PUSH1 0x2 DUP5 PUSH1 0x40 MLOAD PUSH2 0x411 SWAP2 SWAP1 PUSH2 0xE22 JUMP JUMPDEST SWAP1 DUP2 MSTORE PUSH1 0x20 ADD PUSH1 0x40 MLOAD DUP1 SWAP2 SUB SWAP1 KECCAK256 SLOAD LT ISZERO PUSH2 0x4D3 JUMPI PUSH1 0x3 DUP2 DUP2 SLOAD DUP2 LT PUSH2 0x43A JUMPI PUSH2 0x439 PUSH2 0x1101 JUMP JUMPDEST JUMPDEST SWAP1 PUSH0 MSTORE PUSH1 0x20 PUSH0 KECCAK256 ADD DUP1 SLOAD PUSH2 0x44D SWAP1 PUSH2 0xE65 JUMP JUMPDEST DUP1 PUSH1 0x1F ADD PUSH1 0x20 DUP1 SWAP2 DIV MUL PUSH1 0x20 ADD PUSH1 0x40 MLOAD SWAP1 DUP2 ADD PUSH1 0x40 MSTORE DUP1 SWAP3 SWAP2 SWAP1 DUP2 DUP2 MSTORE PUSH1 0x20 ADD DUP3 DUP1 SLOAD PUSH2 0x479 SWAP1 PUSH2 0xE65 JUMP JUMPDEST DUP1 ISZERO PUSH2 0x4C4 JUMPI DUP1 PUSH1 0x1F LT PUSH2 0x49B JUMPI PUSH2 0x100 DUP1 DUP4 SLOAD DIV MUL DUP4 MSTORE SWAP2 PUSH1 0x20 ADD SWAP2 PUSH2 0x4C4 JUMP JUMPDEST DUP3 ADD SWAP2 SWAP1 PUSH0 MSTORE PUSH1 0x20 PUSH0 KECCAK256 SWAP1 JUMPDEST DUP2 SLOAD DUP2 MSTORE SWAP1 PUSH1 0x1 ADD SWAP1 PUSH1 0x20 ADD DUP1 DUP4 GT PUSH2 0x4A7 JUMPI DUP3 SWAP1 SUB PUSH1 0x1F AND DUP3 ADD SWAP2 JUMPDEST POP POP POP POP POP SWAP3 POP PUSH0 SWAP2 POP PUSH2 0x537 JUMP JUMPDEST PUSH1 0x2 PUSH1 0x3 DUP3 DUP2 SLOAD DUP2 LT PUSH2 0x4E9 JUMPI PUSH2 0x4E8 PUSH2 0x1101 JUMP JUMPDEST JUMPDEST SWAP1 PUSH0 MSTORE PUSH1 0x20 PUSH0 KECCAK256 ADD PUSH1 0x40 MLOAD PUSH2 0x4FE SWAP2 SWAP1 PUSH2 0x12DD JUMP JUMPDEST SWAP1 DUP2 MSTORE PUSH1 0x20 ADD PUSH1 0x40 MLOAD DUP1 SWAP2 SUB SWAP1 KECCAK256 SLOAD PUSH1 0x2 DUP5 PUSH1 0x40 MLOAD PUSH2 0x51D SWAP2 SWAP1 PUSH2 0xE22 JUMP JUMPDEST SWAP1 DUP2 MSTORE PUSH1 0x20 ADD PUSH1 0x40 MLOAD DUP1 SWAP2 SUB SWAP1 KECCAK256 SLOAD SUB PUSH2 0x536 JUMPI PUSH1 0x1 SWAP2 POP JUMPDEST JUMPDEST DUP1 DUP1 PUSH1 0x1 ADD SWAP2 POP POP PUSH2 0x3BA JUMP JUMPDEST POP DUP1 ISZERO PUSH2 0x567 JUMPI PUSH1 0x40 MLOAD DUP1 PUSH1 0x60 ADD PUSH1 0x40 MSTORE DUP1 PUSH1 0x23 DUP2 MSTORE PUSH1 0x20 ADD PUSH2 0x148C PUSH1 0x23 SWAP2 CODECOPY SWAP2 POP JUMPDEST DUP2 SWAP3 POP POP POP SWAP1 JUMP JUMPDEST PUSH1 0x60 PUSH1 0x3 DUP1 SLOAD DUP1 PUSH1 0x20 MUL PUSH1 0x20 ADD PUSH1 0x40 MLOAD SWAP1 DUP2 ADD PUSH1 0x40 MSTORE DUP1 SWAP3 SWAP2 SWAP1 DUP2 DUP2 MSTORE PUSH1 0x20 ADD PUSH0 SWAP1 JUMPDEST DUP3 DUP3 LT ISZERO PUSH2 0x63A JUMPI DUP4 DUP3 SWAP1 PUSH0 MSTORE PUSH1 0x20 PUSH0 KECCAK256 ADD DUP1 SLOAD PUSH2 0x5AF SWAP1 PUSH2 0xE65 JUMP JUMPDEST DUP1 PUSH1 0x1F ADD PUSH1 0x20 DUP1 SWAP2 DIV MUL PUSH1 0x20 ADD PUSH1 0x40 MLOAD SWAP1 DUP2 ADD PUSH1 0x40 MSTORE DUP1 SWAP3 SWAP2 SWAP1 DUP2 DUP2 MSTORE PUSH1 0x20 ADD DUP3 DUP1 SLOAD PUSH2 0x5DB SWAP1 PUSH2 0xE65 JUMP JUMPDEST DUP1 ISZERO PUSH2 0x626 JUMPI DUP1 PUSH1 0x1F LT PUSH2 0x5FD JUMPI PUSH2 0x100 DUP1 DUP4 SLOAD DIV MUL DUP4 MSTORE SWAP2 PUSH1 0x20 ADD SWAP2 PUSH2 0x626 JUMP JUMPDEST DUP3 ADD SWAP2 SWAP1 PUSH0 MSTORE PUSH1 0x20 PUSH0 KECCAK256 SWAP1 JUMPDEST DUP2 SLOAD DUP2 MSTORE SWAP1 PUSH1 0x1 ADD SWAP1 PUSH1 0x20 ADD DUP1 DUP4 GT PUSH2 0x609 JUMPI DUP3 SWAP1 SUB PUSH1 0x1F AND DUP3 ADD SWAP2 JUMPDEST POP POP POP POP POP DUP2 MSTORE PUSH1 0x20 ADD SWAP1 PUSH1 0x1 ADD SWAP1 PUSH2 0x592 JUMP JUMPDEST POP POP POP POP SWAP1 POP SWAP1 JUMP JUMPDEST PUSH0 CALLER PUSH1 0x40 MLOAD PUSH1 0x20 ADD PUSH2 0x655 SWAP2 SWAP1 PUSH2 0x1368 JUMP JUMPDEST PUSH1 0x40 MLOAD PUSH1 0x20 DUP2 DUP4 SUB SUB DUP2 MSTORE SWAP1 PUSH1 0x40 MSTORE DUP1 MLOAD SWAP1 PUSH1 0x20 ADD KECCAK256 SWAP1 POP PUSH0 JUMPDEST PUSH1 0x4 DUP1 SLOAD SWAP1 POP DUP2 LT ISZERO PUSH2 0x6E7 JUMPI DUP2 PUSH1 0x4 DUP3 DUP2 SLOAD DUP2 LT PUSH2 0x691 JUMPI PUSH2 0x690 PUSH2 0x1101 JUMP JUMPDEST JUMPDEST SWAP1 PUSH0 MSTORE PUSH1 0x20 PUSH0 KECCAK256 ADD SLOAD SUB PUSH2 0x6DA JUMPI PUSH1 0x40 MLOAD PUSH32 0x8C379A000000000000000000000000000000000000000000000000000000000 DUP2 MSTORE PUSH1 0x4 ADD PUSH2 0x6D1 SWAP1 PUSH2 0x13CC JUMP JUMPDEST PUSH1 0x40 MLOAD DUP1 SWAP2 SUB SWAP1 REVERT JUMPDEST DUP1 DUP1 PUSH1 0x1 ADD SWAP2 POP POP PUSH2 0x66F JUMP JUMPDEST POP PUSH1 0x4 DUP2 SWAP1 DUP1 PUSH1 0x1 DUP2 SLOAD ADD DUP1 DUP3 SSTORE DUP1 SWAP2 POP POP PUSH1 0x1 SWAP1 SUB SWAP1 PUSH0 MSTORE PUSH1 0x20 PUSH0 KECCAK256 ADD PUSH0 SWAP1 SWAP2 SWAP1 SWAP2 SWAP1 SWAP2 POP SSTORE PUSH1 0x2 DUP3 PUSH1 0x40 MLOAD PUSH2 0x71E SWAP2 SWAP1 PUSH2 0xE22 JUMP JUMPDEST SWAP1 DUP2 MSTORE PUSH1 0x20 ADD PUSH1 0x40 MLOAD DUP1 SWAP2 SUB SWAP1 KECCAK256 PUSH0 DUP2 SLOAD DUP1 SWAP3 SWAP2 SWAP1 PUSH2 0x73C SWAP1 PUSH2 0x1417 JUMP JUMPDEST SWAP2 SWAP1 POP SSTORE POP POP POP JUMP JUMPDEST PUSH1 0x60 PUSH0 PUSH1 0x1 PUSH2 0x753 DUP5 PUSH2 0x80F JUMP JUMPDEST ADD SWAP1 POP PUSH0 DUP2 PUSH8 0xFFFFFFFFFFFFFFFF DUP2 GT ISZERO PUSH2 0x771 JUMPI PUSH2 0x770 PUSH2 0x989 JUMP JUMPDEST JUMPDEST PUSH1 0x40 MLOAD SWAP1 DUP1 DUP3 MSTORE DUP1 PUSH1 0x1F ADD PUSH1 0x1F NOT AND PUSH1 0x20 ADD DUP3 ADD PUSH1 0x40 MSTORE DUP1 ISZERO PUSH2 0x7A3 JUMPI DUP2 PUSH1 0x20 ADD PUSH1 0x1 DUP3 MUL DUP1 CALLDATASIZE DUP4 CALLDATACOPY DUP1 DUP3 ADD SWAP2 POP POP SWAP1 POP JUMPDEST POP SWAP1 POP PUSH0 DUP3 PUSH1 0x20 ADD DUP3 ADD SWAP1 POP JUMPDEST PUSH1 0x1 ISZERO PUSH2 0x804 JUMPI DUP1 DUP1 PUSH1 0x1 SWAP1 SUB SWAP2 POP POP PUSH32 0x3031323334353637383961626364656600000000000000000000000000000000 PUSH1 0xA DUP7 MOD BYTE DUP2 MSTORE8 PUSH1 0xA DUP6 DUP2 PUSH2 0x7F9 JUMPI PUSH2 0x7F8 PUSH2 0x145E JUMP JUMPDEST JUMPDEST DIV SWAP5 POP PUSH0 DUP6 SUB PUSH2 0x7B0 JUMPI JUMPDEST DUP2 SWAP4 POP POP POP POP SWAP2 SWAP1 POP JUMP JUMPDEST PUSH0 DUP1 PUSH0 SWAP1 POP PUSH27 0x184F03E93FF9F4DAA797ED6E38ED64BF6A1F010000000000000000 DUP4 LT PUSH2 0x86B JUMPI PUSH27 0x184F03E93FF9F4DAA797ED6E38ED64BF6A1F010000000000000000 DUP4 DUP2 PUSH2 0x861 JUMPI PUSH2 0x860 PUSH2 0x145E JUMP JUMPDEST JUMPDEST DIV SWAP3 POP PUSH1 0x40 DUP2 ADD SWAP1 POP JUMPDEST PUSH14 0x4EE2D6D415B85ACEF8100000000 DUP4 LT PUSH2 0x8A8 JUMPI PUSH14 0x4EE2D6D415B85ACEF8100000000 DUP4 DUP2 PUSH2 0x89E JUMPI PUSH2 0x89D PUSH2 0x145E JUMP JUMPDEST JUMPDEST DIV SWAP3 POP PUSH1 0x20 DUP2 ADD SWAP1 POP JUMPDEST PUSH7 0x2386F26FC10000 DUP4 LT PUSH2 0x8D7 JUMPI PUSH7 0x2386F26FC10000 DUP4 DUP2 PUSH2 0x8CD JUMPI PUSH2 0x8CC PUSH2 0x145E JUMP JUMPDEST JUMPDEST DIV SWAP3 POP PUSH1 0x10 DUP2 ADD SWAP1 POP JUMPDEST PUSH4 0x5F5E100 DUP4 LT PUSH2 0x900 JUMPI PUSH4 0x5F5E100 DUP4 DUP2 PUSH2 0x8F6 JUMPI PUSH2 0x8F5 PUSH2 0x145E JUMP JUMPDEST JUMPDEST DIV SWAP3 POP PUSH1 0x8 DUP2 ADD SWAP1 POP JUMPDEST PUSH2 0x2710 DUP4 LT PUSH2 0x925 JUMPI PUSH2 0x2710 DUP4 DUP2 PUSH2 0x91B JUMPI PUSH2 0x91A PUSH2 0x145E JUMP JUMPDEST JUMPDEST DIV SWAP3 POP PUSH1 0x4 DUP2 ADD SWAP1 POP JUMPDEST PUSH1 0x64 DUP4 LT PUSH2 0x948 JUMPI PUSH1 0x64 DUP4 DUP2 PUSH2 0x93E JUMPI PUSH2 0x93D PUSH2 0x145E JUMP JUMPDEST JUMPDEST DIV SWAP3 POP PUSH1 0x2 DUP2 ADD SWAP1 POP JUMPDEST PUSH1 0xA DUP4 LT PUSH2 0x957 JUMPI PUSH1 0x1 DUP2 ADD SWAP1 POP JUMPDEST DUP1 SWAP2 POP POP SWAP2 SWAP1 POP JUMP JUMPDEST PUSH0 PUSH1 0x40 MLOAD SWAP1 POP SWAP1 JUMP JUMPDEST PUSH0 DUP1 REVERT JUMPDEST PUSH0 DUP1 REVERT JUMPDEST PUSH0 DUP1 REVERT JUMPDEST PUSH0 DUP1 REVERT JUMPDEST PUSH0 PUSH1 0x1F NOT PUSH1 0x1F DUP4 ADD AND SWAP1 POP SWAP2 SWAP1 POP JUMP JUMPDEST PUSH32 0x4E487B7100000000000000000000000000000000000000000000000000000000 PUSH0 MSTORE PUSH1 0x41 PUSH1 0x4 MSTORE PUSH1 0x24 PUSH0 REVERT JUMPDEST PUSH2 0x9BF DUP3 PUSH2 0x979 JUMP JUMPDEST DUP2 ADD DUP2 DUP2 LT PUSH8 0xFFFFFFFFFFFFFFFF DUP3 GT OR ISZERO PUSH2 0x9DE JUMPI PUSH2 0x9DD PUSH2 0x989 JUMP JUMPDEST JUMPDEST DUP1 PUSH1 0x40 MSTORE POP POP POP JUMP JUMPDEST PUSH0 PUSH2 0x9F0 PUSH2 0x960 JUMP JUMPDEST SWAP1 POP PUSH2 0x9FC DUP3 DUP3 PUSH2 0x9B6 JUMP JUMPDEST SWAP2 SWAP1 POP JUMP JUMPDEST PUSH0 PUSH8 0xFFFFFFFFFFFFFFFF DUP3 GT ISZERO PUSH2 0xA1B JUMPI PUSH2 0xA1A PUSH2 0x989 JUMP JUMPDEST JUMPDEST PUSH2 0xA24 DUP3 PUSH2 0x979 JUMP JUMPDEST SWAP1 POP PUSH1 0x20 DUP2 ADD SWAP1 POP SWAP2 SWAP1 POP JUMP JUMPDEST DUP3 DUP2 DUP4 CALLDATACOPY PUSH0 DUP4 DUP4 ADD MSTORE POP POP POP JUMP JUMPDEST PUSH0 PUSH2 0xA51 PUSH2 0xA4C DUP5 PUSH2 0xA01 JUMP JUMPDEST PUSH2 0x9E7 JUMP JUMPDEST SWAP1 POP DUP3 DUP2 MSTORE PUSH1 0x20 DUP2 ADD DUP5 DUP5 DUP5 ADD GT ISZERO PUSH2 0xA6D JUMPI PUSH2 0xA6C PUSH2 0x975 JUMP JUMPDEST JUMPDEST PUSH2 0xA78 DUP5 DUP3 DUP6 PUSH2 0xA31 JUMP JUMPDEST POP SWAP4 SWAP3 POP POP POP JUMP JUMPDEST PUSH0 DUP3 PUSH1 0x1F DUP4 ADD SLT PUSH2 0xA94 JUMPI PUSH2 0xA93 PUSH2 0x971 JUMP JUMPDEST JUMPDEST DUP2 CALLDATALOAD PUSH2 0xAA4 DUP5 DUP3 PUSH1 0x20 DUP7 ADD PUSH2 0xA3F JUMP JUMPDEST SWAP2 POP POP SWAP3 SWAP2 POP POP JUMP JUMPDEST PUSH0 DUP2 SWAP1 POP SWAP2 SWAP1 POP JUMP JUMPDEST PUSH2 0xABF DUP2 PUSH2 0xAAD JUMP JUMPDEST DUP2 EQ PUSH2 0xAC9 JUMPI PUSH0 DUP1 REVERT JUMPDEST POP JUMP JUMPDEST PUSH0 DUP2 CALLDATALOAD SWAP1 POP PUSH2 0xADA DUP2 PUSH2 0xAB6 JUMP JUMPDEST SWAP3 SWAP2 POP POP JUMP JUMPDEST PUSH0 DUP1 PUSH0 PUSH1 0x60 DUP5 DUP7 SUB SLT ISZERO PUSH2 0xAF7 JUMPI PUSH2 0xAF6 PUSH2 0x969 JUMP JUMPDEST JUMPDEST PUSH0 DUP5 ADD CALLDATALOAD PUSH8 0xFFFFFFFFFFFFFFFF DUP2 GT ISZERO PUSH2 0xB14 JUMPI PUSH2 0xB13 PUSH2 0x96D JUMP JUMPDEST JUMPDEST PUSH2 0xB20 DUP7 DUP3 DUP8 ADD PUSH2 0xA80 JUMP JUMPDEST SWAP4 POP POP PUSH1 0x20 PUSH2 0xB31 DUP7 DUP3 DUP8 ADD PUSH2 0xACC JUMP JUMPDEST SWAP3 POP POP PUSH1 0x40 DUP5 ADD CALLDATALOAD PUSH8 0xFFFFFFFFFFFFFFFF DUP2 GT ISZERO PUSH2 0xB52 JUMPI PUSH2 0xB51 PUSH2 0x96D JUMP JUMPDEST JUMPDEST PUSH2 0xB5E DUP7 DUP3 DUP8 ADD PUSH2 0xA80 JUMP JUMPDEST SWAP2 POP POP SWAP3 POP SWAP3 POP SWAP3 JUMP JUMPDEST PUSH0 DUP2 MLOAD SWAP1 POP SWAP2 SWAP1 POP JUMP JUMPDEST PUSH0 DUP3 DUP3 MSTORE PUSH1 0x20 DUP3 ADD SWAP1 POP SWAP3 SWAP2 POP POP JUMP JUMPDEST PUSH0 JUMPDEST DUP4 DUP2 LT ISZERO PUSH2 0xB9F JUMPI DUP1 DUP3 ADD MLOAD DUP2 DUP5 ADD MSTORE PUSH1 0x20 DUP2 ADD SWAP1 POP PUSH2 0xB84 JUMP JUMPDEST PUSH0 DUP5 DUP5 ADD MSTORE POP POP POP POP JUMP JUMPDEST PUSH0 PUSH2 0xBB4 DUP3 PUSH2 0xB68 JUMP JUMPDEST PUSH2 0xBBE DUP2 DUP6 PUSH2 0xB72 JUMP JUMPDEST SWAP4 POP PUSH2 0xBCE DUP2 DUP6 PUSH1 0x20 DUP7 ADD PUSH2 0xB82 JUMP JUMPDEST PUSH2 0xBD7 DUP2 PUSH2 0x979 JUMP JUMPDEST DUP5 ADD SWAP2 POP POP SWAP3 SWAP2 POP POP JUMP JUMPDEST PUSH0 PUSH1 0x20 DUP3 ADD SWAP1 POP DUP2 DUP2 SUB PUSH0 DUP4 ADD MSTORE PUSH2 0xBFA DUP2 DUP5 PUSH2 0xBAA JUMP JUMPDEST SWAP1 POP SWAP3 SWAP2 POP POP JUMP JUMPDEST PUSH0 PUSH1 0x20 DUP3 DUP5 SUB SLT ISZERO PUSH2 0xC17 JUMPI PUSH2 0xC16 PUSH2 0x969 JUMP JUMPDEST JUMPDEST PUSH0 DUP3 ADD CALLDATALOAD PUSH8 0xFFFFFFFFFFFFFFFF DUP2 GT ISZERO PUSH2 0xC34 JUMPI PUSH2 0xC33 PUSH2 0x96D JUMP JUMPDEST JUMPDEST PUSH2 0xC40 DUP5 DUP3 DUP6 ADD PUSH2 0xA80 JUMP JUMPDEST SWAP2 POP POP SWAP3 SWAP2 POP POP JUMP JUMPDEST PUSH2 0xC52 DUP2 PUSH2 0xAAD JUMP JUMPDEST DUP3 MSTORE POP POP JUMP JUMPDEST PUSH0 PUSH1 0x20 DUP3 ADD SWAP1 POP PUSH2 0xC6B PUSH0 DUP4 ADD DUP5 PUSH2 0xC49 JUMP JUMPDEST SWAP3 SWAP2 POP POP JUMP JUMPDEST PUSH0 DUP2 MLOAD SWAP1 POP SWAP2 SWAP1 POP JUMP JUMPDEST PUSH0 DUP3 DUP3 MSTORE PUSH1 0x20 DUP3 ADD SWAP1 POP SWAP3 SWAP2 POP POP JUMP JUMPDEST PUSH0 DUP2 SWAP1 POP PUSH1 0x20 DUP3 ADD SWAP1 POP SWAP2 SWAP1 POP JUMP JUMPDEST PUSH0 DUP3 DUP3 MSTORE PUSH1 0x20 DUP3 ADD SWAP1 POP SWAP3 SWAP2 POP POP JUMP JUMPDEST PUSH0 PUSH2 0xCB4 DUP3 PUSH2 0xB68 JUMP JUMPDEST PUSH2 0xCBE DUP2 DUP6 PUSH2 0xC9A JUMP JUMPDEST SWAP4 POP PUSH2 0xCCE DUP2 DUP6 PUSH1 0x20 DUP7 ADD PUSH2 0xB82 JUMP JUMPDEST PUSH2 0xCD7 DUP2 PUSH2 0x979 JUMP JUMPDEST DUP5 ADD SWAP2 POP POP SWAP3 SWAP2 POP POP JUMP JUMPDEST PUSH0 PUSH2 0xCED DUP4 DUP4 PUSH2 0xCAA JUMP JUMPDEST SWAP1 POP SWAP3 SWAP2 POP POP JUMP JUMPDEST PUSH0 PUSH1 0x20 DUP3 ADD SWAP1 POP SWAP2 SWAP1 POP JUMP JUMPDEST PUSH0 PUSH2 0xD0B DUP3 PUSH2 0xC71 JUMP JUMPDEST PUSH2 0xD15 DUP2 DUP6 PUSH2 0xC7B JUMP JUMPDEST SWAP4 POP DUP4 PUSH1 0x20 DUP3 MUL DUP6 ADD PUSH2 0xD27 DUP6 PUSH2 0xC8B JUMP JUMPDEST DUP1 PUSH0 JUMPDEST DUP6 DUP2 LT ISZERO PUSH2 0xD62 JUMPI DUP5 DUP5 SUB DUP10 MSTORE DUP2 MLOAD PUSH2 0xD43 DUP6 DUP3 PUSH2 0xCE2 JUMP JUMPDEST SWAP5 POP PUSH2 0xD4E DUP4 PUSH2 0xCF5 JUMP JUMPDEST SWAP3 POP PUSH1 0x20 DUP11 ADD SWAP10 POP POP PUSH1 0x1 DUP2 ADD SWAP1 POP PUSH2 0xD2A JUMP JUMPDEST POP DUP3 SWAP8 POP DUP8 SWAP6 POP POP POP POP POP POP SWAP3 SWAP2 POP POP JUMP JUMPDEST PUSH0 PUSH1 0x20 DUP3 ADD SWAP1 POP DUP2 DUP2 SUB PUSH0 DUP4 ADD MSTORE PUSH2 0xD8C DUP2 DUP5 PUSH2 0xD01 JUMP JUMPDEST SWAP1 POP SWAP3 SWAP2 POP POP JUMP JUMPDEST PUSH0 DUP2 SWAP1 POP SWAP3 SWAP2 POP POP JUMP JUMPDEST PUSH0 PUSH2 0xDA8 DUP3 PUSH2 0xB68 JUMP JUMPDEST PUSH2 0xDB2 DUP2 DUP6 PUSH2 0xD94 JUMP JUMPDEST SWAP4 POP PUSH2 0xDC2 DUP2 DUP6 PUSH1 0x20 DUP7 ADD PUSH2 0xB82 JUMP JUMPDEST DUP1 DUP5 ADD SWAP2 POP POP SWAP3 SWAP2 POP POP JUMP JUMPDEST PUSH0 DUP2 SWAP1 POP SWAP2 SWAP1 POP JUMP JUMPDEST PUSH2 0xDE8 PUSH2 0xDE3 DUP3 PUSH2 0xAAD JUMP JUMPDEST PUSH2 0xDCE JUMP JUMPDEST DUP3 MSTORE POP POP JUMP JUMPDEST PUSH0 PUSH2 0xDF9 DUP3 DUP7 PUSH2 0xD9E JUMP JUMPDEST SWAP2 POP PUSH2 0xE05 DUP3 DUP6 PUSH2 0xDD7 JUMP JUMPDEST PUSH1 0x20 DUP3 ADD SWAP2 POP PUSH2 0xE15 DUP3 DUP5 PUSH2 0xD9E JUMP JUMPDEST SWAP2 POP DUP2 SWAP1 POP SWAP5 SWAP4 POP POP POP POP JUMP JUMPDEST PUSH0 PUSH2 0xE2D DUP3 DUP5 PUSH2 0xD9E JUMP JUMPDEST SWAP2 POP DUP2 SWAP1 POP SWAP3 SWAP2 POP POP JUMP JUMPDEST PUSH32 0x4E487B7100000000000000000000000000000000000000000000000000000000 PUSH0 MSTORE PUSH1 0x22 PUSH1 0x4 MSTORE PUSH1 0x24 PUSH0 REVERT JUMPDEST PUSH0 PUSH1 0x2 DUP3 DIV SWAP1 POP PUSH1 0x1 DUP3 AND DUP1 PUSH2 0xE7C JUMPI PUSH1 0x7F DUP3 AND SWAP2 POP JUMPDEST PUSH1 0x20 DUP3 LT DUP2 SUB PUSH2 0xE8F JUMPI PUSH2 0xE8E PUSH2 0xE38 JUMP JUMPDEST JUMPDEST POP SWAP2 SWAP1 POP JUMP JUMPDEST PUSH0 DUP2 SWAP1 POP DUP2 PUSH0 MSTORE PUSH1 0x20 PUSH0 KECCAK256 SWAP1 POP SWAP2 SWAP1 POP JUMP JUMPDEST PUSH0 PUSH1 0x20 PUSH1 0x1F DUP4 ADD DIV SWAP1 POP SWAP2 SWAP1 POP JUMP JUMPDEST PUSH0 DUP3 DUP3 SHL SWAP1 POP SWAP3 SWAP2 POP POP JUMP JUMPDEST PUSH0 PUSH1 0x8 DUP4 MUL PUSH2 0xEF1 PUSH32 0xFFFFFFFFFFFFFFFFFFFFFFFFFFFFFFFFFFFFFFFFFFFFFFFFFFFFFFFFFFFFFFFF DUP3 PUSH2 0xEB6 JUMP JUMPDEST PUSH2 0xEFB DUP7 DUP4 PUSH2 0xEB6 JUMP JUMPDEST SWAP6 POP DUP1 NOT DUP5 AND SWAP4 POP DUP1 DUP7 AND DUP5 OR SWAP3 POP POP POP SWAP4 SWAP3 POP POP POP JUMP JUMPDEST PUSH0 DUP2 SWAP1 POP SWAP2 SWAP1 POP JUMP JUMPDEST PUSH0 PUSH2 0xF36 PUSH2 0xF31 PUSH2 0xF2C DUP5 PUSH2 0xAAD JUMP JUMPDEST PUSH2 0xF13 JUMP JUMPDEST PUSH2 0xAAD JUMP JUMPDEST SWAP1 POP SWAP2 SWAP1 POP JUMP JUMPDEST PUSH0 DUP2 SWAP1 POP SWAP2 SWAP1 POP JUMP JUMPDEST PUSH2 0xF4F DUP4 PUSH2 0xF1C JUMP JUMPDEST PUSH2 0xF63 PUSH2 0xF5B DUP3 PUSH2 0xF3D JUMP JUMPDEST DUP5 DUP5 SLOAD PUSH2 0xEC2 JUMP JUMPDEST DUP3 SSTORE POP POP POP POP JUMP JUMPDEST PUSH0 SWAP1 JUMP JUMPDEST PUSH2 0xF77 PUSH2 0xF6B JUMP JUMPDEST PUSH2 0xF82 DUP2 DUP5 DUP5 PUSH2 0xF46 JUMP JUMPDEST POP POP POP JUMP JUMPDEST JUMPDEST DUP2 DUP2 LT ISZERO PUSH2 0xFA5 JUMPI PUSH2 0xF9A PUSH0 DUP3 PUSH2 0xF6F JUMP JUMPDEST PUSH1 0x1 DUP2 ADD SWAP1 POP PUSH2 0xF88 JUMP JUMPDEST POP POP JUMP JUMPDEST PUSH1 0x1F DUP3 GT ISZERO PUSH2 0xFEA JUMPI PUSH2 0xFBB DUP2 PUSH2 0xE95 JUMP JUMPDEST PUSH2 0xFC4 DUP5 PUSH2 0xEA7 JUMP JUMPDEST DUP2 ADD PUSH1 0x20 DUP6 LT ISZERO PUSH2 0xFD3 JUMPI DUP2 SWAP1 POP JUMPDEST PUSH2 0xFE7 PUSH2 0xFDF DUP6 PUSH2 0xEA7 JUMP JUMPDEST DUP4 ADD DUP3 PUSH2 0xF87 JUMP JUMPDEST POP POP JUMPDEST POP POP POP JUMP JUMPDEST PUSH0 DUP3 DUP3 SHR SWAP1 POP SWAP3 SWAP2 POP POP JUMP JUMPDEST PUSH0 PUSH2 0x100A PUSH0 NOT DUP5 PUSH1 0x8 MUL PUSH2 0xFEF JUMP JUMPDEST NOT DUP1 DUP4 AND SWAP2 POP POP SWAP3 SWAP2 POP POP JUMP JUMPDEST PUSH0 PUSH2 0x1022 DUP4 DUP4 PUSH2 0xFFB JUMP JUMPDEST SWAP2 POP DUP3 PUSH1 0x2 MUL DUP3 OR SWAP1 POP SWAP3 SWAP2 POP POP JUMP JUMPDEST PUSH2 0x103B DUP3 PUSH2 0xB68 JUMP JUMPDEST PUSH8 0xFFFFFFFFFFFFFFFF DUP2 GT ISZERO PUSH2 0x1054 JUMPI PUSH2 0x1053 PUSH2 0x989 JUMP JUMPDEST JUMPDEST PUSH2 0x105E DUP3 SLOAD PUSH2 0xE65 JUMP JUMPDEST PUSH2 0x1069 DUP3 DUP3 DUP6 PUSH2 0xFA9 JUMP JUMPDEST PUSH0 PUSH1 0x20 SWAP1 POP PUSH1 0x1F DUP4 GT PUSH1 0x1 DUP2 EQ PUSH2 0x109A JUMPI PUSH0 DUP5 ISZERO PUSH2 0x1088 JUMPI DUP3 DUP8 ADD MLOAD SWAP1 POP JUMPDEST PUSH2 0x1092 DUP6 DUP3 PUSH2 0x1017 JUMP JUMPDEST DUP7 SSTORE POP PUSH2 0x10F9 JUMP JUMPDEST PUSH1 0x1F NOT DUP5 AND PUSH2 0x10A8 DUP7 PUSH2 0xE95 JUMP JUMPDEST PUSH0 JUMPDEST DUP3 DUP2 LT ISZERO PUSH2 0x10CF JUMPI DUP5 DUP10 ADD MLOAD DUP3 SSTORE PUSH1 0x1 DUP3 ADD SWAP2 POP PUSH1 0x20 DUP6 ADD SWAP5 POP PUSH1 0x20 DUP2 ADD SWAP1 POP PUSH2 0x10AA JUMP JUMPDEST DUP7 DUP4 LT ISZERO PUSH2 0x10EC JUMPI DUP5 DUP10 ADD MLOAD PUSH2 0x10E8 PUSH1 0x1F DUP10 AND DUP3 PUSH2 0xFFB JUMP JUMPDEST DUP4 SSTORE POP JUMPDEST PUSH1 0x1 PUSH1 0x2 DUP9 MUL ADD DUP9 SSTORE POP POP POP JUMPDEST POP POP POP POP POP POP JUMP JUMPDEST PUSH32 0x4E487B7100000000000000000000000000000000000000000000000000000000 PUSH0 MSTORE PUSH1 0x32 PUSH1 0x4 MSTORE PUSH1 0x24 PUSH0 REVERT JUMPDEST PUSH32 0x2800000000000000000000000000000000000000000000000000000000000000 PUSH0 DUP3 ADD MSTORE POP JUMP JUMPDEST PUSH0 PUSH2 0x1162 PUSH1 0x1 DUP4 PUSH2 0xD94 JUMP JUMPDEST SWAP2 POP PUSH2 0x116D DUP3 PUSH2 0x112E JUMP JUMPDEST PUSH1 0x1 DUP3 ADD SWAP1 POP SWAP2 SWAP1 POP JUMP JUMPDEST PUSH0 DUP2 SLOAD PUSH2 0x1184 DUP2 PUSH2 0xE65 JUMP JUMPDEST PUSH2 0x118E DUP2 DUP7 PUSH2 0xD94 JUMP JUMPDEST SWAP5 POP PUSH1 0x1 DUP3 AND PUSH0 DUP2 EQ PUSH2 0x11A8 JUMPI PUSH1 0x1 DUP2 EQ PUSH2 0x11BD JUMPI PUSH2 0x11EF JUMP JUMPDEST PUSH1 0xFF NOT DUP4 AND DUP7 MSTORE DUP2 ISZERO ISZERO DUP3 MUL DUP7 ADD SWAP4 POP PUSH2 0x11EF JUMP JUMPDEST PUSH2 0x11C6 DUP6 PUSH2 0xE95 JUMP JUMPDEST PUSH0 JUMPDEST DUP4 DUP2 LT ISZERO PUSH2 0x11E7 JUMPI DUP2 SLOAD DUP2 DUP10 ADD MSTORE PUSH1 0x1 DUP3 ADD SWAP2 POP PUSH1 0x20 DUP2 ADD SWAP1 POP PUSH2 0x11C8 JUMP JUMPDEST DUP4 DUP9 ADD SWAP6 POP POP POP JUMPDEST POP POP POP SWAP3 SWAP2 POP POP JUMP JUMPDEST PUSH32 0x2C20000000000000000000000000000000000000000000000000000000000000 PUSH0 DUP3 ADD MSTORE POP JUMP JUMPDEST PUSH0 PUSH2 0x122C PUSH1 0x2 DUP4 PUSH2 0xD94 JUMP JUMPDEST SWAP2 POP PUSH2 0x1237 DUP3 PUSH2 0x11F8 JUMP JUMPDEST PUSH1 0x2 DUP3 ADD SWAP1 POP SWAP2 SWAP1 POP JUMP JUMPDEST PUSH32 0x29202D2D2D2D2D2D2D2D00000000000000000000000000000000000000000000 PUSH0 DUP3 ADD MSTORE POP JUMP JUMPDEST PUSH0 PUSH2 0x1276 PUSH1 0xA DUP4 PUSH2 0xD94 JUMP JUMPDEST SWAP2 POP PUSH2 0x1281 DUP3 PUSH2 0x1242 JUMP JUMPDEST PUSH1 0xA DUP3 ADD SWAP1 POP SWAP2 SWAP1 POP JUMP JUMPDEST PUSH0 PUSH2 0x1297 DUP3 DUP7 PUSH2 0xD9E JUMP JUMPDEST SWAP2 POP PUSH2 0x12A2 DUP3 PUSH2 0x1156 JUMP JUMPDEST SWAP2 POP PUSH2 0x12AE DUP3 DUP6 PUSH2 0x1178 JUMP JUMPDEST SWAP2 POP PUSH2 0x12B9 DUP3 PUSH2 0x1220 JUMP JUMPDEST SWAP2 POP PUSH2 0x12C5 DUP3 DUP5 PUSH2 0xD9E JUMP JUMPDEST SWAP2 POP PUSH2 0x12D0 DUP3 PUSH2 0x126A JUMP JUMPDEST SWAP2 POP DUP2 SWAP1 POP SWAP5 SWAP4 POP POP POP POP JUMP JUMPDEST PUSH0 PUSH2 0x12E8 DUP3 DUP5 PUSH2 0x1178 JUMP JUMPDEST SWAP2 POP DUP2 SWAP1 POP SWAP3 SWAP2 POP POP JUMP JUMPDEST PUSH0 PUSH20 0xFFFFFFFFFFFFFFFFFFFFFFFFFFFFFFFFFFFFFFFF DUP3 AND SWAP1 POP SWAP2 SWAP1 POP JUMP JUMPDEST PUSH0 PUSH2 0x131C DUP3 PUSH2 0x12F3 JUMP JUMPDEST SWAP1 POP SWAP2 SWAP1 POP JUMP JUMPDEST PUSH0 DUP2 PUSH1 0x60 SHL SWAP1 POP SWAP2 SWAP1 POP JUMP JUMPDEST PUSH0 PUSH2 0x1339 DUP3 PUSH2 0x1323 JUMP JUMPDEST SWAP1 POP SWAP2 SWAP1 POP JUMP JUMPDEST PUSH0 PUSH2 0x134A DUP3 PUSH2 0x132F JUMP JUMPDEST SWAP1 POP SWAP2 SWAP1 POP JUMP JUMPDEST PUSH2 0x1362 PUSH2 0x135D DUP3 PUSH2 0x1312 JUMP JUMPDEST PUSH2 0x1340 JUMP JUMPDEST DUP3 MSTORE POP POP JUMP JUMPDEST PUSH0 PUSH2 0x1373 DUP3 DUP5 PUSH2 0x1351 JUMP JUMPDEST PUSH1 0x14 DUP3 ADD SWAP2 POP DUP2 SWAP1 POP SWAP3 SWAP2 POP POP JUMP JUMPDEST PUSH32 0x59612068617320766F7461646F207072657669616D656E746500000000000000 PUSH0 DUP3 ADD MSTORE POP JUMP JUMPDEST PUSH0 PUSH2 0x13B6 PUSH1 0x19 DUP4 PUSH2 0xB72 JUMP JUMPDEST SWAP2 POP PUSH2 0x13C1 DUP3 PUSH2 0x1382 JUMP JUMPDEST PUSH1 0x20 DUP3 ADD SWAP1 POP SWAP2 SWAP1 POP JUMP JUMPDEST PUSH0 PUSH1 0x20 DUP3 ADD SWAP1 POP DUP2 DUP2 SUB PUSH0 DUP4 ADD MSTORE PUSH2 0x13E3 DUP2 PUSH2 0x13AA JUMP JUMPDEST SWAP1 POP SWAP2 SWAP1 POP JUMP JUMPDEST PUSH32 0x4E487B7100000000000000000000000000000000000000000000000000000000 PUSH0 MSTORE PUSH1 0x11 PUSH1 0x4 MSTORE PUSH1 0x24 PUSH0 REVERT JUMPDEST PUSH0 PUSH2 0x1421 DUP3 PUSH2 0xAAD JUMP JUMPDEST SWAP2 POP PUSH32 0xFFFFFFFFFFFFFFFFFFFFFFFFFFFFFFFFFFFFFFFFFFFFFFFFFFFFFFFFFFFFFFFF DUP3 SUB PUSH2 0x1453 JUMPI PUSH2 0x1452 PUSH2 0x13EA JUMP JUMPDEST JUMPDEST PUSH1 0x1 DUP3 ADD SWAP1 POP SWAP2 SWAP1 POP JUMP JUMPDEST PUSH32 0x4E487B7100000000000000000000000000000000000000000000000000000000 PUSH0 MSTORE PUSH1 0x12 PUSH1 0x4 MSTORE PUSH1 0x24 PUSH0 REVERT INVALID BASEFEE PUSH2 0x7920 PUSH22 0x6E20656D7061746520656E747265206C6F732063616E PUSH5 0x696461746F PUSH20 0x2EA26469706673582212206F5BA4A7CB9CABA4D9 0xF7 MULMOD 0xDF 0xC5 PUSH15 0x9D63906402B254CF53C6FCE0EA1B1F 0xDD 0xB9 DUP11 PUSH5 0x736F6C6343 STOP ADDMOD AND STOP CALLER "
				},
				"gasEstimates": {
					"creation": {
						"codeDepositCost": "1069600",
						"executionCost": "25377",
						"totalCost": "1094977"
					},
					"external": {
						"ganador()": "infinite",
						"representar(string,uint256,string)": "infinite",
						"verCandidatos()": "infinite",
						"verResultados()": "infinite",
						"verVotos(string)": "infinite",
						"votar(string)": "infinite"
					}
				},
				"methodIdentifiers": {
					"ganador()": "9114bde8",
					"representar(string,uint256,string)": "2e9452bc",
					"verCandidatos()": "caaa49a6",
					"verResultados()": "58c6414f",
					"verVotos(string)": "60df75d4",
					"votar(string)": "ce3fe641"
				}
			},
			"storageLayout": {
				"storage": [
					{
						"astId": 1418,
						"contract": "VOTACIONES/Votaciones.sol:Votacion",
						"label": "owner",
						"offset": 0,
						"slot": "0",
						"type": "t_address"
					},
					{
						"astId": 1422,
						"contract": "VOTACIONES/Votaciones.sol:Votacion",
						"label": "idCandidato",
						"offset": 0,
						"slot": "1",
						"type": "t_mapping(t_string_memory_ptr,t_bytes32)"
					},
					{
						"astId": 1426,
						"contract": "VOTACIONES/Votaciones.sol:Votacion",
						"label": "votosCandidato",
						"offset": 0,
						"slot": "2",
						"type": "t_mapping(t_string_memory_ptr,t_uint256)"
					},
					{
						"astId": 1429,
						"contract": "VOTACIONES/Votaciones.sol:Votacion",
						"label": "candidatos",
						"offset": 0,
						"slot": "3",
						"type": "t_array(t_string_storage)dyn_storage"
					},
					{
						"astId": 1432,
						"contract": "VOTACIONES/Votaciones.sol:Votacion",
						"label": "votantes",
						"offset": 0,
						"slot": "4",
						"type": "t_array(t_bytes32)dyn_storage"
					}
				],
				"types": {
					"t_address": {
						"encoding": "inplace",
						"label": "address",
						"numberOfBytes": "20"
					},
					"t_array(t_bytes32)dyn_storage": {
						"base": "t_bytes32",
						"encoding": "dynamic_array",
						"label": "bytes32[]",
						"numberOfBytes": "32"
					},
					"t_array(t_string_storage)dyn_storage": {
						"base": "t_string_storage",
						"encoding": "dynamic_array",
						"label": "string[]",
						"numberOfBytes": "32"
					},
					"t_bytes32": {
						"encoding": "inplace",
						"label": "bytes32",
						"numberOfBytes": "32"
					},
					"t_mapping(t_string_memory_ptr,t_bytes32)": {
						"encoding": "mapping",
						"key": "t_string_memory_ptr",
						"label": "mapping(string => bytes32)",
						"numberOfBytes": "32",
						"value": "t_bytes32"
					},
					"t_mapping(t_string_memory_ptr,t_uint256)": {
						"encoding": "mapping",
						"key": "t_string_memory_ptr",
						"label": "mapping(string => uint256)",
						"numberOfBytes": "32",
						"value": "t_uint256"
					},
					"t_string_memory_ptr": {
						"encoding": "bytes",
						"label": "string",
						"numberOfBytes": "32"
					},
					"t_string_storage": {
						"encoding": "bytes",
						"label": "string",
						"numberOfBytes": "32"
					},
					"t_uint256": {
						"encoding": "inplace",
						"label": "uint256",
						"numberOfBytes": "32"
					}
				}
			},
			"userdoc": {
				"kind": "user",
				"methods": {},
				"version": 1
			}
		}
	}
}