{
	"VOTACIONES/Votaciones.sol": {
		"Votacion": {
			"abi": [
				{
					"inputs": [],
					"stateMutability": "nonpayable",
					"type": "constructor"
				},
				{
					"inputs": [
						{
							"internalType": "string",
							"name": "_nombre",
							"type": "string"
						},
						{
							"internalType": "uint256",
							"name": "_edad",
							"type": "uint256"
						},
						{
							"internalType": "string",
							"name": "_id",
							"type": "string"
						}
					],
					"name": "representar",
					"outputs": [],
					"stateMutability": "nonpayable",
					"type": "function"
				},
				{
					"inputs": [],
					"name": "verCandidatos",
					"outputs": [
						{
							"internalType": "string[]",
							"name": "",
							"type": "string[]"
						}
					],
					"stateMutability": "view",
					"type": "function"
				},
				{
					"inputs": [
						{
							"internalType": "string",
							"name": "_nombre",
							"type": "string"
						}
					],
					"name": "verVotos",
					"outputs": [
						{
							"internalType": "uint256",
							"name": "",
							"type": "uint256"
						}
					],
					"stateMutability": "view",
					"type": "function"
				},
				{
					"inputs": [
						{
							"internalType": "string",
							"name": "_candidato",
							"type": "string"
						}
					],
					"name": "votar",
					"outputs": [],
					"stateMutability": "nonpayable",
					"type": "function"
				}
			],
			"devdoc": {
				"kind": "dev",
				"methods": {},
				"version": 1
			},
			"evm": {
				"assembly": "    /* \"VOTACIONES/Votaciones.sol\":324:2563  contract Votacion {... */\n  mstore(0x40, 0x80)\n    /* \"VOTACIONES/Votaciones.sol\":864:913  constructor() {... */\n  callvalue\n  dup1\n  iszero\n  tag_1\n  jumpi\n  0x00\n  dup1\n  revert\ntag_1:\n  pop\n    /* \"VOTACIONES/Votaciones.sol\":896:906  msg.sender */\n  caller\n    /* \"VOTACIONES/Votaciones.sol\":888:893  owner */\n  0x00\n  dup1\n    /* \"VOTACIONES/Votaciones.sol\":888:906  owner = msg.sender */\n  0x0100\n  exp\n  dup2\n  sload\n  dup2\n  0xffffffffffffffffffffffffffffffffffffffff\n  mul\n  not\n  and\n  swap1\n  dup4\n  0xffffffffffffffffffffffffffffffffffffffff\n  and\n  mul\n  or\n  swap1\n  sstore\n  pop\n    /* \"VOTACIONES/Votaciones.sol\":324:2563  contract Votacion {... */\n  dataSize(sub_0)\n  dup1\n  dataOffset(sub_0)\n  0x00\n  codecopy\n  0x00\n  return\nstop\n\nsub_0: assembly {\n        /* \"VOTACIONES/Votaciones.sol\":324:2563  contract Votacion {... */\n      mstore(0x40, 0x80)\n      callvalue\n      dup1\n      iszero\n      tag_1\n      jumpi\n      0x00\n      dup1\n      revert\n    tag_1:\n      pop\n      jumpi(tag_2, lt(calldatasize, 0x04))\n      shr(0xe0, calldataload(0x00))\n      dup1\n      0x2e9452bc\n      eq\n      tag_3\n      jumpi\n      dup1\n      0x60df75d4\n      eq\n      tag_4\n      jumpi\n      dup1\n      0xcaaa49a6\n      eq\n      tag_5\n      jumpi\n      dup1\n      0xce3fe641\n      eq\n      tag_6\n      jumpi\n    tag_2:\n      0x00\n      dup1\n      revert\n        /* \"VOTACIONES/Votaciones.sol\":1002:1472  function representar(... */\n    tag_3:\n      tag_7\n      0x04\n      dup1\n      calldatasize\n      sub\n      dup2\n      add\n      swap1\n      tag_8\n      swap2\n      swap1\n      tag_9\n      jump\t// in\n    tag_8:\n      tag_10\n      jump\t// in\n    tag_7:\n      stop\n        /* \"VOTACIONES/Votaciones.sol\":2443:2561  function verVotos(string memory _nombre) public view returns (uint256) {... */\n    tag_4:\n      tag_11\n      0x04\n      dup1\n      calldatasize\n      sub\n      dup2\n      add\n      swap1\n      tag_12\n      swap2\n      swap1\n      tag_13\n      jump\t// in\n    tag_12:\n      tag_14\n      jump\t// in\n    tag_11:\n      mload(0x40)\n      tag_15\n      swap2\n      swap1\n      tag_16\n      jump\t// in\n    tag_15:\n      mload(0x40)\n      dup1\n      swap2\n      sub\n      swap1\n      return\n        /* \"VOTACIONES/Votaciones.sol\":1572:1728  function verCandidatos() public view returns (string[] memory) {... */\n    tag_5:\n      tag_17\n      tag_18\n      jump\t// in\n    tag_17:\n      mload(0x40)\n      tag_19\n      swap2\n      swap1\n      tag_20\n      jump\t// in\n    tag_19:\n      mload(0x40)\n      dup1\n      swap2\n      sub\n      swap1\n      return\n        /* \"VOTACIONES/Votaciones.sol\":1772:2364  function votar(string memory _candidato) public {... */\n    tag_6:\n      tag_21\n      0x04\n      dup1\n      calldatasize\n      sub\n      dup2\n      add\n      swap1\n      tag_22\n      swap2\n      swap1\n      tag_13\n      jump\t// in\n    tag_22:\n      tag_23\n      jump\t// in\n    tag_21:\n      stop\n        /* \"VOTACIONES/Votaciones.sol\":1002:1472  function representar(... */\n    tag_10:\n        /* \"VOTACIONES/Votaciones.sol\":1170:1191  bytes32 hashCandidato */\n      0x00\n        /* \"VOTACIONES/Votaciones.sol\":1234:1241  _nombre */\n      dup4\n        /* \"VOTACIONES/Votaciones.sol\":1243:1248  _edad */\n      dup4\n        /* \"VOTACIONES/Votaciones.sol\":1250:1253  _id */\n      dup4\n        /* \"VOTACIONES/Votaciones.sol\":1217:1254  abi.encodePacked(_nombre, _edad, _id) */\n      add(0x20, mload(0x40))\n      tag_25\n      swap4\n      swap3\n      swap2\n      swap1\n      tag_26\n      jump\t// in\n    tag_25:\n      mload(0x40)\n      0x20\n      dup2\n      dup4\n      sub\n      sub\n      dup2\n      mstore\n      swap1\n      0x40\n      mstore\n        /* \"VOTACIONES/Votaciones.sol\":1194:1264  keccak256(... */\n      dup1\n      mload\n      swap1\n      0x20\n      add\n      keccak256\n        /* \"VOTACIONES/Votaciones.sol\":1170:1264  bytes32 hashCandidato = keccak256(... */\n      swap1\n      pop\n        /* \"VOTACIONES/Votaciones.sol\":1373:1386  hashCandidato */\n      dup1\n        /* \"VOTACIONES/Votaciones.sol\":1350:1361  idCandidato */\n      0x01\n        /* \"VOTACIONES/Votaciones.sol\":1362:1369  _nombre */\n      dup6\n        /* \"VOTACIONES/Votaciones.sol\":1350:1370  idCandidato[_nombre] */\n      mload(0x40)\n      tag_27\n      swap2\n      swap1\n      tag_28\n      jump\t// in\n    tag_27:\n      swap1\n      dup2\n      mstore\n      0x20\n      add\n      mload(0x40)\n      dup1\n      swap2\n      sub\n      swap1\n      keccak256\n        /* \"VOTACIONES/Votaciones.sol\":1350:1386  idCandidato[_nombre] = hashCandidato */\n      dup2\n      swap1\n      sstore\n      pop\n        /* \"VOTACIONES/Votaciones.sol\":1441:1451  candidatos */\n      0x03\n        /* \"VOTACIONES/Votaciones.sol\":1457:1464  _nombre */\n      dup5\n        /* \"VOTACIONES/Votaciones.sol\":1441:1465  candidatos.push(_nombre) */\n      swap1\n      dup1\n      0x01\n      dup2\n      sload\n      add\n      dup1\n      dup3\n      sstore\n      dup1\n      swap2\n      pop\n      pop\n      0x01\n      swap1\n      sub\n      swap1\n      0x00\n      mstore\n      keccak256(0x00, 0x20)\n      add\n      0x00\n      swap1\n      swap2\n      swap1\n      swap2\n      swap1\n      swap2\n      pop\n      swap1\n      dup2\n      tag_30\n      swap2\n      swap1\n      tag_31\n      jump\t// in\n    tag_30:\n      pop\n        /* \"VOTACIONES/Votaciones.sol\":1117:1472  {... */\n      pop\n        /* \"VOTACIONES/Votaciones.sol\":1002:1472  function representar(... */\n      pop\n      pop\n      pop\n      jump\t// out\n        /* \"VOTACIONES/Votaciones.sol\":2443:2561  function verVotos(string memory _nombre) public view returns (uint256) {... */\n    tag_14:\n        /* \"VOTACIONES/Votaciones.sol\":2505:2512  uint256 */\n      0x00\n        /* \"VOTACIONES/Votaciones.sol\":2531:2545  votosCandidato */\n      0x02\n        /* \"VOTACIONES/Votaciones.sol\":2546:2553  _nombre */\n      dup3\n        /* \"VOTACIONES/Votaciones.sol\":2531:2554  votosCandidato[_nombre] */\n      mload(0x40)\n      tag_33\n      swap2\n      swap1\n      tag_28\n      jump\t// in\n    tag_33:\n      swap1\n      dup2\n      mstore\n      0x20\n      add\n      mload(0x40)\n      dup1\n      swap2\n      sub\n      swap1\n      keccak256\n      sload\n        /* \"VOTACIONES/Votaciones.sol\":2524:2554  return votosCandidato[_nombre] */\n      swap1\n      pop\n        /* \"VOTACIONES/Votaciones.sol\":2443:2561  function verVotos(string memory _nombre) public view returns (uint256) {... */\n      swap2\n      swap1\n      pop\n      jump\t// out\n        /* \"VOTACIONES/Votaciones.sol\":1572:1728  function verCandidatos() public view returns (string[] memory) {... */\n    tag_18:\n        /* \"VOTACIONES/Votaciones.sol\":1618:1633  string[] memory */\n      0x60\n        /* \"VOTACIONES/Votaciones.sol\":1711:1721  candidatos */\n      0x03\n        /* \"VOTACIONES/Votaciones.sol\":1704:1721  return candidatos */\n      dup1\n      sload\n      dup1\n      0x20\n      mul\n      0x20\n      add\n      mload(0x40)\n      swap1\n      dup2\n      add\n      0x40\n      mstore\n      dup1\n      swap3\n      swap2\n      swap1\n      dup2\n      dup2\n      mstore\n      0x20\n      add\n      0x00\n      swap1\n    tag_35:\n      dup3\n      dup3\n      lt\n      iszero\n      tag_36\n      jumpi\n      dup4\n      dup3\n      swap1\n      0x00\n      mstore\n      keccak256(0x00, 0x20)\n      add\n      dup1\n      sload\n      tag_38\n      swap1\n      tag_39\n      jump\t// in\n    tag_38:\n      dup1\n      0x1f\n      add\n      0x20\n      dup1\n      swap2\n      div\n      mul\n      0x20\n      add\n      mload(0x40)\n      swap1\n      dup2\n      add\n      0x40\n      mstore\n      dup1\n      swap3\n      swap2\n      swap1\n      dup2\n      dup2\n      mstore\n      0x20\n      add\n      dup3\n      dup1\n      sload\n      tag_40\n      swap1\n      tag_39\n      jump\t// in\n    tag_40:\n      dup1\n      iszero\n      tag_41\n      jumpi\n      dup1\n      0x1f\n      lt\n      tag_42\n      jumpi\n      0x0100\n      dup1\n      dup4\n      sload\n      div\n      mul\n      dup4\n      mstore\n      swap2\n      0x20\n      add\n      swap2\n      jump(tag_41)\n    tag_42:\n      dup3\n      add\n      swap2\n      swap1\n      0x00\n      mstore\n      keccak256(0x00, 0x20)\n      swap1\n    tag_43:\n      dup2\n      sload\n      dup2\n      mstore\n      swap1\n      0x01\n      add\n      swap1\n      0x20\n      add\n      dup1\n      dup4\n      gt\n      tag_43\n      jumpi\n      dup3\n      swap1\n      sub\n      0x1f\n      and\n      dup3\n      add\n      swap2\n    tag_41:\n      pop\n      pop\n      pop\n      pop\n      pop\n      dup2\n      mstore\n      0x20\n      add\n      swap1\n      0x01\n      add\n      swap1\n      jump(tag_35)\n    tag_36:\n      pop\n      pop\n      pop\n      pop\n      swap1\n      pop\n        /* \"VOTACIONES/Votaciones.sol\":1572:1728  function verCandidatos() public view returns (string[] memory) {... */\n      swap1\n      jump\t// out\n        /* \"VOTACIONES/Votaciones.sol\":1772:2364  function votar(string memory _candidato) public {... */\n    tag_23:\n        /* \"VOTACIONES/Votaciones.sol\":1901:1920  bytes32 hashVotante */\n      0x00\n        /* \"VOTACIONES/Votaciones.sol\":1950:1960  msg.sender */\n      caller\n        /* \"VOTACIONES/Votaciones.sol\":1933:1961  abi.encodePacked(msg.sender) */\n      add(0x20, mload(0x40))\n      tag_45\n      swap2\n      swap1\n      tag_46\n      jump\t// in\n    tag_45:\n      mload(0x40)\n      0x20\n      dup2\n      dup4\n      sub\n      sub\n      dup2\n      mstore\n      swap1\n      0x40\n      mstore\n        /* \"VOTACIONES/Votaciones.sol\":1923:1962  keccak256(abi.encodePacked(msg.sender)) */\n      dup1\n      mload\n      swap1\n      0x20\n      add\n      keccak256\n        /* \"VOTACIONES/Votaciones.sol\":1901:1962  bytes32 hashVotante = keccak256(abi.encodePacked(msg.sender)) */\n      swap1\n      pop\n        /* \"VOTACIONES/Votaciones.sol\":2026:2035  uint256 i */\n      0x00\n        /* \"VOTACIONES/Votaciones.sol\":2021:2156  for (uint256 i = 0; i < votantes.length; i++) {... */\n    tag_47:\n        /* \"VOTACIONES/Votaciones.sol\":2045:2053  votantes */\n      0x04\n        /* \"VOTACIONES/Votaciones.sol\":2045:2060  votantes.length */\n      dup1\n      sload\n      swap1\n      pop\n        /* \"VOTACIONES/Votaciones.sol\":2041:2042  i */\n      dup2\n        /* \"VOTACIONES/Votaciones.sol\":2041:2060  i < votantes.length */\n      lt\n        /* \"VOTACIONES/Votaciones.sol\":2021:2156  for (uint256 i = 0; i < votantes.length; i++) {... */\n      iszero\n      tag_48\n      jumpi\n        /* \"VOTACIONES/Votaciones.sol\":2104:2115  hashVotante */\n      dup2\n        /* \"VOTACIONES/Votaciones.sol\":2089:2097  votantes */\n      0x04\n        /* \"VOTACIONES/Votaciones.sol\":2098:2099  i */\n      dup3\n        /* \"VOTACIONES/Votaciones.sol\":2089:2100  votantes[i] */\n      dup2\n      sload\n      dup2\n      lt\n      tag_50\n      jumpi\n      tag_51\n      tag_52\n      jump\t// in\n    tag_51:\n    tag_50:\n      swap1\n      0x00\n      mstore\n      keccak256(0x00, 0x20)\n      add\n      sload\n        /* \"VOTACIONES/Votaciones.sol\":2089:2115  votantes[i] != hashVotante */\n      sub\n        /* \"VOTACIONES/Votaciones.sol\":2081:2145  require(votantes[i] != hashVotante, \"Ya has votado previamente\") */\n      tag_54\n      jumpi\n      mload(0x40)\n      0x08c379a000000000000000000000000000000000000000000000000000000000\n      dup2\n      mstore\n      0x04\n      add\n      tag_55\n      swap1\n      tag_56\n      jump\t// in\n    tag_55:\n      mload(0x40)\n      dup1\n      swap2\n      sub\n      swap1\n      revert\n    tag_54:\n        /* \"VOTACIONES/Votaciones.sol\":2062:2065  i++ */\n      dup1\n      dup1\n      0x01\n      add\n      swap2\n      pop\n      pop\n        /* \"VOTACIONES/Votaciones.sol\":2021:2156  for (uint256 i = 0; i < votantes.length; i++) {... */\n      jump(tag_47)\n    tag_48:\n      pop\n        /* \"VOTACIONES/Votaciones.sol\":2238:2246  votantes */\n      0x04\n        /* \"VOTACIONES/Votaciones.sol\":2252:2263  hashVotante */\n      dup2\n        /* \"VOTACIONES/Votaciones.sol\":2238:2264  votantes.push(hashVotante) */\n      swap1\n      dup1\n      0x01\n      dup2\n      sload\n      add\n      dup1\n      dup3\n      sstore\n      dup1\n      swap2\n      pop\n      pop\n      0x01\n      swap1\n      sub\n      swap1\n      0x00\n      mstore\n      keccak256(0x00, 0x20)\n      add\n      0x00\n      swap1\n      swap2\n      swap1\n      swap2\n      swap1\n      swap2\n      pop\n      sstore\n        /* \"VOTACIONES/Votaciones.sol\":2329:2343  votosCandidato */\n      0x02\n        /* \"VOTACIONES/Votaciones.sol\":2344:2354  _candidato */\n      dup3\n        /* \"VOTACIONES/Votaciones.sol\":2329:2355  votosCandidato[_candidato] */\n      mload(0x40)\n      tag_58\n      swap2\n      swap1\n      tag_28\n      jump\t// in\n    tag_58:\n      swap1\n      dup2\n      mstore\n      0x20\n      add\n      mload(0x40)\n      dup1\n      swap2\n      sub\n      swap1\n      keccak256\n      0x00\n        /* \"VOTACIONES/Votaciones.sol\":2329:2357  votosCandidato[_candidato]++ */\n      dup2\n      sload\n      dup1\n      swap3\n      swap2\n      swap1\n      tag_59\n      swap1\n      tag_60\n      jump\t// in\n    tag_59:\n      swap2\n      swap1\n      pop\n      sstore\n      pop\n        /* \"VOTACIONES/Votaciones.sol\":1820:2364  {... */\n      pop\n        /* \"VOTACIONES/Votaciones.sol\":1772:2364  function votar(string memory _candidato) public {... */\n      pop\n      jump\t// out\n        /* \"#utility.yul\":7:82   */\n    tag_61:\n        /* \"#utility.yul\":40:46   */\n      0x00\n        /* \"#utility.yul\":73:75   */\n      0x40\n        /* \"#utility.yul\":67:76   */\n      mload\n        /* \"#utility.yul\":57:76   */\n      swap1\n      pop\n        /* \"#utility.yul\":7:82   */\n      swap1\n      jump\t// out\n        /* \"#utility.yul\":88:205   */\n    tag_62:\n        /* \"#utility.yul\":197:198   */\n      0x00\n        /* \"#utility.yul\":194:195   */\n      dup1\n        /* \"#utility.yul\":187:199   */\n      revert\n        /* \"#utility.yul\":211:328   */\n    tag_63:\n        /* \"#utility.yul\":320:321   */\n      0x00\n        /* \"#utility.yul\":317:318   */\n      dup1\n        /* \"#utility.yul\":310:322   */\n      revert\n        /* \"#utility.yul\":334:451   */\n    tag_64:\n        /* \"#utility.yul\":443:444   */\n      0x00\n        /* \"#utility.yul\":440:441   */\n      dup1\n        /* \"#utility.yul\":433:445   */\n      revert\n        /* \"#utility.yul\":457:574   */\n    tag_65:\n        /* \"#utility.yul\":566:567   */\n      0x00\n        /* \"#utility.yul\":563:564   */\n      dup1\n        /* \"#utility.yul\":556:568   */\n      revert\n        /* \"#utility.yul\":580:682   */\n    tag_66:\n        /* \"#utility.yul\":621:627   */\n      0x00\n        /* \"#utility.yul\":672:674   */\n      0x1f\n        /* \"#utility.yul\":668:675   */\n      not\n        /* \"#utility.yul\":663:665   */\n      0x1f\n        /* \"#utility.yul\":656:661   */\n      dup4\n        /* \"#utility.yul\":652:666   */\n      add\n        /* \"#utility.yul\":648:676   */\n      and\n        /* \"#utility.yul\":638:676   */\n      swap1\n      pop\n        /* \"#utility.yul\":580:682   */\n      swap2\n      swap1\n      pop\n      jump\t// out\n        /* \"#utility.yul\":688:868   */\n    tag_67:\n        /* \"#utility.yul\":736:813   */\n      0x4e487b7100000000000000000000000000000000000000000000000000000000\n        /* \"#utility.yul\":733:734   */\n      0x00\n        /* \"#utility.yul\":726:814   */\n      mstore\n        /* \"#utility.yul\":833:837   */\n      0x41\n        /* \"#utility.yul\":830:831   */\n      0x04\n        /* \"#utility.yul\":823:838   */\n      mstore\n        /* \"#utility.yul\":857:861   */\n      0x24\n        /* \"#utility.yul\":854:855   */\n      0x00\n        /* \"#utility.yul\":847:862   */\n      revert\n        /* \"#utility.yul\":874:1155   */\n    tag_68:\n        /* \"#utility.yul\":957:984   */\n      tag_127\n        /* \"#utility.yul\":979:983   */\n      dup3\n        /* \"#utility.yul\":957:984   */\n      tag_66\n      jump\t// in\n    tag_127:\n        /* \"#utility.yul\":949:955   */\n      dup2\n        /* \"#utility.yul\":945:985   */\n      add\n        /* \"#utility.yul\":1087:1093   */\n      dup2\n        /* \"#utility.yul\":1075:1085   */\n      dup2\n        /* \"#utility.yul\":1072:1094   */\n      lt\n        /* \"#utility.yul\":1051:1069   */\n      0xffffffffffffffff\n        /* \"#utility.yul\":1039:1049   */\n      dup3\n        /* \"#utility.yul\":1036:1070   */\n      gt\n        /* \"#utility.yul\":1033:1095   */\n      or\n        /* \"#utility.yul\":1030:1118   */\n      iszero\n      tag_128\n      jumpi\n        /* \"#utility.yul\":1098:1116   */\n      tag_129\n      tag_67\n      jump\t// in\n    tag_129:\n        /* \"#utility.yul\":1030:1118   */\n    tag_128:\n        /* \"#utility.yul\":1138:1148   */\n      dup1\n        /* \"#utility.yul\":1134:1136   */\n      0x40\n        /* \"#utility.yul\":1127:1149   */\n      mstore\n        /* \"#utility.yul\":917:1155   */\n      pop\n        /* \"#utility.yul\":874:1155   */\n      pop\n      pop\n      jump\t// out\n        /* \"#utility.yul\":1161:1290   */\n    tag_69:\n        /* \"#utility.yul\":1195:1201   */\n      0x00\n        /* \"#utility.yul\":1222:1242   */\n      tag_131\n      tag_61\n      jump\t// in\n    tag_131:\n        /* \"#utility.yul\":1212:1242   */\n      swap1\n      pop\n        /* \"#utility.yul\":1251:1284   */\n      tag_132\n        /* \"#utility.yul\":1279:1283   */\n      dup3\n        /* \"#utility.yul\":1271:1277   */\n      dup3\n        /* \"#utility.yul\":1251:1284   */\n      tag_68\n      jump\t// in\n    tag_132:\n        /* \"#utility.yul\":1161:1290   */\n      swap2\n      swap1\n      pop\n      jump\t// out\n        /* \"#utility.yul\":1296:1604   */\n    tag_70:\n        /* \"#utility.yul\":1358:1362   */\n      0x00\n        /* \"#utility.yul\":1448:1466   */\n      0xffffffffffffffff\n        /* \"#utility.yul\":1440:1446   */\n      dup3\n        /* \"#utility.yul\":1437:1467   */\n      gt\n        /* \"#utility.yul\":1434:1490   */\n      iszero\n      tag_134\n      jumpi\n        /* \"#utility.yul\":1470:1488   */\n      tag_135\n      tag_67\n      jump\t// in\n    tag_135:\n        /* \"#utility.yul\":1434:1490   */\n    tag_134:\n        /* \"#utility.yul\":1508:1537   */\n      tag_136\n        /* \"#utility.yul\":1530:1536   */\n      dup3\n        /* \"#utility.yul\":1508:1537   */\n      tag_66\n      jump\t// in\n    tag_136:\n        /* \"#utility.yul\":1500:1537   */\n      swap1\n      pop\n        /* \"#utility.yul\":1592:1596   */\n      0x20\n        /* \"#utility.yul\":1586:1590   */\n      dup2\n        /* \"#utility.yul\":1582:1597   */\n      add\n        /* \"#utility.yul\":1574:1597   */\n      swap1\n      pop\n        /* \"#utility.yul\":1296:1604   */\n      swap2\n      swap1\n      pop\n      jump\t// out\n        /* \"#utility.yul\":1610:1756   */\n    tag_71:\n        /* \"#utility.yul\":1707:1713   */\n      dup3\n        /* \"#utility.yul\":1702:1705   */\n      dup2\n        /* \"#utility.yul\":1697:1700   */\n      dup4\n        /* \"#utility.yul\":1684:1714   */\n      calldatacopy\n        /* \"#utility.yul\":1748:1749   */\n      0x00\n        /* \"#utility.yul\":1739:1745   */\n      dup4\n        /* \"#utility.yul\":1734:1737   */\n      dup4\n        /* \"#utility.yul\":1730:1746   */\n      add\n        /* \"#utility.yul\":1723:1750   */\n      mstore\n        /* \"#utility.yul\":1610:1756   */\n      pop\n      pop\n      pop\n      jump\t// out\n        /* \"#utility.yul\":1762:2187   */\n    tag_72:\n        /* \"#utility.yul\":1840:1845   */\n      0x00\n        /* \"#utility.yul\":1865:1931   */\n      tag_139\n        /* \"#utility.yul\":1881:1930   */\n      tag_140\n        /* \"#utility.yul\":1923:1929   */\n      dup5\n        /* \"#utility.yul\":1881:1930   */\n      tag_70\n      jump\t// in\n    tag_140:\n        /* \"#utility.yul\":1865:1931   */\n      tag_69\n      jump\t// in\n    tag_139:\n        /* \"#utility.yul\":1856:1931   */\n      swap1\n      pop\n        /* \"#utility.yul\":1954:1960   */\n      dup3\n        /* \"#utility.yul\":1947:1952   */\n      dup2\n        /* \"#utility.yul\":1940:1961   */\n      mstore\n        /* \"#utility.yul\":1992:1996   */\n      0x20\n        /* \"#utility.yul\":1985:1990   */\n      dup2\n        /* \"#utility.yul\":1981:1997   */\n      add\n        /* \"#utility.yul\":2030:2033   */\n      dup5\n        /* \"#utility.yul\":2021:2027   */\n      dup5\n        /* \"#utility.yul\":2016:2019   */\n      dup5\n        /* \"#utility.yul\":2012:2028   */\n      add\n        /* \"#utility.yul\":2009:2034   */\n      gt\n        /* \"#utility.yul\":2006:2118   */\n      iszero\n      tag_141\n      jumpi\n        /* \"#utility.yul\":2037:2116   */\n      tag_142\n      tag_65\n      jump\t// in\n    tag_142:\n        /* \"#utility.yul\":2006:2118   */\n    tag_141:\n        /* \"#utility.yul\":2127:2181   */\n      tag_143\n        /* \"#utility.yul\":2174:2180   */\n      dup5\n        /* \"#utility.yul\":2169:2172   */\n      dup3\n        /* \"#utility.yul\":2164:2167   */\n      dup6\n        /* \"#utility.yul\":2127:2181   */\n      tag_71\n      jump\t// in\n    tag_143:\n        /* \"#utility.yul\":1846:2187   */\n      pop\n        /* \"#utility.yul\":1762:2187   */\n      swap4\n      swap3\n      pop\n      pop\n      pop\n      jump\t// out\n        /* \"#utility.yul\":2207:2547   */\n    tag_73:\n        /* \"#utility.yul\":2263:2268   */\n      0x00\n        /* \"#utility.yul\":2312:2315   */\n      dup3\n        /* \"#utility.yul\":2305:2309   */\n      0x1f\n        /* \"#utility.yul\":2297:2303   */\n      dup4\n        /* \"#utility.yul\":2293:2310   */\n      add\n        /* \"#utility.yul\":2289:2316   */\n      slt\n        /* \"#utility.yul\":2279:2401   */\n      tag_145\n      jumpi\n        /* \"#utility.yul\":2320:2399   */\n      tag_146\n      tag_64\n      jump\t// in\n    tag_146:\n        /* \"#utility.yul\":2279:2401   */\n    tag_145:\n        /* \"#utility.yul\":2437:2443   */\n      dup2\n        /* \"#utility.yul\":2424:2444   */\n      calldataload\n        /* \"#utility.yul\":2462:2541   */\n      tag_147\n        /* \"#utility.yul\":2537:2540   */\n      dup5\n        /* \"#utility.yul\":2529:2535   */\n      dup3\n        /* \"#utility.yul\":2522:2526   */\n      0x20\n        /* \"#utility.yul\":2514:2520   */\n      dup7\n        /* \"#utility.yul\":2510:2527   */\n      add\n        /* \"#utility.yul\":2462:2541   */\n      tag_72\n      jump\t// in\n    tag_147:\n        /* \"#utility.yul\":2453:2541   */\n      swap2\n      pop\n        /* \"#utility.yul\":2269:2547   */\n      pop\n        /* \"#utility.yul\":2207:2547   */\n      swap3\n      swap2\n      pop\n      pop\n      jump\t// out\n        /* \"#utility.yul\":2553:2630   */\n    tag_74:\n        /* \"#utility.yul\":2590:2597   */\n      0x00\n        /* \"#utility.yul\":2619:2624   */\n      dup2\n        /* \"#utility.yul\":2608:2624   */\n      swap1\n      pop\n        /* \"#utility.yul\":2553:2630   */\n      swap2\n      swap1\n      pop\n      jump\t// out\n        /* \"#utility.yul\":2636:2758   */\n    tag_75:\n        /* \"#utility.yul\":2709:2733   */\n      tag_150\n        /* \"#utility.yul\":2727:2732   */\n      dup2\n        /* \"#utility.yul\":2709:2733   */\n      tag_74\n      jump\t// in\n    tag_150:\n        /* \"#utility.yul\":2702:2707   */\n      dup2\n        /* \"#utility.yul\":2699:2734   */\n      eq\n        /* \"#utility.yul\":2689:2752   */\n      tag_151\n      jumpi\n        /* \"#utility.yul\":2748:2749   */\n      0x00\n        /* \"#utility.yul\":2745:2746   */\n      dup1\n        /* \"#utility.yul\":2738:2750   */\n      revert\n        /* \"#utility.yul\":2689:2752   */\n    tag_151:\n        /* \"#utility.yul\":2636:2758   */\n      pop\n      jump\t// out\n        /* \"#utility.yul\":2764:2903   */\n    tag_76:\n        /* \"#utility.yul\":2810:2815   */\n      0x00\n        /* \"#utility.yul\":2848:2854   */\n      dup2\n        /* \"#utility.yul\":2835:2855   */\n      calldataload\n        /* \"#utility.yul\":2826:2855   */\n      swap1\n      pop\n        /* \"#utility.yul\":2864:2897   */\n      tag_153\n        /* \"#utility.yul\":2891:2896   */\n      dup2\n        /* \"#utility.yul\":2864:2897   */\n      tag_75\n      jump\t// in\n    tag_153:\n        /* \"#utility.yul\":2764:2903   */\n      swap3\n      swap2\n      pop\n      pop\n      jump\t// out\n        /* \"#utility.yul\":2909:3888   */\n    tag_9:\n        /* \"#utility.yul\":3006:3012   */\n      0x00\n        /* \"#utility.yul\":3014:3020   */\n      dup1\n        /* \"#utility.yul\":3022:3028   */\n      0x00\n        /* \"#utility.yul\":3071:3073   */\n      0x60\n        /* \"#utility.yul\":3059:3068   */\n      dup5\n        /* \"#utility.yul\":3050:3057   */\n      dup7\n        /* \"#utility.yul\":3046:3069   */\n      sub\n        /* \"#utility.yul\":3042:3074   */\n      slt\n        /* \"#utility.yul\":3039:3158   */\n      iszero\n      tag_155\n      jumpi\n        /* \"#utility.yul\":3077:3156   */\n      tag_156\n      tag_62\n      jump\t// in\n    tag_156:\n        /* \"#utility.yul\":3039:3158   */\n    tag_155:\n        /* \"#utility.yul\":3225:3226   */\n      0x00\n        /* \"#utility.yul\":3214:3223   */\n      dup5\n        /* \"#utility.yul\":3210:3227   */\n      add\n        /* \"#utility.yul\":3197:3228   */\n      calldataload\n        /* \"#utility.yul\":3255:3273   */\n      0xffffffffffffffff\n        /* \"#utility.yul\":3247:3253   */\n      dup2\n        /* \"#utility.yul\":3244:3274   */\n      gt\n        /* \"#utility.yul\":3241:3358   */\n      iszero\n      tag_157\n      jumpi\n        /* \"#utility.yul\":3277:3356   */\n      tag_158\n      tag_63\n      jump\t// in\n    tag_158:\n        /* \"#utility.yul\":3241:3358   */\n    tag_157:\n        /* \"#utility.yul\":3382:3445   */\n      tag_159\n        /* \"#utility.yul\":3437:3444   */\n      dup7\n        /* \"#utility.yul\":3428:3434   */\n      dup3\n        /* \"#utility.yul\":3417:3426   */\n      dup8\n        /* \"#utility.yul\":3413:3435   */\n      add\n        /* \"#utility.yul\":3382:3445   */\n      tag_73\n      jump\t// in\n    tag_159:\n        /* \"#utility.yul\":3372:3445   */\n      swap4\n      pop\n        /* \"#utility.yul\":3168:3455   */\n      pop\n        /* \"#utility.yul\":3494:3496   */\n      0x20\n        /* \"#utility.yul\":3520:3573   */\n      tag_160\n        /* \"#utility.yul\":3565:3572   */\n      dup7\n        /* \"#utility.yul\":3556:3562   */\n      dup3\n        /* \"#utility.yul\":3545:3554   */\n      dup8\n        /* \"#utility.yul\":3541:3563   */\n      add\n        /* \"#utility.yul\":3520:3573   */\n      tag_76\n      jump\t// in\n    tag_160:\n        /* \"#utility.yul\":3510:3573   */\n      swap3\n      pop\n        /* \"#utility.yul\":3465:3583   */\n      pop\n        /* \"#utility.yul\":3650:3652   */\n      0x40\n        /* \"#utility.yul\":3639:3648   */\n      dup5\n        /* \"#utility.yul\":3635:3653   */\n      add\n        /* \"#utility.yul\":3622:3654   */\n      calldataload\n        /* \"#utility.yul\":3681:3699   */\n      0xffffffffffffffff\n        /* \"#utility.yul\":3673:3679   */\n      dup2\n        /* \"#utility.yul\":3670:3700   */\n      gt\n        /* \"#utility.yul\":3667:3784   */\n      iszero\n      tag_161\n      jumpi\n        /* \"#utility.yul\":3703:3782   */\n      tag_162\n      tag_63\n      jump\t// in\n    tag_162:\n        /* \"#utility.yul\":3667:3784   */\n    tag_161:\n        /* \"#utility.yul\":3808:3871   */\n      tag_163\n        /* \"#utility.yul\":3863:3870   */\n      dup7\n        /* \"#utility.yul\":3854:3860   */\n      dup3\n        /* \"#utility.yul\":3843:3852   */\n      dup8\n        /* \"#utility.yul\":3839:3861   */\n      add\n        /* \"#utility.yul\":3808:3871   */\n      tag_73\n      jump\t// in\n    tag_163:\n        /* \"#utility.yul\":3798:3871   */\n      swap2\n      pop\n        /* \"#utility.yul\":3593:3881   */\n      pop\n        /* \"#utility.yul\":2909:3888   */\n      swap3\n      pop\n      swap3\n      pop\n      swap3\n      jump\t// out\n        /* \"#utility.yul\":3894:4403   */\n    tag_13:\n        /* \"#utility.yul\":3963:3969   */\n      0x00\n        /* \"#utility.yul\":4012:4014   */\n      0x20\n        /* \"#utility.yul\":4000:4009   */\n      dup3\n        /* \"#utility.yul\":3991:3998   */\n      dup5\n        /* \"#utility.yul\":3987:4010   */\n      sub\n        /* \"#utility.yul\":3983:4015   */\n      slt\n        /* \"#utility.yul\":3980:4099   */\n      iszero\n      tag_165\n      jumpi\n        /* \"#utility.yul\":4018:4097   */\n      tag_166\n      tag_62\n      jump\t// in\n    tag_166:\n        /* \"#utility.yul\":3980:4099   */\n    tag_165:\n        /* \"#utility.yul\":4166:4167   */\n      0x00\n        /* \"#utility.yul\":4155:4164   */\n      dup3\n        /* \"#utility.yul\":4151:4168   */\n      add\n        /* \"#utility.yul\":4138:4169   */\n      calldataload\n        /* \"#utility.yul\":4196:4214   */\n      0xffffffffffffffff\n        /* \"#utility.yul\":4188:4194   */\n      dup2\n        /* \"#utility.yul\":4185:4215   */\n      gt\n        /* \"#utility.yul\":4182:4299   */\n      iszero\n      tag_167\n      jumpi\n        /* \"#utility.yul\":4218:4297   */\n      tag_168\n      tag_63\n      jump\t// in\n    tag_168:\n        /* \"#utility.yul\":4182:4299   */\n    tag_167:\n        /* \"#utility.yul\":4323:4386   */\n      tag_169\n        /* \"#utility.yul\":4378:4385   */\n      dup5\n        /* \"#utility.yul\":4369:4375   */\n      dup3\n        /* \"#utility.yul\":4358:4367   */\n      dup6\n        /* \"#utility.yul\":4354:4376   */\n      add\n        /* \"#utility.yul\":4323:4386   */\n      tag_73\n      jump\t// in\n    tag_169:\n        /* \"#utility.yul\":4313:4386   */\n      swap2\n      pop\n        /* \"#utility.yul\":4109:4396   */\n      pop\n        /* \"#utility.yul\":3894:4403   */\n      swap3\n      swap2\n      pop\n      pop\n      jump\t// out\n        /* \"#utility.yul\":4409:4527   */\n    tag_77:\n        /* \"#utility.yul\":4496:4520   */\n      tag_171\n        /* \"#utility.yul\":4514:4519   */\n      dup2\n        /* \"#utility.yul\":4496:4520   */\n      tag_74\n      jump\t// in\n    tag_171:\n        /* \"#utility.yul\":4491:4494   */\n      dup3\n        /* \"#utility.yul\":4484:4521   */\n      mstore\n        /* \"#utility.yul\":4409:4527   */\n      pop\n      pop\n      jump\t// out\n        /* \"#utility.yul\":4533:4755   */\n    tag_16:\n        /* \"#utility.yul\":4626:4630   */\n      0x00\n        /* \"#utility.yul\":4664:4666   */\n      0x20\n        /* \"#utility.yul\":4653:4662   */\n      dup3\n        /* \"#utility.yul\":4649:4667   */\n      add\n        /* \"#utility.yul\":4641:4667   */\n      swap1\n      pop\n        /* \"#utility.yul\":4677:4748   */\n      tag_173\n        /* \"#utility.yul\":4745:4746   */\n      0x00\n        /* \"#utility.yul\":4734:4743   */\n      dup4\n        /* \"#utility.yul\":4730:4747   */\n      add\n        /* \"#utility.yul\":4721:4727   */\n      dup5\n        /* \"#utility.yul\":4677:4748   */\n      tag_77\n      jump\t// in\n    tag_173:\n        /* \"#utility.yul\":4533:4755   */\n      swap3\n      swap2\n      pop\n      pop\n      jump\t// out\n        /* \"#utility.yul\":4761:4885   */\n    tag_78:\n        /* \"#utility.yul\":4838:4844   */\n      0x00\n        /* \"#utility.yul\":4872:4877   */\n      dup2\n        /* \"#utility.yul\":4866:4878   */\n      mload\n        /* \"#utility.yul\":4856:4878   */\n      swap1\n      pop\n        /* \"#utility.yul\":4761:4885   */\n      swap2\n      swap1\n      pop\n      jump\t// out\n        /* \"#utility.yul\":4891:5085   */\n    tag_79:\n        /* \"#utility.yul\":5000:5011   */\n      0x00\n        /* \"#utility.yul\":5034:5040   */\n      dup3\n        /* \"#utility.yul\":5029:5032   */\n      dup3\n        /* \"#utility.yul\":5022:5041   */\n      mstore\n        /* \"#utility.yul\":5074:5078   */\n      0x20\n        /* \"#utility.yul\":5069:5072   */\n      dup3\n        /* \"#utility.yul\":5065:5079   */\n      add\n        /* \"#utility.yul\":5050:5079   */\n      swap1\n      pop\n        /* \"#utility.yul\":4891:5085   */\n      swap3\n      swap2\n      pop\n      pop\n      jump\t// out\n        /* \"#utility.yul\":5091:5233   */\n    tag_80:\n        /* \"#utility.yul\":5168:5172   */\n      0x00\n        /* \"#utility.yul\":5191:5194   */\n      dup2\n        /* \"#utility.yul\":5183:5194   */\n      swap1\n      pop\n        /* \"#utility.yul\":5221:5225   */\n      0x20\n        /* \"#utility.yul\":5216:5219   */\n      dup3\n        /* \"#utility.yul\":5212:5226   */\n      add\n        /* \"#utility.yul\":5204:5226   */\n      swap1\n      pop\n        /* \"#utility.yul\":5091:5233   */\n      swap2\n      swap1\n      pop\n      jump\t// out\n        /* \"#utility.yul\":5239:5338   */\n    tag_81:\n        /* \"#utility.yul\":5291:5297   */\n      0x00\n        /* \"#utility.yul\":5325:5330   */\n      dup2\n        /* \"#utility.yul\":5319:5331   */\n      mload\n        /* \"#utility.yul\":5309:5331   */\n      swap1\n      pop\n        /* \"#utility.yul\":5239:5338   */\n      swap2\n      swap1\n      pop\n      jump\t// out\n        /* \"#utility.yul\":5344:5503   */\n    tag_82:\n        /* \"#utility.yul\":5418:5429   */\n      0x00\n        /* \"#utility.yul\":5452:5458   */\n      dup3\n        /* \"#utility.yul\":5447:5450   */\n      dup3\n        /* \"#utility.yul\":5440:5459   */\n      mstore\n        /* \"#utility.yul\":5492:5496   */\n      0x20\n        /* \"#utility.yul\":5487:5490   */\n      dup3\n        /* \"#utility.yul\":5483:5497   */\n      add\n        /* \"#utility.yul\":5468:5497   */\n      swap1\n      pop\n        /* \"#utility.yul\":5344:5503   */\n      swap3\n      swap2\n      pop\n      pop\n      jump\t// out\n        /* \"#utility.yul\":5509:5755   */\n    tag_83:\n        /* \"#utility.yul\":5590:5591   */\n      0x00\n        /* \"#utility.yul\":5600:5713   */\n    tag_180:\n        /* \"#utility.yul\":5614:5620   */\n      dup4\n        /* \"#utility.yul\":5611:5612   */\n      dup2\n        /* \"#utility.yul\":5608:5621   */\n      lt\n        /* \"#utility.yul\":5600:5713   */\n      iszero\n      tag_182\n      jumpi\n        /* \"#utility.yul\":5699:5700   */\n      dup1\n        /* \"#utility.yul\":5694:5697   */\n      dup3\n        /* \"#utility.yul\":5690:5701   */\n      add\n        /* \"#utility.yul\":5684:5702   */\n      mload\n        /* \"#utility.yul\":5680:5681   */\n      dup2\n        /* \"#utility.yul\":5675:5678   */\n      dup5\n        /* \"#utility.yul\":5671:5682   */\n      add\n        /* \"#utility.yul\":5664:5703   */\n      mstore\n        /* \"#utility.yul\":5636:5638   */\n      0x20\n        /* \"#utility.yul\":5633:5634   */\n      dup2\n        /* \"#utility.yul\":5629:5639   */\n      add\n        /* \"#utility.yul\":5624:5639   */\n      swap1\n      pop\n        /* \"#utility.yul\":5600:5713   */\n      jump(tag_180)\n    tag_182:\n        /* \"#utility.yul\":5747:5748   */\n      0x00\n        /* \"#utility.yul\":5738:5744   */\n      dup5\n        /* \"#utility.yul\":5733:5736   */\n      dup5\n        /* \"#utility.yul\":5729:5745   */\n      add\n        /* \"#utility.yul\":5722:5749   */\n      mstore\n        /* \"#utility.yul\":5571:5755   */\n      pop\n        /* \"#utility.yul\":5509:5755   */\n      pop\n      pop\n      pop\n      jump\t// out\n        /* \"#utility.yul\":5761:6118   */\n    tag_84:\n        /* \"#utility.yul\":5839:5842   */\n      0x00\n        /* \"#utility.yul\":5867:5906   */\n      tag_184\n        /* \"#utility.yul\":5900:5905   */\n      dup3\n        /* \"#utility.yul\":5867:5906   */\n      tag_81\n      jump\t// in\n    tag_184:\n        /* \"#utility.yul\":5922:5983   */\n      tag_185\n        /* \"#utility.yul\":5976:5982   */\n      dup2\n        /* \"#utility.yul\":5971:5974   */\n      dup6\n        /* \"#utility.yul\":5922:5983   */\n      tag_82\n      jump\t// in\n    tag_185:\n        /* \"#utility.yul\":5915:5983   */\n      swap4\n      pop\n        /* \"#utility.yul\":5992:6057   */\n      tag_186\n        /* \"#utility.yul\":6050:6056   */\n      dup2\n        /* \"#utility.yul\":6045:6048   */\n      dup6\n        /* \"#utility.yul\":6038:6042   */\n      0x20\n        /* \"#utility.yul\":6031:6036   */\n      dup7\n        /* \"#utility.yul\":6027:6043   */\n      add\n        /* \"#utility.yul\":5992:6057   */\n      tag_83\n      jump\t// in\n    tag_186:\n        /* \"#utility.yul\":6082:6111   */\n      tag_187\n        /* \"#utility.yul\":6104:6110   */\n      dup2\n        /* \"#utility.yul\":6082:6111   */\n      tag_66\n      jump\t// in\n    tag_187:\n        /* \"#utility.yul\":6077:6080   */\n      dup5\n        /* \"#utility.yul\":6073:6112   */\n      add\n        /* \"#utility.yul\":6066:6112   */\n      swap2\n      pop\n        /* \"#utility.yul\":5843:6118   */\n      pop\n        /* \"#utility.yul\":5761:6118   */\n      swap3\n      swap2\n      pop\n      pop\n      jump\t// out\n        /* \"#utility.yul\":6124:6320   */\n    tag_85:\n        /* \"#utility.yul\":6213:6223   */\n      0x00\n        /* \"#utility.yul\":6248:6314   */\n      tag_189\n        /* \"#utility.yul\":6310:6313   */\n      dup4\n        /* \"#utility.yul\":6302:6308   */\n      dup4\n        /* \"#utility.yul\":6248:6314   */\n      tag_84\n      jump\t// in\n    tag_189:\n        /* \"#utility.yul\":6234:6314   */\n      swap1\n      pop\n        /* \"#utility.yul\":6124:6320   */\n      swap3\n      swap2\n      pop\n      pop\n      jump\t// out\n        /* \"#utility.yul\":6326:6449   */\n    tag_86:\n        /* \"#utility.yul\":6406:6410   */\n      0x00\n        /* \"#utility.yul\":6438:6442   */\n      0x20\n        /* \"#utility.yul\":6433:6436   */\n      dup3\n        /* \"#utility.yul\":6429:6443   */\n      add\n        /* \"#utility.yul\":6421:6443   */\n      swap1\n      pop\n        /* \"#utility.yul\":6326:6449   */\n      swap2\n      swap1\n      pop\n      jump\t// out\n        /* \"#utility.yul\":6483:7474   */\n    tag_87:\n        /* \"#utility.yul\":6622:6625   */\n      0x00\n        /* \"#utility.yul\":6651:6715   */\n      tag_192\n        /* \"#utility.yul\":6709:6714   */\n      dup3\n        /* \"#utility.yul\":6651:6715   */\n      tag_78\n      jump\t// in\n    tag_192:\n        /* \"#utility.yul\":6731:6827   */\n      tag_193\n        /* \"#utility.yul\":6820:6826   */\n      dup2\n        /* \"#utility.yul\":6815:6818   */\n      dup6\n        /* \"#utility.yul\":6731:6827   */\n      tag_79\n      jump\t// in\n    tag_193:\n        /* \"#utility.yul\":6724:6827   */\n      swap4\n      pop\n        /* \"#utility.yul\":6853:6856   */\n      dup4\n        /* \"#utility.yul\":6898:6902   */\n      0x20\n        /* \"#utility.yul\":6890:6896   */\n      dup3\n        /* \"#utility.yul\":6886:6903   */\n      mul\n        /* \"#utility.yul\":6881:6884   */\n      dup6\n        /* \"#utility.yul\":6877:6904   */\n      add\n        /* \"#utility.yul\":6928:6994   */\n      tag_194\n        /* \"#utility.yul\":6988:6993   */\n      dup6\n        /* \"#utility.yul\":6928:6994   */\n      tag_80\n      jump\t// in\n    tag_194:\n        /* \"#utility.yul\":7017:7024   */\n      dup1\n        /* \"#utility.yul\":7048:7049   */\n      0x00\n        /* \"#utility.yul\":7033:7429   */\n    tag_195:\n        /* \"#utility.yul\":7058:7064   */\n      dup6\n        /* \"#utility.yul\":7055:7056   */\n      dup2\n        /* \"#utility.yul\":7052:7065   */\n      lt\n        /* \"#utility.yul\":7033:7429   */\n      iszero\n      tag_197\n      jumpi\n        /* \"#utility.yul\":7129:7138   */\n      dup5\n        /* \"#utility.yul\":7123:7127   */\n      dup5\n        /* \"#utility.yul\":7119:7139   */\n      sub\n        /* \"#utility.yul\":7114:7117   */\n      dup10\n        /* \"#utility.yul\":7107:7140   */\n      mstore\n        /* \"#utility.yul\":7180:7186   */\n      dup2\n        /* \"#utility.yul\":7174:7187   */\n      mload\n        /* \"#utility.yul\":7208:7292   */\n      tag_198\n        /* \"#utility.yul\":7287:7291   */\n      dup6\n        /* \"#utility.yul\":7272:7285   */\n      dup3\n        /* \"#utility.yul\":7208:7292   */\n      tag_85\n      jump\t// in\n    tag_198:\n        /* \"#utility.yul\":7200:7292   */\n      swap5\n      pop\n        /* \"#utility.yul\":7315:7385   */\n      tag_199\n        /* \"#utility.yul\":7378:7384   */\n      dup4\n        /* \"#utility.yul\":7315:7385   */\n      tag_86\n      jump\t// in\n    tag_199:\n        /* \"#utility.yul\":7305:7385   */\n      swap3\n      pop\n        /* \"#utility.yul\":7414:7418   */\n      0x20\n        /* \"#utility.yul\":7409:7412   */\n      dup11\n        /* \"#utility.yul\":7405:7419   */\n      add\n        /* \"#utility.yul\":7398:7419   */\n      swap10\n      pop\n        /* \"#utility.yul\":7093:7429   */\n      pop\n        /* \"#utility.yul\":7080:7081   */\n      0x01\n        /* \"#utility.yul\":7077:7078   */\n      dup2\n        /* \"#utility.yul\":7073:7082   */\n      add\n        /* \"#utility.yul\":7068:7082   */\n      swap1\n      pop\n        /* \"#utility.yul\":7033:7429   */\n      jump(tag_195)\n    tag_197:\n        /* \"#utility.yul\":7037:7051   */\n      pop\n        /* \"#utility.yul\":7445:7449   */\n      dup3\n        /* \"#utility.yul\":7438:7449   */\n      swap8\n      pop\n        /* \"#utility.yul\":7465:7468   */\n      dup8\n        /* \"#utility.yul\":7458:7468   */\n      swap6\n      pop\n        /* \"#utility.yul\":6627:7474   */\n      pop\n      pop\n      pop\n      pop\n      pop\n        /* \"#utility.yul\":6483:7474   */\n      swap3\n      swap2\n      pop\n      pop\n      jump\t// out\n        /* \"#utility.yul\":7480:7893   */\n    tag_20:\n        /* \"#utility.yul\":7643:7647   */\n      0x00\n        /* \"#utility.yul\":7681:7683   */\n      0x20\n        /* \"#utility.yul\":7670:7679   */\n      dup3\n        /* \"#utility.yul\":7666:7684   */\n      add\n        /* \"#utility.yul\":7658:7684   */\n      swap1\n      pop\n        /* \"#utility.yul\":7730:7739   */\n      dup2\n        /* \"#utility.yul\":7724:7728   */\n      dup2\n        /* \"#utility.yul\":7720:7740   */\n      sub\n        /* \"#utility.yul\":7716:7717   */\n      0x00\n        /* \"#utility.yul\":7705:7714   */\n      dup4\n        /* \"#utility.yul\":7701:7718   */\n      add\n        /* \"#utility.yul\":7694:7741   */\n      mstore\n        /* \"#utility.yul\":7758:7886   */\n      tag_201\n        /* \"#utility.yul\":7881:7885   */\n      dup2\n        /* \"#utility.yul\":7872:7878   */\n      dup5\n        /* \"#utility.yul\":7758:7886   */\n      tag_87\n      jump\t// in\n    tag_201:\n        /* \"#utility.yul\":7750:7886   */\n      swap1\n      pop\n        /* \"#utility.yul\":7480:7893   */\n      swap3\n      swap2\n      pop\n      pop\n      jump\t// out\n        /* \"#utility.yul\":7899:8047   */\n    tag_88:\n        /* \"#utility.yul\":8001:8012   */\n      0x00\n        /* \"#utility.yul\":8038:8041   */\n      dup2\n        /* \"#utility.yul\":8023:8041   */\n      swap1\n      pop\n        /* \"#utility.yul\":7899:8047   */\n      swap3\n      swap2\n      pop\n      pop\n      jump\t// out\n        /* \"#utility.yul\":8053:8443   */\n    tag_89:\n        /* \"#utility.yul\":8159:8162   */\n      0x00\n        /* \"#utility.yul\":8187:8226   */\n      tag_204\n        /* \"#utility.yul\":8220:8225   */\n      dup3\n        /* \"#utility.yul\":8187:8226   */\n      tag_81\n      jump\t// in\n    tag_204:\n        /* \"#utility.yul\":8242:8331   */\n      tag_205\n        /* \"#utility.yul\":8324:8330   */\n      dup2\n        /* \"#utility.yul\":8319:8322   */\n      dup6\n        /* \"#utility.yul\":8242:8331   */\n      tag_88\n      jump\t// in\n    tag_205:\n        /* \"#utility.yul\":8235:8331   */\n      swap4\n      pop\n        /* \"#utility.yul\":8340:8405   */\n      tag_206\n        /* \"#utility.yul\":8398:8404   */\n      dup2\n        /* \"#utility.yul\":8393:8396   */\n      dup6\n        /* \"#utility.yul\":8386:8390   */\n      0x20\n        /* \"#utility.yul\":8379:8384   */\n      dup7\n        /* \"#utility.yul\":8375:8391   */\n      add\n        /* \"#utility.yul\":8340:8405   */\n      tag_83\n      jump\t// in\n    tag_206:\n        /* \"#utility.yul\":8430:8436   */\n      dup1\n        /* \"#utility.yul\":8425:8428   */\n      dup5\n        /* \"#utility.yul\":8421:8437   */\n      add\n        /* \"#utility.yul\":8414:8437   */\n      swap2\n      pop\n        /* \"#utility.yul\":8163:8443   */\n      pop\n        /* \"#utility.yul\":8053:8443   */\n      swap3\n      swap2\n      pop\n      pop\n      jump\t// out\n        /* \"#utility.yul\":8449:8528   */\n    tag_90:\n        /* \"#utility.yul\":8488:8495   */\n      0x00\n        /* \"#utility.yul\":8517:8522   */\n      dup2\n        /* \"#utility.yul\":8506:8522   */\n      swap1\n      pop\n        /* \"#utility.yul\":8449:8528   */\n      swap2\n      swap1\n      pop\n      jump\t// out\n        /* \"#utility.yul\":8534:8691   */\n    tag_91:\n        /* \"#utility.yul\":8639:8684   */\n      tag_209\n        /* \"#utility.yul\":8659:8683   */\n      tag_210\n        /* \"#utility.yul\":8677:8682   */\n      dup3\n        /* \"#utility.yul\":8659:8683   */\n      tag_74\n      jump\t// in\n    tag_210:\n        /* \"#utility.yul\":8639:8684   */\n      tag_90\n      jump\t// in\n    tag_209:\n        /* \"#utility.yul\":8634:8637   */\n      dup3\n        /* \"#utility.yul\":8627:8685   */\n      mstore\n        /* \"#utility.yul\":8534:8691   */\n      pop\n      pop\n      jump\t// out\n        /* \"#utility.yul\":8697:9273   */\n    tag_26:\n        /* \"#utility.yul\":8905:8908   */\n      0x00\n        /* \"#utility.yul\":8927:9022   */\n      tag_212\n        /* \"#utility.yul\":9018:9021   */\n      dup3\n        /* \"#utility.yul\":9009:9015   */\n      dup7\n        /* \"#utility.yul\":8927:9022   */\n      tag_89\n      jump\t// in\n    tag_212:\n        /* \"#utility.yul\":8920:9022   */\n      swap2\n      pop\n        /* \"#utility.yul\":9032:9107   */\n      tag_213\n        /* \"#utility.yul\":9103:9106   */\n      dup3\n        /* \"#utility.yul\":9094:9100   */\n      dup6\n        /* \"#utility.yul\":9032:9107   */\n      tag_91\n      jump\t// in\n    tag_213:\n        /* \"#utility.yul\":9132:9134   */\n      0x20\n        /* \"#utility.yul\":9127:9130   */\n      dup3\n        /* \"#utility.yul\":9123:9135   */\n      add\n        /* \"#utility.yul\":9116:9135   */\n      swap2\n      pop\n        /* \"#utility.yul\":9152:9247   */\n      tag_214\n        /* \"#utility.yul\":9243:9246   */\n      dup3\n        /* \"#utility.yul\":9234:9240   */\n      dup5\n        /* \"#utility.yul\":9152:9247   */\n      tag_89\n      jump\t// in\n    tag_214:\n        /* \"#utility.yul\":9145:9247   */\n      swap2\n      pop\n        /* \"#utility.yul\":9264:9267   */\n      dup2\n        /* \"#utility.yul\":9257:9267   */\n      swap1\n      pop\n        /* \"#utility.yul\":8697:9273   */\n      swap5\n      swap4\n      pop\n      pop\n      pop\n      pop\n      jump\t// out\n        /* \"#utility.yul\":9279:9554   */\n    tag_28:\n        /* \"#utility.yul\":9411:9414   */\n      0x00\n        /* \"#utility.yul\":9433:9528   */\n      tag_216\n        /* \"#utility.yul\":9524:9527   */\n      dup3\n        /* \"#utility.yul\":9515:9521   */\n      dup5\n        /* \"#utility.yul\":9433:9528   */\n      tag_89\n      jump\t// in\n    tag_216:\n        /* \"#utility.yul\":9426:9528   */\n      swap2\n      pop\n        /* \"#utility.yul\":9545:9548   */\n      dup2\n        /* \"#utility.yul\":9538:9548   */\n      swap1\n      pop\n        /* \"#utility.yul\":9279:9554   */\n      swap3\n      swap2\n      pop\n      pop\n      jump\t// out\n        /* \"#utility.yul\":9560:9740   */\n    tag_92:\n        /* \"#utility.yul\":9608:9685   */\n      0x4e487b7100000000000000000000000000000000000000000000000000000000\n        /* \"#utility.yul\":9605:9606   */\n      0x00\n        /* \"#utility.yul\":9598:9686   */\n      mstore\n        /* \"#utility.yul\":9705:9709   */\n      0x22\n        /* \"#utility.yul\":9702:9703   */\n      0x04\n        /* \"#utility.yul\":9695:9710   */\n      mstore\n        /* \"#utility.yul\":9729:9733   */\n      0x24\n        /* \"#utility.yul\":9726:9727   */\n      0x00\n        /* \"#utility.yul\":9719:9734   */\n      revert\n        /* \"#utility.yul\":9746:10066   */\n    tag_39:\n        /* \"#utility.yul\":9790:9796   */\n      0x00\n        /* \"#utility.yul\":9827:9828   */\n      0x02\n        /* \"#utility.yul\":9821:9825   */\n      dup3\n        /* \"#utility.yul\":9817:9829   */\n      div\n        /* \"#utility.yul\":9807:9829   */\n      swap1\n      pop\n        /* \"#utility.yul\":9874:9875   */\n      0x01\n        /* \"#utility.yul\":9868:9872   */\n      dup3\n        /* \"#utility.yul\":9864:9876   */\n      and\n        /* \"#utility.yul\":9895:9913   */\n      dup1\n        /* \"#utility.yul\":9885:9966   */\n      tag_219\n      jumpi\n        /* \"#utility.yul\":9951:9955   */\n      0x7f\n        /* \"#utility.yul\":9943:9949   */\n      dup3\n        /* \"#utility.yul\":9939:9956   */\n      and\n        /* \"#utility.yul\":9929:9956   */\n      swap2\n      pop\n        /* \"#utility.yul\":9885:9966   */\n    tag_219:\n        /* \"#utility.yul\":10013:10015   */\n      0x20\n        /* \"#utility.yul\":10005:10011   */\n      dup3\n        /* \"#utility.yul\":10002:10016   */\n      lt\n        /* \"#utility.yul\":9982:10000   */\n      dup2\n        /* \"#utility.yul\":9979:10017   */\n      sub\n        /* \"#utility.yul\":9976:10060   */\n      tag_220\n      jumpi\n        /* \"#utility.yul\":10032:10050   */\n      tag_221\n      tag_92\n      jump\t// in\n    tag_221:\n        /* \"#utility.yul\":9976:10060   */\n    tag_220:\n        /* \"#utility.yul\":9797:10066   */\n      pop\n        /* \"#utility.yul\":9746:10066   */\n      swap2\n      swap1\n      pop\n      jump\t// out\n        /* \"#utility.yul\":10072:10213   */\n    tag_93:\n        /* \"#utility.yul\":10121:10125   */\n      0x00\n        /* \"#utility.yul\":10144:10147   */\n      dup2\n        /* \"#utility.yul\":10136:10147   */\n      swap1\n      pop\n        /* \"#utility.yul\":10167:10170   */\n      dup2\n        /* \"#utility.yul\":10164:10165   */\n      0x00\n        /* \"#utility.yul\":10157:10171   */\n      mstore\n        /* \"#utility.yul\":10201:10205   */\n      0x20\n        /* \"#utility.yul\":10198:10199   */\n      0x00\n        /* \"#utility.yul\":10188:10206   */\n      keccak256\n        /* \"#utility.yul\":10180:10206   */\n      swap1\n      pop\n        /* \"#utility.yul\":10072:10213   */\n      swap2\n      swap1\n      pop\n      jump\t// out\n        /* \"#utility.yul\":10219:10312   */\n    tag_94:\n        /* \"#utility.yul\":10256:10262   */\n      0x00\n        /* \"#utility.yul\":10303:10305   */\n      0x20\n        /* \"#utility.yul\":10298:10300   */\n      0x1f\n        /* \"#utility.yul\":10291:10296   */\n      dup4\n        /* \"#utility.yul\":10287:10301   */\n      add\n        /* \"#utility.yul\":10283:10306   */\n      div\n        /* \"#utility.yul\":10273:10306   */\n      swap1\n      pop\n        /* \"#utility.yul\":10219:10312   */\n      swap2\n      swap1\n      pop\n      jump\t// out\n        /* \"#utility.yul\":10318:10425   */\n    tag_95:\n        /* \"#utility.yul\":10362:10370   */\n      0x00\n        /* \"#utility.yul\":10412:10417   */\n      dup3\n        /* \"#utility.yul\":10406:10410   */\n      dup3\n        /* \"#utility.yul\":10402:10418   */\n      shl\n        /* \"#utility.yul\":10381:10418   */\n      swap1\n      pop\n        /* \"#utility.yul\":10318:10425   */\n      swap3\n      swap2\n      pop\n      pop\n      jump\t// out\n        /* \"#utility.yul\":10431:10824   */\n    tag_96:\n        /* \"#utility.yul\":10500:10506   */\n      0x00\n        /* \"#utility.yul\":10550:10551   */\n      0x08\n        /* \"#utility.yul\":10538:10548   */\n      dup4\n        /* \"#utility.yul\":10534:10552   */\n      mul\n        /* \"#utility.yul\":10573:10670   */\n      tag_226\n        /* \"#utility.yul\":10603:10669   */\n      0xffffffffffffffffffffffffffffffffffffffffffffffffffffffffffffffff\n        /* \"#utility.yul\":10592:10601   */\n      dup3\n        /* \"#utility.yul\":10573:10670   */\n      tag_95\n      jump\t// in\n    tag_226:\n        /* \"#utility.yul\":10691:10730   */\n      tag_227\n        /* \"#utility.yul\":10721:10729   */\n      dup7\n        /* \"#utility.yul\":10710:10719   */\n      dup4\n        /* \"#utility.yul\":10691:10730   */\n      tag_95\n      jump\t// in\n    tag_227:\n        /* \"#utility.yul\":10679:10730   */\n      swap6\n      pop\n        /* \"#utility.yul\":10763:10767   */\n      dup1\n        /* \"#utility.yul\":10759:10768   */\n      not\n        /* \"#utility.yul\":10752:10757   */\n      dup5\n        /* \"#utility.yul\":10748:10769   */\n      and\n        /* \"#utility.yul\":10739:10769   */\n      swap4\n      pop\n        /* \"#utility.yul\":10812:10816   */\n      dup1\n        /* \"#utility.yul\":10802:10810   */\n      dup7\n        /* \"#utility.yul\":10798:10817   */\n      and\n        /* \"#utility.yul\":10791:10796   */\n      dup5\n        /* \"#utility.yul\":10788:10818   */\n      or\n        /* \"#utility.yul\":10778:10818   */\n      swap3\n      pop\n        /* \"#utility.yul\":10507:10824   */\n      pop\n      pop\n        /* \"#utility.yul\":10431:10824   */\n      swap4\n      swap3\n      pop\n      pop\n      pop\n      jump\t// out\n        /* \"#utility.yul\":10830:10890   */\n    tag_97:\n        /* \"#utility.yul\":10858:10861   */\n      0x00\n        /* \"#utility.yul\":10879:10884   */\n      dup2\n        /* \"#utility.yul\":10872:10884   */\n      swap1\n      pop\n        /* \"#utility.yul\":10830:10890   */\n      swap2\n      swap1\n      pop\n      jump\t// out\n        /* \"#utility.yul\":10896:11038   */\n    tag_98:\n        /* \"#utility.yul\":10946:10955   */\n      0x00\n        /* \"#utility.yul\":10979:11032   */\n      tag_230\n        /* \"#utility.yul\":10997:11031   */\n      tag_231\n        /* \"#utility.yul\":11006:11030   */\n      tag_232\n        /* \"#utility.yul\":11024:11029   */\n      dup5\n        /* \"#utility.yul\":11006:11030   */\n      tag_74\n      jump\t// in\n    tag_232:\n        /* \"#utility.yul\":10997:11031   */\n      tag_97\n      jump\t// in\n    tag_231:\n        /* \"#utility.yul\":10979:11032   */\n      tag_74\n      jump\t// in\n    tag_230:\n        /* \"#utility.yul\":10966:11032   */\n      swap1\n      pop\n        /* \"#utility.yul\":10896:11038   */\n      swap2\n      swap1\n      pop\n      jump\t// out\n        /* \"#utility.yul\":11044:11119   */\n    tag_99:\n        /* \"#utility.yul\":11087:11090   */\n      0x00\n        /* \"#utility.yul\":11108:11113   */\n      dup2\n        /* \"#utility.yul\":11101:11113   */\n      swap1\n      pop\n        /* \"#utility.yul\":11044:11119   */\n      swap2\n      swap1\n      pop\n      jump\t// out\n        /* \"#utility.yul\":11125:11394   */\n    tag_100:\n        /* \"#utility.yul\":11235:11274   */\n      tag_235\n        /* \"#utility.yul\":11266:11273   */\n      dup4\n        /* \"#utility.yul\":11235:11274   */\n      tag_98\n      jump\t// in\n    tag_235:\n        /* \"#utility.yul\":11296:11387   */\n      tag_236\n        /* \"#utility.yul\":11345:11386   */\n      tag_237\n        /* \"#utility.yul\":11369:11385   */\n      dup3\n        /* \"#utility.yul\":11345:11386   */\n      tag_99\n      jump\t// in\n    tag_237:\n        /* \"#utility.yul\":11337:11343   */\n      dup5\n        /* \"#utility.yul\":11330:11334   */\n      dup5\n        /* \"#utility.yul\":11324:11335   */\n      sload\n        /* \"#utility.yul\":11296:11387   */\n      tag_96\n      jump\t// in\n    tag_236:\n        /* \"#utility.yul\":11290:11294   */\n      dup3\n        /* \"#utility.yul\":11283:11388   */\n      sstore\n        /* \"#utility.yul\":11201:11394   */\n      pop\n        /* \"#utility.yul\":11125:11394   */\n      pop\n      pop\n      pop\n      jump\t// out\n        /* \"#utility.yul\":11400:11473   */\n    tag_101:\n        /* \"#utility.yul\":11445:11448   */\n      0x00\n        /* \"#utility.yul\":11400:11473   */\n      swap1\n      jump\t// out\n        /* \"#utility.yul\":11479:11668   */\n    tag_102:\n        /* \"#utility.yul\":11556:11588   */\n      tag_240\n      tag_101\n      jump\t// in\n    tag_240:\n        /* \"#utility.yul\":11597:11662   */\n      tag_241\n        /* \"#utility.yul\":11655:11661   */\n      dup2\n        /* \"#utility.yul\":11647:11653   */\n      dup5\n        /* \"#utility.yul\":11641:11645   */\n      dup5\n        /* \"#utility.yul\":11597:11662   */\n      tag_100\n      jump\t// in\n    tag_241:\n        /* \"#utility.yul\":11532:11668   */\n      pop\n        /* \"#utility.yul\":11479:11668   */\n      pop\n      pop\n      jump\t// out\n        /* \"#utility.yul\":11674:11860   */\n    tag_103:\n        /* \"#utility.yul\":11734:11854   */\n    tag_243:\n        /* \"#utility.yul\":11751:11754   */\n      dup2\n        /* \"#utility.yul\":11744:11749   */\n      dup2\n        /* \"#utility.yul\":11741:11755   */\n      lt\n        /* \"#utility.yul\":11734:11854   */\n      iszero\n      tag_245\n      jumpi\n        /* \"#utility.yul\":11805:11844   */\n      tag_246\n        /* \"#utility.yul\":11842:11843   */\n      0x00\n        /* \"#utility.yul\":11835:11840   */\n      dup3\n        /* \"#utility.yul\":11805:11844   */\n      tag_102\n      jump\t// in\n    tag_246:\n        /* \"#utility.yul\":11778:11779   */\n      0x01\n        /* \"#utility.yul\":11771:11776   */\n      dup2\n        /* \"#utility.yul\":11767:11780   */\n      add\n        /* \"#utility.yul\":11758:11780   */\n      swap1\n      pop\n        /* \"#utility.yul\":11734:11854   */\n      jump(tag_243)\n    tag_245:\n        /* \"#utility.yul\":11674:11860   */\n      pop\n      pop\n      jump\t// out\n        /* \"#utility.yul\":11866:12409   */\n    tag_104:\n        /* \"#utility.yul\":11967:11969   */\n      0x1f\n        /* \"#utility.yul\":11962:11965   */\n      dup3\n        /* \"#utility.yul\":11959:11970   */\n      gt\n        /* \"#utility.yul\":11956:12402   */\n      iszero\n      tag_248\n      jumpi\n        /* \"#utility.yul\":12001:12039   */\n      tag_249\n        /* \"#utility.yul\":12033:12038   */\n      dup2\n        /* \"#utility.yul\":12001:12039   */\n      tag_93\n      jump\t// in\n    tag_249:\n        /* \"#utility.yul\":12085:12114   */\n      tag_250\n        /* \"#utility.yul\":12103:12113   */\n      dup5\n        /* \"#utility.yul\":12085:12114   */\n      tag_94\n      jump\t// in\n    tag_250:\n        /* \"#utility.yul\":12075:12083   */\n      dup2\n        /* \"#utility.yul\":12071:12115   */\n      add\n        /* \"#utility.yul\":12268:12270   */\n      0x20\n        /* \"#utility.yul\":12256:12266   */\n      dup6\n        /* \"#utility.yul\":12253:12271   */\n      lt\n        /* \"#utility.yul\":12250:12299   */\n      iszero\n      tag_251\n      jumpi\n        /* \"#utility.yul\":12289:12297   */\n      dup2\n        /* \"#utility.yul\":12274:12297   */\n      swap1\n      pop\n        /* \"#utility.yul\":12250:12299   */\n    tag_251:\n        /* \"#utility.yul\":12312:12392   */\n      tag_252\n        /* \"#utility.yul\":12368:12390   */\n      tag_253\n        /* \"#utility.yul\":12386:12389   */\n      dup6\n        /* \"#utility.yul\":12368:12390   */\n      tag_94\n      jump\t// in\n    tag_253:\n        /* \"#utility.yul\":12358:12366   */\n      dup4\n        /* \"#utility.yul\":12354:12391   */\n      add\n        /* \"#utility.yul\":12341:12352   */\n      dup3\n        /* \"#utility.yul\":12312:12392   */\n      tag_103\n      jump\t// in\n    tag_252:\n        /* \"#utility.yul\":11971:12402   */\n      pop\n      pop\n        /* \"#utility.yul\":11956:12402   */\n    tag_248:\n        /* \"#utility.yul\":11866:12409   */\n      pop\n      pop\n      pop\n      jump\t// out\n        /* \"#utility.yul\":12415:12532   */\n    tag_105:\n        /* \"#utility.yul\":12469:12477   */\n      0x00\n        /* \"#utility.yul\":12519:12524   */\n      dup3\n        /* \"#utility.yul\":12513:12517   */\n      dup3\n        /* \"#utility.yul\":12509:12525   */\n      shr\n        /* \"#utility.yul\":12488:12525   */\n      swap1\n      pop\n        /* \"#utility.yul\":12415:12532   */\n      swap3\n      swap2\n      pop\n      pop\n      jump\t// out\n        /* \"#utility.yul\":12538:12707   */\n    tag_106:\n        /* \"#utility.yul\":12582:12588   */\n      0x00\n        /* \"#utility.yul\":12615:12666   */\n      tag_256\n        /* \"#utility.yul\":12663:12664   */\n      0x00\n        /* \"#utility.yul\":12659:12665   */\n      not\n        /* \"#utility.yul\":12651:12656   */\n      dup5\n        /* \"#utility.yul\":12648:12649   */\n      0x08\n        /* \"#utility.yul\":12644:12657   */\n      mul\n        /* \"#utility.yul\":12615:12666   */\n      tag_105\n      jump\t// in\n    tag_256:\n        /* \"#utility.yul\":12611:12667   */\n      not\n        /* \"#utility.yul\":12696:12700   */\n      dup1\n        /* \"#utility.yul\":12690:12694   */\n      dup4\n        /* \"#utility.yul\":12686:12701   */\n      and\n        /* \"#utility.yul\":12676:12701   */\n      swap2\n      pop\n        /* \"#utility.yul\":12589:12707   */\n      pop\n        /* \"#utility.yul\":12538:12707   */\n      swap3\n      swap2\n      pop\n      pop\n      jump\t// out\n        /* \"#utility.yul\":12712:13007   */\n    tag_107:\n        /* \"#utility.yul\":12788:12792   */\n      0x00\n        /* \"#utility.yul\":12934:12963   */\n      tag_258\n        /* \"#utility.yul\":12959:12962   */\n      dup4\n        /* \"#utility.yul\":12953:12957   */\n      dup4\n        /* \"#utility.yul\":12934:12963   */\n      tag_106\n      jump\t// in\n    tag_258:\n        /* \"#utility.yul\":12926:12963   */\n      swap2\n      pop\n        /* \"#utility.yul\":12996:12999   */\n      dup3\n        /* \"#utility.yul\":12993:12994   */\n      0x02\n        /* \"#utility.yul\":12989:13000   */\n      mul\n        /* \"#utility.yul\":12983:12987   */\n      dup3\n        /* \"#utility.yul\":12980:13001   */\n      or\n        /* \"#utility.yul\":12972:13001   */\n      swap1\n      pop\n        /* \"#utility.yul\":12712:13007   */\n      swap3\n      swap2\n      pop\n      pop\n      jump\t// out\n        /* \"#utility.yul\":13012:14407   */\n    tag_31:\n        /* \"#utility.yul\":13129:13166   */\n      tag_260\n        /* \"#utility.yul\":13162:13165   */\n      dup3\n        /* \"#utility.yul\":13129:13166   */\n      tag_81\n      jump\t// in\n    tag_260:\n        /* \"#utility.yul\":13231:13249   */\n      0xffffffffffffffff\n        /* \"#utility.yul\":13223:13229   */\n      dup2\n        /* \"#utility.yul\":13220:13250   */\n      gt\n        /* \"#utility.yul\":13217:13273   */\n      iszero\n      tag_261\n      jumpi\n        /* \"#utility.yul\":13253:13271   */\n      tag_262\n      tag_67\n      jump\t// in\n    tag_262:\n        /* \"#utility.yul\":13217:13273   */\n    tag_261:\n        /* \"#utility.yul\":13297:13335   */\n      tag_263\n        /* \"#utility.yul\":13329:13333   */\n      dup3\n        /* \"#utility.yul\":13323:13334   */\n      sload\n        /* \"#utility.yul\":13297:13335   */\n      tag_39\n      jump\t// in\n    tag_263:\n        /* \"#utility.yul\":13382:13449   */\n      tag_264\n        /* \"#utility.yul\":13442:13448   */\n      dup3\n        /* \"#utility.yul\":13434:13440   */\n      dup3\n        /* \"#utility.yul\":13428:13432   */\n      dup6\n        /* \"#utility.yul\":13382:13449   */\n      tag_104\n      jump\t// in\n    tag_264:\n        /* \"#utility.yul\":13476:13477   */\n      0x00\n        /* \"#utility.yul\":13500:13504   */\n      0x20\n        /* \"#utility.yul\":13487:13504   */\n      swap1\n      pop\n        /* \"#utility.yul\":13532:13534   */\n      0x1f\n        /* \"#utility.yul\":13524:13530   */\n      dup4\n        /* \"#utility.yul\":13521:13535   */\n      gt\n        /* \"#utility.yul\":13549:13550   */\n      0x01\n        /* \"#utility.yul\":13544:14162   */\n      dup2\n      eq\n      tag_266\n      jumpi\n        /* \"#utility.yul\":14206:14207   */\n      0x00\n        /* \"#utility.yul\":14223:14229   */\n      dup5\n        /* \"#utility.yul\":14220:14297   */\n      iszero\n      tag_267\n      jumpi\n        /* \"#utility.yul\":14272:14281   */\n      dup3\n        /* \"#utility.yul\":14267:14270   */\n      dup8\n        /* \"#utility.yul\":14263:14282   */\n      add\n        /* \"#utility.yul\":14257:14283   */\n      mload\n        /* \"#utility.yul\":14248:14283   */\n      swap1\n      pop\n        /* \"#utility.yul\":14220:14297   */\n    tag_267:\n        /* \"#utility.yul\":14323:14390   */\n      tag_268\n        /* \"#utility.yul\":14383:14389   */\n      dup6\n        /* \"#utility.yul\":14376:14381   */\n      dup3\n        /* \"#utility.yul\":14323:14390   */\n      tag_107\n      jump\t// in\n    tag_268:\n        /* \"#utility.yul\":14317:14321   */\n      dup7\n        /* \"#utility.yul\":14310:14391   */\n      sstore\n        /* \"#utility.yul\":14179:14401   */\n      pop\n        /* \"#utility.yul\":13514:14401   */\n      jump(tag_265)\n        /* \"#utility.yul\":13544:14162   */\n    tag_266:\n        /* \"#utility.yul\":13596:13600   */\n      0x1f\n        /* \"#utility.yul\":13592:13601   */\n      not\n        /* \"#utility.yul\":13584:13590   */\n      dup5\n        /* \"#utility.yul\":13580:13602   */\n      and\n        /* \"#utility.yul\":13630:13667   */\n      tag_269\n        /* \"#utility.yul\":13662:13666   */\n      dup7\n        /* \"#utility.yul\":13630:13667   */\n      tag_93\n      jump\t// in\n    tag_269:\n        /* \"#utility.yul\":13689:13690   */\n      0x00\n        /* \"#utility.yul\":13703:13911   */\n    tag_270:\n        /* \"#utility.yul\":13717:13724   */\n      dup3\n        /* \"#utility.yul\":13714:13715   */\n      dup2\n        /* \"#utility.yul\":13711:13725   */\n      lt\n        /* \"#utility.yul\":13703:13911   */\n      iszero\n      tag_272\n      jumpi\n        /* \"#utility.yul\":13796:13805   */\n      dup5\n        /* \"#utility.yul\":13791:13794   */\n      dup10\n        /* \"#utility.yul\":13787:13806   */\n      add\n        /* \"#utility.yul\":13781:13807   */\n      mload\n        /* \"#utility.yul\":13773:13779   */\n      dup3\n        /* \"#utility.yul\":13766:13808   */\n      sstore\n        /* \"#utility.yul\":13847:13848   */\n      0x01\n        /* \"#utility.yul\":13839:13845   */\n      dup3\n        /* \"#utility.yul\":13835:13849   */\n      add\n        /* \"#utility.yul\":13825:13849   */\n      swap2\n      pop\n        /* \"#utility.yul\":13894:13896   */\n      0x20\n        /* \"#utility.yul\":13883:13892   */\n      dup6\n        /* \"#utility.yul\":13879:13897   */\n      add\n        /* \"#utility.yul\":13866:13897   */\n      swap5\n      pop\n        /* \"#utility.yul\":13740:13744   */\n      0x20\n        /* \"#utility.yul\":13737:13738   */\n      dup2\n        /* \"#utility.yul\":13733:13745   */\n      add\n        /* \"#utility.yul\":13728:13745   */\n      swap1\n      pop\n        /* \"#utility.yul\":13703:13911   */\n      jump(tag_270)\n    tag_272:\n        /* \"#utility.yul\":13939:13945   */\n      dup7\n        /* \"#utility.yul\":13930:13937   */\n      dup4\n        /* \"#utility.yul\":13927:13946   */\n      lt\n        /* \"#utility.yul\":13924:14103   */\n      iszero\n      tag_273\n      jumpi\n        /* \"#utility.yul\":13997:14006   */\n      dup5\n        /* \"#utility.yul\":13992:13995   */\n      dup10\n        /* \"#utility.yul\":13988:14007   */\n      add\n        /* \"#utility.yul\":13982:14008   */\n      mload\n        /* \"#utility.yul\":14040:14088   */\n      tag_274\n        /* \"#utility.yul\":14082:14086   */\n      0x1f\n        /* \"#utility.yul\":14074:14080   */\n      dup10\n        /* \"#utility.yul\":14070:14087   */\n      and\n        /* \"#utility.yul\":14059:14068   */\n      dup3\n        /* \"#utility.yul\":14040:14088   */\n      tag_106\n      jump\t// in\n    tag_274:\n        /* \"#utility.yul\":14032:14038   */\n      dup4\n        /* \"#utility.yul\":14025:14089   */\n      sstore\n        /* \"#utility.yul\":13947:14103   */\n      pop\n        /* \"#utility.yul\":13924:14103   */\n    tag_273:\n        /* \"#utility.yul\":14149:14150   */\n      0x01\n        /* \"#utility.yul\":14145:14146   */\n      0x02\n        /* \"#utility.yul\":14137:14143   */\n      dup9\n        /* \"#utility.yul\":14133:14147   */\n      mul\n        /* \"#utility.yul\":14129:14151   */\n      add\n        /* \"#utility.yul\":14123:14127   */\n      dup9\n        /* \"#utility.yul\":14116:14152   */\n      sstore\n        /* \"#utility.yul\":13551:14162   */\n      pop\n      pop\n      pop\n        /* \"#utility.yul\":13514:14401   */\n    tag_265:\n      pop\n        /* \"#utility.yul\":13104:14407   */\n      pop\n      pop\n      pop\n        /* \"#utility.yul\":13012:14407   */\n      pop\n      pop\n      jump\t// out\n        /* \"#utility.yul\":14413:14539   */\n    tag_108:\n        /* \"#utility.yul\":14450:14457   */\n      0x00\n        /* \"#utility.yul\":14490:14532   */\n      0xffffffffffffffffffffffffffffffffffffffff\n        /* \"#utility.yul\":14483:14488   */\n      dup3\n        /* \"#utility.yul\":14479:14533   */\n      and\n        /* \"#utility.yul\":14468:14533   */\n      swap1\n      pop\n        /* \"#utility.yul\":14413:14539   */\n      swap2\n      swap1\n      pop\n      jump\t// out\n        /* \"#utility.yul\":14545:14641   */\n    tag_109:\n        /* \"#utility.yul\":14582:14589   */\n      0x00\n        /* \"#utility.yul\":14611:14635   */\n      tag_277\n        /* \"#utility.yul\":14629:14634   */\n      dup3\n        /* \"#utility.yul\":14611:14635   */\n      tag_108\n      jump\t// in\n    tag_277:\n        /* \"#utility.yul\":14600:14635   */\n      swap1\n      pop\n        /* \"#utility.yul\":14545:14641   */\n      swap2\n      swap1\n      pop\n      jump\t// out\n        /* \"#utility.yul\":14647:14741   */\n    tag_110:\n        /* \"#utility.yul\":14680:14688   */\n      0x00\n        /* \"#utility.yul\":14728:14733   */\n      dup2\n        /* \"#utility.yul\":14724:14726   */\n      0x60\n        /* \"#utility.yul\":14720:14734   */\n      shl\n        /* \"#utility.yul\":14699:14734   */\n      swap1\n      pop\n        /* \"#utility.yul\":14647:14741   */\n      swap2\n      swap1\n      pop\n      jump\t// out\n        /* \"#utility.yul\":14747:14841   */\n    tag_111:\n        /* \"#utility.yul\":14786:14793   */\n      0x00\n        /* \"#utility.yul\":14815:14835   */\n      tag_280\n        /* \"#utility.yul\":14829:14834   */\n      dup3\n        /* \"#utility.yul\":14815:14835   */\n      tag_110\n      jump\t// in\n    tag_280:\n        /* \"#utility.yul\":14804:14835   */\n      swap1\n      pop\n        /* \"#utility.yul\":14747:14841   */\n      swap2\n      swap1\n      pop\n      jump\t// out\n        /* \"#utility.yul\":14847:14947   */\n    tag_112:\n        /* \"#utility.yul\":14886:14893   */\n      0x00\n        /* \"#utility.yul\":14915:14941   */\n      tag_282\n        /* \"#utility.yul\":14935:14940   */\n      dup3\n        /* \"#utility.yul\":14915:14941   */\n      tag_111\n      jump\t// in\n    tag_282:\n        /* \"#utility.yul\":14904:14941   */\n      swap1\n      pop\n        /* \"#utility.yul\":14847:14947   */\n      swap2\n      swap1\n      pop\n      jump\t// out\n        /* \"#utility.yul\":14953:15110   */\n    tag_113:\n        /* \"#utility.yul\":15058:15103   */\n      tag_284\n        /* \"#utility.yul\":15078:15102   */\n      tag_285\n        /* \"#utility.yul\":15096:15101   */\n      dup3\n        /* \"#utility.yul\":15078:15102   */\n      tag_109\n      jump\t// in\n    tag_285:\n        /* \"#utility.yul\":15058:15103   */\n      tag_112\n      jump\t// in\n    tag_284:\n        /* \"#utility.yul\":15053:15056   */\n      dup3\n        /* \"#utility.yul\":15046:15104   */\n      mstore\n        /* \"#utility.yul\":14953:15110   */\n      pop\n      pop\n      jump\t// out\n        /* \"#utility.yul\":15116:15372   */\n    tag_46:\n        /* \"#utility.yul\":15228:15231   */\n      0x00\n        /* \"#utility.yul\":15243:15318   */\n      tag_287\n        /* \"#utility.yul\":15314:15317   */\n      dup3\n        /* \"#utility.yul\":15305:15311   */\n      dup5\n        /* \"#utility.yul\":15243:15318   */\n      tag_113\n      jump\t// in\n    tag_287:\n        /* \"#utility.yul\":15343:15345   */\n      0x14\n        /* \"#utility.yul\":15338:15341   */\n      dup3\n        /* \"#utility.yul\":15334:15346   */\n      add\n        /* \"#utility.yul\":15327:15346   */\n      swap2\n      pop\n        /* \"#utility.yul\":15363:15366   */\n      dup2\n        /* \"#utility.yul\":15356:15366   */\n      swap1\n      pop\n        /* \"#utility.yul\":15116:15372   */\n      swap3\n      swap2\n      pop\n      pop\n      jump\t// out\n        /* \"#utility.yul\":15378:15558   */\n    tag_52:\n        /* \"#utility.yul\":15426:15503   */\n      0x4e487b7100000000000000000000000000000000000000000000000000000000\n        /* \"#utility.yul\":15423:15424   */\n      0x00\n        /* \"#utility.yul\":15416:15504   */\n      mstore\n        /* \"#utility.yul\":15523:15527   */\n      0x32\n        /* \"#utility.yul\":15520:15521   */\n      0x04\n        /* \"#utility.yul\":15513:15528   */\n      mstore\n        /* \"#utility.yul\":15547:15551   */\n      0x24\n        /* \"#utility.yul\":15544:15545   */\n      0x00\n        /* \"#utility.yul\":15537:15552   */\n      revert\n        /* \"#utility.yul\":15564:15733   */\n    tag_114:\n        /* \"#utility.yul\":15648:15659   */\n      0x00\n        /* \"#utility.yul\":15682:15688   */\n      dup3\n        /* \"#utility.yul\":15677:15680   */\n      dup3\n        /* \"#utility.yul\":15670:15689   */\n      mstore\n        /* \"#utility.yul\":15722:15726   */\n      0x20\n        /* \"#utility.yul\":15717:15720   */\n      dup3\n        /* \"#utility.yul\":15713:15727   */\n      add\n        /* \"#utility.yul\":15698:15727   */\n      swap1\n      pop\n        /* \"#utility.yul\":15564:15733   */\n      swap3\n      swap2\n      pop\n      pop\n      jump\t// out\n        /* \"#utility.yul\":15739:15914   */\n    tag_115:\n        /* \"#utility.yul\":15879:15906   */\n      0x59612068617320766f7461646f207072657669616d656e746500000000000000\n        /* \"#utility.yul\":15875:15876   */\n      0x00\n        /* \"#utility.yul\":15867:15873   */\n      dup3\n        /* \"#utility.yul\":15863:15877   */\n      add\n        /* \"#utility.yul\":15856:15907   */\n      mstore\n        /* \"#utility.yul\":15739:15914   */\n      pop\n      jump\t// out\n        /* \"#utility.yul\":15920:16286   */\n    tag_116:\n        /* \"#utility.yul\":16062:16065   */\n      0x00\n        /* \"#utility.yul\":16083:16150   */\n      tag_292\n        /* \"#utility.yul\":16147:16149   */\n      0x19\n        /* \"#utility.yul\":16142:16145   */\n      dup4\n        /* \"#utility.yul\":16083:16150   */\n      tag_114\n      jump\t// in\n    tag_292:\n        /* \"#utility.yul\":16076:16150   */\n      swap2\n      pop\n        /* \"#utility.yul\":16159:16252   */\n      tag_293\n        /* \"#utility.yul\":16248:16251   */\n      dup3\n        /* \"#utility.yul\":16159:16252   */\n      tag_115\n      jump\t// in\n    tag_293:\n        /* \"#utility.yul\":16277:16279   */\n      0x20\n        /* \"#utility.yul\":16272:16275   */\n      dup3\n        /* \"#utility.yul\":16268:16280   */\n      add\n        /* \"#utility.yul\":16261:16280   */\n      swap1\n      pop\n        /* \"#utility.yul\":15920:16286   */\n      swap2\n      swap1\n      pop\n      jump\t// out\n        /* \"#utility.yul\":16292:16711   */\n    tag_56:\n        /* \"#utility.yul\":16458:16462   */\n      0x00\n        /* \"#utility.yul\":16496:16498   */\n      0x20\n        /* \"#utility.yul\":16485:16494   */\n      dup3\n        /* \"#utility.yul\":16481:16499   */\n      add\n        /* \"#utility.yul\":16473:16499   */\n      swap1\n      pop\n        /* \"#utility.yul\":16545:16554   */\n      dup2\n        /* \"#utility.yul\":16539:16543   */\n      dup2\n        /* \"#utility.yul\":16535:16555   */\n      sub\n        /* \"#utility.yul\":16531:16532   */\n      0x00\n        /* \"#utility.yul\":16520:16529   */\n      dup4\n        /* \"#utility.yul\":16516:16533   */\n      add\n        /* \"#utility.yul\":16509:16556   */\n      mstore\n        /* \"#utility.yul\":16573:16704   */\n      tag_295\n        /* \"#utility.yul\":16699:16703   */\n      dup2\n        /* \"#utility.yul\":16573:16704   */\n      tag_116\n      jump\t// in\n    tag_295:\n        /* \"#utility.yul\":16565:16704   */\n      swap1\n      pop\n        /* \"#utility.yul\":16292:16711   */\n      swap2\n      swap1\n      pop\n      jump\t// out\n        /* \"#utility.yul\":16717:16897   */\n    tag_117:\n        /* \"#utility.yul\":16765:16842   */\n      0x4e487b7100000000000000000000000000000000000000000000000000000000\n        /* \"#utility.yul\":16762:16763   */\n      0x00\n        /* \"#utility.yul\":16755:16843   */\n      mstore\n        /* \"#utility.yul\":16862:16866   */\n      0x11\n        /* \"#utility.yul\":16859:16860   */\n      0x04\n        /* \"#utility.yul\":16852:16867   */\n      mstore\n        /* \"#utility.yul\":16886:16890   */\n      0x24\n        /* \"#utility.yul\":16883:16884   */\n      0x00\n        /* \"#utility.yul\":16876:16891   */\n      revert\n        /* \"#utility.yul\":16903:17136   */\n    tag_60:\n        /* \"#utility.yul\":16942:16945   */\n      0x00\n        /* \"#utility.yul\":16965:16989   */\n      tag_298\n        /* \"#utility.yul\":16983:16988   */\n      dup3\n        /* \"#utility.yul\":16965:16989   */\n      tag_74\n      jump\t// in\n    tag_298:\n        /* \"#utility.yul\":16956:16989   */\n      swap2\n      pop\n        /* \"#utility.yul\":17011:17077   */\n      0xffffffffffffffffffffffffffffffffffffffffffffffffffffffffffffffff\n        /* \"#utility.yul\":17004:17009   */\n      dup3\n        /* \"#utility.yul\":17001:17078   */\n      sub\n        /* \"#utility.yul\":16998:17101   */\n      tag_299\n      jumpi\n        /* \"#utility.yul\":17081:17099   */\n      tag_300\n      tag_117\n      jump\t// in\n    tag_300:\n        /* \"#utility.yul\":16998:17101   */\n    tag_299:\n        /* \"#utility.yul\":17128:17129   */\n      0x01\n        /* \"#utility.yul\":17121:17126   */\n      dup3\n        /* \"#utility.yul\":17117:17130   */\n      add\n        /* \"#utility.yul\":17110:17130   */\n      swap1\n      pop\n        /* \"#utility.yul\":16903:17136   */\n      swap2\n      swap1\n      pop\n      jump\t// out\n\n    auxdata: 0xa2646970667358221220e99203b40a0ecc23f16169a1409d050b0b707c1b794bfab90fb7bdbe0b16b2d364736f6c63430008160033\n}\n",
				"bytecode": {
					"linkReferences": {},
					"object": "608060405234801561000f575f80fd5b50335f806101000a81548173ffffffffffffffffffffffffffffffffffffffff021916908373ffffffffffffffffffffffffffffffffffffffff160217905550610c718061005c5f395ff3fe608060405234801561000f575f80fd5b506004361061004a575f3560e01c80632e9452bc1461004e57806360df75d41461006a578063caaa49a61461009a578063ce3fe641146100b8575b5f80fd5b610068600480360381019061006391906104da565b6100d4565b005b610084600480360381019061007f9190610562565b61015d565b60405161009191906105b8565b60405180910390f35b6100a2610184565b6040516100af9190610706565b60405180910390f35b6100d260048036038101906100cd9190610562565b610258565b005b5f8383836040516020016100ea93929190610780565b6040516020818303038152906040528051906020012090508060018560405161011391906107b4565b908152602001604051809103902081905550600384908060018154018082558091505060019003905f5260205f20015f90919091909150908161015691906109c4565b5050505050565b5f60028260405161016e91906107b4565b9081526020016040518091039020549050919050565b60606003805480602002602001604051908101604052809291908181526020015f905b8282101561024f578382905f5260205f200180546101c4906107f7565b80601f01602080910402602001604051908101604052809291908181526020018280546101f0906107f7565b801561023b5780601f106102125761010080835404028352916020019161023b565b820191905f5260205f20905b81548152906001019060200180831161021e57829003601f168201915b5050505050815260200190600101906101a7565b50505050905090565b5f3360405160200161026a9190610b08565b6040516020818303038152906040528051906020012090505f5b6004805490508110156102fc5781600482815481106102a6576102a5610b22565b5b905f5260205f200154036102ef576040517f08c379a00000000000000000000000000000000000000000000000000000000081526004016102e690610ba9565b60405180910390fd5b8080600101915050610284565b50600481908060018154018082558091505060019003905f5260205f20015f909190919091505560028260405161033391906107b4565b90815260200160405180910390205f81548092919061035190610bf4565b91905055505050565b5f604051905090565b5f80fd5b5f80fd5b5f80fd5b5f80fd5b5f601f19601f8301169050919050565b7f4e487b71000000000000000000000000000000000000000000000000000000005f52604160045260245ffd5b6103b982610373565b810181811067ffffffffffffffff821117156103d8576103d7610383565b5b80604052505050565b5f6103ea61035a565b90506103f682826103b0565b919050565b5f67ffffffffffffffff82111561041557610414610383565b5b61041e82610373565b9050602081019050919050565b828183375f83830152505050565b5f61044b610446846103fb565b6103e1565b9050828152602081018484840111156104675761046661036f565b5b61047284828561042b565b509392505050565b5f82601f83011261048e5761048d61036b565b5b813561049e848260208601610439565b91505092915050565b5f819050919050565b6104b9816104a7565b81146104c3575f80fd5b50565b5f813590506104d4816104b0565b92915050565b5f805f606084860312156104f1576104f0610363565b5b5f84013567ffffffffffffffff81111561050e5761050d610367565b5b61051a8682870161047a565b935050602061052b868287016104c6565b925050604084013567ffffffffffffffff81111561054c5761054b610367565b5b6105588682870161047a565b9150509250925092565b5f6020828403121561057757610576610363565b5b5f82013567ffffffffffffffff81111561059457610593610367565b5b6105a08482850161047a565b91505092915050565b6105b2816104a7565b82525050565b5f6020820190506105cb5f8301846105a9565b92915050565b5f81519050919050565b5f82825260208201905092915050565b5f819050602082019050919050565b5f81519050919050565b5f82825260208201905092915050565b5f5b83811015610631578082015181840152602081019050610616565b5f8484015250505050565b5f610646826105fa565b6106508185610604565b9350610660818560208601610614565b61066981610373565b840191505092915050565b5f61067f838361063c565b905092915050565b5f602082019050919050565b5f61069d826105d1565b6106a781856105db565b9350836020820285016106b9856105eb565b805f5b858110156106f457848403895281516106d58582610674565b94506106e083610687565b925060208a019950506001810190506106bc565b50829750879550505050505092915050565b5f6020820190508181035f83015261071e8184610693565b905092915050565b5f81905092915050565b5f61073a826105fa565b6107448185610726565b9350610754818560208601610614565b80840191505092915050565b5f819050919050565b61077a610775826104a7565b610760565b82525050565b5f61078b8286610730565b91506107978285610769565b6020820191506107a78284610730565b9150819050949350505050565b5f6107bf8284610730565b915081905092915050565b7f4e487b71000000000000000000000000000000000000000000000000000000005f52602260045260245ffd5b5f600282049050600182168061080e57607f821691505b602082108103610821576108206107ca565b5b50919050565b5f819050815f5260205f209050919050565b5f6020601f8301049050919050565b5f82821b905092915050565b5f600883026108837fffffffffffffffffffffffffffffffffffffffffffffffffffffffffffffffff82610848565b61088d8683610848565b95508019841693508086168417925050509392505050565b5f819050919050565b5f6108c86108c36108be846104a7565b6108a5565b6104a7565b9050919050565b5f819050919050565b6108e1836108ae565b6108f56108ed826108cf565b848454610854565b825550505050565b5f90565b6109096108fd565b6109148184846108d8565b505050565b5b818110156109375761092c5f82610901565b60018101905061091a565b5050565b601f82111561097c5761094d81610827565b61095684610839565b81016020851015610965578190505b61097961097185610839565b830182610919565b50505b505050565b5f82821c905092915050565b5f61099c5f1984600802610981565b1980831691505092915050565b5f6109b4838361098d565b9150826002028217905092915050565b6109cd826105fa565b67ffffffffffffffff8111156109e6576109e5610383565b5b6109f082546107f7565b6109fb82828561093b565b5f60209050601f831160018114610a2c575f8415610a1a578287015190505b610a2485826109a9565b865550610a8b565b601f198416610a3a86610827565b5f5b82811015610a6157848901518255600182019150602085019450602081019050610a3c565b86831015610a7e5784890151610a7a601f89168261098d565b8355505b6001600288020188555050505b505050505050565b5f73ffffffffffffffffffffffffffffffffffffffff82169050919050565b5f610abc82610a93565b9050919050565b5f8160601b9050919050565b5f610ad982610ac3565b9050919050565b5f610aea82610acf565b9050919050565b610b02610afd82610ab2565b610ae0565b82525050565b5f610b138284610af1565b60148201915081905092915050565b7f4e487b71000000000000000000000000000000000000000000000000000000005f52603260045260245ffd5b5f82825260208201905092915050565b7f59612068617320766f7461646f207072657669616d656e7465000000000000005f82015250565b5f610b93601983610b4f565b9150610b9e82610b5f565b602082019050919050565b5f6020820190508181035f830152610bc081610b87565b9050919050565b7f4e487b71000000000000000000000000000000000000000000000000000000005f52601160045260245ffd5b5f610bfe826104a7565b91507fffffffffffffffffffffffffffffffffffffffffffffffffffffffffffffffff8203610c3057610c2f610bc7565b5b60018201905091905056fea2646970667358221220e99203b40a0ecc23f16169a1409d050b0b707c1b794bfab90fb7bdbe0b16b2d364736f6c63430008160033",
					"opcodes": "PUSH1 0x80 PUSH1 0x40 MSTORE CALLVALUE DUP1 ISZERO PUSH2 0xF JUMPI PUSH0 DUP1 REVERT JUMPDEST POP CALLER PUSH0 DUP1 PUSH2 0x100 EXP DUP2 SLOAD DUP2 PUSH20 0xFFFFFFFFFFFFFFFFFFFFFFFFFFFFFFFFFFFFFFFF MUL NOT AND SWAP1 DUP4 PUSH20 0xFFFFFFFFFFFFFFFFFFFFFFFFFFFFFFFFFFFFFFFF AND MUL OR SWAP1 SSTORE POP PUSH2 0xC71 DUP1 PUSH2 0x5C PUSH0 CODECOPY PUSH0 RETURN INVALID PUSH1 0x80 PUSH1 0x40 MSTORE CALLVALUE DUP1 ISZERO PUSH2 0xF JUMPI PUSH0 DUP1 REVERT JUMPDEST POP PUSH1 0x4 CALLDATASIZE LT PUSH2 0x4A JUMPI PUSH0 CALLDATALOAD PUSH1 0xE0 SHR DUP1 PUSH4 0x2E9452BC EQ PUSH2 0x4E JUMPI DUP1 PUSH4 0x60DF75D4 EQ PUSH2 0x6A JUMPI DUP1 PUSH4 0xCAAA49A6 EQ PUSH2 0x9A JUMPI DUP1 PUSH4 0xCE3FE641 EQ PUSH2 0xB8 JUMPI JUMPDEST PUSH0 DUP1 REVERT JUMPDEST PUSH2 0x68 PUSH1 0x4 DUP1 CALLDATASIZE SUB DUP2 ADD SWAP1 PUSH2 0x63 SWAP2 SWAP1 PUSH2 0x4DA JUMP JUMPDEST PUSH2 0xD4 JUMP JUMPDEST STOP JUMPDEST PUSH2 0x84 PUSH1 0x4 DUP1 CALLDATASIZE SUB DUP2 ADD SWAP1 PUSH2 0x7F SWAP2 SWAP1 PUSH2 0x562 JUMP JUMPDEST PUSH2 0x15D JUMP JUMPDEST PUSH1 0x40 MLOAD PUSH2 0x91 SWAP2 SWAP1 PUSH2 0x5B8 JUMP JUMPDEST PUSH1 0x40 MLOAD DUP1 SWAP2 SUB SWAP1 RETURN JUMPDEST PUSH2 0xA2 PUSH2 0x184 JUMP JUMPDEST PUSH1 0x40 MLOAD PUSH2 0xAF SWAP2 SWAP1 PUSH2 0x706 JUMP JUMPDEST PUSH1 0x40 MLOAD DUP1 SWAP2 SUB SWAP1 RETURN JUMPDEST PUSH2 0xD2 PUSH1 0x4 DUP1 CALLDATASIZE SUB DUP2 ADD SWAP1 PUSH2 0xCD SWAP2 SWAP1 PUSH2 0x562 JUMP JUMPDEST PUSH2 0x258 JUMP JUMPDEST STOP JUMPDEST PUSH0 DUP4 DUP4 DUP4 PUSH1 0x40 MLOAD PUSH1 0x20 ADD PUSH2 0xEA SWAP4 SWAP3 SWAP2 SWAP1 PUSH2 0x780 JUMP JUMPDEST PUSH1 0x40 MLOAD PUSH1 0x20 DUP2 DUP4 SUB SUB DUP2 MSTORE SWAP1 PUSH1 0x40 MSTORE DUP1 MLOAD SWAP1 PUSH1 0x20 ADD KECCAK256 SWAP1 POP DUP1 PUSH1 0x1 DUP6 PUSH1 0x40 MLOAD PUSH2 0x113 SWAP2 SWAP1 PUSH2 0x7B4 JUMP JUMPDEST SWAP1 DUP2 MSTORE PUSH1 0x20 ADD PUSH1 0x40 MLOAD DUP1 SWAP2 SUB SWAP1 KECCAK256 DUP2 SWAP1 SSTORE POP PUSH1 0x3 DUP5 SWAP1 DUP1 PUSH1 0x1 DUP2 SLOAD ADD DUP1 DUP3 SSTORE DUP1 SWAP2 POP POP PUSH1 0x1 SWAP1 SUB SWAP1 PUSH0 MSTORE PUSH1 0x20 PUSH0 KECCAK256 ADD PUSH0 SWAP1 SWAP2 SWAP1 SWAP2 SWAP1 SWAP2 POP SWAP1 DUP2 PUSH2 0x156 SWAP2 SWAP1 PUSH2 0x9C4 JUMP JUMPDEST POP POP POP POP POP JUMP JUMPDEST PUSH0 PUSH1 0x2 DUP3 PUSH1 0x40 MLOAD PUSH2 0x16E SWAP2 SWAP1 PUSH2 0x7B4 JUMP JUMPDEST SWAP1 DUP2 MSTORE PUSH1 0x20 ADD PUSH1 0x40 MLOAD DUP1 SWAP2 SUB SWAP1 KECCAK256 SLOAD SWAP1 POP SWAP2 SWAP1 POP JUMP JUMPDEST PUSH1 0x60 PUSH1 0x3 DUP1 SLOAD DUP1 PUSH1 0x20 MUL PUSH1 0x20 ADD PUSH1 0x40 MLOAD SWAP1 DUP2 ADD PUSH1 0x40 MSTORE DUP1 SWAP3 SWAP2 SWAP1 DUP2 DUP2 MSTORE PUSH1 0x20 ADD PUSH0 SWAP1 JUMPDEST DUP3 DUP3 LT ISZERO PUSH2 0x24F JUMPI DUP4 DUP3 SWAP1 PUSH0 MSTORE PUSH1 0x20 PUSH0 KECCAK256 ADD DUP1 SLOAD PUSH2 0x1C4 SWAP1 PUSH2 0x7F7 JUMP JUMPDEST DUP1 PUSH1 0x1F ADD PUSH1 0x20 DUP1 SWAP2 DIV MUL PUSH1 0x20 ADD PUSH1 0x40 MLOAD SWAP1 DUP2 ADD PUSH1 0x40 MSTORE DUP1 SWAP3 SWAP2 SWAP1 DUP2 DUP2 MSTORE PUSH1 0x20 ADD DUP3 DUP1 SLOAD PUSH2 0x1F0 SWAP1 PUSH2 0x7F7 JUMP JUMPDEST DUP1 ISZERO PUSH2 0x23B JUMPI DUP1 PUSH1 0x1F LT PUSH2 0x212 JUMPI PUSH2 0x100 DUP1 DUP4 SLOAD DIV MUL DUP4 MSTORE SWAP2 PUSH1 0x20 ADD SWAP2 PUSH2 0x23B JUMP JUMPDEST DUP3 ADD SWAP2 SWAP1 PUSH0 MSTORE PUSH1 0x20 PUSH0 KECCAK256 SWAP1 JUMPDEST DUP2 SLOAD DUP2 MSTORE SWAP1 PUSH1 0x1 ADD SWAP1 PUSH1 0x20 ADD DUP1 DUP4 GT PUSH2 0x21E JUMPI DUP3 SWAP1 SUB PUSH1 0x1F AND DUP3 ADD SWAP2 JUMPDEST POP POP POP POP POP DUP2 MSTORE PUSH1 0x20 ADD SWAP1 PUSH1 0x1 ADD SWAP1 PUSH2 0x1A7 JUMP JUMPDEST POP POP POP POP SWAP1 POP SWAP1 JUMP JUMPDEST PUSH0 CALLER PUSH1 0x40 MLOAD PUSH1 0x20 ADD PUSH2 0x26A SWAP2 SWAP1 PUSH2 0xB08 JUMP JUMPDEST PUSH1 0x40 MLOAD PUSH1 0x20 DUP2 DUP4 SUB SUB DUP2 MSTORE SWAP1 PUSH1 0x40 MSTORE DUP1 MLOAD SWAP1 PUSH1 0x20 ADD KECCAK256 SWAP1 POP PUSH0 JUMPDEST PUSH1 0x4 DUP1 SLOAD SWAP1 POP DUP2 LT ISZERO PUSH2 0x2FC JUMPI DUP2 PUSH1 0x4 DUP3 DUP2 SLOAD DUP2 LT PUSH2 0x2A6 JUMPI PUSH2 0x2A5 PUSH2 0xB22 JUMP JUMPDEST JUMPDEST SWAP1 PUSH0 MSTORE PUSH1 0x20 PUSH0 KECCAK256 ADD SLOAD SUB PUSH2 0x2EF JUMPI PUSH1 0x40 MLOAD PUSH32 0x8C379A000000000000000000000000000000000000000000000000000000000 DUP2 MSTORE PUSH1 0x4 ADD PUSH2 0x2E6 SWAP1 PUSH2 0xBA9 JUMP JUMPDEST PUSH1 0x40 MLOAD DUP1 SWAP2 SUB SWAP1 REVERT JUMPDEST DUP1 DUP1 PUSH1 0x1 ADD SWAP2 POP POP PUSH2 0x284 JUMP JUMPDEST POP PUSH1 0x4 DUP2 SWAP1 DUP1 PUSH1 0x1 DUP2 SLOAD ADD DUP1 DUP3 SSTORE DUP1 SWAP2 POP POP PUSH1 0x1 SWAP1 SUB SWAP1 PUSH0 MSTORE PUSH1 0x20 PUSH0 KECCAK256 ADD PUSH0 SWAP1 SWAP2 SWAP1 SWAP2 SWAP1 SWAP2 POP SSTORE PUSH1 0x2 DUP3 PUSH1 0x40 MLOAD PUSH2 0x333 SWAP2 SWAP1 PUSH2 0x7B4 JUMP JUMPDEST SWAP1 DUP2 MSTORE PUSH1 0x20 ADD PUSH1 0x40 MLOAD DUP1 SWAP2 SUB SWAP1 KECCAK256 PUSH0 DUP2 SLOAD DUP1 SWAP3 SWAP2 SWAP1 PUSH2 0x351 SWAP1 PUSH2 0xBF4 JUMP JUMPDEST SWAP2 SWAP1 POP SSTORE POP POP POP JUMP JUMPDEST PUSH0 PUSH1 0x40 MLOAD SWAP1 POP SWAP1 JUMP JUMPDEST PUSH0 DUP1 REVERT JUMPDEST PUSH0 DUP1 REVERT JUMPDEST PUSH0 DUP1 REVERT JUMPDEST PUSH0 DUP1 REVERT JUMPDEST PUSH0 PUSH1 0x1F NOT PUSH1 0x1F DUP4 ADD AND SWAP1 POP SWAP2 SWAP1 POP JUMP JUMPDEST PUSH32 0x4E487B7100000000000000000000000000000000000000000000000000000000 PUSH0 MSTORE PUSH1 0x41 PUSH1 0x4 MSTORE PUSH1 0x24 PUSH0 REVERT JUMPDEST PUSH2 0x3B9 DUP3 PUSH2 0x373 JUMP JUMPDEST DUP2 ADD DUP2 DUP2 LT PUSH8 0xFFFFFFFFFFFFFFFF DUP3 GT OR ISZERO PUSH2 0x3D8 JUMPI PUSH2 0x3D7 PUSH2 0x383 JUMP JUMPDEST JUMPDEST DUP1 PUSH1 0x40 MSTORE POP POP POP JUMP JUMPDEST PUSH0 PUSH2 0x3EA PUSH2 0x35A JUMP JUMPDEST SWAP1 POP PUSH2 0x3F6 DUP3 DUP3 PUSH2 0x3B0 JUMP JUMPDEST SWAP2 SWAP1 POP JUMP JUMPDEST PUSH0 PUSH8 0xFFFFFFFFFFFFFFFF DUP3 GT ISZERO PUSH2 0x415 JUMPI PUSH2 0x414 PUSH2 0x383 JUMP JUMPDEST JUMPDEST PUSH2 0x41E DUP3 PUSH2 0x373 JUMP JUMPDEST SWAP1 POP PUSH1 0x20 DUP2 ADD SWAP1 POP SWAP2 SWAP1 POP JUMP JUMPDEST DUP3 DUP2 DUP4 CALLDATACOPY PUSH0 DUP4 DUP4 ADD MSTORE POP POP POP JUMP JUMPDEST PUSH0 PUSH2 0x44B PUSH2 0x446 DUP5 PUSH2 0x3FB JUMP JUMPDEST PUSH2 0x3E1 JUMP JUMPDEST SWAP1 POP DUP3 DUP2 MSTORE PUSH1 0x20 DUP2 ADD DUP5 DUP5 DUP5 ADD GT ISZERO PUSH2 0x467 JUMPI PUSH2 0x466 PUSH2 0x36F JUMP JUMPDEST JUMPDEST PUSH2 0x472 DUP5 DUP3 DUP6 PUSH2 0x42B JUMP JUMPDEST POP SWAP4 SWAP3 POP POP POP JUMP JUMPDEST PUSH0 DUP3 PUSH1 0x1F DUP4 ADD SLT PUSH2 0x48E JUMPI PUSH2 0x48D PUSH2 0x36B JUMP JUMPDEST JUMPDEST DUP2 CALLDATALOAD PUSH2 0x49E DUP5 DUP3 PUSH1 0x20 DUP7 ADD PUSH2 0x439 JUMP JUMPDEST SWAP2 POP POP SWAP3 SWAP2 POP POP JUMP JUMPDEST PUSH0 DUP2 SWAP1 POP SWAP2 SWAP1 POP JUMP JUMPDEST PUSH2 0x4B9 DUP2 PUSH2 0x4A7 JUMP JUMPDEST DUP2 EQ PUSH2 0x4C3 JUMPI PUSH0 DUP1 REVERT JUMPDEST POP JUMP JUMPDEST PUSH0 DUP2 CALLDATALOAD SWAP1 POP PUSH2 0x4D4 DUP2 PUSH2 0x4B0 JUMP JUMPDEST SWAP3 SWAP2 POP POP JUMP JUMPDEST PUSH0 DUP1 PUSH0 PUSH1 0x60 DUP5 DUP7 SUB SLT ISZERO PUSH2 0x4F1 JUMPI PUSH2 0x4F0 PUSH2 0x363 JUMP JUMPDEST JUMPDEST PUSH0 DUP5 ADD CALLDATALOAD PUSH8 0xFFFFFFFFFFFFFFFF DUP2 GT ISZERO PUSH2 0x50E JUMPI PUSH2 0x50D PUSH2 0x367 JUMP JUMPDEST JUMPDEST PUSH2 0x51A DUP7 DUP3 DUP8 ADD PUSH2 0x47A JUMP JUMPDEST SWAP4 POP POP PUSH1 0x20 PUSH2 0x52B DUP7 DUP3 DUP8 ADD PUSH2 0x4C6 JUMP JUMPDEST SWAP3 POP POP PUSH1 0x40 DUP5 ADD CALLDATALOAD PUSH8 0xFFFFFFFFFFFFFFFF DUP2 GT ISZERO PUSH2 0x54C JUMPI PUSH2 0x54B PUSH2 0x367 JUMP JUMPDEST JUMPDEST PUSH2 0x558 DUP7 DUP3 DUP8 ADD PUSH2 0x47A JUMP JUMPDEST SWAP2 POP POP SWAP3 POP SWAP3 POP SWAP3 JUMP JUMPDEST PUSH0 PUSH1 0x20 DUP3 DUP5 SUB SLT ISZERO PUSH2 0x577 JUMPI PUSH2 0x576 PUSH2 0x363 JUMP JUMPDEST JUMPDEST PUSH0 DUP3 ADD CALLDATALOAD PUSH8 0xFFFFFFFFFFFFFFFF DUP2 GT ISZERO PUSH2 0x594 JUMPI PUSH2 0x593 PUSH2 0x367 JUMP JUMPDEST JUMPDEST PUSH2 0x5A0 DUP5 DUP3 DUP6 ADD PUSH2 0x47A JUMP JUMPDEST SWAP2 POP POP SWAP3 SWAP2 POP POP JUMP JUMPDEST PUSH2 0x5B2 DUP2 PUSH2 0x4A7 JUMP JUMPDEST DUP3 MSTORE POP POP JUMP JUMPDEST PUSH0 PUSH1 0x20 DUP3 ADD SWAP1 POP PUSH2 0x5CB PUSH0 DUP4 ADD DUP5 PUSH2 0x5A9 JUMP JUMPDEST SWAP3 SWAP2 POP POP JUMP JUMPDEST PUSH0 DUP2 MLOAD SWAP1 POP SWAP2 SWAP1 POP JUMP JUMPDEST PUSH0 DUP3 DUP3 MSTORE PUSH1 0x20 DUP3 ADD SWAP1 POP SWAP3 SWAP2 POP POP JUMP JUMPDEST PUSH0 DUP2 SWAP1 POP PUSH1 0x20 DUP3 ADD SWAP1 POP SWAP2 SWAP1 POP JUMP JUMPDEST PUSH0 DUP2 MLOAD SWAP1 POP SWAP2 SWAP1 POP JUMP JUMPDEST PUSH0 DUP3 DUP3 MSTORE PUSH1 0x20 DUP3 ADD SWAP1 POP SWAP3 SWAP2 POP POP JUMP JUMPDEST PUSH0 JUMPDEST DUP4 DUP2 LT ISZERO PUSH2 0x631 JUMPI DUP1 DUP3 ADD MLOAD DUP2 DUP5 ADD MSTORE PUSH1 0x20 DUP2 ADD SWAP1 POP PUSH2 0x616 JUMP JUMPDEST PUSH0 DUP5 DUP5 ADD MSTORE POP POP POP POP JUMP JUMPDEST PUSH0 PUSH2 0x646 DUP3 PUSH2 0x5FA JUMP JUMPDEST PUSH2 0x650 DUP2 DUP6 PUSH2 0x604 JUMP JUMPDEST SWAP4 POP PUSH2 0x660 DUP2 DUP6 PUSH1 0x20 DUP7 ADD PUSH2 0x614 JUMP JUMPDEST PUSH2 0x669 DUP2 PUSH2 0x373 JUMP JUMPDEST DUP5 ADD SWAP2 POP POP SWAP3 SWAP2 POP POP JUMP JUMPDEST PUSH0 PUSH2 0x67F DUP4 DUP4 PUSH2 0x63C JUMP JUMPDEST SWAP1 POP SWAP3 SWAP2 POP POP JUMP JUMPDEST PUSH0 PUSH1 0x20 DUP3 ADD SWAP1 POP SWAP2 SWAP1 POP JUMP JUMPDEST PUSH0 PUSH2 0x69D DUP3 PUSH2 0x5D1 JUMP JUMPDEST PUSH2 0x6A7 DUP2 DUP6 PUSH2 0x5DB JUMP JUMPDEST SWAP4 POP DUP4 PUSH1 0x20 DUP3 MUL DUP6 ADD PUSH2 0x6B9 DUP6 PUSH2 0x5EB JUMP JUMPDEST DUP1 PUSH0 JUMPDEST DUP6 DUP2 LT ISZERO PUSH2 0x6F4 JUMPI DUP5 DUP5 SUB DUP10 MSTORE DUP2 MLOAD PUSH2 0x6D5 DUP6 DUP3 PUSH2 0x674 JUMP JUMPDEST SWAP5 POP PUSH2 0x6E0 DUP4 PUSH2 0x687 JUMP JUMPDEST SWAP3 POP PUSH1 0x20 DUP11 ADD SWAP10 POP POP PUSH1 0x1 DUP2 ADD SWAP1 POP PUSH2 0x6BC JUMP JUMPDEST POP DUP3 SWAP8 POP DUP8 SWAP6 POP POP POP POP POP POP SWAP3 SWAP2 POP POP JUMP JUMPDEST PUSH0 PUSH1 0x20 DUP3 ADD SWAP1 POP DUP2 DUP2 SUB PUSH0 DUP4 ADD MSTORE PUSH2 0x71E DUP2 DUP5 PUSH2 0x693 JUMP JUMPDEST SWAP1 POP SWAP3 SWAP2 POP POP JUMP JUMPDEST PUSH0 DUP2 SWAP1 POP SWAP3 SWAP2 POP POP JUMP JUMPDEST PUSH0 PUSH2 0x73A DUP3 PUSH2 0x5FA JUMP JUMPDEST PUSH2 0x744 DUP2 DUP6 PUSH2 0x726 JUMP JUMPDEST SWAP4 POP PUSH2 0x754 DUP2 DUP6 PUSH1 0x20 DUP7 ADD PUSH2 0x614 JUMP JUMPDEST DUP1 DUP5 ADD SWAP2 POP POP SWAP3 SWAP2 POP POP JUMP JUMPDEST PUSH0 DUP2 SWAP1 POP SWAP2 SWAP1 POP JUMP JUMPDEST PUSH2 0x77A PUSH2 0x775 DUP3 PUSH2 0x4A7 JUMP JUMPDEST PUSH2 0x760 JUMP JUMPDEST DUP3 MSTORE POP POP JUMP JUMPDEST PUSH0 PUSH2 0x78B DUP3 DUP7 PUSH2 0x730 JUMP JUMPDEST SWAP2 POP PUSH2 0x797 DUP3 DUP6 PUSH2 0x769 JUMP JUMPDEST PUSH1 0x20 DUP3 ADD SWAP2 POP PUSH2 0x7A7 DUP3 DUP5 PUSH2 0x730 JUMP JUMPDEST SWAP2 POP DUP2 SWAP1 POP SWAP5 SWAP4 POP POP POP POP JUMP JUMPDEST PUSH0 PUSH2 0x7BF DUP3 DUP5 PUSH2 0x730 JUMP JUMPDEST SWAP2 POP DUP2 SWAP1 POP SWAP3 SWAP2 POP POP JUMP JUMPDEST PUSH32 0x4E487B7100000000000000000000000000000000000000000000000000000000 PUSH0 MSTORE PUSH1 0x22 PUSH1 0x4 MSTORE PUSH1 0x24 PUSH0 REVERT JUMPDEST PUSH0 PUSH1 0x2 DUP3 DIV SWAP1 POP PUSH1 0x1 DUP3 AND DUP1 PUSH2 0x80E JUMPI PUSH1 0x7F DUP3 AND SWAP2 POP JUMPDEST PUSH1 0x20 DUP3 LT DUP2 SUB PUSH2 0x821 JUMPI PUSH2 0x820 PUSH2 0x7CA JUMP JUMPDEST JUMPDEST POP SWAP2 SWAP1 POP JUMP JUMPDEST PUSH0 DUP2 SWAP1 POP DUP2 PUSH0 MSTORE PUSH1 0x20 PUSH0 KECCAK256 SWAP1 POP SWAP2 SWAP1 POP JUMP JUMPDEST PUSH0 PUSH1 0x20 PUSH1 0x1F DUP4 ADD DIV SWAP1 POP SWAP2 SWAP1 POP JUMP JUMPDEST PUSH0 DUP3 DUP3 SHL SWAP1 POP SWAP3 SWAP2 POP POP JUMP JUMPDEST PUSH0 PUSH1 0x8 DUP4 MUL PUSH2 0x883 PUSH32 0xFFFFFFFFFFFFFFFFFFFFFFFFFFFFFFFFFFFFFFFFFFFFFFFFFFFFFFFFFFFFFFFF DUP3 PUSH2 0x848 JUMP JUMPDEST PUSH2 0x88D DUP7 DUP4 PUSH2 0x848 JUMP JUMPDEST SWAP6 POP DUP1 NOT DUP5 AND SWAP4 POP DUP1 DUP7 AND DUP5 OR SWAP3 POP POP POP SWAP4 SWAP3 POP POP POP JUMP JUMPDEST PUSH0 DUP2 SWAP1 POP SWAP2 SWAP1 POP JUMP JUMPDEST PUSH0 PUSH2 0x8C8 PUSH2 0x8C3 PUSH2 0x8BE DUP5 PUSH2 0x4A7 JUMP JUMPDEST PUSH2 0x8A5 JUMP JUMPDEST PUSH2 0x4A7 JUMP JUMPDEST SWAP1 POP SWAP2 SWAP1 POP JUMP JUMPDEST PUSH0 DUP2 SWAP1 POP SWAP2 SWAP1 POP JUMP JUMPDEST PUSH2 0x8E1 DUP4 PUSH2 0x8AE JUMP JUMPDEST PUSH2 0x8F5 PUSH2 0x8ED DUP3 PUSH2 0x8CF JUMP JUMPDEST DUP5 DUP5 SLOAD PUSH2 0x854 JUMP JUMPDEST DUP3 SSTORE POP POP POP POP JUMP JUMPDEST PUSH0 SWAP1 JUMP JUMPDEST PUSH2 0x909 PUSH2 0x8FD JUMP JUMPDEST PUSH2 0x914 DUP2 DUP5 DUP5 PUSH2 0x8D8 JUMP JUMPDEST POP POP POP JUMP JUMPDEST JUMPDEST DUP2 DUP2 LT ISZERO PUSH2 0x937 JUMPI PUSH2 0x92C PUSH0 DUP3 PUSH2 0x901 JUMP JUMPDEST PUSH1 0x1 DUP2 ADD SWAP1 POP PUSH2 0x91A JUMP JUMPDEST POP POP JUMP JUMPDEST PUSH1 0x1F DUP3 GT ISZERO PUSH2 0x97C JUMPI PUSH2 0x94D DUP2 PUSH2 0x827 JUMP JUMPDEST PUSH2 0x956 DUP5 PUSH2 0x839 JUMP JUMPDEST DUP2 ADD PUSH1 0x20 DUP6 LT ISZERO PUSH2 0x965 JUMPI DUP2 SWAP1 POP JUMPDEST PUSH2 0x979 PUSH2 0x971 DUP6 PUSH2 0x839 JUMP JUMPDEST DUP4 ADD DUP3 PUSH2 0x919 JUMP JUMPDEST POP POP JUMPDEST POP POP POP JUMP JUMPDEST PUSH0 DUP3 DUP3 SHR SWAP1 POP SWAP3 SWAP2 POP POP JUMP JUMPDEST PUSH0 PUSH2 0x99C PUSH0 NOT DUP5 PUSH1 0x8 MUL PUSH2 0x981 JUMP JUMPDEST NOT DUP1 DUP4 AND SWAP2 POP POP SWAP3 SWAP2 POP POP JUMP JUMPDEST PUSH0 PUSH2 0x9B4 DUP4 DUP4 PUSH2 0x98D JUMP JUMPDEST SWAP2 POP DUP3 PUSH1 0x2 MUL DUP3 OR SWAP1 POP SWAP3 SWAP2 POP POP JUMP JUMPDEST PUSH2 0x9CD DUP3 PUSH2 0x5FA JUMP JUMPDEST PUSH8 0xFFFFFFFFFFFFFFFF DUP2 GT ISZERO PUSH2 0x9E6 JUMPI PUSH2 0x9E5 PUSH2 0x383 JUMP JUMPDEST JUMPDEST PUSH2 0x9F0 DUP3 SLOAD PUSH2 0x7F7 JUMP JUMPDEST PUSH2 0x9FB DUP3 DUP3 DUP6 PUSH2 0x93B JUMP JUMPDEST PUSH0 PUSH1 0x20 SWAP1 POP PUSH1 0x1F DUP4 GT PUSH1 0x1 DUP2 EQ PUSH2 0xA2C JUMPI PUSH0 DUP5 ISZERO PUSH2 0xA1A JUMPI DUP3 DUP8 ADD MLOAD SWAP1 POP JUMPDEST PUSH2 0xA24 DUP6 DUP3 PUSH2 0x9A9 JUMP JUMPDEST DUP7 SSTORE POP PUSH2 0xA8B JUMP JUMPDEST PUSH1 0x1F NOT DUP5 AND PUSH2 0xA3A DUP7 PUSH2 0x827 JUMP JUMPDEST PUSH0 JUMPDEST DUP3 DUP2 LT ISZERO PUSH2 0xA61 JUMPI DUP5 DUP10 ADD MLOAD DUP3 SSTORE PUSH1 0x1 DUP3 ADD SWAP2 POP PUSH1 0x20 DUP6 ADD SWAP5 POP PUSH1 0x20 DUP2 ADD SWAP1 POP PUSH2 0xA3C JUMP JUMPDEST DUP7 DUP4 LT ISZERO PUSH2 0xA7E JUMPI DUP5 DUP10 ADD MLOAD PUSH2 0xA7A PUSH1 0x1F DUP10 AND DUP3 PUSH2 0x98D JUMP JUMPDEST DUP4 SSTORE POP JUMPDEST PUSH1 0x1 PUSH1 0x2 DUP9 MUL ADD DUP9 SSTORE POP POP POP JUMPDEST POP POP POP POP POP POP JUMP JUMPDEST PUSH0 PUSH20 0xFFFFFFFFFFFFFFFFFFFFFFFFFFFFFFFFFFFFFFFF DUP3 AND SWAP1 POP SWAP2 SWAP1 POP JUMP JUMPDEST PUSH0 PUSH2 0xABC DUP3 PUSH2 0xA93 JUMP JUMPDEST SWAP1 POP SWAP2 SWAP1 POP JUMP JUMPDEST PUSH0 DUP2 PUSH1 0x60 SHL SWAP1 POP SWAP2 SWAP1 POP JUMP JUMPDEST PUSH0 PUSH2 0xAD9 DUP3 PUSH2 0xAC3 JUMP JUMPDEST SWAP1 POP SWAP2 SWAP1 POP JUMP JUMPDEST PUSH0 PUSH2 0xAEA DUP3 PUSH2 0xACF JUMP JUMPDEST SWAP1 POP SWAP2 SWAP1 POP JUMP JUMPDEST PUSH2 0xB02 PUSH2 0xAFD DUP3 PUSH2 0xAB2 JUMP JUMPDEST PUSH2 0xAE0 JUMP JUMPDEST DUP3 MSTORE POP POP JUMP JUMPDEST PUSH0 PUSH2 0xB13 DUP3 DUP5 PUSH2 0xAF1 JUMP JUMPDEST PUSH1 0x14 DUP3 ADD SWAP2 POP DUP2 SWAP1 POP SWAP3 SWAP2 POP POP JUMP JUMPDEST PUSH32 0x4E487B7100000000000000000000000000000000000000000000000000000000 PUSH0 MSTORE PUSH1 0x32 PUSH1 0x4 MSTORE PUSH1 0x24 PUSH0 REVERT JUMPDEST PUSH0 DUP3 DUP3 MSTORE PUSH1 0x20 DUP3 ADD SWAP1 POP SWAP3 SWAP2 POP POP JUMP JUMPDEST PUSH32 0x59612068617320766F7461646F207072657669616D656E746500000000000000 PUSH0 DUP3 ADD MSTORE POP JUMP JUMPDEST PUSH0 PUSH2 0xB93 PUSH1 0x19 DUP4 PUSH2 0xB4F JUMP JUMPDEST SWAP2 POP PUSH2 0xB9E DUP3 PUSH2 0xB5F JUMP JUMPDEST PUSH1 0x20 DUP3 ADD SWAP1 POP SWAP2 SWAP1 POP JUMP JUMPDEST PUSH0 PUSH1 0x20 DUP3 ADD SWAP1 POP DUP2 DUP2 SUB PUSH0 DUP4 ADD MSTORE PUSH2 0xBC0 DUP2 PUSH2 0xB87 JUMP JUMPDEST SWAP1 POP SWAP2 SWAP1 POP JUMP JUMPDEST PUSH32 0x4E487B7100000000000000000000000000000000000000000000000000000000 PUSH0 MSTORE PUSH1 0x11 PUSH1 0x4 MSTORE PUSH1 0x24 PUSH0 REVERT JUMPDEST PUSH0 PUSH2 0xBFE DUP3 PUSH2 0x4A7 JUMP JUMPDEST SWAP2 POP PUSH32 0xFFFFFFFFFFFFFFFFFFFFFFFFFFFFFFFFFFFFFFFFFFFFFFFFFFFFFFFFFFFFFFFF DUP3 SUB PUSH2 0xC30 JUMPI PUSH2 0xC2F PUSH2 0xBC7 JUMP JUMPDEST JUMPDEST PUSH1 0x1 DUP3 ADD SWAP1 POP SWAP2 SWAP1 POP JUMP INVALID LOG2 PUSH5 0x6970667358 0x22 SLT KECCAK256 0xE9 SWAP3 SUB 0xB4 EXP 0xE 0xCC 0x23 CALL PUSH2 0x69A1 BLOCKHASH SWAP14 SDIV SIGNEXTEND SIGNEXTEND PUSH17 0x7C1B794BFAB90FB7BDBE0B16B2D364736F PUSH13 0x63430008160033000000000000 "
				},
				"gasEstimates": {
					"creation": {
						"codeDepositCost": "637000",
						"executionCost": "24933",
						"totalCost": "661933"
					},
					"external": {
						"representar(string,uint256,string)": "infinite",
						"verCandidatos()": "infinite",
						"verVotos(string)": "infinite",
						"votar(string)": "infinite"
					}
				},
				"methodIdentifiers": {
					"representar(string,uint256,string)": "2e9452bc",
					"verCandidatos()": "caaa49a6",
					"verVotos(string)": "60df75d4",
					"votar(string)": "ce3fe641"
				}
			},
			"storageLayout": {
				"storage": [
					{
						"astId": 3,
						"contract": "VOTACIONES/Votaciones.sol:Votacion",
						"label": "owner",
						"offset": 0,
						"slot": "0",
						"type": "t_address"
					},
					{
						"astId": 7,
						"contract": "VOTACIONES/Votaciones.sol:Votacion",
						"label": "idCandidato",
						"offset": 0,
						"slot": "1",
						"type": "t_mapping(t_string_memory_ptr,t_bytes32)"
					},
					{
						"astId": 11,
						"contract": "VOTACIONES/Votaciones.sol:Votacion",
						"label": "votosCandidato",
						"offset": 0,
						"slot": "2",
						"type": "t_mapping(t_string_memory_ptr,t_uint256)"
					},
					{
						"astId": 14,
						"contract": "VOTACIONES/Votaciones.sol:Votacion",
						"label": "candidatos",
						"offset": 0,
						"slot": "3",
						"type": "t_array(t_string_storage)dyn_storage"
					},
					{
						"astId": 17,
						"contract": "VOTACIONES/Votaciones.sol:Votacion",
						"label": "votantes",
						"offset": 0,
						"slot": "4",
						"type": "t_array(t_bytes32)dyn_storage"
					}
				],
				"types": {
					"t_address": {
						"encoding": "inplace",
						"label": "address",
						"numberOfBytes": "20"
					},
					"t_array(t_bytes32)dyn_storage": {
						"base": "t_bytes32",
						"encoding": "dynamic_array",
						"label": "bytes32[]",
						"numberOfBytes": "32"
					},
					"t_array(t_string_storage)dyn_storage": {
						"base": "t_string_storage",
						"encoding": "dynamic_array",
						"label": "string[]",
						"numberOfBytes": "32"
					},
					"t_bytes32": {
						"encoding": "inplace",
						"label": "bytes32",
						"numberOfBytes": "32"
					},
					"t_mapping(t_string_memory_ptr,t_bytes32)": {
						"encoding": "mapping",
						"key": "t_string_memory_ptr",
						"label": "mapping(string => bytes32)",
						"numberOfBytes": "32",
						"value": "t_bytes32"
					},
					"t_mapping(t_string_memory_ptr,t_uint256)": {
						"encoding": "mapping",
						"key": "t_string_memory_ptr",
						"label": "mapping(string => uint256)",
						"numberOfBytes": "32",
						"value": "t_uint256"
					},
					"t_string_memory_ptr": {
						"encoding": "bytes",
						"label": "string",
						"numberOfBytes": "32"
					},
					"t_string_storage": {
						"encoding": "bytes",
						"label": "string",
						"numberOfBytes": "32"
					},
					"t_uint256": {
						"encoding": "inplace",
						"label": "uint256",
						"numberOfBytes": "32"
					}
				}
			},
			"userdoc": {
				"kind": "user",
				"methods": {},
				"version": 1
			}
		}
	}
}