{
	"NOTAS/Notas.sol": {
		"Notas": {
			"abi": [
				{
					"inputs": [],
					"stateMutability": "nonpayable",
					"type": "constructor"
				},
				{
					"anonymous": false,
					"inputs": [
						{
							"indexed": false,
							"internalType": "bytes32",
							"name": "",
							"type": "bytes32"
						}
					],
					"name": "alumnoEvaluado",
					"type": "event"
				},
				{
					"anonymous": false,
					"inputs": [
						{
							"indexed": false,
							"internalType": "string",
							"name": "",
							"type": "string"
						}
					],
					"name": "eventoRevision",
					"type": "event"
				},
				{
					"inputs": [
						{
							"internalType": "string",
							"name": "_idAlumno",
							"type": "string"
						},
						{
							"internalType": "uint256",
							"name": "_nota",
							"type": "uint256"
						}
					],
					"name": "evaluar",
					"outputs": [],
					"stateMutability": "nonpayable",
					"type": "function"
				},
				{
					"inputs": [],
					"name": "profesor",
					"outputs": [
						{
							"internalType": "address",
							"name": "",
							"type": "address"
						}
					],
					"stateMutability": "view",
					"type": "function"
				},
				{
					"inputs": [
						{
							"internalType": "string",
							"name": "_idAlumno",
							"type": "string"
						}
					],
					"name": "revision",
					"outputs": [],
					"stateMutability": "nonpayable",
					"type": "function"
				},
				{
					"inputs": [
						{
							"internalType": "string",
							"name": "_idAlumno",
							"type": "string"
						}
					],
					"name": "verNotas",
					"outputs": [
						{
							"internalType": "uint256",
							"name": "",
							"type": "uint256"
						}
					],
					"stateMutability": "view",
					"type": "function"
				},
				{
					"inputs": [],
					"name": "verRevisiones",
					"outputs": [
						{
							"internalType": "string[]",
							"name": "",
							"type": "string[]"
						}
					],
					"stateMutability": "view",
					"type": "function"
				}
			],
			"devdoc": {
				"kind": "dev",
				"methods": {},
				"version": 1
			},
			"evm": {
				"assembly": "    /* \"NOTAS/Notas.sol\":302:2457  contract Notas {... */\n  mstore(0x40, 0x80)\n    /* \"NOTAS/Notas.sol\":601:653  constructor() {... */\n  callvalue\n  dup1\n  iszero\n  tag_1\n  jumpi\n  0x00\n  dup1\n  revert\ntag_1:\n  pop\n    /* \"NOTAS/Notas.sol\":636:646  msg.sender */\n  caller\n    /* \"NOTAS/Notas.sol\":625:633  profesor */\n  0x00\n  dup1\n    /* \"NOTAS/Notas.sol\":625:646  profesor = msg.sender */\n  0x0100\n  exp\n  dup2\n  sload\n  dup2\n  0xffffffffffffffffffffffffffffffffffffffff\n  mul\n  not\n  and\n  swap1\n  dup4\n  0xffffffffffffffffffffffffffffffffffffffff\n  and\n  mul\n  or\n  swap1\n  sstore\n  pop\n    /* \"NOTAS/Notas.sol\":302:2457  contract Notas {... */\n  dataSize(sub_0)\n  dup1\n  dataOffset(sub_0)\n  0x00\n  codecopy\n  0x00\n  return\nstop\n\nsub_0: assembly {\n        /* \"NOTAS/Notas.sol\":302:2457  contract Notas {... */\n      mstore(0x40, 0x80)\n      callvalue\n      dup1\n      iszero\n      tag_1\n      jumpi\n      0x00\n      dup1\n      revert\n    tag_1:\n      pop\n      jumpi(tag_2, lt(calldatasize, 0x04))\n      shr(0xe0, calldataload(0x00))\n      dup1\n      0x383bebae\n      eq\n      tag_3\n      jumpi\n      dup1\n      0x398dfa79\n      eq\n      tag_4\n      jumpi\n      dup1\n      0xca981d91\n      eq\n      tag_5\n      jumpi\n      dup1\n      0xdeafddae\n      eq\n      tag_6\n      jumpi\n      dup1\n      0xdf096576\n      eq\n      tag_7\n      jumpi\n    tag_2:\n      0x00\n      dup1\n      revert\n        /* \"NOTAS/Notas.sol\":1076:1481  function evaluar(string memory _idAlumno, uint256 _nota)... */\n    tag_3:\n      tag_8\n      0x04\n      dup1\n      calldatasize\n      sub\n      dup2\n      add\n      swap1\n      tag_9\n      swap2\n      swap1\n      tag_10\n      jump\t// in\n    tag_9:\n      tag_11\n      jump\t// in\n    tag_8:\n      stop\n        /* \"NOTAS/Notas.sol\":2248:2455  function verRevisiones()... */\n    tag_4:\n      tag_12\n      tag_13\n      jump\t// in\n    tag_12:\n      mload(0x40)\n      tag_14\n      swap2\n      swap1\n      tag_15\n      jump\t// in\n    tag_14:\n      mload(0x40)\n      dup1\n      swap2\n      sub\n      swap1\n      return\n        /* \"NOTAS/Notas.sol\":1940:2168  function revision(string memory _idAlumno) public {... */\n    tag_5:\n      tag_16\n      0x04\n      dup1\n      calldatasize\n      sub\n      dup2\n      add\n      swap1\n      tag_17\n      swap2\n      swap1\n      tag_18\n      jump\t// in\n    tag_17:\n      tag_19\n      jump\t// in\n    tag_16:\n      stop\n        /* \"NOTAS/Notas.sol\":1534:1884  function verNotas(string memory _idAlumno) public view returns (uint256) {... */\n    tag_6:\n      tag_20\n      0x04\n      dup1\n      calldatasize\n      sub\n      dup2\n      add\n      swap1\n      tag_21\n      swap2\n      swap1\n      tag_18\n      jump\t// in\n    tag_21:\n      tag_22\n      jump\t// in\n    tag_20:\n      mload(0x40)\n      tag_23\n      swap2\n      swap1\n      tag_24\n      jump\t// in\n    tag_23:\n      mload(0x40)\n      dup1\n      swap2\n      sub\n      swap1\n      return\n        /* \"NOTAS/Notas.sol\":353:376  address public profesor */\n    tag_7:\n      tag_25\n      tag_26\n      jump\t// in\n    tag_25:\n      mload(0x40)\n      tag_27\n      swap2\n      swap1\n      tag_28\n      jump\t// in\n    tag_27:\n      mload(0x40)\n      dup1\n      swap2\n      sub\n      swap1\n      return\n        /* \"NOTAS/Notas.sol\":1076:1481  function evaluar(string memory _idAlumno, uint256 _nota)... */\n    tag_11:\n        /* \"NOTAS/Notas.sol\":1167:1177  msg.sender */\n      caller\n        /* \"NOTAS/Notas.sol\":931:939  profesor */\n      0x00\n      dup1\n      sload\n      swap1\n      0x0100\n      exp\n      swap1\n      div\n      0xffffffffffffffffffffffffffffffffffffffff\n      and\n        /* \"NOTAS/Notas.sol\":917:939  _direccion == profesor */\n      0xffffffffffffffffffffffffffffffffffffffff\n      and\n        /* \"NOTAS/Notas.sol\":917:927  _direccion */\n      dup2\n        /* \"NOTAS/Notas.sol\":917:939  _direccion == profesor */\n      0xffffffffffffffffffffffffffffffffffffffff\n      and\n      eq\n        /* \"NOTAS/Notas.sol\":896:1010  require(... */\n      tag_30\n      jumpi\n      mload(0x40)\n      0x08c379a000000000000000000000000000000000000000000000000000000000\n      dup2\n      mstore\n      0x04\n      add\n      tag_31\n      swap1\n      tag_32\n      jump\t// in\n    tag_31:\n      mload(0x40)\n      dup1\n      swap2\n      sub\n      swap1\n      revert\n    tag_30:\n        /* \"NOTAS/Notas.sol\":1241:1261  bytes32 hashIdAlumno */\n      0x00\n        /* \"NOTAS/Notas.sol\":1291:1300  _idAlumno */\n      dup4\n        /* \"NOTAS/Notas.sol\":1274:1301  abi.encodePacked(_idAlumno) */\n      add(0x20, mload(0x40))\n      tag_34\n      swap2\n      swap1\n      tag_35\n      jump\t// in\n    tag_34:\n      mload(0x40)\n      0x20\n      dup2\n      dup4\n      sub\n      sub\n      dup2\n      mstore\n      swap1\n      0x40\n      mstore\n        /* \"NOTAS/Notas.sol\":1264:1302  keccak256(abi.encodePacked(_idAlumno)) */\n      dup1\n      mload\n      swap1\n      0x20\n      add\n      keccak256\n        /* \"NOTAS/Notas.sol\":1241:1302  bytes32 hashIdAlumno = keccak256(abi.encodePacked(_idAlumno)) */\n      swap1\n      pop\n        /* \"NOTAS/Notas.sol\":1396:1401  _nota */\n      dup3\n        /* \"NOTAS/Notas.sol\":1374:1379  notas */\n      0x01\n        /* \"NOTAS/Notas.sol\":1374:1393  notas[hashIdAlumno] */\n      0x00\n        /* \"NOTAS/Notas.sol\":1380:1392  hashIdAlumno */\n      dup4\n        /* \"NOTAS/Notas.sol\":1374:1393  notas[hashIdAlumno] */\n      dup2\n      mstore\n      0x20\n      add\n      swap1\n      dup2\n      mstore\n      0x20\n      add\n      0x00\n      keccak256\n        /* \"NOTAS/Notas.sol\":1374:1401  notas[hashIdAlumno] = _nota */\n      dup2\n      swap1\n      sstore\n      pop\n        /* \"NOTAS/Notas.sol\":1446:1474  alumnoEvaluado(hashIdAlumno) */\n      0x0a3c6f62477defa9fa18ec25f11bc12442e443ba8e3d8f822e381b98c0f39b08\n        /* \"NOTAS/Notas.sol\":1461:1473  hashIdAlumno */\n      dup2\n        /* \"NOTAS/Notas.sol\":1446:1474  alumnoEvaluado(hashIdAlumno) */\n      mload(0x40)\n      tag_36\n      swap2\n      swap1\n      tag_37\n      jump\t// in\n    tag_36:\n      mload(0x40)\n      dup1\n      swap2\n      sub\n      swap1\n      log1\n        /* \"NOTAS/Notas.sol\":1183:1481  {... */\n      pop\n        /* \"NOTAS/Notas.sol\":1076:1481  function evaluar(string memory _idAlumno, uint256 _nota)... */\n      pop\n      pop\n      pop\n      jump\t// out\n        /* \"NOTAS/Notas.sol\":2248:2455  function verRevisiones()... */\n    tag_13:\n        /* \"NOTAS/Notas.sol\":2349:2364  string[] memory */\n      0x60\n        /* \"NOTAS/Notas.sol\":2320:2330  msg.sender */\n      caller\n        /* \"NOTAS/Notas.sol\":931:939  profesor */\n      0x00\n      dup1\n      sload\n      swap1\n      0x0100\n      exp\n      swap1\n      div\n      0xffffffffffffffffffffffffffffffffffffffff\n      and\n        /* \"NOTAS/Notas.sol\":917:939  _direccion == profesor */\n      0xffffffffffffffffffffffffffffffffffffffff\n      and\n        /* \"NOTAS/Notas.sol\":917:927  _direccion */\n      dup2\n        /* \"NOTAS/Notas.sol\":917:939  _direccion == profesor */\n      0xffffffffffffffffffffffffffffffffffffffff\n      and\n      eq\n        /* \"NOTAS/Notas.sol\":896:1010  require(... */\n      tag_39\n      jumpi\n      mload(0x40)\n      0x08c379a000000000000000000000000000000000000000000000000000000000\n      dup2\n      mstore\n      0x04\n      add\n      tag_40\n      swap1\n      tag_32\n      jump\t// in\n    tag_40:\n      mload(0x40)\n      dup1\n      swap2\n      sub\n      swap1\n      revert\n    tag_39:\n        /* \"NOTAS/Notas.sol\":2438:2448  revisiones */\n      0x02\n        /* \"NOTAS/Notas.sol\":2431:2448  return revisiones */\n      dup1\n      sload\n      dup1\n      0x20\n      mul\n      0x20\n      add\n      mload(0x40)\n      swap1\n      dup2\n      add\n      0x40\n      mstore\n      dup1\n      swap3\n      swap2\n      swap1\n      dup2\n      dup2\n      mstore\n      0x20\n      add\n      0x00\n      swap1\n    tag_42:\n      dup3\n      dup3\n      lt\n      iszero\n      tag_43\n      jumpi\n      dup4\n      dup3\n      swap1\n      0x00\n      mstore\n      keccak256(0x00, 0x20)\n      add\n      dup1\n      sload\n      tag_45\n      swap1\n      tag_46\n      jump\t// in\n    tag_45:\n      dup1\n      0x1f\n      add\n      0x20\n      dup1\n      swap2\n      div\n      mul\n      0x20\n      add\n      mload(0x40)\n      swap1\n      dup2\n      add\n      0x40\n      mstore\n      dup1\n      swap3\n      swap2\n      swap1\n      dup2\n      dup2\n      mstore\n      0x20\n      add\n      dup3\n      dup1\n      sload\n      tag_47\n      swap1\n      tag_46\n      jump\t// in\n    tag_47:\n      dup1\n      iszero\n      tag_48\n      jumpi\n      dup1\n      0x1f\n      lt\n      tag_49\n      jumpi\n      0x0100\n      dup1\n      dup4\n      sload\n      div\n      mul\n      dup4\n      mstore\n      swap2\n      0x20\n      add\n      swap2\n      jump(tag_48)\n    tag_49:\n      dup3\n      add\n      swap2\n      swap1\n      0x00\n      mstore\n      keccak256(0x00, 0x20)\n      swap1\n    tag_50:\n      dup2\n      sload\n      dup2\n      mstore\n      swap1\n      0x01\n      add\n      swap1\n      0x20\n      add\n      dup1\n      dup4\n      gt\n      tag_50\n      jumpi\n      dup3\n      swap1\n      sub\n      0x1f\n      and\n      dup3\n      add\n      swap2\n    tag_48:\n      pop\n      pop\n      pop\n      pop\n      pop\n      dup2\n      mstore\n      0x20\n      add\n      swap1\n      0x01\n      add\n      swap1\n      jump(tag_42)\n    tag_43:\n      pop\n      pop\n      pop\n      pop\n      swap2\n      pop\n        /* \"NOTAS/Notas.sol\":2248:2455  function verRevisiones()... */\n      pop\n      swap1\n      jump\t// out\n        /* \"NOTAS/Notas.sol\":1940:2168  function revision(string memory _idAlumno) public {... */\n    tag_19:\n        /* \"NOTAS/Notas.sol\":2065:2075  revisiones */\n      0x02\n        /* \"NOTAS/Notas.sol\":2081:2090  _idAlumno */\n      dup2\n        /* \"NOTAS/Notas.sol\":2065:2091  revisiones.push(_idAlumno) */\n      swap1\n      dup1\n      0x01\n      dup2\n      sload\n      add\n      dup1\n      dup3\n      sstore\n      dup1\n      swap2\n      pop\n      pop\n      0x01\n      swap1\n      sub\n      swap1\n      0x00\n      mstore\n      keccak256(0x00, 0x20)\n      add\n      0x00\n      swap1\n      swap2\n      swap1\n      swap2\n      swap1\n      swap2\n      pop\n      swap1\n      dup2\n      tag_53\n      swap2\n      swap1\n      tag_54\n      jump\t// in\n    tag_53:\n      pop\n        /* \"NOTAS/Notas.sol\":2136:2161  eventoRevision(_idAlumno) */\n      0x2106682f28b0ca24370a9e991461ab39ab8032fb3df73fb628728436cf5bcdf6\n        /* \"NOTAS/Notas.sol\":2151:2160  _idAlumno */\n      dup2\n        /* \"NOTAS/Notas.sol\":2136:2161  eventoRevision(_idAlumno) */\n      mload(0x40)\n      tag_55\n      swap2\n      swap1\n      tag_56\n      jump\t// in\n    tag_55:\n      mload(0x40)\n      dup1\n      swap2\n      sub\n      swap1\n      log1\n        /* \"NOTAS/Notas.sol\":1940:2168  function revision(string memory _idAlumno) public {... */\n      pop\n      jump\t// out\n        /* \"NOTAS/Notas.sol\":1534:1884  function verNotas(string memory _idAlumno) public view returns (uint256) {... */\n    tag_22:\n        /* \"NOTAS/Notas.sol\":1598:1605  uint256 */\n      0x00\n        /* \"NOTAS/Notas.sol\":1665:1685  bytes32 hashIdAlumno */\n      dup1\n        /* \"NOTAS/Notas.sol\":1715:1724  _idAlumno */\n      dup3\n        /* \"NOTAS/Notas.sol\":1698:1725  abi.encodePacked(_idAlumno) */\n      add(0x20, mload(0x40))\n      tag_58\n      swap2\n      swap1\n      tag_35\n      jump\t// in\n    tag_58:\n      mload(0x40)\n      0x20\n      dup2\n      dup4\n      sub\n      sub\n      dup2\n      mstore\n      swap1\n      0x40\n      mstore\n        /* \"NOTAS/Notas.sol\":1688:1726  keccak256(abi.encodePacked(_idAlumno)) */\n      dup1\n      mload\n      swap1\n      0x20\n      add\n      keccak256\n        /* \"NOTAS/Notas.sol\":1665:1726  bytes32 hashIdAlumno = keccak256(abi.encodePacked(_idAlumno)) */\n      swap1\n      pop\n        /* \"NOTAS/Notas.sol\":1780:1798  uint256 notaAlumno */\n      0x00\n        /* \"NOTAS/Notas.sol\":1801:1806  notas */\n      0x01\n        /* \"NOTAS/Notas.sol\":1801:1820  notas[hashIdAlumno] */\n      0x00\n        /* \"NOTAS/Notas.sol\":1807:1819  hashIdAlumno */\n      dup4\n        /* \"NOTAS/Notas.sol\":1801:1820  notas[hashIdAlumno] */\n      dup2\n      mstore\n      0x20\n      add\n      swap1\n      dup2\n      mstore\n      0x20\n      add\n      0x00\n      keccak256\n      sload\n        /* \"NOTAS/Notas.sol\":1780:1820  uint256 notaAlumno = notas[hashIdAlumno] */\n      swap1\n      pop\n        /* \"NOTAS/Notas.sol\":1867:1877  notaAlumno */\n      dup1\n        /* \"NOTAS/Notas.sol\":1860:1877  return notaAlumno */\n      swap3\n      pop\n      pop\n      pop\n        /* \"NOTAS/Notas.sol\":1534:1884  function verNotas(string memory _idAlumno) public view returns (uint256) {... */\n      swap2\n      swap1\n      pop\n      jump\t// out\n        /* \"NOTAS/Notas.sol\":353:376  address public profesor */\n    tag_26:\n      0x00\n      dup1\n      sload\n      swap1\n      0x0100\n      exp\n      swap1\n      div\n      0xffffffffffffffffffffffffffffffffffffffff\n      and\n      dup2\n      jump\t// out\n        /* \"#utility.yul\":7:82   */\n    tag_59:\n        /* \"#utility.yul\":40:46   */\n      0x00\n        /* \"#utility.yul\":73:75   */\n      0x40\n        /* \"#utility.yul\":67:76   */\n      mload\n        /* \"#utility.yul\":57:76   */\n      swap1\n      pop\n        /* \"#utility.yul\":7:82   */\n      swap1\n      jump\t// out\n        /* \"#utility.yul\":88:205   */\n    tag_60:\n        /* \"#utility.yul\":197:198   */\n      0x00\n        /* \"#utility.yul\":194:195   */\n      dup1\n        /* \"#utility.yul\":187:199   */\n      revert\n        /* \"#utility.yul\":211:328   */\n    tag_61:\n        /* \"#utility.yul\":320:321   */\n      0x00\n        /* \"#utility.yul\":317:318   */\n      dup1\n        /* \"#utility.yul\":310:322   */\n      revert\n        /* \"#utility.yul\":334:451   */\n    tag_62:\n        /* \"#utility.yul\":443:444   */\n      0x00\n        /* \"#utility.yul\":440:441   */\n      dup1\n        /* \"#utility.yul\":433:445   */\n      revert\n        /* \"#utility.yul\":457:574   */\n    tag_63:\n        /* \"#utility.yul\":566:567   */\n      0x00\n        /* \"#utility.yul\":563:564   */\n      dup1\n        /* \"#utility.yul\":556:568   */\n      revert\n        /* \"#utility.yul\":580:682   */\n    tag_64:\n        /* \"#utility.yul\":621:627   */\n      0x00\n        /* \"#utility.yul\":672:674   */\n      0x1f\n        /* \"#utility.yul\":668:675   */\n      not\n        /* \"#utility.yul\":663:665   */\n      0x1f\n        /* \"#utility.yul\":656:661   */\n      dup4\n        /* \"#utility.yul\":652:666   */\n      add\n        /* \"#utility.yul\":648:676   */\n      and\n        /* \"#utility.yul\":638:676   */\n      swap1\n      pop\n        /* \"#utility.yul\":580:682   */\n      swap2\n      swap1\n      pop\n      jump\t// out\n        /* \"#utility.yul\":688:868   */\n    tag_65:\n        /* \"#utility.yul\":736:813   */\n      0x4e487b7100000000000000000000000000000000000000000000000000000000\n        /* \"#utility.yul\":733:734   */\n      0x00\n        /* \"#utility.yul\":726:814   */\n      mstore\n        /* \"#utility.yul\":833:837   */\n      0x41\n        /* \"#utility.yul\":830:831   */\n      0x04\n        /* \"#utility.yul\":823:838   */\n      mstore\n        /* \"#utility.yul\":857:861   */\n      0x24\n        /* \"#utility.yul\":854:855   */\n      0x00\n        /* \"#utility.yul\":847:862   */\n      revert\n        /* \"#utility.yul\":874:1155   */\n    tag_66:\n        /* \"#utility.yul\":957:984   */\n      tag_122\n        /* \"#utility.yul\":979:983   */\n      dup3\n        /* \"#utility.yul\":957:984   */\n      tag_64\n      jump\t// in\n    tag_122:\n        /* \"#utility.yul\":949:955   */\n      dup2\n        /* \"#utility.yul\":945:985   */\n      add\n        /* \"#utility.yul\":1087:1093   */\n      dup2\n        /* \"#utility.yul\":1075:1085   */\n      dup2\n        /* \"#utility.yul\":1072:1094   */\n      lt\n        /* \"#utility.yul\":1051:1069   */\n      0xffffffffffffffff\n        /* \"#utility.yul\":1039:1049   */\n      dup3\n        /* \"#utility.yul\":1036:1070   */\n      gt\n        /* \"#utility.yul\":1033:1095   */\n      or\n        /* \"#utility.yul\":1030:1118   */\n      iszero\n      tag_123\n      jumpi\n        /* \"#utility.yul\":1098:1116   */\n      tag_124\n      tag_65\n      jump\t// in\n    tag_124:\n        /* \"#utility.yul\":1030:1118   */\n    tag_123:\n        /* \"#utility.yul\":1138:1148   */\n      dup1\n        /* \"#utility.yul\":1134:1136   */\n      0x40\n        /* \"#utility.yul\":1127:1149   */\n      mstore\n        /* \"#utility.yul\":917:1155   */\n      pop\n        /* \"#utility.yul\":874:1155   */\n      pop\n      pop\n      jump\t// out\n        /* \"#utility.yul\":1161:1290   */\n    tag_67:\n        /* \"#utility.yul\":1195:1201   */\n      0x00\n        /* \"#utility.yul\":1222:1242   */\n      tag_126\n      tag_59\n      jump\t// in\n    tag_126:\n        /* \"#utility.yul\":1212:1242   */\n      swap1\n      pop\n        /* \"#utility.yul\":1251:1284   */\n      tag_127\n        /* \"#utility.yul\":1279:1283   */\n      dup3\n        /* \"#utility.yul\":1271:1277   */\n      dup3\n        /* \"#utility.yul\":1251:1284   */\n      tag_66\n      jump\t// in\n    tag_127:\n        /* \"#utility.yul\":1161:1290   */\n      swap2\n      swap1\n      pop\n      jump\t// out\n        /* \"#utility.yul\":1296:1604   */\n    tag_68:\n        /* \"#utility.yul\":1358:1362   */\n      0x00\n        /* \"#utility.yul\":1448:1466   */\n      0xffffffffffffffff\n        /* \"#utility.yul\":1440:1446   */\n      dup3\n        /* \"#utility.yul\":1437:1467   */\n      gt\n        /* \"#utility.yul\":1434:1490   */\n      iszero\n      tag_129\n      jumpi\n        /* \"#utility.yul\":1470:1488   */\n      tag_130\n      tag_65\n      jump\t// in\n    tag_130:\n        /* \"#utility.yul\":1434:1490   */\n    tag_129:\n        /* \"#utility.yul\":1508:1537   */\n      tag_131\n        /* \"#utility.yul\":1530:1536   */\n      dup3\n        /* \"#utility.yul\":1508:1537   */\n      tag_64\n      jump\t// in\n    tag_131:\n        /* \"#utility.yul\":1500:1537   */\n      swap1\n      pop\n        /* \"#utility.yul\":1592:1596   */\n      0x20\n        /* \"#utility.yul\":1586:1590   */\n      dup2\n        /* \"#utility.yul\":1582:1597   */\n      add\n        /* \"#utility.yul\":1574:1597   */\n      swap1\n      pop\n        /* \"#utility.yul\":1296:1604   */\n      swap2\n      swap1\n      pop\n      jump\t// out\n        /* \"#utility.yul\":1610:1756   */\n    tag_69:\n        /* \"#utility.yul\":1707:1713   */\n      dup3\n        /* \"#utility.yul\":1702:1705   */\n      dup2\n        /* \"#utility.yul\":1697:1700   */\n      dup4\n        /* \"#utility.yul\":1684:1714   */\n      calldatacopy\n        /* \"#utility.yul\":1748:1749   */\n      0x00\n        /* \"#utility.yul\":1739:1745   */\n      dup4\n        /* \"#utility.yul\":1734:1737   */\n      dup4\n        /* \"#utility.yul\":1730:1746   */\n      add\n        /* \"#utility.yul\":1723:1750   */\n      mstore\n        /* \"#utility.yul\":1610:1756   */\n      pop\n      pop\n      pop\n      jump\t// out\n        /* \"#utility.yul\":1762:2187   */\n    tag_70:\n        /* \"#utility.yul\":1840:1845   */\n      0x00\n        /* \"#utility.yul\":1865:1931   */\n      tag_134\n        /* \"#utility.yul\":1881:1930   */\n      tag_135\n        /* \"#utility.yul\":1923:1929   */\n      dup5\n        /* \"#utility.yul\":1881:1930   */\n      tag_68\n      jump\t// in\n    tag_135:\n        /* \"#utility.yul\":1865:1931   */\n      tag_67\n      jump\t// in\n    tag_134:\n        /* \"#utility.yul\":1856:1931   */\n      swap1\n      pop\n        /* \"#utility.yul\":1954:1960   */\n      dup3\n        /* \"#utility.yul\":1947:1952   */\n      dup2\n        /* \"#utility.yul\":1940:1961   */\n      mstore\n        /* \"#utility.yul\":1992:1996   */\n      0x20\n        /* \"#utility.yul\":1985:1990   */\n      dup2\n        /* \"#utility.yul\":1981:1997   */\n      add\n        /* \"#utility.yul\":2030:2033   */\n      dup5\n        /* \"#utility.yul\":2021:2027   */\n      dup5\n        /* \"#utility.yul\":2016:2019   */\n      dup5\n        /* \"#utility.yul\":2012:2028   */\n      add\n        /* \"#utility.yul\":2009:2034   */\n      gt\n        /* \"#utility.yul\":2006:2118   */\n      iszero\n      tag_136\n      jumpi\n        /* \"#utility.yul\":2037:2116   */\n      tag_137\n      tag_63\n      jump\t// in\n    tag_137:\n        /* \"#utility.yul\":2006:2118   */\n    tag_136:\n        /* \"#utility.yul\":2127:2181   */\n      tag_138\n        /* \"#utility.yul\":2174:2180   */\n      dup5\n        /* \"#utility.yul\":2169:2172   */\n      dup3\n        /* \"#utility.yul\":2164:2167   */\n      dup6\n        /* \"#utility.yul\":2127:2181   */\n      tag_69\n      jump\t// in\n    tag_138:\n        /* \"#utility.yul\":1846:2187   */\n      pop\n        /* \"#utility.yul\":1762:2187   */\n      swap4\n      swap3\n      pop\n      pop\n      pop\n      jump\t// out\n        /* \"#utility.yul\":2207:2547   */\n    tag_71:\n        /* \"#utility.yul\":2263:2268   */\n      0x00\n        /* \"#utility.yul\":2312:2315   */\n      dup3\n        /* \"#utility.yul\":2305:2309   */\n      0x1f\n        /* \"#utility.yul\":2297:2303   */\n      dup4\n        /* \"#utility.yul\":2293:2310   */\n      add\n        /* \"#utility.yul\":2289:2316   */\n      slt\n        /* \"#utility.yul\":2279:2401   */\n      tag_140\n      jumpi\n        /* \"#utility.yul\":2320:2399   */\n      tag_141\n      tag_62\n      jump\t// in\n    tag_141:\n        /* \"#utility.yul\":2279:2401   */\n    tag_140:\n        /* \"#utility.yul\":2437:2443   */\n      dup2\n        /* \"#utility.yul\":2424:2444   */\n      calldataload\n        /* \"#utility.yul\":2462:2541   */\n      tag_142\n        /* \"#utility.yul\":2537:2540   */\n      dup5\n        /* \"#utility.yul\":2529:2535   */\n      dup3\n        /* \"#utility.yul\":2522:2526   */\n      0x20\n        /* \"#utility.yul\":2514:2520   */\n      dup7\n        /* \"#utility.yul\":2510:2527   */\n      add\n        /* \"#utility.yul\":2462:2541   */\n      tag_70\n      jump\t// in\n    tag_142:\n        /* \"#utility.yul\":2453:2541   */\n      swap2\n      pop\n        /* \"#utility.yul\":2269:2547   */\n      pop\n        /* \"#utility.yul\":2207:2547   */\n      swap3\n      swap2\n      pop\n      pop\n      jump\t// out\n        /* \"#utility.yul\":2553:2630   */\n    tag_72:\n        /* \"#utility.yul\":2590:2597   */\n      0x00\n        /* \"#utility.yul\":2619:2624   */\n      dup2\n        /* \"#utility.yul\":2608:2624   */\n      swap1\n      pop\n        /* \"#utility.yul\":2553:2630   */\n      swap2\n      swap1\n      pop\n      jump\t// out\n        /* \"#utility.yul\":2636:2758   */\n    tag_73:\n        /* \"#utility.yul\":2709:2733   */\n      tag_145\n        /* \"#utility.yul\":2727:2732   */\n      dup2\n        /* \"#utility.yul\":2709:2733   */\n      tag_72\n      jump\t// in\n    tag_145:\n        /* \"#utility.yul\":2702:2707   */\n      dup2\n        /* \"#utility.yul\":2699:2734   */\n      eq\n        /* \"#utility.yul\":2689:2752   */\n      tag_146\n      jumpi\n        /* \"#utility.yul\":2748:2749   */\n      0x00\n        /* \"#utility.yul\":2745:2746   */\n      dup1\n        /* \"#utility.yul\":2738:2750   */\n      revert\n        /* \"#utility.yul\":2689:2752   */\n    tag_146:\n        /* \"#utility.yul\":2636:2758   */\n      pop\n      jump\t// out\n        /* \"#utility.yul\":2764:2903   */\n    tag_74:\n        /* \"#utility.yul\":2810:2815   */\n      0x00\n        /* \"#utility.yul\":2848:2854   */\n      dup2\n        /* \"#utility.yul\":2835:2855   */\n      calldataload\n        /* \"#utility.yul\":2826:2855   */\n      swap1\n      pop\n        /* \"#utility.yul\":2864:2897   */\n      tag_148\n        /* \"#utility.yul\":2891:2896   */\n      dup2\n        /* \"#utility.yul\":2864:2897   */\n      tag_73\n      jump\t// in\n    tag_148:\n        /* \"#utility.yul\":2764:2903   */\n      swap3\n      swap2\n      pop\n      pop\n      jump\t// out\n        /* \"#utility.yul\":2909:3563   */\n    tag_10:\n        /* \"#utility.yul\":2987:2993   */\n      0x00\n        /* \"#utility.yul\":2995:3001   */\n      dup1\n        /* \"#utility.yul\":3044:3046   */\n      0x40\n        /* \"#utility.yul\":3032:3041   */\n      dup4\n        /* \"#utility.yul\":3023:3030   */\n      dup6\n        /* \"#utility.yul\":3019:3042   */\n      sub\n        /* \"#utility.yul\":3015:3047   */\n      slt\n        /* \"#utility.yul\":3012:3131   */\n      iszero\n      tag_150\n      jumpi\n        /* \"#utility.yul\":3050:3129   */\n      tag_151\n      tag_60\n      jump\t// in\n    tag_151:\n        /* \"#utility.yul\":3012:3131   */\n    tag_150:\n        /* \"#utility.yul\":3198:3199   */\n      0x00\n        /* \"#utility.yul\":3187:3196   */\n      dup4\n        /* \"#utility.yul\":3183:3200   */\n      add\n        /* \"#utility.yul\":3170:3201   */\n      calldataload\n        /* \"#utility.yul\":3228:3246   */\n      0xffffffffffffffff\n        /* \"#utility.yul\":3220:3226   */\n      dup2\n        /* \"#utility.yul\":3217:3247   */\n      gt\n        /* \"#utility.yul\":3214:3331   */\n      iszero\n      tag_152\n      jumpi\n        /* \"#utility.yul\":3250:3329   */\n      tag_153\n      tag_61\n      jump\t// in\n    tag_153:\n        /* \"#utility.yul\":3214:3331   */\n    tag_152:\n        /* \"#utility.yul\":3355:3418   */\n      tag_154\n        /* \"#utility.yul\":3410:3417   */\n      dup6\n        /* \"#utility.yul\":3401:3407   */\n      dup3\n        /* \"#utility.yul\":3390:3399   */\n      dup7\n        /* \"#utility.yul\":3386:3408   */\n      add\n        /* \"#utility.yul\":3355:3418   */\n      tag_71\n      jump\t// in\n    tag_154:\n        /* \"#utility.yul\":3345:3418   */\n      swap3\n      pop\n        /* \"#utility.yul\":3141:3428   */\n      pop\n        /* \"#utility.yul\":3467:3469   */\n      0x20\n        /* \"#utility.yul\":3493:3546   */\n      tag_155\n        /* \"#utility.yul\":3538:3545   */\n      dup6\n        /* \"#utility.yul\":3529:3535   */\n      dup3\n        /* \"#utility.yul\":3518:3527   */\n      dup7\n        /* \"#utility.yul\":3514:3536   */\n      add\n        /* \"#utility.yul\":3493:3546   */\n      tag_74\n      jump\t// in\n    tag_155:\n        /* \"#utility.yul\":3483:3546   */\n      swap2\n      pop\n        /* \"#utility.yul\":3438:3556   */\n      pop\n        /* \"#utility.yul\":2909:3563   */\n      swap3\n      pop\n      swap3\n      swap1\n      pop\n      jump\t// out\n        /* \"#utility.yul\":3569:3693   */\n    tag_75:\n        /* \"#utility.yul\":3646:3652   */\n      0x00\n        /* \"#utility.yul\":3680:3685   */\n      dup2\n        /* \"#utility.yul\":3674:3686   */\n      mload\n        /* \"#utility.yul\":3664:3686   */\n      swap1\n      pop\n        /* \"#utility.yul\":3569:3693   */\n      swap2\n      swap1\n      pop\n      jump\t// out\n        /* \"#utility.yul\":3699:3893   */\n    tag_76:\n        /* \"#utility.yul\":3808:3819   */\n      0x00\n        /* \"#utility.yul\":3842:3848   */\n      dup3\n        /* \"#utility.yul\":3837:3840   */\n      dup3\n        /* \"#utility.yul\":3830:3849   */\n      mstore\n        /* \"#utility.yul\":3882:3886   */\n      0x20\n        /* \"#utility.yul\":3877:3880   */\n      dup3\n        /* \"#utility.yul\":3873:3887   */\n      add\n        /* \"#utility.yul\":3858:3887   */\n      swap1\n      pop\n        /* \"#utility.yul\":3699:3893   */\n      swap3\n      swap2\n      pop\n      pop\n      jump\t// out\n        /* \"#utility.yul\":3899:4041   */\n    tag_77:\n        /* \"#utility.yul\":3976:3980   */\n      0x00\n        /* \"#utility.yul\":3999:4002   */\n      dup2\n        /* \"#utility.yul\":3991:4002   */\n      swap1\n      pop\n        /* \"#utility.yul\":4029:4033   */\n      0x20\n        /* \"#utility.yul\":4024:4027   */\n      dup3\n        /* \"#utility.yul\":4020:4034   */\n      add\n        /* \"#utility.yul\":4012:4034   */\n      swap1\n      pop\n        /* \"#utility.yul\":3899:4041   */\n      swap2\n      swap1\n      pop\n      jump\t// out\n        /* \"#utility.yul\":4047:4146   */\n    tag_78:\n        /* \"#utility.yul\":4099:4105   */\n      0x00\n        /* \"#utility.yul\":4133:4138   */\n      dup2\n        /* \"#utility.yul\":4127:4139   */\n      mload\n        /* \"#utility.yul\":4117:4139   */\n      swap1\n      pop\n        /* \"#utility.yul\":4047:4146   */\n      swap2\n      swap1\n      pop\n      jump\t// out\n        /* \"#utility.yul\":4152:4311   */\n    tag_79:\n        /* \"#utility.yul\":4226:4237   */\n      0x00\n        /* \"#utility.yul\":4260:4266   */\n      dup3\n        /* \"#utility.yul\":4255:4258   */\n      dup3\n        /* \"#utility.yul\":4248:4267   */\n      mstore\n        /* \"#utility.yul\":4300:4304   */\n      0x20\n        /* \"#utility.yul\":4295:4298   */\n      dup3\n        /* \"#utility.yul\":4291:4305   */\n      add\n        /* \"#utility.yul\":4276:4305   */\n      swap1\n      pop\n        /* \"#utility.yul\":4152:4311   */\n      swap3\n      swap2\n      pop\n      pop\n      jump\t// out\n        /* \"#utility.yul\":4317:4563   */\n    tag_80:\n        /* \"#utility.yul\":4398:4399   */\n      0x00\n        /* \"#utility.yul\":4408:4521   */\n    tag_162:\n        /* \"#utility.yul\":4422:4428   */\n      dup4\n        /* \"#utility.yul\":4419:4420   */\n      dup2\n        /* \"#utility.yul\":4416:4429   */\n      lt\n        /* \"#utility.yul\":4408:4521   */\n      iszero\n      tag_164\n      jumpi\n        /* \"#utility.yul\":4507:4508   */\n      dup1\n        /* \"#utility.yul\":4502:4505   */\n      dup3\n        /* \"#utility.yul\":4498:4509   */\n      add\n        /* \"#utility.yul\":4492:4510   */\n      mload\n        /* \"#utility.yul\":4488:4489   */\n      dup2\n        /* \"#utility.yul\":4483:4486   */\n      dup5\n        /* \"#utility.yul\":4479:4490   */\n      add\n        /* \"#utility.yul\":4472:4511   */\n      mstore\n        /* \"#utility.yul\":4444:4446   */\n      0x20\n        /* \"#utility.yul\":4441:4442   */\n      dup2\n        /* \"#utility.yul\":4437:4447   */\n      add\n        /* \"#utility.yul\":4432:4447   */\n      swap1\n      pop\n        /* \"#utility.yul\":4408:4521   */\n      jump(tag_162)\n    tag_164:\n        /* \"#utility.yul\":4555:4556   */\n      0x00\n        /* \"#utility.yul\":4546:4552   */\n      dup5\n        /* \"#utility.yul\":4541:4544   */\n      dup5\n        /* \"#utility.yul\":4537:4553   */\n      add\n        /* \"#utility.yul\":4530:4557   */\n      mstore\n        /* \"#utility.yul\":4379:4563   */\n      pop\n        /* \"#utility.yul\":4317:4563   */\n      pop\n      pop\n      pop\n      jump\t// out\n        /* \"#utility.yul\":4569:4926   */\n    tag_81:\n        /* \"#utility.yul\":4647:4650   */\n      0x00\n        /* \"#utility.yul\":4675:4714   */\n      tag_166\n        /* \"#utility.yul\":4708:4713   */\n      dup3\n        /* \"#utility.yul\":4675:4714   */\n      tag_78\n      jump\t// in\n    tag_166:\n        /* \"#utility.yul\":4730:4791   */\n      tag_167\n        /* \"#utility.yul\":4784:4790   */\n      dup2\n        /* \"#utility.yul\":4779:4782   */\n      dup6\n        /* \"#utility.yul\":4730:4791   */\n      tag_79\n      jump\t// in\n    tag_167:\n        /* \"#utility.yul\":4723:4791   */\n      swap4\n      pop\n        /* \"#utility.yul\":4800:4865   */\n      tag_168\n        /* \"#utility.yul\":4858:4864   */\n      dup2\n        /* \"#utility.yul\":4853:4856   */\n      dup6\n        /* \"#utility.yul\":4846:4850   */\n      0x20\n        /* \"#utility.yul\":4839:4844   */\n      dup7\n        /* \"#utility.yul\":4835:4851   */\n      add\n        /* \"#utility.yul\":4800:4865   */\n      tag_80\n      jump\t// in\n    tag_168:\n        /* \"#utility.yul\":4890:4919   */\n      tag_169\n        /* \"#utility.yul\":4912:4918   */\n      dup2\n        /* \"#utility.yul\":4890:4919   */\n      tag_64\n      jump\t// in\n    tag_169:\n        /* \"#utility.yul\":4885:4888   */\n      dup5\n        /* \"#utility.yul\":4881:4920   */\n      add\n        /* \"#utility.yul\":4874:4920   */\n      swap2\n      pop\n        /* \"#utility.yul\":4651:4926   */\n      pop\n        /* \"#utility.yul\":4569:4926   */\n      swap3\n      swap2\n      pop\n      pop\n      jump\t// out\n        /* \"#utility.yul\":4932:5128   */\n    tag_82:\n        /* \"#utility.yul\":5021:5031   */\n      0x00\n        /* \"#utility.yul\":5056:5122   */\n      tag_171\n        /* \"#utility.yul\":5118:5121   */\n      dup4\n        /* \"#utility.yul\":5110:5116   */\n      dup4\n        /* \"#utility.yul\":5056:5122   */\n      tag_81\n      jump\t// in\n    tag_171:\n        /* \"#utility.yul\":5042:5122   */\n      swap1\n      pop\n        /* \"#utility.yul\":4932:5128   */\n      swap3\n      swap2\n      pop\n      pop\n      jump\t// out\n        /* \"#utility.yul\":5134:5257   */\n    tag_83:\n        /* \"#utility.yul\":5214:5218   */\n      0x00\n        /* \"#utility.yul\":5246:5250   */\n      0x20\n        /* \"#utility.yul\":5241:5244   */\n      dup3\n        /* \"#utility.yul\":5237:5251   */\n      add\n        /* \"#utility.yul\":5229:5251   */\n      swap1\n      pop\n        /* \"#utility.yul\":5134:5257   */\n      swap2\n      swap1\n      pop\n      jump\t// out\n        /* \"#utility.yul\":5291:6282   */\n    tag_84:\n        /* \"#utility.yul\":5430:5433   */\n      0x00\n        /* \"#utility.yul\":5459:5523   */\n      tag_174\n        /* \"#utility.yul\":5517:5522   */\n      dup3\n        /* \"#utility.yul\":5459:5523   */\n      tag_75\n      jump\t// in\n    tag_174:\n        /* \"#utility.yul\":5539:5635   */\n      tag_175\n        /* \"#utility.yul\":5628:5634   */\n      dup2\n        /* \"#utility.yul\":5623:5626   */\n      dup6\n        /* \"#utility.yul\":5539:5635   */\n      tag_76\n      jump\t// in\n    tag_175:\n        /* \"#utility.yul\":5532:5635   */\n      swap4\n      pop\n        /* \"#utility.yul\":5661:5664   */\n      dup4\n        /* \"#utility.yul\":5706:5710   */\n      0x20\n        /* \"#utility.yul\":5698:5704   */\n      dup3\n        /* \"#utility.yul\":5694:5711   */\n      mul\n        /* \"#utility.yul\":5689:5692   */\n      dup6\n        /* \"#utility.yul\":5685:5712   */\n      add\n        /* \"#utility.yul\":5736:5802   */\n      tag_176\n        /* \"#utility.yul\":5796:5801   */\n      dup6\n        /* \"#utility.yul\":5736:5802   */\n      tag_77\n      jump\t// in\n    tag_176:\n        /* \"#utility.yul\":5825:5832   */\n      dup1\n        /* \"#utility.yul\":5856:5857   */\n      0x00\n        /* \"#utility.yul\":5841:6237   */\n    tag_177:\n        /* \"#utility.yul\":5866:5872   */\n      dup6\n        /* \"#utility.yul\":5863:5864   */\n      dup2\n        /* \"#utility.yul\":5860:5873   */\n      lt\n        /* \"#utility.yul\":5841:6237   */\n      iszero\n      tag_179\n      jumpi\n        /* \"#utility.yul\":5937:5946   */\n      dup5\n        /* \"#utility.yul\":5931:5935   */\n      dup5\n        /* \"#utility.yul\":5927:5947   */\n      sub\n        /* \"#utility.yul\":5922:5925   */\n      dup10\n        /* \"#utility.yul\":5915:5948   */\n      mstore\n        /* \"#utility.yul\":5988:5994   */\n      dup2\n        /* \"#utility.yul\":5982:5995   */\n      mload\n        /* \"#utility.yul\":6016:6100   */\n      tag_180\n        /* \"#utility.yul\":6095:6099   */\n      dup6\n        /* \"#utility.yul\":6080:6093   */\n      dup3\n        /* \"#utility.yul\":6016:6100   */\n      tag_82\n      jump\t// in\n    tag_180:\n        /* \"#utility.yul\":6008:6100   */\n      swap5\n      pop\n        /* \"#utility.yul\":6123:6193   */\n      tag_181\n        /* \"#utility.yul\":6186:6192   */\n      dup4\n        /* \"#utility.yul\":6123:6193   */\n      tag_83\n      jump\t// in\n    tag_181:\n        /* \"#utility.yul\":6113:6193   */\n      swap3\n      pop\n        /* \"#utility.yul\":6222:6226   */\n      0x20\n        /* \"#utility.yul\":6217:6220   */\n      dup11\n        /* \"#utility.yul\":6213:6227   */\n      add\n        /* \"#utility.yul\":6206:6227   */\n      swap10\n      pop\n        /* \"#utility.yul\":5901:6237   */\n      pop\n        /* \"#utility.yul\":5888:5889   */\n      0x01\n        /* \"#utility.yul\":5885:5886   */\n      dup2\n        /* \"#utility.yul\":5881:5890   */\n      add\n        /* \"#utility.yul\":5876:5890   */\n      swap1\n      pop\n        /* \"#utility.yul\":5841:6237   */\n      jump(tag_177)\n    tag_179:\n        /* \"#utility.yul\":5845:5859   */\n      pop\n        /* \"#utility.yul\":6253:6257   */\n      dup3\n        /* \"#utility.yul\":6246:6257   */\n      swap8\n      pop\n        /* \"#utility.yul\":6273:6276   */\n      dup8\n        /* \"#utility.yul\":6266:6276   */\n      swap6\n      pop\n        /* \"#utility.yul\":5435:6282   */\n      pop\n      pop\n      pop\n      pop\n      pop\n        /* \"#utility.yul\":5291:6282   */\n      swap3\n      swap2\n      pop\n      pop\n      jump\t// out\n        /* \"#utility.yul\":6288:6701   */\n    tag_15:\n        /* \"#utility.yul\":6451:6455   */\n      0x00\n        /* \"#utility.yul\":6489:6491   */\n      0x20\n        /* \"#utility.yul\":6478:6487   */\n      dup3\n        /* \"#utility.yul\":6474:6492   */\n      add\n        /* \"#utility.yul\":6466:6492   */\n      swap1\n      pop\n        /* \"#utility.yul\":6538:6547   */\n      dup2\n        /* \"#utility.yul\":6532:6536   */\n      dup2\n        /* \"#utility.yul\":6528:6548   */\n      sub\n        /* \"#utility.yul\":6524:6525   */\n      0x00\n        /* \"#utility.yul\":6513:6522   */\n      dup4\n        /* \"#utility.yul\":6509:6526   */\n      add\n        /* \"#utility.yul\":6502:6549   */\n      mstore\n        /* \"#utility.yul\":6566:6694   */\n      tag_183\n        /* \"#utility.yul\":6689:6693   */\n      dup2\n        /* \"#utility.yul\":6680:6686   */\n      dup5\n        /* \"#utility.yul\":6566:6694   */\n      tag_84\n      jump\t// in\n    tag_183:\n        /* \"#utility.yul\":6558:6694   */\n      swap1\n      pop\n        /* \"#utility.yul\":6288:6701   */\n      swap3\n      swap2\n      pop\n      pop\n      jump\t// out\n        /* \"#utility.yul\":6707:7216   */\n    tag_18:\n        /* \"#utility.yul\":6776:6782   */\n      0x00\n        /* \"#utility.yul\":6825:6827   */\n      0x20\n        /* \"#utility.yul\":6813:6822   */\n      dup3\n        /* \"#utility.yul\":6804:6811   */\n      dup5\n        /* \"#utility.yul\":6800:6823   */\n      sub\n        /* \"#utility.yul\":6796:6828   */\n      slt\n        /* \"#utility.yul\":6793:6912   */\n      iszero\n      tag_185\n      jumpi\n        /* \"#utility.yul\":6831:6910   */\n      tag_186\n      tag_60\n      jump\t// in\n    tag_186:\n        /* \"#utility.yul\":6793:6912   */\n    tag_185:\n        /* \"#utility.yul\":6979:6980   */\n      0x00\n        /* \"#utility.yul\":6968:6977   */\n      dup3\n        /* \"#utility.yul\":6964:6981   */\n      add\n        /* \"#utility.yul\":6951:6982   */\n      calldataload\n        /* \"#utility.yul\":7009:7027   */\n      0xffffffffffffffff\n        /* \"#utility.yul\":7001:7007   */\n      dup2\n        /* \"#utility.yul\":6998:7028   */\n      gt\n        /* \"#utility.yul\":6995:7112   */\n      iszero\n      tag_187\n      jumpi\n        /* \"#utility.yul\":7031:7110   */\n      tag_188\n      tag_61\n      jump\t// in\n    tag_188:\n        /* \"#utility.yul\":6995:7112   */\n    tag_187:\n        /* \"#utility.yul\":7136:7199   */\n      tag_189\n        /* \"#utility.yul\":7191:7198   */\n      dup5\n        /* \"#utility.yul\":7182:7188   */\n      dup3\n        /* \"#utility.yul\":7171:7180   */\n      dup6\n        /* \"#utility.yul\":7167:7189   */\n      add\n        /* \"#utility.yul\":7136:7199   */\n      tag_71\n      jump\t// in\n    tag_189:\n        /* \"#utility.yul\":7126:7199   */\n      swap2\n      pop\n        /* \"#utility.yul\":6922:7209   */\n      pop\n        /* \"#utility.yul\":6707:7216   */\n      swap3\n      swap2\n      pop\n      pop\n      jump\t// out\n        /* \"#utility.yul\":7222:7340   */\n    tag_85:\n        /* \"#utility.yul\":7309:7333   */\n      tag_191\n        /* \"#utility.yul\":7327:7332   */\n      dup2\n        /* \"#utility.yul\":7309:7333   */\n      tag_72\n      jump\t// in\n    tag_191:\n        /* \"#utility.yul\":7304:7307   */\n      dup3\n        /* \"#utility.yul\":7297:7334   */\n      mstore\n        /* \"#utility.yul\":7222:7340   */\n      pop\n      pop\n      jump\t// out\n        /* \"#utility.yul\":7346:7568   */\n    tag_24:\n        /* \"#utility.yul\":7439:7443   */\n      0x00\n        /* \"#utility.yul\":7477:7479   */\n      0x20\n        /* \"#utility.yul\":7466:7475   */\n      dup3\n        /* \"#utility.yul\":7462:7480   */\n      add\n        /* \"#utility.yul\":7454:7480   */\n      swap1\n      pop\n        /* \"#utility.yul\":7490:7561   */\n      tag_193\n        /* \"#utility.yul\":7558:7559   */\n      0x00\n        /* \"#utility.yul\":7547:7556   */\n      dup4\n        /* \"#utility.yul\":7543:7560   */\n      add\n        /* \"#utility.yul\":7534:7540   */\n      dup5\n        /* \"#utility.yul\":7490:7561   */\n      tag_85\n      jump\t// in\n    tag_193:\n        /* \"#utility.yul\":7346:7568   */\n      swap3\n      swap2\n      pop\n      pop\n      jump\t// out\n        /* \"#utility.yul\":7574:7700   */\n    tag_86:\n        /* \"#utility.yul\":7611:7618   */\n      0x00\n        /* \"#utility.yul\":7651:7693   */\n      0xffffffffffffffffffffffffffffffffffffffff\n        /* \"#utility.yul\":7644:7649   */\n      dup3\n        /* \"#utility.yul\":7640:7694   */\n      and\n        /* \"#utility.yul\":7629:7694   */\n      swap1\n      pop\n        /* \"#utility.yul\":7574:7700   */\n      swap2\n      swap1\n      pop\n      jump\t// out\n        /* \"#utility.yul\":7706:7802   */\n    tag_87:\n        /* \"#utility.yul\":7743:7750   */\n      0x00\n        /* \"#utility.yul\":7772:7796   */\n      tag_196\n        /* \"#utility.yul\":7790:7795   */\n      dup3\n        /* \"#utility.yul\":7772:7796   */\n      tag_86\n      jump\t// in\n    tag_196:\n        /* \"#utility.yul\":7761:7796   */\n      swap1\n      pop\n        /* \"#utility.yul\":7706:7802   */\n      swap2\n      swap1\n      pop\n      jump\t// out\n        /* \"#utility.yul\":7808:7926   */\n    tag_88:\n        /* \"#utility.yul\":7895:7919   */\n      tag_198\n        /* \"#utility.yul\":7913:7918   */\n      dup2\n        /* \"#utility.yul\":7895:7919   */\n      tag_87\n      jump\t// in\n    tag_198:\n        /* \"#utility.yul\":7890:7893   */\n      dup3\n        /* \"#utility.yul\":7883:7920   */\n      mstore\n        /* \"#utility.yul\":7808:7926   */\n      pop\n      pop\n      jump\t// out\n        /* \"#utility.yul\":7932:8154   */\n    tag_28:\n        /* \"#utility.yul\":8025:8029   */\n      0x00\n        /* \"#utility.yul\":8063:8065   */\n      0x20\n        /* \"#utility.yul\":8052:8061   */\n      dup3\n        /* \"#utility.yul\":8048:8066   */\n      add\n        /* \"#utility.yul\":8040:8066   */\n      swap1\n      pop\n        /* \"#utility.yul\":8076:8147   */\n      tag_200\n        /* \"#utility.yul\":8144:8145   */\n      0x00\n        /* \"#utility.yul\":8133:8142   */\n      dup4\n        /* \"#utility.yul\":8129:8146   */\n      add\n        /* \"#utility.yul\":8120:8126   */\n      dup5\n        /* \"#utility.yul\":8076:8147   */\n      tag_88\n      jump\t// in\n    tag_200:\n        /* \"#utility.yul\":7932:8154   */\n      swap3\n      swap2\n      pop\n      pop\n      jump\t// out\n        /* \"#utility.yul\":8160:8329   */\n    tag_89:\n        /* \"#utility.yul\":8244:8255   */\n      0x00\n        /* \"#utility.yul\":8278:8284   */\n      dup3\n        /* \"#utility.yul\":8273:8276   */\n      dup3\n        /* \"#utility.yul\":8266:8285   */\n      mstore\n        /* \"#utility.yul\":8318:8322   */\n      0x20\n        /* \"#utility.yul\":8313:8316   */\n      dup3\n        /* \"#utility.yul\":8309:8323   */\n      add\n        /* \"#utility.yul\":8294:8323   */\n      swap1\n      pop\n        /* \"#utility.yul\":8160:8329   */\n      swap3\n      swap2\n      pop\n      pop\n      jump\t// out\n        /* \"#utility.yul\":8335:8567   */\n    tag_90:\n        /* \"#utility.yul\":8475:8509   */\n      0x4e6f207469656e6573207065726d69736f73207061726120656a656375746172\n        /* \"#utility.yul\":8471:8472   */\n      0x00\n        /* \"#utility.yul\":8463:8469   */\n      dup3\n        /* \"#utility.yul\":8459:8473   */\n      add\n        /* \"#utility.yul\":8452:8510   */\n      mstore\n        /* \"#utility.yul\":8544:8559   */\n      0x20657374612066756e63696f6e00000000000000000000000000000000000000\n        /* \"#utility.yul\":8539:8541   */\n      0x20\n        /* \"#utility.yul\":8531:8537   */\n      dup3\n        /* \"#utility.yul\":8527:8542   */\n      add\n        /* \"#utility.yul\":8520:8560   */\n      mstore\n        /* \"#utility.yul\":8335:8567   */\n      pop\n      jump\t// out\n        /* \"#utility.yul\":8573:8939   */\n    tag_91:\n        /* \"#utility.yul\":8715:8718   */\n      0x00\n        /* \"#utility.yul\":8736:8803   */\n      tag_204\n        /* \"#utility.yul\":8800:8802   */\n      0x2d\n        /* \"#utility.yul\":8795:8798   */\n      dup4\n        /* \"#utility.yul\":8736:8803   */\n      tag_89\n      jump\t// in\n    tag_204:\n        /* \"#utility.yul\":8729:8803   */\n      swap2\n      pop\n        /* \"#utility.yul\":8812:8905   */\n      tag_205\n        /* \"#utility.yul\":8901:8904   */\n      dup3\n        /* \"#utility.yul\":8812:8905   */\n      tag_90\n      jump\t// in\n    tag_205:\n        /* \"#utility.yul\":8930:8932   */\n      0x40\n        /* \"#utility.yul\":8925:8928   */\n      dup3\n        /* \"#utility.yul\":8921:8933   */\n      add\n        /* \"#utility.yul\":8914:8933   */\n      swap1\n      pop\n        /* \"#utility.yul\":8573:8939   */\n      swap2\n      swap1\n      pop\n      jump\t// out\n        /* \"#utility.yul\":8945:9364   */\n    tag_32:\n        /* \"#utility.yul\":9111:9115   */\n      0x00\n        /* \"#utility.yul\":9149:9151   */\n      0x20\n        /* \"#utility.yul\":9138:9147   */\n      dup3\n        /* \"#utility.yul\":9134:9152   */\n      add\n        /* \"#utility.yul\":9126:9152   */\n      swap1\n      pop\n        /* \"#utility.yul\":9198:9207   */\n      dup2\n        /* \"#utility.yul\":9192:9196   */\n      dup2\n        /* \"#utility.yul\":9188:9208   */\n      sub\n        /* \"#utility.yul\":9184:9185   */\n      0x00\n        /* \"#utility.yul\":9173:9182   */\n      dup4\n        /* \"#utility.yul\":9169:9186   */\n      add\n        /* \"#utility.yul\":9162:9209   */\n      mstore\n        /* \"#utility.yul\":9226:9357   */\n      tag_207\n        /* \"#utility.yul\":9352:9356   */\n      dup2\n        /* \"#utility.yul\":9226:9357   */\n      tag_91\n      jump\t// in\n    tag_207:\n        /* \"#utility.yul\":9218:9357   */\n      swap1\n      pop\n        /* \"#utility.yul\":8945:9364   */\n      swap2\n      swap1\n      pop\n      jump\t// out\n        /* \"#utility.yul\":9370:9518   */\n    tag_92:\n        /* \"#utility.yul\":9472:9483   */\n      0x00\n        /* \"#utility.yul\":9509:9512   */\n      dup2\n        /* \"#utility.yul\":9494:9512   */\n      swap1\n      pop\n        /* \"#utility.yul\":9370:9518   */\n      swap3\n      swap2\n      pop\n      pop\n      jump\t// out\n        /* \"#utility.yul\":9524:9914   */\n    tag_93:\n        /* \"#utility.yul\":9630:9633   */\n      0x00\n        /* \"#utility.yul\":9658:9697   */\n      tag_210\n        /* \"#utility.yul\":9691:9696   */\n      dup3\n        /* \"#utility.yul\":9658:9697   */\n      tag_78\n      jump\t// in\n    tag_210:\n        /* \"#utility.yul\":9713:9802   */\n      tag_211\n        /* \"#utility.yul\":9795:9801   */\n      dup2\n        /* \"#utility.yul\":9790:9793   */\n      dup6\n        /* \"#utility.yul\":9713:9802   */\n      tag_92\n      jump\t// in\n    tag_211:\n        /* \"#utility.yul\":9706:9802   */\n      swap4\n      pop\n        /* \"#utility.yul\":9811:9876   */\n      tag_212\n        /* \"#utility.yul\":9869:9875   */\n      dup2\n        /* \"#utility.yul\":9864:9867   */\n      dup6\n        /* \"#utility.yul\":9857:9861   */\n      0x20\n        /* \"#utility.yul\":9850:9855   */\n      dup7\n        /* \"#utility.yul\":9846:9862   */\n      add\n        /* \"#utility.yul\":9811:9876   */\n      tag_80\n      jump\t// in\n    tag_212:\n        /* \"#utility.yul\":9901:9907   */\n      dup1\n        /* \"#utility.yul\":9896:9899   */\n      dup5\n        /* \"#utility.yul\":9892:9908   */\n      add\n        /* \"#utility.yul\":9885:9908   */\n      swap2\n      pop\n        /* \"#utility.yul\":9634:9914   */\n      pop\n        /* \"#utility.yul\":9524:9914   */\n      swap3\n      swap2\n      pop\n      pop\n      jump\t// out\n        /* \"#utility.yul\":9920:10195   */\n    tag_35:\n        /* \"#utility.yul\":10052:10055   */\n      0x00\n        /* \"#utility.yul\":10074:10169   */\n      tag_214\n        /* \"#utility.yul\":10165:10168   */\n      dup3\n        /* \"#utility.yul\":10156:10162   */\n      dup5\n        /* \"#utility.yul\":10074:10169   */\n      tag_93\n      jump\t// in\n    tag_214:\n        /* \"#utility.yul\":10067:10169   */\n      swap2\n      pop\n        /* \"#utility.yul\":10186:10189   */\n      dup2\n        /* \"#utility.yul\":10179:10189   */\n      swap1\n      pop\n        /* \"#utility.yul\":9920:10195   */\n      swap3\n      swap2\n      pop\n      pop\n      jump\t// out\n        /* \"#utility.yul\":10201:10278   */\n    tag_94:\n        /* \"#utility.yul\":10238:10245   */\n      0x00\n        /* \"#utility.yul\":10267:10272   */\n      dup2\n        /* \"#utility.yul\":10256:10272   */\n      swap1\n      pop\n        /* \"#utility.yul\":10201:10278   */\n      swap2\n      swap1\n      pop\n      jump\t// out\n        /* \"#utility.yul\":10284:10402   */\n    tag_95:\n        /* \"#utility.yul\":10371:10395   */\n      tag_217\n        /* \"#utility.yul\":10389:10394   */\n      dup2\n        /* \"#utility.yul\":10371:10395   */\n      tag_94\n      jump\t// in\n    tag_217:\n        /* \"#utility.yul\":10366:10369   */\n      dup3\n        /* \"#utility.yul\":10359:10396   */\n      mstore\n        /* \"#utility.yul\":10284:10402   */\n      pop\n      pop\n      jump\t// out\n        /* \"#utility.yul\":10408:10630   */\n    tag_37:\n        /* \"#utility.yul\":10501:10505   */\n      0x00\n        /* \"#utility.yul\":10539:10541   */\n      0x20\n        /* \"#utility.yul\":10528:10537   */\n      dup3\n        /* \"#utility.yul\":10524:10542   */\n      add\n        /* \"#utility.yul\":10516:10542   */\n      swap1\n      pop\n        /* \"#utility.yul\":10552:10623   */\n      tag_219\n        /* \"#utility.yul\":10620:10621   */\n      0x00\n        /* \"#utility.yul\":10609:10618   */\n      dup4\n        /* \"#utility.yul\":10605:10622   */\n      add\n        /* \"#utility.yul\":10596:10602   */\n      dup5\n        /* \"#utility.yul\":10552:10623   */\n      tag_95\n      jump\t// in\n    tag_219:\n        /* \"#utility.yul\":10408:10630   */\n      swap3\n      swap2\n      pop\n      pop\n      jump\t// out\n        /* \"#utility.yul\":10636:10816   */\n    tag_96:\n        /* \"#utility.yul\":10684:10761   */\n      0x4e487b7100000000000000000000000000000000000000000000000000000000\n        /* \"#utility.yul\":10681:10682   */\n      0x00\n        /* \"#utility.yul\":10674:10762   */\n      mstore\n        /* \"#utility.yul\":10781:10785   */\n      0x22\n        /* \"#utility.yul\":10778:10779   */\n      0x04\n        /* \"#utility.yul\":10771:10786   */\n      mstore\n        /* \"#utility.yul\":10805:10809   */\n      0x24\n        /* \"#utility.yul\":10802:10803   */\n      0x00\n        /* \"#utility.yul\":10795:10810   */\n      revert\n        /* \"#utility.yul\":10822:11142   */\n    tag_46:\n        /* \"#utility.yul\":10866:10872   */\n      0x00\n        /* \"#utility.yul\":10903:10904   */\n      0x02\n        /* \"#utility.yul\":10897:10901   */\n      dup3\n        /* \"#utility.yul\":10893:10905   */\n      div\n        /* \"#utility.yul\":10883:10905   */\n      swap1\n      pop\n        /* \"#utility.yul\":10950:10951   */\n      0x01\n        /* \"#utility.yul\":10944:10948   */\n      dup3\n        /* \"#utility.yul\":10940:10952   */\n      and\n        /* \"#utility.yul\":10971:10989   */\n      dup1\n        /* \"#utility.yul\":10961:11042   */\n      tag_222\n      jumpi\n        /* \"#utility.yul\":11027:11031   */\n      0x7f\n        /* \"#utility.yul\":11019:11025   */\n      dup3\n        /* \"#utility.yul\":11015:11032   */\n      and\n        /* \"#utility.yul\":11005:11032   */\n      swap2\n      pop\n        /* \"#utility.yul\":10961:11042   */\n    tag_222:\n        /* \"#utility.yul\":11089:11091   */\n      0x20\n        /* \"#utility.yul\":11081:11087   */\n      dup3\n        /* \"#utility.yul\":11078:11092   */\n      lt\n        /* \"#utility.yul\":11058:11076   */\n      dup2\n        /* \"#utility.yul\":11055:11093   */\n      sub\n        /* \"#utility.yul\":11052:11136   */\n      tag_223\n      jumpi\n        /* \"#utility.yul\":11108:11126   */\n      tag_224\n      tag_96\n      jump\t// in\n    tag_224:\n        /* \"#utility.yul\":11052:11136   */\n    tag_223:\n        /* \"#utility.yul\":10873:11142   */\n      pop\n        /* \"#utility.yul\":10822:11142   */\n      swap2\n      swap1\n      pop\n      jump\t// out\n        /* \"#utility.yul\":11148:11289   */\n    tag_97:\n        /* \"#utility.yul\":11197:11201   */\n      0x00\n        /* \"#utility.yul\":11220:11223   */\n      dup2\n        /* \"#utility.yul\":11212:11223   */\n      swap1\n      pop\n        /* \"#utility.yul\":11243:11246   */\n      dup2\n        /* \"#utility.yul\":11240:11241   */\n      0x00\n        /* \"#utility.yul\":11233:11247   */\n      mstore\n        /* \"#utility.yul\":11277:11281   */\n      0x20\n        /* \"#utility.yul\":11274:11275   */\n      0x00\n        /* \"#utility.yul\":11264:11282   */\n      keccak256\n        /* \"#utility.yul\":11256:11282   */\n      swap1\n      pop\n        /* \"#utility.yul\":11148:11289   */\n      swap2\n      swap1\n      pop\n      jump\t// out\n        /* \"#utility.yul\":11295:11388   */\n    tag_98:\n        /* \"#utility.yul\":11332:11338   */\n      0x00\n        /* \"#utility.yul\":11379:11381   */\n      0x20\n        /* \"#utility.yul\":11374:11376   */\n      0x1f\n        /* \"#utility.yul\":11367:11372   */\n      dup4\n        /* \"#utility.yul\":11363:11377   */\n      add\n        /* \"#utility.yul\":11359:11382   */\n      div\n        /* \"#utility.yul\":11349:11382   */\n      swap1\n      pop\n        /* \"#utility.yul\":11295:11388   */\n      swap2\n      swap1\n      pop\n      jump\t// out\n        /* \"#utility.yul\":11394:11501   */\n    tag_99:\n        /* \"#utility.yul\":11438:11446   */\n      0x00\n        /* \"#utility.yul\":11488:11493   */\n      dup3\n        /* \"#utility.yul\":11482:11486   */\n      dup3\n        /* \"#utility.yul\":11478:11494   */\n      shl\n        /* \"#utility.yul\":11457:11494   */\n      swap1\n      pop\n        /* \"#utility.yul\":11394:11501   */\n      swap3\n      swap2\n      pop\n      pop\n      jump\t// out\n        /* \"#utility.yul\":11507:11900   */\n    tag_100:\n        /* \"#utility.yul\":11576:11582   */\n      0x00\n        /* \"#utility.yul\":11626:11627   */\n      0x08\n        /* \"#utility.yul\":11614:11624   */\n      dup4\n        /* \"#utility.yul\":11610:11628   */\n      mul\n        /* \"#utility.yul\":11649:11746   */\n      tag_229\n        /* \"#utility.yul\":11679:11745   */\n      0xffffffffffffffffffffffffffffffffffffffffffffffffffffffffffffffff\n        /* \"#utility.yul\":11668:11677   */\n      dup3\n        /* \"#utility.yul\":11649:11746   */\n      tag_99\n      jump\t// in\n    tag_229:\n        /* \"#utility.yul\":11767:11806   */\n      tag_230\n        /* \"#utility.yul\":11797:11805   */\n      dup7\n        /* \"#utility.yul\":11786:11795   */\n      dup4\n        /* \"#utility.yul\":11767:11806   */\n      tag_99\n      jump\t// in\n    tag_230:\n        /* \"#utility.yul\":11755:11806   */\n      swap6\n      pop\n        /* \"#utility.yul\":11839:11843   */\n      dup1\n        /* \"#utility.yul\":11835:11844   */\n      not\n        /* \"#utility.yul\":11828:11833   */\n      dup5\n        /* \"#utility.yul\":11824:11845   */\n      and\n        /* \"#utility.yul\":11815:11845   */\n      swap4\n      pop\n        /* \"#utility.yul\":11888:11892   */\n      dup1\n        /* \"#utility.yul\":11878:11886   */\n      dup7\n        /* \"#utility.yul\":11874:11893   */\n      and\n        /* \"#utility.yul\":11867:11872   */\n      dup5\n        /* \"#utility.yul\":11864:11894   */\n      or\n        /* \"#utility.yul\":11854:11894   */\n      swap3\n      pop\n        /* \"#utility.yul\":11583:11900   */\n      pop\n      pop\n        /* \"#utility.yul\":11507:11900   */\n      swap4\n      swap3\n      pop\n      pop\n      pop\n      jump\t// out\n        /* \"#utility.yul\":11906:11966   */\n    tag_101:\n        /* \"#utility.yul\":11934:11937   */\n      0x00\n        /* \"#utility.yul\":11955:11960   */\n      dup2\n        /* \"#utility.yul\":11948:11960   */\n      swap1\n      pop\n        /* \"#utility.yul\":11906:11966   */\n      swap2\n      swap1\n      pop\n      jump\t// out\n        /* \"#utility.yul\":11972:12114   */\n    tag_102:\n        /* \"#utility.yul\":12022:12031   */\n      0x00\n        /* \"#utility.yul\":12055:12108   */\n      tag_233\n        /* \"#utility.yul\":12073:12107   */\n      tag_234\n        /* \"#utility.yul\":12082:12106   */\n      tag_235\n        /* \"#utility.yul\":12100:12105   */\n      dup5\n        /* \"#utility.yul\":12082:12106   */\n      tag_72\n      jump\t// in\n    tag_235:\n        /* \"#utility.yul\":12073:12107   */\n      tag_101\n      jump\t// in\n    tag_234:\n        /* \"#utility.yul\":12055:12108   */\n      tag_72\n      jump\t// in\n    tag_233:\n        /* \"#utility.yul\":12042:12108   */\n      swap1\n      pop\n        /* \"#utility.yul\":11972:12114   */\n      swap2\n      swap1\n      pop\n      jump\t// out\n        /* \"#utility.yul\":12120:12195   */\n    tag_103:\n        /* \"#utility.yul\":12163:12166   */\n      0x00\n        /* \"#utility.yul\":12184:12189   */\n      dup2\n        /* \"#utility.yul\":12177:12189   */\n      swap1\n      pop\n        /* \"#utility.yul\":12120:12195   */\n      swap2\n      swap1\n      pop\n      jump\t// out\n        /* \"#utility.yul\":12201:12470   */\n    tag_104:\n        /* \"#utility.yul\":12311:12350   */\n      tag_238\n        /* \"#utility.yul\":12342:12349   */\n      dup4\n        /* \"#utility.yul\":12311:12350   */\n      tag_102\n      jump\t// in\n    tag_238:\n        /* \"#utility.yul\":12372:12463   */\n      tag_239\n        /* \"#utility.yul\":12421:12462   */\n      tag_240\n        /* \"#utility.yul\":12445:12461   */\n      dup3\n        /* \"#utility.yul\":12421:12462   */\n      tag_103\n      jump\t// in\n    tag_240:\n        /* \"#utility.yul\":12413:12419   */\n      dup5\n        /* \"#utility.yul\":12406:12410   */\n      dup5\n        /* \"#utility.yul\":12400:12411   */\n      sload\n        /* \"#utility.yul\":12372:12463   */\n      tag_100\n      jump\t// in\n    tag_239:\n        /* \"#utility.yul\":12366:12370   */\n      dup3\n        /* \"#utility.yul\":12359:12464   */\n      sstore\n        /* \"#utility.yul\":12277:12470   */\n      pop\n        /* \"#utility.yul\":12201:12470   */\n      pop\n      pop\n      pop\n      jump\t// out\n        /* \"#utility.yul\":12476:12549   */\n    tag_105:\n        /* \"#utility.yul\":12521:12524   */\n      0x00\n        /* \"#utility.yul\":12476:12549   */\n      swap1\n      jump\t// out\n        /* \"#utility.yul\":12555:12744   */\n    tag_106:\n        /* \"#utility.yul\":12632:12664   */\n      tag_243\n      tag_105\n      jump\t// in\n    tag_243:\n        /* \"#utility.yul\":12673:12738   */\n      tag_244\n        /* \"#utility.yul\":12731:12737   */\n      dup2\n        /* \"#utility.yul\":12723:12729   */\n      dup5\n        /* \"#utility.yul\":12717:12721   */\n      dup5\n        /* \"#utility.yul\":12673:12738   */\n      tag_104\n      jump\t// in\n    tag_244:\n        /* \"#utility.yul\":12608:12744   */\n      pop\n        /* \"#utility.yul\":12555:12744   */\n      pop\n      pop\n      jump\t// out\n        /* \"#utility.yul\":12750:12936   */\n    tag_107:\n        /* \"#utility.yul\":12810:12930   */\n    tag_246:\n        /* \"#utility.yul\":12827:12830   */\n      dup2\n        /* \"#utility.yul\":12820:12825   */\n      dup2\n        /* \"#utility.yul\":12817:12831   */\n      lt\n        /* \"#utility.yul\":12810:12930   */\n      iszero\n      tag_248\n      jumpi\n        /* \"#utility.yul\":12881:12920   */\n      tag_249\n        /* \"#utility.yul\":12918:12919   */\n      0x00\n        /* \"#utility.yul\":12911:12916   */\n      dup3\n        /* \"#utility.yul\":12881:12920   */\n      tag_106\n      jump\t// in\n    tag_249:\n        /* \"#utility.yul\":12854:12855   */\n      0x01\n        /* \"#utility.yul\":12847:12852   */\n      dup2\n        /* \"#utility.yul\":12843:12856   */\n      add\n        /* \"#utility.yul\":12834:12856   */\n      swap1\n      pop\n        /* \"#utility.yul\":12810:12930   */\n      jump(tag_246)\n    tag_248:\n        /* \"#utility.yul\":12750:12936   */\n      pop\n      pop\n      jump\t// out\n        /* \"#utility.yul\":12942:13485   */\n    tag_108:\n        /* \"#utility.yul\":13043:13045   */\n      0x1f\n        /* \"#utility.yul\":13038:13041   */\n      dup3\n        /* \"#utility.yul\":13035:13046   */\n      gt\n        /* \"#utility.yul\":13032:13478   */\n      iszero\n      tag_251\n      jumpi\n        /* \"#utility.yul\":13077:13115   */\n      tag_252\n        /* \"#utility.yul\":13109:13114   */\n      dup2\n        /* \"#utility.yul\":13077:13115   */\n      tag_97\n      jump\t// in\n    tag_252:\n        /* \"#utility.yul\":13161:13190   */\n      tag_253\n        /* \"#utility.yul\":13179:13189   */\n      dup5\n        /* \"#utility.yul\":13161:13190   */\n      tag_98\n      jump\t// in\n    tag_253:\n        /* \"#utility.yul\":13151:13159   */\n      dup2\n        /* \"#utility.yul\":13147:13191   */\n      add\n        /* \"#utility.yul\":13344:13346   */\n      0x20\n        /* \"#utility.yul\":13332:13342   */\n      dup6\n        /* \"#utility.yul\":13329:13347   */\n      lt\n        /* \"#utility.yul\":13326:13375   */\n      iszero\n      tag_254\n      jumpi\n        /* \"#utility.yul\":13365:13373   */\n      dup2\n        /* \"#utility.yul\":13350:13373   */\n      swap1\n      pop\n        /* \"#utility.yul\":13326:13375   */\n    tag_254:\n        /* \"#utility.yul\":13388:13468   */\n      tag_255\n        /* \"#utility.yul\":13444:13466   */\n      tag_256\n        /* \"#utility.yul\":13462:13465   */\n      dup6\n        /* \"#utility.yul\":13444:13466   */\n      tag_98\n      jump\t// in\n    tag_256:\n        /* \"#utility.yul\":13434:13442   */\n      dup4\n        /* \"#utility.yul\":13430:13467   */\n      add\n        /* \"#utility.yul\":13417:13428   */\n      dup3\n        /* \"#utility.yul\":13388:13468   */\n      tag_107\n      jump\t// in\n    tag_255:\n        /* \"#utility.yul\":13047:13478   */\n      pop\n      pop\n        /* \"#utility.yul\":13032:13478   */\n    tag_251:\n        /* \"#utility.yul\":12942:13485   */\n      pop\n      pop\n      pop\n      jump\t// out\n        /* \"#utility.yul\":13491:13608   */\n    tag_109:\n        /* \"#utility.yul\":13545:13553   */\n      0x00\n        /* \"#utility.yul\":13595:13600   */\n      dup3\n        /* \"#utility.yul\":13589:13593   */\n      dup3\n        /* \"#utility.yul\":13585:13601   */\n      shr\n        /* \"#utility.yul\":13564:13601   */\n      swap1\n      pop\n        /* \"#utility.yul\":13491:13608   */\n      swap3\n      swap2\n      pop\n      pop\n      jump\t// out\n        /* \"#utility.yul\":13614:13783   */\n    tag_110:\n        /* \"#utility.yul\":13658:13664   */\n      0x00\n        /* \"#utility.yul\":13691:13742   */\n      tag_259\n        /* \"#utility.yul\":13739:13740   */\n      0x00\n        /* \"#utility.yul\":13735:13741   */\n      not\n        /* \"#utility.yul\":13727:13732   */\n      dup5\n        /* \"#utility.yul\":13724:13725   */\n      0x08\n        /* \"#utility.yul\":13720:13733   */\n      mul\n        /* \"#utility.yul\":13691:13742   */\n      tag_109\n      jump\t// in\n    tag_259:\n        /* \"#utility.yul\":13687:13743   */\n      not\n        /* \"#utility.yul\":13772:13776   */\n      dup1\n        /* \"#utility.yul\":13766:13770   */\n      dup4\n        /* \"#utility.yul\":13762:13777   */\n      and\n        /* \"#utility.yul\":13752:13777   */\n      swap2\n      pop\n        /* \"#utility.yul\":13665:13783   */\n      pop\n        /* \"#utility.yul\":13614:13783   */\n      swap3\n      swap2\n      pop\n      pop\n      jump\t// out\n        /* \"#utility.yul\":13788:14083   */\n    tag_111:\n        /* \"#utility.yul\":13864:13868   */\n      0x00\n        /* \"#utility.yul\":14010:14039   */\n      tag_261\n        /* \"#utility.yul\":14035:14038   */\n      dup4\n        /* \"#utility.yul\":14029:14033   */\n      dup4\n        /* \"#utility.yul\":14010:14039   */\n      tag_110\n      jump\t// in\n    tag_261:\n        /* \"#utility.yul\":14002:14039   */\n      swap2\n      pop\n        /* \"#utility.yul\":14072:14075   */\n      dup3\n        /* \"#utility.yul\":14069:14070   */\n      0x02\n        /* \"#utility.yul\":14065:14076   */\n      mul\n        /* \"#utility.yul\":14059:14063   */\n      dup3\n        /* \"#utility.yul\":14056:14077   */\n      or\n        /* \"#utility.yul\":14048:14077   */\n      swap1\n      pop\n        /* \"#utility.yul\":13788:14083   */\n      swap3\n      swap2\n      pop\n      pop\n      jump\t// out\n        /* \"#utility.yul\":14088:15483   */\n    tag_54:\n        /* \"#utility.yul\":14205:14242   */\n      tag_263\n        /* \"#utility.yul\":14238:14241   */\n      dup3\n        /* \"#utility.yul\":14205:14242   */\n      tag_78\n      jump\t// in\n    tag_263:\n        /* \"#utility.yul\":14307:14325   */\n      0xffffffffffffffff\n        /* \"#utility.yul\":14299:14305   */\n      dup2\n        /* \"#utility.yul\":14296:14326   */\n      gt\n        /* \"#utility.yul\":14293:14349   */\n      iszero\n      tag_264\n      jumpi\n        /* \"#utility.yul\":14329:14347   */\n      tag_265\n      tag_65\n      jump\t// in\n    tag_265:\n        /* \"#utility.yul\":14293:14349   */\n    tag_264:\n        /* \"#utility.yul\":14373:14411   */\n      tag_266\n        /* \"#utility.yul\":14405:14409   */\n      dup3\n        /* \"#utility.yul\":14399:14410   */\n      sload\n        /* \"#utility.yul\":14373:14411   */\n      tag_46\n      jump\t// in\n    tag_266:\n        /* \"#utility.yul\":14458:14525   */\n      tag_267\n        /* \"#utility.yul\":14518:14524   */\n      dup3\n        /* \"#utility.yul\":14510:14516   */\n      dup3\n        /* \"#utility.yul\":14504:14508   */\n      dup6\n        /* \"#utility.yul\":14458:14525   */\n      tag_108\n      jump\t// in\n    tag_267:\n        /* \"#utility.yul\":14552:14553   */\n      0x00\n        /* \"#utility.yul\":14576:14580   */\n      0x20\n        /* \"#utility.yul\":14563:14580   */\n      swap1\n      pop\n        /* \"#utility.yul\":14608:14610   */\n      0x1f\n        /* \"#utility.yul\":14600:14606   */\n      dup4\n        /* \"#utility.yul\":14597:14611   */\n      gt\n        /* \"#utility.yul\":14625:14626   */\n      0x01\n        /* \"#utility.yul\":14620:15238   */\n      dup2\n      eq\n      tag_269\n      jumpi\n        /* \"#utility.yul\":15282:15283   */\n      0x00\n        /* \"#utility.yul\":15299:15305   */\n      dup5\n        /* \"#utility.yul\":15296:15373   */\n      iszero\n      tag_270\n      jumpi\n        /* \"#utility.yul\":15348:15357   */\n      dup3\n        /* \"#utility.yul\":15343:15346   */\n      dup8\n        /* \"#utility.yul\":15339:15358   */\n      add\n        /* \"#utility.yul\":15333:15359   */\n      mload\n        /* \"#utility.yul\":15324:15359   */\n      swap1\n      pop\n        /* \"#utility.yul\":15296:15373   */\n    tag_270:\n        /* \"#utility.yul\":15399:15466   */\n      tag_271\n        /* \"#utility.yul\":15459:15465   */\n      dup6\n        /* \"#utility.yul\":15452:15457   */\n      dup3\n        /* \"#utility.yul\":15399:15466   */\n      tag_111\n      jump\t// in\n    tag_271:\n        /* \"#utility.yul\":15393:15397   */\n      dup7\n        /* \"#utility.yul\":15386:15467   */\n      sstore\n        /* \"#utility.yul\":15255:15477   */\n      pop\n        /* \"#utility.yul\":14590:15477   */\n      jump(tag_268)\n        /* \"#utility.yul\":14620:15238   */\n    tag_269:\n        /* \"#utility.yul\":14672:14676   */\n      0x1f\n        /* \"#utility.yul\":14668:14677   */\n      not\n        /* \"#utility.yul\":14660:14666   */\n      dup5\n        /* \"#utility.yul\":14656:14678   */\n      and\n        /* \"#utility.yul\":14706:14743   */\n      tag_272\n        /* \"#utility.yul\":14738:14742   */\n      dup7\n        /* \"#utility.yul\":14706:14743   */\n      tag_97\n      jump\t// in\n    tag_272:\n        /* \"#utility.yul\":14765:14766   */\n      0x00\n        /* \"#utility.yul\":14779:14987   */\n    tag_273:\n        /* \"#utility.yul\":14793:14800   */\n      dup3\n        /* \"#utility.yul\":14790:14791   */\n      dup2\n        /* \"#utility.yul\":14787:14801   */\n      lt\n        /* \"#utility.yul\":14779:14987   */\n      iszero\n      tag_275\n      jumpi\n        /* \"#utility.yul\":14872:14881   */\n      dup5\n        /* \"#utility.yul\":14867:14870   */\n      dup10\n        /* \"#utility.yul\":14863:14882   */\n      add\n        /* \"#utility.yul\":14857:14883   */\n      mload\n        /* \"#utility.yul\":14849:14855   */\n      dup3\n        /* \"#utility.yul\":14842:14884   */\n      sstore\n        /* \"#utility.yul\":14923:14924   */\n      0x01\n        /* \"#utility.yul\":14915:14921   */\n      dup3\n        /* \"#utility.yul\":14911:14925   */\n      add\n        /* \"#utility.yul\":14901:14925   */\n      swap2\n      pop\n        /* \"#utility.yul\":14970:14972   */\n      0x20\n        /* \"#utility.yul\":14959:14968   */\n      dup6\n        /* \"#utility.yul\":14955:14973   */\n      add\n        /* \"#utility.yul\":14942:14973   */\n      swap5\n      pop\n        /* \"#utility.yul\":14816:14820   */\n      0x20\n        /* \"#utility.yul\":14813:14814   */\n      dup2\n        /* \"#utility.yul\":14809:14821   */\n      add\n        /* \"#utility.yul\":14804:14821   */\n      swap1\n      pop\n        /* \"#utility.yul\":14779:14987   */\n      jump(tag_273)\n    tag_275:\n        /* \"#utility.yul\":15015:15021   */\n      dup7\n        /* \"#utility.yul\":15006:15013   */\n      dup4\n        /* \"#utility.yul\":15003:15022   */\n      lt\n        /* \"#utility.yul\":15000:15179   */\n      iszero\n      tag_276\n      jumpi\n        /* \"#utility.yul\":15073:15082   */\n      dup5\n        /* \"#utility.yul\":15068:15071   */\n      dup10\n        /* \"#utility.yul\":15064:15083   */\n      add\n        /* \"#utility.yul\":15058:15084   */\n      mload\n        /* \"#utility.yul\":15116:15164   */\n      tag_277\n        /* \"#utility.yul\":15158:15162   */\n      0x1f\n        /* \"#utility.yul\":15150:15156   */\n      dup10\n        /* \"#utility.yul\":15146:15163   */\n      and\n        /* \"#utility.yul\":15135:15144   */\n      dup3\n        /* \"#utility.yul\":15116:15164   */\n      tag_110\n      jump\t// in\n    tag_277:\n        /* \"#utility.yul\":15108:15114   */\n      dup4\n        /* \"#utility.yul\":15101:15165   */\n      sstore\n        /* \"#utility.yul\":15023:15179   */\n      pop\n        /* \"#utility.yul\":15000:15179   */\n    tag_276:\n        /* \"#utility.yul\":15225:15226   */\n      0x01\n        /* \"#utility.yul\":15221:15222   */\n      0x02\n        /* \"#utility.yul\":15213:15219   */\n      dup9\n        /* \"#utility.yul\":15209:15223   */\n      mul\n        /* \"#utility.yul\":15205:15227   */\n      add\n        /* \"#utility.yul\":15199:15203   */\n      dup9\n        /* \"#utility.yul\":15192:15228   */\n      sstore\n        /* \"#utility.yul\":14627:15238   */\n      pop\n      pop\n      pop\n        /* \"#utility.yul\":14590:15477   */\n    tag_268:\n      pop\n        /* \"#utility.yul\":14180:15483   */\n      pop\n      pop\n      pop\n        /* \"#utility.yul\":14088:15483   */\n      pop\n      pop\n      jump\t// out\n        /* \"#utility.yul\":15489:15866   */\n    tag_112:\n        /* \"#utility.yul\":15577:15580   */\n      0x00\n        /* \"#utility.yul\":15605:15644   */\n      tag_279\n        /* \"#utility.yul\":15638:15643   */\n      dup3\n        /* \"#utility.yul\":15605:15644   */\n      tag_78\n      jump\t// in\n    tag_279:\n        /* \"#utility.yul\":15660:15731   */\n      tag_280\n        /* \"#utility.yul\":15724:15730   */\n      dup2\n        /* \"#utility.yul\":15719:15722   */\n      dup6\n        /* \"#utility.yul\":15660:15731   */\n      tag_89\n      jump\t// in\n    tag_280:\n        /* \"#utility.yul\":15653:15731   */\n      swap4\n      pop\n        /* \"#utility.yul\":15740:15805   */\n      tag_281\n        /* \"#utility.yul\":15798:15804   */\n      dup2\n        /* \"#utility.yul\":15793:15796   */\n      dup6\n        /* \"#utility.yul\":15786:15790   */\n      0x20\n        /* \"#utility.yul\":15779:15784   */\n      dup7\n        /* \"#utility.yul\":15775:15791   */\n      add\n        /* \"#utility.yul\":15740:15805   */\n      tag_80\n      jump\t// in\n    tag_281:\n        /* \"#utility.yul\":15830:15859   */\n      tag_282\n        /* \"#utility.yul\":15852:15858   */\n      dup2\n        /* \"#utility.yul\":15830:15859   */\n      tag_64\n      jump\t// in\n    tag_282:\n        /* \"#utility.yul\":15825:15828   */\n      dup5\n        /* \"#utility.yul\":15821:15860   */\n      add\n        /* \"#utility.yul\":15814:15860   */\n      swap2\n      pop\n        /* \"#utility.yul\":15581:15866   */\n      pop\n        /* \"#utility.yul\":15489:15866   */\n      swap3\n      swap2\n      pop\n      pop\n      jump\t// out\n        /* \"#utility.yul\":15872:16185   */\n    tag_56:\n        /* \"#utility.yul\":15985:15989   */\n      0x00\n        /* \"#utility.yul\":16023:16025   */\n      0x20\n        /* \"#utility.yul\":16012:16021   */\n      dup3\n        /* \"#utility.yul\":16008:16026   */\n      add\n        /* \"#utility.yul\":16000:16026   */\n      swap1\n      pop\n        /* \"#utility.yul\":16072:16081   */\n      dup2\n        /* \"#utility.yul\":16066:16070   */\n      dup2\n        /* \"#utility.yul\":16062:16082   */\n      sub\n        /* \"#utility.yul\":16058:16059   */\n      0x00\n        /* \"#utility.yul\":16047:16056   */\n      dup4\n        /* \"#utility.yul\":16043:16060   */\n      add\n        /* \"#utility.yul\":16036:16083   */\n      mstore\n        /* \"#utility.yul\":16100:16178   */\n      tag_284\n        /* \"#utility.yul\":16173:16177   */\n      dup2\n        /* \"#utility.yul\":16164:16170   */\n      dup5\n        /* \"#utility.yul\":16100:16178   */\n      tag_112\n      jump\t// in\n    tag_284:\n        /* \"#utility.yul\":16092:16178   */\n      swap1\n      pop\n        /* \"#utility.yul\":15872:16185   */\n      swap3\n      swap2\n      pop\n      pop\n      jump\t// out\n\n    auxdata: 0xa26469706673582212209b40d68bc15aee80846da3f1b761cf5c996b65ed0e826c2678dca8f6b68ee73e64736f6c63430008160033\n}\n",
				"bytecode": {
					"linkReferences": {},
					"object": "608060405234801561000f575f80fd5b50335f806101000a81548173ffffffffffffffffffffffffffffffffffffffff021916908373ffffffffffffffffffffffffffffffffffffffff160217905550610cb08061005c5f395ff3fe608060405234801561000f575f80fd5b5060043610610055575f3560e01c8063383bebae14610059578063398dfa7914610075578063ca981d9114610093578063deafddae146100af578063df096576146100df575b5f80fd5b610073600480360381019061006e91906105c4565b6100fd565b005b61007d610208565b60405161008a9190610753565b60405180910390f35b6100ad60048036038101906100a89190610773565b61036b565b005b6100c960048036038101906100c49190610773565b6103d7565b6040516100d691906107c9565b60405180910390f35b6100e7610421565b6040516100f49190610821565b60405180910390f35b335f8054906101000a900473ffffffffffffffffffffffffffffffffffffffff1673ffffffffffffffffffffffffffffffffffffffff168173ffffffffffffffffffffffffffffffffffffffff161461018b576040517f08c379a0000000000000000000000000000000000000000000000000000000008152600401610182906108ba565b60405180910390fd5b5f8360405160200161019d9190610912565b6040516020818303038152906040528051906020012090508260015f8381526020019081526020015f20819055507f0a3c6f62477defa9fa18ec25f11bc12442e443ba8e3d8f822e381b98c0f39b08816040516101fa9190610940565b60405180910390a150505050565b6060335f8054906101000a900473ffffffffffffffffffffffffffffffffffffffff1673ffffffffffffffffffffffffffffffffffffffff168173ffffffffffffffffffffffffffffffffffffffff1614610298576040517f08c379a000000000000000000000000000000000000000000000000000000000815260040161028f906108ba565b60405180910390fd5b6002805480602002602001604051908101604052809291908181526020015f905b82821015610361578382905f5260205f200180546102d690610986565b80601f016020809104026020016040519081016040528092919081815260200182805461030290610986565b801561034d5780601f106103245761010080835404028352916020019161034d565b820191905f5260205f20905b81548152906001019060200180831161033057829003601f168201915b5050505050815260200190600101906102b9565b5050505091505090565b600281908060018154018082558091505060019003905f5260205f20015f90919091909150908161039c9190610b53565b507f2106682f28b0ca24370a9e991461ab39ab8032fb3df73fb628728436cf5bcdf6816040516103cc9190610c5a565b60405180910390a150565b5f80826040516020016103ea9190610912565b6040516020818303038152906040528051906020012090505f60015f8381526020019081526020015f205490508092505050919050565b5f8054906101000a900473ffffffffffffffffffffffffffffffffffffffff1681565b5f604051905090565b5f80fd5b5f80fd5b5f80fd5b5f80fd5b5f601f19601f8301169050919050565b7f4e487b71000000000000000000000000000000000000000000000000000000005f52604160045260245ffd5b6104a38261045d565b810181811067ffffffffffffffff821117156104c2576104c161046d565b5b80604052505050565b5f6104d4610444565b90506104e0828261049a565b919050565b5f67ffffffffffffffff8211156104ff576104fe61046d565b5b6105088261045d565b9050602081019050919050565b828183375f83830152505050565b5f610535610530846104e5565b6104cb565b90508281526020810184848401111561055157610550610459565b5b61055c848285610515565b509392505050565b5f82601f83011261057857610577610455565b5b8135610588848260208601610523565b91505092915050565b5f819050919050565b6105a381610591565b81146105ad575f80fd5b50565b5f813590506105be8161059a565b92915050565b5f80604083850312156105da576105d961044d565b5b5f83013567ffffffffffffffff8111156105f7576105f6610451565b5b61060385828601610564565b9250506020610614858286016105b0565b9150509250929050565b5f81519050919050565b5f82825260208201905092915050565b5f819050602082019050919050565b5f81519050919050565b5f82825260208201905092915050565b5f5b8381101561067e578082015181840152602081019050610663565b5f8484015250505050565b5f61069382610647565b61069d8185610651565b93506106ad818560208601610661565b6106b68161045d565b840191505092915050565b5f6106cc8383610689565b905092915050565b5f602082019050919050565b5f6106ea8261061e565b6106f48185610628565b93508360208202850161070685610638565b805f5b85811015610741578484038952815161072285826106c1565b945061072d836106d4565b925060208a01995050600181019050610709565b50829750879550505050505092915050565b5f6020820190508181035f83015261076b81846106e0565b905092915050565b5f602082840312156107885761078761044d565b5b5f82013567ffffffffffffffff8111156107a5576107a4610451565b5b6107b184828501610564565b91505092915050565b6107c381610591565b82525050565b5f6020820190506107dc5f8301846107ba565b92915050565b5f73ffffffffffffffffffffffffffffffffffffffff82169050919050565b5f61080b826107e2565b9050919050565b61081b81610801565b82525050565b5f6020820190506108345f830184610812565b92915050565b5f82825260208201905092915050565b7f4e6f207469656e6573207065726d69736f73207061726120656a6563757461725f8201527f20657374612066756e63696f6e00000000000000000000000000000000000000602082015250565b5f6108a4602d8361083a565b91506108af8261084a565b604082019050919050565b5f6020820190508181035f8301526108d181610898565b9050919050565b5f81905092915050565b5f6108ec82610647565b6108f681856108d8565b9350610906818560208601610661565b80840191505092915050565b5f61091d82846108e2565b915081905092915050565b5f819050919050565b61093a81610928565b82525050565b5f6020820190506109535f830184610931565b92915050565b7f4e487b71000000000000000000000000000000000000000000000000000000005f52602260045260245ffd5b5f600282049050600182168061099d57607f821691505b6020821081036109b0576109af610959565b5b50919050565b5f819050815f5260205f209050919050565b5f6020601f8301049050919050565b5f82821b905092915050565b5f60088302610a127fffffffffffffffffffffffffffffffffffffffffffffffffffffffffffffffff826109d7565b610a1c86836109d7565b95508019841693508086168417925050509392505050565b5f819050919050565b5f610a57610a52610a4d84610591565b610a34565b610591565b9050919050565b5f819050919050565b610a7083610a3d565b610a84610a7c82610a5e565b8484546109e3565b825550505050565b5f90565b610a98610a8c565b610aa3818484610a67565b505050565b5b81811015610ac657610abb5f82610a90565b600181019050610aa9565b5050565b601f821115610b0b57610adc816109b6565b610ae5846109c8565b81016020851015610af4578190505b610b08610b00856109c8565b830182610aa8565b50505b505050565b5f82821c905092915050565b5f610b2b5f1984600802610b10565b1980831691505092915050565b5f610b438383610b1c565b9150826002028217905092915050565b610b5c82610647565b67ffffffffffffffff811115610b7557610b7461046d565b5b610b7f8254610986565b610b8a828285610aca565b5f60209050601f831160018114610bbb575f8415610ba9578287015190505b610bb38582610b38565b865550610c1a565b601f198416610bc9866109b6565b5f5b82811015610bf057848901518255600182019150602085019450602081019050610bcb565b86831015610c0d5784890151610c09601f891682610b1c565b8355505b6001600288020188555050505b505050505050565b5f610c2c82610647565b610c36818561083a565b9350610c46818560208601610661565b610c4f8161045d565b840191505092915050565b5f6020820190508181035f830152610c728184610c22565b90509291505056fea26469706673582212209b40d68bc15aee80846da3f1b761cf5c996b65ed0e826c2678dca8f6b68ee73e64736f6c63430008160033",
					"opcodes": "PUSH1 0x80 PUSH1 0x40 MSTORE CALLVALUE DUP1 ISZERO PUSH2 0xF JUMPI PUSH0 DUP1 REVERT JUMPDEST POP CALLER PUSH0 DUP1 PUSH2 0x100 EXP DUP2 SLOAD DUP2 PUSH20 0xFFFFFFFFFFFFFFFFFFFFFFFFFFFFFFFFFFFFFFFF MUL NOT AND SWAP1 DUP4 PUSH20 0xFFFFFFFFFFFFFFFFFFFFFFFFFFFFFFFFFFFFFFFF AND MUL OR SWAP1 SSTORE POP PUSH2 0xCB0 DUP1 PUSH2 0x5C PUSH0 CODECOPY PUSH0 RETURN INVALID PUSH1 0x80 PUSH1 0x40 MSTORE CALLVALUE DUP1 ISZERO PUSH2 0xF JUMPI PUSH0 DUP1 REVERT JUMPDEST POP PUSH1 0x4 CALLDATASIZE LT PUSH2 0x55 JUMPI PUSH0 CALLDATALOAD PUSH1 0xE0 SHR DUP1 PUSH4 0x383BEBAE EQ PUSH2 0x59 JUMPI DUP1 PUSH4 0x398DFA79 EQ PUSH2 0x75 JUMPI DUP1 PUSH4 0xCA981D91 EQ PUSH2 0x93 JUMPI DUP1 PUSH4 0xDEAFDDAE EQ PUSH2 0xAF JUMPI DUP1 PUSH4 0xDF096576 EQ PUSH2 0xDF JUMPI JUMPDEST PUSH0 DUP1 REVERT JUMPDEST PUSH2 0x73 PUSH1 0x4 DUP1 CALLDATASIZE SUB DUP2 ADD SWAP1 PUSH2 0x6E SWAP2 SWAP1 PUSH2 0x5C4 JUMP JUMPDEST PUSH2 0xFD JUMP JUMPDEST STOP JUMPDEST PUSH2 0x7D PUSH2 0x208 JUMP JUMPDEST PUSH1 0x40 MLOAD PUSH2 0x8A SWAP2 SWAP1 PUSH2 0x753 JUMP JUMPDEST PUSH1 0x40 MLOAD DUP1 SWAP2 SUB SWAP1 RETURN JUMPDEST PUSH2 0xAD PUSH1 0x4 DUP1 CALLDATASIZE SUB DUP2 ADD SWAP1 PUSH2 0xA8 SWAP2 SWAP1 PUSH2 0x773 JUMP JUMPDEST PUSH2 0x36B JUMP JUMPDEST STOP JUMPDEST PUSH2 0xC9 PUSH1 0x4 DUP1 CALLDATASIZE SUB DUP2 ADD SWAP1 PUSH2 0xC4 SWAP2 SWAP1 PUSH2 0x773 JUMP JUMPDEST PUSH2 0x3D7 JUMP JUMPDEST PUSH1 0x40 MLOAD PUSH2 0xD6 SWAP2 SWAP1 PUSH2 0x7C9 JUMP JUMPDEST PUSH1 0x40 MLOAD DUP1 SWAP2 SUB SWAP1 RETURN JUMPDEST PUSH2 0xE7 PUSH2 0x421 JUMP JUMPDEST PUSH1 0x40 MLOAD PUSH2 0xF4 SWAP2 SWAP1 PUSH2 0x821 JUMP JUMPDEST PUSH1 0x40 MLOAD DUP1 SWAP2 SUB SWAP1 RETURN JUMPDEST CALLER PUSH0 DUP1 SLOAD SWAP1 PUSH2 0x100 EXP SWAP1 DIV PUSH20 0xFFFFFFFFFFFFFFFFFFFFFFFFFFFFFFFFFFFFFFFF AND PUSH20 0xFFFFFFFFFFFFFFFFFFFFFFFFFFFFFFFFFFFFFFFF AND DUP2 PUSH20 0xFFFFFFFFFFFFFFFFFFFFFFFFFFFFFFFFFFFFFFFF AND EQ PUSH2 0x18B JUMPI PUSH1 0x40 MLOAD PUSH32 0x8C379A000000000000000000000000000000000000000000000000000000000 DUP2 MSTORE PUSH1 0x4 ADD PUSH2 0x182 SWAP1 PUSH2 0x8BA JUMP JUMPDEST PUSH1 0x40 MLOAD DUP1 SWAP2 SUB SWAP1 REVERT JUMPDEST PUSH0 DUP4 PUSH1 0x40 MLOAD PUSH1 0x20 ADD PUSH2 0x19D SWAP2 SWAP1 PUSH2 0x912 JUMP JUMPDEST PUSH1 0x40 MLOAD PUSH1 0x20 DUP2 DUP4 SUB SUB DUP2 MSTORE SWAP1 PUSH1 0x40 MSTORE DUP1 MLOAD SWAP1 PUSH1 0x20 ADD KECCAK256 SWAP1 POP DUP3 PUSH1 0x1 PUSH0 DUP4 DUP2 MSTORE PUSH1 0x20 ADD SWAP1 DUP2 MSTORE PUSH1 0x20 ADD PUSH0 KECCAK256 DUP2 SWAP1 SSTORE POP PUSH32 0xA3C6F62477DEFA9FA18EC25F11BC12442E443BA8E3D8F822E381B98C0F39B08 DUP2 PUSH1 0x40 MLOAD PUSH2 0x1FA SWAP2 SWAP1 PUSH2 0x940 JUMP JUMPDEST PUSH1 0x40 MLOAD DUP1 SWAP2 SUB SWAP1 LOG1 POP POP POP POP JUMP JUMPDEST PUSH1 0x60 CALLER PUSH0 DUP1 SLOAD SWAP1 PUSH2 0x100 EXP SWAP1 DIV PUSH20 0xFFFFFFFFFFFFFFFFFFFFFFFFFFFFFFFFFFFFFFFF AND PUSH20 0xFFFFFFFFFFFFFFFFFFFFFFFFFFFFFFFFFFFFFFFF AND DUP2 PUSH20 0xFFFFFFFFFFFFFFFFFFFFFFFFFFFFFFFFFFFFFFFF AND EQ PUSH2 0x298 JUMPI PUSH1 0x40 MLOAD PUSH32 0x8C379A000000000000000000000000000000000000000000000000000000000 DUP2 MSTORE PUSH1 0x4 ADD PUSH2 0x28F SWAP1 PUSH2 0x8BA JUMP JUMPDEST PUSH1 0x40 MLOAD DUP1 SWAP2 SUB SWAP1 REVERT JUMPDEST PUSH1 0x2 DUP1 SLOAD DUP1 PUSH1 0x20 MUL PUSH1 0x20 ADD PUSH1 0x40 MLOAD SWAP1 DUP2 ADD PUSH1 0x40 MSTORE DUP1 SWAP3 SWAP2 SWAP1 DUP2 DUP2 MSTORE PUSH1 0x20 ADD PUSH0 SWAP1 JUMPDEST DUP3 DUP3 LT ISZERO PUSH2 0x361 JUMPI DUP4 DUP3 SWAP1 PUSH0 MSTORE PUSH1 0x20 PUSH0 KECCAK256 ADD DUP1 SLOAD PUSH2 0x2D6 SWAP1 PUSH2 0x986 JUMP JUMPDEST DUP1 PUSH1 0x1F ADD PUSH1 0x20 DUP1 SWAP2 DIV MUL PUSH1 0x20 ADD PUSH1 0x40 MLOAD SWAP1 DUP2 ADD PUSH1 0x40 MSTORE DUP1 SWAP3 SWAP2 SWAP1 DUP2 DUP2 MSTORE PUSH1 0x20 ADD DUP3 DUP1 SLOAD PUSH2 0x302 SWAP1 PUSH2 0x986 JUMP JUMPDEST DUP1 ISZERO PUSH2 0x34D JUMPI DUP1 PUSH1 0x1F LT PUSH2 0x324 JUMPI PUSH2 0x100 DUP1 DUP4 SLOAD DIV MUL DUP4 MSTORE SWAP2 PUSH1 0x20 ADD SWAP2 PUSH2 0x34D JUMP JUMPDEST DUP3 ADD SWAP2 SWAP1 PUSH0 MSTORE PUSH1 0x20 PUSH0 KECCAK256 SWAP1 JUMPDEST DUP2 SLOAD DUP2 MSTORE SWAP1 PUSH1 0x1 ADD SWAP1 PUSH1 0x20 ADD DUP1 DUP4 GT PUSH2 0x330 JUMPI DUP3 SWAP1 SUB PUSH1 0x1F AND DUP3 ADD SWAP2 JUMPDEST POP POP POP POP POP DUP2 MSTORE PUSH1 0x20 ADD SWAP1 PUSH1 0x1 ADD SWAP1 PUSH2 0x2B9 JUMP JUMPDEST POP POP POP POP SWAP2 POP POP SWAP1 JUMP JUMPDEST PUSH1 0x2 DUP2 SWAP1 DUP1 PUSH1 0x1 DUP2 SLOAD ADD DUP1 DUP3 SSTORE DUP1 SWAP2 POP POP PUSH1 0x1 SWAP1 SUB SWAP1 PUSH0 MSTORE PUSH1 0x20 PUSH0 KECCAK256 ADD PUSH0 SWAP1 SWAP2 SWAP1 SWAP2 SWAP1 SWAP2 POP SWAP1 DUP2 PUSH2 0x39C SWAP2 SWAP1 PUSH2 0xB53 JUMP JUMPDEST POP PUSH32 0x2106682F28B0CA24370A9E991461AB39AB8032FB3DF73FB628728436CF5BCDF6 DUP2 PUSH1 0x40 MLOAD PUSH2 0x3CC SWAP2 SWAP1 PUSH2 0xC5A JUMP JUMPDEST PUSH1 0x40 MLOAD DUP1 SWAP2 SUB SWAP1 LOG1 POP JUMP JUMPDEST PUSH0 DUP1 DUP3 PUSH1 0x40 MLOAD PUSH1 0x20 ADD PUSH2 0x3EA SWAP2 SWAP1 PUSH2 0x912 JUMP JUMPDEST PUSH1 0x40 MLOAD PUSH1 0x20 DUP2 DUP4 SUB SUB DUP2 MSTORE SWAP1 PUSH1 0x40 MSTORE DUP1 MLOAD SWAP1 PUSH1 0x20 ADD KECCAK256 SWAP1 POP PUSH0 PUSH1 0x1 PUSH0 DUP4 DUP2 MSTORE PUSH1 0x20 ADD SWAP1 DUP2 MSTORE PUSH1 0x20 ADD PUSH0 KECCAK256 SLOAD SWAP1 POP DUP1 SWAP3 POP POP POP SWAP2 SWAP1 POP JUMP JUMPDEST PUSH0 DUP1 SLOAD SWAP1 PUSH2 0x100 EXP SWAP1 DIV PUSH20 0xFFFFFFFFFFFFFFFFFFFFFFFFFFFFFFFFFFFFFFFF AND DUP2 JUMP JUMPDEST PUSH0 PUSH1 0x40 MLOAD SWAP1 POP SWAP1 JUMP JUMPDEST PUSH0 DUP1 REVERT JUMPDEST PUSH0 DUP1 REVERT JUMPDEST PUSH0 DUP1 REVERT JUMPDEST PUSH0 DUP1 REVERT JUMPDEST PUSH0 PUSH1 0x1F NOT PUSH1 0x1F DUP4 ADD AND SWAP1 POP SWAP2 SWAP1 POP JUMP JUMPDEST PUSH32 0x4E487B7100000000000000000000000000000000000000000000000000000000 PUSH0 MSTORE PUSH1 0x41 PUSH1 0x4 MSTORE PUSH1 0x24 PUSH0 REVERT JUMPDEST PUSH2 0x4A3 DUP3 PUSH2 0x45D JUMP JUMPDEST DUP2 ADD DUP2 DUP2 LT PUSH8 0xFFFFFFFFFFFFFFFF DUP3 GT OR ISZERO PUSH2 0x4C2 JUMPI PUSH2 0x4C1 PUSH2 0x46D JUMP JUMPDEST JUMPDEST DUP1 PUSH1 0x40 MSTORE POP POP POP JUMP JUMPDEST PUSH0 PUSH2 0x4D4 PUSH2 0x444 JUMP JUMPDEST SWAP1 POP PUSH2 0x4E0 DUP3 DUP3 PUSH2 0x49A JUMP JUMPDEST SWAP2 SWAP1 POP JUMP JUMPDEST PUSH0 PUSH8 0xFFFFFFFFFFFFFFFF DUP3 GT ISZERO PUSH2 0x4FF JUMPI PUSH2 0x4FE PUSH2 0x46D JUMP JUMPDEST JUMPDEST PUSH2 0x508 DUP3 PUSH2 0x45D JUMP JUMPDEST SWAP1 POP PUSH1 0x20 DUP2 ADD SWAP1 POP SWAP2 SWAP1 POP JUMP JUMPDEST DUP3 DUP2 DUP4 CALLDATACOPY PUSH0 DUP4 DUP4 ADD MSTORE POP POP POP JUMP JUMPDEST PUSH0 PUSH2 0x535 PUSH2 0x530 DUP5 PUSH2 0x4E5 JUMP JUMPDEST PUSH2 0x4CB JUMP JUMPDEST SWAP1 POP DUP3 DUP2 MSTORE PUSH1 0x20 DUP2 ADD DUP5 DUP5 DUP5 ADD GT ISZERO PUSH2 0x551 JUMPI PUSH2 0x550 PUSH2 0x459 JUMP JUMPDEST JUMPDEST PUSH2 0x55C DUP5 DUP3 DUP6 PUSH2 0x515 JUMP JUMPDEST POP SWAP4 SWAP3 POP POP POP JUMP JUMPDEST PUSH0 DUP3 PUSH1 0x1F DUP4 ADD SLT PUSH2 0x578 JUMPI PUSH2 0x577 PUSH2 0x455 JUMP JUMPDEST JUMPDEST DUP2 CALLDATALOAD PUSH2 0x588 DUP5 DUP3 PUSH1 0x20 DUP7 ADD PUSH2 0x523 JUMP JUMPDEST SWAP2 POP POP SWAP3 SWAP2 POP POP JUMP JUMPDEST PUSH0 DUP2 SWAP1 POP SWAP2 SWAP1 POP JUMP JUMPDEST PUSH2 0x5A3 DUP2 PUSH2 0x591 JUMP JUMPDEST DUP2 EQ PUSH2 0x5AD JUMPI PUSH0 DUP1 REVERT JUMPDEST POP JUMP JUMPDEST PUSH0 DUP2 CALLDATALOAD SWAP1 POP PUSH2 0x5BE DUP2 PUSH2 0x59A JUMP JUMPDEST SWAP3 SWAP2 POP POP JUMP JUMPDEST PUSH0 DUP1 PUSH1 0x40 DUP4 DUP6 SUB SLT ISZERO PUSH2 0x5DA JUMPI PUSH2 0x5D9 PUSH2 0x44D JUMP JUMPDEST JUMPDEST PUSH0 DUP4 ADD CALLDATALOAD PUSH8 0xFFFFFFFFFFFFFFFF DUP2 GT ISZERO PUSH2 0x5F7 JUMPI PUSH2 0x5F6 PUSH2 0x451 JUMP JUMPDEST JUMPDEST PUSH2 0x603 DUP6 DUP3 DUP7 ADD PUSH2 0x564 JUMP JUMPDEST SWAP3 POP POP PUSH1 0x20 PUSH2 0x614 DUP6 DUP3 DUP7 ADD PUSH2 0x5B0 JUMP JUMPDEST SWAP2 POP POP SWAP3 POP SWAP3 SWAP1 POP JUMP JUMPDEST PUSH0 DUP2 MLOAD SWAP1 POP SWAP2 SWAP1 POP JUMP JUMPDEST PUSH0 DUP3 DUP3 MSTORE PUSH1 0x20 DUP3 ADD SWAP1 POP SWAP3 SWAP2 POP POP JUMP JUMPDEST PUSH0 DUP2 SWAP1 POP PUSH1 0x20 DUP3 ADD SWAP1 POP SWAP2 SWAP1 POP JUMP JUMPDEST PUSH0 DUP2 MLOAD SWAP1 POP SWAP2 SWAP1 POP JUMP JUMPDEST PUSH0 DUP3 DUP3 MSTORE PUSH1 0x20 DUP3 ADD SWAP1 POP SWAP3 SWAP2 POP POP JUMP JUMPDEST PUSH0 JUMPDEST DUP4 DUP2 LT ISZERO PUSH2 0x67E JUMPI DUP1 DUP3 ADD MLOAD DUP2 DUP5 ADD MSTORE PUSH1 0x20 DUP2 ADD SWAP1 POP PUSH2 0x663 JUMP JUMPDEST PUSH0 DUP5 DUP5 ADD MSTORE POP POP POP POP JUMP JUMPDEST PUSH0 PUSH2 0x693 DUP3 PUSH2 0x647 JUMP JUMPDEST PUSH2 0x69D DUP2 DUP6 PUSH2 0x651 JUMP JUMPDEST SWAP4 POP PUSH2 0x6AD DUP2 DUP6 PUSH1 0x20 DUP7 ADD PUSH2 0x661 JUMP JUMPDEST PUSH2 0x6B6 DUP2 PUSH2 0x45D JUMP JUMPDEST DUP5 ADD SWAP2 POP POP SWAP3 SWAP2 POP POP JUMP JUMPDEST PUSH0 PUSH2 0x6CC DUP4 DUP4 PUSH2 0x689 JUMP JUMPDEST SWAP1 POP SWAP3 SWAP2 POP POP JUMP JUMPDEST PUSH0 PUSH1 0x20 DUP3 ADD SWAP1 POP SWAP2 SWAP1 POP JUMP JUMPDEST PUSH0 PUSH2 0x6EA DUP3 PUSH2 0x61E JUMP JUMPDEST PUSH2 0x6F4 DUP2 DUP6 PUSH2 0x628 JUMP JUMPDEST SWAP4 POP DUP4 PUSH1 0x20 DUP3 MUL DUP6 ADD PUSH2 0x706 DUP6 PUSH2 0x638 JUMP JUMPDEST DUP1 PUSH0 JUMPDEST DUP6 DUP2 LT ISZERO PUSH2 0x741 JUMPI DUP5 DUP5 SUB DUP10 MSTORE DUP2 MLOAD PUSH2 0x722 DUP6 DUP3 PUSH2 0x6C1 JUMP JUMPDEST SWAP5 POP PUSH2 0x72D DUP4 PUSH2 0x6D4 JUMP JUMPDEST SWAP3 POP PUSH1 0x20 DUP11 ADD SWAP10 POP POP PUSH1 0x1 DUP2 ADD SWAP1 POP PUSH2 0x709 JUMP JUMPDEST POP DUP3 SWAP8 POP DUP8 SWAP6 POP POP POP POP POP POP SWAP3 SWAP2 POP POP JUMP JUMPDEST PUSH0 PUSH1 0x20 DUP3 ADD SWAP1 POP DUP2 DUP2 SUB PUSH0 DUP4 ADD MSTORE PUSH2 0x76B DUP2 DUP5 PUSH2 0x6E0 JUMP JUMPDEST SWAP1 POP SWAP3 SWAP2 POP POP JUMP JUMPDEST PUSH0 PUSH1 0x20 DUP3 DUP5 SUB SLT ISZERO PUSH2 0x788 JUMPI PUSH2 0x787 PUSH2 0x44D JUMP JUMPDEST JUMPDEST PUSH0 DUP3 ADD CALLDATALOAD PUSH8 0xFFFFFFFFFFFFFFFF DUP2 GT ISZERO PUSH2 0x7A5 JUMPI PUSH2 0x7A4 PUSH2 0x451 JUMP JUMPDEST JUMPDEST PUSH2 0x7B1 DUP5 DUP3 DUP6 ADD PUSH2 0x564 JUMP JUMPDEST SWAP2 POP POP SWAP3 SWAP2 POP POP JUMP JUMPDEST PUSH2 0x7C3 DUP2 PUSH2 0x591 JUMP JUMPDEST DUP3 MSTORE POP POP JUMP JUMPDEST PUSH0 PUSH1 0x20 DUP3 ADD SWAP1 POP PUSH2 0x7DC PUSH0 DUP4 ADD DUP5 PUSH2 0x7BA JUMP JUMPDEST SWAP3 SWAP2 POP POP JUMP JUMPDEST PUSH0 PUSH20 0xFFFFFFFFFFFFFFFFFFFFFFFFFFFFFFFFFFFFFFFF DUP3 AND SWAP1 POP SWAP2 SWAP1 POP JUMP JUMPDEST PUSH0 PUSH2 0x80B DUP3 PUSH2 0x7E2 JUMP JUMPDEST SWAP1 POP SWAP2 SWAP1 POP JUMP JUMPDEST PUSH2 0x81B DUP2 PUSH2 0x801 JUMP JUMPDEST DUP3 MSTORE POP POP JUMP JUMPDEST PUSH0 PUSH1 0x20 DUP3 ADD SWAP1 POP PUSH2 0x834 PUSH0 DUP4 ADD DUP5 PUSH2 0x812 JUMP JUMPDEST SWAP3 SWAP2 POP POP JUMP JUMPDEST PUSH0 DUP3 DUP3 MSTORE PUSH1 0x20 DUP3 ADD SWAP1 POP SWAP3 SWAP2 POP POP JUMP JUMPDEST PUSH32 0x4E6F207469656E6573207065726D69736F73207061726120656A656375746172 PUSH0 DUP3 ADD MSTORE PUSH32 0x20657374612066756E63696F6E00000000000000000000000000000000000000 PUSH1 0x20 DUP3 ADD MSTORE POP JUMP JUMPDEST PUSH0 PUSH2 0x8A4 PUSH1 0x2D DUP4 PUSH2 0x83A JUMP JUMPDEST SWAP2 POP PUSH2 0x8AF DUP3 PUSH2 0x84A JUMP JUMPDEST PUSH1 0x40 DUP3 ADD SWAP1 POP SWAP2 SWAP1 POP JUMP JUMPDEST PUSH0 PUSH1 0x20 DUP3 ADD SWAP1 POP DUP2 DUP2 SUB PUSH0 DUP4 ADD MSTORE PUSH2 0x8D1 DUP2 PUSH2 0x898 JUMP JUMPDEST SWAP1 POP SWAP2 SWAP1 POP JUMP JUMPDEST PUSH0 DUP2 SWAP1 POP SWAP3 SWAP2 POP POP JUMP JUMPDEST PUSH0 PUSH2 0x8EC DUP3 PUSH2 0x647 JUMP JUMPDEST PUSH2 0x8F6 DUP2 DUP6 PUSH2 0x8D8 JUMP JUMPDEST SWAP4 POP PUSH2 0x906 DUP2 DUP6 PUSH1 0x20 DUP7 ADD PUSH2 0x661 JUMP JUMPDEST DUP1 DUP5 ADD SWAP2 POP POP SWAP3 SWAP2 POP POP JUMP JUMPDEST PUSH0 PUSH2 0x91D DUP3 DUP5 PUSH2 0x8E2 JUMP JUMPDEST SWAP2 POP DUP2 SWAP1 POP SWAP3 SWAP2 POP POP JUMP JUMPDEST PUSH0 DUP2 SWAP1 POP SWAP2 SWAP1 POP JUMP JUMPDEST PUSH2 0x93A DUP2 PUSH2 0x928 JUMP JUMPDEST DUP3 MSTORE POP POP JUMP JUMPDEST PUSH0 PUSH1 0x20 DUP3 ADD SWAP1 POP PUSH2 0x953 PUSH0 DUP4 ADD DUP5 PUSH2 0x931 JUMP JUMPDEST SWAP3 SWAP2 POP POP JUMP JUMPDEST PUSH32 0x4E487B7100000000000000000000000000000000000000000000000000000000 PUSH0 MSTORE PUSH1 0x22 PUSH1 0x4 MSTORE PUSH1 0x24 PUSH0 REVERT JUMPDEST PUSH0 PUSH1 0x2 DUP3 DIV SWAP1 POP PUSH1 0x1 DUP3 AND DUP1 PUSH2 0x99D JUMPI PUSH1 0x7F DUP3 AND SWAP2 POP JUMPDEST PUSH1 0x20 DUP3 LT DUP2 SUB PUSH2 0x9B0 JUMPI PUSH2 0x9AF PUSH2 0x959 JUMP JUMPDEST JUMPDEST POP SWAP2 SWAP1 POP JUMP JUMPDEST PUSH0 DUP2 SWAP1 POP DUP2 PUSH0 MSTORE PUSH1 0x20 PUSH0 KECCAK256 SWAP1 POP SWAP2 SWAP1 POP JUMP JUMPDEST PUSH0 PUSH1 0x20 PUSH1 0x1F DUP4 ADD DIV SWAP1 POP SWAP2 SWAP1 POP JUMP JUMPDEST PUSH0 DUP3 DUP3 SHL SWAP1 POP SWAP3 SWAP2 POP POP JUMP JUMPDEST PUSH0 PUSH1 0x8 DUP4 MUL PUSH2 0xA12 PUSH32 0xFFFFFFFFFFFFFFFFFFFFFFFFFFFFFFFFFFFFFFFFFFFFFFFFFFFFFFFFFFFFFFFF DUP3 PUSH2 0x9D7 JUMP JUMPDEST PUSH2 0xA1C DUP7 DUP4 PUSH2 0x9D7 JUMP JUMPDEST SWAP6 POP DUP1 NOT DUP5 AND SWAP4 POP DUP1 DUP7 AND DUP5 OR SWAP3 POP POP POP SWAP4 SWAP3 POP POP POP JUMP JUMPDEST PUSH0 DUP2 SWAP1 POP SWAP2 SWAP1 POP JUMP JUMPDEST PUSH0 PUSH2 0xA57 PUSH2 0xA52 PUSH2 0xA4D DUP5 PUSH2 0x591 JUMP JUMPDEST PUSH2 0xA34 JUMP JUMPDEST PUSH2 0x591 JUMP JUMPDEST SWAP1 POP SWAP2 SWAP1 POP JUMP JUMPDEST PUSH0 DUP2 SWAP1 POP SWAP2 SWAP1 POP JUMP JUMPDEST PUSH2 0xA70 DUP4 PUSH2 0xA3D JUMP JUMPDEST PUSH2 0xA84 PUSH2 0xA7C DUP3 PUSH2 0xA5E JUMP JUMPDEST DUP5 DUP5 SLOAD PUSH2 0x9E3 JUMP JUMPDEST DUP3 SSTORE POP POP POP POP JUMP JUMPDEST PUSH0 SWAP1 JUMP JUMPDEST PUSH2 0xA98 PUSH2 0xA8C JUMP JUMPDEST PUSH2 0xAA3 DUP2 DUP5 DUP5 PUSH2 0xA67 JUMP JUMPDEST POP POP POP JUMP JUMPDEST JUMPDEST DUP2 DUP2 LT ISZERO PUSH2 0xAC6 JUMPI PUSH2 0xABB PUSH0 DUP3 PUSH2 0xA90 JUMP JUMPDEST PUSH1 0x1 DUP2 ADD SWAP1 POP PUSH2 0xAA9 JUMP JUMPDEST POP POP JUMP JUMPDEST PUSH1 0x1F DUP3 GT ISZERO PUSH2 0xB0B JUMPI PUSH2 0xADC DUP2 PUSH2 0x9B6 JUMP JUMPDEST PUSH2 0xAE5 DUP5 PUSH2 0x9C8 JUMP JUMPDEST DUP2 ADD PUSH1 0x20 DUP6 LT ISZERO PUSH2 0xAF4 JUMPI DUP2 SWAP1 POP JUMPDEST PUSH2 0xB08 PUSH2 0xB00 DUP6 PUSH2 0x9C8 JUMP JUMPDEST DUP4 ADD DUP3 PUSH2 0xAA8 JUMP JUMPDEST POP POP JUMPDEST POP POP POP JUMP JUMPDEST PUSH0 DUP3 DUP3 SHR SWAP1 POP SWAP3 SWAP2 POP POP JUMP JUMPDEST PUSH0 PUSH2 0xB2B PUSH0 NOT DUP5 PUSH1 0x8 MUL PUSH2 0xB10 JUMP JUMPDEST NOT DUP1 DUP4 AND SWAP2 POP POP SWAP3 SWAP2 POP POP JUMP JUMPDEST PUSH0 PUSH2 0xB43 DUP4 DUP4 PUSH2 0xB1C JUMP JUMPDEST SWAP2 POP DUP3 PUSH1 0x2 MUL DUP3 OR SWAP1 POP SWAP3 SWAP2 POP POP JUMP JUMPDEST PUSH2 0xB5C DUP3 PUSH2 0x647 JUMP JUMPDEST PUSH8 0xFFFFFFFFFFFFFFFF DUP2 GT ISZERO PUSH2 0xB75 JUMPI PUSH2 0xB74 PUSH2 0x46D JUMP JUMPDEST JUMPDEST PUSH2 0xB7F DUP3 SLOAD PUSH2 0x986 JUMP JUMPDEST PUSH2 0xB8A DUP3 DUP3 DUP6 PUSH2 0xACA JUMP JUMPDEST PUSH0 PUSH1 0x20 SWAP1 POP PUSH1 0x1F DUP4 GT PUSH1 0x1 DUP2 EQ PUSH2 0xBBB JUMPI PUSH0 DUP5 ISZERO PUSH2 0xBA9 JUMPI DUP3 DUP8 ADD MLOAD SWAP1 POP JUMPDEST PUSH2 0xBB3 DUP6 DUP3 PUSH2 0xB38 JUMP JUMPDEST DUP7 SSTORE POP PUSH2 0xC1A JUMP JUMPDEST PUSH1 0x1F NOT DUP5 AND PUSH2 0xBC9 DUP7 PUSH2 0x9B6 JUMP JUMPDEST PUSH0 JUMPDEST DUP3 DUP2 LT ISZERO PUSH2 0xBF0 JUMPI DUP5 DUP10 ADD MLOAD DUP3 SSTORE PUSH1 0x1 DUP3 ADD SWAP2 POP PUSH1 0x20 DUP6 ADD SWAP5 POP PUSH1 0x20 DUP2 ADD SWAP1 POP PUSH2 0xBCB JUMP JUMPDEST DUP7 DUP4 LT ISZERO PUSH2 0xC0D JUMPI DUP5 DUP10 ADD MLOAD PUSH2 0xC09 PUSH1 0x1F DUP10 AND DUP3 PUSH2 0xB1C JUMP JUMPDEST DUP4 SSTORE POP JUMPDEST PUSH1 0x1 PUSH1 0x2 DUP9 MUL ADD DUP9 SSTORE POP POP POP JUMPDEST POP POP POP POP POP POP JUMP JUMPDEST PUSH0 PUSH2 0xC2C DUP3 PUSH2 0x647 JUMP JUMPDEST PUSH2 0xC36 DUP2 DUP6 PUSH2 0x83A JUMP JUMPDEST SWAP4 POP PUSH2 0xC46 DUP2 DUP6 PUSH1 0x20 DUP7 ADD PUSH2 0x661 JUMP JUMPDEST PUSH2 0xC4F DUP2 PUSH2 0x45D JUMP JUMPDEST DUP5 ADD SWAP2 POP POP SWAP3 SWAP2 POP POP JUMP JUMPDEST PUSH0 PUSH1 0x20 DUP3 ADD SWAP1 POP DUP2 DUP2 SUB PUSH0 DUP4 ADD MSTORE PUSH2 0xC72 DUP2 DUP5 PUSH2 0xC22 JUMP JUMPDEST SWAP1 POP SWAP3 SWAP2 POP POP JUMP INVALID LOG2 PUSH5 0x6970667358 0x22 SLT KECCAK256 SWAP12 BLOCKHASH 0xD6 DUP12 0xC1 GAS 0xEE DUP1 DUP5 PUSH14 0xA3F1B761CF5C996B65ED0E826C26 PUSH25 0xDCA8F6B68EE73E64736F6C6343000816003300000000000000 "
				},
				"gasEstimates": {
					"creation": {
						"codeDepositCost": "649600",
						"executionCost": "24946",
						"totalCost": "674546"
					},
					"external": {
						"evaluar(string,uint256)": "infinite",
						"profesor()": "2571",
						"revision(string)": "infinite",
						"verNotas(string)": "infinite",
						"verRevisiones()": "infinite"
					}
				},
				"methodIdentifiers": {
					"evaluar(string,uint256)": "383bebae",
					"profesor()": "df096576",
					"revision(string)": "ca981d91",
					"verNotas(string)": "deafddae",
					"verRevisiones()": "398dfa79"
				}
			},
			"storageLayout": {
				"storage": [
					{
						"astId": 4,
						"contract": "NOTAS/Notas.sol:Notas",
						"label": "profesor",
						"offset": 0,
						"slot": "0",
						"type": "t_address"
					},
					{
						"astId": 8,
						"contract": "NOTAS/Notas.sol:Notas",
						"label": "notas",
						"offset": 0,
						"slot": "1",
						"type": "t_mapping(t_bytes32,t_uint256)"
					},
					{
						"astId": 11,
						"contract": "NOTAS/Notas.sol:Notas",
						"label": "revisiones",
						"offset": 0,
						"slot": "2",
						"type": "t_array(t_string_storage)dyn_storage"
					}
				],
				"types": {
					"t_address": {
						"encoding": "inplace",
						"label": "address",
						"numberOfBytes": "20"
					},
					"t_array(t_string_storage)dyn_storage": {
						"base": "t_string_storage",
						"encoding": "dynamic_array",
						"label": "string[]",
						"numberOfBytes": "32"
					},
					"t_bytes32": {
						"encoding": "inplace",
						"label": "bytes32",
						"numberOfBytes": "32"
					},
					"t_mapping(t_bytes32,t_uint256)": {
						"encoding": "mapping",
						"key": "t_bytes32",
						"label": "mapping(bytes32 => uint256)",
						"numberOfBytes": "32",
						"value": "t_uint256"
					},
					"t_string_storage": {
						"encoding": "bytes",
						"label": "string",
						"numberOfBytes": "32"
					},
					"t_uint256": {
						"encoding": "inplace",
						"label": "uint256",
						"numberOfBytes": "32"
					}
				}
			},
			"userdoc": {
				"kind": "user",
				"methods": {},
				"version": 1
			}
		}
	}
}