{
	"DISNEY/Disney.sol": {
		"Disney": {
			"abi": [
				{
					"inputs": [],
					"stateMutability": "nonpayable",
					"type": "constructor"
				},
				{
					"anonymous": false,
					"inputs": [
						{
							"indexed": false,
							"internalType": "string",
							"name": "",
							"type": "string"
						}
					],
					"name": "atractionRemoved",
					"type": "event"
				},
				{
					"anonymous": false,
					"inputs": [
						{
							"indexed": false,
							"internalType": "string",
							"name": "",
							"type": "string"
						},
						{
							"indexed": false,
							"internalType": "uint256",
							"name": "",
							"type": "uint256"
						},
						{
							"indexed": false,
							"internalType": "address",
							"name": "",
							"type": "address"
						}
					],
					"name": "enjoyAtraction",
					"type": "event"
				},
				{
					"anonymous": false,
					"inputs": [
						{
							"indexed": false,
							"internalType": "string",
							"name": "",
							"type": "string"
						},
						{
							"indexed": false,
							"internalType": "uint256",
							"name": "",
							"type": "uint256"
						},
						{
							"indexed": false,
							"internalType": "address",
							"name": "",
							"type": "address"
						}
					],
					"name": "enjoyFood",
					"type": "event"
				},
				{
					"anonymous": false,
					"inputs": [
						{
							"indexed": false,
							"internalType": "string",
							"name": "",
							"type": "string"
						}
					],
					"name": "foodRemoved",
					"type": "event"
				},
				{
					"anonymous": false,
					"inputs": [
						{
							"indexed": false,
							"internalType": "string",
							"name": "",
							"type": "string"
						},
						{
							"indexed": false,
							"internalType": "uint256",
							"name": "",
							"type": "uint256"
						}
					],
					"name": "newAtractionAdded",
					"type": "event"
				},
				{
					"anonymous": false,
					"inputs": [
						{
							"indexed": false,
							"internalType": "string",
							"name": "",
							"type": "string"
						},
						{
							"indexed": false,
							"internalType": "uint256",
							"name": "",
							"type": "uint256"
						}
					],
					"name": "newFoodAdded",
					"type": "event"
				},
				{
					"inputs": [
						{
							"internalType": "string",
							"name": "_name",
							"type": "string"
						},
						{
							"internalType": "uint256",
							"name": "_price",
							"type": "uint256"
						}
					],
					"name": "addFood",
					"outputs": [],
					"stateMutability": "nonpayable",
					"type": "function"
				},
				{
					"inputs": [
						{
							"internalType": "string",
							"name": "",
							"type": "string"
						}
					],
					"name": "atractionsMapping",
					"outputs": [
						{
							"internalType": "string",
							"name": "name",
							"type": "string"
						},
						{
							"internalType": "uint256",
							"name": "price",
							"type": "uint256"
						},
						{
							"internalType": "bool",
							"name": "state",
							"type": "bool"
						}
					],
					"stateMutability": "view",
					"type": "function"
				},
				{
					"inputs": [],
					"name": "avaiableAtractions",
					"outputs": [
						{
							"internalType": "string[]",
							"name": "",
							"type": "string[]"
						}
					],
					"stateMutability": "view",
					"type": "function"
				},
				{
					"inputs": [],
					"name": "balanceOf",
					"outputs": [
						{
							"internalType": "uint256",
							"name": "",
							"type": "uint256"
						}
					],
					"stateMutability": "view",
					"type": "function"
				},
				{
					"inputs": [
						{
							"internalType": "string",
							"name": "_name",
							"type": "string"
						}
					],
					"name": "buyAtraction",
					"outputs": [],
					"stateMutability": "nonpayable",
					"type": "function"
				},
				{
					"inputs": [],
					"name": "clientHistory",
					"outputs": [
						{
							"internalType": "string[]",
							"name": "",
							"type": "string[]"
						}
					],
					"stateMutability": "view",
					"type": "function"
				},
				{
					"inputs": [
						{
							"internalType": "address",
							"name": "",
							"type": "address"
						}
					],
					"name": "clients",
					"outputs": [
						{
							"internalType": "uint256",
							"name": "tokens",
							"type": "uint256"
						}
					],
					"stateMutability": "view",
					"type": "function"
				},
				{
					"inputs": [
						{
							"internalType": "uint256",
							"name": "_numTokens",
							"type": "uint256"
						}
					],
					"name": "compraTokens",
					"outputs": [],
					"stateMutability": "payable",
					"type": "function"
				},
				{
					"inputs": [
						{
							"internalType": "uint256",
							"name": "_numTokens",
							"type": "uint256"
						}
					],
					"name": "createTokens",
					"outputs": [],
					"stateMutability": "nonpayable",
					"type": "function"
				},
				{
					"inputs": [
						{
							"internalType": "string",
							"name": "",
							"type": "string"
						}
					],
					"name": "menuMapping",
					"outputs": [
						{
							"internalType": "string",
							"name": "name",
							"type": "string"
						},
						{
							"internalType": "uint256",
							"name": "price",
							"type": "uint256"
						},
						{
							"internalType": "bool",
							"name": "state",
							"type": "bool"
						}
					],
					"stateMutability": "view",
					"type": "function"
				},
				{
					"inputs": [],
					"name": "myTokens",
					"outputs": [
						{
							"internalType": "uint256",
							"name": "",
							"type": "uint256"
						}
					],
					"stateMutability": "view",
					"type": "function"
				},
				{
					"inputs": [
						{
							"internalType": "string",
							"name": "_name",
							"type": "string"
						},
						{
							"internalType": "uint256",
							"name": "_price",
							"type": "uint256"
						}
					],
					"name": "newAtraction",
					"outputs": [],
					"stateMutability": "nonpayable",
					"type": "function"
				},
				{
					"inputs": [
						{
							"internalType": "string",
							"name": "_name",
							"type": "string"
						}
					],
					"name": "orderFood",
					"outputs": [],
					"stateMutability": "nonpayable",
					"type": "function"
				},
				{
					"inputs": [],
					"name": "owner",
					"outputs": [
						{
							"internalType": "address payable",
							"name": "",
							"type": "address"
						}
					],
					"stateMutability": "view",
					"type": "function"
				},
				{
					"inputs": [
						{
							"internalType": "string",
							"name": "_name",
							"type": "string"
						}
					],
					"name": "removeAtraction",
					"outputs": [],
					"stateMutability": "nonpayable",
					"type": "function"
				},
				{
					"inputs": [
						{
							"internalType": "string",
							"name": "_name",
							"type": "string"
						}
					],
					"name": "removeFood",
					"outputs": [],
					"stateMutability": "nonpayable",
					"type": "function"
				},
				{
					"inputs": [
						{
							"internalType": "uint256",
							"name": "_numTokens",
							"type": "uint256"
						}
					],
					"name": "returnTokens",
					"outputs": [],
					"stateMutability": "payable",
					"type": "function"
				},
				{
					"inputs": [],
					"name": "viewMenu",
					"outputs": [
						{
							"internalType": "string[]",
							"name": "",
							"type": "string[]"
						}
					],
					"stateMutability": "view",
					"type": "function"
				}
			],
			"devdoc": {
				"kind": "dev",
				"methods": {},
				"version": 1
			},
			"evm": {
				"assembly": "    /* \"DISNEY/Disney.sol\":92:7237  contract Disney {... */\n  mstore(0x40, 0x80)\n    /* \"DISNEY/Disney.sol\":1408:1500  constructor() {... */\n  callvalue\n  dup1\n  iszero\n  tag_1\n  jumpi\n  0x00\n  dup1\n  revert\ntag_1:\n  pop\n    /* \"DISNEY/Disney.sol\":1450:1455  10000 */\n  0x2710\n    /* \"DISNEY/Disney.sol\":1440:1456  new ERC20(10000) */\n  mload(0x40)\n  tag_4\n  swap1\n  tag_5\n  jump\t// in\ntag_4:\n  tag_6\n  swap2\n  swap1\n  tag_7\n  jump\t// in\ntag_6:\n  mload(0x40)\n  dup1\n  swap2\n  sub\n  swap1\n  0x00\n  create\n  dup1\n  iszero\n  dup1\n  iszero\n  tag_8\n  jumpi\n  returndatasize\n  0x00\n  dup1\n  returndatacopy\n  revert(0x00, returndatasize)\ntag_8:\n  pop\n    /* \"DISNEY/Disney.sol\":1432:1437  token */\n  0x00\n  dup1\n    /* \"DISNEY/Disney.sol\":1432:1456  token = new ERC20(10000) */\n  0x0100\n  exp\n  dup2\n  sload\n  dup2\n  0xffffffffffffffffffffffffffffffffffffffff\n  mul\n  not\n  and\n  swap1\n  dup4\n  0xffffffffffffffffffffffffffffffffffffffff\n  and\n  mul\n  or\n  swap1\n  sstore\n  pop\n    /* \"DISNEY/Disney.sol\":1482:1492  msg.sender */\n  caller\n    /* \"DISNEY/Disney.sol\":1466:1471  owner */\n  0x01\n  0x00\n    /* \"DISNEY/Disney.sol\":1466:1493  owner = payable(msg.sender) */\n  0x0100\n  exp\n  dup2\n  sload\n  dup2\n  0xffffffffffffffffffffffffffffffffffffffff\n  mul\n  not\n  and\n  swap1\n  dup4\n  0xffffffffffffffffffffffffffffffffffffffff\n  and\n  mul\n  or\n  swap1\n  sstore\n  pop\n    /* \"DISNEY/Disney.sol\":92:7237  contract Disney {... */\n  jump(tag_9)\ntag_5:\n  dataSize(sub_1)\n  dup1\n  dataOffset(sub_1)\n  dup4\n  codecopy\n  add\n  swap1\n  jump\t// out\n    /* \"#utility.yul\":7:96   */\ntag_10:\n    /* \"#utility.yul\":56:63   */\n  0x00\n    /* \"#utility.yul\":85:90   */\n  dup2\n    /* \"#utility.yul\":74:90   */\n  swap1\n  pop\n    /* \"#utility.yul\":7:96   */\n  swap2\n  swap1\n  pop\n  jump\t// out\n    /* \"#utility.yul\":102:179   */\ntag_11:\n    /* \"#utility.yul\":139:146   */\n  0x00\n    /* \"#utility.yul\":168:173   */\n  dup2\n    /* \"#utility.yul\":157:173   */\n  swap1\n  pop\n    /* \"#utility.yul\":102:179   */\n  swap2\n  swap1\n  pop\n  jump\t// out\n    /* \"#utility.yul\":185:245   */\ntag_12:\n    /* \"#utility.yul\":213:216   */\n  0x00\n    /* \"#utility.yul\":234:239   */\n  dup2\n    /* \"#utility.yul\":227:239   */\n  swap1\n  pop\n    /* \"#utility.yul\":185:245   */\n  swap2\n  swap1\n  pop\n  jump\t// out\n    /* \"#utility.yul\":251:417   */\ntag_13:\n    /* \"#utility.yul\":313:322   */\n  0x00\n    /* \"#utility.yul\":346:411   */\n  tag_20\n    /* \"#utility.yul\":364:410   */\n  tag_21\n    /* \"#utility.yul\":373:409   */\n  tag_22\n    /* \"#utility.yul\":403:408   */\n  dup5\n    /* \"#utility.yul\":373:409   */\n  tag_10\n  jump\t// in\ntag_22:\n    /* \"#utility.yul\":364:410   */\n  tag_12\n  jump\t// in\ntag_21:\n    /* \"#utility.yul\":346:411   */\n  tag_11\n  jump\t// in\ntag_20:\n    /* \"#utility.yul\":333:411   */\n  swap1\n  pop\n    /* \"#utility.yul\":251:417   */\n  swap2\n  swap1\n  pop\n  jump\t// out\n    /* \"#utility.yul\":423:578   */\ntag_14:\n    /* \"#utility.yul\":522:571   */\n  tag_24\n    /* \"#utility.yul\":565:570   */\n  dup2\n    /* \"#utility.yul\":522:571   */\n  tag_13\n  jump\t// in\ntag_24:\n    /* \"#utility.yul\":517:520   */\n  dup3\n    /* \"#utility.yul\":510:572   */\n  mstore\n    /* \"#utility.yul\":423:578   */\n  pop\n  pop\n  jump\t// out\n    /* \"#utility.yul\":584:830   */\ntag_7:\n    /* \"#utility.yul\":689:693   */\n  0x00\n    /* \"#utility.yul\":727:729   */\n  0x20\n    /* \"#utility.yul\":716:725   */\n  dup3\n    /* \"#utility.yul\":712:730   */\n  add\n    /* \"#utility.yul\":704:730   */\n  swap1\n  pop\n    /* \"#utility.yul\":740:823   */\n  tag_26\n    /* \"#utility.yul\":820:821   */\n  0x00\n    /* \"#utility.yul\":809:818   */\n  dup4\n    /* \"#utility.yul\":805:822   */\n  add\n    /* \"#utility.yul\":796:802   */\n  dup5\n    /* \"#utility.yul\":740:823   */\n  tag_14\n  jump\t// in\ntag_26:\n    /* \"#utility.yul\":584:830   */\n  swap3\n  swap2\n  pop\n  pop\n  jump\t// out\n    /* \"DISNEY/Disney.sol\":92:7237  contract Disney {... */\ntag_9:\n  dataSize(sub_0)\n  dup1\n  dataOffset(sub_0)\n  0x00\n  codecopy\n  0x00\n  return\nstop\n\nsub_0: assembly {\n        /* \"DISNEY/Disney.sol\":92:7237  contract Disney {... */\n      mstore(0x40, 0x80)\n      jumpi(tag_1, lt(calldatasize, 0x04))\n      shr(0xe0, calldataload(0x00))\n      dup1\n      0x8da5cb5b\n      gt\n      tag_20\n      jumpi\n      dup1\n      0xc29dd7c9\n      gt\n      tag_21\n      jumpi\n      dup1\n      0xc29dd7c9\n      eq\n      tag_15\n      jumpi\n      dup1\n      0xce2cfa3e\n      eq\n      tag_16\n      jumpi\n      dup1\n      0xd3e1125f\n      eq\n      tag_17\n      jumpi\n      dup1\n      0xe3ac2342\n      eq\n      tag_18\n      jumpi\n      dup1\n      0xf3a4eff9\n      eq\n      tag_19\n      jumpi\n      jump(tag_1)\n    tag_21:\n      dup1\n      0x8da5cb5b\n      eq\n      tag_11\n      jumpi\n      dup1\n      0x949e8acd\n      eq\n      tag_12\n      jumpi\n      dup1\n      0x9c92cb88\n      eq\n      tag_13\n      jumpi\n      dup1\n      0x9d124f92\n      eq\n      tag_14\n      jumpi\n      jump(tag_1)\n    tag_20:\n      dup1\n      0x61eed2a9\n      gt\n      tag_22\n      jumpi\n      dup1\n      0x61eed2a9\n      eq\n      tag_6\n      jumpi\n      dup1\n      0x6c43bf2d\n      eq\n      tag_7\n      jumpi\n      dup1\n      0x722713f7\n      eq\n      tag_8\n      jumpi\n      dup1\n      0x74985f9e\n      eq\n      tag_9\n      jumpi\n      dup1\n      0x7e1f2bb8\n      eq\n      tag_10\n      jumpi\n      jump(tag_1)\n    tag_22:\n      dup1\n      0x0a5795f8\n      eq\n      tag_2\n      jumpi\n      dup1\n      0x316ba08b\n      eq\n      tag_3\n      jumpi\n      dup1\n      0x3ae1786f\n      eq\n      tag_4\n      jumpi\n      dup1\n      0x427cff87\n      eq\n      tag_5\n      jumpi\n    tag_1:\n      0x00\n      dup1\n      revert\n        /* \"DISNEY/Disney.sol\":6570:6656  function viewMenu() public view returns (string[] memory) {... */\n    tag_2:\n      callvalue\n      dup1\n      iszero\n      tag_23\n      jumpi\n      0x00\n      dup1\n      revert\n    tag_23:\n      pop\n      tag_24\n      tag_25\n      jump\t// in\n    tag_24:\n      mload(0x40)\n      tag_26\n      swap2\n      swap1\n      tag_27\n      jump\t// in\n    tag_26:\n      mload(0x40)\n      dup1\n      swap2\n      sub\n      swap1\n      return\n        /* \"DISNEY/Disney.sol\":4491:5315  function buyAtraction(string memory _name) public {... */\n    tag_3:\n      callvalue\n      dup1\n      iszero\n      tag_28\n      jumpi\n      0x00\n      dup1\n      revert\n    tag_28:\n      pop\n      tag_29\n      0x04\n      dup1\n      calldatasize\n      sub\n      dup2\n      add\n      swap1\n      tag_30\n      swap2\n      swap1\n      tag_31\n      jump\t// in\n    tag_30:\n      tag_32\n      jump\t// in\n    tag_29:\n      stop\n        /* \"DISNEY/Disney.sol\":5566:6006  function returnTokens(uint256 _numTokens) public payable {... */\n    tag_4:\n      tag_33\n      0x04\n      dup1\n      calldatasize\n      sub\n      dup2\n      add\n      swap1\n      tag_34\n      swap2\n      swap1\n      tag_35\n      jump\t// in\n    tag_34:\n      tag_36\n      jump\t// in\n    tag_33:\n      stop\n        /* \"DISNEY/Disney.sol\":6388:6538  function removeFood(string memory _name) public isOwner(msg.sender) {... */\n    tag_5:\n      callvalue\n      dup1\n      iszero\n      tag_37\n      jumpi\n      0x00\n      dup1\n      revert\n    tag_37:\n      pop\n      tag_38\n      0x04\n      dup1\n      calldatasize\n      sub\n      dup2\n      add\n      swap1\n      tag_39\n      swap2\n      swap1\n      tag_31\n      jump\t// in\n    tag_39:\n      tag_40\n      jump\t// in\n    tag_38:\n      stop\n        /* \"DISNEY/Disney.sol\":778:819  mapping(address => Client) public clients */\n    tag_6:\n      callvalue\n      dup1\n      iszero\n      tag_41\n      jumpi\n      0x00\n      dup1\n      revert\n    tag_41:\n      pop\n      tag_42\n      0x04\n      dup1\n      calldatasize\n      sub\n      dup2\n      add\n      swap1\n      tag_43\n      swap2\n      swap1\n      tag_44\n      jump\t// in\n    tag_43:\n      tag_45\n      jump\t// in\n    tag_42:\n      mload(0x40)\n      tag_46\n      swap2\n      swap1\n      tag_47\n      jump\t// in\n    tag_46:\n      mload(0x40)\n      dup1\n      swap2\n      sub\n      swap1\n      return\n        /* \"DISNEY/Disney.sol\":4095:4261  function removeAtraction(string memory _name) public isOwner(msg.sender) {... */\n    tag_7:\n      callvalue\n      dup1\n      iszero\n      tag_48\n      jumpi\n      0x00\n      dup1\n      revert\n    tag_48:\n      pop\n      tag_49\n      0x04\n      dup1\n      calldatasize\n      sub\n      dup2\n      add\n      swap1\n      tag_50\n      swap2\n      swap1\n      tag_31\n      jump\t// in\n    tag_50:\n      tag_51\n      jump\t// in\n    tag_49:\n      stop\n        /* \"DISNEY/Disney.sol\":2287:2392  function balanceOf() public view returns (uint256) {... */\n    tag_8:\n      callvalue\n      dup1\n      iszero\n      tag_52\n      jumpi\n      0x00\n      dup1\n      revert\n    tag_52:\n      pop\n      tag_53\n      tag_54\n      jump\t// in\n    tag_53:\n      mload(0x40)\n      tag_55\n      swap2\n      swap1\n      tag_47\n      jump\t// in\n    tag_55:\n      mload(0x40)\n      dup1\n      swap2\n      sub\n      swap1\n      return\n        /* \"DISNEY/Disney.sol\":6118:6350  function addFood(string memory _name, uint256 _price)... */\n    tag_9:\n      callvalue\n      dup1\n      iszero\n      tag_56\n      jumpi\n      0x00\n      dup1\n      revert\n    tag_56:\n      pop\n      tag_57\n      0x04\n      dup1\n      calldatasize\n      sub\n      dup2\n      add\n      swap1\n      tag_58\n      swap2\n      swap1\n      tag_59\n      jump\t// in\n    tag_58:\n      tag_60\n      jump\t// in\n    tag_57:\n      stop\n        /* \"DISNEY/Disney.sol\":3525:3648  function createTokens(uint256 _numTokens) public isOwner(msg.sender) {... */\n    tag_10:\n      callvalue\n      dup1\n      iszero\n      tag_61\n      jumpi\n      0x00\n      dup1\n      revert\n    tag_61:\n      pop\n      tag_62\n      0x04\n      dup1\n      calldatasize\n      sub\n      dup2\n      add\n      swap1\n      tag_63\n      swap2\n      swap1\n      tag_35\n      jump\t// in\n    tag_63:\n      tag_64\n      jump\t// in\n    tag_62:\n      stop\n        /* \"DISNEY/Disney.sol\":308:336  address payable public owner */\n    tag_11:\n      callvalue\n      dup1\n      iszero\n      tag_65\n      jumpi\n      0x00\n      dup1\n      revert\n    tag_65:\n      pop\n      tag_66\n      tag_67\n      jump\t// in\n    tag_66:\n      mload(0x40)\n      tag_68\n      swap2\n      swap1\n      tag_69\n      jump\t// in\n    tag_68:\n      mload(0x40)\n      dup1\n      swap2\n      sub\n      swap1\n      return\n        /* \"DISNEY/Disney.sol\":3380:3481  function myTokens() public view returns (uint256) {... */\n    tag_12:\n      callvalue\n      dup1\n      iszero\n      tag_70\n      jumpi\n      0x00\n      dup1\n      revert\n    tag_70:\n      pop\n      tag_71\n      tag_72\n      jump\t// in\n    tag_71:\n      mload(0x40)\n      tag_73\n      swap2\n      swap1\n      tag_47\n      jump\t// in\n    tag_73:\n      mload(0x40)\n      dup1\n      swap2\n      sub\n      swap1\n      return\n        /* \"DISNEY/Disney.sol\":6684:7235  function orderFood(string memory _name) public {... */\n    tag_13:\n      callvalue\n      dup1\n      iszero\n      tag_74\n      jumpi\n      0x00\n      dup1\n      revert\n    tag_74:\n      pop\n      tag_75\n      0x04\n      dup1\n      calldatasize\n      sub\n      dup2\n      add\n      swap1\n      tag_76\n      swap2\n      swap1\n      tag_31\n      jump\t// in\n    tag_76:\n      tag_77\n      jump\t// in\n    tag_75:\n      stop\n        /* \"DISNEY/Disney.sol\":895:948  mapping(string => Atraction) public atractionsMapping */\n    tag_14:\n      callvalue\n      dup1\n      iszero\n      tag_78\n      jumpi\n      0x00\n      dup1\n      revert\n    tag_78:\n      pop\n      tag_79\n      0x04\n      dup1\n      calldatasize\n      sub\n      dup2\n      add\n      swap1\n      tag_80\n      swap2\n      swap1\n      tag_31\n      jump\t// in\n    tag_80:\n      tag_81\n      jump\t// in\n    tag_79:\n      mload(0x40)\n      tag_82\n      swap4\n      swap3\n      swap2\n      swap1\n      tag_83\n      jump\t// in\n    tag_82:\n      mload(0x40)\n      dup1\n      swap2\n      sub\n      swap1\n      return\n        /* \"DISNEY/Disney.sol\":2469:3312  function compraTokens(uint256 _numTokens) public payable {... */\n    tag_15:\n      tag_84\n      0x04\n      dup1\n      calldatasize\n      sub\n      dup2\n      add\n      swap1\n      tag_85\n      swap2\n      swap1\n      tag_35\n      jump\t// in\n    tag_85:\n      tag_86\n      jump\t// in\n    tag_84:\n      stop\n        /* \"DISNEY/Disney.sol\":5378:5493  function clientHistory() public view returns (string[] memory) {... */\n    tag_16:\n      callvalue\n      dup1\n      iszero\n      tag_87\n      jumpi\n      0x00\n      dup1\n      revert\n    tag_87:\n      pop\n      tag_88\n      tag_89\n      jump\t// in\n    tag_88:\n      mload(0x40)\n      tag_90\n      swap2\n      swap1\n      tag_27\n      jump\t// in\n    tag_90:\n      mload(0x40)\n      dup1\n      swap2\n      sub\n      swap1\n      return\n        /* \"DISNEY/Disney.sol\":4311:4413  function avaiableAtractions() public view returns (string[] memory) {... */\n    tag_17:\n      callvalue\n      dup1\n      iszero\n      tag_91\n      jumpi\n      0x00\n      dup1\n      revert\n    tag_91:\n      pop\n      tag_92\n      tag_93\n      jump\t// in\n    tag_92:\n      mload(0x40)\n      tag_94\n      swap2\n      swap1\n      tag_27\n      jump\t// in\n    tag_94:\n      mload(0x40)\n      dup1\n      swap2\n      sub\n      swap1\n      return\n        /* \"DISNEY/Disney.sol\":3789:4048  function newAtraction(string memory _name, uint256 _price)... */\n    tag_18:\n      callvalue\n      dup1\n      iszero\n      tag_95\n      jumpi\n      0x00\n      dup1\n      revert\n    tag_95:\n      pop\n      tag_96\n      0x04\n      dup1\n      calldatasize\n      sub\n      dup2\n      add\n      swap1\n      tag_97\n      swap2\n      swap1\n      tag_59\n      jump\t// in\n    tag_97:\n      tag_98\n      jump\t// in\n    tag_96:\n      stop\n        /* \"DISNEY/Disney.sol\":1014:1056  mapping(string => Food) public menuMapping */\n    tag_19:\n      callvalue\n      dup1\n      iszero\n      tag_99\n      jumpi\n      0x00\n      dup1\n      revert\n    tag_99:\n      pop\n      tag_100\n      0x04\n      dup1\n      calldatasize\n      sub\n      dup2\n      add\n      swap1\n      tag_101\n      swap2\n      swap1\n      tag_31\n      jump\t// in\n    tag_101:\n      tag_102\n      jump\t// in\n    tag_100:\n      mload(0x40)\n      tag_103\n      swap4\n      swap3\n      swap2\n      swap1\n      tag_83\n      jump\t// in\n    tag_103:\n      mload(0x40)\n      dup1\n      swap2\n      sub\n      swap1\n      return\n        /* \"DISNEY/Disney.sol\":6570:6656  function viewMenu() public view returns (string[] memory) {... */\n    tag_25:\n        /* \"DISNEY/Disney.sol\":6611:6626  string[] memory */\n      0x60\n        /* \"DISNEY/Disney.sol\":6645:6649  menu */\n      0x08\n        /* \"DISNEY/Disney.sol\":6638:6649  return menu */\n      dup1\n      sload\n      dup1\n      0x20\n      mul\n      0x20\n      add\n      mload(0x40)\n      swap1\n      dup2\n      add\n      0x40\n      mstore\n      dup1\n      swap3\n      swap2\n      swap1\n      dup2\n      dup2\n      mstore\n      0x20\n      add\n      0x00\n      swap1\n    tag_105:\n      dup3\n      dup3\n      lt\n      iszero\n      tag_106\n      jumpi\n      dup4\n      dup3\n      swap1\n      0x00\n      mstore\n      keccak256(0x00, 0x20)\n      add\n      dup1\n      sload\n      tag_108\n      swap1\n      tag_109\n      jump\t// in\n    tag_108:\n      dup1\n      0x1f\n      add\n      0x20\n      dup1\n      swap2\n      div\n      mul\n      0x20\n      add\n      mload(0x40)\n      swap1\n      dup2\n      add\n      0x40\n      mstore\n      dup1\n      swap3\n      swap2\n      swap1\n      dup2\n      dup2\n      mstore\n      0x20\n      add\n      dup3\n      dup1\n      sload\n      tag_110\n      swap1\n      tag_109\n      jump\t// in\n    tag_110:\n      dup1\n      iszero\n      tag_111\n      jumpi\n      dup1\n      0x1f\n      lt\n      tag_112\n      jumpi\n      0x0100\n      dup1\n      dup4\n      sload\n      div\n      mul\n      dup4\n      mstore\n      swap2\n      0x20\n      add\n      swap2\n      jump(tag_111)\n    tag_112:\n      dup3\n      add\n      swap2\n      swap1\n      0x00\n      mstore\n      keccak256(0x00, 0x20)\n      swap1\n    tag_113:\n      dup2\n      sload\n      dup2\n      mstore\n      swap1\n      0x01\n      add\n      swap1\n      0x20\n      add\n      dup1\n      dup4\n      gt\n      tag_113\n      jumpi\n      dup3\n      swap1\n      sub\n      0x1f\n      and\n      dup3\n      add\n      swap2\n    tag_111:\n      pop\n      pop\n      pop\n      pop\n      pop\n      dup2\n      mstore\n      0x20\n      add\n      swap1\n      0x01\n      add\n      swap1\n      jump(tag_105)\n    tag_106:\n      pop\n      pop\n      pop\n      pop\n      swap1\n      pop\n        /* \"DISNEY/Disney.sol\":6570:6656  function viewMenu() public view returns (string[] memory) {... */\n      swap1\n      jump\t// out\n        /* \"DISNEY/Disney.sol\":4491:5315  function buyAtraction(string memory _name) public {... */\n    tag_32:\n        /* \"DISNEY/Disney.sol\":4652:4656  true */\n      0x01\n        /* \"DISNEY/Disney.sol\":4618:4656  atractionsMapping[_name].state == true */\n      iszero\n      iszero\n        /* \"DISNEY/Disney.sol\":4618:4635  atractionsMapping */\n      0x03\n        /* \"DISNEY/Disney.sol\":4636:4641  _name */\n      dup3\n        /* \"DISNEY/Disney.sol\":4618:4642  atractionsMapping[_name] */\n      mload(0x40)\n      tag_115\n      swap2\n      swap1\n      tag_116\n      jump\t// in\n    tag_115:\n      swap1\n      dup2\n      mstore\n      0x20\n      add\n      mload(0x40)\n      dup1\n      swap2\n      sub\n      swap1\n      keccak256\n        /* \"DISNEY/Disney.sol\":4618:4648  atractionsMapping[_name].state */\n      0x02\n      add\n      0x00\n      swap1\n      sload\n      swap1\n      0x0100\n      exp\n      swap1\n      div\n      0xff\n      and\n        /* \"DISNEY/Disney.sol\":4618:4656  atractionsMapping[_name].state == true */\n      iszero\n      iszero\n      eq\n        /* \"DISNEY/Disney.sol\":4597:4732  require(... */\n      tag_117\n      jumpi\n      mload(0x40)\n      0x08c379a000000000000000000000000000000000000000000000000000000000\n      dup2\n      mstore\n      0x04\n      add\n      tag_118\n      swap1\n      tag_119\n      jump\t// in\n    tag_118:\n      mload(0x40)\n      dup1\n      swap2\n      sub\n      swap1\n      revert\n    tag_117:\n        /* \"DISNEY/Disney.sol\":4786:4809  uint256 atractionTokens */\n      0x00\n        /* \"DISNEY/Disney.sol\":4812:4829  atractionsMapping */\n      0x03\n        /* \"DISNEY/Disney.sol\":4830:4835  _name */\n      dup3\n        /* \"DISNEY/Disney.sol\":4812:4836  atractionsMapping[_name] */\n      mload(0x40)\n      tag_120\n      swap2\n      swap1\n      tag_116\n      jump\t// in\n    tag_120:\n      swap1\n      dup2\n      mstore\n      0x20\n      add\n      mload(0x40)\n      dup1\n      swap2\n      sub\n      swap1\n      keccak256\n        /* \"DISNEY/Disney.sol\":4812:4842  atractionsMapping[_name].price */\n      0x01\n      add\n      sload\n        /* \"DISNEY/Disney.sol\":4786:4842  uint256 atractionTokens = atractionsMapping[_name].price */\n      swap1\n      pop\n        /* \"DISNEY/Disney.sol\":4981:4991  myTokens() */\n      tag_121\n        /* \"DISNEY/Disney.sol\":4981:4989  myTokens */\n      tag_72\n        /* \"DISNEY/Disney.sol\":4981:4991  myTokens() */\n      jump\t// in\n    tag_121:\n        /* \"DISNEY/Disney.sol\":4962:4977  atractionTokens */\n      dup2\n        /* \"DISNEY/Disney.sol\":4962:4991  atractionTokens <= myTokens() */\n      gt\n      iszero\n        /* \"DISNEY/Disney.sol\":4941:5068  require(... */\n      tag_122\n      jumpi\n      mload(0x40)\n      0x08c379a000000000000000000000000000000000000000000000000000000000\n      dup2\n      mstore\n      0x04\n      add\n      tag_123\n      swap1\n      tag_124\n      jump\t// in\n    tag_123:\n      mload(0x40)\n      dup1\n      swap2\n      sub\n      swap1\n      revert\n    tag_122:\n        /* \"DISNEY/Disney.sol\":5129:5134  token */\n      0x00\n      dup1\n      sload\n      swap1\n      0x0100\n      exp\n      swap1\n      div\n      0xffffffffffffffffffffffffffffffffffffffff\n      and\n        /* \"DISNEY/Disney.sol\":5129:5149  token.transferDisney */\n      0xffffffffffffffffffffffffffffffffffffffff\n      and\n      0x5e413c87\n        /* \"DISNEY/Disney.sol\":5150:5160  msg.sender */\n      caller\n        /* \"DISNEY/Disney.sol\":5170:5174  this */\n      address\n        /* \"DISNEY/Disney.sol\":5177:5192  atractionTokens */\n      dup5\n        /* \"DISNEY/Disney.sol\":5129:5193  token.transferDisney(msg.sender, address(this), atractionTokens) */\n      mload(0x40)\n      dup5\n      0xffffffff\n      and\n      0xe0\n      shl\n      dup2\n      mstore\n      0x04\n      add\n      tag_125\n      swap4\n      swap3\n      swap2\n      swap1\n      tag_126\n      jump\t// in\n    tag_125:\n      0x20\n      mload(0x40)\n      dup1\n      dup4\n      sub\n      dup2\n      0x00\n      dup8\n      gas\n      call\n      iszero\n      dup1\n      iszero\n      tag_128\n      jumpi\n      returndatasize\n      0x00\n      dup1\n      returndatacopy\n      revert(0x00, returndatasize)\n    tag_128:\n      pop\n      pop\n      pop\n      pop\n      mload(0x40)\n      returndatasize\n      not(0x1f)\n      0x1f\n      dup3\n      add\n      and\n      dup3\n      add\n      dup1\n      0x40\n      mstore\n      pop\n      dup2\n      add\n      swap1\n      tag_129\n      swap2\n      swap1\n      tag_130\n      jump\t// in\n    tag_129:\n      pop\n        /* \"DISNEY/Disney.sol\":5203:5219  atractionHistory */\n      0x05\n        /* \"DISNEY/Disney.sol\":5203:5231  atractionHistory[msg.sender] */\n      0x00\n        /* \"DISNEY/Disney.sol\":5220:5230  msg.sender */\n      caller\n        /* \"DISNEY/Disney.sol\":5203:5231  atractionHistory[msg.sender] */\n      0xffffffffffffffffffffffffffffffffffffffff\n      and\n      0xffffffffffffffffffffffffffffffffffffffff\n      and\n      dup2\n      mstore\n      0x20\n      add\n      swap1\n      dup2\n      mstore\n      0x20\n      add\n      0x00\n      keccak256\n        /* \"DISNEY/Disney.sol\":5237:5242  _name */\n      dup3\n        /* \"DISNEY/Disney.sol\":5203:5243  atractionHistory[msg.sender].push(_name) */\n      swap1\n      dup1\n      0x01\n      dup2\n      sload\n      add\n      dup1\n      dup3\n      sstore\n      dup1\n      swap2\n      pop\n      pop\n      0x01\n      swap1\n      sub\n      swap1\n      0x00\n      mstore\n      keccak256(0x00, 0x20)\n      add\n      0x00\n      swap1\n      swap2\n      swap1\n      swap2\n      swap1\n      swap2\n      pop\n      swap1\n      dup2\n      tag_132\n      swap2\n      swap1\n      tag_133\n      jump\t// in\n    tag_132:\n      pop\n        /* \"DISNEY/Disney.sol\":5258:5308  enjoyAtraction(_name, atractionTokens, msg.sender) */\n      0x9afce6bb3ca182f6280637eb4d41eb11d64b8b0e0f8d26ddfa794491b88225e2\n        /* \"DISNEY/Disney.sol\":5273:5278  _name */\n      dup3\n        /* \"DISNEY/Disney.sol\":5280:5295  atractionTokens */\n      dup3\n        /* \"DISNEY/Disney.sol\":5297:5307  msg.sender */\n      caller\n        /* \"DISNEY/Disney.sol\":5258:5308  enjoyAtraction(_name, atractionTokens, msg.sender) */\n      mload(0x40)\n      tag_134\n      swap4\n      swap3\n      swap2\n      swap1\n      tag_135\n      jump\t// in\n    tag_134:\n      mload(0x40)\n      dup1\n      swap2\n      sub\n      swap1\n      log1\n        /* \"DISNEY/Disney.sol\":4541:5315  {... */\n      pop\n        /* \"DISNEY/Disney.sol\":4491:5315  function buyAtraction(string memory _name) public {... */\n      pop\n      jump\t// out\n        /* \"DISNEY/Disney.sol\":5566:6006  function returnTokens(uint256 _numTokens) public payable {... */\n    tag_36:\n        /* \"DISNEY/Disney.sol\":5667:5668  0 */\n      0x00\n        /* \"DISNEY/Disney.sol\":5654:5664  _numTokens */\n      dup2\n        /* \"DISNEY/Disney.sol\":5654:5668  _numTokens > 0 */\n      gt\n        /* \"DISNEY/Disney.sol\":5633:5745  require(... */\n      tag_137\n      jumpi\n      mload(0x40)\n      0x08c379a000000000000000000000000000000000000000000000000000000000\n      dup2\n      mstore\n      0x04\n      add\n      tag_138\n      swap1\n      tag_139\n      jump\t// in\n    tag_138:\n      mload(0x40)\n      dup1\n      swap2\n      sub\n      swap1\n      revert\n    tag_137:\n        /* \"DISNEY/Disney.sol\":5790:5800  myTokens() */\n      tag_140\n        /* \"DISNEY/Disney.sol\":5790:5798  myTokens */\n      tag_72\n        /* \"DISNEY/Disney.sol\":5790:5800  myTokens() */\n      jump\t// in\n    tag_140:\n        /* \"DISNEY/Disney.sol\":5776:5786  _numTokens */\n      dup2\n        /* \"DISNEY/Disney.sol\":5776:5800  _numTokens <= myTokens() */\n      gt\n      iszero\n        /* \"DISNEY/Disney.sol\":5755:5867  require(... */\n      tag_141\n      jumpi\n      mload(0x40)\n      0x08c379a000000000000000000000000000000000000000000000000000000000\n      dup2\n      mstore\n      0x04\n      add\n      tag_142\n      swap1\n      tag_143\n      jump\t// in\n    tag_142:\n      mload(0x40)\n      dup1\n      swap2\n      sub\n      swap1\n      revert\n    tag_141:\n        /* \"DISNEY/Disney.sol\":5878:5883  token */\n      0x00\n      dup1\n      sload\n      swap1\n      0x0100\n      exp\n      swap1\n      div\n      0xffffffffffffffffffffffffffffffffffffffff\n      and\n        /* \"DISNEY/Disney.sol\":5878:5898  token.transferDisney */\n      0xffffffffffffffffffffffffffffffffffffffff\n      and\n      0x5e413c87\n        /* \"DISNEY/Disney.sol\":5899:5909  msg.sender */\n      caller\n        /* \"DISNEY/Disney.sol\":5919:5923  this */\n      address\n        /* \"DISNEY/Disney.sol\":5926:5936  _numTokens */\n      dup5\n        /* \"DISNEY/Disney.sol\":5878:5937  token.transferDisney(msg.sender, address(this), _numTokens) */\n      mload(0x40)\n      dup5\n      0xffffffff\n      and\n      0xe0\n      shl\n      dup2\n      mstore\n      0x04\n      add\n      tag_144\n      swap4\n      swap3\n      swap2\n      swap1\n      tag_126\n      jump\t// in\n    tag_144:\n      0x20\n      mload(0x40)\n      dup1\n      dup4\n      sub\n      dup2\n      0x00\n      dup8\n      gas\n      call\n      iszero\n      dup1\n      iszero\n      tag_146\n      jumpi\n      returndatasize\n      0x00\n      dup1\n      returndatacopy\n      revert(0x00, returndatasize)\n    tag_146:\n      pop\n      pop\n      pop\n      pop\n      mload(0x40)\n      returndatasize\n      not(0x1f)\n      0x1f\n      dup3\n      add\n      and\n      dup3\n      add\n      dup1\n      0x40\n      mstore\n      pop\n      dup2\n      add\n      swap1\n      tag_147\n      swap2\n      swap1\n      tag_130\n      jump\t// in\n    tag_147:\n      pop\n        /* \"DISNEY/Disney.sol\":5955:5965  msg.sender */\n      caller\n        /* \"DISNEY/Disney.sol\":5947:5975  payable(msg.sender).transfer */\n      0xffffffffffffffffffffffffffffffffffffffff\n      and\n        /* \"DISNEY/Disney.sol\":5947:5999  payable(msg.sender).transfer(tokenPrice(_numTokens)) */\n      0x08fc\n        /* \"DISNEY/Disney.sol\":5976:5998  tokenPrice(_numTokens) */\n      tag_148\n        /* \"DISNEY/Disney.sol\":5987:5997  _numTokens */\n      dup4\n        /* \"DISNEY/Disney.sol\":5976:5986  tokenPrice */\n      tag_149\n        /* \"DISNEY/Disney.sol\":5976:5998  tokenPrice(_numTokens) */\n      jump\t// in\n    tag_148:\n        /* \"DISNEY/Disney.sol\":5947:5999  payable(msg.sender).transfer(tokenPrice(_numTokens)) */\n      swap1\n      dup2\n      iszero\n      mul\n      swap1\n      mload(0x40)\n      0x00\n      mload(0x40)\n      dup1\n      dup4\n      sub\n      dup2\n      dup6\n      dup9\n      dup9\n      call\n      swap4\n      pop\n      pop\n      pop\n      pop\n      iszero\n      dup1\n      iszero\n      tag_151\n      jumpi\n      returndatasize\n      0x00\n      dup1\n      returndatacopy\n      revert(0x00, returndatasize)\n    tag_151:\n      pop\n        /* \"DISNEY/Disney.sol\":5566:6006  function returnTokens(uint256 _numTokens) public payable {... */\n      pop\n      jump\t// out\n        /* \"DISNEY/Disney.sol\":6388:6538  function removeFood(string memory _name) public isOwner(msg.sender) {... */\n    tag_40:\n        /* \"DISNEY/Disney.sol\":6444:6454  msg.sender */\n      caller\n        /* \"DISNEY/Disney.sol\":1874:1879  owner */\n      0x01\n      0x00\n      swap1\n      sload\n      swap1\n      0x0100\n      exp\n      swap1\n      div\n      0xffffffffffffffffffffffffffffffffffffffff\n      and\n        /* \"DISNEY/Disney.sol\":1862:1879  _address == owner */\n      0xffffffffffffffffffffffffffffffffffffffff\n      and\n        /* \"DISNEY/Disney.sol\":1862:1870  _address */\n      dup2\n        /* \"DISNEY/Disney.sol\":1862:1879  _address == owner */\n      0xffffffffffffffffffffffffffffffffffffffff\n      and\n      eq\n        /* \"DISNEY/Disney.sol\":1841:1950  require(... */\n      tag_153\n      jumpi\n      mload(0x40)\n      0x08c379a000000000000000000000000000000000000000000000000000000000\n      dup2\n      mstore\n      0x04\n      add\n      tag_154\n      swap1\n      tag_155\n      jump\t// in\n    tag_154:\n      mload(0x40)\n      dup1\n      swap2\n      sub\n      swap1\n      revert\n    tag_153:\n        /* \"DISNEY/Disney.sol\":6493:6498  false */\n      0x00\n        /* \"DISNEY/Disney.sol\":6466:6477  menuMapping */\n      0x04\n        /* \"DISNEY/Disney.sol\":6478:6483  _name */\n      dup4\n        /* \"DISNEY/Disney.sol\":6466:6484  menuMapping[_name] */\n      mload(0x40)\n      tag_157\n      swap2\n      swap1\n      tag_116\n      jump\t// in\n    tag_157:\n      swap1\n      dup2\n      mstore\n      0x20\n      add\n      mload(0x40)\n      dup1\n      swap2\n      sub\n      swap1\n      keccak256\n        /* \"DISNEY/Disney.sol\":6466:6490  menuMapping[_name].state */\n      0x02\n      add\n      0x00\n        /* \"DISNEY/Disney.sol\":6466:6498  menuMapping[_name].state = false */\n      0x0100\n      exp\n      dup2\n      sload\n      dup2\n      0xff\n      mul\n      not\n      and\n      swap1\n      dup4\n      iszero\n      iszero\n      mul\n      or\n      swap1\n      sstore\n      pop\n        /* \"DISNEY/Disney.sol\":6513:6531  foodRemoved(_name) */\n      0x1a4069fd871c529f05f523669b5e830cc64f05f1c9f0fb6072e441658826e0d9\n        /* \"DISNEY/Disney.sol\":6525:6530  _name */\n      dup3\n        /* \"DISNEY/Disney.sol\":6513:6531  foodRemoved(_name) */\n      mload(0x40)\n      tag_158\n      swap2\n      swap1\n      tag_159\n      jump\t// in\n    tag_158:\n      mload(0x40)\n      dup1\n      swap2\n      sub\n      swap1\n      log1\n        /* \"DISNEY/Disney.sol\":6388:6538  function removeFood(string memory _name) public isOwner(msg.sender) {... */\n      pop\n      pop\n      jump\t// out\n        /* \"DISNEY/Disney.sol\":778:819  mapping(address => Client) public clients */\n    tag_45:\n      mstore(0x20, 0x02)\n      dup1\n      0x00\n      mstore\n      keccak256(0x00, 0x40)\n      0x00\n      swap2\n      pop\n      swap1\n      pop\n      dup1\n      0x00\n      add\n      sload\n      swap1\n      pop\n      dup2\n      jump\t// out\n        /* \"DISNEY/Disney.sol\":4095:4261  function removeAtraction(string memory _name) public isOwner(msg.sender) {... */\n    tag_51:\n        /* \"DISNEY/Disney.sol\":4156:4166  msg.sender */\n      caller\n        /* \"DISNEY/Disney.sol\":1874:1879  owner */\n      0x01\n      0x00\n      swap1\n      sload\n      swap1\n      0x0100\n      exp\n      swap1\n      div\n      0xffffffffffffffffffffffffffffffffffffffff\n      and\n        /* \"DISNEY/Disney.sol\":1862:1879  _address == owner */\n      0xffffffffffffffffffffffffffffffffffffffff\n      and\n        /* \"DISNEY/Disney.sol\":1862:1870  _address */\n      dup2\n        /* \"DISNEY/Disney.sol\":1862:1879  _address == owner */\n      0xffffffffffffffffffffffffffffffffffffffff\n      and\n      eq\n        /* \"DISNEY/Disney.sol\":1841:1950  require(... */\n      tag_161\n      jumpi\n      mload(0x40)\n      0x08c379a000000000000000000000000000000000000000000000000000000000\n      dup2\n      mstore\n      0x04\n      add\n      tag_162\n      swap1\n      tag_155\n      jump\t// in\n    tag_162:\n      mload(0x40)\n      dup1\n      swap2\n      sub\n      swap1\n      revert\n    tag_161:\n        /* \"DISNEY/Disney.sol\":4211:4216  false */\n      0x00\n        /* \"DISNEY/Disney.sol\":4178:4195  atractionsMapping */\n      0x03\n        /* \"DISNEY/Disney.sol\":4196:4201  _name */\n      dup4\n        /* \"DISNEY/Disney.sol\":4178:4202  atractionsMapping[_name] */\n      mload(0x40)\n      tag_164\n      swap2\n      swap1\n      tag_116\n      jump\t// in\n    tag_164:\n      swap1\n      dup2\n      mstore\n      0x20\n      add\n      mload(0x40)\n      dup1\n      swap2\n      sub\n      swap1\n      keccak256\n        /* \"DISNEY/Disney.sol\":4178:4208  atractionsMapping[_name].state */\n      0x02\n      add\n      0x00\n        /* \"DISNEY/Disney.sol\":4178:4216  atractionsMapping[_name].state = false */\n      0x0100\n      exp\n      dup2\n      sload\n      dup2\n      0xff\n      mul\n      not\n      and\n      swap1\n      dup4\n      iszero\n      iszero\n      mul\n      or\n      swap1\n      sstore\n      pop\n        /* \"DISNEY/Disney.sol\":4231:4254  atractionRemoved(_name) */\n      0xe09d9ce4ed0ff32e3fa945d6c80da90640852a79abe6ce4cfedea4a4987aa1ce\n        /* \"DISNEY/Disney.sol\":4248:4253  _name */\n      dup3\n        /* \"DISNEY/Disney.sol\":4231:4254  atractionRemoved(_name) */\n      mload(0x40)\n      tag_165\n      swap2\n      swap1\n      tag_159\n      jump\t// in\n    tag_165:\n      mload(0x40)\n      dup1\n      swap2\n      sub\n      swap1\n      log1\n        /* \"DISNEY/Disney.sol\":4095:4261  function removeAtraction(string memory _name) public isOwner(msg.sender) {... */\n      pop\n      pop\n      jump\t// out\n        /* \"DISNEY/Disney.sol\":2287:2392  function balanceOf() public view returns (uint256) {... */\n    tag_54:\n        /* \"DISNEY/Disney.sol\":2329:2336  uint256 */\n      0x00\n        /* \"DISNEY/Disney.sol\":2355:2360  token */\n      dup1\n      0x00\n      swap1\n      sload\n      swap1\n      0x0100\n      exp\n      swap1\n      div\n      0xffffffffffffffffffffffffffffffffffffffff\n      and\n        /* \"DISNEY/Disney.sol\":2355:2370  token.balanceOf */\n      0xffffffffffffffffffffffffffffffffffffffff\n      and\n      0x70a08231\n        /* \"DISNEY/Disney.sol\":2379:2383  this */\n      address\n        /* \"DISNEY/Disney.sol\":2355:2385  token.balanceOf(address(this)) */\n      mload(0x40)\n      dup3\n      0xffffffff\n      and\n      0xe0\n      shl\n      dup2\n      mstore\n      0x04\n      add\n      tag_167\n      swap2\n      swap1\n      tag_168\n      jump\t// in\n    tag_167:\n      0x20\n      mload(0x40)\n      dup1\n      dup4\n      sub\n      dup2\n      dup7\n      gas\n      staticcall\n      iszero\n      dup1\n      iszero\n      tag_170\n      jumpi\n      returndatasize\n      0x00\n      dup1\n      returndatacopy\n      revert(0x00, returndatasize)\n    tag_170:\n      pop\n      pop\n      pop\n      pop\n      mload(0x40)\n      returndatasize\n      not(0x1f)\n      0x1f\n      dup3\n      add\n      and\n      dup3\n      add\n      dup1\n      0x40\n      mstore\n      pop\n      dup2\n      add\n      swap1\n      tag_171\n      swap2\n      swap1\n      tag_172\n      jump\t// in\n    tag_171:\n        /* \"DISNEY/Disney.sol\":2348:2385  return token.balanceOf(address(this)) */\n      swap1\n      pop\n        /* \"DISNEY/Disney.sol\":2287:2392  function balanceOf() public view returns (uint256) {... */\n      swap1\n      jump\t// out\n        /* \"DISNEY/Disney.sol\":6118:6350  function addFood(string memory _name, uint256 _price)... */\n    tag_60:\n        /* \"DISNEY/Disney.sol\":6203:6213  msg.sender */\n      caller\n        /* \"DISNEY/Disney.sol\":1874:1879  owner */\n      0x01\n      0x00\n      swap1\n      sload\n      swap1\n      0x0100\n      exp\n      swap1\n      div\n      0xffffffffffffffffffffffffffffffffffffffff\n      and\n        /* \"DISNEY/Disney.sol\":1862:1879  _address == owner */\n      0xffffffffffffffffffffffffffffffffffffffff\n      and\n        /* \"DISNEY/Disney.sol\":1862:1870  _address */\n      dup2\n        /* \"DISNEY/Disney.sol\":1862:1879  _address == owner */\n      0xffffffffffffffffffffffffffffffffffffffff\n      and\n      eq\n        /* \"DISNEY/Disney.sol\":1841:1950  require(... */\n      tag_174\n      jumpi\n      mload(0x40)\n      0x08c379a000000000000000000000000000000000000000000000000000000000\n      dup2\n      mstore\n      0x04\n      add\n      tag_175\n      swap1\n      tag_155\n      jump\t// in\n    tag_175:\n      mload(0x40)\n      dup1\n      swap2\n      sub\n      swap1\n      revert\n    tag_174:\n        /* \"DISNEY/Disney.sol\":6250:6275  Food(_name, _price, true) */\n      mload(0x40)\n      dup1\n      0x60\n      add\n      0x40\n      mstore\n      dup1\n        /* \"DISNEY/Disney.sol\":6255:6260  _name */\n      dup5\n        /* \"DISNEY/Disney.sol\":6250:6275  Food(_name, _price, true) */\n      dup2\n      mstore\n      0x20\n      add\n        /* \"DISNEY/Disney.sol\":6262:6268  _price */\n      dup4\n        /* \"DISNEY/Disney.sol\":6250:6275  Food(_name, _price, true) */\n      dup2\n      mstore\n      0x20\n      add\n        /* \"DISNEY/Disney.sol\":6270:6274  true */\n      0x01\n        /* \"DISNEY/Disney.sol\":6250:6275  Food(_name, _price, true) */\n      iszero\n      iszero\n      dup2\n      mstore\n      pop\n        /* \"DISNEY/Disney.sol\":6229:6240  menuMapping */\n      0x04\n        /* \"DISNEY/Disney.sol\":6241:6246  _name */\n      dup5\n        /* \"DISNEY/Disney.sol\":6229:6247  menuMapping[_name] */\n      mload(0x40)\n      tag_177\n      swap2\n      swap1\n      tag_116\n      jump\t// in\n    tag_177:\n      swap1\n      dup2\n      mstore\n      0x20\n      add\n      mload(0x40)\n      dup1\n      swap2\n      sub\n      swap1\n      keccak256\n        /* \"DISNEY/Disney.sol\":6229:6275  menuMapping[_name] = Food(_name, _price, true) */\n      0x00\n      dup3\n      add\n      mload\n      dup2\n      0x00\n      add\n      swap1\n      dup2\n      tag_178\n      swap2\n      swap1\n      tag_133\n      jump\t// in\n    tag_178:\n      pop\n      0x20\n      dup3\n      add\n      mload\n      dup2\n      0x01\n      add\n      sstore\n      0x40\n      dup3\n      add\n      mload\n      dup2\n      0x02\n      add\n      exp(0x0100, 0x00)\n      dup2\n      sload\n      dup2\n      0xff\n      mul\n      not\n      and\n      swap1\n      dup4\n      iszero\n      iszero\n      mul\n      or\n      swap1\n      sstore\n      pop\n      swap1\n      pop\n      pop\n        /* \"DISNEY/Disney.sol\":6285:6289  menu */\n      0x08\n        /* \"DISNEY/Disney.sol\":6295:6300  _name */\n      dup4\n        /* \"DISNEY/Disney.sol\":6285:6301  menu.push(_name) */\n      swap1\n      dup1\n      0x01\n      dup2\n      sload\n      add\n      dup1\n      dup3\n      sstore\n      dup1\n      swap2\n      pop\n      pop\n      0x01\n      swap1\n      sub\n      swap1\n      0x00\n      mstore\n      keccak256(0x00, 0x20)\n      add\n      0x00\n      swap1\n      swap2\n      swap1\n      swap2\n      swap1\n      swap2\n      pop\n      swap1\n      dup2\n      tag_180\n      swap2\n      swap1\n      tag_133\n      jump\t// in\n    tag_180:\n      pop\n        /* \"DISNEY/Disney.sol\":6316:6343  newFoodAdded(_name, _price) */\n      0x17bc45930669ab6f8432a2ddb7ee4168d1fe73374ee382344c4af01445a8243b\n        /* \"DISNEY/Disney.sol\":6329:6334  _name */\n      dup4\n        /* \"DISNEY/Disney.sol\":6336:6342  _price */\n      dup4\n        /* \"DISNEY/Disney.sol\":6316:6343  newFoodAdded(_name, _price) */\n      mload(0x40)\n      tag_181\n      swap3\n      swap2\n      swap1\n      tag_182\n      jump\t// in\n    tag_181:\n      mload(0x40)\n      dup1\n      swap2\n      sub\n      swap1\n      log1\n        /* \"DISNEY/Disney.sol\":6118:6350  function addFood(string memory _name, uint256 _price)... */\n      pop\n      pop\n      pop\n      jump\t// out\n        /* \"DISNEY/Disney.sol\":3525:3648  function createTokens(uint256 _numTokens) public isOwner(msg.sender) {... */\n    tag_64:\n        /* \"DISNEY/Disney.sol\":3582:3592  msg.sender */\n      caller\n        /* \"DISNEY/Disney.sol\":1874:1879  owner */\n      0x01\n      0x00\n      swap1\n      sload\n      swap1\n      0x0100\n      exp\n      swap1\n      div\n      0xffffffffffffffffffffffffffffffffffffffff\n      and\n        /* \"DISNEY/Disney.sol\":1862:1879  _address == owner */\n      0xffffffffffffffffffffffffffffffffffffffff\n      and\n        /* \"DISNEY/Disney.sol\":1862:1870  _address */\n      dup2\n        /* \"DISNEY/Disney.sol\":1862:1879  _address == owner */\n      0xffffffffffffffffffffffffffffffffffffffff\n      and\n      eq\n        /* \"DISNEY/Disney.sol\":1841:1950  require(... */\n      tag_184\n      jumpi\n      mload(0x40)\n      0x08c379a000000000000000000000000000000000000000000000000000000000\n      dup2\n      mstore\n      0x04\n      add\n      tag_185\n      swap1\n      tag_155\n      jump\t// in\n    tag_185:\n      mload(0x40)\n      dup1\n      swap2\n      sub\n      swap1\n      revert\n    tag_184:\n        /* \"DISNEY/Disney.sol\":3604:3609  token */\n      0x00\n      dup1\n      sload\n      swap1\n      0x0100\n      exp\n      swap1\n      div\n      0xffffffffffffffffffffffffffffffffffffffff\n      and\n        /* \"DISNEY/Disney.sol\":3604:3629  token.increaseTotalSupply */\n      0xffffffffffffffffffffffffffffffffffffffff\n      and\n      0x1d43cc98\n        /* \"DISNEY/Disney.sol\":3630:3640  _numTokens */\n      dup4\n        /* \"DISNEY/Disney.sol\":3604:3641  token.increaseTotalSupply(_numTokens) */\n      mload(0x40)\n      dup3\n      0xffffffff\n      and\n      0xe0\n      shl\n      dup2\n      mstore\n      0x04\n      add\n      tag_187\n      swap2\n      swap1\n      tag_47\n      jump\t// in\n    tag_187:\n      0x00\n      mload(0x40)\n      dup1\n      dup4\n      sub\n      dup2\n      0x00\n      dup8\n      dup1\n      extcodesize\n      iszero\n      dup1\n      iszero\n      tag_188\n      jumpi\n      0x00\n      dup1\n      revert\n    tag_188:\n      pop\n      gas\n      call\n      iszero\n      dup1\n      iszero\n      tag_190\n      jumpi\n      returndatasize\n      0x00\n      dup1\n      returndatacopy\n      revert(0x00, returndatasize)\n    tag_190:\n      pop\n      pop\n      pop\n      pop\n        /* \"DISNEY/Disney.sol\":3525:3648  function createTokens(uint256 _numTokens) public isOwner(msg.sender) {... */\n      pop\n      pop\n      jump\t// out\n        /* \"DISNEY/Disney.sol\":308:336  address payable public owner */\n    tag_67:\n      0x01\n      0x00\n      swap1\n      sload\n      swap1\n      0x0100\n      exp\n      swap1\n      div\n      0xffffffffffffffffffffffffffffffffffffffff\n      and\n      dup2\n      jump\t// out\n        /* \"DISNEY/Disney.sol\":3380:3481  function myTokens() public view returns (uint256) {... */\n    tag_72:\n        /* \"DISNEY/Disney.sol\":3421:3428  uint256 */\n      0x00\n        /* \"DISNEY/Disney.sol\":3447:3452  token */\n      dup1\n      0x00\n      swap1\n      sload\n      swap1\n      0x0100\n      exp\n      swap1\n      div\n      0xffffffffffffffffffffffffffffffffffffffff\n      and\n        /* \"DISNEY/Disney.sol\":3447:3462  token.balanceOf */\n      0xffffffffffffffffffffffffffffffffffffffff\n      and\n      0x70a08231\n        /* \"DISNEY/Disney.sol\":3463:3473  msg.sender */\n      caller\n        /* \"DISNEY/Disney.sol\":3447:3474  token.balanceOf(msg.sender) */\n      mload(0x40)\n      dup3\n      0xffffffff\n      and\n      0xe0\n      shl\n      dup2\n      mstore\n      0x04\n      add\n      tag_192\n      swap2\n      swap1\n      tag_168\n      jump\t// in\n    tag_192:\n      0x20\n      mload(0x40)\n      dup1\n      dup4\n      sub\n      dup2\n      dup7\n      gas\n      staticcall\n      iszero\n      dup1\n      iszero\n      tag_194\n      jumpi\n      returndatasize\n      0x00\n      dup1\n      returndatacopy\n      revert(0x00, returndatasize)\n    tag_194:\n      pop\n      pop\n      pop\n      pop\n      mload(0x40)\n      returndatasize\n      not(0x1f)\n      0x1f\n      dup3\n      add\n      and\n      dup3\n      add\n      dup1\n      0x40\n      mstore\n      pop\n      dup2\n      add\n      swap1\n      tag_195\n      swap2\n      swap1\n      tag_172\n      jump\t// in\n    tag_195:\n        /* \"DISNEY/Disney.sol\":3440:3474  return token.balanceOf(msg.sender) */\n      swap1\n      pop\n        /* \"DISNEY/Disney.sol\":3380:3481  function myTokens() public view returns (uint256) {... */\n      swap1\n      jump\t// out\n        /* \"DISNEY/Disney.sol\":6684:7235  function orderFood(string memory _name) public {... */\n    tag_77:\n        /* \"DISNEY/Disney.sol\":6790:6794  true */\n      0x01\n        /* \"DISNEY/Disney.sol\":6762:6794  menuMapping[_name].state == true */\n      iszero\n      iszero\n        /* \"DISNEY/Disney.sol\":6762:6773  menuMapping */\n      0x04\n        /* \"DISNEY/Disney.sol\":6774:6779  _name */\n      dup3\n        /* \"DISNEY/Disney.sol\":6762:6780  menuMapping[_name] */\n      mload(0x40)\n      tag_197\n      swap2\n      swap1\n      tag_116\n      jump\t// in\n    tag_197:\n      swap1\n      dup2\n      mstore\n      0x20\n      add\n      mload(0x40)\n      dup1\n      swap2\n      sub\n      swap1\n      keccak256\n        /* \"DISNEY/Disney.sol\":6762:6786  menuMapping[_name].state */\n      0x02\n      add\n      0x00\n      swap1\n      sload\n      swap1\n      0x0100\n      exp\n      swap1\n      div\n      0xff\n      and\n        /* \"DISNEY/Disney.sol\":6762:6794  menuMapping[_name].state == true */\n      iszero\n      iszero\n      eq\n        /* \"DISNEY/Disney.sol\":6741:6869  require(... */\n      tag_198\n      jumpi\n      mload(0x40)\n      0x08c379a000000000000000000000000000000000000000000000000000000000\n      dup2\n      mstore\n      0x04\n      add\n      tag_199\n      swap1\n      tag_200\n      jump\t// in\n    tag_199:\n      mload(0x40)\n      dup1\n      swap2\n      sub\n      swap1\n      revert\n    tag_198:\n        /* \"DISNEY/Disney.sol\":6879:6897  uint256 foodTokens */\n      0x00\n        /* \"DISNEY/Disney.sol\":6900:6911  menuMapping */\n      0x04\n        /* \"DISNEY/Disney.sol\":6912:6917  _name */\n      dup3\n        /* \"DISNEY/Disney.sol\":6900:6918  menuMapping[_name] */\n      mload(0x40)\n      tag_201\n      swap2\n      swap1\n      tag_116\n      jump\t// in\n    tag_201:\n      swap1\n      dup2\n      mstore\n      0x20\n      add\n      mload(0x40)\n      dup1\n      swap2\n      sub\n      swap1\n      keccak256\n        /* \"DISNEY/Disney.sol\":6900:6924  menuMapping[_name].price */\n      0x01\n      add\n      sload\n        /* \"DISNEY/Disney.sol\":6879:6924  uint256 foodTokens = menuMapping[_name].price */\n      swap1\n      pop\n        /* \"DISNEY/Disney.sol\":6969:6979  myTokens() */\n      tag_202\n        /* \"DISNEY/Disney.sol\":6969:6977  myTokens */\n      tag_72\n        /* \"DISNEY/Disney.sol\":6969:6979  myTokens() */\n      jump\t// in\n    tag_202:\n        /* \"DISNEY/Disney.sol\":6955:6965  foodTokens */\n      dup2\n        /* \"DISNEY/Disney.sol\":6955:6979  foodTokens <= myTokens() */\n      gt\n      iszero\n        /* \"DISNEY/Disney.sol\":6934:7053  require(... */\n      tag_203\n      jumpi\n      mload(0x40)\n      0x08c379a000000000000000000000000000000000000000000000000000000000\n      dup2\n      mstore\n      0x04\n      add\n      tag_204\n      swap1\n      tag_205\n      jump\t// in\n    tag_204:\n      mload(0x40)\n      dup1\n      swap2\n      sub\n      swap1\n      revert\n    tag_203:\n        /* \"DISNEY/Disney.sol\":7064:7069  token */\n      0x00\n      dup1\n      sload\n      swap1\n      0x0100\n      exp\n      swap1\n      div\n      0xffffffffffffffffffffffffffffffffffffffff\n      and\n        /* \"DISNEY/Disney.sol\":7064:7084  token.transferDisney */\n      0xffffffffffffffffffffffffffffffffffffffff\n      and\n      0x5e413c87\n        /* \"DISNEY/Disney.sol\":7085:7095  msg.sender */\n      caller\n        /* \"DISNEY/Disney.sol\":7105:7109  this */\n      address\n        /* \"DISNEY/Disney.sol\":7112:7122  foodTokens */\n      dup5\n        /* \"DISNEY/Disney.sol\":7064:7123  token.transferDisney(msg.sender, address(this), foodTokens) */\n      mload(0x40)\n      dup5\n      0xffffffff\n      and\n      0xe0\n      shl\n      dup2\n      mstore\n      0x04\n      add\n      tag_206\n      swap4\n      swap3\n      swap2\n      swap1\n      tag_126\n      jump\t// in\n    tag_206:\n      0x20\n      mload(0x40)\n      dup1\n      dup4\n      sub\n      dup2\n      0x00\n      dup8\n      gas\n      call\n      iszero\n      dup1\n      iszero\n      tag_208\n      jumpi\n      returndatasize\n      0x00\n      dup1\n      returndatacopy\n      revert(0x00, returndatasize)\n    tag_208:\n      pop\n      pop\n      pop\n      pop\n      mload(0x40)\n      returndatasize\n      not(0x1f)\n      0x1f\n      dup3\n      add\n      and\n      dup3\n      add\n      dup1\n      0x40\n      mstore\n      pop\n      dup2\n      add\n      swap1\n      tag_209\n      swap2\n      swap1\n      tag_130\n      jump\t// in\n    tag_209:\n      pop\n        /* \"DISNEY/Disney.sol\":7133:7149  clientFoodOrders */\n      0x06\n        /* \"DISNEY/Disney.sol\":7133:7161  clientFoodOrders[msg.sender] */\n      0x00\n        /* \"DISNEY/Disney.sol\":7150:7160  msg.sender */\n      caller\n        /* \"DISNEY/Disney.sol\":7133:7161  clientFoodOrders[msg.sender] */\n      0xffffffffffffffffffffffffffffffffffffffff\n      and\n      0xffffffffffffffffffffffffffffffffffffffff\n      and\n      dup2\n      mstore\n      0x20\n      add\n      swap1\n      dup2\n      mstore\n      0x20\n      add\n      0x00\n      keccak256\n        /* \"DISNEY/Disney.sol\":7167:7172  _name */\n      dup3\n        /* \"DISNEY/Disney.sol\":7133:7173  clientFoodOrders[msg.sender].push(_name) */\n      swap1\n      dup1\n      0x01\n      dup2\n      sload\n      add\n      dup1\n      dup3\n      sstore\n      dup1\n      swap2\n      pop\n      pop\n      0x01\n      swap1\n      sub\n      swap1\n      0x00\n      mstore\n      keccak256(0x00, 0x20)\n      add\n      0x00\n      swap1\n      swap2\n      swap1\n      swap2\n      swap1\n      swap2\n      pop\n      swap1\n      dup2\n      tag_211\n      swap2\n      swap1\n      tag_133\n      jump\t// in\n    tag_211:\n      pop\n        /* \"DISNEY/Disney.sol\":7188:7228  enjoyFood(_name, foodTokens, msg.sender) */\n      0x48f33e7b77a627c37305288a2bd6cc25f05662dd696fd1ad057099c9e541e1d5\n        /* \"DISNEY/Disney.sol\":7198:7203  _name */\n      dup3\n        /* \"DISNEY/Disney.sol\":7205:7215  foodTokens */\n      dup3\n        /* \"DISNEY/Disney.sol\":7217:7227  msg.sender */\n      caller\n        /* \"DISNEY/Disney.sol\":7188:7228  enjoyFood(_name, foodTokens, msg.sender) */\n      mload(0x40)\n      tag_212\n      swap4\n      swap3\n      swap2\n      swap1\n      tag_135\n      jump\t// in\n    tag_212:\n      mload(0x40)\n      dup1\n      swap2\n      sub\n      swap1\n      log1\n        /* \"DISNEY/Disney.sol\":6731:7235  {... */\n      pop\n        /* \"DISNEY/Disney.sol\":6684:7235  function orderFood(string memory _name) public {... */\n      pop\n      jump\t// out\n        /* \"DISNEY/Disney.sol\":895:948  mapping(string => Atraction) public atractionsMapping */\n    tag_81:\n      0x03\n      dup2\n      dup1\n      mload\n      0x20\n      dup2\n      add\n      dup3\n      add\n      dup1\n      mload\n      dup5\n      dup3\n      mstore\n      0x20\n      dup4\n      add\n      0x20\n      dup6\n      add\n      keccak256\n      dup2\n      dup4\n      mstore\n      dup1\n      swap6\n      pop\n      pop\n      pop\n      pop\n      pop\n      pop\n      0x00\n      swap2\n      pop\n      swap1\n      pop\n      dup1\n      0x00\n      add\n      dup1\n      sload\n      tag_213\n      swap1\n      tag_109\n      jump\t// in\n    tag_213:\n      dup1\n      0x1f\n      add\n      0x20\n      dup1\n      swap2\n      div\n      mul\n      0x20\n      add\n      mload(0x40)\n      swap1\n      dup2\n      add\n      0x40\n      mstore\n      dup1\n      swap3\n      swap2\n      swap1\n      dup2\n      dup2\n      mstore\n      0x20\n      add\n      dup3\n      dup1\n      sload\n      tag_214\n      swap1\n      tag_109\n      jump\t// in\n    tag_214:\n      dup1\n      iszero\n      tag_215\n      jumpi\n      dup1\n      0x1f\n      lt\n      tag_216\n      jumpi\n      0x0100\n      dup1\n      dup4\n      sload\n      div\n      mul\n      dup4\n      mstore\n      swap2\n      0x20\n      add\n      swap2\n      jump(tag_215)\n    tag_216:\n      dup3\n      add\n      swap2\n      swap1\n      0x00\n      mstore\n      keccak256(0x00, 0x20)\n      swap1\n    tag_217:\n      dup2\n      sload\n      dup2\n      mstore\n      swap1\n      0x01\n      add\n      swap1\n      0x20\n      add\n      dup1\n      dup4\n      gt\n      tag_217\n      jumpi\n      dup3\n      swap1\n      sub\n      0x1f\n      and\n      dup3\n      add\n      swap2\n    tag_215:\n      pop\n      pop\n      pop\n      pop\n      pop\n      swap1\n      dup1\n      0x01\n      add\n      sload\n      swap1\n      dup1\n      0x02\n      add\n      0x00\n      swap1\n      sload\n      swap1\n      0x0100\n      exp\n      swap1\n      div\n      0xff\n      and\n      swap1\n      pop\n      dup4\n      jump\t// out\n        /* \"DISNEY/Disney.sol\":2469:3312  function compraTokens(uint256 _numTokens) public payable {... */\n    tag_86:\n        /* \"DISNEY/Disney.sol\":2582:2594  uint256 cost */\n      0x00\n        /* \"DISNEY/Disney.sol\":2597:2619  tokenPrice(_numTokens) */\n      tag_219\n        /* \"DISNEY/Disney.sol\":2608:2618  _numTokens */\n      dup3\n        /* \"DISNEY/Disney.sol\":2597:2607  tokenPrice */\n      tag_149\n        /* \"DISNEY/Disney.sol\":2597:2619  tokenPrice(_numTokens) */\n      jump\t// in\n    tag_219:\n        /* \"DISNEY/Disney.sol\":2582:2619  uint256 cost = tokenPrice(_numTokens) */\n      swap1\n      pop\n        /* \"DISNEY/Disney.sol\":2683:2698  uint256 balance */\n      0x00\n        /* \"DISNEY/Disney.sol\":2701:2712  balanceOf() */\n      tag_220\n        /* \"DISNEY/Disney.sol\":2701:2710  balanceOf */\n      tag_54\n        /* \"DISNEY/Disney.sol\":2701:2712  balanceOf() */\n      jump\t// in\n    tag_220:\n        /* \"DISNEY/Disney.sol\":2683:2712  uint256 balance = balanceOf() */\n      swap1\n      pop\n        /* \"DISNEY/Disney.sol\":2756:2760  cost */\n      dup2\n        /* \"DISNEY/Disney.sol\":2743:2752  msg.value */\n      callvalue\n        /* \"DISNEY/Disney.sol\":2743:2760  msg.value >= cost */\n      lt\n      iszero\n        /* \"DISNEY/Disney.sol\":2722:2828  require(... */\n      tag_221\n      jumpi\n      mload(0x40)\n      0x08c379a000000000000000000000000000000000000000000000000000000000\n      dup2\n      mstore\n      0x04\n      add\n      tag_222\n      swap1\n      tag_223\n      jump\t// in\n    tag_222:\n      mload(0x40)\n      dup1\n      swap2\n      sub\n      swap1\n      revert\n    tag_221:\n        /* \"DISNEY/Disney.sol\":2860:2867  balance */\n      dup1\n        /* \"DISNEY/Disney.sol\":2846:2856  _numTokens */\n      dup4\n        /* \"DISNEY/Disney.sol\":2846:2867  _numTokens <= balance */\n      gt\n      iszero\n        /* \"DISNEY/Disney.sol\":2838:2904  require(_numTokens <= balance, \"Compra un numero menor de Tokens\") */\n      tag_224\n      jumpi\n      mload(0x40)\n      0x08c379a000000000000000000000000000000000000000000000000000000000\n      dup2\n      mstore\n      0x04\n      add\n      tag_225\n      swap1\n      tag_226\n      jump\t// in\n    tag_225:\n      mload(0x40)\n      dup1\n      swap2\n      sub\n      swap1\n      revert\n    tag_224:\n        /* \"DISNEY/Disney.sol\":2963:2982  uint256 returnValue */\n      0x00\n        /* \"DISNEY/Disney.sol\":2997:3001  cost */\n      dup3\n        /* \"DISNEY/Disney.sol\":2985:2994  msg.value */\n      callvalue\n        /* \"DISNEY/Disney.sol\":2985:3001  msg.value - cost */\n      tag_227\n      swap2\n      swap1\n      tag_228\n      jump\t// in\n    tag_227:\n        /* \"DISNEY/Disney.sol\":2963:3001  uint256 returnValue = msg.value - cost */\n      swap1\n      pop\n        /* \"DISNEY/Disney.sol\":3078:3088  msg.sender */\n      caller\n        /* \"DISNEY/Disney.sol\":3070:3098  payable(msg.sender).transfer */\n      0xffffffffffffffffffffffffffffffffffffffff\n      and\n        /* \"DISNEY/Disney.sol\":3070:3111  payable(msg.sender).transfer(returnValue) */\n      0x08fc\n        /* \"DISNEY/Disney.sol\":3099:3110  returnValue */\n      dup3\n        /* \"DISNEY/Disney.sol\":3070:3111  payable(msg.sender).transfer(returnValue) */\n      swap1\n      dup2\n      iszero\n      mul\n      swap1\n      mload(0x40)\n      0x00\n      mload(0x40)\n      dup1\n      dup4\n      sub\n      dup2\n      dup6\n      dup9\n      dup9\n      call\n      swap4\n      pop\n      pop\n      pop\n      pop\n      iszero\n      dup1\n      iszero\n      tag_230\n      jumpi\n      returndatasize\n      0x00\n      dup1\n      returndatacopy\n      revert(0x00, returndatasize)\n    tag_230:\n      pop\n        /* \"DISNEY/Disney.sol\":3177:3182  token */\n      0x00\n      dup1\n      sload\n      swap1\n      0x0100\n      exp\n      swap1\n      div\n      0xffffffffffffffffffffffffffffffffffffffff\n      and\n        /* \"DISNEY/Disney.sol\":3177:3191  token.transfer */\n      0xffffffffffffffffffffffffffffffffffffffff\n      and\n      0xa9059cbb\n        /* \"DISNEY/Disney.sol\":3192:3202  msg.sender */\n      caller\n        /* \"DISNEY/Disney.sol\":3204:3214  _numTokens */\n      dup7\n        /* \"DISNEY/Disney.sol\":3177:3215  token.transfer(msg.sender, _numTokens) */\n      mload(0x40)\n      dup4\n      0xffffffff\n      and\n      0xe0\n      shl\n      dup2\n      mstore\n      0x04\n      add\n      tag_231\n      swap3\n      swap2\n      swap1\n      tag_232\n      jump\t// in\n    tag_231:\n      0x20\n      mload(0x40)\n      dup1\n      dup4\n      sub\n      dup2\n      0x00\n      dup8\n      gas\n      call\n      iszero\n      dup1\n      iszero\n      tag_234\n      jumpi\n      returndatasize\n      0x00\n      dup1\n      returndatacopy\n      revert(0x00, returndatasize)\n    tag_234:\n      pop\n      pop\n      pop\n      pop\n      mload(0x40)\n      returndatasize\n      not(0x1f)\n      0x1f\n      dup3\n      add\n      and\n      dup3\n      add\n      dup1\n      0x40\n      mstore\n      pop\n      dup2\n      add\n      swap1\n      tag_235\n      swap2\n      swap1\n      tag_130\n      jump\t// in\n    tag_235:\n      pop\n        /* \"DISNEY/Disney.sol\":3295:3305  _numTokens */\n      dup4\n        /* \"DISNEY/Disney.sol\":3265:3272  clients */\n      0x02\n        /* \"DISNEY/Disney.sol\":3265:3284  clients[msg.sender] */\n      0x00\n        /* \"DISNEY/Disney.sol\":3273:3283  msg.sender */\n      caller\n        /* \"DISNEY/Disney.sol\":3265:3284  clients[msg.sender] */\n      0xffffffffffffffffffffffffffffffffffffffff\n      and\n      0xffffffffffffffffffffffffffffffffffffffff\n      and\n      dup2\n      mstore\n      0x20\n      add\n      swap1\n      dup2\n      mstore\n      0x20\n      add\n      0x00\n      keccak256\n        /* \"DISNEY/Disney.sol\":3265:3291  clients[msg.sender].tokens */\n      0x00\n      add\n      0x00\n        /* \"DISNEY/Disney.sol\":3265:3305  clients[msg.sender].tokens += _numTokens */\n      dup3\n      dup3\n      sload\n      tag_236\n      swap2\n      swap1\n      tag_237\n      jump\t// in\n    tag_236:\n      swap3\n      pop\n      pop\n      dup2\n      swap1\n      sstore\n      pop\n        /* \"DISNEY/Disney.sol\":2526:3312  {... */\n      pop\n      pop\n      pop\n        /* \"DISNEY/Disney.sol\":2469:3312  function compraTokens(uint256 _numTokens) public payable {... */\n      pop\n      jump\t// out\n        /* \"DISNEY/Disney.sol\":5378:5493  function clientHistory() public view returns (string[] memory) {... */\n    tag_89:\n        /* \"DISNEY/Disney.sol\":5424:5439  string[] memory */\n      0x60\n        /* \"DISNEY/Disney.sol\":5458:5474  atractionHistory */\n      0x05\n        /* \"DISNEY/Disney.sol\":5458:5486  atractionHistory[msg.sender] */\n      0x00\n        /* \"DISNEY/Disney.sol\":5475:5485  msg.sender */\n      caller\n        /* \"DISNEY/Disney.sol\":5458:5486  atractionHistory[msg.sender] */\n      0xffffffffffffffffffffffffffffffffffffffff\n      and\n      0xffffffffffffffffffffffffffffffffffffffff\n      and\n      dup2\n      mstore\n      0x20\n      add\n      swap1\n      dup2\n      mstore\n      0x20\n      add\n      0x00\n      keccak256\n        /* \"DISNEY/Disney.sol\":5451:5486  return atractionHistory[msg.sender] */\n      dup1\n      sload\n      dup1\n      0x20\n      mul\n      0x20\n      add\n      mload(0x40)\n      swap1\n      dup2\n      add\n      0x40\n      mstore\n      dup1\n      swap3\n      swap2\n      swap1\n      dup2\n      dup2\n      mstore\n      0x20\n      add\n      0x00\n      swap1\n    tag_239:\n      dup3\n      dup3\n      lt\n      iszero\n      tag_240\n      jumpi\n      dup4\n      dup3\n      swap1\n      0x00\n      mstore\n      keccak256(0x00, 0x20)\n      add\n      dup1\n      sload\n      tag_242\n      swap1\n      tag_109\n      jump\t// in\n    tag_242:\n      dup1\n      0x1f\n      add\n      0x20\n      dup1\n      swap2\n      div\n      mul\n      0x20\n      add\n      mload(0x40)\n      swap1\n      dup2\n      add\n      0x40\n      mstore\n      dup1\n      swap3\n      swap2\n      swap1\n      dup2\n      dup2\n      mstore\n      0x20\n      add\n      dup3\n      dup1\n      sload\n      tag_243\n      swap1\n      tag_109\n      jump\t// in\n    tag_243:\n      dup1\n      iszero\n      tag_244\n      jumpi\n      dup1\n      0x1f\n      lt\n      tag_245\n      jumpi\n      0x0100\n      dup1\n      dup4\n      sload\n      div\n      mul\n      dup4\n      mstore\n      swap2\n      0x20\n      add\n      swap2\n      jump(tag_244)\n    tag_245:\n      dup3\n      add\n      swap2\n      swap1\n      0x00\n      mstore\n      keccak256(0x00, 0x20)\n      swap1\n    tag_246:\n      dup2\n      sload\n      dup2\n      mstore\n      swap1\n      0x01\n      add\n      swap1\n      0x20\n      add\n      dup1\n      dup4\n      gt\n      tag_246\n      jumpi\n      dup3\n      swap1\n      sub\n      0x1f\n      and\n      dup3\n      add\n      swap2\n    tag_244:\n      pop\n      pop\n      pop\n      pop\n      pop\n      dup2\n      mstore\n      0x20\n      add\n      swap1\n      0x01\n      add\n      swap1\n      jump(tag_239)\n    tag_240:\n      pop\n      pop\n      pop\n      pop\n      swap1\n      pop\n        /* \"DISNEY/Disney.sol\":5378:5493  function clientHistory() public view returns (string[] memory) {... */\n      swap1\n      jump\t// out\n        /* \"DISNEY/Disney.sol\":4311:4413  function avaiableAtractions() public view returns (string[] memory) {... */\n    tag_93:\n        /* \"DISNEY/Disney.sol\":4362:4377  string[] memory */\n      0x60\n        /* \"DISNEY/Disney.sol\":4396:4406  atractions */\n      0x07\n        /* \"DISNEY/Disney.sol\":4389:4406  return atractions */\n      dup1\n      sload\n      dup1\n      0x20\n      mul\n      0x20\n      add\n      mload(0x40)\n      swap1\n      dup2\n      add\n      0x40\n      mstore\n      dup1\n      swap3\n      swap2\n      swap1\n      dup2\n      dup2\n      mstore\n      0x20\n      add\n      0x00\n      swap1\n    tag_248:\n      dup3\n      dup3\n      lt\n      iszero\n      tag_249\n      jumpi\n      dup4\n      dup3\n      swap1\n      0x00\n      mstore\n      keccak256(0x00, 0x20)\n      add\n      dup1\n      sload\n      tag_251\n      swap1\n      tag_109\n      jump\t// in\n    tag_251:\n      dup1\n      0x1f\n      add\n      0x20\n      dup1\n      swap2\n      div\n      mul\n      0x20\n      add\n      mload(0x40)\n      swap1\n      dup2\n      add\n      0x40\n      mstore\n      dup1\n      swap3\n      swap2\n      swap1\n      dup2\n      dup2\n      mstore\n      0x20\n      add\n      dup3\n      dup1\n      sload\n      tag_252\n      swap1\n      tag_109\n      jump\t// in\n    tag_252:\n      dup1\n      iszero\n      tag_253\n      jumpi\n      dup1\n      0x1f\n      lt\n      tag_254\n      jumpi\n      0x0100\n      dup1\n      dup4\n      sload\n      div\n      mul\n      dup4\n      mstore\n      swap2\n      0x20\n      add\n      swap2\n      jump(tag_253)\n    tag_254:\n      dup3\n      add\n      swap2\n      swap1\n      0x00\n      mstore\n      keccak256(0x00, 0x20)\n      swap1\n    tag_255:\n      dup2\n      sload\n      dup2\n      mstore\n      swap1\n      0x01\n      add\n      swap1\n      0x20\n      add\n      dup1\n      dup4\n      gt\n      tag_255\n      jumpi\n      dup3\n      swap1\n      sub\n      0x1f\n      and\n      dup3\n      add\n      swap2\n    tag_253:\n      pop\n      pop\n      pop\n      pop\n      pop\n      dup2\n      mstore\n      0x20\n      add\n      swap1\n      0x01\n      add\n      swap1\n      jump(tag_248)\n    tag_249:\n      pop\n      pop\n      pop\n      pop\n      swap1\n      pop\n        /* \"DISNEY/Disney.sol\":4311:4413  function avaiableAtractions() public view returns (string[] memory) {... */\n      swap1\n      jump\t// out\n        /* \"DISNEY/Disney.sol\":3789:4048  function newAtraction(string memory _name, uint256 _price)... */\n    tag_98:\n        /* \"DISNEY/Disney.sol\":3879:3889  msg.sender */\n      caller\n        /* \"DISNEY/Disney.sol\":1874:1879  owner */\n      0x01\n      0x00\n      swap1\n      sload\n      swap1\n      0x0100\n      exp\n      swap1\n      div\n      0xffffffffffffffffffffffffffffffffffffffff\n      and\n        /* \"DISNEY/Disney.sol\":1862:1879  _address == owner */\n      0xffffffffffffffffffffffffffffffffffffffff\n      and\n        /* \"DISNEY/Disney.sol\":1862:1870  _address */\n      dup2\n        /* \"DISNEY/Disney.sol\":1862:1879  _address == owner */\n      0xffffffffffffffffffffffffffffffffffffffff\n      and\n      eq\n        /* \"DISNEY/Disney.sol\":1841:1950  require(... */\n      tag_257\n      jumpi\n      mload(0x40)\n      0x08c379a000000000000000000000000000000000000000000000000000000000\n      dup2\n      mstore\n      0x04\n      add\n      tag_258\n      swap1\n      tag_155\n      jump\t// in\n    tag_258:\n      mload(0x40)\n      dup1\n      swap2\n      sub\n      swap1\n      revert\n    tag_257:\n        /* \"DISNEY/Disney.sol\":3932:3962  Atraction(_name, _price, true) */\n      mload(0x40)\n      dup1\n      0x60\n      add\n      0x40\n      mstore\n      dup1\n        /* \"DISNEY/Disney.sol\":3942:3947  _name */\n      dup5\n        /* \"DISNEY/Disney.sol\":3932:3962  Atraction(_name, _price, true) */\n      dup2\n      mstore\n      0x20\n      add\n        /* \"DISNEY/Disney.sol\":3949:3955  _price */\n      dup4\n        /* \"DISNEY/Disney.sol\":3932:3962  Atraction(_name, _price, true) */\n      dup2\n      mstore\n      0x20\n      add\n        /* \"DISNEY/Disney.sol\":3957:3961  true */\n      0x01\n        /* \"DISNEY/Disney.sol\":3932:3962  Atraction(_name, _price, true) */\n      iszero\n      iszero\n      dup2\n      mstore\n      pop\n        /* \"DISNEY/Disney.sol\":3905:3922  atractionsMapping */\n      0x03\n        /* \"DISNEY/Disney.sol\":3923:3928  _name */\n      dup5\n        /* \"DISNEY/Disney.sol\":3905:3929  atractionsMapping[_name] */\n      mload(0x40)\n      tag_260\n      swap2\n      swap1\n      tag_116\n      jump\t// in\n    tag_260:\n      swap1\n      dup2\n      mstore\n      0x20\n      add\n      mload(0x40)\n      dup1\n      swap2\n      sub\n      swap1\n      keccak256\n        /* \"DISNEY/Disney.sol\":3905:3962  atractionsMapping[_name] = Atraction(_name, _price, true) */\n      0x00\n      dup3\n      add\n      mload\n      dup2\n      0x00\n      add\n      swap1\n      dup2\n      tag_261\n      swap2\n      swap1\n      tag_133\n      jump\t// in\n    tag_261:\n      pop\n      0x20\n      dup3\n      add\n      mload\n      dup2\n      0x01\n      add\n      sstore\n      0x40\n      dup3\n      add\n      mload\n      dup2\n      0x02\n      add\n      exp(0x0100, 0x00)\n      dup2\n      sload\n      dup2\n      0xff\n      mul\n      not\n      and\n      swap1\n      dup4\n      iszero\n      iszero\n      mul\n      or\n      swap1\n      sstore\n      pop\n      swap1\n      pop\n      pop\n        /* \"DISNEY/Disney.sol\":3972:3982  atractions */\n      0x07\n        /* \"DISNEY/Disney.sol\":3988:3993  _name */\n      dup4\n        /* \"DISNEY/Disney.sol\":3972:3994  atractions.push(_name) */\n      swap1\n      dup1\n      0x01\n      dup2\n      sload\n      add\n      dup1\n      dup3\n      sstore\n      dup1\n      swap2\n      pop\n      pop\n      0x01\n      swap1\n      sub\n      swap1\n      0x00\n      mstore\n      keccak256(0x00, 0x20)\n      add\n      0x00\n      swap1\n      swap2\n      swap1\n      swap2\n      swap1\n      swap2\n      pop\n      swap1\n      dup2\n      tag_263\n      swap2\n      swap1\n      tag_133\n      jump\t// in\n    tag_263:\n      pop\n        /* \"DISNEY/Disney.sol\":4009:4041  newAtractionAdded(_name, _price) */\n      0xd93724e9e03a24a9a01d3658c3cdd1c2fd36ba110da59fc0aba9c73329328718\n        /* \"DISNEY/Disney.sol\":4027:4032  _name */\n      dup4\n        /* \"DISNEY/Disney.sol\":4034:4040  _price */\n      dup4\n        /* \"DISNEY/Disney.sol\":4009:4041  newAtractionAdded(_name, _price) */\n      mload(0x40)\n      tag_264\n      swap3\n      swap2\n      swap1\n      tag_182\n      jump\t// in\n    tag_264:\n      mload(0x40)\n      dup1\n      swap2\n      sub\n      swap1\n      log1\n        /* \"DISNEY/Disney.sol\":3789:4048  function newAtraction(string memory _name, uint256 _price)... */\n      pop\n      pop\n      pop\n      jump\t// out\n        /* \"DISNEY/Disney.sol\":1014:1056  mapping(string => Food) public menuMapping */\n    tag_102:\n      0x04\n      dup2\n      dup1\n      mload\n      0x20\n      dup2\n      add\n      dup3\n      add\n      dup1\n      mload\n      dup5\n      dup3\n      mstore\n      0x20\n      dup4\n      add\n      0x20\n      dup6\n      add\n      keccak256\n      dup2\n      dup4\n      mstore\n      dup1\n      swap6\n      pop\n      pop\n      pop\n      pop\n      pop\n      pop\n      0x00\n      swap2\n      pop\n      swap1\n      pop\n      dup1\n      0x00\n      add\n      dup1\n      sload\n      tag_265\n      swap1\n      tag_109\n      jump\t// in\n    tag_265:\n      dup1\n      0x1f\n      add\n      0x20\n      dup1\n      swap2\n      div\n      mul\n      0x20\n      add\n      mload(0x40)\n      swap1\n      dup2\n      add\n      0x40\n      mstore\n      dup1\n      swap3\n      swap2\n      swap1\n      dup2\n      dup2\n      mstore\n      0x20\n      add\n      dup3\n      dup1\n      sload\n      tag_266\n      swap1\n      tag_109\n      jump\t// in\n    tag_266:\n      dup1\n      iszero\n      tag_267\n      jumpi\n      dup1\n      0x1f\n      lt\n      tag_268\n      jumpi\n      0x0100\n      dup1\n      dup4\n      sload\n      div\n      mul\n      dup4\n      mstore\n      swap2\n      0x20\n      add\n      swap2\n      jump(tag_267)\n    tag_268:\n      dup3\n      add\n      swap2\n      swap1\n      0x00\n      mstore\n      keccak256(0x00, 0x20)\n      swap1\n    tag_269:\n      dup2\n      sload\n      dup2\n      mstore\n      swap1\n      0x01\n      add\n      swap1\n      0x20\n      add\n      dup1\n      dup4\n      gt\n      tag_269\n      jumpi\n      dup3\n      swap1\n      sub\n      0x1f\n      and\n      dup3\n      add\n      swap2\n    tag_267:\n      pop\n      pop\n      pop\n      pop\n      pop\n      swap1\n      dup1\n      0x01\n      add\n      sload\n      swap1\n      dup1\n      0x02\n      add\n      0x00\n      swap1\n      sload\n      swap1\n      0x0100\n      exp\n      swap1\n      div\n      0xff\n      and\n      swap1\n      pop\n      dup4\n      jump\t// out\n        /* \"DISNEY/Disney.sol\":2118:2236  function tokenPrice(uint256 _numTokens) internal pure returns (uint256) {... */\n    tag_149:\n        /* \"DISNEY/Disney.sol\":2181:2188  uint256 */\n      0x00\n        /* \"DISNEY/Disney.sol\":2221:2228  1 ether */\n      0x0de0b6b3a7640000\n        /* \"DISNEY/Disney.sol\":2207:2217  _numTokens */\n      dup3\n        /* \"DISNEY/Disney.sol\":2207:2229  _numTokens * (1 ether) */\n      tag_271\n      swap2\n      swap1\n      tag_272\n      jump\t// in\n    tag_271:\n        /* \"DISNEY/Disney.sol\":2200:2229  return _numTokens * (1 ether) */\n      swap1\n      pop\n        /* \"DISNEY/Disney.sol\":2118:2236  function tokenPrice(uint256 _numTokens) internal pure returns (uint256) {... */\n      swap2\n      swap1\n      pop\n      jump\t// out\n        /* \"#utility.yul\":7:131   */\n    tag_273:\n        /* \"#utility.yul\":84:90   */\n      0x00\n        /* \"#utility.yul\":118:123   */\n      dup2\n        /* \"#utility.yul\":112:124   */\n      mload\n        /* \"#utility.yul\":102:124   */\n      swap1\n      pop\n        /* \"#utility.yul\":7:131   */\n      swap2\n      swap1\n      pop\n      jump\t// out\n        /* \"#utility.yul\":137:331   */\n    tag_274:\n        /* \"#utility.yul\":246:257   */\n      0x00\n        /* \"#utility.yul\":280:286   */\n      dup3\n        /* \"#utility.yul\":275:278   */\n      dup3\n        /* \"#utility.yul\":268:287   */\n      mstore\n        /* \"#utility.yul\":320:324   */\n      0x20\n        /* \"#utility.yul\":315:318   */\n      dup3\n        /* \"#utility.yul\":311:325   */\n      add\n        /* \"#utility.yul\":296:325   */\n      swap1\n      pop\n        /* \"#utility.yul\":137:331   */\n      swap3\n      swap2\n      pop\n      pop\n      jump\t// out\n        /* \"#utility.yul\":337:479   */\n    tag_275:\n        /* \"#utility.yul\":414:418   */\n      0x00\n        /* \"#utility.yul\":437:440   */\n      dup2\n        /* \"#utility.yul\":429:440   */\n      swap1\n      pop\n        /* \"#utility.yul\":467:471   */\n      0x20\n        /* \"#utility.yul\":462:465   */\n      dup3\n        /* \"#utility.yul\":458:472   */\n      add\n        /* \"#utility.yul\":450:472   */\n      swap1\n      pop\n        /* \"#utility.yul\":337:479   */\n      swap2\n      swap1\n      pop\n      jump\t// out\n        /* \"#utility.yul\":485:584   */\n    tag_276:\n        /* \"#utility.yul\":537:543   */\n      0x00\n        /* \"#utility.yul\":571:576   */\n      dup2\n        /* \"#utility.yul\":565:577   */\n      mload\n        /* \"#utility.yul\":555:577   */\n      swap1\n      pop\n        /* \"#utility.yul\":485:584   */\n      swap2\n      swap1\n      pop\n      jump\t// out\n        /* \"#utility.yul\":590:749   */\n    tag_277:\n        /* \"#utility.yul\":664:675   */\n      0x00\n        /* \"#utility.yul\":698:704   */\n      dup3\n        /* \"#utility.yul\":693:696   */\n      dup3\n        /* \"#utility.yul\":686:705   */\n      mstore\n        /* \"#utility.yul\":738:742   */\n      0x20\n        /* \"#utility.yul\":733:736   */\n      dup3\n        /* \"#utility.yul\":729:743   */\n      add\n        /* \"#utility.yul\":714:743   */\n      swap1\n      pop\n        /* \"#utility.yul\":590:749   */\n      swap3\n      swap2\n      pop\n      pop\n      jump\t// out\n        /* \"#utility.yul\":755:1001   */\n    tag_278:\n        /* \"#utility.yul\":836:837   */\n      0x00\n        /* \"#utility.yul\":846:959   */\n    tag_358:\n        /* \"#utility.yul\":860:866   */\n      dup4\n        /* \"#utility.yul\":857:858   */\n      dup2\n        /* \"#utility.yul\":854:867   */\n      lt\n        /* \"#utility.yul\":846:959   */\n      iszero\n      tag_360\n      jumpi\n        /* \"#utility.yul\":945:946   */\n      dup1\n        /* \"#utility.yul\":940:943   */\n      dup3\n        /* \"#utility.yul\":936:947   */\n      add\n        /* \"#utility.yul\":930:948   */\n      mload\n        /* \"#utility.yul\":926:927   */\n      dup2\n        /* \"#utility.yul\":921:924   */\n      dup5\n        /* \"#utility.yul\":917:928   */\n      add\n        /* \"#utility.yul\":910:949   */\n      mstore\n        /* \"#utility.yul\":882:884   */\n      0x20\n        /* \"#utility.yul\":879:880   */\n      dup2\n        /* \"#utility.yul\":875:885   */\n      add\n        /* \"#utility.yul\":870:885   */\n      swap1\n      pop\n        /* \"#utility.yul\":846:959   */\n      jump(tag_358)\n    tag_360:\n        /* \"#utility.yul\":993:994   */\n      0x00\n        /* \"#utility.yul\":984:990   */\n      dup5\n        /* \"#utility.yul\":979:982   */\n      dup5\n        /* \"#utility.yul\":975:991   */\n      add\n        /* \"#utility.yul\":968:995   */\n      mstore\n        /* \"#utility.yul\":817:1001   */\n      pop\n        /* \"#utility.yul\":755:1001   */\n      pop\n      pop\n      pop\n      jump\t// out\n        /* \"#utility.yul\":1007:1109   */\n    tag_279:\n        /* \"#utility.yul\":1048:1054   */\n      0x00\n        /* \"#utility.yul\":1099:1101   */\n      0x1f\n        /* \"#utility.yul\":1095:1102   */\n      not\n        /* \"#utility.yul\":1090:1092   */\n      0x1f\n        /* \"#utility.yul\":1083:1088   */\n      dup4\n        /* \"#utility.yul\":1079:1093   */\n      add\n        /* \"#utility.yul\":1075:1103   */\n      and\n        /* \"#utility.yul\":1065:1103   */\n      swap1\n      pop\n        /* \"#utility.yul\":1007:1109   */\n      swap2\n      swap1\n      pop\n      jump\t// out\n        /* \"#utility.yul\":1115:1472   */\n    tag_280:\n        /* \"#utility.yul\":1193:1196   */\n      0x00\n        /* \"#utility.yul\":1221:1260   */\n      tag_363\n        /* \"#utility.yul\":1254:1259   */\n      dup3\n        /* \"#utility.yul\":1221:1260   */\n      tag_276\n      jump\t// in\n    tag_363:\n        /* \"#utility.yul\":1276:1337   */\n      tag_364\n        /* \"#utility.yul\":1330:1336   */\n      dup2\n        /* \"#utility.yul\":1325:1328   */\n      dup6\n        /* \"#utility.yul\":1276:1337   */\n      tag_277\n      jump\t// in\n    tag_364:\n        /* \"#utility.yul\":1269:1337   */\n      swap4\n      pop\n        /* \"#utility.yul\":1346:1411   */\n      tag_365\n        /* \"#utility.yul\":1404:1410   */\n      dup2\n        /* \"#utility.yul\":1399:1402   */\n      dup6\n        /* \"#utility.yul\":1392:1396   */\n      0x20\n        /* \"#utility.yul\":1385:1390   */\n      dup7\n        /* \"#utility.yul\":1381:1397   */\n      add\n        /* \"#utility.yul\":1346:1411   */\n      tag_278\n      jump\t// in\n    tag_365:\n        /* \"#utility.yul\":1436:1465   */\n      tag_366\n        /* \"#utility.yul\":1458:1464   */\n      dup2\n        /* \"#utility.yul\":1436:1465   */\n      tag_279\n      jump\t// in\n    tag_366:\n        /* \"#utility.yul\":1431:1434   */\n      dup5\n        /* \"#utility.yul\":1427:1466   */\n      add\n        /* \"#utility.yul\":1420:1466   */\n      swap2\n      pop\n        /* \"#utility.yul\":1197:1472   */\n      pop\n        /* \"#utility.yul\":1115:1472   */\n      swap3\n      swap2\n      pop\n      pop\n      jump\t// out\n        /* \"#utility.yul\":1478:1674   */\n    tag_281:\n        /* \"#utility.yul\":1567:1577   */\n      0x00\n        /* \"#utility.yul\":1602:1668   */\n      tag_368\n        /* \"#utility.yul\":1664:1667   */\n      dup4\n        /* \"#utility.yul\":1656:1662   */\n      dup4\n        /* \"#utility.yul\":1602:1668   */\n      tag_280\n      jump\t// in\n    tag_368:\n        /* \"#utility.yul\":1588:1668   */\n      swap1\n      pop\n        /* \"#utility.yul\":1478:1674   */\n      swap3\n      swap2\n      pop\n      pop\n      jump\t// out\n        /* \"#utility.yul\":1680:1803   */\n    tag_282:\n        /* \"#utility.yul\":1760:1764   */\n      0x00\n        /* \"#utility.yul\":1792:1796   */\n      0x20\n        /* \"#utility.yul\":1787:1790   */\n      dup3\n        /* \"#utility.yul\":1783:1797   */\n      add\n        /* \"#utility.yul\":1775:1797   */\n      swap1\n      pop\n        /* \"#utility.yul\":1680:1803   */\n      swap2\n      swap1\n      pop\n      jump\t// out\n        /* \"#utility.yul\":1837:2828   */\n    tag_283:\n        /* \"#utility.yul\":1976:1979   */\n      0x00\n        /* \"#utility.yul\":2005:2069   */\n      tag_371\n        /* \"#utility.yul\":2063:2068   */\n      dup3\n        /* \"#utility.yul\":2005:2069   */\n      tag_273\n      jump\t// in\n    tag_371:\n        /* \"#utility.yul\":2085:2181   */\n      tag_372\n        /* \"#utility.yul\":2174:2180   */\n      dup2\n        /* \"#utility.yul\":2169:2172   */\n      dup6\n        /* \"#utility.yul\":2085:2181   */\n      tag_274\n      jump\t// in\n    tag_372:\n        /* \"#utility.yul\":2078:2181   */\n      swap4\n      pop\n        /* \"#utility.yul\":2207:2210   */\n      dup4\n        /* \"#utility.yul\":2252:2256   */\n      0x20\n        /* \"#utility.yul\":2244:2250   */\n      dup3\n        /* \"#utility.yul\":2240:2257   */\n      mul\n        /* \"#utility.yul\":2235:2238   */\n      dup6\n        /* \"#utility.yul\":2231:2258   */\n      add\n        /* \"#utility.yul\":2282:2348   */\n      tag_373\n        /* \"#utility.yul\":2342:2347   */\n      dup6\n        /* \"#utility.yul\":2282:2348   */\n      tag_275\n      jump\t// in\n    tag_373:\n        /* \"#utility.yul\":2371:2378   */\n      dup1\n        /* \"#utility.yul\":2402:2403   */\n      0x00\n        /* \"#utility.yul\":2387:2783   */\n    tag_374:\n        /* \"#utility.yul\":2412:2418   */\n      dup6\n        /* \"#utility.yul\":2409:2410   */\n      dup2\n        /* \"#utility.yul\":2406:2419   */\n      lt\n        /* \"#utility.yul\":2387:2783   */\n      iszero\n      tag_376\n      jumpi\n        /* \"#utility.yul\":2483:2492   */\n      dup5\n        /* \"#utility.yul\":2477:2481   */\n      dup5\n        /* \"#utility.yul\":2473:2493   */\n      sub\n        /* \"#utility.yul\":2468:2471   */\n      dup10\n        /* \"#utility.yul\":2461:2494   */\n      mstore\n        /* \"#utility.yul\":2534:2540   */\n      dup2\n        /* \"#utility.yul\":2528:2541   */\n      mload\n        /* \"#utility.yul\":2562:2646   */\n      tag_377\n        /* \"#utility.yul\":2641:2645   */\n      dup6\n        /* \"#utility.yul\":2626:2639   */\n      dup3\n        /* \"#utility.yul\":2562:2646   */\n      tag_281\n      jump\t// in\n    tag_377:\n        /* \"#utility.yul\":2554:2646   */\n      swap5\n      pop\n        /* \"#utility.yul\":2669:2739   */\n      tag_378\n        /* \"#utility.yul\":2732:2738   */\n      dup4\n        /* \"#utility.yul\":2669:2739   */\n      tag_282\n      jump\t// in\n    tag_378:\n        /* \"#utility.yul\":2659:2739   */\n      swap3\n      pop\n        /* \"#utility.yul\":2768:2772   */\n      0x20\n        /* \"#utility.yul\":2763:2766   */\n      dup11\n        /* \"#utility.yul\":2759:2773   */\n      add\n        /* \"#utility.yul\":2752:2773   */\n      swap10\n      pop\n        /* \"#utility.yul\":2447:2783   */\n      pop\n        /* \"#utility.yul\":2434:2435   */\n      0x01\n        /* \"#utility.yul\":2431:2432   */\n      dup2\n        /* \"#utility.yul\":2427:2436   */\n      add\n        /* \"#utility.yul\":2422:2436   */\n      swap1\n      pop\n        /* \"#utility.yul\":2387:2783   */\n      jump(tag_374)\n    tag_376:\n        /* \"#utility.yul\":2391:2405   */\n      pop\n        /* \"#utility.yul\":2799:2803   */\n      dup3\n        /* \"#utility.yul\":2792:2803   */\n      swap8\n      pop\n        /* \"#utility.yul\":2819:2822   */\n      dup8\n        /* \"#utility.yul\":2812:2822   */\n      swap6\n      pop\n        /* \"#utility.yul\":1981:2828   */\n      pop\n      pop\n      pop\n      pop\n      pop\n        /* \"#utility.yul\":1837:2828   */\n      swap3\n      swap2\n      pop\n      pop\n      jump\t// out\n        /* \"#utility.yul\":2834:3247   */\n    tag_27:\n        /* \"#utility.yul\":2997:3001   */\n      0x00\n        /* \"#utility.yul\":3035:3037   */\n      0x20\n        /* \"#utility.yul\":3024:3033   */\n      dup3\n        /* \"#utility.yul\":3020:3038   */\n      add\n        /* \"#utility.yul\":3012:3038   */\n      swap1\n      pop\n        /* \"#utility.yul\":3084:3093   */\n      dup2\n        /* \"#utility.yul\":3078:3082   */\n      dup2\n        /* \"#utility.yul\":3074:3094   */\n      sub\n        /* \"#utility.yul\":3070:3071   */\n      0x00\n        /* \"#utility.yul\":3059:3068   */\n      dup4\n        /* \"#utility.yul\":3055:3072   */\n      add\n        /* \"#utility.yul\":3048:3095   */\n      mstore\n        /* \"#utility.yul\":3112:3240   */\n      tag_380\n        /* \"#utility.yul\":3235:3239   */\n      dup2\n        /* \"#utility.yul\":3226:3232   */\n      dup5\n        /* \"#utility.yul\":3112:3240   */\n      tag_283\n      jump\t// in\n    tag_380:\n        /* \"#utility.yul\":3104:3240   */\n      swap1\n      pop\n        /* \"#utility.yul\":2834:3247   */\n      swap3\n      swap2\n      pop\n      pop\n      jump\t// out\n        /* \"#utility.yul\":3253:3328   */\n    tag_284:\n        /* \"#utility.yul\":3286:3292   */\n      0x00\n        /* \"#utility.yul\":3319:3321   */\n      0x40\n        /* \"#utility.yul\":3313:3322   */\n      mload\n        /* \"#utility.yul\":3303:3322   */\n      swap1\n      pop\n        /* \"#utility.yul\":3253:3328   */\n      swap1\n      jump\t// out\n        /* \"#utility.yul\":3334:3451   */\n    tag_285:\n        /* \"#utility.yul\":3443:3444   */\n      0x00\n        /* \"#utility.yul\":3440:3441   */\n      dup1\n        /* \"#utility.yul\":3433:3445   */\n      revert\n        /* \"#utility.yul\":3457:3574   */\n    tag_286:\n        /* \"#utility.yul\":3566:3567   */\n      0x00\n        /* \"#utility.yul\":3563:3564   */\n      dup1\n        /* \"#utility.yul\":3556:3568   */\n      revert\n        /* \"#utility.yul\":3580:3697   */\n    tag_287:\n        /* \"#utility.yul\":3689:3690   */\n      0x00\n        /* \"#utility.yul\":3686:3687   */\n      dup1\n        /* \"#utility.yul\":3679:3691   */\n      revert\n        /* \"#utility.yul\":3703:3820   */\n    tag_288:\n        /* \"#utility.yul\":3812:3813   */\n      0x00\n        /* \"#utility.yul\":3809:3810   */\n      dup1\n        /* \"#utility.yul\":3802:3814   */\n      revert\n        /* \"#utility.yul\":3826:4006   */\n    tag_289:\n        /* \"#utility.yul\":3874:3951   */\n      0x4e487b7100000000000000000000000000000000000000000000000000000000\n        /* \"#utility.yul\":3871:3872   */\n      0x00\n        /* \"#utility.yul\":3864:3952   */\n      mstore\n        /* \"#utility.yul\":3971:3975   */\n      0x41\n        /* \"#utility.yul\":3968:3969   */\n      0x04\n        /* \"#utility.yul\":3961:3976   */\n      mstore\n        /* \"#utility.yul\":3995:3999   */\n      0x24\n        /* \"#utility.yul\":3992:3993   */\n      0x00\n        /* \"#utility.yul\":3985:4000   */\n      revert\n        /* \"#utility.yul\":4012:4293   */\n    tag_290:\n        /* \"#utility.yul\":4095:4122   */\n      tag_388\n        /* \"#utility.yul\":4117:4121   */\n      dup3\n        /* \"#utility.yul\":4095:4122   */\n      tag_279\n      jump\t// in\n    tag_388:\n        /* \"#utility.yul\":4087:4093   */\n      dup2\n        /* \"#utility.yul\":4083:4123   */\n      add\n        /* \"#utility.yul\":4225:4231   */\n      dup2\n        /* \"#utility.yul\":4213:4223   */\n      dup2\n        /* \"#utility.yul\":4210:4232   */\n      lt\n        /* \"#utility.yul\":4189:4207   */\n      0xffffffffffffffff\n        /* \"#utility.yul\":4177:4187   */\n      dup3\n        /* \"#utility.yul\":4174:4208   */\n      gt\n        /* \"#utility.yul\":4171:4233   */\n      or\n        /* \"#utility.yul\":4168:4256   */\n      iszero\n      tag_389\n      jumpi\n        /* \"#utility.yul\":4236:4254   */\n      tag_390\n      tag_289\n      jump\t// in\n    tag_390:\n        /* \"#utility.yul\":4168:4256   */\n    tag_389:\n        /* \"#utility.yul\":4276:4286   */\n      dup1\n        /* \"#utility.yul\":4272:4274   */\n      0x40\n        /* \"#utility.yul\":4265:4287   */\n      mstore\n        /* \"#utility.yul\":4055:4293   */\n      pop\n        /* \"#utility.yul\":4012:4293   */\n      pop\n      pop\n      jump\t// out\n        /* \"#utility.yul\":4299:4428   */\n    tag_291:\n        /* \"#utility.yul\":4333:4339   */\n      0x00\n        /* \"#utility.yul\":4360:4380   */\n      tag_392\n      tag_284\n      jump\t// in\n    tag_392:\n        /* \"#utility.yul\":4350:4380   */\n      swap1\n      pop\n        /* \"#utility.yul\":4389:4422   */\n      tag_393\n        /* \"#utility.yul\":4417:4421   */\n      dup3\n        /* \"#utility.yul\":4409:4415   */\n      dup3\n        /* \"#utility.yul\":4389:4422   */\n      tag_290\n      jump\t// in\n    tag_393:\n        /* \"#utility.yul\":4299:4428   */\n      swap2\n      swap1\n      pop\n      jump\t// out\n        /* \"#utility.yul\":4434:4742   */\n    tag_292:\n        /* \"#utility.yul\":4496:4500   */\n      0x00\n        /* \"#utility.yul\":4586:4604   */\n      0xffffffffffffffff\n        /* \"#utility.yul\":4578:4584   */\n      dup3\n        /* \"#utility.yul\":4575:4605   */\n      gt\n        /* \"#utility.yul\":4572:4628   */\n      iszero\n      tag_395\n      jumpi\n        /* \"#utility.yul\":4608:4626   */\n      tag_396\n      tag_289\n      jump\t// in\n    tag_396:\n        /* \"#utility.yul\":4572:4628   */\n    tag_395:\n        /* \"#utility.yul\":4646:4675   */\n      tag_397\n        /* \"#utility.yul\":4668:4674   */\n      dup3\n        /* \"#utility.yul\":4646:4675   */\n      tag_279\n      jump\t// in\n    tag_397:\n        /* \"#utility.yul\":4638:4675   */\n      swap1\n      pop\n        /* \"#utility.yul\":4730:4734   */\n      0x20\n        /* \"#utility.yul\":4724:4728   */\n      dup2\n        /* \"#utility.yul\":4720:4735   */\n      add\n        /* \"#utility.yul\":4712:4735   */\n      swap1\n      pop\n        /* \"#utility.yul\":4434:4742   */\n      swap2\n      swap1\n      pop\n      jump\t// out\n        /* \"#utility.yul\":4748:4894   */\n    tag_293:\n        /* \"#utility.yul\":4845:4851   */\n      dup3\n        /* \"#utility.yul\":4840:4843   */\n      dup2\n        /* \"#utility.yul\":4835:4838   */\n      dup4\n        /* \"#utility.yul\":4822:4852   */\n      calldatacopy\n        /* \"#utility.yul\":4886:4887   */\n      0x00\n        /* \"#utility.yul\":4877:4883   */\n      dup4\n        /* \"#utility.yul\":4872:4875   */\n      dup4\n        /* \"#utility.yul\":4868:4884   */\n      add\n        /* \"#utility.yul\":4861:4888   */\n      mstore\n        /* \"#utility.yul\":4748:4894   */\n      pop\n      pop\n      pop\n      jump\t// out\n        /* \"#utility.yul\":4900:5325   */\n    tag_294:\n        /* \"#utility.yul\":4978:4983   */\n      0x00\n        /* \"#utility.yul\":5003:5069   */\n      tag_400\n        /* \"#utility.yul\":5019:5068   */\n      tag_401\n        /* \"#utility.yul\":5061:5067   */\n      dup5\n        /* \"#utility.yul\":5019:5068   */\n      tag_292\n      jump\t// in\n    tag_401:\n        /* \"#utility.yul\":5003:5069   */\n      tag_291\n      jump\t// in\n    tag_400:\n        /* \"#utility.yul\":4994:5069   */\n      swap1\n      pop\n        /* \"#utility.yul\":5092:5098   */\n      dup3\n        /* \"#utility.yul\":5085:5090   */\n      dup2\n        /* \"#utility.yul\":5078:5099   */\n      mstore\n        /* \"#utility.yul\":5130:5134   */\n      0x20\n        /* \"#utility.yul\":5123:5128   */\n      dup2\n        /* \"#utility.yul\":5119:5135   */\n      add\n        /* \"#utility.yul\":5168:5171   */\n      dup5\n        /* \"#utility.yul\":5159:5165   */\n      dup5\n        /* \"#utility.yul\":5154:5157   */\n      dup5\n        /* \"#utility.yul\":5150:5166   */\n      add\n        /* \"#utility.yul\":5147:5172   */\n      gt\n        /* \"#utility.yul\":5144:5256   */\n      iszero\n      tag_402\n      jumpi\n        /* \"#utility.yul\":5175:5254   */\n      tag_403\n      tag_288\n      jump\t// in\n    tag_403:\n        /* \"#utility.yul\":5144:5256   */\n    tag_402:\n        /* \"#utility.yul\":5265:5319   */\n      tag_404\n        /* \"#utility.yul\":5312:5318   */\n      dup5\n        /* \"#utility.yul\":5307:5310   */\n      dup3\n        /* \"#utility.yul\":5302:5305   */\n      dup6\n        /* \"#utility.yul\":5265:5319   */\n      tag_293\n      jump\t// in\n    tag_404:\n        /* \"#utility.yul\":4984:5325   */\n      pop\n        /* \"#utility.yul\":4900:5325   */\n      swap4\n      swap3\n      pop\n      pop\n      pop\n      jump\t// out\n        /* \"#utility.yul\":5345:5685   */\n    tag_295:\n        /* \"#utility.yul\":5401:5406   */\n      0x00\n        /* \"#utility.yul\":5450:5453   */\n      dup3\n        /* \"#utility.yul\":5443:5447   */\n      0x1f\n        /* \"#utility.yul\":5435:5441   */\n      dup4\n        /* \"#utility.yul\":5431:5448   */\n      add\n        /* \"#utility.yul\":5427:5454   */\n      slt\n        /* \"#utility.yul\":5417:5539   */\n      tag_406\n      jumpi\n        /* \"#utility.yul\":5458:5537   */\n      tag_407\n      tag_287\n      jump\t// in\n    tag_407:\n        /* \"#utility.yul\":5417:5539   */\n    tag_406:\n        /* \"#utility.yul\":5575:5581   */\n      dup2\n        /* \"#utility.yul\":5562:5582   */\n      calldataload\n        /* \"#utility.yul\":5600:5679   */\n      tag_408\n        /* \"#utility.yul\":5675:5678   */\n      dup5\n        /* \"#utility.yul\":5667:5673   */\n      dup3\n        /* \"#utility.yul\":5660:5664   */\n      0x20\n        /* \"#utility.yul\":5652:5658   */\n      dup7\n        /* \"#utility.yul\":5648:5665   */\n      add\n        /* \"#utility.yul\":5600:5679   */\n      tag_294\n      jump\t// in\n    tag_408:\n        /* \"#utility.yul\":5591:5679   */\n      swap2\n      pop\n        /* \"#utility.yul\":5407:5685   */\n      pop\n        /* \"#utility.yul\":5345:5685   */\n      swap3\n      swap2\n      pop\n      pop\n      jump\t// out\n        /* \"#utility.yul\":5691:6200   */\n    tag_31:\n        /* \"#utility.yul\":5760:5766   */\n      0x00\n        /* \"#utility.yul\":5809:5811   */\n      0x20\n        /* \"#utility.yul\":5797:5806   */\n      dup3\n        /* \"#utility.yul\":5788:5795   */\n      dup5\n        /* \"#utility.yul\":5784:5807   */\n      sub\n        /* \"#utility.yul\":5780:5812   */\n      slt\n        /* \"#utility.yul\":5777:5896   */\n      iszero\n      tag_410\n      jumpi\n        /* \"#utility.yul\":5815:5894   */\n      tag_411\n      tag_285\n      jump\t// in\n    tag_411:\n        /* \"#utility.yul\":5777:5896   */\n    tag_410:\n        /* \"#utility.yul\":5963:5964   */\n      0x00\n        /* \"#utility.yul\":5952:5961   */\n      dup3\n        /* \"#utility.yul\":5948:5965   */\n      add\n        /* \"#utility.yul\":5935:5966   */\n      calldataload\n        /* \"#utility.yul\":5993:6011   */\n      0xffffffffffffffff\n        /* \"#utility.yul\":5985:5991   */\n      dup2\n        /* \"#utility.yul\":5982:6012   */\n      gt\n        /* \"#utility.yul\":5979:6096   */\n      iszero\n      tag_412\n      jumpi\n        /* \"#utility.yul\":6015:6094   */\n      tag_413\n      tag_286\n      jump\t// in\n    tag_413:\n        /* \"#utility.yul\":5979:6096   */\n    tag_412:\n        /* \"#utility.yul\":6120:6183   */\n      tag_414\n        /* \"#utility.yul\":6175:6182   */\n      dup5\n        /* \"#utility.yul\":6166:6172   */\n      dup3\n        /* \"#utility.yul\":6155:6164   */\n      dup6\n        /* \"#utility.yul\":6151:6173   */\n      add\n        /* \"#utility.yul\":6120:6183   */\n      tag_295\n      jump\t// in\n    tag_414:\n        /* \"#utility.yul\":6110:6183   */\n      swap2\n      pop\n        /* \"#utility.yul\":5906:6193   */\n      pop\n        /* \"#utility.yul\":5691:6200   */\n      swap3\n      swap2\n      pop\n      pop\n      jump\t// out\n        /* \"#utility.yul\":6206:6283   */\n    tag_296:\n        /* \"#utility.yul\":6243:6250   */\n      0x00\n        /* \"#utility.yul\":6272:6277   */\n      dup2\n        /* \"#utility.yul\":6261:6277   */\n      swap1\n      pop\n        /* \"#utility.yul\":6206:6283   */\n      swap2\n      swap1\n      pop\n      jump\t// out\n        /* \"#utility.yul\":6289:6411   */\n    tag_297:\n        /* \"#utility.yul\":6362:6386   */\n      tag_417\n        /* \"#utility.yul\":6380:6385   */\n      dup2\n        /* \"#utility.yul\":6362:6386   */\n      tag_296\n      jump\t// in\n    tag_417:\n        /* \"#utility.yul\":6355:6360   */\n      dup2\n        /* \"#utility.yul\":6352:6387   */\n      eq\n        /* \"#utility.yul\":6342:6405   */\n      tag_418\n      jumpi\n        /* \"#utility.yul\":6401:6402   */\n      0x00\n        /* \"#utility.yul\":6398:6399   */\n      dup1\n        /* \"#utility.yul\":6391:6403   */\n      revert\n        /* \"#utility.yul\":6342:6405   */\n    tag_418:\n        /* \"#utility.yul\":6289:6411   */\n      pop\n      jump\t// out\n        /* \"#utility.yul\":6417:6556   */\n    tag_298:\n        /* \"#utility.yul\":6463:6468   */\n      0x00\n        /* \"#utility.yul\":6501:6507   */\n      dup2\n        /* \"#utility.yul\":6488:6508   */\n      calldataload\n        /* \"#utility.yul\":6479:6508   */\n      swap1\n      pop\n        /* \"#utility.yul\":6517:6550   */\n      tag_420\n        /* \"#utility.yul\":6544:6549   */\n      dup2\n        /* \"#utility.yul\":6517:6550   */\n      tag_297\n      jump\t// in\n    tag_420:\n        /* \"#utility.yul\":6417:6556   */\n      swap3\n      swap2\n      pop\n      pop\n      jump\t// out\n        /* \"#utility.yul\":6562:6891   */\n    tag_35:\n        /* \"#utility.yul\":6621:6627   */\n      0x00\n        /* \"#utility.yul\":6670:6672   */\n      0x20\n        /* \"#utility.yul\":6658:6667   */\n      dup3\n        /* \"#utility.yul\":6649:6656   */\n      dup5\n        /* \"#utility.yul\":6645:6668   */\n      sub\n        /* \"#utility.yul\":6641:6673   */\n      slt\n        /* \"#utility.yul\":6638:6757   */\n      iszero\n      tag_422\n      jumpi\n        /* \"#utility.yul\":6676:6755   */\n      tag_423\n      tag_285\n      jump\t// in\n    tag_423:\n        /* \"#utility.yul\":6638:6757   */\n    tag_422:\n        /* \"#utility.yul\":6796:6797   */\n      0x00\n        /* \"#utility.yul\":6821:6874   */\n      tag_424\n        /* \"#utility.yul\":6866:6873   */\n      dup5\n        /* \"#utility.yul\":6857:6863   */\n      dup3\n        /* \"#utility.yul\":6846:6855   */\n      dup6\n        /* \"#utility.yul\":6842:6864   */\n      add\n        /* \"#utility.yul\":6821:6874   */\n      tag_298\n      jump\t// in\n    tag_424:\n        /* \"#utility.yul\":6811:6874   */\n      swap2\n      pop\n        /* \"#utility.yul\":6767:6884   */\n      pop\n        /* \"#utility.yul\":6562:6891   */\n      swap3\n      swap2\n      pop\n      pop\n      jump\t// out\n        /* \"#utility.yul\":6897:7023   */\n    tag_299:\n        /* \"#utility.yul\":6934:6941   */\n      0x00\n        /* \"#utility.yul\":6974:7016   */\n      0xffffffffffffffffffffffffffffffffffffffff\n        /* \"#utility.yul\":6967:6972   */\n      dup3\n        /* \"#utility.yul\":6963:7017   */\n      and\n        /* \"#utility.yul\":6952:7017   */\n      swap1\n      pop\n        /* \"#utility.yul\":6897:7023   */\n      swap2\n      swap1\n      pop\n      jump\t// out\n        /* \"#utility.yul\":7029:7125   */\n    tag_300:\n        /* \"#utility.yul\":7066:7073   */\n      0x00\n        /* \"#utility.yul\":7095:7119   */\n      tag_427\n        /* \"#utility.yul\":7113:7118   */\n      dup3\n        /* \"#utility.yul\":7095:7119   */\n      tag_299\n      jump\t// in\n    tag_427:\n        /* \"#utility.yul\":7084:7119   */\n      swap1\n      pop\n        /* \"#utility.yul\":7029:7125   */\n      swap2\n      swap1\n      pop\n      jump\t// out\n        /* \"#utility.yul\":7131:7253   */\n    tag_301:\n        /* \"#utility.yul\":7204:7228   */\n      tag_429\n        /* \"#utility.yul\":7222:7227   */\n      dup2\n        /* \"#utility.yul\":7204:7228   */\n      tag_300\n      jump\t// in\n    tag_429:\n        /* \"#utility.yul\":7197:7202   */\n      dup2\n        /* \"#utility.yul\":7194:7229   */\n      eq\n        /* \"#utility.yul\":7184:7247   */\n      tag_430\n      jumpi\n        /* \"#utility.yul\":7243:7244   */\n      0x00\n        /* \"#utility.yul\":7240:7241   */\n      dup1\n        /* \"#utility.yul\":7233:7245   */\n      revert\n        /* \"#utility.yul\":7184:7247   */\n    tag_430:\n        /* \"#utility.yul\":7131:7253   */\n      pop\n      jump\t// out\n        /* \"#utility.yul\":7259:7398   */\n    tag_302:\n        /* \"#utility.yul\":7305:7310   */\n      0x00\n        /* \"#utility.yul\":7343:7349   */\n      dup2\n        /* \"#utility.yul\":7330:7350   */\n      calldataload\n        /* \"#utility.yul\":7321:7350   */\n      swap1\n      pop\n        /* \"#utility.yul\":7359:7392   */\n      tag_432\n        /* \"#utility.yul\":7386:7391   */\n      dup2\n        /* \"#utility.yul\":7359:7392   */\n      tag_301\n      jump\t// in\n    tag_432:\n        /* \"#utility.yul\":7259:7398   */\n      swap3\n      swap2\n      pop\n      pop\n      jump\t// out\n        /* \"#utility.yul\":7404:7733   */\n    tag_44:\n        /* \"#utility.yul\":7463:7469   */\n      0x00\n        /* \"#utility.yul\":7512:7514   */\n      0x20\n        /* \"#utility.yul\":7500:7509   */\n      dup3\n        /* \"#utility.yul\":7491:7498   */\n      dup5\n        /* \"#utility.yul\":7487:7510   */\n      sub\n        /* \"#utility.yul\":7483:7515   */\n      slt\n        /* \"#utility.yul\":7480:7599   */\n      iszero\n      tag_434\n      jumpi\n        /* \"#utility.yul\":7518:7597   */\n      tag_435\n      tag_285\n      jump\t// in\n    tag_435:\n        /* \"#utility.yul\":7480:7599   */\n    tag_434:\n        /* \"#utility.yul\":7638:7639   */\n      0x00\n        /* \"#utility.yul\":7663:7716   */\n      tag_436\n        /* \"#utility.yul\":7708:7715   */\n      dup5\n        /* \"#utility.yul\":7699:7705   */\n      dup3\n        /* \"#utility.yul\":7688:7697   */\n      dup6\n        /* \"#utility.yul\":7684:7706   */\n      add\n        /* \"#utility.yul\":7663:7716   */\n      tag_302\n      jump\t// in\n    tag_436:\n        /* \"#utility.yul\":7653:7716   */\n      swap2\n      pop\n        /* \"#utility.yul\":7609:7726   */\n      pop\n        /* \"#utility.yul\":7404:7733   */\n      swap3\n      swap2\n      pop\n      pop\n      jump\t// out\n        /* \"#utility.yul\":7739:7857   */\n    tag_303:\n        /* \"#utility.yul\":7826:7850   */\n      tag_438\n        /* \"#utility.yul\":7844:7849   */\n      dup2\n        /* \"#utility.yul\":7826:7850   */\n      tag_296\n      jump\t// in\n    tag_438:\n        /* \"#utility.yul\":7821:7824   */\n      dup3\n        /* \"#utility.yul\":7814:7851   */\n      mstore\n        /* \"#utility.yul\":7739:7857   */\n      pop\n      pop\n      jump\t// out\n        /* \"#utility.yul\":7863:8085   */\n    tag_47:\n        /* \"#utility.yul\":7956:7960   */\n      0x00\n        /* \"#utility.yul\":7994:7996   */\n      0x20\n        /* \"#utility.yul\":7983:7992   */\n      dup3\n        /* \"#utility.yul\":7979:7997   */\n      add\n        /* \"#utility.yul\":7971:7997   */\n      swap1\n      pop\n        /* \"#utility.yul\":8007:8078   */\n      tag_440\n        /* \"#utility.yul\":8075:8076   */\n      0x00\n        /* \"#utility.yul\":8064:8073   */\n      dup4\n        /* \"#utility.yul\":8060:8077   */\n      add\n        /* \"#utility.yul\":8051:8057   */\n      dup5\n        /* \"#utility.yul\":8007:8078   */\n      tag_303\n      jump\t// in\n    tag_440:\n        /* \"#utility.yul\":7863:8085   */\n      swap3\n      swap2\n      pop\n      pop\n      jump\t// out\n        /* \"#utility.yul\":8091:8745   */\n    tag_59:\n        /* \"#utility.yul\":8169:8175   */\n      0x00\n        /* \"#utility.yul\":8177:8183   */\n      dup1\n        /* \"#utility.yul\":8226:8228   */\n      0x40\n        /* \"#utility.yul\":8214:8223   */\n      dup4\n        /* \"#utility.yul\":8205:8212   */\n      dup6\n        /* \"#utility.yul\":8201:8224   */\n      sub\n        /* \"#utility.yul\":8197:8229   */\n      slt\n        /* \"#utility.yul\":8194:8313   */\n      iszero\n      tag_442\n      jumpi\n        /* \"#utility.yul\":8232:8311   */\n      tag_443\n      tag_285\n      jump\t// in\n    tag_443:\n        /* \"#utility.yul\":8194:8313   */\n    tag_442:\n        /* \"#utility.yul\":8380:8381   */\n      0x00\n        /* \"#utility.yul\":8369:8378   */\n      dup4\n        /* \"#utility.yul\":8365:8382   */\n      add\n        /* \"#utility.yul\":8352:8383   */\n      calldataload\n        /* \"#utility.yul\":8410:8428   */\n      0xffffffffffffffff\n        /* \"#utility.yul\":8402:8408   */\n      dup2\n        /* \"#utility.yul\":8399:8429   */\n      gt\n        /* \"#utility.yul\":8396:8513   */\n      iszero\n      tag_444\n      jumpi\n        /* \"#utility.yul\":8432:8511   */\n      tag_445\n      tag_286\n      jump\t// in\n    tag_445:\n        /* \"#utility.yul\":8396:8513   */\n    tag_444:\n        /* \"#utility.yul\":8537:8600   */\n      tag_446\n        /* \"#utility.yul\":8592:8599   */\n      dup6\n        /* \"#utility.yul\":8583:8589   */\n      dup3\n        /* \"#utility.yul\":8572:8581   */\n      dup7\n        /* \"#utility.yul\":8568:8590   */\n      add\n        /* \"#utility.yul\":8537:8600   */\n      tag_295\n      jump\t// in\n    tag_446:\n        /* \"#utility.yul\":8527:8600   */\n      swap3\n      pop\n        /* \"#utility.yul\":8323:8610   */\n      pop\n        /* \"#utility.yul\":8649:8651   */\n      0x20\n        /* \"#utility.yul\":8675:8728   */\n      tag_447\n        /* \"#utility.yul\":8720:8727   */\n      dup6\n        /* \"#utility.yul\":8711:8717   */\n      dup3\n        /* \"#utility.yul\":8700:8709   */\n      dup7\n        /* \"#utility.yul\":8696:8718   */\n      add\n        /* \"#utility.yul\":8675:8728   */\n      tag_298\n      jump\t// in\n    tag_447:\n        /* \"#utility.yul\":8665:8728   */\n      swap2\n      pop\n        /* \"#utility.yul\":8620:8738   */\n      pop\n        /* \"#utility.yul\":8091:8745   */\n      swap3\n      pop\n      swap3\n      swap1\n      pop\n      jump\t// out\n        /* \"#utility.yul\":8751:8855   */\n    tag_304:\n        /* \"#utility.yul\":8796:8803   */\n      0x00\n        /* \"#utility.yul\":8825:8849   */\n      tag_449\n        /* \"#utility.yul\":8843:8848   */\n      dup3\n        /* \"#utility.yul\":8825:8849   */\n      tag_299\n      jump\t// in\n    tag_449:\n        /* \"#utility.yul\":8814:8849   */\n      swap1\n      pop\n        /* \"#utility.yul\":8751:8855   */\n      swap2\n      swap1\n      pop\n      jump\t// out\n        /* \"#utility.yul\":8861:9003   */\n    tag_305:\n        /* \"#utility.yul\":8964:8996   */\n      tag_451\n        /* \"#utility.yul\":8990:8995   */\n      dup2\n        /* \"#utility.yul\":8964:8996   */\n      tag_304\n      jump\t// in\n    tag_451:\n        /* \"#utility.yul\":8959:8962   */\n      dup3\n        /* \"#utility.yul\":8952:8997   */\n      mstore\n        /* \"#utility.yul\":8861:9003   */\n      pop\n      pop\n      jump\t// out\n        /* \"#utility.yul\":9009:9263   */\n    tag_69:\n        /* \"#utility.yul\":9118:9122   */\n      0x00\n        /* \"#utility.yul\":9156:9158   */\n      0x20\n        /* \"#utility.yul\":9145:9154   */\n      dup3\n        /* \"#utility.yul\":9141:9159   */\n      add\n        /* \"#utility.yul\":9133:9159   */\n      swap1\n      pop\n        /* \"#utility.yul\":9169:9256   */\n      tag_453\n        /* \"#utility.yul\":9253:9254   */\n      0x00\n        /* \"#utility.yul\":9242:9251   */\n      dup4\n        /* \"#utility.yul\":9238:9255   */\n      add\n        /* \"#utility.yul\":9229:9235   */\n      dup5\n        /* \"#utility.yul\":9169:9256   */\n      tag_305\n      jump\t// in\n    tag_453:\n        /* \"#utility.yul\":9009:9263   */\n      swap3\n      swap2\n      pop\n      pop\n      jump\t// out\n        /* \"#utility.yul\":9269:9438   */\n    tag_306:\n        /* \"#utility.yul\":9353:9364   */\n      0x00\n        /* \"#utility.yul\":9387:9393   */\n      dup3\n        /* \"#utility.yul\":9382:9385   */\n      dup3\n        /* \"#utility.yul\":9375:9394   */\n      mstore\n        /* \"#utility.yul\":9427:9431   */\n      0x20\n        /* \"#utility.yul\":9422:9425   */\n      dup3\n        /* \"#utility.yul\":9418:9432   */\n      add\n        /* \"#utility.yul\":9403:9432   */\n      swap1\n      pop\n        /* \"#utility.yul\":9269:9438   */\n      swap3\n      swap2\n      pop\n      pop\n      jump\t// out\n        /* \"#utility.yul\":9444:9821   */\n    tag_307:\n        /* \"#utility.yul\":9532:9535   */\n      0x00\n        /* \"#utility.yul\":9560:9599   */\n      tag_456\n        /* \"#utility.yul\":9593:9598   */\n      dup3\n        /* \"#utility.yul\":9560:9599   */\n      tag_276\n      jump\t// in\n    tag_456:\n        /* \"#utility.yul\":9615:9686   */\n      tag_457\n        /* \"#utility.yul\":9679:9685   */\n      dup2\n        /* \"#utility.yul\":9674:9677   */\n      dup6\n        /* \"#utility.yul\":9615:9686   */\n      tag_306\n      jump\t// in\n    tag_457:\n        /* \"#utility.yul\":9608:9686   */\n      swap4\n      pop\n        /* \"#utility.yul\":9695:9760   */\n      tag_458\n        /* \"#utility.yul\":9753:9759   */\n      dup2\n        /* \"#utility.yul\":9748:9751   */\n      dup6\n        /* \"#utility.yul\":9741:9745   */\n      0x20\n        /* \"#utility.yul\":9734:9739   */\n      dup7\n        /* \"#utility.yul\":9730:9746   */\n      add\n        /* \"#utility.yul\":9695:9760   */\n      tag_278\n      jump\t// in\n    tag_458:\n        /* \"#utility.yul\":9785:9814   */\n      tag_459\n        /* \"#utility.yul\":9807:9813   */\n      dup2\n        /* \"#utility.yul\":9785:9814   */\n      tag_279\n      jump\t// in\n    tag_459:\n        /* \"#utility.yul\":9780:9783   */\n      dup5\n        /* \"#utility.yul\":9776:9815   */\n      add\n        /* \"#utility.yul\":9769:9815   */\n      swap2\n      pop\n        /* \"#utility.yul\":9536:9821   */\n      pop\n        /* \"#utility.yul\":9444:9821   */\n      swap3\n      swap2\n      pop\n      pop\n      jump\t// out\n        /* \"#utility.yul\":9827:9917   */\n    tag_308:\n        /* \"#utility.yul\":9861:9868   */\n      0x00\n        /* \"#utility.yul\":9904:9909   */\n      dup2\n        /* \"#utility.yul\":9897:9910   */\n      iszero\n        /* \"#utility.yul\":9890:9911   */\n      iszero\n        /* \"#utility.yul\":9879:9911   */\n      swap1\n      pop\n        /* \"#utility.yul\":9827:9917   */\n      swap2\n      swap1\n      pop\n      jump\t// out\n        /* \"#utility.yul\":9923:10032   */\n    tag_309:\n        /* \"#utility.yul\":10004:10025   */\n      tag_462\n        /* \"#utility.yul\":10019:10024   */\n      dup2\n        /* \"#utility.yul\":10004:10025   */\n      tag_308\n      jump\t// in\n    tag_462:\n        /* \"#utility.yul\":9999:10002   */\n      dup3\n        /* \"#utility.yul\":9992:10026   */\n      mstore\n        /* \"#utility.yul\":9923:10032   */\n      pop\n      pop\n      jump\t// out\n        /* \"#utility.yul\":10038:10559   */\n    tag_83:\n        /* \"#utility.yul\":10201:10205   */\n      0x00\n        /* \"#utility.yul\":10239:10241   */\n      0x60\n        /* \"#utility.yul\":10228:10237   */\n      dup3\n        /* \"#utility.yul\":10224:10242   */\n      add\n        /* \"#utility.yul\":10216:10242   */\n      swap1\n      pop\n        /* \"#utility.yul\":10288:10297   */\n      dup2\n        /* \"#utility.yul\":10282:10286   */\n      dup2\n        /* \"#utility.yul\":10278:10298   */\n      sub\n        /* \"#utility.yul\":10274:10275   */\n      0x00\n        /* \"#utility.yul\":10263:10272   */\n      dup4\n        /* \"#utility.yul\":10259:10276   */\n      add\n        /* \"#utility.yul\":10252:10299   */\n      mstore\n        /* \"#utility.yul\":10316:10394   */\n      tag_464\n        /* \"#utility.yul\":10389:10393   */\n      dup2\n        /* \"#utility.yul\":10380:10386   */\n      dup7\n        /* \"#utility.yul\":10316:10394   */\n      tag_307\n      jump\t// in\n    tag_464:\n        /* \"#utility.yul\":10308:10394   */\n      swap1\n      pop\n        /* \"#utility.yul\":10404:10476   */\n      tag_465\n        /* \"#utility.yul\":10472:10474   */\n      0x20\n        /* \"#utility.yul\":10461:10470   */\n      dup4\n        /* \"#utility.yul\":10457:10475   */\n      add\n        /* \"#utility.yul\":10448:10454   */\n      dup6\n        /* \"#utility.yul\":10404:10476   */\n      tag_303\n      jump\t// in\n    tag_465:\n        /* \"#utility.yul\":10486:10552   */\n      tag_466\n        /* \"#utility.yul\":10548:10550   */\n      0x40\n        /* \"#utility.yul\":10537:10546   */\n      dup4\n        /* \"#utility.yul\":10533:10551   */\n      add\n        /* \"#utility.yul\":10524:10530   */\n      dup5\n        /* \"#utility.yul\":10486:10552   */\n      tag_309\n      jump\t// in\n    tag_466:\n        /* \"#utility.yul\":10038:10559   */\n      swap5\n      swap4\n      pop\n      pop\n      pop\n      pop\n      jump\t// out\n        /* \"#utility.yul\":10565:10745   */\n    tag_310:\n        /* \"#utility.yul\":10613:10690   */\n      0x4e487b7100000000000000000000000000000000000000000000000000000000\n        /* \"#utility.yul\":10610:10611   */\n      0x00\n        /* \"#utility.yul\":10603:10691   */\n      mstore\n        /* \"#utility.yul\":10710:10714   */\n      0x22\n        /* \"#utility.yul\":10707:10708   */\n      0x04\n        /* \"#utility.yul\":10700:10715   */\n      mstore\n        /* \"#utility.yul\":10734:10738   */\n      0x24\n        /* \"#utility.yul\":10731:10732   */\n      0x00\n        /* \"#utility.yul\":10724:10739   */\n      revert\n        /* \"#utility.yul\":10751:11071   */\n    tag_109:\n        /* \"#utility.yul\":10795:10801   */\n      0x00\n        /* \"#utility.yul\":10832:10833   */\n      0x02\n        /* \"#utility.yul\":10826:10830   */\n      dup3\n        /* \"#utility.yul\":10822:10834   */\n      div\n        /* \"#utility.yul\":10812:10834   */\n      swap1\n      pop\n        /* \"#utility.yul\":10879:10880   */\n      0x01\n        /* \"#utility.yul\":10873:10877   */\n      dup3\n        /* \"#utility.yul\":10869:10881   */\n      and\n        /* \"#utility.yul\":10900:10918   */\n      dup1\n        /* \"#utility.yul\":10890:10971   */\n      tag_469\n      jumpi\n        /* \"#utility.yul\":10956:10960   */\n      0x7f\n        /* \"#utility.yul\":10948:10954   */\n      dup3\n        /* \"#utility.yul\":10944:10961   */\n      and\n        /* \"#utility.yul\":10934:10961   */\n      swap2\n      pop\n        /* \"#utility.yul\":10890:10971   */\n    tag_469:\n        /* \"#utility.yul\":11018:11020   */\n      0x20\n        /* \"#utility.yul\":11010:11016   */\n      dup3\n        /* \"#utility.yul\":11007:11021   */\n      lt\n        /* \"#utility.yul\":10987:11005   */\n      dup2\n        /* \"#utility.yul\":10984:11022   */\n      sub\n        /* \"#utility.yul\":10981:11065   */\n      tag_470\n      jumpi\n        /* \"#utility.yul\":11037:11055   */\n      tag_471\n      tag_310\n      jump\t// in\n    tag_471:\n        /* \"#utility.yul\":10981:11065   */\n    tag_470:\n        /* \"#utility.yul\":10802:11071   */\n      pop\n        /* \"#utility.yul\":10751:11071   */\n      swap2\n      swap1\n      pop\n      jump\t// out\n        /* \"#utility.yul\":11077:11225   */\n    tag_311:\n        /* \"#utility.yul\":11179:11190   */\n      0x00\n        /* \"#utility.yul\":11216:11219   */\n      dup2\n        /* \"#utility.yul\":11201:11219   */\n      swap1\n      pop\n        /* \"#utility.yul\":11077:11225   */\n      swap3\n      swap2\n      pop\n      pop\n      jump\t// out\n        /* \"#utility.yul\":11231:11621   */\n    tag_312:\n        /* \"#utility.yul\":11337:11340   */\n      0x00\n        /* \"#utility.yul\":11365:11404   */\n      tag_474\n        /* \"#utility.yul\":11398:11403   */\n      dup3\n        /* \"#utility.yul\":11365:11404   */\n      tag_276\n      jump\t// in\n    tag_474:\n        /* \"#utility.yul\":11420:11509   */\n      tag_475\n        /* \"#utility.yul\":11502:11508   */\n      dup2\n        /* \"#utility.yul\":11497:11500   */\n      dup6\n        /* \"#utility.yul\":11420:11509   */\n      tag_311\n      jump\t// in\n    tag_475:\n        /* \"#utility.yul\":11413:11509   */\n      swap4\n      pop\n        /* \"#utility.yul\":11518:11583   */\n      tag_476\n        /* \"#utility.yul\":11576:11582   */\n      dup2\n        /* \"#utility.yul\":11571:11574   */\n      dup6\n        /* \"#utility.yul\":11564:11568   */\n      0x20\n        /* \"#utility.yul\":11557:11562   */\n      dup7\n        /* \"#utility.yul\":11553:11569   */\n      add\n        /* \"#utility.yul\":11518:11583   */\n      tag_278\n      jump\t// in\n    tag_476:\n        /* \"#utility.yul\":11608:11614   */\n      dup1\n        /* \"#utility.yul\":11603:11606   */\n      dup5\n        /* \"#utility.yul\":11599:11615   */\n      add\n        /* \"#utility.yul\":11592:11615   */\n      swap2\n      pop\n        /* \"#utility.yul\":11341:11621   */\n      pop\n        /* \"#utility.yul\":11231:11621   */\n      swap3\n      swap2\n      pop\n      pop\n      jump\t// out\n        /* \"#utility.yul\":11627:11902   */\n    tag_116:\n        /* \"#utility.yul\":11759:11762   */\n      0x00\n        /* \"#utility.yul\":11781:11876   */\n      tag_478\n        /* \"#utility.yul\":11872:11875   */\n      dup3\n        /* \"#utility.yul\":11863:11869   */\n      dup5\n        /* \"#utility.yul\":11781:11876   */\n      tag_312\n      jump\t// in\n    tag_478:\n        /* \"#utility.yul\":11774:11876   */\n      swap2\n      pop\n        /* \"#utility.yul\":11893:11896   */\n      dup2\n        /* \"#utility.yul\":11886:11896   */\n      swap1\n      pop\n        /* \"#utility.yul\":11627:11902   */\n      swap3\n      swap2\n      pop\n      pop\n      jump\t// out\n        /* \"#utility.yul\":11908:12145   */\n    tag_313:\n        /* \"#utility.yul\":12048:12082   */\n      0x4c6120617472616363696f6e206e6f206573746120646973706f6e69626c6520\n        /* \"#utility.yul\":12044:12045   */\n      0x00\n        /* \"#utility.yul\":12036:12042   */\n      dup3\n        /* \"#utility.yul\":12032:12046   */\n      add\n        /* \"#utility.yul\":12025:12083   */\n      mstore\n        /* \"#utility.yul\":12117:12137   */\n      0x656e206573746f73206d6f6d656e746f732e0000000000000000000000000000\n        /* \"#utility.yul\":12112:12114   */\n      0x20\n        /* \"#utility.yul\":12104:12110   */\n      dup3\n        /* \"#utility.yul\":12100:12115   */\n      add\n        /* \"#utility.yul\":12093:12138   */\n      mstore\n        /* \"#utility.yul\":11908:12145   */\n      pop\n      jump\t// out\n        /* \"#utility.yul\":12151:12517   */\n    tag_314:\n        /* \"#utility.yul\":12293:12296   */\n      0x00\n        /* \"#utility.yul\":12314:12381   */\n      tag_481\n        /* \"#utility.yul\":12378:12380   */\n      0x32\n        /* \"#utility.yul\":12373:12376   */\n      dup4\n        /* \"#utility.yul\":12314:12381   */\n      tag_306\n      jump\t// in\n    tag_481:\n        /* \"#utility.yul\":12307:12381   */\n      swap2\n      pop\n        /* \"#utility.yul\":12390:12483   */\n      tag_482\n        /* \"#utility.yul\":12479:12482   */\n      dup3\n        /* \"#utility.yul\":12390:12483   */\n      tag_313\n      jump\t// in\n    tag_482:\n        /* \"#utility.yul\":12508:12510   */\n      0x40\n        /* \"#utility.yul\":12503:12506   */\n      dup3\n        /* \"#utility.yul\":12499:12511   */\n      add\n        /* \"#utility.yul\":12492:12511   */\n      swap1\n      pop\n        /* \"#utility.yul\":12151:12517   */\n      swap2\n      swap1\n      pop\n      jump\t// out\n        /* \"#utility.yul\":12523:12942   */\n    tag_119:\n        /* \"#utility.yul\":12689:12693   */\n      0x00\n        /* \"#utility.yul\":12727:12729   */\n      0x20\n        /* \"#utility.yul\":12716:12725   */\n      dup3\n        /* \"#utility.yul\":12712:12730   */\n      add\n        /* \"#utility.yul\":12704:12730   */\n      swap1\n      pop\n        /* \"#utility.yul\":12776:12785   */\n      dup2\n        /* \"#utility.yul\":12770:12774   */\n      dup2\n        /* \"#utility.yul\":12766:12786   */\n      sub\n        /* \"#utility.yul\":12762:12763   */\n      0x00\n        /* \"#utility.yul\":12751:12760   */\n      dup4\n        /* \"#utility.yul\":12747:12764   */\n      add\n        /* \"#utility.yul\":12740:12787   */\n      mstore\n        /* \"#utility.yul\":12804:12935   */\n      tag_484\n        /* \"#utility.yul\":12930:12934   */\n      dup2\n        /* \"#utility.yul\":12804:12935   */\n      tag_314\n      jump\t// in\n    tag_484:\n        /* \"#utility.yul\":12796:12935   */\n      swap1\n      pop\n        /* \"#utility.yul\":12523:12942   */\n      swap2\n      swap1\n      pop\n      jump\t// out\n        /* \"#utility.yul\":12948:13186   */\n    tag_315:\n        /* \"#utility.yul\":13088:13122   */\n      0x4e6563657369746173206d617320746f6b656e73207061726120737562697274\n        /* \"#utility.yul\":13084:13085   */\n      0x00\n        /* \"#utility.yul\":13076:13082   */\n      dup3\n        /* \"#utility.yul\":13072:13086   */\n      add\n        /* \"#utility.yul\":13065:13123   */\n      mstore\n        /* \"#utility.yul\":13157:13178   */\n      0x652061206573746120617472616363696f6e2e00000000000000000000000000\n        /* \"#utility.yul\":13152:13154   */\n      0x20\n        /* \"#utility.yul\":13144:13150   */\n      dup3\n        /* \"#utility.yul\":13140:13155   */\n      add\n        /* \"#utility.yul\":13133:13179   */\n      mstore\n        /* \"#utility.yul\":12948:13186   */\n      pop\n      jump\t// out\n        /* \"#utility.yul\":13192:13558   */\n    tag_316:\n        /* \"#utility.yul\":13334:13337   */\n      0x00\n        /* \"#utility.yul\":13355:13422   */\n      tag_487\n        /* \"#utility.yul\":13419:13421   */\n      0x33\n        /* \"#utility.yul\":13414:13417   */\n      dup4\n        /* \"#utility.yul\":13355:13422   */\n      tag_306\n      jump\t// in\n    tag_487:\n        /* \"#utility.yul\":13348:13422   */\n      swap2\n      pop\n        /* \"#utility.yul\":13431:13524   */\n      tag_488\n        /* \"#utility.yul\":13520:13523   */\n      dup3\n        /* \"#utility.yul\":13431:13524   */\n      tag_315\n      jump\t// in\n    tag_488:\n        /* \"#utility.yul\":13549:13551   */\n      0x40\n        /* \"#utility.yul\":13544:13547   */\n      dup3\n        /* \"#utility.yul\":13540:13552   */\n      add\n        /* \"#utility.yul\":13533:13552   */\n      swap1\n      pop\n        /* \"#utility.yul\":13192:13558   */\n      swap2\n      swap1\n      pop\n      jump\t// out\n        /* \"#utility.yul\":13564:13983   */\n    tag_124:\n        /* \"#utility.yul\":13730:13734   */\n      0x00\n        /* \"#utility.yul\":13768:13770   */\n      0x20\n        /* \"#utility.yul\":13757:13766   */\n      dup3\n        /* \"#utility.yul\":13753:13771   */\n      add\n        /* \"#utility.yul\":13745:13771   */\n      swap1\n      pop\n        /* \"#utility.yul\":13817:13826   */\n      dup2\n        /* \"#utility.yul\":13811:13815   */\n      dup2\n        /* \"#utility.yul\":13807:13827   */\n      sub\n        /* \"#utility.yul\":13803:13804   */\n      0x00\n        /* \"#utility.yul\":13792:13801   */\n      dup4\n        /* \"#utility.yul\":13788:13805   */\n      add\n        /* \"#utility.yul\":13781:13828   */\n      mstore\n        /* \"#utility.yul\":13845:13976   */\n      tag_490\n        /* \"#utility.yul\":13971:13975   */\n      dup2\n        /* \"#utility.yul\":13845:13976   */\n      tag_316\n      jump\t// in\n    tag_490:\n        /* \"#utility.yul\":13837:13976   */\n      swap1\n      pop\n        /* \"#utility.yul\":13564:13983   */\n      swap2\n      swap1\n      pop\n      jump\t// out\n        /* \"#utility.yul\":13989:14107   */\n    tag_317:\n        /* \"#utility.yul\":14076:14100   */\n      tag_492\n        /* \"#utility.yul\":14094:14099   */\n      dup2\n        /* \"#utility.yul\":14076:14100   */\n      tag_300\n      jump\t// in\n    tag_492:\n        /* \"#utility.yul\":14071:14074   */\n      dup3\n        /* \"#utility.yul\":14064:14101   */\n      mstore\n        /* \"#utility.yul\":13989:14107   */\n      pop\n      pop\n      jump\t// out\n        /* \"#utility.yul\":14113:14555   */\n    tag_126:\n        /* \"#utility.yul\":14262:14266   */\n      0x00\n        /* \"#utility.yul\":14300:14302   */\n      0x60\n        /* \"#utility.yul\":14289:14298   */\n      dup3\n        /* \"#utility.yul\":14285:14303   */\n      add\n        /* \"#utility.yul\":14277:14303   */\n      swap1\n      pop\n        /* \"#utility.yul\":14313:14384   */\n      tag_494\n        /* \"#utility.yul\":14381:14382   */\n      0x00\n        /* \"#utility.yul\":14370:14379   */\n      dup4\n        /* \"#utility.yul\":14366:14383   */\n      add\n        /* \"#utility.yul\":14357:14363   */\n      dup7\n        /* \"#utility.yul\":14313:14384   */\n      tag_317\n      jump\t// in\n    tag_494:\n        /* \"#utility.yul\":14394:14466   */\n      tag_495\n        /* \"#utility.yul\":14462:14464   */\n      0x20\n        /* \"#utility.yul\":14451:14460   */\n      dup4\n        /* \"#utility.yul\":14447:14465   */\n      add\n        /* \"#utility.yul\":14438:14444   */\n      dup6\n        /* \"#utility.yul\":14394:14466   */\n      tag_317\n      jump\t// in\n    tag_495:\n        /* \"#utility.yul\":14476:14548   */\n      tag_496\n        /* \"#utility.yul\":14544:14546   */\n      0x40\n        /* \"#utility.yul\":14533:14542   */\n      dup4\n        /* \"#utility.yul\":14529:14547   */\n      add\n        /* \"#utility.yul\":14520:14526   */\n      dup5\n        /* \"#utility.yul\":14476:14548   */\n      tag_303\n      jump\t// in\n    tag_496:\n        /* \"#utility.yul\":14113:14555   */\n      swap5\n      swap4\n      pop\n      pop\n      pop\n      pop\n      jump\t// out\n        /* \"#utility.yul\":14561:14677   */\n    tag_318:\n        /* \"#utility.yul\":14631:14652   */\n      tag_498\n        /* \"#utility.yul\":14646:14651   */\n      dup2\n        /* \"#utility.yul\":14631:14652   */\n      tag_308\n      jump\t// in\n    tag_498:\n        /* \"#utility.yul\":14624:14629   */\n      dup2\n        /* \"#utility.yul\":14621:14653   */\n      eq\n        /* \"#utility.yul\":14611:14671   */\n      tag_499\n      jumpi\n        /* \"#utility.yul\":14667:14668   */\n      0x00\n        /* \"#utility.yul\":14664:14665   */\n      dup1\n        /* \"#utility.yul\":14657:14669   */\n      revert\n        /* \"#utility.yul\":14611:14671   */\n    tag_499:\n        /* \"#utility.yul\":14561:14677   */\n      pop\n      jump\t// out\n        /* \"#utility.yul\":14683:14820   */\n    tag_319:\n        /* \"#utility.yul\":14737:14742   */\n      0x00\n        /* \"#utility.yul\":14768:14774   */\n      dup2\n        /* \"#utility.yul\":14762:14775   */\n      mload\n        /* \"#utility.yul\":14753:14775   */\n      swap1\n      pop\n        /* \"#utility.yul\":14784:14814   */\n      tag_501\n        /* \"#utility.yul\":14808:14813   */\n      dup2\n        /* \"#utility.yul\":14784:14814   */\n      tag_318\n      jump\t// in\n    tag_501:\n        /* \"#utility.yul\":14683:14820   */\n      swap3\n      swap2\n      pop\n      pop\n      jump\t// out\n        /* \"#utility.yul\":14826:15171   */\n    tag_130:\n        /* \"#utility.yul\":14893:14899   */\n      0x00\n        /* \"#utility.yul\":14942:14944   */\n      0x20\n        /* \"#utility.yul\":14930:14939   */\n      dup3\n        /* \"#utility.yul\":14921:14928   */\n      dup5\n        /* \"#utility.yul\":14917:14940   */\n      sub\n        /* \"#utility.yul\":14913:14945   */\n      slt\n        /* \"#utility.yul\":14910:15029   */\n      iszero\n      tag_503\n      jumpi\n        /* \"#utility.yul\":14948:15027   */\n      tag_504\n      tag_285\n      jump\t// in\n    tag_504:\n        /* \"#utility.yul\":14910:15029   */\n    tag_503:\n        /* \"#utility.yul\":15068:15069   */\n      0x00\n        /* \"#utility.yul\":15093:15154   */\n      tag_505\n        /* \"#utility.yul\":15146:15153   */\n      dup5\n        /* \"#utility.yul\":15137:15143   */\n      dup3\n        /* \"#utility.yul\":15126:15135   */\n      dup6\n        /* \"#utility.yul\":15122:15144   */\n      add\n        /* \"#utility.yul\":15093:15154   */\n      tag_319\n      jump\t// in\n    tag_505:\n        /* \"#utility.yul\":15083:15154   */\n      swap2\n      pop\n        /* \"#utility.yul\":15039:15164   */\n      pop\n        /* \"#utility.yul\":14826:15171   */\n      swap3\n      swap2\n      pop\n      pop\n      jump\t// out\n        /* \"#utility.yul\":15177:15318   */\n    tag_320:\n        /* \"#utility.yul\":15226:15230   */\n      0x00\n        /* \"#utility.yul\":15249:15252   */\n      dup2\n        /* \"#utility.yul\":15241:15252   */\n      swap1\n      pop\n        /* \"#utility.yul\":15272:15275   */\n      dup2\n        /* \"#utility.yul\":15269:15270   */\n      0x00\n        /* \"#utility.yul\":15262:15276   */\n      mstore\n        /* \"#utility.yul\":15306:15310   */\n      0x20\n        /* \"#utility.yul\":15303:15304   */\n      0x00\n        /* \"#utility.yul\":15293:15311   */\n      keccak256\n        /* \"#utility.yul\":15285:15311   */\n      swap1\n      pop\n        /* \"#utility.yul\":15177:15318   */\n      swap2\n      swap1\n      pop\n      jump\t// out\n        /* \"#utility.yul\":15324:15417   */\n    tag_321:\n        /* \"#utility.yul\":15361:15367   */\n      0x00\n        /* \"#utility.yul\":15408:15410   */\n      0x20\n        /* \"#utility.yul\":15403:15405   */\n      0x1f\n        /* \"#utility.yul\":15396:15401   */\n      dup4\n        /* \"#utility.yul\":15392:15406   */\n      add\n        /* \"#utility.yul\":15388:15411   */\n      div\n        /* \"#utility.yul\":15378:15411   */\n      swap1\n      pop\n        /* \"#utility.yul\":15324:15417   */\n      swap2\n      swap1\n      pop\n      jump\t// out\n        /* \"#utility.yul\":15423:15530   */\n    tag_322:\n        /* \"#utility.yul\":15467:15475   */\n      0x00\n        /* \"#utility.yul\":15517:15522   */\n      dup3\n        /* \"#utility.yul\":15511:15515   */\n      dup3\n        /* \"#utility.yul\":15507:15523   */\n      shl\n        /* \"#utility.yul\":15486:15523   */\n      swap1\n      pop\n        /* \"#utility.yul\":15423:15530   */\n      swap3\n      swap2\n      pop\n      pop\n      jump\t// out\n        /* \"#utility.yul\":15536:15929   */\n    tag_323:\n        /* \"#utility.yul\":15605:15611   */\n      0x00\n        /* \"#utility.yul\":15655:15656   */\n      0x08\n        /* \"#utility.yul\":15643:15653   */\n      dup4\n        /* \"#utility.yul\":15639:15657   */\n      mul\n        /* \"#utility.yul\":15678:15775   */\n      tag_510\n        /* \"#utility.yul\":15708:15774   */\n      0xffffffffffffffffffffffffffffffffffffffffffffffffffffffffffffffff\n        /* \"#utility.yul\":15697:15706   */\n      dup3\n        /* \"#utility.yul\":15678:15775   */\n      tag_322\n      jump\t// in\n    tag_510:\n        /* \"#utility.yul\":15796:15835   */\n      tag_511\n        /* \"#utility.yul\":15826:15834   */\n      dup7\n        /* \"#utility.yul\":15815:15824   */\n      dup4\n        /* \"#utility.yul\":15796:15835   */\n      tag_322\n      jump\t// in\n    tag_511:\n        /* \"#utility.yul\":15784:15835   */\n      swap6\n      pop\n        /* \"#utility.yul\":15868:15872   */\n      dup1\n        /* \"#utility.yul\":15864:15873   */\n      not\n        /* \"#utility.yul\":15857:15862   */\n      dup5\n        /* \"#utility.yul\":15853:15874   */\n      and\n        /* \"#utility.yul\":15844:15874   */\n      swap4\n      pop\n        /* \"#utility.yul\":15917:15921   */\n      dup1\n        /* \"#utility.yul\":15907:15915   */\n      dup7\n        /* \"#utility.yul\":15903:15922   */\n      and\n        /* \"#utility.yul\":15896:15901   */\n      dup5\n        /* \"#utility.yul\":15893:15923   */\n      or\n        /* \"#utility.yul\":15883:15923   */\n      swap3\n      pop\n        /* \"#utility.yul\":15612:15929   */\n      pop\n      pop\n        /* \"#utility.yul\":15536:15929   */\n      swap4\n      swap3\n      pop\n      pop\n      pop\n      jump\t// out\n        /* \"#utility.yul\":15935:15995   */\n    tag_324:\n        /* \"#utility.yul\":15963:15966   */\n      0x00\n        /* \"#utility.yul\":15984:15989   */\n      dup2\n        /* \"#utility.yul\":15977:15989   */\n      swap1\n      pop\n        /* \"#utility.yul\":15935:15995   */\n      swap2\n      swap1\n      pop\n      jump\t// out\n        /* \"#utility.yul\":16001:16143   */\n    tag_325:\n        /* \"#utility.yul\":16051:16060   */\n      0x00\n        /* \"#utility.yul\":16084:16137   */\n      tag_514\n        /* \"#utility.yul\":16102:16136   */\n      tag_515\n        /* \"#utility.yul\":16111:16135   */\n      tag_516\n        /* \"#utility.yul\":16129:16134   */\n      dup5\n        /* \"#utility.yul\":16111:16135   */\n      tag_296\n      jump\t// in\n    tag_516:\n        /* \"#utility.yul\":16102:16136   */\n      tag_324\n      jump\t// in\n    tag_515:\n        /* \"#utility.yul\":16084:16137   */\n      tag_296\n      jump\t// in\n    tag_514:\n        /* \"#utility.yul\":16071:16137   */\n      swap1\n      pop\n        /* \"#utility.yul\":16001:16143   */\n      swap2\n      swap1\n      pop\n      jump\t// out\n        /* \"#utility.yul\":16149:16224   */\n    tag_326:\n        /* \"#utility.yul\":16192:16195   */\n      0x00\n        /* \"#utility.yul\":16213:16218   */\n      dup2\n        /* \"#utility.yul\":16206:16218   */\n      swap1\n      pop\n        /* \"#utility.yul\":16149:16224   */\n      swap2\n      swap1\n      pop\n      jump\t// out\n        /* \"#utility.yul\":16230:16499   */\n    tag_327:\n        /* \"#utility.yul\":16340:16379   */\n      tag_519\n        /* \"#utility.yul\":16371:16378   */\n      dup4\n        /* \"#utility.yul\":16340:16379   */\n      tag_325\n      jump\t// in\n    tag_519:\n        /* \"#utility.yul\":16401:16492   */\n      tag_520\n        /* \"#utility.yul\":16450:16491   */\n      tag_521\n        /* \"#utility.yul\":16474:16490   */\n      dup3\n        /* \"#utility.yul\":16450:16491   */\n      tag_326\n      jump\t// in\n    tag_521:\n        /* \"#utility.yul\":16442:16448   */\n      dup5\n        /* \"#utility.yul\":16435:16439   */\n      dup5\n        /* \"#utility.yul\":16429:16440   */\n      sload\n        /* \"#utility.yul\":16401:16492   */\n      tag_323\n      jump\t// in\n    tag_520:\n        /* \"#utility.yul\":16395:16399   */\n      dup3\n        /* \"#utility.yul\":16388:16493   */\n      sstore\n        /* \"#utility.yul\":16306:16499   */\n      pop\n        /* \"#utility.yul\":16230:16499   */\n      pop\n      pop\n      pop\n      jump\t// out\n        /* \"#utility.yul\":16505:16578   */\n    tag_328:\n        /* \"#utility.yul\":16550:16553   */\n      0x00\n        /* \"#utility.yul\":16505:16578   */\n      swap1\n      jump\t// out\n        /* \"#utility.yul\":16584:16773   */\n    tag_329:\n        /* \"#utility.yul\":16661:16693   */\n      tag_524\n      tag_328\n      jump\t// in\n    tag_524:\n        /* \"#utility.yul\":16702:16767   */\n      tag_525\n        /* \"#utility.yul\":16760:16766   */\n      dup2\n        /* \"#utility.yul\":16752:16758   */\n      dup5\n        /* \"#utility.yul\":16746:16750   */\n      dup5\n        /* \"#utility.yul\":16702:16767   */\n      tag_327\n      jump\t// in\n    tag_525:\n        /* \"#utility.yul\":16637:16773   */\n      pop\n        /* \"#utility.yul\":16584:16773   */\n      pop\n      pop\n      jump\t// out\n        /* \"#utility.yul\":16779:16965   */\n    tag_330:\n        /* \"#utility.yul\":16839:16959   */\n    tag_527:\n        /* \"#utility.yul\":16856:16859   */\n      dup2\n        /* \"#utility.yul\":16849:16854   */\n      dup2\n        /* \"#utility.yul\":16846:16860   */\n      lt\n        /* \"#utility.yul\":16839:16959   */\n      iszero\n      tag_529\n      jumpi\n        /* \"#utility.yul\":16910:16949   */\n      tag_530\n        /* \"#utility.yul\":16947:16948   */\n      0x00\n        /* \"#utility.yul\":16940:16945   */\n      dup3\n        /* \"#utility.yul\":16910:16949   */\n      tag_329\n      jump\t// in\n    tag_530:\n        /* \"#utility.yul\":16883:16884   */\n      0x01\n        /* \"#utility.yul\":16876:16881   */\n      dup2\n        /* \"#utility.yul\":16872:16885   */\n      add\n        /* \"#utility.yul\":16863:16885   */\n      swap1\n      pop\n        /* \"#utility.yul\":16839:16959   */\n      jump(tag_527)\n    tag_529:\n        /* \"#utility.yul\":16779:16965   */\n      pop\n      pop\n      jump\t// out\n        /* \"#utility.yul\":16971:17514   */\n    tag_331:\n        /* \"#utility.yul\":17072:17074   */\n      0x1f\n        /* \"#utility.yul\":17067:17070   */\n      dup3\n        /* \"#utility.yul\":17064:17075   */\n      gt\n        /* \"#utility.yul\":17061:17507   */\n      iszero\n      tag_532\n      jumpi\n        /* \"#utility.yul\":17106:17144   */\n      tag_533\n        /* \"#utility.yul\":17138:17143   */\n      dup2\n        /* \"#utility.yul\":17106:17144   */\n      tag_320\n      jump\t// in\n    tag_533:\n        /* \"#utility.yul\":17190:17219   */\n      tag_534\n        /* \"#utility.yul\":17208:17218   */\n      dup5\n        /* \"#utility.yul\":17190:17219   */\n      tag_321\n      jump\t// in\n    tag_534:\n        /* \"#utility.yul\":17180:17188   */\n      dup2\n        /* \"#utility.yul\":17176:17220   */\n      add\n        /* \"#utility.yul\":17373:17375   */\n      0x20\n        /* \"#utility.yul\":17361:17371   */\n      dup6\n        /* \"#utility.yul\":17358:17376   */\n      lt\n        /* \"#utility.yul\":17355:17404   */\n      iszero\n      tag_535\n      jumpi\n        /* \"#utility.yul\":17394:17402   */\n      dup2\n        /* \"#utility.yul\":17379:17402   */\n      swap1\n      pop\n        /* \"#utility.yul\":17355:17404   */\n    tag_535:\n        /* \"#utility.yul\":17417:17497   */\n      tag_536\n        /* \"#utility.yul\":17473:17495   */\n      tag_537\n        /* \"#utility.yul\":17491:17494   */\n      dup6\n        /* \"#utility.yul\":17473:17495   */\n      tag_321\n      jump\t// in\n    tag_537:\n        /* \"#utility.yul\":17463:17471   */\n      dup4\n        /* \"#utility.yul\":17459:17496   */\n      add\n        /* \"#utility.yul\":17446:17457   */\n      dup3\n        /* \"#utility.yul\":17417:17497   */\n      tag_330\n      jump\t// in\n    tag_536:\n        /* \"#utility.yul\":17076:17507   */\n      pop\n      pop\n        /* \"#utility.yul\":17061:17507   */\n    tag_532:\n        /* \"#utility.yul\":16971:17514   */\n      pop\n      pop\n      pop\n      jump\t// out\n        /* \"#utility.yul\":17520:17637   */\n    tag_332:\n        /* \"#utility.yul\":17574:17582   */\n      0x00\n        /* \"#utility.yul\":17624:17629   */\n      dup3\n        /* \"#utility.yul\":17618:17622   */\n      dup3\n        /* \"#utility.yul\":17614:17630   */\n      shr\n        /* \"#utility.yul\":17593:17630   */\n      swap1\n      pop\n        /* \"#utility.yul\":17520:17637   */\n      swap3\n      swap2\n      pop\n      pop\n      jump\t// out\n        /* \"#utility.yul\":17643:17812   */\n    tag_333:\n        /* \"#utility.yul\":17687:17693   */\n      0x00\n        /* \"#utility.yul\":17720:17771   */\n      tag_540\n        /* \"#utility.yul\":17768:17769   */\n      0x00\n        /* \"#utility.yul\":17764:17770   */\n      not\n        /* \"#utility.yul\":17756:17761   */\n      dup5\n        /* \"#utility.yul\":17753:17754   */\n      0x08\n        /* \"#utility.yul\":17749:17762   */\n      mul\n        /* \"#utility.yul\":17720:17771   */\n      tag_332\n      jump\t// in\n    tag_540:\n        /* \"#utility.yul\":17716:17772   */\n      not\n        /* \"#utility.yul\":17801:17805   */\n      dup1\n        /* \"#utility.yul\":17795:17799   */\n      dup4\n        /* \"#utility.yul\":17791:17806   */\n      and\n        /* \"#utility.yul\":17781:17806   */\n      swap2\n      pop\n        /* \"#utility.yul\":17694:17812   */\n      pop\n        /* \"#utility.yul\":17643:17812   */\n      swap3\n      swap2\n      pop\n      pop\n      jump\t// out\n        /* \"#utility.yul\":17817:18112   */\n    tag_334:\n        /* \"#utility.yul\":17893:17897   */\n      0x00\n        /* \"#utility.yul\":18039:18068   */\n      tag_542\n        /* \"#utility.yul\":18064:18067   */\n      dup4\n        /* \"#utility.yul\":18058:18062   */\n      dup4\n        /* \"#utility.yul\":18039:18068   */\n      tag_333\n      jump\t// in\n    tag_542:\n        /* \"#utility.yul\":18031:18068   */\n      swap2\n      pop\n        /* \"#utility.yul\":18101:18104   */\n      dup3\n        /* \"#utility.yul\":18098:18099   */\n      0x02\n        /* \"#utility.yul\":18094:18105   */\n      mul\n        /* \"#utility.yul\":18088:18092   */\n      dup3\n        /* \"#utility.yul\":18085:18106   */\n      or\n        /* \"#utility.yul\":18077:18106   */\n      swap1\n      pop\n        /* \"#utility.yul\":17817:18112   */\n      swap3\n      swap2\n      pop\n      pop\n      jump\t// out\n        /* \"#utility.yul\":18117:19512   */\n    tag_133:\n        /* \"#utility.yul\":18234:18271   */\n      tag_544\n        /* \"#utility.yul\":18267:18270   */\n      dup3\n        /* \"#utility.yul\":18234:18271   */\n      tag_276\n      jump\t// in\n    tag_544:\n        /* \"#utility.yul\":18336:18354   */\n      0xffffffffffffffff\n        /* \"#utility.yul\":18328:18334   */\n      dup2\n        /* \"#utility.yul\":18325:18355   */\n      gt\n        /* \"#utility.yul\":18322:18378   */\n      iszero\n      tag_545\n      jumpi\n        /* \"#utility.yul\":18358:18376   */\n      tag_546\n      tag_289\n      jump\t// in\n    tag_546:\n        /* \"#utility.yul\":18322:18378   */\n    tag_545:\n        /* \"#utility.yul\":18402:18440   */\n      tag_547\n        /* \"#utility.yul\":18434:18438   */\n      dup3\n        /* \"#utility.yul\":18428:18439   */\n      sload\n        /* \"#utility.yul\":18402:18440   */\n      tag_109\n      jump\t// in\n    tag_547:\n        /* \"#utility.yul\":18487:18554   */\n      tag_548\n        /* \"#utility.yul\":18547:18553   */\n      dup3\n        /* \"#utility.yul\":18539:18545   */\n      dup3\n        /* \"#utility.yul\":18533:18537   */\n      dup6\n        /* \"#utility.yul\":18487:18554   */\n      tag_331\n      jump\t// in\n    tag_548:\n        /* \"#utility.yul\":18581:18582   */\n      0x00\n        /* \"#utility.yul\":18605:18609   */\n      0x20\n        /* \"#utility.yul\":18592:18609   */\n      swap1\n      pop\n        /* \"#utility.yul\":18637:18639   */\n      0x1f\n        /* \"#utility.yul\":18629:18635   */\n      dup4\n        /* \"#utility.yul\":18626:18640   */\n      gt\n        /* \"#utility.yul\":18654:18655   */\n      0x01\n        /* \"#utility.yul\":18649:19267   */\n      dup2\n      eq\n      tag_550\n      jumpi\n        /* \"#utility.yul\":19311:19312   */\n      0x00\n        /* \"#utility.yul\":19328:19334   */\n      dup5\n        /* \"#utility.yul\":19325:19402   */\n      iszero\n      tag_551\n      jumpi\n        /* \"#utility.yul\":19377:19386   */\n      dup3\n        /* \"#utility.yul\":19372:19375   */\n      dup8\n        /* \"#utility.yul\":19368:19387   */\n      add\n        /* \"#utility.yul\":19362:19388   */\n      mload\n        /* \"#utility.yul\":19353:19388   */\n      swap1\n      pop\n        /* \"#utility.yul\":19325:19402   */\n    tag_551:\n        /* \"#utility.yul\":19428:19495   */\n      tag_552\n        /* \"#utility.yul\":19488:19494   */\n      dup6\n        /* \"#utility.yul\":19481:19486   */\n      dup3\n        /* \"#utility.yul\":19428:19495   */\n      tag_334\n      jump\t// in\n    tag_552:\n        /* \"#utility.yul\":19422:19426   */\n      dup7\n        /* \"#utility.yul\":19415:19496   */\n      sstore\n        /* \"#utility.yul\":19284:19506   */\n      pop\n        /* \"#utility.yul\":18619:19506   */\n      jump(tag_549)\n        /* \"#utility.yul\":18649:19267   */\n    tag_550:\n        /* \"#utility.yul\":18701:18705   */\n      0x1f\n        /* \"#utility.yul\":18697:18706   */\n      not\n        /* \"#utility.yul\":18689:18695   */\n      dup5\n        /* \"#utility.yul\":18685:18707   */\n      and\n        /* \"#utility.yul\":18735:18772   */\n      tag_553\n        /* \"#utility.yul\":18767:18771   */\n      dup7\n        /* \"#utility.yul\":18735:18772   */\n      tag_320\n      jump\t// in\n    tag_553:\n        /* \"#utility.yul\":18794:18795   */\n      0x00\n        /* \"#utility.yul\":18808:19016   */\n    tag_554:\n        /* \"#utility.yul\":18822:18829   */\n      dup3\n        /* \"#utility.yul\":18819:18820   */\n      dup2\n        /* \"#utility.yul\":18816:18830   */\n      lt\n        /* \"#utility.yul\":18808:19016   */\n      iszero\n      tag_556\n      jumpi\n        /* \"#utility.yul\":18901:18910   */\n      dup5\n        /* \"#utility.yul\":18896:18899   */\n      dup10\n        /* \"#utility.yul\":18892:18911   */\n      add\n        /* \"#utility.yul\":18886:18912   */\n      mload\n        /* \"#utility.yul\":18878:18884   */\n      dup3\n        /* \"#utility.yul\":18871:18913   */\n      sstore\n        /* \"#utility.yul\":18952:18953   */\n      0x01\n        /* \"#utility.yul\":18944:18950   */\n      dup3\n        /* \"#utility.yul\":18940:18954   */\n      add\n        /* \"#utility.yul\":18930:18954   */\n      swap2\n      pop\n        /* \"#utility.yul\":18999:19001   */\n      0x20\n        /* \"#utility.yul\":18988:18997   */\n      dup6\n        /* \"#utility.yul\":18984:19002   */\n      add\n        /* \"#utility.yul\":18971:19002   */\n      swap5\n      pop\n        /* \"#utility.yul\":18845:18849   */\n      0x20\n        /* \"#utility.yul\":18842:18843   */\n      dup2\n        /* \"#utility.yul\":18838:18850   */\n      add\n        /* \"#utility.yul\":18833:18850   */\n      swap1\n      pop\n        /* \"#utility.yul\":18808:19016   */\n      jump(tag_554)\n    tag_556:\n        /* \"#utility.yul\":19044:19050   */\n      dup7\n        /* \"#utility.yul\":19035:19042   */\n      dup4\n        /* \"#utility.yul\":19032:19051   */\n      lt\n        /* \"#utility.yul\":19029:19208   */\n      iszero\n      tag_557\n      jumpi\n        /* \"#utility.yul\":19102:19111   */\n      dup5\n        /* \"#utility.yul\":19097:19100   */\n      dup10\n        /* \"#utility.yul\":19093:19112   */\n      add\n        /* \"#utility.yul\":19087:19113   */\n      mload\n        /* \"#utility.yul\":19145:19193   */\n      tag_558\n        /* \"#utility.yul\":19187:19191   */\n      0x1f\n        /* \"#utility.yul\":19179:19185   */\n      dup10\n        /* \"#utility.yul\":19175:19192   */\n      and\n        /* \"#utility.yul\":19164:19173   */\n      dup3\n        /* \"#utility.yul\":19145:19193   */\n      tag_333\n      jump\t// in\n    tag_558:\n        /* \"#utility.yul\":19137:19143   */\n      dup4\n        /* \"#utility.yul\":19130:19194   */\n      sstore\n        /* \"#utility.yul\":19052:19208   */\n      pop\n        /* \"#utility.yul\":19029:19208   */\n    tag_557:\n        /* \"#utility.yul\":19254:19255   */\n      0x01\n        /* \"#utility.yul\":19250:19251   */\n      0x02\n        /* \"#utility.yul\":19242:19248   */\n      dup9\n        /* \"#utility.yul\":19238:19252   */\n      mul\n        /* \"#utility.yul\":19234:19256   */\n      add\n        /* \"#utility.yul\":19228:19232   */\n      dup9\n        /* \"#utility.yul\":19221:19257   */\n      sstore\n        /* \"#utility.yul\":18656:19267   */\n      pop\n      pop\n      pop\n        /* \"#utility.yul\":18619:19506   */\n    tag_549:\n      pop\n        /* \"#utility.yul\":18209:19512   */\n      pop\n      pop\n      pop\n        /* \"#utility.yul\":18117:19512   */\n      pop\n      pop\n      jump\t// out\n        /* \"#utility.yul\":19518:20051   */\n    tag_135:\n        /* \"#utility.yul\":19687:19691   */\n      0x00\n        /* \"#utility.yul\":19725:19727   */\n      0x60\n        /* \"#utility.yul\":19714:19723   */\n      dup3\n        /* \"#utility.yul\":19710:19728   */\n      add\n        /* \"#utility.yul\":19702:19728   */\n      swap1\n      pop\n        /* \"#utility.yul\":19774:19783   */\n      dup2\n        /* \"#utility.yul\":19768:19772   */\n      dup2\n        /* \"#utility.yul\":19764:19784   */\n      sub\n        /* \"#utility.yul\":19760:19761   */\n      0x00\n        /* \"#utility.yul\":19749:19758   */\n      dup4\n        /* \"#utility.yul\":19745:19762   */\n      add\n        /* \"#utility.yul\":19738:19785   */\n      mstore\n        /* \"#utility.yul\":19802:19880   */\n      tag_560\n        /* \"#utility.yul\":19875:19879   */\n      dup2\n        /* \"#utility.yul\":19866:19872   */\n      dup7\n        /* \"#utility.yul\":19802:19880   */\n      tag_307\n      jump\t// in\n    tag_560:\n        /* \"#utility.yul\":19794:19880   */\n      swap1\n      pop\n        /* \"#utility.yul\":19890:19962   */\n      tag_561\n        /* \"#utility.yul\":19958:19960   */\n      0x20\n        /* \"#utility.yul\":19947:19956   */\n      dup4\n        /* \"#utility.yul\":19943:19961   */\n      add\n        /* \"#utility.yul\":19934:19940   */\n      dup6\n        /* \"#utility.yul\":19890:19962   */\n      tag_303\n      jump\t// in\n    tag_561:\n        /* \"#utility.yul\":19972:20044   */\n      tag_562\n        /* \"#utility.yul\":20040:20042   */\n      0x40\n        /* \"#utility.yul\":20029:20038   */\n      dup4\n        /* \"#utility.yul\":20025:20043   */\n      add\n        /* \"#utility.yul\":20016:20022   */\n      dup5\n        /* \"#utility.yul\":19972:20044   */\n      tag_317\n      jump\t// in\n    tag_562:\n        /* \"#utility.yul\":19518:20051   */\n      swap5\n      swap4\n      pop\n      pop\n      pop\n      pop\n      jump\t// out\n        /* \"#utility.yul\":20057:20295   */\n    tag_335:\n        /* \"#utility.yul\":20197:20231   */\n      0x4e6563657369746173206465766f6c76657220756e612063616e746964616420\n        /* \"#utility.yul\":20193:20194   */\n      0x00\n        /* \"#utility.yul\":20185:20191   */\n      dup3\n        /* \"#utility.yul\":20181:20195   */\n      add\n        /* \"#utility.yul\":20174:20232   */\n      mstore\n        /* \"#utility.yul\":20266:20287   */\n      0x706f73697469766120646520746f6b656e732e00000000000000000000000000\n        /* \"#utility.yul\":20261:20263   */\n      0x20\n        /* \"#utility.yul\":20253:20259   */\n      dup3\n        /* \"#utility.yul\":20249:20264   */\n      add\n        /* \"#utility.yul\":20242:20288   */\n      mstore\n        /* \"#utility.yul\":20057:20295   */\n      pop\n      jump\t// out\n        /* \"#utility.yul\":20301:20667   */\n    tag_336:\n        /* \"#utility.yul\":20443:20446   */\n      0x00\n        /* \"#utility.yul\":20464:20531   */\n      tag_565\n        /* \"#utility.yul\":20528:20530   */\n      0x33\n        /* \"#utility.yul\":20523:20526   */\n      dup4\n        /* \"#utility.yul\":20464:20531   */\n      tag_306\n      jump\t// in\n    tag_565:\n        /* \"#utility.yul\":20457:20531   */\n      swap2\n      pop\n        /* \"#utility.yul\":20540:20633   */\n      tag_566\n        /* \"#utility.yul\":20629:20632   */\n      dup3\n        /* \"#utility.yul\":20540:20633   */\n      tag_335\n      jump\t// in\n    tag_566:\n        /* \"#utility.yul\":20658:20660   */\n      0x40\n        /* \"#utility.yul\":20653:20656   */\n      dup3\n        /* \"#utility.yul\":20649:20661   */\n      add\n        /* \"#utility.yul\":20642:20661   */\n      swap1\n      pop\n        /* \"#utility.yul\":20301:20667   */\n      swap2\n      swap1\n      pop\n      jump\t// out\n        /* \"#utility.yul\":20673:21092   */\n    tag_139:\n        /* \"#utility.yul\":20839:20843   */\n      0x00\n        /* \"#utility.yul\":20877:20879   */\n      0x20\n        /* \"#utility.yul\":20866:20875   */\n      dup3\n        /* \"#utility.yul\":20862:20880   */\n      add\n        /* \"#utility.yul\":20854:20880   */\n      swap1\n      pop\n        /* \"#utility.yul\":20926:20935   */\n      dup2\n        /* \"#utility.yul\":20920:20924   */\n      dup2\n        /* \"#utility.yul\":20916:20936   */\n      sub\n        /* \"#utility.yul\":20912:20913   */\n      0x00\n        /* \"#utility.yul\":20901:20910   */\n      dup4\n        /* \"#utility.yul\":20897:20914   */\n      add\n        /* \"#utility.yul\":20890:20937   */\n      mstore\n        /* \"#utility.yul\":20954:21085   */\n      tag_568\n        /* \"#utility.yul\":21080:21084   */\n      dup2\n        /* \"#utility.yul\":20954:21085   */\n      tag_336\n      jump\t// in\n    tag_568:\n        /* \"#utility.yul\":20946:21085   */\n      swap1\n      pop\n        /* \"#utility.yul\":20673:21092   */\n      swap2\n      swap1\n      pop\n      jump\t// out\n        /* \"#utility.yul\":21098:21326   */\n    tag_337:\n        /* \"#utility.yul\":21238:21272   */\n      0x4e6f207469656e6573206c6f7320746f6b656e73207175652064657365617320\n        /* \"#utility.yul\":21234:21235   */\n      0x00\n        /* \"#utility.yul\":21226:21232   */\n      dup3\n        /* \"#utility.yul\":21222:21236   */\n      add\n        /* \"#utility.yul\":21215:21273   */\n      mstore\n        /* \"#utility.yul\":21307:21318   */\n      0x6465766f6c7665722e0000000000000000000000000000000000000000000000\n        /* \"#utility.yul\":21302:21304   */\n      0x20\n        /* \"#utility.yul\":21294:21300   */\n      dup3\n        /* \"#utility.yul\":21290:21305   */\n      add\n        /* \"#utility.yul\":21283:21319   */\n      mstore\n        /* \"#utility.yul\":21098:21326   */\n      pop\n      jump\t// out\n        /* \"#utility.yul\":21332:21698   */\n    tag_338:\n        /* \"#utility.yul\":21474:21477   */\n      0x00\n        /* \"#utility.yul\":21495:21562   */\n      tag_571\n        /* \"#utility.yul\":21559:21561   */\n      0x29\n        /* \"#utility.yul\":21554:21557   */\n      dup4\n        /* \"#utility.yul\":21495:21562   */\n      tag_306\n      jump\t// in\n    tag_571:\n        /* \"#utility.yul\":21488:21562   */\n      swap2\n      pop\n        /* \"#utility.yul\":21571:21664   */\n      tag_572\n        /* \"#utility.yul\":21660:21663   */\n      dup3\n        /* \"#utility.yul\":21571:21664   */\n      tag_337\n      jump\t// in\n    tag_572:\n        /* \"#utility.yul\":21689:21691   */\n      0x40\n        /* \"#utility.yul\":21684:21687   */\n      dup3\n        /* \"#utility.yul\":21680:21692   */\n      add\n        /* \"#utility.yul\":21673:21692   */\n      swap1\n      pop\n        /* \"#utility.yul\":21332:21698   */\n      swap2\n      swap1\n      pop\n      jump\t// out\n        /* \"#utility.yul\":21704:22123   */\n    tag_143:\n        /* \"#utility.yul\":21870:21874   */\n      0x00\n        /* \"#utility.yul\":21908:21910   */\n      0x20\n        /* \"#utility.yul\":21897:21906   */\n      dup3\n        /* \"#utility.yul\":21893:21911   */\n      add\n        /* \"#utility.yul\":21885:21911   */\n      swap1\n      pop\n        /* \"#utility.yul\":21957:21966   */\n      dup2\n        /* \"#utility.yul\":21951:21955   */\n      dup2\n        /* \"#utility.yul\":21947:21967   */\n      sub\n        /* \"#utility.yul\":21943:21944   */\n      0x00\n        /* \"#utility.yul\":21932:21941   */\n      dup4\n        /* \"#utility.yul\":21928:21945   */\n      add\n        /* \"#utility.yul\":21921:21968   */\n      mstore\n        /* \"#utility.yul\":21985:22116   */\n      tag_574\n        /* \"#utility.yul\":22111:22115   */\n      dup2\n        /* \"#utility.yul\":21985:22116   */\n      tag_338\n      jump\t// in\n    tag_574:\n        /* \"#utility.yul\":21977:22116   */\n      swap1\n      pop\n        /* \"#utility.yul\":21704:22123   */\n      swap2\n      swap1\n      pop\n      jump\t// out\n        /* \"#utility.yul\":22129:22361   */\n    tag_339:\n        /* \"#utility.yul\":22269:22303   */\n      0x4e6f207469656e6573207065726d69736f73207061726120656a656375746172\n        /* \"#utility.yul\":22265:22266   */\n      0x00\n        /* \"#utility.yul\":22257:22263   */\n      dup3\n        /* \"#utility.yul\":22253:22267   */\n      add\n        /* \"#utility.yul\":22246:22304   */\n      mstore\n        /* \"#utility.yul\":22338:22353   */\n      0x20657374612066756e63696f6e00000000000000000000000000000000000000\n        /* \"#utility.yul\":22333:22335   */\n      0x20\n        /* \"#utility.yul\":22325:22331   */\n      dup3\n        /* \"#utility.yul\":22321:22336   */\n      add\n        /* \"#utility.yul\":22314:22354   */\n      mstore\n        /* \"#utility.yul\":22129:22361   */\n      pop\n      jump\t// out\n        /* \"#utility.yul\":22367:22733   */\n    tag_340:\n        /* \"#utility.yul\":22509:22512   */\n      0x00\n        /* \"#utility.yul\":22530:22597   */\n      tag_577\n        /* \"#utility.yul\":22594:22596   */\n      0x2d\n        /* \"#utility.yul\":22589:22592   */\n      dup4\n        /* \"#utility.yul\":22530:22597   */\n      tag_306\n      jump\t// in\n    tag_577:\n        /* \"#utility.yul\":22523:22597   */\n      swap2\n      pop\n        /* \"#utility.yul\":22606:22699   */\n      tag_578\n        /* \"#utility.yul\":22695:22698   */\n      dup3\n        /* \"#utility.yul\":22606:22699   */\n      tag_339\n      jump\t// in\n    tag_578:\n        /* \"#utility.yul\":22724:22726   */\n      0x40\n        /* \"#utility.yul\":22719:22722   */\n      dup3\n        /* \"#utility.yul\":22715:22727   */\n      add\n        /* \"#utility.yul\":22708:22727   */\n      swap1\n      pop\n        /* \"#utility.yul\":22367:22733   */\n      swap2\n      swap1\n      pop\n      jump\t// out\n        /* \"#utility.yul\":22739:23158   */\n    tag_155:\n        /* \"#utility.yul\":22905:22909   */\n      0x00\n        /* \"#utility.yul\":22943:22945   */\n      0x20\n        /* \"#utility.yul\":22932:22941   */\n      dup3\n        /* \"#utility.yul\":22928:22946   */\n      add\n        /* \"#utility.yul\":22920:22946   */\n      swap1\n      pop\n        /* \"#utility.yul\":22992:23001   */\n      dup2\n        /* \"#utility.yul\":22986:22990   */\n      dup2\n        /* \"#utility.yul\":22982:23002   */\n      sub\n        /* \"#utility.yul\":22978:22979   */\n      0x00\n        /* \"#utility.yul\":22967:22976   */\n      dup4\n        /* \"#utility.yul\":22963:22980   */\n      add\n        /* \"#utility.yul\":22956:23003   */\n      mstore\n        /* \"#utility.yul\":23020:23151   */\n      tag_580\n        /* \"#utility.yul\":23146:23150   */\n      dup2\n        /* \"#utility.yul\":23020:23151   */\n      tag_340\n      jump\t// in\n    tag_580:\n        /* \"#utility.yul\":23012:23151   */\n      swap1\n      pop\n        /* \"#utility.yul\":22739:23158   */\n      swap2\n      swap1\n      pop\n      jump\t// out\n        /* \"#utility.yul\":23164:23477   */\n    tag_159:\n        /* \"#utility.yul\":23277:23281   */\n      0x00\n        /* \"#utility.yul\":23315:23317   */\n      0x20\n        /* \"#utility.yul\":23304:23313   */\n      dup3\n        /* \"#utility.yul\":23300:23318   */\n      add\n        /* \"#utility.yul\":23292:23318   */\n      swap1\n      pop\n        /* \"#utility.yul\":23364:23373   */\n      dup2\n        /* \"#utility.yul\":23358:23362   */\n      dup2\n        /* \"#utility.yul\":23354:23374   */\n      sub\n        /* \"#utility.yul\":23350:23351   */\n      0x00\n        /* \"#utility.yul\":23339:23348   */\n      dup4\n        /* \"#utility.yul\":23335:23352   */\n      add\n        /* \"#utility.yul\":23328:23375   */\n      mstore\n        /* \"#utility.yul\":23392:23470   */\n      tag_582\n        /* \"#utility.yul\":23465:23469   */\n      dup2\n        /* \"#utility.yul\":23456:23462   */\n      dup5\n        /* \"#utility.yul\":23392:23470   */\n      tag_307\n      jump\t// in\n    tag_582:\n        /* \"#utility.yul\":23384:23470   */\n      swap1\n      pop\n        /* \"#utility.yul\":23164:23477   */\n      swap3\n      swap2\n      pop\n      pop\n      jump\t// out\n        /* \"#utility.yul\":23483:23705   */\n    tag_168:\n        /* \"#utility.yul\":23576:23580   */\n      0x00\n        /* \"#utility.yul\":23614:23616   */\n      0x20\n        /* \"#utility.yul\":23603:23612   */\n      dup3\n        /* \"#utility.yul\":23599:23617   */\n      add\n        /* \"#utility.yul\":23591:23617   */\n      swap1\n      pop\n        /* \"#utility.yul\":23627:23698   */\n      tag_584\n        /* \"#utility.yul\":23695:23696   */\n      0x00\n        /* \"#utility.yul\":23684:23693   */\n      dup4\n        /* \"#utility.yul\":23680:23697   */\n      add\n        /* \"#utility.yul\":23671:23677   */\n      dup5\n        /* \"#utility.yul\":23627:23698   */\n      tag_317\n      jump\t// in\n    tag_584:\n        /* \"#utility.yul\":23483:23705   */\n      swap3\n      swap2\n      pop\n      pop\n      jump\t// out\n        /* \"#utility.yul\":23711:23854   */\n    tag_341:\n        /* \"#utility.yul\":23768:23773   */\n      0x00\n        /* \"#utility.yul\":23799:23805   */\n      dup2\n        /* \"#utility.yul\":23793:23806   */\n      mload\n        /* \"#utility.yul\":23784:23806   */\n      swap1\n      pop\n        /* \"#utility.yul\":23815:23848   */\n      tag_586\n        /* \"#utility.yul\":23842:23847   */\n      dup2\n        /* \"#utility.yul\":23815:23848   */\n      tag_297\n      jump\t// in\n    tag_586:\n        /* \"#utility.yul\":23711:23854   */\n      swap3\n      swap2\n      pop\n      pop\n      jump\t// out\n        /* \"#utility.yul\":23860:24211   */\n    tag_172:\n        /* \"#utility.yul\":23930:23936   */\n      0x00\n        /* \"#utility.yul\":23979:23981   */\n      0x20\n        /* \"#utility.yul\":23967:23976   */\n      dup3\n        /* \"#utility.yul\":23958:23965   */\n      dup5\n        /* \"#utility.yul\":23954:23977   */\n      sub\n        /* \"#utility.yul\":23950:23982   */\n      slt\n        /* \"#utility.yul\":23947:24066   */\n      iszero\n      tag_588\n      jumpi\n        /* \"#utility.yul\":23985:24064   */\n      tag_589\n      tag_285\n      jump\t// in\n    tag_589:\n        /* \"#utility.yul\":23947:24066   */\n    tag_588:\n        /* \"#utility.yul\":24105:24106   */\n      0x00\n        /* \"#utility.yul\":24130:24194   */\n      tag_590\n        /* \"#utility.yul\":24186:24193   */\n      dup5\n        /* \"#utility.yul\":24177:24183   */\n      dup3\n        /* \"#utility.yul\":24166:24175   */\n      dup6\n        /* \"#utility.yul\":24162:24184   */\n      add\n        /* \"#utility.yul\":24130:24194   */\n      tag_341\n      jump\t// in\n    tag_590:\n        /* \"#utility.yul\":24120:24194   */\n      swap2\n      pop\n        /* \"#utility.yul\":24076:24204   */\n      pop\n        /* \"#utility.yul\":23860:24211   */\n      swap3\n      swap2\n      pop\n      pop\n      jump\t// out\n        /* \"#utility.yul\":24217:24640   */\n    tag_182:\n        /* \"#utility.yul\":24358:24362   */\n      0x00\n        /* \"#utility.yul\":24396:24398   */\n      0x40\n        /* \"#utility.yul\":24385:24394   */\n      dup3\n        /* \"#utility.yul\":24381:24399   */\n      add\n        /* \"#utility.yul\":24373:24399   */\n      swap1\n      pop\n        /* \"#utility.yul\":24445:24454   */\n      dup2\n        /* \"#utility.yul\":24439:24443   */\n      dup2\n        /* \"#utility.yul\":24435:24455   */\n      sub\n        /* \"#utility.yul\":24431:24432   */\n      0x00\n        /* \"#utility.yul\":24420:24429   */\n      dup4\n        /* \"#utility.yul\":24416:24433   */\n      add\n        /* \"#utility.yul\":24409:24456   */\n      mstore\n        /* \"#utility.yul\":24473:24551   */\n      tag_592\n        /* \"#utility.yul\":24546:24550   */\n      dup2\n        /* \"#utility.yul\":24537:24543   */\n      dup6\n        /* \"#utility.yul\":24473:24551   */\n      tag_307\n      jump\t// in\n    tag_592:\n        /* \"#utility.yul\":24465:24551   */\n      swap1\n      pop\n        /* \"#utility.yul\":24561:24633   */\n      tag_593\n        /* \"#utility.yul\":24629:24631   */\n      0x20\n        /* \"#utility.yul\":24618:24627   */\n      dup4\n        /* \"#utility.yul\":24614:24632   */\n      add\n        /* \"#utility.yul\":24605:24611   */\n      dup5\n        /* \"#utility.yul\":24561:24633   */\n      tag_303\n      jump\t// in\n    tag_593:\n        /* \"#utility.yul\":24217:24640   */\n      swap4\n      swap3\n      pop\n      pop\n      pop\n      jump\t// out\n        /* \"#utility.yul\":24646:24882   */\n    tag_342:\n        /* \"#utility.yul\":24786:24820   */\n      0x456c20616c696d656e746f206e6f206573746120646973706f6e69626c652065\n        /* \"#utility.yul\":24782:24783   */\n      0x00\n        /* \"#utility.yul\":24774:24780   */\n      dup3\n        /* \"#utility.yul\":24770:24784   */\n      add\n        /* \"#utility.yul\":24763:24821   */\n      mstore\n        /* \"#utility.yul\":24855:24874   */\n      0x6e206573746f73206d6f6d656e746f732e000000000000000000000000000000\n        /* \"#utility.yul\":24850:24852   */\n      0x20\n        /* \"#utility.yul\":24842:24848   */\n      dup3\n        /* \"#utility.yul\":24838:24853   */\n      add\n        /* \"#utility.yul\":24831:24875   */\n      mstore\n        /* \"#utility.yul\":24646:24882   */\n      pop\n      jump\t// out\n        /* \"#utility.yul\":24888:25254   */\n    tag_343:\n        /* \"#utility.yul\":25030:25033   */\n      0x00\n        /* \"#utility.yul\":25051:25118   */\n      tag_596\n        /* \"#utility.yul\":25115:25117   */\n      0x31\n        /* \"#utility.yul\":25110:25113   */\n      dup4\n        /* \"#utility.yul\":25051:25118   */\n      tag_306\n      jump\t// in\n    tag_596:\n        /* \"#utility.yul\":25044:25118   */\n      swap2\n      pop\n        /* \"#utility.yul\":25127:25220   */\n      tag_597\n        /* \"#utility.yul\":25216:25219   */\n      dup3\n        /* \"#utility.yul\":25127:25220   */\n      tag_342\n      jump\t// in\n    tag_597:\n        /* \"#utility.yul\":25245:25247   */\n      0x40\n        /* \"#utility.yul\":25240:25243   */\n      dup3\n        /* \"#utility.yul\":25236:25248   */\n      add\n        /* \"#utility.yul\":25229:25248   */\n      swap1\n      pop\n        /* \"#utility.yul\":24888:25254   */\n      swap2\n      swap1\n      pop\n      jump\t// out\n        /* \"#utility.yul\":25260:25679   */\n    tag_200:\n        /* \"#utility.yul\":25426:25430   */\n      0x00\n        /* \"#utility.yul\":25464:25466   */\n      0x20\n        /* \"#utility.yul\":25453:25462   */\n      dup3\n        /* \"#utility.yul\":25449:25467   */\n      add\n        /* \"#utility.yul\":25441:25467   */\n      swap1\n      pop\n        /* \"#utility.yul\":25513:25522   */\n      dup2\n        /* \"#utility.yul\":25507:25511   */\n      dup2\n        /* \"#utility.yul\":25503:25523   */\n      sub\n        /* \"#utility.yul\":25499:25500   */\n      0x00\n        /* \"#utility.yul\":25488:25497   */\n      dup4\n        /* \"#utility.yul\":25484:25501   */\n      add\n        /* \"#utility.yul\":25477:25524   */\n      mstore\n        /* \"#utility.yul\":25541:25672   */\n      tag_599\n        /* \"#utility.yul\":25667:25671   */\n      dup2\n        /* \"#utility.yul\":25541:25672   */\n      tag_343\n      jump\t// in\n    tag_599:\n        /* \"#utility.yul\":25533:25672   */\n      swap1\n      pop\n        /* \"#utility.yul\":25260:25679   */\n      swap2\n      swap1\n      pop\n      jump\t// out\n        /* \"#utility.yul\":25685:25920   */\n    tag_344:\n        /* \"#utility.yul\":25825:25859   */\n      0x4e6563657369746173206d617320746f6b656e732070617261206f7264656e61\n        /* \"#utility.yul\":25821:25822   */\n      0x00\n        /* \"#utility.yul\":25813:25819   */\n      dup3\n        /* \"#utility.yul\":25809:25823   */\n      add\n        /* \"#utility.yul\":25802:25860   */\n      mstore\n        /* \"#utility.yul\":25894:25912   */\n      0x72206573746520616c696d656e746f2e00000000000000000000000000000000\n        /* \"#utility.yul\":25889:25891   */\n      0x20\n        /* \"#utility.yul\":25881:25887   */\n      dup3\n        /* \"#utility.yul\":25877:25892   */\n      add\n        /* \"#utility.yul\":25870:25913   */\n      mstore\n        /* \"#utility.yul\":25685:25920   */\n      pop\n      jump\t// out\n        /* \"#utility.yul\":25926:26292   */\n    tag_345:\n        /* \"#utility.yul\":26068:26071   */\n      0x00\n        /* \"#utility.yul\":26089:26156   */\n      tag_602\n        /* \"#utility.yul\":26153:26155   */\n      0x30\n        /* \"#utility.yul\":26148:26151   */\n      dup4\n        /* \"#utility.yul\":26089:26156   */\n      tag_306\n      jump\t// in\n    tag_602:\n        /* \"#utility.yul\":26082:26156   */\n      swap2\n      pop\n        /* \"#utility.yul\":26165:26258   */\n      tag_603\n        /* \"#utility.yul\":26254:26257   */\n      dup3\n        /* \"#utility.yul\":26165:26258   */\n      tag_344\n      jump\t// in\n    tag_603:\n        /* \"#utility.yul\":26283:26285   */\n      0x40\n        /* \"#utility.yul\":26278:26281   */\n      dup3\n        /* \"#utility.yul\":26274:26286   */\n      add\n        /* \"#utility.yul\":26267:26286   */\n      swap1\n      pop\n        /* \"#utility.yul\":25926:26292   */\n      swap2\n      swap1\n      pop\n      jump\t// out\n        /* \"#utility.yul\":26298:26717   */\n    tag_205:\n        /* \"#utility.yul\":26464:26468   */\n      0x00\n        /* \"#utility.yul\":26502:26504   */\n      0x20\n        /* \"#utility.yul\":26491:26500   */\n      dup3\n        /* \"#utility.yul\":26487:26505   */\n      add\n        /* \"#utility.yul\":26479:26505   */\n      swap1\n      pop\n        /* \"#utility.yul\":26551:26560   */\n      dup2\n        /* \"#utility.yul\":26545:26549   */\n      dup2\n        /* \"#utility.yul\":26541:26561   */\n      sub\n        /* \"#utility.yul\":26537:26538   */\n      0x00\n        /* \"#utility.yul\":26526:26535   */\n      dup4\n        /* \"#utility.yul\":26522:26539   */\n      add\n        /* \"#utility.yul\":26515:26562   */\n      mstore\n        /* \"#utility.yul\":26579:26710   */\n      tag_605\n        /* \"#utility.yul\":26705:26709   */\n      dup2\n        /* \"#utility.yul\":26579:26710   */\n      tag_345\n      jump\t// in\n    tag_605:\n        /* \"#utility.yul\":26571:26710   */\n      swap1\n      pop\n        /* \"#utility.yul\":26298:26717   */\n      swap2\n      swap1\n      pop\n      jump\t// out\n        /* \"#utility.yul\":26723:26952   */\n    tag_346:\n        /* \"#utility.yul\":26863:26897   */\n      0x436f6d707261206d656e6f7320746f6b656e73206f207061676120636f6e206d\n        /* \"#utility.yul\":26859:26860   */\n      0x00\n        /* \"#utility.yul\":26851:26857   */\n      dup3\n        /* \"#utility.yul\":26847:26861   */\n      add\n        /* \"#utility.yul\":26840:26898   */\n      mstore\n        /* \"#utility.yul\":26932:26944   */\n      0x6173206574686572732e00000000000000000000000000000000000000000000\n        /* \"#utility.yul\":26927:26929   */\n      0x20\n        /* \"#utility.yul\":26919:26925   */\n      dup3\n        /* \"#utility.yul\":26915:26930   */\n      add\n        /* \"#utility.yul\":26908:26945   */\n      mstore\n        /* \"#utility.yul\":26723:26952   */\n      pop\n      jump\t// out\n        /* \"#utility.yul\":26958:27324   */\n    tag_347:\n        /* \"#utility.yul\":27100:27103   */\n      0x00\n        /* \"#utility.yul\":27121:27188   */\n      tag_608\n        /* \"#utility.yul\":27185:27187   */\n      0x2a\n        /* \"#utility.yul\":27180:27183   */\n      dup4\n        /* \"#utility.yul\":27121:27188   */\n      tag_306\n      jump\t// in\n    tag_608:\n        /* \"#utility.yul\":27114:27188   */\n      swap2\n      pop\n        /* \"#utility.yul\":27197:27290   */\n      tag_609\n        /* \"#utility.yul\":27286:27289   */\n      dup3\n        /* \"#utility.yul\":27197:27290   */\n      tag_346\n      jump\t// in\n    tag_609:\n        /* \"#utility.yul\":27315:27317   */\n      0x40\n        /* \"#utility.yul\":27310:27313   */\n      dup3\n        /* \"#utility.yul\":27306:27318   */\n      add\n        /* \"#utility.yul\":27299:27318   */\n      swap1\n      pop\n        /* \"#utility.yul\":26958:27324   */\n      swap2\n      swap1\n      pop\n      jump\t// out\n        /* \"#utility.yul\":27330:27749   */\n    tag_223:\n        /* \"#utility.yul\":27496:27500   */\n      0x00\n        /* \"#utility.yul\":27534:27536   */\n      0x20\n        /* \"#utility.yul\":27523:27532   */\n      dup3\n        /* \"#utility.yul\":27519:27537   */\n      add\n        /* \"#utility.yul\":27511:27537   */\n      swap1\n      pop\n        /* \"#utility.yul\":27583:27592   */\n      dup2\n        /* \"#utility.yul\":27577:27581   */\n      dup2\n        /* \"#utility.yul\":27573:27593   */\n      sub\n        /* \"#utility.yul\":27569:27570   */\n      0x00\n        /* \"#utility.yul\":27558:27567   */\n      dup4\n        /* \"#utility.yul\":27554:27571   */\n      add\n        /* \"#utility.yul\":27547:27594   */\n      mstore\n        /* \"#utility.yul\":27611:27742   */\n      tag_611\n        /* \"#utility.yul\":27737:27741   */\n      dup2\n        /* \"#utility.yul\":27611:27742   */\n      tag_347\n      jump\t// in\n    tag_611:\n        /* \"#utility.yul\":27603:27742   */\n      swap1\n      pop\n        /* \"#utility.yul\":27330:27749   */\n      swap2\n      swap1\n      pop\n      jump\t// out\n        /* \"#utility.yul\":27755:27937   */\n    tag_348:\n        /* \"#utility.yul\":27895:27929   */\n      0x436f6d70726120756e206e756d65726f206d656e6f7220646520546f6b656e73\n        /* \"#utility.yul\":27891:27892   */\n      0x00\n        /* \"#utility.yul\":27883:27889   */\n      dup3\n        /* \"#utility.yul\":27879:27893   */\n      add\n        /* \"#utility.yul\":27872:27930   */\n      mstore\n        /* \"#utility.yul\":27755:27937   */\n      pop\n      jump\t// out\n        /* \"#utility.yul\":27943:28309   */\n    tag_349:\n        /* \"#utility.yul\":28085:28088   */\n      0x00\n        /* \"#utility.yul\":28106:28173   */\n      tag_614\n        /* \"#utility.yul\":28170:28172   */\n      0x20\n        /* \"#utility.yul\":28165:28168   */\n      dup4\n        /* \"#utility.yul\":28106:28173   */\n      tag_306\n      jump\t// in\n    tag_614:\n        /* \"#utility.yul\":28099:28173   */\n      swap2\n      pop\n        /* \"#utility.yul\":28182:28275   */\n      tag_615\n        /* \"#utility.yul\":28271:28274   */\n      dup3\n        /* \"#utility.yul\":28182:28275   */\n      tag_348\n      jump\t// in\n    tag_615:\n        /* \"#utility.yul\":28300:28302   */\n      0x20\n        /* \"#utility.yul\":28295:28298   */\n      dup3\n        /* \"#utility.yul\":28291:28303   */\n      add\n        /* \"#utility.yul\":28284:28303   */\n      swap1\n      pop\n        /* \"#utility.yul\":27943:28309   */\n      swap2\n      swap1\n      pop\n      jump\t// out\n        /* \"#utility.yul\":28315:28734   */\n    tag_226:\n        /* \"#utility.yul\":28481:28485   */\n      0x00\n        /* \"#utility.yul\":28519:28521   */\n      0x20\n        /* \"#utility.yul\":28508:28517   */\n      dup3\n        /* \"#utility.yul\":28504:28522   */\n      add\n        /* \"#utility.yul\":28496:28522   */\n      swap1\n      pop\n        /* \"#utility.yul\":28568:28577   */\n      dup2\n        /* \"#utility.yul\":28562:28566   */\n      dup2\n        /* \"#utility.yul\":28558:28578   */\n      sub\n        /* \"#utility.yul\":28554:28555   */\n      0x00\n        /* \"#utility.yul\":28543:28552   */\n      dup4\n        /* \"#utility.yul\":28539:28556   */\n      add\n        /* \"#utility.yul\":28532:28579   */\n      mstore\n        /* \"#utility.yul\":28596:28727   */\n      tag_617\n        /* \"#utility.yul\":28722:28726   */\n      dup2\n        /* \"#utility.yul\":28596:28727   */\n      tag_349\n      jump\t// in\n    tag_617:\n        /* \"#utility.yul\":28588:28727   */\n      swap1\n      pop\n        /* \"#utility.yul\":28315:28734   */\n      swap2\n      swap1\n      pop\n      jump\t// out\n        /* \"#utility.yul\":28740:28920   */\n    tag_350:\n        /* \"#utility.yul\":28788:28865   */\n      0x4e487b7100000000000000000000000000000000000000000000000000000000\n        /* \"#utility.yul\":28785:28786   */\n      0x00\n        /* \"#utility.yul\":28778:28866   */\n      mstore\n        /* \"#utility.yul\":28885:28889   */\n      0x11\n        /* \"#utility.yul\":28882:28883   */\n      0x04\n        /* \"#utility.yul\":28875:28890   */\n      mstore\n        /* \"#utility.yul\":28909:28913   */\n      0x24\n        /* \"#utility.yul\":28906:28907   */\n      0x00\n        /* \"#utility.yul\":28899:28914   */\n      revert\n        /* \"#utility.yul\":28926:29120   */\n    tag_228:\n        /* \"#utility.yul\":28966:28970   */\n      0x00\n        /* \"#utility.yul\":28986:29006   */\n      tag_620\n        /* \"#utility.yul\":29004:29005   */\n      dup3\n        /* \"#utility.yul\":28986:29006   */\n      tag_296\n      jump\t// in\n    tag_620:\n        /* \"#utility.yul\":28981:29006   */\n      swap2\n      pop\n        /* \"#utility.yul\":29020:29040   */\n      tag_621\n        /* \"#utility.yul\":29038:29039   */\n      dup4\n        /* \"#utility.yul\":29020:29040   */\n      tag_296\n      jump\t// in\n    tag_621:\n        /* \"#utility.yul\":29015:29040   */\n      swap3\n      pop\n        /* \"#utility.yul\":29064:29065   */\n      dup3\n        /* \"#utility.yul\":29061:29062   */\n      dup3\n        /* \"#utility.yul\":29057:29066   */\n      sub\n        /* \"#utility.yul\":29049:29066   */\n      swap1\n      pop\n        /* \"#utility.yul\":29088:29089   */\n      dup2\n        /* \"#utility.yul\":29082:29086   */\n      dup2\n        /* \"#utility.yul\":29079:29090   */\n      gt\n        /* \"#utility.yul\":29076:29113   */\n      iszero\n      tag_622\n      jumpi\n        /* \"#utility.yul\":29093:29111   */\n      tag_623\n      tag_350\n      jump\t// in\n    tag_623:\n        /* \"#utility.yul\":29076:29113   */\n    tag_622:\n        /* \"#utility.yul\":28926:29120   */\n      swap3\n      swap2\n      pop\n      pop\n      jump\t// out\n        /* \"#utility.yul\":29126:29458   */\n    tag_232:\n        /* \"#utility.yul\":29247:29251   */\n      0x00\n        /* \"#utility.yul\":29285:29287   */\n      0x40\n        /* \"#utility.yul\":29274:29283   */\n      dup3\n        /* \"#utility.yul\":29270:29288   */\n      add\n        /* \"#utility.yul\":29262:29288   */\n      swap1\n      pop\n        /* \"#utility.yul\":29298:29369   */\n      tag_625\n        /* \"#utility.yul\":29366:29367   */\n      0x00\n        /* \"#utility.yul\":29355:29364   */\n      dup4\n        /* \"#utility.yul\":29351:29368   */\n      add\n        /* \"#utility.yul\":29342:29348   */\n      dup6\n        /* \"#utility.yul\":29298:29369   */\n      tag_317\n      jump\t// in\n    tag_625:\n        /* \"#utility.yul\":29379:29451   */\n      tag_626\n        /* \"#utility.yul\":29447:29449   */\n      0x20\n        /* \"#utility.yul\":29436:29445   */\n      dup4\n        /* \"#utility.yul\":29432:29450   */\n      add\n        /* \"#utility.yul\":29423:29429   */\n      dup5\n        /* \"#utility.yul\":29379:29451   */\n      tag_303\n      jump\t// in\n    tag_626:\n        /* \"#utility.yul\":29126:29458   */\n      swap4\n      swap3\n      pop\n      pop\n      pop\n      jump\t// out\n        /* \"#utility.yul\":29464:29655   */\n    tag_237:\n        /* \"#utility.yul\":29504:29507   */\n      0x00\n        /* \"#utility.yul\":29523:29543   */\n      tag_628\n        /* \"#utility.yul\":29541:29542   */\n      dup3\n        /* \"#utility.yul\":29523:29543   */\n      tag_296\n      jump\t// in\n    tag_628:\n        /* \"#utility.yul\":29518:29543   */\n      swap2\n      pop\n        /* \"#utility.yul\":29557:29577   */\n      tag_629\n        /* \"#utility.yul\":29575:29576   */\n      dup4\n        /* \"#utility.yul\":29557:29577   */\n      tag_296\n      jump\t// in\n    tag_629:\n        /* \"#utility.yul\":29552:29577   */\n      swap3\n      pop\n        /* \"#utility.yul\":29600:29601   */\n      dup3\n        /* \"#utility.yul\":29597:29598   */\n      dup3\n        /* \"#utility.yul\":29593:29602   */\n      add\n        /* \"#utility.yul\":29586:29602   */\n      swap1\n      pop\n        /* \"#utility.yul\":29621:29624   */\n      dup1\n        /* \"#utility.yul\":29618:29619   */\n      dup3\n        /* \"#utility.yul\":29615:29625   */\n      gt\n        /* \"#utility.yul\":29612:29648   */\n      iszero\n      tag_630\n      jumpi\n        /* \"#utility.yul\":29628:29646   */\n      tag_631\n      tag_350\n      jump\t// in\n    tag_631:\n        /* \"#utility.yul\":29612:29648   */\n    tag_630:\n        /* \"#utility.yul\":29464:29655   */\n      swap3\n      swap2\n      pop\n      pop\n      jump\t// out\n        /* \"#utility.yul\":29661:30071   */\n    tag_272:\n        /* \"#utility.yul\":29701:29708   */\n      0x00\n        /* \"#utility.yul\":29724:29744   */\n      tag_633\n        /* \"#utility.yul\":29742:29743   */\n      dup3\n        /* \"#utility.yul\":29724:29744   */\n      tag_296\n      jump\t// in\n    tag_633:\n        /* \"#utility.yul\":29719:29744   */\n      swap2\n      pop\n        /* \"#utility.yul\":29758:29778   */\n      tag_634\n        /* \"#utility.yul\":29776:29777   */\n      dup4\n        /* \"#utility.yul\":29758:29778   */\n      tag_296\n      jump\t// in\n    tag_634:\n        /* \"#utility.yul\":29753:29778   */\n      swap3\n      pop\n        /* \"#utility.yul\":29813:29814   */\n      dup3\n        /* \"#utility.yul\":29810:29811   */\n      dup3\n        /* \"#utility.yul\":29806:29815   */\n      mul\n        /* \"#utility.yul\":29835:29865   */\n      tag_635\n        /* \"#utility.yul\":29853:29864   */\n      dup2\n        /* \"#utility.yul\":29835:29865   */\n      tag_296\n      jump\t// in\n    tag_635:\n        /* \"#utility.yul\":29824:29865   */\n      swap2\n      pop\n        /* \"#utility.yul\":30014:30015   */\n      dup3\n        /* \"#utility.yul\":30005:30012   */\n      dup3\n        /* \"#utility.yul\":30001:30016   */\n      div\n        /* \"#utility.yul\":29998:29999   */\n      dup5\n        /* \"#utility.yul\":29995:30017   */\n      eq\n        /* \"#utility.yul\":29975:29976   */\n      dup4\n        /* \"#utility.yul\":29968:29977   */\n      iszero\n        /* \"#utility.yul\":29948:30031   */\n      or\n        /* \"#utility.yul\":29925:30064   */\n      tag_636\n      jumpi\n        /* \"#utility.yul\":30044:30062   */\n      tag_637\n      tag_350\n      jump\t// in\n    tag_637:\n        /* \"#utility.yul\":29925:30064   */\n    tag_636:\n        /* \"#utility.yul\":29709:30071   */\n      pop\n        /* \"#utility.yul\":29661:30071   */\n      swap3\n      swap2\n      pop\n      pop\n      jump\t// out\n\n    auxdata: 0xa2646970667358221220770692e147381f08a4f594f60889bccbfedcb58a5c423224c1ac846231fcfbed64736f6c63430008160033\n}\n\nsub_1: assembly {\n        /* \"DISNEY/Copy_ERC20.sol\":1951:4593  contract ERC20 is IERC20 {... */\n      mstore(0x40, 0x80)\n        /* \"DISNEY/Copy_ERC20.sol\":2250:2375  constructor(uint256 _initialSupply) {... */\n      callvalue\n      dup1\n      iszero\n      tag_1\n      jumpi\n      0x00\n      dup1\n      revert\n    tag_1:\n      pop\n      mload(0x40)\n      sub(codesize, bytecodeSize)\n      dup1\n      bytecodeSize\n      dup4\n      codecopy\n      dup2\n      dup2\n      add\n      0x40\n      mstore\n      dup2\n      add\n      swap1\n      tag_2\n      swap2\n      swap1\n      tag_3\n      jump\t// in\n    tag_2:\n        /* \"DISNEY/Copy_ERC20.sol\":2310:2324  _initialSupply */\n      dup1\n        /* \"DISNEY/Copy_ERC20.sol\":2296:2307  totalSuply_ */\n      0x02\n        /* \"DISNEY/Copy_ERC20.sol\":2296:2324  totalSuply_ = _initialSupply */\n      dup2\n      swap1\n      sstore\n      pop\n        /* \"DISNEY/Copy_ERC20.sol\":2357:2368  totalSuply_ */\n      sload(0x02)\n        /* \"DISNEY/Copy_ERC20.sol\":2334:2342  balances */\n      0x00\n        /* \"DISNEY/Copy_ERC20.sol\":2334:2354  balances[msg.sender] */\n      dup1\n        /* \"DISNEY/Copy_ERC20.sol\":2343:2353  msg.sender */\n      caller\n        /* \"DISNEY/Copy_ERC20.sol\":2334:2354  balances[msg.sender] */\n      0xffffffffffffffffffffffffffffffffffffffff\n      and\n      0xffffffffffffffffffffffffffffffffffffffff\n      and\n      dup2\n      mstore\n      0x20\n      add\n      swap1\n      dup2\n      mstore\n      0x20\n      add\n      0x00\n      keccak256\n        /* \"DISNEY/Copy_ERC20.sol\":2334:2368  balances[msg.sender] = totalSuply_ */\n      dup2\n      swap1\n      sstore\n      pop\n        /* \"DISNEY/Copy_ERC20.sol\":2250:2375  constructor(uint256 _initialSupply) {... */\n      pop\n        /* \"DISNEY/Copy_ERC20.sol\":1951:4593  contract ERC20 is IERC20 {... */\n      jump(tag_6)\n        /* \"#utility.yul\":88:205   */\n    tag_8:\n        /* \"#utility.yul\":197:198   */\n      0x00\n        /* \"#utility.yul\":194:195   */\n      dup1\n        /* \"#utility.yul\":187:199   */\n      revert\n        /* \"#utility.yul\":334:411   */\n    tag_10:\n        /* \"#utility.yul\":371:378   */\n      0x00\n        /* \"#utility.yul\":400:405   */\n      dup2\n        /* \"#utility.yul\":389:405   */\n      swap1\n      pop\n        /* \"#utility.yul\":334:411   */\n      swap2\n      swap1\n      pop\n      jump\t// out\n        /* \"#utility.yul\":417:539   */\n    tag_11:\n        /* \"#utility.yul\":490:514   */\n      tag_19\n        /* \"#utility.yul\":508:513   */\n      dup2\n        /* \"#utility.yul\":490:514   */\n      tag_10\n      jump\t// in\n    tag_19:\n        /* \"#utility.yul\":483:488   */\n      dup2\n        /* \"#utility.yul\":480:515   */\n      eq\n        /* \"#utility.yul\":470:533   */\n      tag_20\n      jumpi\n        /* \"#utility.yul\":529:530   */\n      0x00\n        /* \"#utility.yul\":526:527   */\n      dup1\n        /* \"#utility.yul\":519:531   */\n      revert\n        /* \"#utility.yul\":470:533   */\n    tag_20:\n        /* \"#utility.yul\":417:539   */\n      pop\n      jump\t// out\n        /* \"#utility.yul\":545:688   */\n    tag_12:\n        /* \"#utility.yul\":602:607   */\n      0x00\n        /* \"#utility.yul\":633:639   */\n      dup2\n        /* \"#utility.yul\":627:640   */\n      mload\n        /* \"#utility.yul\":618:640   */\n      swap1\n      pop\n        /* \"#utility.yul\":649:682   */\n      tag_22\n        /* \"#utility.yul\":676:681   */\n      dup2\n        /* \"#utility.yul\":649:682   */\n      tag_11\n      jump\t// in\n    tag_22:\n        /* \"#utility.yul\":545:688   */\n      swap3\n      swap2\n      pop\n      pop\n      jump\t// out\n        /* \"#utility.yul\":694:1045   */\n    tag_3:\n        /* \"#utility.yul\":764:770   */\n      0x00\n        /* \"#utility.yul\":813:815   */\n      0x20\n        /* \"#utility.yul\":801:810   */\n      dup3\n        /* \"#utility.yul\":792:799   */\n      dup5\n        /* \"#utility.yul\":788:811   */\n      sub\n        /* \"#utility.yul\":784:816   */\n      slt\n        /* \"#utility.yul\":781:900   */\n      iszero\n      tag_24\n      jumpi\n        /* \"#utility.yul\":819:898   */\n      tag_25\n      tag_8\n      jump\t// in\n    tag_25:\n        /* \"#utility.yul\":781:900   */\n    tag_24:\n        /* \"#utility.yul\":939:940   */\n      0x00\n        /* \"#utility.yul\":964:1028   */\n      tag_26\n        /* \"#utility.yul\":1020:1027   */\n      dup5\n        /* \"#utility.yul\":1011:1017   */\n      dup3\n        /* \"#utility.yul\":1000:1009   */\n      dup6\n        /* \"#utility.yul\":996:1018   */\n      add\n        /* \"#utility.yul\":964:1028   */\n      tag_12\n      jump\t// in\n    tag_26:\n        /* \"#utility.yul\":954:1028   */\n      swap2\n      pop\n        /* \"#utility.yul\":910:1038   */\n      pop\n        /* \"#utility.yul\":694:1045   */\n      swap3\n      swap2\n      pop\n      pop\n      jump\t// out\n        /* \"DISNEY/Copy_ERC20.sol\":1951:4593  contract ERC20 is IERC20 {... */\n    tag_6:\n      dataSize(sub_0)\n      dup1\n      dataOffset(sub_0)\n      0x00\n      codecopy\n      0x00\n      return\n    stop\n\n    sub_0: assembly {\n            /* \"DISNEY/Copy_ERC20.sol\":1951:4593  contract ERC20 is IERC20 {... */\n          mstore(0x40, 0x80)\n          callvalue\n          dup1\n          iszero\n          tag_1\n          jumpi\n          0x00\n          dup1\n          revert\n        tag_1:\n          pop\n          jumpi(tag_2, lt(calldatasize, 0x04))\n          shr(0xe0, calldataload(0x00))\n          dup1\n          0x5e413c87\n          gt\n          tag_14\n          jumpi\n          dup1\n          0x5e413c87\n          eq\n          tag_8\n          jumpi\n          dup1\n          0x70a08231\n          eq\n          tag_9\n          jumpi\n          dup1\n          0x95d89b41\n          eq\n          tag_10\n          jumpi\n          dup1\n          0xa2a96799\n          eq\n          tag_11\n          jumpi\n          dup1\n          0xa9059cbb\n          eq\n          tag_12\n          jumpi\n          dup1\n          0xdd62ed3e\n          eq\n          tag_13\n          jumpi\n          jump(tag_2)\n        tag_14:\n          dup1\n          0x06fdde03\n          eq\n          tag_3\n          jumpi\n          dup1\n          0x095ea7b3\n          eq\n          tag_4\n          jumpi\n          dup1\n          0x1d43cc98\n          eq\n          tag_5\n          jumpi\n          dup1\n          0x23b872dd\n          eq\n          tag_6\n          jumpi\n          dup1\n          0x313ce567\n          eq\n          tag_7\n          jumpi\n        tag_2:\n          0x00\n          dup1\n          revert\n            /* \"DISNEY/Copy_ERC20.sol\":1982:2031  string public constant name = \"ERC20BlockchainAZ\" */\n        tag_3:\n          tag_15\n          tag_16\n          jump\t// in\n        tag_15:\n          mload(0x40)\n          tag_17\n          swap2\n          swap1\n          tag_18\n          jump\t// in\n        tag_17:\n          mload(0x40)\n          dup1\n          swap2\n          sub\n          swap1\n          return\n            /* \"DISNEY/Copy_ERC20.sol\":3803:4057  function approve(address _delegate, uint256 _numTokens)... */\n        tag_4:\n          tag_19\n          0x04\n          dup1\n          calldatasize\n          sub\n          dup2\n          add\n          swap1\n          tag_20\n          swap2\n          swap1\n          tag_21\n          jump\t// in\n        tag_20:\n          tag_22\n          jump\t// in\n        tag_19:\n          mload(0x40)\n          tag_23\n          swap2\n          swap1\n          tag_24\n          jump\t// in\n        tag_23:\n          mload(0x40)\n          dup1\n          swap2\n          sub\n          swap1\n          return\n            /* \"DISNEY/Copy_ERC20.sol\":2483:2643  function increaseTotalSupply(uint256 _newTokensAmount) public {... */\n        tag_5:\n          tag_25\n          0x04\n          dup1\n          calldatasize\n          sub\n          dup2\n          add\n          swap1\n          tag_26\n          swap2\n          swap1\n          tag_27\n          jump\t// in\n        tag_26:\n          tag_28\n          jump\t// in\n        tag_25:\n          stop\n            /* \"DISNEY/Copy_ERC20.sol\":4063:4591  function transferFrom(... */\n        tag_6:\n          tag_29\n          0x04\n          dup1\n          calldatasize\n          sub\n          dup2\n          add\n          swap1\n          tag_30\n          swap2\n          swap1\n          tag_31\n          jump\t// in\n        tag_30:\n          tag_32\n          jump\t// in\n        tag_29:\n          mload(0x40)\n          tag_33\n          swap2\n          swap1\n          tag_24\n          jump\t// in\n        tag_33:\n          mload(0x40)\n          dup1\n          swap2\n          sub\n          swap1\n          return\n            /* \"DISNEY/Copy_ERC20.sol\":2080:2114  uint8 public constant decimals = 2 */\n        tag_7:\n          tag_34\n          tag_35\n          jump\t// in\n        tag_34:\n          mload(0x40)\n          tag_36\n          swap2\n          swap1\n          tag_37\n          jump\t// in\n        tag_36:\n          mload(0x40)\n          dup1\n          swap2\n          sub\n          swap1\n          return\n            /* \"DISNEY/Copy_ERC20.sol\":3000:3401  function transferDisney(address _client, address _recipient, uint256 _numTokens)... */\n        tag_8:\n          tag_38\n          0x04\n          dup1\n          calldatasize\n          sub\n          dup2\n          add\n          swap1\n          tag_39\n          swap2\n          swap1\n          tag_31\n          jump\t// in\n        tag_39:\n          tag_40\n          jump\t// in\n        tag_38:\n          mload(0x40)\n          tag_41\n          swap2\n          swap1\n          tag_24\n          jump\t// in\n        tag_41:\n          mload(0x40)\n          dup1\n          swap2\n          sub\n          swap1\n          return\n            /* \"DISNEY/Copy_ERC20.sol\":2649:2809  function balanceOf(address _tokenOwner)... */\n        tag_9:\n          tag_42\n          0x04\n          dup1\n          calldatasize\n          sub\n          dup2\n          add\n          swap1\n          tag_43\n          swap2\n          swap1\n          tag_44\n          jump\t// in\n        tag_43:\n          tag_45\n          jump\t// in\n        tag_42:\n          mload(0x40)\n          tag_46\n          swap2\n          swap1\n          tag_47\n          jump\t// in\n        tag_46:\n          mload(0x40)\n          dup1\n          swap2\n          sub\n          swap1\n          return\n            /* \"DISNEY/Copy_ERC20.sol\":2037:2074  string public constant symbol = \"ERC\" */\n        tag_10:\n          tag_48\n          tag_49\n          jump\t// in\n        tag_48:\n          mload(0x40)\n          tag_50\n          swap2\n          swap1\n          tag_18\n          jump\t// in\n        tag_50:\n          mload(0x40)\n          dup1\n          swap2\n          sub\n          swap1\n          return\n            /* \"DISNEY/Copy_ERC20.sol\":2381:2477  function totalSuply() public view override returns (uint256) {... */\n        tag_11:\n          tag_51\n          tag_52\n          jump\t// in\n        tag_51:\n          mload(0x40)\n          tag_53\n          swap2\n          swap1\n          tag_47\n          jump\t// in\n        tag_53:\n          mload(0x40)\n          dup1\n          swap2\n          sub\n          swap1\n          return\n            /* \"DISNEY/Copy_ERC20.sol\":3407:3797  function transfer(address _recipient, uint256 _numTokens)... */\n        tag_12:\n          tag_54\n          0x04\n          dup1\n          calldatasize\n          sub\n          dup2\n          add\n          swap1\n          tag_55\n          swap2\n          swap1\n          tag_21\n          jump\t// in\n        tag_55:\n          tag_56\n          jump\t// in\n        tag_54:\n          mload(0x40)\n          tag_57\n          swap2\n          swap1\n          tag_24\n          jump\t// in\n        tag_57:\n          mload(0x40)\n          dup1\n          swap2\n          sub\n          swap1\n          return\n            /* \"DISNEY/Copy_ERC20.sol\":2815:2994  function allowance(address _owner, address _delegate)... */\n        tag_13:\n          tag_58\n          0x04\n          dup1\n          calldatasize\n          sub\n          dup2\n          add\n          swap1\n          tag_59\n          swap2\n          swap1\n          tag_60\n          jump\t// in\n        tag_59:\n          tag_61\n          jump\t// in\n        tag_58:\n          mload(0x40)\n          tag_62\n          swap2\n          swap1\n          tag_47\n          jump\t// in\n        tag_62:\n          mload(0x40)\n          dup1\n          swap2\n          sub\n          swap1\n          return\n            /* \"DISNEY/Copy_ERC20.sol\":1982:2031  string public constant name = \"ERC20BlockchainAZ\" */\n        tag_16:\n          mload(0x40)\n          dup1\n          0x40\n          add\n          0x40\n          mstore\n          dup1\n          0x11\n          dup2\n          mstore\n          0x20\n          add\n          0x4552433230426c6f636b636861696e415a000000000000000000000000000000\n          dup2\n          mstore\n          pop\n          dup2\n          jump\t// out\n            /* \"DISNEY/Copy_ERC20.sol\":3803:4057  function approve(address _delegate, uint256 _numTokens)... */\n        tag_22:\n            /* \"DISNEY/Copy_ERC20.sol\":3908:3912  bool */\n          0x00\n            /* \"DISNEY/Copy_ERC20.sol\":3961:3971  _numTokens */\n          dup2\n            /* \"DISNEY/Copy_ERC20.sol\":3928:3935  allowed */\n          0x01\n            /* \"DISNEY/Copy_ERC20.sol\":3928:3947  allowed[msg.sender] */\n          0x00\n            /* \"DISNEY/Copy_ERC20.sol\":3936:3946  msg.sender */\n          caller\n            /* \"DISNEY/Copy_ERC20.sol\":3928:3947  allowed[msg.sender] */\n          0xffffffffffffffffffffffffffffffffffffffff\n          and\n          0xffffffffffffffffffffffffffffffffffffffff\n          and\n          dup2\n          mstore\n          0x20\n          add\n          swap1\n          dup2\n          mstore\n          0x20\n          add\n          0x00\n          keccak256\n            /* \"DISNEY/Copy_ERC20.sol\":3928:3958  allowed[msg.sender][_delegate] */\n          0x00\n            /* \"DISNEY/Copy_ERC20.sol\":3948:3957  _delegate */\n          dup6\n            /* \"DISNEY/Copy_ERC20.sol\":3928:3958  allowed[msg.sender][_delegate] */\n          0xffffffffffffffffffffffffffffffffffffffff\n          and\n          0xffffffffffffffffffffffffffffffffffffffff\n          and\n          dup2\n          mstore\n          0x20\n          add\n          swap1\n          dup2\n          mstore\n          0x20\n          add\n          0x00\n          keccak256\n            /* \"DISNEY/Copy_ERC20.sol\":3928:3971  allowed[msg.sender][_delegate] = _numTokens */\n          dup2\n          swap1\n          sstore\n          pop\n            /* \"DISNEY/Copy_ERC20.sol\":4007:4016  _delegate */\n          dup3\n            /* \"DISNEY/Copy_ERC20.sol\":3986:4029  Approval(msg.sender, _delegate, _numTokens) */\n          0xffffffffffffffffffffffffffffffffffffffff\n          and\n            /* \"DISNEY/Copy_ERC20.sol\":3995:4005  msg.sender */\n          caller\n            /* \"DISNEY/Copy_ERC20.sol\":3986:4029  Approval(msg.sender, _delegate, _numTokens) */\n          0xffffffffffffffffffffffffffffffffffffffff\n          and\n          0x8c5be1e5ebec7d5bd14f71427d1e84f3dd0314c0f7b2291e5b200ac8c7c3b925\n            /* \"DISNEY/Copy_ERC20.sol\":4018:4028  _numTokens */\n          dup5\n            /* \"DISNEY/Copy_ERC20.sol\":3986:4029  Approval(msg.sender, _delegate, _numTokens) */\n          mload(0x40)\n          tag_64\n          swap2\n          swap1\n          tag_47\n          jump\t// in\n        tag_64:\n          mload(0x40)\n          dup1\n          swap2\n          sub\n          swap1\n          log3\n            /* \"DISNEY/Copy_ERC20.sol\":4046:4050  true */\n          0x01\n            /* \"DISNEY/Copy_ERC20.sol\":4039:4050  return true */\n          swap1\n          pop\n            /* \"DISNEY/Copy_ERC20.sol\":3803:4057  function approve(address _delegate, uint256 _numTokens)... */\n          swap3\n          swap2\n          pop\n          pop\n          jump\t// out\n            /* \"DISNEY/Copy_ERC20.sol\":2483:2643  function increaseTotalSupply(uint256 _newTokensAmount) public {... */\n        tag_28:\n            /* \"DISNEY/Copy_ERC20.sol\":2570:2586  _newTokensAmount */\n          dup1\n            /* \"DISNEY/Copy_ERC20.sol\":2555:2566  totalSuply_ */\n          0x02\n          0x00\n            /* \"DISNEY/Copy_ERC20.sol\":2555:2586  totalSuply_ += _newTokensAmount */\n          dup3\n          dup3\n          sload\n          tag_66\n          swap2\n          swap1\n          tag_67\n          jump\t// in\n        tag_66:\n          swap3\n          pop\n          pop\n          dup2\n          swap1\n          sstore\n          pop\n            /* \"DISNEY/Copy_ERC20.sol\":2620:2636  _newTokensAmount */\n          dup1\n            /* \"DISNEY/Copy_ERC20.sol\":2596:2604  balances */\n          0x00\n            /* \"DISNEY/Copy_ERC20.sol\":2596:2616  balances[msg.sender] */\n          dup1\n            /* \"DISNEY/Copy_ERC20.sol\":2605:2615  msg.sender */\n          caller\n            /* \"DISNEY/Copy_ERC20.sol\":2596:2616  balances[msg.sender] */\n          0xffffffffffffffffffffffffffffffffffffffff\n          and\n          0xffffffffffffffffffffffffffffffffffffffff\n          and\n          dup2\n          mstore\n          0x20\n          add\n          swap1\n          dup2\n          mstore\n          0x20\n          add\n          0x00\n          keccak256\n          0x00\n            /* \"DISNEY/Copy_ERC20.sol\":2596:2636  balances[msg.sender] += _newTokensAmount */\n          dup3\n          dup3\n          sload\n          tag_68\n          swap2\n          swap1\n          tag_67\n          jump\t// in\n        tag_68:\n          swap3\n          pop\n          pop\n          dup2\n          swap1\n          sstore\n          pop\n            /* \"DISNEY/Copy_ERC20.sol\":2483:2643  function increaseTotalSupply(uint256 _newTokensAmount) public {... */\n          pop\n          jump\t// out\n            /* \"DISNEY/Copy_ERC20.sol\":4063:4591  function transferFrom(... */\n        tag_32:\n            /* \"DISNEY/Copy_ERC20.sol\":4192:4196  bool */\n          0x00\n            /* \"DISNEY/Copy_ERC20.sol\":4230:4238  balances */\n          dup1\n            /* \"DISNEY/Copy_ERC20.sol\":4230:4246  balances[_owner] */\n          0x00\n            /* \"DISNEY/Copy_ERC20.sol\":4239:4245  _owner */\n          dup6\n            /* \"DISNEY/Copy_ERC20.sol\":4230:4246  balances[_owner] */\n          0xffffffffffffffffffffffffffffffffffffffff\n          and\n          0xffffffffffffffffffffffffffffffffffffffff\n          and\n          dup2\n          mstore\n          0x20\n          add\n          swap1\n          dup2\n          mstore\n          0x20\n          add\n          0x00\n          keccak256\n          sload\n            /* \"DISNEY/Copy_ERC20.sol\":4216:4226  _numTokens */\n          dup3\n            /* \"DISNEY/Copy_ERC20.sol\":4216:4246  _numTokens <= balances[_owner] */\n          gt\n          iszero\n            /* \"DISNEY/Copy_ERC20.sol\":4208:4247  require(_numTokens <= balances[_owner]) */\n          tag_70\n          jumpi\n          0x00\n          dup1\n          revert\n        tag_70:\n            /* \"DISNEY/Copy_ERC20.sol\":4279:4286  allowed */\n          0x01\n            /* \"DISNEY/Copy_ERC20.sol\":4279:4294  allowed[_owner] */\n          0x00\n            /* \"DISNEY/Copy_ERC20.sol\":4287:4293  _owner */\n          dup6\n            /* \"DISNEY/Copy_ERC20.sol\":4279:4294  allowed[_owner] */\n          0xffffffffffffffffffffffffffffffffffffffff\n          and\n          0xffffffffffffffffffffffffffffffffffffffff\n          and\n          dup2\n          mstore\n          0x20\n          add\n          swap1\n          dup2\n          mstore\n          0x20\n          add\n          0x00\n          keccak256\n            /* \"DISNEY/Copy_ERC20.sol\":4279:4306  allowed[_owner][msg.sender] */\n          0x00\n            /* \"DISNEY/Copy_ERC20.sol\":4295:4305  msg.sender */\n          caller\n            /* \"DISNEY/Copy_ERC20.sol\":4279:4306  allowed[_owner][msg.sender] */\n          0xffffffffffffffffffffffffffffffffffffffff\n          and\n          0xffffffffffffffffffffffffffffffffffffffff\n          and\n          dup2\n          mstore\n          0x20\n          add\n          swap1\n          dup2\n          mstore\n          0x20\n          add\n          0x00\n          keccak256\n          sload\n            /* \"DISNEY/Copy_ERC20.sol\":4265:4275  _numTokens */\n          dup3\n            /* \"DISNEY/Copy_ERC20.sol\":4265:4306  _numTokens <= allowed[_owner][msg.sender] */\n          gt\n          iszero\n            /* \"DISNEY/Copy_ERC20.sol\":4257:4307  require(_numTokens <= allowed[_owner][msg.sender]) */\n          tag_71\n          jumpi\n          0x00\n          dup1\n          revert\n        tag_71:\n            /* \"DISNEY/Copy_ERC20.sol\":4364:4374  _numTokens */\n          dup2\n            /* \"DISNEY/Copy_ERC20.sol\":4345:4353  balances */\n          0x00\n            /* \"DISNEY/Copy_ERC20.sol\":4345:4361  balances[_owner] */\n          dup1\n            /* \"DISNEY/Copy_ERC20.sol\":4354:4360  _owner */\n          dup7\n            /* \"DISNEY/Copy_ERC20.sol\":4345:4361  balances[_owner] */\n          0xffffffffffffffffffffffffffffffffffffffff\n          and\n          0xffffffffffffffffffffffffffffffffffffffff\n          and\n          dup2\n          mstore\n          0x20\n          add\n          swap1\n          dup2\n          mstore\n          0x20\n          add\n          0x00\n          keccak256\n          sload\n            /* \"DISNEY/Copy_ERC20.sol\":4345:4374  balances[_owner] - _numTokens */\n          tag_72\n          swap2\n          swap1\n          tag_73\n          jump\t// in\n        tag_72:\n            /* \"DISNEY/Copy_ERC20.sol\":4326:4334  balances */\n          0x00\n            /* \"DISNEY/Copy_ERC20.sol\":4326:4342  balances[_owner] */\n          dup1\n            /* \"DISNEY/Copy_ERC20.sol\":4335:4341  _owner */\n          dup7\n            /* \"DISNEY/Copy_ERC20.sol\":4326:4342  balances[_owner] */\n          0xffffffffffffffffffffffffffffffffffffffff\n          and\n          0xffffffffffffffffffffffffffffffffffffffff\n          and\n          dup2\n          mstore\n          0x20\n          add\n          swap1\n          dup2\n          mstore\n          0x20\n          add\n          0x00\n          keccak256\n            /* \"DISNEY/Copy_ERC20.sol\":4326:4374  balances[_owner] = balances[_owner] - _numTokens */\n          dup2\n          swap1\n          sstore\n          pop\n            /* \"DISNEY/Copy_ERC20.sol\":4444:4454  _numTokens */\n          dup2\n            /* \"DISNEY/Copy_ERC20.sol\":4414:4421  allowed */\n          0x01\n            /* \"DISNEY/Copy_ERC20.sol\":4414:4429  allowed[_owner] */\n          0x00\n            /* \"DISNEY/Copy_ERC20.sol\":4422:4428  _owner */\n          dup7\n            /* \"DISNEY/Copy_ERC20.sol\":4414:4429  allowed[_owner] */\n          0xffffffffffffffffffffffffffffffffffffffff\n          and\n          0xffffffffffffffffffffffffffffffffffffffff\n          and\n          dup2\n          mstore\n          0x20\n          add\n          swap1\n          dup2\n          mstore\n          0x20\n          add\n          0x00\n          keccak256\n            /* \"DISNEY/Copy_ERC20.sol\":4414:4441  allowed[_owner][msg.sender] */\n          0x00\n            /* \"DISNEY/Copy_ERC20.sol\":4430:4440  msg.sender */\n          caller\n            /* \"DISNEY/Copy_ERC20.sol\":4414:4441  allowed[_owner][msg.sender] */\n          0xffffffffffffffffffffffffffffffffffffffff\n          and\n          0xffffffffffffffffffffffffffffffffffffffff\n          and\n          dup2\n          mstore\n          0x20\n          add\n          swap1\n          dup2\n          mstore\n          0x20\n          add\n          0x00\n          keccak256\n          sload\n            /* \"DISNEY/Copy_ERC20.sol\":4414:4454  allowed[_owner][msg.sender] - _numTokens */\n          tag_74\n          swap2\n          swap1\n          tag_73\n          jump\t// in\n        tag_74:\n            /* \"DISNEY/Copy_ERC20.sol\":4384:4391  allowed */\n          0x01\n            /* \"DISNEY/Copy_ERC20.sol\":4384:4399  allowed[_owner] */\n          0x00\n            /* \"DISNEY/Copy_ERC20.sol\":4392:4398  _owner */\n          dup7\n            /* \"DISNEY/Copy_ERC20.sol\":4384:4399  allowed[_owner] */\n          0xffffffffffffffffffffffffffffffffffffffff\n          and\n          0xffffffffffffffffffffffffffffffffffffffff\n          and\n          dup2\n          mstore\n          0x20\n          add\n          swap1\n          dup2\n          mstore\n          0x20\n          add\n          0x00\n          keccak256\n            /* \"DISNEY/Copy_ERC20.sol\":4384:4411  allowed[_owner][msg.sender] */\n          0x00\n            /* \"DISNEY/Copy_ERC20.sol\":4400:4410  msg.sender */\n          caller\n            /* \"DISNEY/Copy_ERC20.sol\":4384:4411  allowed[_owner][msg.sender] */\n          0xffffffffffffffffffffffffffffffffffffffff\n          and\n          0xffffffffffffffffffffffffffffffffffffffff\n          and\n          dup2\n          mstore\n          0x20\n          add\n          swap1\n          dup2\n          mstore\n          0x20\n          add\n          0x00\n          keccak256\n            /* \"DISNEY/Copy_ERC20.sol\":4384:4454  allowed[_owner][msg.sender] = allowed[_owner][msg.sender] - _numTokens */\n          dup2\n          swap1\n          sstore\n          pop\n            /* \"DISNEY/Copy_ERC20.sol\":4502:4512  _numTokens */\n          dup2\n            /* \"DISNEY/Copy_ERC20.sol\":4483:4491  balances */\n          0x00\n            /* \"DISNEY/Copy_ERC20.sol\":4483:4499  balances[_buyer] */\n          dup1\n            /* \"DISNEY/Copy_ERC20.sol\":4492:4498  _buyer */\n          dup6\n            /* \"DISNEY/Copy_ERC20.sol\":4483:4499  balances[_buyer] */\n          0xffffffffffffffffffffffffffffffffffffffff\n          and\n          0xffffffffffffffffffffffffffffffffffffffff\n          and\n          dup2\n          mstore\n          0x20\n          add\n          swap1\n          dup2\n          mstore\n          0x20\n          add\n          0x00\n          keccak256\n          sload\n            /* \"DISNEY/Copy_ERC20.sol\":4483:4512  balances[_buyer] + _numTokens */\n          tag_75\n          swap2\n          swap1\n          tag_67\n          jump\t// in\n        tag_75:\n            /* \"DISNEY/Copy_ERC20.sol\":4464:4472  balances */\n          0x00\n            /* \"DISNEY/Copy_ERC20.sol\":4464:4480  balances[_buyer] */\n          dup1\n            /* \"DISNEY/Copy_ERC20.sol\":4473:4479  _buyer */\n          dup6\n            /* \"DISNEY/Copy_ERC20.sol\":4464:4480  balances[_buyer] */\n          0xffffffffffffffffffffffffffffffffffffffff\n          and\n          0xffffffffffffffffffffffffffffffffffffffff\n          and\n          dup2\n          mstore\n          0x20\n          add\n          swap1\n          dup2\n          mstore\n          0x20\n          add\n          0x00\n          keccak256\n            /* \"DISNEY/Copy_ERC20.sol\":4464:4512  balances[_buyer] = balances[_buyer] + _numTokens */\n          dup2\n          swap1\n          sstore\n          pop\n            /* \"DISNEY/Copy_ERC20.sol\":4544:4550  _buyer */\n          dup3\n            /* \"DISNEY/Copy_ERC20.sol\":4527:4563  Transfer(_owner, _buyer, _numTokens) */\n          0xffffffffffffffffffffffffffffffffffffffff\n          and\n            /* \"DISNEY/Copy_ERC20.sol\":4536:4542  _owner */\n          dup5\n            /* \"DISNEY/Copy_ERC20.sol\":4527:4563  Transfer(_owner, _buyer, _numTokens) */\n          0xffffffffffffffffffffffffffffffffffffffff\n          and\n          0xddf252ad1be2c89b69c2b068fc378daa952ba7f163c4a11628f55a4df523b3ef\n            /* \"DISNEY/Copy_ERC20.sol\":4552:4562  _numTokens */\n          dup5\n            /* \"DISNEY/Copy_ERC20.sol\":4527:4563  Transfer(_owner, _buyer, _numTokens) */\n          mload(0x40)\n          tag_76\n          swap2\n          swap1\n          tag_47\n          jump\t// in\n        tag_76:\n          mload(0x40)\n          dup1\n          swap2\n          sub\n          swap1\n          log3\n            /* \"DISNEY/Copy_ERC20.sol\":4580:4584  true */\n          0x01\n            /* \"DISNEY/Copy_ERC20.sol\":4573:4584  return true */\n          swap1\n          pop\n            /* \"DISNEY/Copy_ERC20.sol\":4063:4591  function transferFrom(... */\n          swap4\n          swap3\n          pop\n          pop\n          pop\n          jump\t// out\n            /* \"DISNEY/Copy_ERC20.sol\":2080:2114  uint8 public constant decimals = 2 */\n        tag_35:\n            /* \"DISNEY/Copy_ERC20.sol\":2113:2114  2 */\n          0x02\n            /* \"DISNEY/Copy_ERC20.sol\":2080:2114  uint8 public constant decimals = 2 */\n          dup2\n          jump\t// out\n            /* \"DISNEY/Copy_ERC20.sol\":3000:3401  function transferDisney(address _client, address _recipient, uint256 _numTokens)... */\n        tag_40:\n            /* \"DISNEY/Copy_ERC20.sol\":3130:3134  bool */\n          0x00\n            /* \"DISNEY/Copy_ERC20.sol\":3172:3180  balances */\n          dup1\n            /* \"DISNEY/Copy_ERC20.sol\":3172:3189  balances[_client] */\n          0x00\n            /* \"DISNEY/Copy_ERC20.sol\":3181:3188  _client */\n          dup6\n            /* \"DISNEY/Copy_ERC20.sol\":3172:3189  balances[_client] */\n          0xffffffffffffffffffffffffffffffffffffffff\n          and\n          0xffffffffffffffffffffffffffffffffffffffff\n          and\n          dup2\n          mstore\n          0x20\n          add\n          swap1\n          dup2\n          mstore\n          0x20\n          add\n          0x00\n          keccak256\n          sload\n            /* \"DISNEY/Copy_ERC20.sol\":3158:3168  _numTokens */\n          dup3\n            /* \"DISNEY/Copy_ERC20.sol\":3158:3189  _numTokens <= balances[_client] */\n          gt\n          iszero\n            /* \"DISNEY/Copy_ERC20.sol\":3150:3190  require(_numTokens <= balances[_client]) */\n          tag_78\n          jumpi\n          0x00\n          dup1\n          revert\n        tag_78:\n            /* \"DISNEY/Copy_ERC20.sol\":3241:3251  _numTokens */\n          dup2\n            /* \"DISNEY/Copy_ERC20.sol\":3221:3229  balances */\n          0x00\n            /* \"DISNEY/Copy_ERC20.sol\":3221:3238  balances[_client] */\n          dup1\n            /* \"DISNEY/Copy_ERC20.sol\":3230:3237  _client */\n          dup7\n            /* \"DISNEY/Copy_ERC20.sol\":3221:3238  balances[_client] */\n          0xffffffffffffffffffffffffffffffffffffffff\n          and\n          0xffffffffffffffffffffffffffffffffffffffff\n          and\n          dup2\n          mstore\n          0x20\n          add\n          swap1\n          dup2\n          mstore\n          0x20\n          add\n          0x00\n          keccak256\n          sload\n            /* \"DISNEY/Copy_ERC20.sol\":3221:3251  balances[_client] - _numTokens */\n          tag_79\n          swap2\n          swap1\n          tag_73\n          jump\t// in\n        tag_79:\n            /* \"DISNEY/Copy_ERC20.sol\":3201:3209  balances */\n          0x00\n            /* \"DISNEY/Copy_ERC20.sol\":3201:3218  balances[_client] */\n          dup1\n            /* \"DISNEY/Copy_ERC20.sol\":3210:3217  _client */\n          dup7\n            /* \"DISNEY/Copy_ERC20.sol\":3201:3218  balances[_client] */\n          0xffffffffffffffffffffffffffffffffffffffff\n          and\n          0xffffffffffffffffffffffffffffffffffffffff\n          and\n          dup2\n          mstore\n          0x20\n          add\n          swap1\n          dup2\n          mstore\n          0x20\n          add\n          0x00\n          keccak256\n            /* \"DISNEY/Copy_ERC20.sol\":3201:3251  balances[_client] = balances[_client] - _numTokens */\n          dup2\n          swap1\n          sstore\n          pop\n            /* \"DISNEY/Copy_ERC20.sol\":3307:3317  _numTokens */\n          dup2\n            /* \"DISNEY/Copy_ERC20.sol\":3284:3292  balances */\n          0x00\n            /* \"DISNEY/Copy_ERC20.sol\":3284:3304  balances[_recipient] */\n          dup1\n            /* \"DISNEY/Copy_ERC20.sol\":3293:3303  _recipient */\n          dup6\n            /* \"DISNEY/Copy_ERC20.sol\":3284:3304  balances[_recipient] */\n          0xffffffffffffffffffffffffffffffffffffffff\n          and\n          0xffffffffffffffffffffffffffffffffffffffff\n          and\n          dup2\n          mstore\n          0x20\n          add\n          swap1\n          dup2\n          mstore\n          0x20\n          add\n          0x00\n          keccak256\n          sload\n            /* \"DISNEY/Copy_ERC20.sol\":3284:3317  balances[_recipient] + _numTokens */\n          tag_80\n          swap2\n          swap1\n          tag_67\n          jump\t// in\n        tag_80:\n            /* \"DISNEY/Copy_ERC20.sol\":3261:3269  balances */\n          0x00\n            /* \"DISNEY/Copy_ERC20.sol\":3261:3281  balances[_recipient] */\n          dup1\n            /* \"DISNEY/Copy_ERC20.sol\":3270:3280  _recipient */\n          dup6\n            /* \"DISNEY/Copy_ERC20.sol\":3261:3281  balances[_recipient] */\n          0xffffffffffffffffffffffffffffffffffffffff\n          and\n          0xffffffffffffffffffffffffffffffffffffffff\n          and\n          dup2\n          mstore\n          0x20\n          add\n          swap1\n          dup2\n          mstore\n          0x20\n          add\n          0x00\n          keccak256\n            /* \"DISNEY/Copy_ERC20.sol\":3261:3317  balances[_recipient] = balances[_recipient] + _numTokens */\n          dup2\n          swap1\n          sstore\n          pop\n            /* \"DISNEY/Copy_ERC20.sol\":3350:3360  _recipient */\n          dup3\n            /* \"DISNEY/Copy_ERC20.sol\":3332:3373  Transfer(_client, _recipient, _numTokens) */\n          0xffffffffffffffffffffffffffffffffffffffff\n          and\n            /* \"DISNEY/Copy_ERC20.sol\":3341:3348  _client */\n          dup5\n            /* \"DISNEY/Copy_ERC20.sol\":3332:3373  Transfer(_client, _recipient, _numTokens) */\n          0xffffffffffffffffffffffffffffffffffffffff\n          and\n          0xddf252ad1be2c89b69c2b068fc378daa952ba7f163c4a11628f55a4df523b3ef\n            /* \"DISNEY/Copy_ERC20.sol\":3362:3372  _numTokens */\n          dup5\n            /* \"DISNEY/Copy_ERC20.sol\":3332:3373  Transfer(_client, _recipient, _numTokens) */\n          mload(0x40)\n          tag_81\n          swap2\n          swap1\n          tag_47\n          jump\t// in\n        tag_81:\n          mload(0x40)\n          dup1\n          swap2\n          sub\n          swap1\n          log3\n            /* \"DISNEY/Copy_ERC20.sol\":3390:3394  true */\n          0x01\n            /* \"DISNEY/Copy_ERC20.sol\":3383:3394  return true */\n          swap1\n          pop\n            /* \"DISNEY/Copy_ERC20.sol\":3000:3401  function transferDisney(address _client, address _recipient, uint256 _numTokens)... */\n          swap4\n          swap3\n          pop\n          pop\n          pop\n          jump\t// out\n            /* \"DISNEY/Copy_ERC20.sol\":2649:2809  function balanceOf(address _tokenOwner)... */\n        tag_45:\n            /* \"DISNEY/Copy_ERC20.sol\":2751:2758  uint256 */\n          0x00\n            /* \"DISNEY/Copy_ERC20.sol\":2781:2789  balances */\n          dup1\n            /* \"DISNEY/Copy_ERC20.sol\":2781:2802  balances[_tokenOwner] */\n          0x00\n            /* \"DISNEY/Copy_ERC20.sol\":2790:2801  _tokenOwner */\n          dup4\n            /* \"DISNEY/Copy_ERC20.sol\":2781:2802  balances[_tokenOwner] */\n          0xffffffffffffffffffffffffffffffffffffffff\n          and\n          0xffffffffffffffffffffffffffffffffffffffff\n          and\n          dup2\n          mstore\n          0x20\n          add\n          swap1\n          dup2\n          mstore\n          0x20\n          add\n          0x00\n          keccak256\n          sload\n            /* \"DISNEY/Copy_ERC20.sol\":2774:2802  return balances[_tokenOwner] */\n          swap1\n          pop\n            /* \"DISNEY/Copy_ERC20.sol\":2649:2809  function balanceOf(address _tokenOwner)... */\n          swap2\n          swap1\n          pop\n          jump\t// out\n            /* \"DISNEY/Copy_ERC20.sol\":2037:2074  string public constant symbol = \"ERC\" */\n        tag_49:\n          mload(0x40)\n          dup1\n          0x40\n          add\n          0x40\n          mstore\n          dup1\n          0x03\n          dup2\n          mstore\n          0x20\n          add\n          0x4552430000000000000000000000000000000000000000000000000000000000\n          dup2\n          mstore\n          pop\n          dup2\n          jump\t// out\n            /* \"DISNEY/Copy_ERC20.sol\":2381:2477  function totalSuply() public view override returns (uint256) {... */\n        tag_52:\n            /* \"DISNEY/Copy_ERC20.sol\":2433:2440  uint256 */\n          0x00\n            /* \"DISNEY/Copy_ERC20.sol\":2459:2470  totalSuply_ */\n          sload(0x02)\n            /* \"DISNEY/Copy_ERC20.sol\":2452:2470  return totalSuply_ */\n          swap1\n          pop\n            /* \"DISNEY/Copy_ERC20.sol\":2381:2477  function totalSuply() public view override returns (uint256) {... */\n          swap1\n          jump\t// out\n            /* \"DISNEY/Copy_ERC20.sol\":3407:3797  function transfer(address _recipient, uint256 _numTokens)... */\n        tag_56:\n            /* \"DISNEY/Copy_ERC20.sol\":3514:3518  bool */\n          0x00\n            /* \"DISNEY/Copy_ERC20.sol\":3556:3564  balances */\n          dup1\n            /* \"DISNEY/Copy_ERC20.sol\":3556:3576  balances[msg.sender] */\n          0x00\n            /* \"DISNEY/Copy_ERC20.sol\":3565:3575  msg.sender */\n          caller\n            /* \"DISNEY/Copy_ERC20.sol\":3556:3576  balances[msg.sender] */\n          0xffffffffffffffffffffffffffffffffffffffff\n          and\n          0xffffffffffffffffffffffffffffffffffffffff\n          and\n          dup2\n          mstore\n          0x20\n          add\n          swap1\n          dup2\n          mstore\n          0x20\n          add\n          0x00\n          keccak256\n          sload\n            /* \"DISNEY/Copy_ERC20.sol\":3542:3552  _numTokens */\n          dup3\n            /* \"DISNEY/Copy_ERC20.sol\":3542:3576  _numTokens <= balances[msg.sender] */\n          gt\n          iszero\n            /* \"DISNEY/Copy_ERC20.sol\":3534:3577  require(_numTokens <= balances[msg.sender]) */\n          tag_85\n          jumpi\n          0x00\n          dup1\n          revert\n        tag_85:\n            /* \"DISNEY/Copy_ERC20.sol\":3634:3644  _numTokens */\n          dup2\n            /* \"DISNEY/Copy_ERC20.sol\":3611:3619  balances */\n          0x00\n            /* \"DISNEY/Copy_ERC20.sol\":3611:3631  balances[msg.sender] */\n          dup1\n            /* \"DISNEY/Copy_ERC20.sol\":3620:3630  msg.sender */\n          caller\n            /* \"DISNEY/Copy_ERC20.sol\":3611:3631  balances[msg.sender] */\n          0xffffffffffffffffffffffffffffffffffffffff\n          and\n          0xffffffffffffffffffffffffffffffffffffffff\n          and\n          dup2\n          mstore\n          0x20\n          add\n          swap1\n          dup2\n          mstore\n          0x20\n          add\n          0x00\n          keccak256\n          sload\n            /* \"DISNEY/Copy_ERC20.sol\":3611:3644  balances[msg.sender] - _numTokens */\n          tag_86\n          swap2\n          swap1\n          tag_73\n          jump\t// in\n        tag_86:\n            /* \"DISNEY/Copy_ERC20.sol\":3588:3596  balances */\n          0x00\n            /* \"DISNEY/Copy_ERC20.sol\":3588:3608  balances[msg.sender] */\n          dup1\n            /* \"DISNEY/Copy_ERC20.sol\":3597:3607  msg.sender */\n          caller\n            /* \"DISNEY/Copy_ERC20.sol\":3588:3608  balances[msg.sender] */\n          0xffffffffffffffffffffffffffffffffffffffff\n          and\n          0xffffffffffffffffffffffffffffffffffffffff\n          and\n          dup2\n          mstore\n          0x20\n          add\n          swap1\n          dup2\n          mstore\n          0x20\n          add\n          0x00\n          keccak256\n            /* \"DISNEY/Copy_ERC20.sol\":3588:3644  balances[msg.sender] = balances[msg.sender] - _numTokens */\n          dup2\n          swap1\n          sstore\n          pop\n            /* \"DISNEY/Copy_ERC20.sol\":3700:3710  _numTokens */\n          dup2\n            /* \"DISNEY/Copy_ERC20.sol\":3677:3685  balances */\n          0x00\n            /* \"DISNEY/Copy_ERC20.sol\":3677:3697  balances[_recipient] */\n          dup1\n            /* \"DISNEY/Copy_ERC20.sol\":3686:3696  _recipient */\n          dup6\n            /* \"DISNEY/Copy_ERC20.sol\":3677:3697  balances[_recipient] */\n          0xffffffffffffffffffffffffffffffffffffffff\n          and\n          0xffffffffffffffffffffffffffffffffffffffff\n          and\n          dup2\n          mstore\n          0x20\n          add\n          swap1\n          dup2\n          mstore\n          0x20\n          add\n          0x00\n          keccak256\n          sload\n            /* \"DISNEY/Copy_ERC20.sol\":3677:3710  balances[_recipient] + _numTokens */\n          tag_87\n          swap2\n          swap1\n          tag_67\n          jump\t// in\n        tag_87:\n            /* \"DISNEY/Copy_ERC20.sol\":3654:3662  balances */\n          0x00\n            /* \"DISNEY/Copy_ERC20.sol\":3654:3674  balances[_recipient] */\n          dup1\n            /* \"DISNEY/Copy_ERC20.sol\":3663:3673  _recipient */\n          dup6\n            /* \"DISNEY/Copy_ERC20.sol\":3654:3674  balances[_recipient] */\n          0xffffffffffffffffffffffffffffffffffffffff\n          and\n          0xffffffffffffffffffffffffffffffffffffffff\n          and\n          dup2\n          mstore\n          0x20\n          add\n          swap1\n          dup2\n          mstore\n          0x20\n          add\n          0x00\n          keccak256\n            /* \"DISNEY/Copy_ERC20.sol\":3654:3710  balances[_recipient] = balances[_recipient] + _numTokens */\n          dup2\n          swap1\n          sstore\n          pop\n            /* \"DISNEY/Copy_ERC20.sol\":3746:3756  _recipient */\n          dup3\n            /* \"DISNEY/Copy_ERC20.sol\":3725:3769  Transfer(msg.sender, _recipient, _numTokens) */\n          0xffffffffffffffffffffffffffffffffffffffff\n          and\n            /* \"DISNEY/Copy_ERC20.sol\":3734:3744  msg.sender */\n          caller\n            /* \"DISNEY/Copy_ERC20.sol\":3725:3769  Transfer(msg.sender, _recipient, _numTokens) */\n          0xffffffffffffffffffffffffffffffffffffffff\n          and\n          0xddf252ad1be2c89b69c2b068fc378daa952ba7f163c4a11628f55a4df523b3ef\n            /* \"DISNEY/Copy_ERC20.sol\":3758:3768  _numTokens */\n          dup5\n            /* \"DISNEY/Copy_ERC20.sol\":3725:3769  Transfer(msg.sender, _recipient, _numTokens) */\n          mload(0x40)\n          tag_88\n          swap2\n          swap1\n          tag_47\n          jump\t// in\n        tag_88:\n          mload(0x40)\n          dup1\n          swap2\n          sub\n          swap1\n          log3\n            /* \"DISNEY/Copy_ERC20.sol\":3786:3790  true */\n          0x01\n            /* \"DISNEY/Copy_ERC20.sol\":3779:3790  return true */\n          swap1\n          pop\n            /* \"DISNEY/Copy_ERC20.sol\":3407:3797  function transfer(address _recipient, uint256 _numTokens)... */\n          swap3\n          swap2\n          pop\n          pop\n          jump\t// out\n            /* \"DISNEY/Copy_ERC20.sol\":2815:2994  function allowance(address _owner, address _delegate)... */\n        tag_61:\n            /* \"DISNEY/Copy_ERC20.sol\":2931:2938  uint256 */\n          0x00\n            /* \"DISNEY/Copy_ERC20.sol\":2961:2968  allowed */\n          0x01\n            /* \"DISNEY/Copy_ERC20.sol\":2961:2976  allowed[_owner] */\n          0x00\n            /* \"DISNEY/Copy_ERC20.sol\":2969:2975  _owner */\n          dup5\n            /* \"DISNEY/Copy_ERC20.sol\":2961:2976  allowed[_owner] */\n          0xffffffffffffffffffffffffffffffffffffffff\n          and\n          0xffffffffffffffffffffffffffffffffffffffff\n          and\n          dup2\n          mstore\n          0x20\n          add\n          swap1\n          dup2\n          mstore\n          0x20\n          add\n          0x00\n          keccak256\n            /* \"DISNEY/Copy_ERC20.sol\":2961:2987  allowed[_owner][_delegate] */\n          0x00\n            /* \"DISNEY/Copy_ERC20.sol\":2977:2986  _delegate */\n          dup4\n            /* \"DISNEY/Copy_ERC20.sol\":2961:2987  allowed[_owner][_delegate] */\n          0xffffffffffffffffffffffffffffffffffffffff\n          and\n          0xffffffffffffffffffffffffffffffffffffffff\n          and\n          dup2\n          mstore\n          0x20\n          add\n          swap1\n          dup2\n          mstore\n          0x20\n          add\n          0x00\n          keccak256\n          sload\n            /* \"DISNEY/Copy_ERC20.sol\":2954:2987  return allowed[_owner][_delegate] */\n          swap1\n          pop\n            /* \"DISNEY/Copy_ERC20.sol\":2815:2994  function allowance(address _owner, address _delegate)... */\n          swap3\n          swap2\n          pop\n          pop\n          jump\t// out\n            /* \"#utility.yul\":7:106   */\n        tag_90:\n            /* \"#utility.yul\":59:65   */\n          0x00\n            /* \"#utility.yul\":93:98   */\n          dup2\n            /* \"#utility.yul\":87:99   */\n          mload\n            /* \"#utility.yul\":77:99   */\n          swap1\n          pop\n            /* \"#utility.yul\":7:106   */\n          swap2\n          swap1\n          pop\n          jump\t// out\n            /* \"#utility.yul\":112:281   */\n        tag_91:\n            /* \"#utility.yul\":196:207   */\n          0x00\n            /* \"#utility.yul\":230:236   */\n          dup3\n            /* \"#utility.yul\":225:228   */\n          dup3\n            /* \"#utility.yul\":218:237   */\n          mstore\n            /* \"#utility.yul\":270:274   */\n          0x20\n            /* \"#utility.yul\":265:268   */\n          dup3\n            /* \"#utility.yul\":261:275   */\n          add\n            /* \"#utility.yul\":246:275   */\n          swap1\n          pop\n            /* \"#utility.yul\":112:281   */\n          swap3\n          swap2\n          pop\n          pop\n          jump\t// out\n            /* \"#utility.yul\":287:533   */\n        tag_92:\n            /* \"#utility.yul\":368:369   */\n          0x00\n            /* \"#utility.yul\":378:491   */\n        tag_115:\n            /* \"#utility.yul\":392:398   */\n          dup4\n            /* \"#utility.yul\":389:390   */\n          dup2\n            /* \"#utility.yul\":386:399   */\n          lt\n            /* \"#utility.yul\":378:491   */\n          iszero\n          tag_117\n          jumpi\n            /* \"#utility.yul\":477:478   */\n          dup1\n            /* \"#utility.yul\":472:475   */\n          dup3\n            /* \"#utility.yul\":468:479   */\n          add\n            /* \"#utility.yul\":462:480   */\n          mload\n            /* \"#utility.yul\":458:459   */\n          dup2\n            /* \"#utility.yul\":453:456   */\n          dup5\n            /* \"#utility.yul\":449:460   */\n          add\n            /* \"#utility.yul\":442:481   */\n          mstore\n            /* \"#utility.yul\":414:416   */\n          0x20\n            /* \"#utility.yul\":411:412   */\n          dup2\n            /* \"#utility.yul\":407:417   */\n          add\n            /* \"#utility.yul\":402:417   */\n          swap1\n          pop\n            /* \"#utility.yul\":378:491   */\n          jump(tag_115)\n        tag_117:\n            /* \"#utility.yul\":525:526   */\n          0x00\n            /* \"#utility.yul\":516:522   */\n          dup5\n            /* \"#utility.yul\":511:514   */\n          dup5\n            /* \"#utility.yul\":507:523   */\n          add\n            /* \"#utility.yul\":500:527   */\n          mstore\n            /* \"#utility.yul\":349:533   */\n          pop\n            /* \"#utility.yul\":287:533   */\n          pop\n          pop\n          pop\n          jump\t// out\n            /* \"#utility.yul\":539:641   */\n        tag_93:\n            /* \"#utility.yul\":580:586   */\n          0x00\n            /* \"#utility.yul\":631:633   */\n          0x1f\n            /* \"#utility.yul\":627:634   */\n          not\n            /* \"#utility.yul\":622:624   */\n          0x1f\n            /* \"#utility.yul\":615:620   */\n          dup4\n            /* \"#utility.yul\":611:625   */\n          add\n            /* \"#utility.yul\":607:635   */\n          and\n            /* \"#utility.yul\":597:635   */\n          swap1\n          pop\n            /* \"#utility.yul\":539:641   */\n          swap2\n          swap1\n          pop\n          jump\t// out\n            /* \"#utility.yul\":647:1024   */\n        tag_94:\n            /* \"#utility.yul\":735:738   */\n          0x00\n            /* \"#utility.yul\":763:802   */\n          tag_120\n            /* \"#utility.yul\":796:801   */\n          dup3\n            /* \"#utility.yul\":763:802   */\n          tag_90\n          jump\t// in\n        tag_120:\n            /* \"#utility.yul\":818:889   */\n          tag_121\n            /* \"#utility.yul\":882:888   */\n          dup2\n            /* \"#utility.yul\":877:880   */\n          dup6\n            /* \"#utility.yul\":818:889   */\n          tag_91\n          jump\t// in\n        tag_121:\n            /* \"#utility.yul\":811:889   */\n          swap4\n          pop\n            /* \"#utility.yul\":898:963   */\n          tag_122\n            /* \"#utility.yul\":956:962   */\n          dup2\n            /* \"#utility.yul\":951:954   */\n          dup6\n            /* \"#utility.yul\":944:948   */\n          0x20\n            /* \"#utility.yul\":937:942   */\n          dup7\n            /* \"#utility.yul\":933:949   */\n          add\n            /* \"#utility.yul\":898:963   */\n          tag_92\n          jump\t// in\n        tag_122:\n            /* \"#utility.yul\":988:1017   */\n          tag_123\n            /* \"#utility.yul\":1010:1016   */\n          dup2\n            /* \"#utility.yul\":988:1017   */\n          tag_93\n          jump\t// in\n        tag_123:\n            /* \"#utility.yul\":983:986   */\n          dup5\n            /* \"#utility.yul\":979:1018   */\n          add\n            /* \"#utility.yul\":972:1018   */\n          swap2\n          pop\n            /* \"#utility.yul\":739:1024   */\n          pop\n            /* \"#utility.yul\":647:1024   */\n          swap3\n          swap2\n          pop\n          pop\n          jump\t// out\n            /* \"#utility.yul\":1030:1343   */\n        tag_18:\n            /* \"#utility.yul\":1143:1147   */\n          0x00\n            /* \"#utility.yul\":1181:1183   */\n          0x20\n            /* \"#utility.yul\":1170:1179   */\n          dup3\n            /* \"#utility.yul\":1166:1184   */\n          add\n            /* \"#utility.yul\":1158:1184   */\n          swap1\n          pop\n            /* \"#utility.yul\":1230:1239   */\n          dup2\n            /* \"#utility.yul\":1224:1228   */\n          dup2\n            /* \"#utility.yul\":1220:1240   */\n          sub\n            /* \"#utility.yul\":1216:1217   */\n          0x00\n            /* \"#utility.yul\":1205:1214   */\n          dup4\n            /* \"#utility.yul\":1201:1218   */\n          add\n            /* \"#utility.yul\":1194:1241   */\n          mstore\n            /* \"#utility.yul\":1258:1336   */\n          tag_125\n            /* \"#utility.yul\":1331:1335   */\n          dup2\n            /* \"#utility.yul\":1322:1328   */\n          dup5\n            /* \"#utility.yul\":1258:1336   */\n          tag_94\n          jump\t// in\n        tag_125:\n            /* \"#utility.yul\":1250:1336   */\n          swap1\n          pop\n            /* \"#utility.yul\":1030:1343   */\n          swap3\n          swap2\n          pop\n          pop\n          jump\t// out\n            /* \"#utility.yul\":1430:1547   */\n        tag_96:\n            /* \"#utility.yul\":1539:1540   */\n          0x00\n            /* \"#utility.yul\":1536:1537   */\n          dup1\n            /* \"#utility.yul\":1529:1541   */\n          revert\n            /* \"#utility.yul\":1676:1802   */\n        tag_98:\n            /* \"#utility.yul\":1713:1720   */\n          0x00\n            /* \"#utility.yul\":1753:1795   */\n          0xffffffffffffffffffffffffffffffffffffffff\n            /* \"#utility.yul\":1746:1751   */\n          dup3\n            /* \"#utility.yul\":1742:1796   */\n          and\n            /* \"#utility.yul\":1731:1796   */\n          swap1\n          pop\n            /* \"#utility.yul\":1676:1802   */\n          swap2\n          swap1\n          pop\n          jump\t// out\n            /* \"#utility.yul\":1808:1904   */\n        tag_99:\n            /* \"#utility.yul\":1845:1852   */\n          0x00\n            /* \"#utility.yul\":1874:1898   */\n          tag_131\n            /* \"#utility.yul\":1892:1897   */\n          dup3\n            /* \"#utility.yul\":1874:1898   */\n          tag_98\n          jump\t// in\n        tag_131:\n            /* \"#utility.yul\":1863:1898   */\n          swap1\n          pop\n            /* \"#utility.yul\":1808:1904   */\n          swap2\n          swap1\n          pop\n          jump\t// out\n            /* \"#utility.yul\":1910:2032   */\n        tag_100:\n            /* \"#utility.yul\":1983:2007   */\n          tag_133\n            /* \"#utility.yul\":2001:2006   */\n          dup2\n            /* \"#utility.yul\":1983:2007   */\n          tag_99\n          jump\t// in\n        tag_133:\n            /* \"#utility.yul\":1976:1981   */\n          dup2\n            /* \"#utility.yul\":1973:2008   */\n          eq\n            /* \"#utility.yul\":1963:2026   */\n          tag_134\n          jumpi\n            /* \"#utility.yul\":2022:2023   */\n          0x00\n            /* \"#utility.yul\":2019:2020   */\n          dup1\n            /* \"#utility.yul\":2012:2024   */\n          revert\n            /* \"#utility.yul\":1963:2026   */\n        tag_134:\n            /* \"#utility.yul\":1910:2032   */\n          pop\n          jump\t// out\n            /* \"#utility.yul\":2038:2177   */\n        tag_101:\n            /* \"#utility.yul\":2084:2089   */\n          0x00\n            /* \"#utility.yul\":2122:2128   */\n          dup2\n            /* \"#utility.yul\":2109:2129   */\n          calldataload\n            /* \"#utility.yul\":2100:2129   */\n          swap1\n          pop\n            /* \"#utility.yul\":2138:2171   */\n          tag_136\n            /* \"#utility.yul\":2165:2170   */\n          dup2\n            /* \"#utility.yul\":2138:2171   */\n          tag_100\n          jump\t// in\n        tag_136:\n            /* \"#utility.yul\":2038:2177   */\n          swap3\n          swap2\n          pop\n          pop\n          jump\t// out\n            /* \"#utility.yul\":2183:2260   */\n        tag_102:\n            /* \"#utility.yul\":2220:2227   */\n          0x00\n            /* \"#utility.yul\":2249:2254   */\n          dup2\n            /* \"#utility.yul\":2238:2254   */\n          swap1\n          pop\n            /* \"#utility.yul\":2183:2260   */\n          swap2\n          swap1\n          pop\n          jump\t// out\n            /* \"#utility.yul\":2266:2388   */\n        tag_103:\n            /* \"#utility.yul\":2339:2363   */\n          tag_139\n            /* \"#utility.yul\":2357:2362   */\n          dup2\n            /* \"#utility.yul\":2339:2363   */\n          tag_102\n          jump\t// in\n        tag_139:\n            /* \"#utility.yul\":2332:2337   */\n          dup2\n            /* \"#utility.yul\":2329:2364   */\n          eq\n            /* \"#utility.yul\":2319:2382   */\n          tag_140\n          jumpi\n            /* \"#utility.yul\":2378:2379   */\n          0x00\n            /* \"#utility.yul\":2375:2376   */\n          dup1\n            /* \"#utility.yul\":2368:2380   */\n          revert\n            /* \"#utility.yul\":2319:2382   */\n        tag_140:\n            /* \"#utility.yul\":2266:2388   */\n          pop\n          jump\t// out\n            /* \"#utility.yul\":2394:2533   */\n        tag_104:\n            /* \"#utility.yul\":2440:2445   */\n          0x00\n            /* \"#utility.yul\":2478:2484   */\n          dup2\n            /* \"#utility.yul\":2465:2485   */\n          calldataload\n            /* \"#utility.yul\":2456:2485   */\n          swap1\n          pop\n            /* \"#utility.yul\":2494:2527   */\n          tag_142\n            /* \"#utility.yul\":2521:2526   */\n          dup2\n            /* \"#utility.yul\":2494:2527   */\n          tag_103\n          jump\t// in\n        tag_142:\n            /* \"#utility.yul\":2394:2533   */\n          swap3\n          swap2\n          pop\n          pop\n          jump\t// out\n            /* \"#utility.yul\":2539:3013   */\n        tag_21:\n            /* \"#utility.yul\":2607:2613   */\n          0x00\n            /* \"#utility.yul\":2615:2621   */\n          dup1\n            /* \"#utility.yul\":2664:2666   */\n          0x40\n            /* \"#utility.yul\":2652:2661   */\n          dup4\n            /* \"#utility.yul\":2643:2650   */\n          dup6\n            /* \"#utility.yul\":2639:2662   */\n          sub\n            /* \"#utility.yul\":2635:2667   */\n          slt\n            /* \"#utility.yul\":2632:2751   */\n          iszero\n          tag_144\n          jumpi\n            /* \"#utility.yul\":2670:2749   */\n          tag_145\n          tag_96\n          jump\t// in\n        tag_145:\n            /* \"#utility.yul\":2632:2751   */\n        tag_144:\n            /* \"#utility.yul\":2790:2791   */\n          0x00\n            /* \"#utility.yul\":2815:2868   */\n          tag_146\n            /* \"#utility.yul\":2860:2867   */\n          dup6\n            /* \"#utility.yul\":2851:2857   */\n          dup3\n            /* \"#utility.yul\":2840:2849   */\n          dup7\n            /* \"#utility.yul\":2836:2858   */\n          add\n            /* \"#utility.yul\":2815:2868   */\n          tag_101\n          jump\t// in\n        tag_146:\n            /* \"#utility.yul\":2805:2868   */\n          swap3\n          pop\n            /* \"#utility.yul\":2761:2878   */\n          pop\n            /* \"#utility.yul\":2917:2919   */\n          0x20\n            /* \"#utility.yul\":2943:2996   */\n          tag_147\n            /* \"#utility.yul\":2988:2995   */\n          dup6\n            /* \"#utility.yul\":2979:2985   */\n          dup3\n            /* \"#utility.yul\":2968:2977   */\n          dup7\n            /* \"#utility.yul\":2964:2986   */\n          add\n            /* \"#utility.yul\":2943:2996   */\n          tag_104\n          jump\t// in\n        tag_147:\n            /* \"#utility.yul\":2933:2996   */\n          swap2\n          pop\n            /* \"#utility.yul\":2888:3006   */\n          pop\n            /* \"#utility.yul\":2539:3013   */\n          swap3\n          pop\n          swap3\n          swap1\n          pop\n          jump\t// out\n            /* \"#utility.yul\":3019:3109   */\n        tag_105:\n            /* \"#utility.yul\":3053:3060   */\n          0x00\n            /* \"#utility.yul\":3096:3101   */\n          dup2\n            /* \"#utility.yul\":3089:3102   */\n          iszero\n            /* \"#utility.yul\":3082:3103   */\n          iszero\n            /* \"#utility.yul\":3071:3103   */\n          swap1\n          pop\n            /* \"#utility.yul\":3019:3109   */\n          swap2\n          swap1\n          pop\n          jump\t// out\n            /* \"#utility.yul\":3115:3224   */\n        tag_106:\n            /* \"#utility.yul\":3196:3217   */\n          tag_150\n            /* \"#utility.yul\":3211:3216   */\n          dup2\n            /* \"#utility.yul\":3196:3217   */\n          tag_105\n          jump\t// in\n        tag_150:\n            /* \"#utility.yul\":3191:3194   */\n          dup3\n            /* \"#utility.yul\":3184:3218   */\n          mstore\n            /* \"#utility.yul\":3115:3224   */\n          pop\n          pop\n          jump\t// out\n            /* \"#utility.yul\":3230:3440   */\n        tag_24:\n            /* \"#utility.yul\":3317:3321   */\n          0x00\n            /* \"#utility.yul\":3355:3357   */\n          0x20\n            /* \"#utility.yul\":3344:3353   */\n          dup3\n            /* \"#utility.yul\":3340:3358   */\n          add\n            /* \"#utility.yul\":3332:3358   */\n          swap1\n          pop\n            /* \"#utility.yul\":3368:3433   */\n          tag_152\n            /* \"#utility.yul\":3430:3431   */\n          0x00\n            /* \"#utility.yul\":3419:3428   */\n          dup4\n            /* \"#utility.yul\":3415:3432   */\n          add\n            /* \"#utility.yul\":3406:3412   */\n          dup5\n            /* \"#utility.yul\":3368:3433   */\n          tag_106\n          jump\t// in\n        tag_152:\n            /* \"#utility.yul\":3230:3440   */\n          swap3\n          swap2\n          pop\n          pop\n          jump\t// out\n            /* \"#utility.yul\":3446:3775   */\n        tag_27:\n            /* \"#utility.yul\":3505:3511   */\n          0x00\n            /* \"#utility.yul\":3554:3556   */\n          0x20\n            /* \"#utility.yul\":3542:3551   */\n          dup3\n            /* \"#utility.yul\":3533:3540   */\n          dup5\n            /* \"#utility.yul\":3529:3552   */\n          sub\n            /* \"#utility.yul\":3525:3557   */\n          slt\n            /* \"#utility.yul\":3522:3641   */\n          iszero\n          tag_154\n          jumpi\n            /* \"#utility.yul\":3560:3639   */\n          tag_155\n          tag_96\n          jump\t// in\n        tag_155:\n            /* \"#utility.yul\":3522:3641   */\n        tag_154:\n            /* \"#utility.yul\":3680:3681   */\n          0x00\n            /* \"#utility.yul\":3705:3758   */\n          tag_156\n            /* \"#utility.yul\":3750:3757   */\n          dup5\n            /* \"#utility.yul\":3741:3747   */\n          dup3\n            /* \"#utility.yul\":3730:3739   */\n          dup6\n            /* \"#utility.yul\":3726:3748   */\n          add\n            /* \"#utility.yul\":3705:3758   */\n          tag_104\n          jump\t// in\n        tag_156:\n            /* \"#utility.yul\":3695:3758   */\n          swap2\n          pop\n            /* \"#utility.yul\":3651:3768   */\n          pop\n            /* \"#utility.yul\":3446:3775   */\n          swap3\n          swap2\n          pop\n          pop\n          jump\t// out\n            /* \"#utility.yul\":3781:4400   */\n        tag_31:\n            /* \"#utility.yul\":3858:3864   */\n          0x00\n            /* \"#utility.yul\":3866:3872   */\n          dup1\n            /* \"#utility.yul\":3874:3880   */\n          0x00\n            /* \"#utility.yul\":3923:3925   */\n          0x60\n            /* \"#utility.yul\":3911:3920   */\n          dup5\n            /* \"#utility.yul\":3902:3909   */\n          dup7\n            /* \"#utility.yul\":3898:3921   */\n          sub\n            /* \"#utility.yul\":3894:3926   */\n          slt\n            /* \"#utility.yul\":3891:4010   */\n          iszero\n          tag_158\n          jumpi\n            /* \"#utility.yul\":3929:4008   */\n          tag_159\n          tag_96\n          jump\t// in\n        tag_159:\n            /* \"#utility.yul\":3891:4010   */\n        tag_158:\n            /* \"#utility.yul\":4049:4050   */\n          0x00\n            /* \"#utility.yul\":4074:4127   */\n          tag_160\n            /* \"#utility.yul\":4119:4126   */\n          dup7\n            /* \"#utility.yul\":4110:4116   */\n          dup3\n            /* \"#utility.yul\":4099:4108   */\n          dup8\n            /* \"#utility.yul\":4095:4117   */\n          add\n            /* \"#utility.yul\":4074:4127   */\n          tag_101\n          jump\t// in\n        tag_160:\n            /* \"#utility.yul\":4064:4127   */\n          swap4\n          pop\n            /* \"#utility.yul\":4020:4137   */\n          pop\n            /* \"#utility.yul\":4176:4178   */\n          0x20\n            /* \"#utility.yul\":4202:4255   */\n          tag_161\n            /* \"#utility.yul\":4247:4254   */\n          dup7\n            /* \"#utility.yul\":4238:4244   */\n          dup3\n            /* \"#utility.yul\":4227:4236   */\n          dup8\n            /* \"#utility.yul\":4223:4245   */\n          add\n            /* \"#utility.yul\":4202:4255   */\n          tag_101\n          jump\t// in\n        tag_161:\n            /* \"#utility.yul\":4192:4255   */\n          swap3\n          pop\n            /* \"#utility.yul\":4147:4265   */\n          pop\n            /* \"#utility.yul\":4304:4306   */\n          0x40\n            /* \"#utility.yul\":4330:4383   */\n          tag_162\n            /* \"#utility.yul\":4375:4382   */\n          dup7\n            /* \"#utility.yul\":4366:4372   */\n          dup3\n            /* \"#utility.yul\":4355:4364   */\n          dup8\n            /* \"#utility.yul\":4351:4373   */\n          add\n            /* \"#utility.yul\":4330:4383   */\n          tag_104\n          jump\t// in\n        tag_162:\n            /* \"#utility.yul\":4320:4383   */\n          swap2\n          pop\n            /* \"#utility.yul\":4275:4393   */\n          pop\n            /* \"#utility.yul\":3781:4400   */\n          swap3\n          pop\n          swap3\n          pop\n          swap3\n          jump\t// out\n            /* \"#utility.yul\":4406:4492   */\n        tag_107:\n            /* \"#utility.yul\":4441:4448   */\n          0x00\n            /* \"#utility.yul\":4481:4485   */\n          0xff\n            /* \"#utility.yul\":4474:4479   */\n          dup3\n            /* \"#utility.yul\":4470:4486   */\n          and\n            /* \"#utility.yul\":4459:4486   */\n          swap1\n          pop\n            /* \"#utility.yul\":4406:4492   */\n          swap2\n          swap1\n          pop\n          jump\t// out\n            /* \"#utility.yul\":4498:4610   */\n        tag_108:\n            /* \"#utility.yul\":4581:4603   */\n          tag_165\n            /* \"#utility.yul\":4597:4602   */\n          dup2\n            /* \"#utility.yul\":4581:4603   */\n          tag_107\n          jump\t// in\n        tag_165:\n            /* \"#utility.yul\":4576:4579   */\n          dup3\n            /* \"#utility.yul\":4569:4604   */\n          mstore\n            /* \"#utility.yul\":4498:4610   */\n          pop\n          pop\n          jump\t// out\n            /* \"#utility.yul\":4616:4830   */\n        tag_37:\n            /* \"#utility.yul\":4705:4709   */\n          0x00\n            /* \"#utility.yul\":4743:4745   */\n          0x20\n            /* \"#utility.yul\":4732:4741   */\n          dup3\n            /* \"#utility.yul\":4728:4746   */\n          add\n            /* \"#utility.yul\":4720:4746   */\n          swap1\n          pop\n            /* \"#utility.yul\":4756:4823   */\n          tag_167\n            /* \"#utility.yul\":4820:4821   */\n          0x00\n            /* \"#utility.yul\":4809:4818   */\n          dup4\n            /* \"#utility.yul\":4805:4822   */\n          add\n            /* \"#utility.yul\":4796:4802   */\n          dup5\n            /* \"#utility.yul\":4756:4823   */\n          tag_108\n          jump\t// in\n        tag_167:\n            /* \"#utility.yul\":4616:4830   */\n          swap3\n          swap2\n          pop\n          pop\n          jump\t// out\n            /* \"#utility.yul\":4836:5165   */\n        tag_44:\n            /* \"#utility.yul\":4895:4901   */\n          0x00\n            /* \"#utility.yul\":4944:4946   */\n          0x20\n            /* \"#utility.yul\":4932:4941   */\n          dup3\n            /* \"#utility.yul\":4923:4930   */\n          dup5\n            /* \"#utility.yul\":4919:4942   */\n          sub\n            /* \"#utility.yul\":4915:4947   */\n          slt\n            /* \"#utility.yul\":4912:5031   */\n          iszero\n          tag_169\n          jumpi\n            /* \"#utility.yul\":4950:5029   */\n          tag_170\n          tag_96\n          jump\t// in\n        tag_170:\n            /* \"#utility.yul\":4912:5031   */\n        tag_169:\n            /* \"#utility.yul\":5070:5071   */\n          0x00\n            /* \"#utility.yul\":5095:5148   */\n          tag_171\n            /* \"#utility.yul\":5140:5147   */\n          dup5\n            /* \"#utility.yul\":5131:5137   */\n          dup3\n            /* \"#utility.yul\":5120:5129   */\n          dup6\n            /* \"#utility.yul\":5116:5138   */\n          add\n            /* \"#utility.yul\":5095:5148   */\n          tag_101\n          jump\t// in\n        tag_171:\n            /* \"#utility.yul\":5085:5148   */\n          swap2\n          pop\n            /* \"#utility.yul\":5041:5158   */\n          pop\n            /* \"#utility.yul\":4836:5165   */\n          swap3\n          swap2\n          pop\n          pop\n          jump\t// out\n            /* \"#utility.yul\":5171:5289   */\n        tag_109:\n            /* \"#utility.yul\":5258:5282   */\n          tag_173\n            /* \"#utility.yul\":5276:5281   */\n          dup2\n            /* \"#utility.yul\":5258:5282   */\n          tag_102\n          jump\t// in\n        tag_173:\n            /* \"#utility.yul\":5253:5256   */\n          dup3\n            /* \"#utility.yul\":5246:5283   */\n          mstore\n            /* \"#utility.yul\":5171:5289   */\n          pop\n          pop\n          jump\t// out\n            /* \"#utility.yul\":5295:5517   */\n        tag_47:\n            /* \"#utility.yul\":5388:5392   */\n          0x00\n            /* \"#utility.yul\":5426:5428   */\n          0x20\n            /* \"#utility.yul\":5415:5424   */\n          dup3\n            /* \"#utility.yul\":5411:5429   */\n          add\n            /* \"#utility.yul\":5403:5429   */\n          swap1\n          pop\n            /* \"#utility.yul\":5439:5510   */\n          tag_175\n            /* \"#utility.yul\":5507:5508   */\n          0x00\n            /* \"#utility.yul\":5496:5505   */\n          dup4\n            /* \"#utility.yul\":5492:5509   */\n          add\n            /* \"#utility.yul\":5483:5489   */\n          dup5\n            /* \"#utility.yul\":5439:5510   */\n          tag_109\n          jump\t// in\n        tag_175:\n            /* \"#utility.yul\":5295:5517   */\n          swap3\n          swap2\n          pop\n          pop\n          jump\t// out\n            /* \"#utility.yul\":5523:5997   */\n        tag_60:\n            /* \"#utility.yul\":5591:5597   */\n          0x00\n            /* \"#utility.yul\":5599:5605   */\n          dup1\n            /* \"#utility.yul\":5648:5650   */\n          0x40\n            /* \"#utility.yul\":5636:5645   */\n          dup4\n            /* \"#utility.yul\":5627:5634   */\n          dup6\n            /* \"#utility.yul\":5623:5646   */\n          sub\n            /* \"#utility.yul\":5619:5651   */\n          slt\n            /* \"#utility.yul\":5616:5735   */\n          iszero\n          tag_177\n          jumpi\n            /* \"#utility.yul\":5654:5733   */\n          tag_178\n          tag_96\n          jump\t// in\n        tag_178:\n            /* \"#utility.yul\":5616:5735   */\n        tag_177:\n            /* \"#utility.yul\":5774:5775   */\n          0x00\n            /* \"#utility.yul\":5799:5852   */\n          tag_179\n            /* \"#utility.yul\":5844:5851   */\n          dup6\n            /* \"#utility.yul\":5835:5841   */\n          dup3\n            /* \"#utility.yul\":5824:5833   */\n          dup7\n            /* \"#utility.yul\":5820:5842   */\n          add\n            /* \"#utility.yul\":5799:5852   */\n          tag_101\n          jump\t// in\n        tag_179:\n            /* \"#utility.yul\":5789:5852   */\n          swap3\n          pop\n            /* \"#utility.yul\":5745:5862   */\n          pop\n            /* \"#utility.yul\":5901:5903   */\n          0x20\n            /* \"#utility.yul\":5927:5980   */\n          tag_180\n            /* \"#utility.yul\":5972:5979   */\n          dup6\n            /* \"#utility.yul\":5963:5969   */\n          dup3\n            /* \"#utility.yul\":5952:5961   */\n          dup7\n            /* \"#utility.yul\":5948:5970   */\n          add\n            /* \"#utility.yul\":5927:5980   */\n          tag_101\n          jump\t// in\n        tag_180:\n            /* \"#utility.yul\":5917:5980   */\n          swap2\n          pop\n            /* \"#utility.yul\":5872:5990   */\n          pop\n            /* \"#utility.yul\":5523:5997   */\n          swap3\n          pop\n          swap3\n          swap1\n          pop\n          jump\t// out\n            /* \"#utility.yul\":6003:6183   */\n        tag_110:\n            /* \"#utility.yul\":6051:6128   */\n          0x4e487b7100000000000000000000000000000000000000000000000000000000\n            /* \"#utility.yul\":6048:6049   */\n          0x00\n            /* \"#utility.yul\":6041:6129   */\n          mstore\n            /* \"#utility.yul\":6148:6152   */\n          0x11\n            /* \"#utility.yul\":6145:6146   */\n          0x04\n            /* \"#utility.yul\":6138:6153   */\n          mstore\n            /* \"#utility.yul\":6172:6176   */\n          0x24\n            /* \"#utility.yul\":6169:6170   */\n          0x00\n            /* \"#utility.yul\":6162:6177   */\n          revert\n            /* \"#utility.yul\":6189:6380   */\n        tag_67:\n            /* \"#utility.yul\":6229:6232   */\n          0x00\n            /* \"#utility.yul\":6248:6268   */\n          tag_183\n            /* \"#utility.yul\":6266:6267   */\n          dup3\n            /* \"#utility.yul\":6248:6268   */\n          tag_102\n          jump\t// in\n        tag_183:\n            /* \"#utility.yul\":6243:6268   */\n          swap2\n          pop\n            /* \"#utility.yul\":6282:6302   */\n          tag_184\n            /* \"#utility.yul\":6300:6301   */\n          dup4\n            /* \"#utility.yul\":6282:6302   */\n          tag_102\n          jump\t// in\n        tag_184:\n            /* \"#utility.yul\":6277:6302   */\n          swap3\n          pop\n            /* \"#utility.yul\":6325:6326   */\n          dup3\n            /* \"#utility.yul\":6322:6323   */\n          dup3\n            /* \"#utility.yul\":6318:6327   */\n          add\n            /* \"#utility.yul\":6311:6327   */\n          swap1\n          pop\n            /* \"#utility.yul\":6346:6349   */\n          dup1\n            /* \"#utility.yul\":6343:6344   */\n          dup3\n            /* \"#utility.yul\":6340:6350   */\n          gt\n            /* \"#utility.yul\":6337:6373   */\n          iszero\n          tag_185\n          jumpi\n            /* \"#utility.yul\":6353:6371   */\n          tag_186\n          tag_110\n          jump\t// in\n        tag_186:\n            /* \"#utility.yul\":6337:6373   */\n        tag_185:\n            /* \"#utility.yul\":6189:6380   */\n          swap3\n          swap2\n          pop\n          pop\n          jump\t// out\n            /* \"#utility.yul\":6386:6580   */\n        tag_73:\n            /* \"#utility.yul\":6426:6430   */\n          0x00\n            /* \"#utility.yul\":6446:6466   */\n          tag_188\n            /* \"#utility.yul\":6464:6465   */\n          dup3\n            /* \"#utility.yul\":6446:6466   */\n          tag_102\n          jump\t// in\n        tag_188:\n            /* \"#utility.yul\":6441:6466   */\n          swap2\n          pop\n            /* \"#utility.yul\":6480:6500   */\n          tag_189\n            /* \"#utility.yul\":6498:6499   */\n          dup4\n            /* \"#utility.yul\":6480:6500   */\n          tag_102\n          jump\t// in\n        tag_189:\n            /* \"#utility.yul\":6475:6500   */\n          swap3\n          pop\n            /* \"#utility.yul\":6524:6525   */\n          dup3\n            /* \"#utility.yul\":6521:6522   */\n          dup3\n            /* \"#utility.yul\":6517:6526   */\n          sub\n            /* \"#utility.yul\":6509:6526   */\n          swap1\n          pop\n            /* \"#utility.yul\":6548:6549   */\n          dup2\n            /* \"#utility.yul\":6542:6546   */\n          dup2\n            /* \"#utility.yul\":6539:6550   */\n          gt\n            /* \"#utility.yul\":6536:6573   */\n          iszero\n          tag_190\n          jumpi\n            /* \"#utility.yul\":6553:6571   */\n          tag_191\n          tag_110\n          jump\t// in\n        tag_191:\n            /* \"#utility.yul\":6536:6573   */\n        tag_190:\n            /* \"#utility.yul\":6386:6580   */\n          swap3\n          swap2\n          pop\n          pop\n          jump\t// out\n\n        auxdata: 0xa264697066735822122070d68a0febcbb7aa5e3f4fccf2bca6aeb2d2cd2c4ad9d6a11a4fb17dac21116e64736f6c63430008160033\n    }\n}\n",
				"bytecode": {
					"linkReferences": {},
					"object": "608060405234801562000010575f80fd5b506127106040516200002290620000cd565b6200002e91906200012e565b604051809103905ff08015801562000048573d5f803e3d5ffd5b505f806101000a81548173ffffffffffffffffffffffffffffffffffffffff021916908373ffffffffffffffffffffffffffffffffffffffff1602179055503360015f6101000a81548173ffffffffffffffffffffffffffffffffffffffff021916908373ffffffffffffffffffffffffffffffffffffffff16021790555062000149565b61108380620028e483390190565b5f819050919050565b5f819050919050565b5f819050919050565b5f62000116620001106200010a84620000db565b620000ed565b620000e4565b9050919050565b6200012881620000f6565b82525050565b5f602082019050620001435f8301846200011d565b92915050565b61278d80620001575f395ff3fe608060405260043610610108575f3560e01c80638da5cb5b11610094578063c29dd7c911610063578063c29dd7c91461033a578063ce2cfa3e14610356578063d3e1125f14610380578063e3ac2342146103aa578063f3a4eff9146103d257610108565b80638da5cb5b14610280578063949e8acd146102aa5780639c92cb88146102d45780639d124f92146102fc57610108565b806361eed2a9116100db57806361eed2a9146101a25780636c43bf2d146101de578063722713f71461020657806374985f9e146102305780637e1f2bb81461025857610108565b80630a5795f81461010c578063316ba08b146101365780633ae1786f1461015e578063427cff871461017a575b5f80fd5b348015610117575f80fd5b50610120610410565b60405161012d9190611910565b60405180910390f35b348015610141575f80fd5b5061015c60048036038101906101579190611a6d565b6104e4565b005b61017860048036038101906101739190611ae7565b610710565b005b348015610185575f80fd5b506101a0600480360381019061019b9190611a6d565b610888565b005b3480156101ad575f80fd5b506101c860048036038101906101c39190611b6c565b61098b565b6040516101d59190611ba6565b60405180910390f35b3480156101e9575f80fd5b5061020460048036038101906101ff9190611a6d565b6109a5565b005b348015610211575f80fd5b5061021a610aa8565b6040516102279190611ba6565b60405180910390f35b34801561023b575f80fd5b5061025660048036038101906102519190611bbf565b610b46565b005b348015610263575f80fd5b5061027e60048036038101906102799190611ae7565b610cc2565b005b34801561028b575f80fd5b50610294610ddb565b6040516102a19190611c39565b60405180910390f35b3480156102b5575f80fd5b506102be610e00565b6040516102cb9190611ba6565b60405180910390f35b3480156102df575f80fd5b506102fa60048036038101906102f59190611a6d565b610e9e565b005b348015610307575f80fd5b50610322600480360381019061031d9190611a6d565b6110ca565b60405161033193929190611cb4565b60405180910390f35b610354600480360381019061034f9190611ae7565b61119a565b005b348015610361575f80fd5b5061036a611380565b6040516103779190611910565b60405180910390f35b34801561038b575f80fd5b5061039461148f565b6040516103a19190611910565b60405180910390f35b3480156103b5575f80fd5b506103d060048036038101906103cb9190611bbf565b611563565b005b3480156103dd575f80fd5b506103f860048036038101906103f39190611a6d565b6116df565b60405161040793929190611cb4565b60405180910390f35b60606008805480602002602001604051908101604052809291908181526020015f905b828210156104db578382905f5260205f2001805461045090611d1d565b80601f016020809104026020016040519081016040528092919081815260200182805461047c90611d1d565b80156104c75780601f1061049e576101008083540402835291602001916104c7565b820191905f5260205f20905b8154815290600101906020018083116104aa57829003601f168201915b505050505081526020019060010190610433565b50505050905090565b600115156003826040516104f89190611d87565b90815260200160405180910390206002015f9054906101000a900460ff16151514610558576040517f08c379a000000000000000000000000000000000000000000000000000000000815260040161054f90611e0d565b60405180910390fd5b5f6003826040516105699190611d87565b9081526020016040518091039020600101549050610585610e00565b8111156105c7576040517f08c379a00000000000000000000000000000000000000000000000000000000081526004016105be90611e9b565b60405180910390fd5b5f8054906101000a900473ffffffffffffffffffffffffffffffffffffffff1673ffffffffffffffffffffffffffffffffffffffff16635e413c873330846040518463ffffffff1660e01b815260040161062393929190611ec8565b6020604051808303815f875af115801561063f573d5f803e3d5ffd5b505050506040513d601f19601f820116820180604052508101906106639190611f27565b5060055f3373ffffffffffffffffffffffffffffffffffffffff1673ffffffffffffffffffffffffffffffffffffffff1681526020019081526020015f2082908060018154018082558091505060019003905f5260205f20015f9091909190915090816106d091906120ef565b507f9afce6bb3ca182f6280637eb4d41eb11d64b8b0e0f8d26ddfa794491b88225e2828233604051610704939291906121be565b60405180910390a15050565b5f8111610752576040517f08c379a00000000000000000000000000000000000000000000000000000000081526004016107499061226a565b60405180910390fd5b61075a610e00565b81111561079c576040517f08c379a0000000000000000000000000000000000000000000000000000000008152600401610793906122f8565b60405180910390fd5b5f8054906101000a900473ffffffffffffffffffffffffffffffffffffffff1673ffffffffffffffffffffffffffffffffffffffff16635e413c873330846040518463ffffffff1660e01b81526004016107f893929190611ec8565b6020604051808303815f875af1158015610814573d5f803e3d5ffd5b505050506040513d601f19601f820116820180604052508101906108389190611f27565b503373ffffffffffffffffffffffffffffffffffffffff166108fc61085c836117af565b90811502906040515f60405180830381858888f19350505050158015610884573d5f803e3d5ffd5b5050565b3360015f9054906101000a900473ffffffffffffffffffffffffffffffffffffffff1673ffffffffffffffffffffffffffffffffffffffff168173ffffffffffffffffffffffffffffffffffffffff1614610918576040517f08c379a000000000000000000000000000000000000000000000000000000000815260040161090f90612386565b60405180910390fd5b5f6004836040516109299190611d87565b90815260200160405180910390206002015f6101000a81548160ff0219169083151502179055507f1a4069fd871c529f05f523669b5e830cc64f05f1c9f0fb6072e441658826e0d98260405161097f91906123a4565b60405180910390a15050565b6002602052805f5260405f205f91509050805f0154905081565b3360015f9054906101000a900473ffffffffffffffffffffffffffffffffffffffff1673ffffffffffffffffffffffffffffffffffffffff168173ffffffffffffffffffffffffffffffffffffffff1614610a35576040517f08c379a0000000000000000000000000000000000000000000000000000000008152600401610a2c90612386565b60405180910390fd5b5f600383604051610a469190611d87565b90815260200160405180910390206002015f6101000a81548160ff0219169083151502179055507fe09d9ce4ed0ff32e3fa945d6c80da90640852a79abe6ce4cfedea4a4987aa1ce82604051610a9c91906123a4565b60405180910390a15050565b5f805f9054906101000a900473ffffffffffffffffffffffffffffffffffffffff1673ffffffffffffffffffffffffffffffffffffffff166370a08231306040518263ffffffff1660e01b8152600401610b0291906123c4565b602060405180830381865afa158015610b1d573d5f803e3d5ffd5b505050506040513d601f19601f82011682018060405250810190610b4191906123f1565b905090565b3360015f9054906101000a900473ffffffffffffffffffffffffffffffffffffffff1673ffffffffffffffffffffffffffffffffffffffff168173ffffffffffffffffffffffffffffffffffffffff1614610bd6576040517f08c379a0000000000000000000000000000000000000000000000000000000008152600401610bcd90612386565b60405180910390fd5b604051806060016040528084815260200183815260200160011515815250600484604051610c049190611d87565b90815260200160405180910390205f820151815f019081610c2591906120ef565b50602082015181600101556040820151816002015f6101000a81548160ff021916908315150217905550905050600883908060018154018082558091505060019003905f5260205f20015f909190919091509081610c8391906120ef565b507f17bc45930669ab6f8432a2ddb7ee4168d1fe73374ee382344c4af01445a8243b8383604051610cb592919061241c565b60405180910390a1505050565b3360015f9054906101000a900473ffffffffffffffffffffffffffffffffffffffff1673ffffffffffffffffffffffffffffffffffffffff168173ffffffffffffffffffffffffffffffffffffffff1614610d52576040517f08c379a0000000000000000000000000000000000000000000000000000000008152600401610d4990612386565b60405180910390fd5b5f8054906101000a900473ffffffffffffffffffffffffffffffffffffffff1673ffffffffffffffffffffffffffffffffffffffff16631d43cc98836040518263ffffffff1660e01b8152600401610daa9190611ba6565b5f604051808303815f87803b158015610dc1575f80fd5b505af1158015610dd3573d5f803e3d5ffd5b505050505050565b60015f9054906101000a900473ffffffffffffffffffffffffffffffffffffffff1681565b5f805f9054906101000a900473ffffffffffffffffffffffffffffffffffffffff1673ffffffffffffffffffffffffffffffffffffffff166370a08231336040518263ffffffff1660e01b8152600401610e5a91906123c4565b602060405180830381865afa158015610e75573d5f803e3d5ffd5b505050506040513d601f19601f82011682018060405250810190610e9991906123f1565b905090565b60011515600482604051610eb29190611d87565b90815260200160405180910390206002015f9054906101000a900460ff16151514610f12576040517f08c379a0000000000000000000000000000000000000000000000000000000008152600401610f09906124ba565b60405180910390fd5b5f600482604051610f239190611d87565b9081526020016040518091039020600101549050610f3f610e00565b811115610f81576040517f08c379a0000000000000000000000000000000000000000000000000000000008152600401610f7890612548565b60405180910390fd5b5f8054906101000a900473ffffffffffffffffffffffffffffffffffffffff1673ffffffffffffffffffffffffffffffffffffffff16635e413c873330846040518463ffffffff1660e01b8152600401610fdd93929190611ec8565b6020604051808303815f875af1158015610ff9573d5f803e3d5ffd5b505050506040513d601f19601f8201168201806040525081019061101d9190611f27565b5060065f3373ffffffffffffffffffffffffffffffffffffffff1673ffffffffffffffffffffffffffffffffffffffff1681526020019081526020015f2082908060018154018082558091505060019003905f5260205f20015f90919091909150908161108a91906120ef565b507f48f33e7b77a627c37305288a2bd6cc25f05662dd696fd1ad057099c9e541e1d58282336040516110be939291906121be565b60405180910390a15050565b6003818051602081018201805184825260208301602085012081835280955050505050505f91509050805f01805461110190611d1d565b80601f016020809104026020016040519081016040528092919081815260200182805461112d90611d1d565b80156111785780601f1061114f57610100808354040283529160200191611178565b820191905f5260205f20905b81548152906001019060200180831161115b57829003601f168201915b505050505090806001015490806002015f9054906101000a900460ff16905083565b5f6111a4826117af565b90505f6111af610aa8565b9050813410156111f4576040517f08c379a00000000000000000000000000000000000000000000000000000000081526004016111eb906125d6565b60405180910390fd5b80831115611237576040517f08c379a000000000000000000000000000000000000000000000000000000000815260040161122e9061263e565b60405180910390fd5b5f82346112449190612689565b90503373ffffffffffffffffffffffffffffffffffffffff166108fc8290811502906040515f60405180830381858888f19350505050158015611289573d5f803e3d5ffd5b505f8054906101000a900473ffffffffffffffffffffffffffffffffffffffff1673ffffffffffffffffffffffffffffffffffffffff1663a9059cbb33866040518363ffffffff1660e01b81526004016112e49291906126bc565b6020604051808303815f875af1158015611300573d5f803e3d5ffd5b505050506040513d601f19601f820116820180604052508101906113249190611f27565b508360025f3373ffffffffffffffffffffffffffffffffffffffff1673ffffffffffffffffffffffffffffffffffffffff1681526020019081526020015f205f015f82825461137391906126e3565b9250508190555050505050565b606060055f3373ffffffffffffffffffffffffffffffffffffffff1673ffffffffffffffffffffffffffffffffffffffff1681526020019081526020015f20805480602002602001604051908101604052809291908181526020015f905b82821015611486578382905f5260205f200180546113fb90611d1d565b80601f016020809104026020016040519081016040528092919081815260200182805461142790611d1d565b80156114725780601f1061144957610100808354040283529160200191611472565b820191905f5260205f20905b81548152906001019060200180831161145557829003601f168201915b5050505050815260200190600101906113de565b50505050905090565b60606007805480602002602001604051908101604052809291908181526020015f905b8282101561155a578382905f5260205f200180546114cf90611d1d565b80601f01602080910402602001604051908101604052809291908181526020018280546114fb90611d1d565b80156115465780601f1061151d57610100808354040283529160200191611546565b820191905f5260205f20905b81548152906001019060200180831161152957829003601f168201915b5050505050815260200190600101906114b2565b50505050905090565b3360015f9054906101000a900473ffffffffffffffffffffffffffffffffffffffff1673ffffffffffffffffffffffffffffffffffffffff168173ffffffffffffffffffffffffffffffffffffffff16146115f3576040517f08c379a00000000000000000000000000000000000000000000000000000000081526004016115ea90612386565b60405180910390fd5b6040518060600160405280848152602001838152602001600115158152506003846040516116219190611d87565b90815260200160405180910390205f820151815f01908161164291906120ef565b50602082015181600101556040820151816002015f6101000a81548160ff021916908315150217905550905050600783908060018154018082558091505060019003905f5260205f20015f9091909190915090816116a091906120ef565b507fd93724e9e03a24a9a01d3658c3cdd1c2fd36ba110da59fc0aba9c7332932871883836040516116d292919061241c565b60405180910390a1505050565b6004818051602081018201805184825260208301602085012081835280955050505050505f91509050805f01805461171690611d1d565b80601f016020809104026020016040519081016040528092919081815260200182805461174290611d1d565b801561178d5780601f106117645761010080835404028352916020019161178d565b820191905f5260205f20905b81548152906001019060200180831161177057829003601f168201915b505050505090806001015490806002015f9054906101000a900460ff16905083565b5f670de0b6b3a7640000826117c49190612716565b9050919050565b5f81519050919050565b5f82825260208201905092915050565b5f819050602082019050919050565b5f81519050919050565b5f82825260208201905092915050565b5f5b8381101561182b578082015181840152602081019050611810565b5f8484015250505050565b5f601f19601f8301169050919050565b5f611850826117f4565b61185a81856117fe565b935061186a81856020860161180e565b61187381611836565b840191505092915050565b5f6118898383611846565b905092915050565b5f602082019050919050565b5f6118a7826117cb565b6118b181856117d5565b9350836020820285016118c3856117e5565b805f5b858110156118fe57848403895281516118df858261187e565b94506118ea83611891565b925060208a019950506001810190506118c6565b50829750879550505050505092915050565b5f6020820190508181035f830152611928818461189d565b905092915050565b5f604051905090565b5f80fd5b5f80fd5b5f80fd5b5f80fd5b7f4e487b71000000000000000000000000000000000000000000000000000000005f52604160045260245ffd5b61197f82611836565b810181811067ffffffffffffffff8211171561199e5761199d611949565b5b80604052505050565b5f6119b0611930565b90506119bc8282611976565b919050565b5f67ffffffffffffffff8211156119db576119da611949565b5b6119e482611836565b9050602081019050919050565b828183375f83830152505050565b5f611a11611a0c846119c1565b6119a7565b905082815260208101848484011115611a2d57611a2c611945565b5b611a388482856119f1565b509392505050565b5f82601f830112611a5457611a53611941565b5b8135611a648482602086016119ff565b91505092915050565b5f60208284031215611a8257611a81611939565b5b5f82013567ffffffffffffffff811115611a9f57611a9e61193d565b5b611aab84828501611a40565b91505092915050565b5f819050919050565b611ac681611ab4565b8114611ad0575f80fd5b50565b5f81359050611ae181611abd565b92915050565b5f60208284031215611afc57611afb611939565b5b5f611b0984828501611ad3565b91505092915050565b5f73ffffffffffffffffffffffffffffffffffffffff82169050919050565b5f611b3b82611b12565b9050919050565b611b4b81611b31565b8114611b55575f80fd5b50565b5f81359050611b6681611b42565b92915050565b5f60208284031215611b8157611b80611939565b5b5f611b8e84828501611b58565b91505092915050565b611ba081611ab4565b82525050565b5f602082019050611bb95f830184611b97565b92915050565b5f8060408385031215611bd557611bd4611939565b5b5f83013567ffffffffffffffff811115611bf257611bf161193d565b5b611bfe85828601611a40565b9250506020611c0f85828601611ad3565b9150509250929050565b5f611c2382611b12565b9050919050565b611c3381611c19565b82525050565b5f602082019050611c4c5f830184611c2a565b92915050565b5f82825260208201905092915050565b5f611c6c826117f4565b611c768185611c52565b9350611c8681856020860161180e565b611c8f81611836565b840191505092915050565b5f8115159050919050565b611cae81611c9a565b82525050565b5f6060820190508181035f830152611ccc8186611c62565b9050611cdb6020830185611b97565b611ce86040830184611ca5565b949350505050565b7f4e487b71000000000000000000000000000000000000000000000000000000005f52602260045260245ffd5b5f6002820490506001821680611d3457607f821691505b602082108103611d4757611d46611cf0565b5b50919050565b5f81905092915050565b5f611d61826117f4565b611d6b8185611d4d565b9350611d7b81856020860161180e565b80840191505092915050565b5f611d928284611d57565b915081905092915050565b7f4c6120617472616363696f6e206e6f206573746120646973706f6e69626c65205f8201527f656e206573746f73206d6f6d656e746f732e0000000000000000000000000000602082015250565b5f611df7603283611c52565b9150611e0282611d9d565b604082019050919050565b5f6020820190508181035f830152611e2481611deb565b9050919050565b7f4e6563657369746173206d617320746f6b656e732070617261207375626972745f8201527f652061206573746120617472616363696f6e2e00000000000000000000000000602082015250565b5f611e85603383611c52565b9150611e9082611e2b565b604082019050919050565b5f6020820190508181035f830152611eb281611e79565b9050919050565b611ec281611b31565b82525050565b5f606082019050611edb5f830186611eb9565b611ee86020830185611eb9565b611ef56040830184611b97565b949350505050565b611f0681611c9a565b8114611f10575f80fd5b50565b5f81519050611f2181611efd565b92915050565b5f60208284031215611f3c57611f3b611939565b5b5f611f4984828501611f13565b91505092915050565b5f819050815f5260205f209050919050565b5f6020601f8301049050919050565b5f82821b905092915050565b5f60088302611fae7fffffffffffffffffffffffffffffffffffffffffffffffffffffffffffffffff82611f73565b611fb88683611f73565b95508019841693508086168417925050509392505050565b5f819050919050565b5f611ff3611fee611fe984611ab4565b611fd0565b611ab4565b9050919050565b5f819050919050565b61200c83611fd9565b61202061201882611ffa565b848454611f7f565b825550505050565b5f90565b612034612028565b61203f818484612003565b505050565b5b81811015612062576120575f8261202c565b600181019050612045565b5050565b601f8211156120a75761207881611f52565b61208184611f64565b81016020851015612090578190505b6120a461209c85611f64565b830182612044565b50505b505050565b5f82821c905092915050565b5f6120c75f19846008026120ac565b1980831691505092915050565b5f6120df83836120b8565b9150826002028217905092915050565b6120f8826117f4565b67ffffffffffffffff81111561211157612110611949565b5b61211b8254611d1d565b612126828285612066565b5f60209050601f831160018114612157575f8415612145578287015190505b61214f85826120d4565b8655506121b6565b601f19841661216586611f52565b5f5b8281101561218c57848901518255600182019150602085019450602081019050612167565b868310156121a957848901516121a5601f8916826120b8565b8355505b6001600288020188555050505b505050505050565b5f6060820190508181035f8301526121d68186611c62565b90506121e56020830185611b97565b6121f26040830184611eb9565b949350505050565b7f4e6563657369746173206465766f6c76657220756e612063616e7469646164205f8201527f706f73697469766120646520746f6b656e732e00000000000000000000000000602082015250565b5f612254603383611c52565b915061225f826121fa565b604082019050919050565b5f6020820190508181035f83015261228181612248565b9050919050565b7f4e6f207469656e6573206c6f7320746f6b656e732071756520646573656173205f8201527f6465766f6c7665722e0000000000000000000000000000000000000000000000602082015250565b5f6122e2602983611c52565b91506122ed82612288565b604082019050919050565b5f6020820190508181035f83015261230f816122d6565b9050919050565b7f4e6f207469656e6573207065726d69736f73207061726120656a6563757461725f8201527f20657374612066756e63696f6e00000000000000000000000000000000000000602082015250565b5f612370602d83611c52565b915061237b82612316565b604082019050919050565b5f6020820190508181035f83015261239d81612364565b9050919050565b5f6020820190508181035f8301526123bc8184611c62565b905092915050565b5f6020820190506123d75f830184611eb9565b92915050565b5f815190506123eb81611abd565b92915050565b5f6020828403121561240657612405611939565b5b5f612413848285016123dd565b91505092915050565b5f6040820190508181035f8301526124348185611c62565b90506124436020830184611b97565b9392505050565b7f456c20616c696d656e746f206e6f206573746120646973706f6e69626c6520655f8201527f6e206573746f73206d6f6d656e746f732e000000000000000000000000000000602082015250565b5f6124a4603183611c52565b91506124af8261244a565b604082019050919050565b5f6020820190508181035f8301526124d181612498565b9050919050565b7f4e6563657369746173206d617320746f6b656e732070617261206f7264656e615f8201527f72206573746520616c696d656e746f2e00000000000000000000000000000000602082015250565b5f612532603083611c52565b915061253d826124d8565b604082019050919050565b5f6020820190508181035f83015261255f81612526565b9050919050565b7f436f6d707261206d656e6f7320746f6b656e73206f207061676120636f6e206d5f8201527f6173206574686572732e00000000000000000000000000000000000000000000602082015250565b5f6125c0602a83611c52565b91506125cb82612566565b604082019050919050565b5f6020820190508181035f8301526125ed816125b4565b9050919050565b7f436f6d70726120756e206e756d65726f206d656e6f7220646520546f6b656e735f82015250565b5f612628602083611c52565b9150612633826125f4565b602082019050919050565b5f6020820190508181035f8301526126558161261c565b9050919050565b7f4e487b71000000000000000000000000000000000000000000000000000000005f52601160045260245ffd5b5f61269382611ab4565b915061269e83611ab4565b92508282039050818111156126b6576126b561265c565b5b92915050565b5f6040820190506126cf5f830185611eb9565b6126dc6020830184611b97565b9392505050565b5f6126ed82611ab4565b91506126f883611ab4565b92508282019050808211156127105761270f61265c565b5b92915050565b5f61272082611ab4565b915061272b83611ab4565b925082820261273981611ab4565b915082820484148315176127505761274f61265c565b5b509291505056fea2646970667358221220770692e147381f08a4f594f60889bccbfedcb58a5c423224c1ac846231fcfbed64736f6c63430008160033608060405234801561000f575f80fd5b50604051611083380380611083833981810160405281019061003191906100b8565b806002819055506002545f803373ffffffffffffffffffffffffffffffffffffffff1673ffffffffffffffffffffffffffffffffffffffff1681526020019081526020015f2081905550506100e3565b5f80fd5b5f819050919050565b61009781610085565b81146100a1575f80fd5b50565b5f815190506100b28161008e565b92915050565b5f602082840312156100cd576100cc610081565b5b5f6100da848285016100a4565b91505092915050565b610f93806100f05f395ff3fe608060405234801561000f575f80fd5b50600436106100a7575f3560e01c80635e413c871161006f5780635e413c871461016357806370a082311461019357806395d89b41146101c3578063a2a96799146101e1578063a9059cbb146101ff578063dd62ed3e1461022f576100a7565b806306fdde03146100ab578063095ea7b3146100c95780631d43cc98146100f957806323b872dd14610115578063313ce56714610145575b5f80fd5b6100b361025f565b6040516100c09190610c68565b60405180910390f35b6100e360048036038101906100de9190610d19565b610298565b6040516100f09190610d71565b60405180910390f35b610113600480360381019061010e9190610d8a565b610385565b005b61012f600480360381019061012a9190610db5565b6103f2565b60405161013c9190610d71565b60405180910390f35b61014d61073f565b60405161015a9190610e20565b60405180910390f35b61017d60048036038101906101789190610db5565b610744565b60405161018a9190610d71565b60405180910390f35b6101ad60048036038101906101a89190610e39565b61090d565b6040516101ba9190610e73565b60405180910390f35b6101cb610952565b6040516101d89190610c68565b60405180910390f35b6101e961098b565b6040516101f69190610e73565b60405180910390f35b61021960048036038101906102149190610d19565b610994565b6040516102269190610d71565b60405180910390f35b61024960048036038101906102449190610e8c565b610b5c565b6040516102569190610e73565b60405180910390f35b6040518060400160405280601181526020017f4552433230426c6f636b636861696e415a00000000000000000000000000000081525081565b5f8160015f3373ffffffffffffffffffffffffffffffffffffffff1673ffffffffffffffffffffffffffffffffffffffff1681526020019081526020015f205f8573ffffffffffffffffffffffffffffffffffffffff1673ffffffffffffffffffffffffffffffffffffffff1681526020019081526020015f20819055508273ffffffffffffffffffffffffffffffffffffffff163373ffffffffffffffffffffffffffffffffffffffff167f8c5be1e5ebec7d5bd14f71427d1e84f3dd0314c0f7b2291e5b200ac8c7c3b925846040516103739190610e73565b60405180910390a36001905092915050565b8060025f8282546103969190610ef7565b92505081905550805f803373ffffffffffffffffffffffffffffffffffffffff1673ffffffffffffffffffffffffffffffffffffffff1681526020019081526020015f205f8282546103e89190610ef7565b9250508190555050565b5f805f8573ffffffffffffffffffffffffffffffffffffffff1673ffffffffffffffffffffffffffffffffffffffff1681526020019081526020015f205482111561043b575f80fd5b60015f8573ffffffffffffffffffffffffffffffffffffffff1673ffffffffffffffffffffffffffffffffffffffff1681526020019081526020015f205f3373ffffffffffffffffffffffffffffffffffffffff1673ffffffffffffffffffffffffffffffffffffffff1681526020019081526020015f20548211156104bf575f80fd5b815f808673ffffffffffffffffffffffffffffffffffffffff1673ffffffffffffffffffffffffffffffffffffffff1681526020019081526020015f20546105079190610f2a565b5f808673ffffffffffffffffffffffffffffffffffffffff1673ffffffffffffffffffffffffffffffffffffffff1681526020019081526020015f20819055508160015f8673ffffffffffffffffffffffffffffffffffffffff1673ffffffffffffffffffffffffffffffffffffffff1681526020019081526020015f205f3373ffffffffffffffffffffffffffffffffffffffff1673ffffffffffffffffffffffffffffffffffffffff1681526020019081526020015f20546105cb9190610f2a565b60015f8673ffffffffffffffffffffffffffffffffffffffff1673ffffffffffffffffffffffffffffffffffffffff1681526020019081526020015f205f3373ffffffffffffffffffffffffffffffffffffffff1673ffffffffffffffffffffffffffffffffffffffff1681526020019081526020015f2081905550815f808573ffffffffffffffffffffffffffffffffffffffff1673ffffffffffffffffffffffffffffffffffffffff1681526020019081526020015f205461068f9190610ef7565b5f808573ffffffffffffffffffffffffffffffffffffffff1673ffffffffffffffffffffffffffffffffffffffff1681526020019081526020015f20819055508273ffffffffffffffffffffffffffffffffffffffff168473ffffffffffffffffffffffffffffffffffffffff167fddf252ad1be2c89b69c2b068fc378daa952ba7f163c4a11628f55a4df523b3ef8460405161072c9190610e73565b60405180910390a3600190509392505050565b600281565b5f805f8573ffffffffffffffffffffffffffffffffffffffff1673ffffffffffffffffffffffffffffffffffffffff1681526020019081526020015f205482111561078d575f80fd5b815f808673ffffffffffffffffffffffffffffffffffffffff1673ffffffffffffffffffffffffffffffffffffffff1681526020019081526020015f20546107d59190610f2a565b5f808673ffffffffffffffffffffffffffffffffffffffff1673ffffffffffffffffffffffffffffffffffffffff1681526020019081526020015f2081905550815f808573ffffffffffffffffffffffffffffffffffffffff1673ffffffffffffffffffffffffffffffffffffffff1681526020019081526020015f205461085d9190610ef7565b5f808573ffffffffffffffffffffffffffffffffffffffff1673ffffffffffffffffffffffffffffffffffffffff1681526020019081526020015f20819055508273ffffffffffffffffffffffffffffffffffffffff168473ffffffffffffffffffffffffffffffffffffffff167fddf252ad1be2c89b69c2b068fc378daa952ba7f163c4a11628f55a4df523b3ef846040516108fa9190610e73565b60405180910390a3600190509392505050565b5f805f8373ffffffffffffffffffffffffffffffffffffffff1673ffffffffffffffffffffffffffffffffffffffff1681526020019081526020015f20549050919050565b6040518060400160405280600381526020017f455243000000000000000000000000000000000000000000000000000000000081525081565b5f600254905090565b5f805f3373ffffffffffffffffffffffffffffffffffffffff1673ffffffffffffffffffffffffffffffffffffffff1681526020019081526020015f20548211156109dd575f80fd5b815f803373ffffffffffffffffffffffffffffffffffffffff1673ffffffffffffffffffffffffffffffffffffffff1681526020019081526020015f2054610a259190610f2a565b5f803373ffffffffffffffffffffffffffffffffffffffff1673ffffffffffffffffffffffffffffffffffffffff1681526020019081526020015f2081905550815f808573ffffffffffffffffffffffffffffffffffffffff1673ffffffffffffffffffffffffffffffffffffffff1681526020019081526020015f2054610aad9190610ef7565b5f808573ffffffffffffffffffffffffffffffffffffffff1673ffffffffffffffffffffffffffffffffffffffff1681526020019081526020015f20819055508273ffffffffffffffffffffffffffffffffffffffff163373ffffffffffffffffffffffffffffffffffffffff167fddf252ad1be2c89b69c2b068fc378daa952ba7f163c4a11628f55a4df523b3ef84604051610b4a9190610e73565b60405180910390a36001905092915050565b5f60015f8473ffffffffffffffffffffffffffffffffffffffff1673ffffffffffffffffffffffffffffffffffffffff1681526020019081526020015f205f8373ffffffffffffffffffffffffffffffffffffffff1673ffffffffffffffffffffffffffffffffffffffff1681526020019081526020015f2054905092915050565b5f81519050919050565b5f82825260208201905092915050565b5f5b83811015610c15578082015181840152602081019050610bfa565b5f8484015250505050565b5f601f19601f8301169050919050565b5f610c3a82610bde565b610c448185610be8565b9350610c54818560208601610bf8565b610c5d81610c20565b840191505092915050565b5f6020820190508181035f830152610c808184610c30565b905092915050565b5f80fd5b5f73ffffffffffffffffffffffffffffffffffffffff82169050919050565b5f610cb582610c8c565b9050919050565b610cc581610cab565b8114610ccf575f80fd5b50565b5f81359050610ce081610cbc565b92915050565b5f819050919050565b610cf881610ce6565b8114610d02575f80fd5b50565b5f81359050610d1381610cef565b92915050565b5f8060408385031215610d2f57610d2e610c88565b5b5f610d3c85828601610cd2565b9250506020610d4d85828601610d05565b9150509250929050565b5f8115159050919050565b610d6b81610d57565b82525050565b5f602082019050610d845f830184610d62565b92915050565b5f60208284031215610d9f57610d9e610c88565b5b5f610dac84828501610d05565b91505092915050565b5f805f60608486031215610dcc57610dcb610c88565b5b5f610dd986828701610cd2565b9350506020610dea86828701610cd2565b9250506040610dfb86828701610d05565b9150509250925092565b5f60ff82169050919050565b610e1a81610e05565b82525050565b5f602082019050610e335f830184610e11565b92915050565b5f60208284031215610e4e57610e4d610c88565b5b5f610e5b84828501610cd2565b91505092915050565b610e6d81610ce6565b82525050565b5f602082019050610e865f830184610e64565b92915050565b5f8060408385031215610ea257610ea1610c88565b5b5f610eaf85828601610cd2565b9250506020610ec085828601610cd2565b9150509250929050565b7f4e487b71000000000000000000000000000000000000000000000000000000005f52601160045260245ffd5b5f610f0182610ce6565b9150610f0c83610ce6565b9250828201905080821115610f2457610f23610eca565b5b92915050565b5f610f3482610ce6565b9150610f3f83610ce6565b9250828203905081811115610f5757610f56610eca565b5b9291505056fea264697066735822122070d68a0febcbb7aa5e3f4fccf2bca6aeb2d2cd2c4ad9d6a11a4fb17dac21116e64736f6c63430008160033",
					"opcodes": "PUSH1 0x80 PUSH1 0x40 MSTORE CALLVALUE DUP1 ISZERO PUSH3 0x10 JUMPI PUSH0 DUP1 REVERT JUMPDEST POP PUSH2 0x2710 PUSH1 0x40 MLOAD PUSH3 0x22 SWAP1 PUSH3 0xCD JUMP JUMPDEST PUSH3 0x2E SWAP2 SWAP1 PUSH3 0x12E JUMP JUMPDEST PUSH1 0x40 MLOAD DUP1 SWAP2 SUB SWAP1 PUSH0 CREATE DUP1 ISZERO DUP1 ISZERO PUSH3 0x48 JUMPI RETURNDATASIZE PUSH0 DUP1 RETURNDATACOPY RETURNDATASIZE PUSH0 REVERT JUMPDEST POP PUSH0 DUP1 PUSH2 0x100 EXP DUP2 SLOAD DUP2 PUSH20 0xFFFFFFFFFFFFFFFFFFFFFFFFFFFFFFFFFFFFFFFF MUL NOT AND SWAP1 DUP4 PUSH20 0xFFFFFFFFFFFFFFFFFFFFFFFFFFFFFFFFFFFFFFFF AND MUL OR SWAP1 SSTORE POP CALLER PUSH1 0x1 PUSH0 PUSH2 0x100 EXP DUP2 SLOAD DUP2 PUSH20 0xFFFFFFFFFFFFFFFFFFFFFFFFFFFFFFFFFFFFFFFF MUL NOT AND SWAP1 DUP4 PUSH20 0xFFFFFFFFFFFFFFFFFFFFFFFFFFFFFFFFFFFFFFFF AND MUL OR SWAP1 SSTORE POP PUSH3 0x149 JUMP JUMPDEST PUSH2 0x1083 DUP1 PUSH3 0x28E4 DUP4 CODECOPY ADD SWAP1 JUMP JUMPDEST PUSH0 DUP2 SWAP1 POP SWAP2 SWAP1 POP JUMP JUMPDEST PUSH0 DUP2 SWAP1 POP SWAP2 SWAP1 POP JUMP JUMPDEST PUSH0 DUP2 SWAP1 POP SWAP2 SWAP1 POP JUMP JUMPDEST PUSH0 PUSH3 0x116 PUSH3 0x110 PUSH3 0x10A DUP5 PUSH3 0xDB JUMP JUMPDEST PUSH3 0xED JUMP JUMPDEST PUSH3 0xE4 JUMP JUMPDEST SWAP1 POP SWAP2 SWAP1 POP JUMP JUMPDEST PUSH3 0x128 DUP2 PUSH3 0xF6 JUMP JUMPDEST DUP3 MSTORE POP POP JUMP JUMPDEST PUSH0 PUSH1 0x20 DUP3 ADD SWAP1 POP PUSH3 0x143 PUSH0 DUP4 ADD DUP5 PUSH3 0x11D JUMP JUMPDEST SWAP3 SWAP2 POP POP JUMP JUMPDEST PUSH2 0x278D DUP1 PUSH3 0x157 PUSH0 CODECOPY PUSH0 RETURN INVALID PUSH1 0x80 PUSH1 0x40 MSTORE PUSH1 0x4 CALLDATASIZE LT PUSH2 0x108 JUMPI PUSH0 CALLDATALOAD PUSH1 0xE0 SHR DUP1 PUSH4 0x8DA5CB5B GT PUSH2 0x94 JUMPI DUP1 PUSH4 0xC29DD7C9 GT PUSH2 0x63 JUMPI DUP1 PUSH4 0xC29DD7C9 EQ PUSH2 0x33A JUMPI DUP1 PUSH4 0xCE2CFA3E EQ PUSH2 0x356 JUMPI DUP1 PUSH4 0xD3E1125F EQ PUSH2 0x380 JUMPI DUP1 PUSH4 0xE3AC2342 EQ PUSH2 0x3AA JUMPI DUP1 PUSH4 0xF3A4EFF9 EQ PUSH2 0x3D2 JUMPI PUSH2 0x108 JUMP JUMPDEST DUP1 PUSH4 0x8DA5CB5B EQ PUSH2 0x280 JUMPI DUP1 PUSH4 0x949E8ACD EQ PUSH2 0x2AA JUMPI DUP1 PUSH4 0x9C92CB88 EQ PUSH2 0x2D4 JUMPI DUP1 PUSH4 0x9D124F92 EQ PUSH2 0x2FC JUMPI PUSH2 0x108 JUMP JUMPDEST DUP1 PUSH4 0x61EED2A9 GT PUSH2 0xDB JUMPI DUP1 PUSH4 0x61EED2A9 EQ PUSH2 0x1A2 JUMPI DUP1 PUSH4 0x6C43BF2D EQ PUSH2 0x1DE JUMPI DUP1 PUSH4 0x722713F7 EQ PUSH2 0x206 JUMPI DUP1 PUSH4 0x74985F9E EQ PUSH2 0x230 JUMPI DUP1 PUSH4 0x7E1F2BB8 EQ PUSH2 0x258 JUMPI PUSH2 0x108 JUMP JUMPDEST DUP1 PUSH4 0xA5795F8 EQ PUSH2 0x10C JUMPI DUP1 PUSH4 0x316BA08B EQ PUSH2 0x136 JUMPI DUP1 PUSH4 0x3AE1786F EQ PUSH2 0x15E JUMPI DUP1 PUSH4 0x427CFF87 EQ PUSH2 0x17A JUMPI JUMPDEST PUSH0 DUP1 REVERT JUMPDEST CALLVALUE DUP1 ISZERO PUSH2 0x117 JUMPI PUSH0 DUP1 REVERT JUMPDEST POP PUSH2 0x120 PUSH2 0x410 JUMP JUMPDEST PUSH1 0x40 MLOAD PUSH2 0x12D SWAP2 SWAP1 PUSH2 0x1910 JUMP JUMPDEST PUSH1 0x40 MLOAD DUP1 SWAP2 SUB SWAP1 RETURN JUMPDEST CALLVALUE DUP1 ISZERO PUSH2 0x141 JUMPI PUSH0 DUP1 REVERT JUMPDEST POP PUSH2 0x15C PUSH1 0x4 DUP1 CALLDATASIZE SUB DUP2 ADD SWAP1 PUSH2 0x157 SWAP2 SWAP1 PUSH2 0x1A6D JUMP JUMPDEST PUSH2 0x4E4 JUMP JUMPDEST STOP JUMPDEST PUSH2 0x178 PUSH1 0x4 DUP1 CALLDATASIZE SUB DUP2 ADD SWAP1 PUSH2 0x173 SWAP2 SWAP1 PUSH2 0x1AE7 JUMP JUMPDEST PUSH2 0x710 JUMP JUMPDEST STOP JUMPDEST CALLVALUE DUP1 ISZERO PUSH2 0x185 JUMPI PUSH0 DUP1 REVERT JUMPDEST POP PUSH2 0x1A0 PUSH1 0x4 DUP1 CALLDATASIZE SUB DUP2 ADD SWAP1 PUSH2 0x19B SWAP2 SWAP1 PUSH2 0x1A6D JUMP JUMPDEST PUSH2 0x888 JUMP JUMPDEST STOP JUMPDEST CALLVALUE DUP1 ISZERO PUSH2 0x1AD JUMPI PUSH0 DUP1 REVERT JUMPDEST POP PUSH2 0x1C8 PUSH1 0x4 DUP1 CALLDATASIZE SUB DUP2 ADD SWAP1 PUSH2 0x1C3 SWAP2 SWAP1 PUSH2 0x1B6C JUMP JUMPDEST PUSH2 0x98B JUMP JUMPDEST PUSH1 0x40 MLOAD PUSH2 0x1D5 SWAP2 SWAP1 PUSH2 0x1BA6 JUMP JUMPDEST PUSH1 0x40 MLOAD DUP1 SWAP2 SUB SWAP1 RETURN JUMPDEST CALLVALUE DUP1 ISZERO PUSH2 0x1E9 JUMPI PUSH0 DUP1 REVERT JUMPDEST POP PUSH2 0x204 PUSH1 0x4 DUP1 CALLDATASIZE SUB DUP2 ADD SWAP1 PUSH2 0x1FF SWAP2 SWAP1 PUSH2 0x1A6D JUMP JUMPDEST PUSH2 0x9A5 JUMP JUMPDEST STOP JUMPDEST CALLVALUE DUP1 ISZERO PUSH2 0x211 JUMPI PUSH0 DUP1 REVERT JUMPDEST POP PUSH2 0x21A PUSH2 0xAA8 JUMP JUMPDEST PUSH1 0x40 MLOAD PUSH2 0x227 SWAP2 SWAP1 PUSH2 0x1BA6 JUMP JUMPDEST PUSH1 0x40 MLOAD DUP1 SWAP2 SUB SWAP1 RETURN JUMPDEST CALLVALUE DUP1 ISZERO PUSH2 0x23B JUMPI PUSH0 DUP1 REVERT JUMPDEST POP PUSH2 0x256 PUSH1 0x4 DUP1 CALLDATASIZE SUB DUP2 ADD SWAP1 PUSH2 0x251 SWAP2 SWAP1 PUSH2 0x1BBF JUMP JUMPDEST PUSH2 0xB46 JUMP JUMPDEST STOP JUMPDEST CALLVALUE DUP1 ISZERO PUSH2 0x263 JUMPI PUSH0 DUP1 REVERT JUMPDEST POP PUSH2 0x27E PUSH1 0x4 DUP1 CALLDATASIZE SUB DUP2 ADD SWAP1 PUSH2 0x279 SWAP2 SWAP1 PUSH2 0x1AE7 JUMP JUMPDEST PUSH2 0xCC2 JUMP JUMPDEST STOP JUMPDEST CALLVALUE DUP1 ISZERO PUSH2 0x28B JUMPI PUSH0 DUP1 REVERT JUMPDEST POP PUSH2 0x294 PUSH2 0xDDB JUMP JUMPDEST PUSH1 0x40 MLOAD PUSH2 0x2A1 SWAP2 SWAP1 PUSH2 0x1C39 JUMP JUMPDEST PUSH1 0x40 MLOAD DUP1 SWAP2 SUB SWAP1 RETURN JUMPDEST CALLVALUE DUP1 ISZERO PUSH2 0x2B5 JUMPI PUSH0 DUP1 REVERT JUMPDEST POP PUSH2 0x2BE PUSH2 0xE00 JUMP JUMPDEST PUSH1 0x40 MLOAD PUSH2 0x2CB SWAP2 SWAP1 PUSH2 0x1BA6 JUMP JUMPDEST PUSH1 0x40 MLOAD DUP1 SWAP2 SUB SWAP1 RETURN JUMPDEST CALLVALUE DUP1 ISZERO PUSH2 0x2DF JUMPI PUSH0 DUP1 REVERT JUMPDEST POP PUSH2 0x2FA PUSH1 0x4 DUP1 CALLDATASIZE SUB DUP2 ADD SWAP1 PUSH2 0x2F5 SWAP2 SWAP1 PUSH2 0x1A6D JUMP JUMPDEST PUSH2 0xE9E JUMP JUMPDEST STOP JUMPDEST CALLVALUE DUP1 ISZERO PUSH2 0x307 JUMPI PUSH0 DUP1 REVERT JUMPDEST POP PUSH2 0x322 PUSH1 0x4 DUP1 CALLDATASIZE SUB DUP2 ADD SWAP1 PUSH2 0x31D SWAP2 SWAP1 PUSH2 0x1A6D JUMP JUMPDEST PUSH2 0x10CA JUMP JUMPDEST PUSH1 0x40 MLOAD PUSH2 0x331 SWAP4 SWAP3 SWAP2 SWAP1 PUSH2 0x1CB4 JUMP JUMPDEST PUSH1 0x40 MLOAD DUP1 SWAP2 SUB SWAP1 RETURN JUMPDEST PUSH2 0x354 PUSH1 0x4 DUP1 CALLDATASIZE SUB DUP2 ADD SWAP1 PUSH2 0x34F SWAP2 SWAP1 PUSH2 0x1AE7 JUMP JUMPDEST PUSH2 0x119A JUMP JUMPDEST STOP JUMPDEST CALLVALUE DUP1 ISZERO PUSH2 0x361 JUMPI PUSH0 DUP1 REVERT JUMPDEST POP PUSH2 0x36A PUSH2 0x1380 JUMP JUMPDEST PUSH1 0x40 MLOAD PUSH2 0x377 SWAP2 SWAP1 PUSH2 0x1910 JUMP JUMPDEST PUSH1 0x40 MLOAD DUP1 SWAP2 SUB SWAP1 RETURN JUMPDEST CALLVALUE DUP1 ISZERO PUSH2 0x38B JUMPI PUSH0 DUP1 REVERT JUMPDEST POP PUSH2 0x394 PUSH2 0x148F JUMP JUMPDEST PUSH1 0x40 MLOAD PUSH2 0x3A1 SWAP2 SWAP1 PUSH2 0x1910 JUMP JUMPDEST PUSH1 0x40 MLOAD DUP1 SWAP2 SUB SWAP1 RETURN JUMPDEST CALLVALUE DUP1 ISZERO PUSH2 0x3B5 JUMPI PUSH0 DUP1 REVERT JUMPDEST POP PUSH2 0x3D0 PUSH1 0x4 DUP1 CALLDATASIZE SUB DUP2 ADD SWAP1 PUSH2 0x3CB SWAP2 SWAP1 PUSH2 0x1BBF JUMP JUMPDEST PUSH2 0x1563 JUMP JUMPDEST STOP JUMPDEST CALLVALUE DUP1 ISZERO PUSH2 0x3DD JUMPI PUSH0 DUP1 REVERT JUMPDEST POP PUSH2 0x3F8 PUSH1 0x4 DUP1 CALLDATASIZE SUB DUP2 ADD SWAP1 PUSH2 0x3F3 SWAP2 SWAP1 PUSH2 0x1A6D JUMP JUMPDEST PUSH2 0x16DF JUMP JUMPDEST PUSH1 0x40 MLOAD PUSH2 0x407 SWAP4 SWAP3 SWAP2 SWAP1 PUSH2 0x1CB4 JUMP JUMPDEST PUSH1 0x40 MLOAD DUP1 SWAP2 SUB SWAP1 RETURN JUMPDEST PUSH1 0x60 PUSH1 0x8 DUP1 SLOAD DUP1 PUSH1 0x20 MUL PUSH1 0x20 ADD PUSH1 0x40 MLOAD SWAP1 DUP2 ADD PUSH1 0x40 MSTORE DUP1 SWAP3 SWAP2 SWAP1 DUP2 DUP2 MSTORE PUSH1 0x20 ADD PUSH0 SWAP1 JUMPDEST DUP3 DUP3 LT ISZERO PUSH2 0x4DB JUMPI DUP4 DUP3 SWAP1 PUSH0 MSTORE PUSH1 0x20 PUSH0 KECCAK256 ADD DUP1 SLOAD PUSH2 0x450 SWAP1 PUSH2 0x1D1D JUMP JUMPDEST DUP1 PUSH1 0x1F ADD PUSH1 0x20 DUP1 SWAP2 DIV MUL PUSH1 0x20 ADD PUSH1 0x40 MLOAD SWAP1 DUP2 ADD PUSH1 0x40 MSTORE DUP1 SWAP3 SWAP2 SWAP1 DUP2 DUP2 MSTORE PUSH1 0x20 ADD DUP3 DUP1 SLOAD PUSH2 0x47C SWAP1 PUSH2 0x1D1D JUMP JUMPDEST DUP1 ISZERO PUSH2 0x4C7 JUMPI DUP1 PUSH1 0x1F LT PUSH2 0x49E JUMPI PUSH2 0x100 DUP1 DUP4 SLOAD DIV MUL DUP4 MSTORE SWAP2 PUSH1 0x20 ADD SWAP2 PUSH2 0x4C7 JUMP JUMPDEST DUP3 ADD SWAP2 SWAP1 PUSH0 MSTORE PUSH1 0x20 PUSH0 KECCAK256 SWAP1 JUMPDEST DUP2 SLOAD DUP2 MSTORE SWAP1 PUSH1 0x1 ADD SWAP1 PUSH1 0x20 ADD DUP1 DUP4 GT PUSH2 0x4AA JUMPI DUP3 SWAP1 SUB PUSH1 0x1F AND DUP3 ADD SWAP2 JUMPDEST POP POP POP POP POP DUP2 MSTORE PUSH1 0x20 ADD SWAP1 PUSH1 0x1 ADD SWAP1 PUSH2 0x433 JUMP JUMPDEST POP POP POP POP SWAP1 POP SWAP1 JUMP JUMPDEST PUSH1 0x1 ISZERO ISZERO PUSH1 0x3 DUP3 PUSH1 0x40 MLOAD PUSH2 0x4F8 SWAP2 SWAP1 PUSH2 0x1D87 JUMP JUMPDEST SWAP1 DUP2 MSTORE PUSH1 0x20 ADD PUSH1 0x40 MLOAD DUP1 SWAP2 SUB SWAP1 KECCAK256 PUSH1 0x2 ADD PUSH0 SWAP1 SLOAD SWAP1 PUSH2 0x100 EXP SWAP1 DIV PUSH1 0xFF AND ISZERO ISZERO EQ PUSH2 0x558 JUMPI PUSH1 0x40 MLOAD PUSH32 0x8C379A000000000000000000000000000000000000000000000000000000000 DUP2 MSTORE PUSH1 0x4 ADD PUSH2 0x54F SWAP1 PUSH2 0x1E0D JUMP JUMPDEST PUSH1 0x40 MLOAD DUP1 SWAP2 SUB SWAP1 REVERT JUMPDEST PUSH0 PUSH1 0x3 DUP3 PUSH1 0x40 MLOAD PUSH2 0x569 SWAP2 SWAP1 PUSH2 0x1D87 JUMP JUMPDEST SWAP1 DUP2 MSTORE PUSH1 0x20 ADD PUSH1 0x40 MLOAD DUP1 SWAP2 SUB SWAP1 KECCAK256 PUSH1 0x1 ADD SLOAD SWAP1 POP PUSH2 0x585 PUSH2 0xE00 JUMP JUMPDEST DUP2 GT ISZERO PUSH2 0x5C7 JUMPI PUSH1 0x40 MLOAD PUSH32 0x8C379A000000000000000000000000000000000000000000000000000000000 DUP2 MSTORE PUSH1 0x4 ADD PUSH2 0x5BE SWAP1 PUSH2 0x1E9B JUMP JUMPDEST PUSH1 0x40 MLOAD DUP1 SWAP2 SUB SWAP1 REVERT JUMPDEST PUSH0 DUP1 SLOAD SWAP1 PUSH2 0x100 EXP SWAP1 DIV PUSH20 0xFFFFFFFFFFFFFFFFFFFFFFFFFFFFFFFFFFFFFFFF AND PUSH20 0xFFFFFFFFFFFFFFFFFFFFFFFFFFFFFFFFFFFFFFFF AND PUSH4 0x5E413C87 CALLER ADDRESS DUP5 PUSH1 0x40 MLOAD DUP5 PUSH4 0xFFFFFFFF AND PUSH1 0xE0 SHL DUP2 MSTORE PUSH1 0x4 ADD PUSH2 0x623 SWAP4 SWAP3 SWAP2 SWAP1 PUSH2 0x1EC8 JUMP JUMPDEST PUSH1 0x20 PUSH1 0x40 MLOAD DUP1 DUP4 SUB DUP2 PUSH0 DUP8 GAS CALL ISZERO DUP1 ISZERO PUSH2 0x63F JUMPI RETURNDATASIZE PUSH0 DUP1 RETURNDATACOPY RETURNDATASIZE PUSH0 REVERT JUMPDEST POP POP POP POP PUSH1 0x40 MLOAD RETURNDATASIZE PUSH1 0x1F NOT PUSH1 0x1F DUP3 ADD AND DUP3 ADD DUP1 PUSH1 0x40 MSTORE POP DUP2 ADD SWAP1 PUSH2 0x663 SWAP2 SWAP1 PUSH2 0x1F27 JUMP JUMPDEST POP PUSH1 0x5 PUSH0 CALLER PUSH20 0xFFFFFFFFFFFFFFFFFFFFFFFFFFFFFFFFFFFFFFFF AND PUSH20 0xFFFFFFFFFFFFFFFFFFFFFFFFFFFFFFFFFFFFFFFF AND DUP2 MSTORE PUSH1 0x20 ADD SWAP1 DUP2 MSTORE PUSH1 0x20 ADD PUSH0 KECCAK256 DUP3 SWAP1 DUP1 PUSH1 0x1 DUP2 SLOAD ADD DUP1 DUP3 SSTORE DUP1 SWAP2 POP POP PUSH1 0x1 SWAP1 SUB SWAP1 PUSH0 MSTORE PUSH1 0x20 PUSH0 KECCAK256 ADD PUSH0 SWAP1 SWAP2 SWAP1 SWAP2 SWAP1 SWAP2 POP SWAP1 DUP2 PUSH2 0x6D0 SWAP2 SWAP1 PUSH2 0x20EF JUMP JUMPDEST POP PUSH32 0x9AFCE6BB3CA182F6280637EB4D41EB11D64B8B0E0F8D26DDFA794491B88225E2 DUP3 DUP3 CALLER PUSH1 0x40 MLOAD PUSH2 0x704 SWAP4 SWAP3 SWAP2 SWAP1 PUSH2 0x21BE JUMP JUMPDEST PUSH1 0x40 MLOAD DUP1 SWAP2 SUB SWAP1 LOG1 POP POP JUMP JUMPDEST PUSH0 DUP2 GT PUSH2 0x752 JUMPI PUSH1 0x40 MLOAD PUSH32 0x8C379A000000000000000000000000000000000000000000000000000000000 DUP2 MSTORE PUSH1 0x4 ADD PUSH2 0x749 SWAP1 PUSH2 0x226A JUMP JUMPDEST PUSH1 0x40 MLOAD DUP1 SWAP2 SUB SWAP1 REVERT JUMPDEST PUSH2 0x75A PUSH2 0xE00 JUMP JUMPDEST DUP2 GT ISZERO PUSH2 0x79C JUMPI PUSH1 0x40 MLOAD PUSH32 0x8C379A000000000000000000000000000000000000000000000000000000000 DUP2 MSTORE PUSH1 0x4 ADD PUSH2 0x793 SWAP1 PUSH2 0x22F8 JUMP JUMPDEST PUSH1 0x40 MLOAD DUP1 SWAP2 SUB SWAP1 REVERT JUMPDEST PUSH0 DUP1 SLOAD SWAP1 PUSH2 0x100 EXP SWAP1 DIV PUSH20 0xFFFFFFFFFFFFFFFFFFFFFFFFFFFFFFFFFFFFFFFF AND PUSH20 0xFFFFFFFFFFFFFFFFFFFFFFFFFFFFFFFFFFFFFFFF AND PUSH4 0x5E413C87 CALLER ADDRESS DUP5 PUSH1 0x40 MLOAD DUP5 PUSH4 0xFFFFFFFF AND PUSH1 0xE0 SHL DUP2 MSTORE PUSH1 0x4 ADD PUSH2 0x7F8 SWAP4 SWAP3 SWAP2 SWAP1 PUSH2 0x1EC8 JUMP JUMPDEST PUSH1 0x20 PUSH1 0x40 MLOAD DUP1 DUP4 SUB DUP2 PUSH0 DUP8 GAS CALL ISZERO DUP1 ISZERO PUSH2 0x814 JUMPI RETURNDATASIZE PUSH0 DUP1 RETURNDATACOPY RETURNDATASIZE PUSH0 REVERT JUMPDEST POP POP POP POP PUSH1 0x40 MLOAD RETURNDATASIZE PUSH1 0x1F NOT PUSH1 0x1F DUP3 ADD AND DUP3 ADD DUP1 PUSH1 0x40 MSTORE POP DUP2 ADD SWAP1 PUSH2 0x838 SWAP2 SWAP1 PUSH2 0x1F27 JUMP JUMPDEST POP CALLER PUSH20 0xFFFFFFFFFFFFFFFFFFFFFFFFFFFFFFFFFFFFFFFF AND PUSH2 0x8FC PUSH2 0x85C DUP4 PUSH2 0x17AF JUMP JUMPDEST SWAP1 DUP2 ISZERO MUL SWAP1 PUSH1 0x40 MLOAD PUSH0 PUSH1 0x40 MLOAD DUP1 DUP4 SUB DUP2 DUP6 DUP9 DUP9 CALL SWAP4 POP POP POP POP ISZERO DUP1 ISZERO PUSH2 0x884 JUMPI RETURNDATASIZE PUSH0 DUP1 RETURNDATACOPY RETURNDATASIZE PUSH0 REVERT JUMPDEST POP POP JUMP JUMPDEST CALLER PUSH1 0x1 PUSH0 SWAP1 SLOAD SWAP1 PUSH2 0x100 EXP SWAP1 DIV PUSH20 0xFFFFFFFFFFFFFFFFFFFFFFFFFFFFFFFFFFFFFFFF AND PUSH20 0xFFFFFFFFFFFFFFFFFFFFFFFFFFFFFFFFFFFFFFFF AND DUP2 PUSH20 0xFFFFFFFFFFFFFFFFFFFFFFFFFFFFFFFFFFFFFFFF AND EQ PUSH2 0x918 JUMPI PUSH1 0x40 MLOAD PUSH32 0x8C379A000000000000000000000000000000000000000000000000000000000 DUP2 MSTORE PUSH1 0x4 ADD PUSH2 0x90F SWAP1 PUSH2 0x2386 JUMP JUMPDEST PUSH1 0x40 MLOAD DUP1 SWAP2 SUB SWAP1 REVERT JUMPDEST PUSH0 PUSH1 0x4 DUP4 PUSH1 0x40 MLOAD PUSH2 0x929 SWAP2 SWAP1 PUSH2 0x1D87 JUMP JUMPDEST SWAP1 DUP2 MSTORE PUSH1 0x20 ADD PUSH1 0x40 MLOAD DUP1 SWAP2 SUB SWAP1 KECCAK256 PUSH1 0x2 ADD PUSH0 PUSH2 0x100 EXP DUP2 SLOAD DUP2 PUSH1 0xFF MUL NOT AND SWAP1 DUP4 ISZERO ISZERO MUL OR SWAP1 SSTORE POP PUSH32 0x1A4069FD871C529F05F523669B5E830CC64F05F1C9F0FB6072E441658826E0D9 DUP3 PUSH1 0x40 MLOAD PUSH2 0x97F SWAP2 SWAP1 PUSH2 0x23A4 JUMP JUMPDEST PUSH1 0x40 MLOAD DUP1 SWAP2 SUB SWAP1 LOG1 POP POP JUMP JUMPDEST PUSH1 0x2 PUSH1 0x20 MSTORE DUP1 PUSH0 MSTORE PUSH1 0x40 PUSH0 KECCAK256 PUSH0 SWAP2 POP SWAP1 POP DUP1 PUSH0 ADD SLOAD SWAP1 POP DUP2 JUMP JUMPDEST CALLER PUSH1 0x1 PUSH0 SWAP1 SLOAD SWAP1 PUSH2 0x100 EXP SWAP1 DIV PUSH20 0xFFFFFFFFFFFFFFFFFFFFFFFFFFFFFFFFFFFFFFFF AND PUSH20 0xFFFFFFFFFFFFFFFFFFFFFFFFFFFFFFFFFFFFFFFF AND DUP2 PUSH20 0xFFFFFFFFFFFFFFFFFFFFFFFFFFFFFFFFFFFFFFFF AND EQ PUSH2 0xA35 JUMPI PUSH1 0x40 MLOAD PUSH32 0x8C379A000000000000000000000000000000000000000000000000000000000 DUP2 MSTORE PUSH1 0x4 ADD PUSH2 0xA2C SWAP1 PUSH2 0x2386 JUMP JUMPDEST PUSH1 0x40 MLOAD DUP1 SWAP2 SUB SWAP1 REVERT JUMPDEST PUSH0 PUSH1 0x3 DUP4 PUSH1 0x40 MLOAD PUSH2 0xA46 SWAP2 SWAP1 PUSH2 0x1D87 JUMP JUMPDEST SWAP1 DUP2 MSTORE PUSH1 0x20 ADD PUSH1 0x40 MLOAD DUP1 SWAP2 SUB SWAP1 KECCAK256 PUSH1 0x2 ADD PUSH0 PUSH2 0x100 EXP DUP2 SLOAD DUP2 PUSH1 0xFF MUL NOT AND SWAP1 DUP4 ISZERO ISZERO MUL OR SWAP1 SSTORE POP PUSH32 0xE09D9CE4ED0FF32E3FA945D6C80DA90640852A79ABE6CE4CFEDEA4A4987AA1CE DUP3 PUSH1 0x40 MLOAD PUSH2 0xA9C SWAP2 SWAP1 PUSH2 0x23A4 JUMP JUMPDEST PUSH1 0x40 MLOAD DUP1 SWAP2 SUB SWAP1 LOG1 POP POP JUMP JUMPDEST PUSH0 DUP1 PUSH0 SWAP1 SLOAD SWAP1 PUSH2 0x100 EXP SWAP1 DIV PUSH20 0xFFFFFFFFFFFFFFFFFFFFFFFFFFFFFFFFFFFFFFFF AND PUSH20 0xFFFFFFFFFFFFFFFFFFFFFFFFFFFFFFFFFFFFFFFF AND PUSH4 0x70A08231 ADDRESS PUSH1 0x40 MLOAD DUP3 PUSH4 0xFFFFFFFF AND PUSH1 0xE0 SHL DUP2 MSTORE PUSH1 0x4 ADD PUSH2 0xB02 SWAP2 SWAP1 PUSH2 0x23C4 JUMP JUMPDEST PUSH1 0x20 PUSH1 0x40 MLOAD DUP1 DUP4 SUB DUP2 DUP7 GAS STATICCALL ISZERO DUP1 ISZERO PUSH2 0xB1D JUMPI RETURNDATASIZE PUSH0 DUP1 RETURNDATACOPY RETURNDATASIZE PUSH0 REVERT JUMPDEST POP POP POP POP PUSH1 0x40 MLOAD RETURNDATASIZE PUSH1 0x1F NOT PUSH1 0x1F DUP3 ADD AND DUP3 ADD DUP1 PUSH1 0x40 MSTORE POP DUP2 ADD SWAP1 PUSH2 0xB41 SWAP2 SWAP1 PUSH2 0x23F1 JUMP JUMPDEST SWAP1 POP SWAP1 JUMP JUMPDEST CALLER PUSH1 0x1 PUSH0 SWAP1 SLOAD SWAP1 PUSH2 0x100 EXP SWAP1 DIV PUSH20 0xFFFFFFFFFFFFFFFFFFFFFFFFFFFFFFFFFFFFFFFF AND PUSH20 0xFFFFFFFFFFFFFFFFFFFFFFFFFFFFFFFFFFFFFFFF AND DUP2 PUSH20 0xFFFFFFFFFFFFFFFFFFFFFFFFFFFFFFFFFFFFFFFF AND EQ PUSH2 0xBD6 JUMPI PUSH1 0x40 MLOAD PUSH32 0x8C379A000000000000000000000000000000000000000000000000000000000 DUP2 MSTORE PUSH1 0x4 ADD PUSH2 0xBCD SWAP1 PUSH2 0x2386 JUMP JUMPDEST PUSH1 0x40 MLOAD DUP1 SWAP2 SUB SWAP1 REVERT JUMPDEST PUSH1 0x40 MLOAD DUP1 PUSH1 0x60 ADD PUSH1 0x40 MSTORE DUP1 DUP5 DUP2 MSTORE PUSH1 0x20 ADD DUP4 DUP2 MSTORE PUSH1 0x20 ADD PUSH1 0x1 ISZERO ISZERO DUP2 MSTORE POP PUSH1 0x4 DUP5 PUSH1 0x40 MLOAD PUSH2 0xC04 SWAP2 SWAP1 PUSH2 0x1D87 JUMP JUMPDEST SWAP1 DUP2 MSTORE PUSH1 0x20 ADD PUSH1 0x40 MLOAD DUP1 SWAP2 SUB SWAP1 KECCAK256 PUSH0 DUP3 ADD MLOAD DUP2 PUSH0 ADD SWAP1 DUP2 PUSH2 0xC25 SWAP2 SWAP1 PUSH2 0x20EF JUMP JUMPDEST POP PUSH1 0x20 DUP3 ADD MLOAD DUP2 PUSH1 0x1 ADD SSTORE PUSH1 0x40 DUP3 ADD MLOAD DUP2 PUSH1 0x2 ADD PUSH0 PUSH2 0x100 EXP DUP2 SLOAD DUP2 PUSH1 0xFF MUL NOT AND SWAP1 DUP4 ISZERO ISZERO MUL OR SWAP1 SSTORE POP SWAP1 POP POP PUSH1 0x8 DUP4 SWAP1 DUP1 PUSH1 0x1 DUP2 SLOAD ADD DUP1 DUP3 SSTORE DUP1 SWAP2 POP POP PUSH1 0x1 SWAP1 SUB SWAP1 PUSH0 MSTORE PUSH1 0x20 PUSH0 KECCAK256 ADD PUSH0 SWAP1 SWAP2 SWAP1 SWAP2 SWAP1 SWAP2 POP SWAP1 DUP2 PUSH2 0xC83 SWAP2 SWAP1 PUSH2 0x20EF JUMP JUMPDEST POP PUSH32 0x17BC45930669AB6F8432A2DDB7EE4168D1FE73374EE382344C4AF01445A8243B DUP4 DUP4 PUSH1 0x40 MLOAD PUSH2 0xCB5 SWAP3 SWAP2 SWAP1 PUSH2 0x241C JUMP JUMPDEST PUSH1 0x40 MLOAD DUP1 SWAP2 SUB SWAP1 LOG1 POP POP POP JUMP JUMPDEST CALLER PUSH1 0x1 PUSH0 SWAP1 SLOAD SWAP1 PUSH2 0x100 EXP SWAP1 DIV PUSH20 0xFFFFFFFFFFFFFFFFFFFFFFFFFFFFFFFFFFFFFFFF AND PUSH20 0xFFFFFFFFFFFFFFFFFFFFFFFFFFFFFFFFFFFFFFFF AND DUP2 PUSH20 0xFFFFFFFFFFFFFFFFFFFFFFFFFFFFFFFFFFFFFFFF AND EQ PUSH2 0xD52 JUMPI PUSH1 0x40 MLOAD PUSH32 0x8C379A000000000000000000000000000000000000000000000000000000000 DUP2 MSTORE PUSH1 0x4 ADD PUSH2 0xD49 SWAP1 PUSH2 0x2386 JUMP JUMPDEST PUSH1 0x40 MLOAD DUP1 SWAP2 SUB SWAP1 REVERT JUMPDEST PUSH0 DUP1 SLOAD SWAP1 PUSH2 0x100 EXP SWAP1 DIV PUSH20 0xFFFFFFFFFFFFFFFFFFFFFFFFFFFFFFFFFFFFFFFF AND PUSH20 0xFFFFFFFFFFFFFFFFFFFFFFFFFFFFFFFFFFFFFFFF AND PUSH4 0x1D43CC98 DUP4 PUSH1 0x40 MLOAD DUP3 PUSH4 0xFFFFFFFF AND PUSH1 0xE0 SHL DUP2 MSTORE PUSH1 0x4 ADD PUSH2 0xDAA SWAP2 SWAP1 PUSH2 0x1BA6 JUMP JUMPDEST PUSH0 PUSH1 0x40 MLOAD DUP1 DUP4 SUB DUP2 PUSH0 DUP8 DUP1 EXTCODESIZE ISZERO DUP1 ISZERO PUSH2 0xDC1 JUMPI PUSH0 DUP1 REVERT JUMPDEST POP GAS CALL ISZERO DUP1 ISZERO PUSH2 0xDD3 JUMPI RETURNDATASIZE PUSH0 DUP1 RETURNDATACOPY RETURNDATASIZE PUSH0 REVERT JUMPDEST POP POP POP POP POP POP JUMP JUMPDEST PUSH1 0x1 PUSH0 SWAP1 SLOAD SWAP1 PUSH2 0x100 EXP SWAP1 DIV PUSH20 0xFFFFFFFFFFFFFFFFFFFFFFFFFFFFFFFFFFFFFFFF AND DUP2 JUMP JUMPDEST PUSH0 DUP1 PUSH0 SWAP1 SLOAD SWAP1 PUSH2 0x100 EXP SWAP1 DIV PUSH20 0xFFFFFFFFFFFFFFFFFFFFFFFFFFFFFFFFFFFFFFFF AND PUSH20 0xFFFFFFFFFFFFFFFFFFFFFFFFFFFFFFFFFFFFFFFF AND PUSH4 0x70A08231 CALLER PUSH1 0x40 MLOAD DUP3 PUSH4 0xFFFFFFFF AND PUSH1 0xE0 SHL DUP2 MSTORE PUSH1 0x4 ADD PUSH2 0xE5A SWAP2 SWAP1 PUSH2 0x23C4 JUMP JUMPDEST PUSH1 0x20 PUSH1 0x40 MLOAD DUP1 DUP4 SUB DUP2 DUP7 GAS STATICCALL ISZERO DUP1 ISZERO PUSH2 0xE75 JUMPI RETURNDATASIZE PUSH0 DUP1 RETURNDATACOPY RETURNDATASIZE PUSH0 REVERT JUMPDEST POP POP POP POP PUSH1 0x40 MLOAD RETURNDATASIZE PUSH1 0x1F NOT PUSH1 0x1F DUP3 ADD AND DUP3 ADD DUP1 PUSH1 0x40 MSTORE POP DUP2 ADD SWAP1 PUSH2 0xE99 SWAP2 SWAP1 PUSH2 0x23F1 JUMP JUMPDEST SWAP1 POP SWAP1 JUMP JUMPDEST PUSH1 0x1 ISZERO ISZERO PUSH1 0x4 DUP3 PUSH1 0x40 MLOAD PUSH2 0xEB2 SWAP2 SWAP1 PUSH2 0x1D87 JUMP JUMPDEST SWAP1 DUP2 MSTORE PUSH1 0x20 ADD PUSH1 0x40 MLOAD DUP1 SWAP2 SUB SWAP1 KECCAK256 PUSH1 0x2 ADD PUSH0 SWAP1 SLOAD SWAP1 PUSH2 0x100 EXP SWAP1 DIV PUSH1 0xFF AND ISZERO ISZERO EQ PUSH2 0xF12 JUMPI PUSH1 0x40 MLOAD PUSH32 0x8C379A000000000000000000000000000000000000000000000000000000000 DUP2 MSTORE PUSH1 0x4 ADD PUSH2 0xF09 SWAP1 PUSH2 0x24BA JUMP JUMPDEST PUSH1 0x40 MLOAD DUP1 SWAP2 SUB SWAP1 REVERT JUMPDEST PUSH0 PUSH1 0x4 DUP3 PUSH1 0x40 MLOAD PUSH2 0xF23 SWAP2 SWAP1 PUSH2 0x1D87 JUMP JUMPDEST SWAP1 DUP2 MSTORE PUSH1 0x20 ADD PUSH1 0x40 MLOAD DUP1 SWAP2 SUB SWAP1 KECCAK256 PUSH1 0x1 ADD SLOAD SWAP1 POP PUSH2 0xF3F PUSH2 0xE00 JUMP JUMPDEST DUP2 GT ISZERO PUSH2 0xF81 JUMPI PUSH1 0x40 MLOAD PUSH32 0x8C379A000000000000000000000000000000000000000000000000000000000 DUP2 MSTORE PUSH1 0x4 ADD PUSH2 0xF78 SWAP1 PUSH2 0x2548 JUMP JUMPDEST PUSH1 0x40 MLOAD DUP1 SWAP2 SUB SWAP1 REVERT JUMPDEST PUSH0 DUP1 SLOAD SWAP1 PUSH2 0x100 EXP SWAP1 DIV PUSH20 0xFFFFFFFFFFFFFFFFFFFFFFFFFFFFFFFFFFFFFFFF AND PUSH20 0xFFFFFFFFFFFFFFFFFFFFFFFFFFFFFFFFFFFFFFFF AND PUSH4 0x5E413C87 CALLER ADDRESS DUP5 PUSH1 0x40 MLOAD DUP5 PUSH4 0xFFFFFFFF AND PUSH1 0xE0 SHL DUP2 MSTORE PUSH1 0x4 ADD PUSH2 0xFDD SWAP4 SWAP3 SWAP2 SWAP1 PUSH2 0x1EC8 JUMP JUMPDEST PUSH1 0x20 PUSH1 0x40 MLOAD DUP1 DUP4 SUB DUP2 PUSH0 DUP8 GAS CALL ISZERO DUP1 ISZERO PUSH2 0xFF9 JUMPI RETURNDATASIZE PUSH0 DUP1 RETURNDATACOPY RETURNDATASIZE PUSH0 REVERT JUMPDEST POP POP POP POP PUSH1 0x40 MLOAD RETURNDATASIZE PUSH1 0x1F NOT PUSH1 0x1F DUP3 ADD AND DUP3 ADD DUP1 PUSH1 0x40 MSTORE POP DUP2 ADD SWAP1 PUSH2 0x101D SWAP2 SWAP1 PUSH2 0x1F27 JUMP JUMPDEST POP PUSH1 0x6 PUSH0 CALLER PUSH20 0xFFFFFFFFFFFFFFFFFFFFFFFFFFFFFFFFFFFFFFFF AND PUSH20 0xFFFFFFFFFFFFFFFFFFFFFFFFFFFFFFFFFFFFFFFF AND DUP2 MSTORE PUSH1 0x20 ADD SWAP1 DUP2 MSTORE PUSH1 0x20 ADD PUSH0 KECCAK256 DUP3 SWAP1 DUP1 PUSH1 0x1 DUP2 SLOAD ADD DUP1 DUP3 SSTORE DUP1 SWAP2 POP POP PUSH1 0x1 SWAP1 SUB SWAP1 PUSH0 MSTORE PUSH1 0x20 PUSH0 KECCAK256 ADD PUSH0 SWAP1 SWAP2 SWAP1 SWAP2 SWAP1 SWAP2 POP SWAP1 DUP2 PUSH2 0x108A SWAP2 SWAP1 PUSH2 0x20EF JUMP JUMPDEST POP PUSH32 0x48F33E7B77A627C37305288A2BD6CC25F05662DD696FD1AD057099C9E541E1D5 DUP3 DUP3 CALLER PUSH1 0x40 MLOAD PUSH2 0x10BE SWAP4 SWAP3 SWAP2 SWAP1 PUSH2 0x21BE JUMP JUMPDEST PUSH1 0x40 MLOAD DUP1 SWAP2 SUB SWAP1 LOG1 POP POP JUMP JUMPDEST PUSH1 0x3 DUP2 DUP1 MLOAD PUSH1 0x20 DUP2 ADD DUP3 ADD DUP1 MLOAD DUP5 DUP3 MSTORE PUSH1 0x20 DUP4 ADD PUSH1 0x20 DUP6 ADD KECCAK256 DUP2 DUP4 MSTORE DUP1 SWAP6 POP POP POP POP POP POP PUSH0 SWAP2 POP SWAP1 POP DUP1 PUSH0 ADD DUP1 SLOAD PUSH2 0x1101 SWAP1 PUSH2 0x1D1D JUMP JUMPDEST DUP1 PUSH1 0x1F ADD PUSH1 0x20 DUP1 SWAP2 DIV MUL PUSH1 0x20 ADD PUSH1 0x40 MLOAD SWAP1 DUP2 ADD PUSH1 0x40 MSTORE DUP1 SWAP3 SWAP2 SWAP1 DUP2 DUP2 MSTORE PUSH1 0x20 ADD DUP3 DUP1 SLOAD PUSH2 0x112D SWAP1 PUSH2 0x1D1D JUMP JUMPDEST DUP1 ISZERO PUSH2 0x1178 JUMPI DUP1 PUSH1 0x1F LT PUSH2 0x114F JUMPI PUSH2 0x100 DUP1 DUP4 SLOAD DIV MUL DUP4 MSTORE SWAP2 PUSH1 0x20 ADD SWAP2 PUSH2 0x1178 JUMP JUMPDEST DUP3 ADD SWAP2 SWAP1 PUSH0 MSTORE PUSH1 0x20 PUSH0 KECCAK256 SWAP1 JUMPDEST DUP2 SLOAD DUP2 MSTORE SWAP1 PUSH1 0x1 ADD SWAP1 PUSH1 0x20 ADD DUP1 DUP4 GT PUSH2 0x115B JUMPI DUP3 SWAP1 SUB PUSH1 0x1F AND DUP3 ADD SWAP2 JUMPDEST POP POP POP POP POP SWAP1 DUP1 PUSH1 0x1 ADD SLOAD SWAP1 DUP1 PUSH1 0x2 ADD PUSH0 SWAP1 SLOAD SWAP1 PUSH2 0x100 EXP SWAP1 DIV PUSH1 0xFF AND SWAP1 POP DUP4 JUMP JUMPDEST PUSH0 PUSH2 0x11A4 DUP3 PUSH2 0x17AF JUMP JUMPDEST SWAP1 POP PUSH0 PUSH2 0x11AF PUSH2 0xAA8 JUMP JUMPDEST SWAP1 POP DUP2 CALLVALUE LT ISZERO PUSH2 0x11F4 JUMPI PUSH1 0x40 MLOAD PUSH32 0x8C379A000000000000000000000000000000000000000000000000000000000 DUP2 MSTORE PUSH1 0x4 ADD PUSH2 0x11EB SWAP1 PUSH2 0x25D6 JUMP JUMPDEST PUSH1 0x40 MLOAD DUP1 SWAP2 SUB SWAP1 REVERT JUMPDEST DUP1 DUP4 GT ISZERO PUSH2 0x1237 JUMPI PUSH1 0x40 MLOAD PUSH32 0x8C379A000000000000000000000000000000000000000000000000000000000 DUP2 MSTORE PUSH1 0x4 ADD PUSH2 0x122E SWAP1 PUSH2 0x263E JUMP JUMPDEST PUSH1 0x40 MLOAD DUP1 SWAP2 SUB SWAP1 REVERT JUMPDEST PUSH0 DUP3 CALLVALUE PUSH2 0x1244 SWAP2 SWAP1 PUSH2 0x2689 JUMP JUMPDEST SWAP1 POP CALLER PUSH20 0xFFFFFFFFFFFFFFFFFFFFFFFFFFFFFFFFFFFFFFFF AND PUSH2 0x8FC DUP3 SWAP1 DUP2 ISZERO MUL SWAP1 PUSH1 0x40 MLOAD PUSH0 PUSH1 0x40 MLOAD DUP1 DUP4 SUB DUP2 DUP6 DUP9 DUP9 CALL SWAP4 POP POP POP POP ISZERO DUP1 ISZERO PUSH2 0x1289 JUMPI RETURNDATASIZE PUSH0 DUP1 RETURNDATACOPY RETURNDATASIZE PUSH0 REVERT JUMPDEST POP PUSH0 DUP1 SLOAD SWAP1 PUSH2 0x100 EXP SWAP1 DIV PUSH20 0xFFFFFFFFFFFFFFFFFFFFFFFFFFFFFFFFFFFFFFFF AND PUSH20 0xFFFFFFFFFFFFFFFFFFFFFFFFFFFFFFFFFFFFFFFF AND PUSH4 0xA9059CBB CALLER DUP7 PUSH1 0x40 MLOAD DUP4 PUSH4 0xFFFFFFFF AND PUSH1 0xE0 SHL DUP2 MSTORE PUSH1 0x4 ADD PUSH2 0x12E4 SWAP3 SWAP2 SWAP1 PUSH2 0x26BC JUMP JUMPDEST PUSH1 0x20 PUSH1 0x40 MLOAD DUP1 DUP4 SUB DUP2 PUSH0 DUP8 GAS CALL ISZERO DUP1 ISZERO PUSH2 0x1300 JUMPI RETURNDATASIZE PUSH0 DUP1 RETURNDATACOPY RETURNDATASIZE PUSH0 REVERT JUMPDEST POP POP POP POP PUSH1 0x40 MLOAD RETURNDATASIZE PUSH1 0x1F NOT PUSH1 0x1F DUP3 ADD AND DUP3 ADD DUP1 PUSH1 0x40 MSTORE POP DUP2 ADD SWAP1 PUSH2 0x1324 SWAP2 SWAP1 PUSH2 0x1F27 JUMP JUMPDEST POP DUP4 PUSH1 0x2 PUSH0 CALLER PUSH20 0xFFFFFFFFFFFFFFFFFFFFFFFFFFFFFFFFFFFFFFFF AND PUSH20 0xFFFFFFFFFFFFFFFFFFFFFFFFFFFFFFFFFFFFFFFF AND DUP2 MSTORE PUSH1 0x20 ADD SWAP1 DUP2 MSTORE PUSH1 0x20 ADD PUSH0 KECCAK256 PUSH0 ADD PUSH0 DUP3 DUP3 SLOAD PUSH2 0x1373 SWAP2 SWAP1 PUSH2 0x26E3 JUMP JUMPDEST SWAP3 POP POP DUP2 SWAP1 SSTORE POP POP POP POP POP JUMP JUMPDEST PUSH1 0x60 PUSH1 0x5 PUSH0 CALLER PUSH20 0xFFFFFFFFFFFFFFFFFFFFFFFFFFFFFFFFFFFFFFFF AND PUSH20 0xFFFFFFFFFFFFFFFFFFFFFFFFFFFFFFFFFFFFFFFF AND DUP2 MSTORE PUSH1 0x20 ADD SWAP1 DUP2 MSTORE PUSH1 0x20 ADD PUSH0 KECCAK256 DUP1 SLOAD DUP1 PUSH1 0x20 MUL PUSH1 0x20 ADD PUSH1 0x40 MLOAD SWAP1 DUP2 ADD PUSH1 0x40 MSTORE DUP1 SWAP3 SWAP2 SWAP1 DUP2 DUP2 MSTORE PUSH1 0x20 ADD PUSH0 SWAP1 JUMPDEST DUP3 DUP3 LT ISZERO PUSH2 0x1486 JUMPI DUP4 DUP3 SWAP1 PUSH0 MSTORE PUSH1 0x20 PUSH0 KECCAK256 ADD DUP1 SLOAD PUSH2 0x13FB SWAP1 PUSH2 0x1D1D JUMP JUMPDEST DUP1 PUSH1 0x1F ADD PUSH1 0x20 DUP1 SWAP2 DIV MUL PUSH1 0x20 ADD PUSH1 0x40 MLOAD SWAP1 DUP2 ADD PUSH1 0x40 MSTORE DUP1 SWAP3 SWAP2 SWAP1 DUP2 DUP2 MSTORE PUSH1 0x20 ADD DUP3 DUP1 SLOAD PUSH2 0x1427 SWAP1 PUSH2 0x1D1D JUMP JUMPDEST DUP1 ISZERO PUSH2 0x1472 JUMPI DUP1 PUSH1 0x1F LT PUSH2 0x1449 JUMPI PUSH2 0x100 DUP1 DUP4 SLOAD DIV MUL DUP4 MSTORE SWAP2 PUSH1 0x20 ADD SWAP2 PUSH2 0x1472 JUMP JUMPDEST DUP3 ADD SWAP2 SWAP1 PUSH0 MSTORE PUSH1 0x20 PUSH0 KECCAK256 SWAP1 JUMPDEST DUP2 SLOAD DUP2 MSTORE SWAP1 PUSH1 0x1 ADD SWAP1 PUSH1 0x20 ADD DUP1 DUP4 GT PUSH2 0x1455 JUMPI DUP3 SWAP1 SUB PUSH1 0x1F AND DUP3 ADD SWAP2 JUMPDEST POP POP POP POP POP DUP2 MSTORE PUSH1 0x20 ADD SWAP1 PUSH1 0x1 ADD SWAP1 PUSH2 0x13DE JUMP JUMPDEST POP POP POP POP SWAP1 POP SWAP1 JUMP JUMPDEST PUSH1 0x60 PUSH1 0x7 DUP1 SLOAD DUP1 PUSH1 0x20 MUL PUSH1 0x20 ADD PUSH1 0x40 MLOAD SWAP1 DUP2 ADD PUSH1 0x40 MSTORE DUP1 SWAP3 SWAP2 SWAP1 DUP2 DUP2 MSTORE PUSH1 0x20 ADD PUSH0 SWAP1 JUMPDEST DUP3 DUP3 LT ISZERO PUSH2 0x155A JUMPI DUP4 DUP3 SWAP1 PUSH0 MSTORE PUSH1 0x20 PUSH0 KECCAK256 ADD DUP1 SLOAD PUSH2 0x14CF SWAP1 PUSH2 0x1D1D JUMP JUMPDEST DUP1 PUSH1 0x1F ADD PUSH1 0x20 DUP1 SWAP2 DIV MUL PUSH1 0x20 ADD PUSH1 0x40 MLOAD SWAP1 DUP2 ADD PUSH1 0x40 MSTORE DUP1 SWAP3 SWAP2 SWAP1 DUP2 DUP2 MSTORE PUSH1 0x20 ADD DUP3 DUP1 SLOAD PUSH2 0x14FB SWAP1 PUSH2 0x1D1D JUMP JUMPDEST DUP1 ISZERO PUSH2 0x1546 JUMPI DUP1 PUSH1 0x1F LT PUSH2 0x151D JUMPI PUSH2 0x100 DUP1 DUP4 SLOAD DIV MUL DUP4 MSTORE SWAP2 PUSH1 0x20 ADD SWAP2 PUSH2 0x1546 JUMP JUMPDEST DUP3 ADD SWAP2 SWAP1 PUSH0 MSTORE PUSH1 0x20 PUSH0 KECCAK256 SWAP1 JUMPDEST DUP2 SLOAD DUP2 MSTORE SWAP1 PUSH1 0x1 ADD SWAP1 PUSH1 0x20 ADD DUP1 DUP4 GT PUSH2 0x1529 JUMPI DUP3 SWAP1 SUB PUSH1 0x1F AND DUP3 ADD SWAP2 JUMPDEST POP POP POP POP POP DUP2 MSTORE PUSH1 0x20 ADD SWAP1 PUSH1 0x1 ADD SWAP1 PUSH2 0x14B2 JUMP JUMPDEST POP POP POP POP SWAP1 POP SWAP1 JUMP JUMPDEST CALLER PUSH1 0x1 PUSH0 SWAP1 SLOAD SWAP1 PUSH2 0x100 EXP SWAP1 DIV PUSH20 0xFFFFFFFFFFFFFFFFFFFFFFFFFFFFFFFFFFFFFFFF AND PUSH20 0xFFFFFFFFFFFFFFFFFFFFFFFFFFFFFFFFFFFFFFFF AND DUP2 PUSH20 0xFFFFFFFFFFFFFFFFFFFFFFFFFFFFFFFFFFFFFFFF AND EQ PUSH2 0x15F3 JUMPI PUSH1 0x40 MLOAD PUSH32 0x8C379A000000000000000000000000000000000000000000000000000000000 DUP2 MSTORE PUSH1 0x4 ADD PUSH2 0x15EA SWAP1 PUSH2 0x2386 JUMP JUMPDEST PUSH1 0x40 MLOAD DUP1 SWAP2 SUB SWAP1 REVERT JUMPDEST PUSH1 0x40 MLOAD DUP1 PUSH1 0x60 ADD PUSH1 0x40 MSTORE DUP1 DUP5 DUP2 MSTORE PUSH1 0x20 ADD DUP4 DUP2 MSTORE PUSH1 0x20 ADD PUSH1 0x1 ISZERO ISZERO DUP2 MSTORE POP PUSH1 0x3 DUP5 PUSH1 0x40 MLOAD PUSH2 0x1621 SWAP2 SWAP1 PUSH2 0x1D87 JUMP JUMPDEST SWAP1 DUP2 MSTORE PUSH1 0x20 ADD PUSH1 0x40 MLOAD DUP1 SWAP2 SUB SWAP1 KECCAK256 PUSH0 DUP3 ADD MLOAD DUP2 PUSH0 ADD SWAP1 DUP2 PUSH2 0x1642 SWAP2 SWAP1 PUSH2 0x20EF JUMP JUMPDEST POP PUSH1 0x20 DUP3 ADD MLOAD DUP2 PUSH1 0x1 ADD SSTORE PUSH1 0x40 DUP3 ADD MLOAD DUP2 PUSH1 0x2 ADD PUSH0 PUSH2 0x100 EXP DUP2 SLOAD DUP2 PUSH1 0xFF MUL NOT AND SWAP1 DUP4 ISZERO ISZERO MUL OR SWAP1 SSTORE POP SWAP1 POP POP PUSH1 0x7 DUP4 SWAP1 DUP1 PUSH1 0x1 DUP2 SLOAD ADD DUP1 DUP3 SSTORE DUP1 SWAP2 POP POP PUSH1 0x1 SWAP1 SUB SWAP1 PUSH0 MSTORE PUSH1 0x20 PUSH0 KECCAK256 ADD PUSH0 SWAP1 SWAP2 SWAP1 SWAP2 SWAP1 SWAP2 POP SWAP1 DUP2 PUSH2 0x16A0 SWAP2 SWAP1 PUSH2 0x20EF JUMP JUMPDEST POP PUSH32 0xD93724E9E03A24A9A01D3658C3CDD1C2FD36BA110DA59FC0ABA9C73329328718 DUP4 DUP4 PUSH1 0x40 MLOAD PUSH2 0x16D2 SWAP3 SWAP2 SWAP1 PUSH2 0x241C JUMP JUMPDEST PUSH1 0x40 MLOAD DUP1 SWAP2 SUB SWAP1 LOG1 POP POP POP JUMP JUMPDEST PUSH1 0x4 DUP2 DUP1 MLOAD PUSH1 0x20 DUP2 ADD DUP3 ADD DUP1 MLOAD DUP5 DUP3 MSTORE PUSH1 0x20 DUP4 ADD PUSH1 0x20 DUP6 ADD KECCAK256 DUP2 DUP4 MSTORE DUP1 SWAP6 POP POP POP POP POP POP PUSH0 SWAP2 POP SWAP1 POP DUP1 PUSH0 ADD DUP1 SLOAD PUSH2 0x1716 SWAP1 PUSH2 0x1D1D JUMP JUMPDEST DUP1 PUSH1 0x1F ADD PUSH1 0x20 DUP1 SWAP2 DIV MUL PUSH1 0x20 ADD PUSH1 0x40 MLOAD SWAP1 DUP2 ADD PUSH1 0x40 MSTORE DUP1 SWAP3 SWAP2 SWAP1 DUP2 DUP2 MSTORE PUSH1 0x20 ADD DUP3 DUP1 SLOAD PUSH2 0x1742 SWAP1 PUSH2 0x1D1D JUMP JUMPDEST DUP1 ISZERO PUSH2 0x178D JUMPI DUP1 PUSH1 0x1F LT PUSH2 0x1764 JUMPI PUSH2 0x100 DUP1 DUP4 SLOAD DIV MUL DUP4 MSTORE SWAP2 PUSH1 0x20 ADD SWAP2 PUSH2 0x178D JUMP JUMPDEST DUP3 ADD SWAP2 SWAP1 PUSH0 MSTORE PUSH1 0x20 PUSH0 KECCAK256 SWAP1 JUMPDEST DUP2 SLOAD DUP2 MSTORE SWAP1 PUSH1 0x1 ADD SWAP1 PUSH1 0x20 ADD DUP1 DUP4 GT PUSH2 0x1770 JUMPI DUP3 SWAP1 SUB PUSH1 0x1F AND DUP3 ADD SWAP2 JUMPDEST POP POP POP POP POP SWAP1 DUP1 PUSH1 0x1 ADD SLOAD SWAP1 DUP1 PUSH1 0x2 ADD PUSH0 SWAP1 SLOAD SWAP1 PUSH2 0x100 EXP SWAP1 DIV PUSH1 0xFF AND SWAP1 POP DUP4 JUMP JUMPDEST PUSH0 PUSH8 0xDE0B6B3A7640000 DUP3 PUSH2 0x17C4 SWAP2 SWAP1 PUSH2 0x2716 JUMP JUMPDEST SWAP1 POP SWAP2 SWAP1 POP JUMP JUMPDEST PUSH0 DUP2 MLOAD SWAP1 POP SWAP2 SWAP1 POP JUMP JUMPDEST PUSH0 DUP3 DUP3 MSTORE PUSH1 0x20 DUP3 ADD SWAP1 POP SWAP3 SWAP2 POP POP JUMP JUMPDEST PUSH0 DUP2 SWAP1 POP PUSH1 0x20 DUP3 ADD SWAP1 POP SWAP2 SWAP1 POP JUMP JUMPDEST PUSH0 DUP2 MLOAD SWAP1 POP SWAP2 SWAP1 POP JUMP JUMPDEST PUSH0 DUP3 DUP3 MSTORE PUSH1 0x20 DUP3 ADD SWAP1 POP SWAP3 SWAP2 POP POP JUMP JUMPDEST PUSH0 JUMPDEST DUP4 DUP2 LT ISZERO PUSH2 0x182B JUMPI DUP1 DUP3 ADD MLOAD DUP2 DUP5 ADD MSTORE PUSH1 0x20 DUP2 ADD SWAP1 POP PUSH2 0x1810 JUMP JUMPDEST PUSH0 DUP5 DUP5 ADD MSTORE POP POP POP POP JUMP JUMPDEST PUSH0 PUSH1 0x1F NOT PUSH1 0x1F DUP4 ADD AND SWAP1 POP SWAP2 SWAP1 POP JUMP JUMPDEST PUSH0 PUSH2 0x1850 DUP3 PUSH2 0x17F4 JUMP JUMPDEST PUSH2 0x185A DUP2 DUP6 PUSH2 0x17FE JUMP JUMPDEST SWAP4 POP PUSH2 0x186A DUP2 DUP6 PUSH1 0x20 DUP7 ADD PUSH2 0x180E JUMP JUMPDEST PUSH2 0x1873 DUP2 PUSH2 0x1836 JUMP JUMPDEST DUP5 ADD SWAP2 POP POP SWAP3 SWAP2 POP POP JUMP JUMPDEST PUSH0 PUSH2 0x1889 DUP4 DUP4 PUSH2 0x1846 JUMP JUMPDEST SWAP1 POP SWAP3 SWAP2 POP POP JUMP JUMPDEST PUSH0 PUSH1 0x20 DUP3 ADD SWAP1 POP SWAP2 SWAP1 POP JUMP JUMPDEST PUSH0 PUSH2 0x18A7 DUP3 PUSH2 0x17CB JUMP JUMPDEST PUSH2 0x18B1 DUP2 DUP6 PUSH2 0x17D5 JUMP JUMPDEST SWAP4 POP DUP4 PUSH1 0x20 DUP3 MUL DUP6 ADD PUSH2 0x18C3 DUP6 PUSH2 0x17E5 JUMP JUMPDEST DUP1 PUSH0 JUMPDEST DUP6 DUP2 LT ISZERO PUSH2 0x18FE JUMPI DUP5 DUP5 SUB DUP10 MSTORE DUP2 MLOAD PUSH2 0x18DF DUP6 DUP3 PUSH2 0x187E JUMP JUMPDEST SWAP5 POP PUSH2 0x18EA DUP4 PUSH2 0x1891 JUMP JUMPDEST SWAP3 POP PUSH1 0x20 DUP11 ADD SWAP10 POP POP PUSH1 0x1 DUP2 ADD SWAP1 POP PUSH2 0x18C6 JUMP JUMPDEST POP DUP3 SWAP8 POP DUP8 SWAP6 POP POP POP POP POP POP SWAP3 SWAP2 POP POP JUMP JUMPDEST PUSH0 PUSH1 0x20 DUP3 ADD SWAP1 POP DUP2 DUP2 SUB PUSH0 DUP4 ADD MSTORE PUSH2 0x1928 DUP2 DUP5 PUSH2 0x189D JUMP JUMPDEST SWAP1 POP SWAP3 SWAP2 POP POP JUMP JUMPDEST PUSH0 PUSH1 0x40 MLOAD SWAP1 POP SWAP1 JUMP JUMPDEST PUSH0 DUP1 REVERT JUMPDEST PUSH0 DUP1 REVERT JUMPDEST PUSH0 DUP1 REVERT JUMPDEST PUSH0 DUP1 REVERT JUMPDEST PUSH32 0x4E487B7100000000000000000000000000000000000000000000000000000000 PUSH0 MSTORE PUSH1 0x41 PUSH1 0x4 MSTORE PUSH1 0x24 PUSH0 REVERT JUMPDEST PUSH2 0x197F DUP3 PUSH2 0x1836 JUMP JUMPDEST DUP2 ADD DUP2 DUP2 LT PUSH8 0xFFFFFFFFFFFFFFFF DUP3 GT OR ISZERO PUSH2 0x199E JUMPI PUSH2 0x199D PUSH2 0x1949 JUMP JUMPDEST JUMPDEST DUP1 PUSH1 0x40 MSTORE POP POP POP JUMP JUMPDEST PUSH0 PUSH2 0x19B0 PUSH2 0x1930 JUMP JUMPDEST SWAP1 POP PUSH2 0x19BC DUP3 DUP3 PUSH2 0x1976 JUMP JUMPDEST SWAP2 SWAP1 POP JUMP JUMPDEST PUSH0 PUSH8 0xFFFFFFFFFFFFFFFF DUP3 GT ISZERO PUSH2 0x19DB JUMPI PUSH2 0x19DA PUSH2 0x1949 JUMP JUMPDEST JUMPDEST PUSH2 0x19E4 DUP3 PUSH2 0x1836 JUMP JUMPDEST SWAP1 POP PUSH1 0x20 DUP2 ADD SWAP1 POP SWAP2 SWAP1 POP JUMP JUMPDEST DUP3 DUP2 DUP4 CALLDATACOPY PUSH0 DUP4 DUP4 ADD MSTORE POP POP POP JUMP JUMPDEST PUSH0 PUSH2 0x1A11 PUSH2 0x1A0C DUP5 PUSH2 0x19C1 JUMP JUMPDEST PUSH2 0x19A7 JUMP JUMPDEST SWAP1 POP DUP3 DUP2 MSTORE PUSH1 0x20 DUP2 ADD DUP5 DUP5 DUP5 ADD GT ISZERO PUSH2 0x1A2D JUMPI PUSH2 0x1A2C PUSH2 0x1945 JUMP JUMPDEST JUMPDEST PUSH2 0x1A38 DUP5 DUP3 DUP6 PUSH2 0x19F1 JUMP JUMPDEST POP SWAP4 SWAP3 POP POP POP JUMP JUMPDEST PUSH0 DUP3 PUSH1 0x1F DUP4 ADD SLT PUSH2 0x1A54 JUMPI PUSH2 0x1A53 PUSH2 0x1941 JUMP JUMPDEST JUMPDEST DUP2 CALLDATALOAD PUSH2 0x1A64 DUP5 DUP3 PUSH1 0x20 DUP7 ADD PUSH2 0x19FF JUMP JUMPDEST SWAP2 POP POP SWAP3 SWAP2 POP POP JUMP JUMPDEST PUSH0 PUSH1 0x20 DUP3 DUP5 SUB SLT ISZERO PUSH2 0x1A82 JUMPI PUSH2 0x1A81 PUSH2 0x1939 JUMP JUMPDEST JUMPDEST PUSH0 DUP3 ADD CALLDATALOAD PUSH8 0xFFFFFFFFFFFFFFFF DUP2 GT ISZERO PUSH2 0x1A9F JUMPI PUSH2 0x1A9E PUSH2 0x193D JUMP JUMPDEST JUMPDEST PUSH2 0x1AAB DUP5 DUP3 DUP6 ADD PUSH2 0x1A40 JUMP JUMPDEST SWAP2 POP POP SWAP3 SWAP2 POP POP JUMP JUMPDEST PUSH0 DUP2 SWAP1 POP SWAP2 SWAP1 POP JUMP JUMPDEST PUSH2 0x1AC6 DUP2 PUSH2 0x1AB4 JUMP JUMPDEST DUP2 EQ PUSH2 0x1AD0 JUMPI PUSH0 DUP1 REVERT JUMPDEST POP JUMP JUMPDEST PUSH0 DUP2 CALLDATALOAD SWAP1 POP PUSH2 0x1AE1 DUP2 PUSH2 0x1ABD JUMP JUMPDEST SWAP3 SWAP2 POP POP JUMP JUMPDEST PUSH0 PUSH1 0x20 DUP3 DUP5 SUB SLT ISZERO PUSH2 0x1AFC JUMPI PUSH2 0x1AFB PUSH2 0x1939 JUMP JUMPDEST JUMPDEST PUSH0 PUSH2 0x1B09 DUP5 DUP3 DUP6 ADD PUSH2 0x1AD3 JUMP JUMPDEST SWAP2 POP POP SWAP3 SWAP2 POP POP JUMP JUMPDEST PUSH0 PUSH20 0xFFFFFFFFFFFFFFFFFFFFFFFFFFFFFFFFFFFFFFFF DUP3 AND SWAP1 POP SWAP2 SWAP1 POP JUMP JUMPDEST PUSH0 PUSH2 0x1B3B DUP3 PUSH2 0x1B12 JUMP JUMPDEST SWAP1 POP SWAP2 SWAP1 POP JUMP JUMPDEST PUSH2 0x1B4B DUP2 PUSH2 0x1B31 JUMP JUMPDEST DUP2 EQ PUSH2 0x1B55 JUMPI PUSH0 DUP1 REVERT JUMPDEST POP JUMP JUMPDEST PUSH0 DUP2 CALLDATALOAD SWAP1 POP PUSH2 0x1B66 DUP2 PUSH2 0x1B42 JUMP JUMPDEST SWAP3 SWAP2 POP POP JUMP JUMPDEST PUSH0 PUSH1 0x20 DUP3 DUP5 SUB SLT ISZERO PUSH2 0x1B81 JUMPI PUSH2 0x1B80 PUSH2 0x1939 JUMP JUMPDEST JUMPDEST PUSH0 PUSH2 0x1B8E DUP5 DUP3 DUP6 ADD PUSH2 0x1B58 JUMP JUMPDEST SWAP2 POP POP SWAP3 SWAP2 POP POP JUMP JUMPDEST PUSH2 0x1BA0 DUP2 PUSH2 0x1AB4 JUMP JUMPDEST DUP3 MSTORE POP POP JUMP JUMPDEST PUSH0 PUSH1 0x20 DUP3 ADD SWAP1 POP PUSH2 0x1BB9 PUSH0 DUP4 ADD DUP5 PUSH2 0x1B97 JUMP JUMPDEST SWAP3 SWAP2 POP POP JUMP JUMPDEST PUSH0 DUP1 PUSH1 0x40 DUP4 DUP6 SUB SLT ISZERO PUSH2 0x1BD5 JUMPI PUSH2 0x1BD4 PUSH2 0x1939 JUMP JUMPDEST JUMPDEST PUSH0 DUP4 ADD CALLDATALOAD PUSH8 0xFFFFFFFFFFFFFFFF DUP2 GT ISZERO PUSH2 0x1BF2 JUMPI PUSH2 0x1BF1 PUSH2 0x193D JUMP JUMPDEST JUMPDEST PUSH2 0x1BFE DUP6 DUP3 DUP7 ADD PUSH2 0x1A40 JUMP JUMPDEST SWAP3 POP POP PUSH1 0x20 PUSH2 0x1C0F DUP6 DUP3 DUP7 ADD PUSH2 0x1AD3 JUMP JUMPDEST SWAP2 POP POP SWAP3 POP SWAP3 SWAP1 POP JUMP JUMPDEST PUSH0 PUSH2 0x1C23 DUP3 PUSH2 0x1B12 JUMP JUMPDEST SWAP1 POP SWAP2 SWAP1 POP JUMP JUMPDEST PUSH2 0x1C33 DUP2 PUSH2 0x1C19 JUMP JUMPDEST DUP3 MSTORE POP POP JUMP JUMPDEST PUSH0 PUSH1 0x20 DUP3 ADD SWAP1 POP PUSH2 0x1C4C PUSH0 DUP4 ADD DUP5 PUSH2 0x1C2A JUMP JUMPDEST SWAP3 SWAP2 POP POP JUMP JUMPDEST PUSH0 DUP3 DUP3 MSTORE PUSH1 0x20 DUP3 ADD SWAP1 POP SWAP3 SWAP2 POP POP JUMP JUMPDEST PUSH0 PUSH2 0x1C6C DUP3 PUSH2 0x17F4 JUMP JUMPDEST PUSH2 0x1C76 DUP2 DUP6 PUSH2 0x1C52 JUMP JUMPDEST SWAP4 POP PUSH2 0x1C86 DUP2 DUP6 PUSH1 0x20 DUP7 ADD PUSH2 0x180E JUMP JUMPDEST PUSH2 0x1C8F DUP2 PUSH2 0x1836 JUMP JUMPDEST DUP5 ADD SWAP2 POP POP SWAP3 SWAP2 POP POP JUMP JUMPDEST PUSH0 DUP2 ISZERO ISZERO SWAP1 POP SWAP2 SWAP1 POP JUMP JUMPDEST PUSH2 0x1CAE DUP2 PUSH2 0x1C9A JUMP JUMPDEST DUP3 MSTORE POP POP JUMP JUMPDEST PUSH0 PUSH1 0x60 DUP3 ADD SWAP1 POP DUP2 DUP2 SUB PUSH0 DUP4 ADD MSTORE PUSH2 0x1CCC DUP2 DUP7 PUSH2 0x1C62 JUMP JUMPDEST SWAP1 POP PUSH2 0x1CDB PUSH1 0x20 DUP4 ADD DUP6 PUSH2 0x1B97 JUMP JUMPDEST PUSH2 0x1CE8 PUSH1 0x40 DUP4 ADD DUP5 PUSH2 0x1CA5 JUMP JUMPDEST SWAP5 SWAP4 POP POP POP POP JUMP JUMPDEST PUSH32 0x4E487B7100000000000000000000000000000000000000000000000000000000 PUSH0 MSTORE PUSH1 0x22 PUSH1 0x4 MSTORE PUSH1 0x24 PUSH0 REVERT JUMPDEST PUSH0 PUSH1 0x2 DUP3 DIV SWAP1 POP PUSH1 0x1 DUP3 AND DUP1 PUSH2 0x1D34 JUMPI PUSH1 0x7F DUP3 AND SWAP2 POP JUMPDEST PUSH1 0x20 DUP3 LT DUP2 SUB PUSH2 0x1D47 JUMPI PUSH2 0x1D46 PUSH2 0x1CF0 JUMP JUMPDEST JUMPDEST POP SWAP2 SWAP1 POP JUMP JUMPDEST PUSH0 DUP2 SWAP1 POP SWAP3 SWAP2 POP POP JUMP JUMPDEST PUSH0 PUSH2 0x1D61 DUP3 PUSH2 0x17F4 JUMP JUMPDEST PUSH2 0x1D6B DUP2 DUP6 PUSH2 0x1D4D JUMP JUMPDEST SWAP4 POP PUSH2 0x1D7B DUP2 DUP6 PUSH1 0x20 DUP7 ADD PUSH2 0x180E JUMP JUMPDEST DUP1 DUP5 ADD SWAP2 POP POP SWAP3 SWAP2 POP POP JUMP JUMPDEST PUSH0 PUSH2 0x1D92 DUP3 DUP5 PUSH2 0x1D57 JUMP JUMPDEST SWAP2 POP DUP2 SWAP1 POP SWAP3 SWAP2 POP POP JUMP JUMPDEST PUSH32 0x4C6120617472616363696F6E206E6F206573746120646973706F6E69626C6520 PUSH0 DUP3 ADD MSTORE PUSH32 0x656E206573746F73206D6F6D656E746F732E0000000000000000000000000000 PUSH1 0x20 DUP3 ADD MSTORE POP JUMP JUMPDEST PUSH0 PUSH2 0x1DF7 PUSH1 0x32 DUP4 PUSH2 0x1C52 JUMP JUMPDEST SWAP2 POP PUSH2 0x1E02 DUP3 PUSH2 0x1D9D JUMP JUMPDEST PUSH1 0x40 DUP3 ADD SWAP1 POP SWAP2 SWAP1 POP JUMP JUMPDEST PUSH0 PUSH1 0x20 DUP3 ADD SWAP1 POP DUP2 DUP2 SUB PUSH0 DUP4 ADD MSTORE PUSH2 0x1E24 DUP2 PUSH2 0x1DEB JUMP JUMPDEST SWAP1 POP SWAP2 SWAP1 POP JUMP JUMPDEST PUSH32 0x4E6563657369746173206D617320746F6B656E73207061726120737562697274 PUSH0 DUP3 ADD MSTORE PUSH32 0x652061206573746120617472616363696F6E2E00000000000000000000000000 PUSH1 0x20 DUP3 ADD MSTORE POP JUMP JUMPDEST PUSH0 PUSH2 0x1E85 PUSH1 0x33 DUP4 PUSH2 0x1C52 JUMP JUMPDEST SWAP2 POP PUSH2 0x1E90 DUP3 PUSH2 0x1E2B JUMP JUMPDEST PUSH1 0x40 DUP3 ADD SWAP1 POP SWAP2 SWAP1 POP JUMP JUMPDEST PUSH0 PUSH1 0x20 DUP3 ADD SWAP1 POP DUP2 DUP2 SUB PUSH0 DUP4 ADD MSTORE PUSH2 0x1EB2 DUP2 PUSH2 0x1E79 JUMP JUMPDEST SWAP1 POP SWAP2 SWAP1 POP JUMP JUMPDEST PUSH2 0x1EC2 DUP2 PUSH2 0x1B31 JUMP JUMPDEST DUP3 MSTORE POP POP JUMP JUMPDEST PUSH0 PUSH1 0x60 DUP3 ADD SWAP1 POP PUSH2 0x1EDB PUSH0 DUP4 ADD DUP7 PUSH2 0x1EB9 JUMP JUMPDEST PUSH2 0x1EE8 PUSH1 0x20 DUP4 ADD DUP6 PUSH2 0x1EB9 JUMP JUMPDEST PUSH2 0x1EF5 PUSH1 0x40 DUP4 ADD DUP5 PUSH2 0x1B97 JUMP JUMPDEST SWAP5 SWAP4 POP POP POP POP JUMP JUMPDEST PUSH2 0x1F06 DUP2 PUSH2 0x1C9A JUMP JUMPDEST DUP2 EQ PUSH2 0x1F10 JUMPI PUSH0 DUP1 REVERT JUMPDEST POP JUMP JUMPDEST PUSH0 DUP2 MLOAD SWAP1 POP PUSH2 0x1F21 DUP2 PUSH2 0x1EFD JUMP JUMPDEST SWAP3 SWAP2 POP POP JUMP JUMPDEST PUSH0 PUSH1 0x20 DUP3 DUP5 SUB SLT ISZERO PUSH2 0x1F3C JUMPI PUSH2 0x1F3B PUSH2 0x1939 JUMP JUMPDEST JUMPDEST PUSH0 PUSH2 0x1F49 DUP5 DUP3 DUP6 ADD PUSH2 0x1F13 JUMP JUMPDEST SWAP2 POP POP SWAP3 SWAP2 POP POP JUMP JUMPDEST PUSH0 DUP2 SWAP1 POP DUP2 PUSH0 MSTORE PUSH1 0x20 PUSH0 KECCAK256 SWAP1 POP SWAP2 SWAP1 POP JUMP JUMPDEST PUSH0 PUSH1 0x20 PUSH1 0x1F DUP4 ADD DIV SWAP1 POP SWAP2 SWAP1 POP JUMP JUMPDEST PUSH0 DUP3 DUP3 SHL SWAP1 POP SWAP3 SWAP2 POP POP JUMP JUMPDEST PUSH0 PUSH1 0x8 DUP4 MUL PUSH2 0x1FAE PUSH32 0xFFFFFFFFFFFFFFFFFFFFFFFFFFFFFFFFFFFFFFFFFFFFFFFFFFFFFFFFFFFFFFFF DUP3 PUSH2 0x1F73 JUMP JUMPDEST PUSH2 0x1FB8 DUP7 DUP4 PUSH2 0x1F73 JUMP JUMPDEST SWAP6 POP DUP1 NOT DUP5 AND SWAP4 POP DUP1 DUP7 AND DUP5 OR SWAP3 POP POP POP SWAP4 SWAP3 POP POP POP JUMP JUMPDEST PUSH0 DUP2 SWAP1 POP SWAP2 SWAP1 POP JUMP JUMPDEST PUSH0 PUSH2 0x1FF3 PUSH2 0x1FEE PUSH2 0x1FE9 DUP5 PUSH2 0x1AB4 JUMP JUMPDEST PUSH2 0x1FD0 JUMP JUMPDEST PUSH2 0x1AB4 JUMP JUMPDEST SWAP1 POP SWAP2 SWAP1 POP JUMP JUMPDEST PUSH0 DUP2 SWAP1 POP SWAP2 SWAP1 POP JUMP JUMPDEST PUSH2 0x200C DUP4 PUSH2 0x1FD9 JUMP JUMPDEST PUSH2 0x2020 PUSH2 0x2018 DUP3 PUSH2 0x1FFA JUMP JUMPDEST DUP5 DUP5 SLOAD PUSH2 0x1F7F JUMP JUMPDEST DUP3 SSTORE POP POP POP POP JUMP JUMPDEST PUSH0 SWAP1 JUMP JUMPDEST PUSH2 0x2034 PUSH2 0x2028 JUMP JUMPDEST PUSH2 0x203F DUP2 DUP5 DUP5 PUSH2 0x2003 JUMP JUMPDEST POP POP POP JUMP JUMPDEST JUMPDEST DUP2 DUP2 LT ISZERO PUSH2 0x2062 JUMPI PUSH2 0x2057 PUSH0 DUP3 PUSH2 0x202C JUMP JUMPDEST PUSH1 0x1 DUP2 ADD SWAP1 POP PUSH2 0x2045 JUMP JUMPDEST POP POP JUMP JUMPDEST PUSH1 0x1F DUP3 GT ISZERO PUSH2 0x20A7 JUMPI PUSH2 0x2078 DUP2 PUSH2 0x1F52 JUMP JUMPDEST PUSH2 0x2081 DUP5 PUSH2 0x1F64 JUMP JUMPDEST DUP2 ADD PUSH1 0x20 DUP6 LT ISZERO PUSH2 0x2090 JUMPI DUP2 SWAP1 POP JUMPDEST PUSH2 0x20A4 PUSH2 0x209C DUP6 PUSH2 0x1F64 JUMP JUMPDEST DUP4 ADD DUP3 PUSH2 0x2044 JUMP JUMPDEST POP POP JUMPDEST POP POP POP JUMP JUMPDEST PUSH0 DUP3 DUP3 SHR SWAP1 POP SWAP3 SWAP2 POP POP JUMP JUMPDEST PUSH0 PUSH2 0x20C7 PUSH0 NOT DUP5 PUSH1 0x8 MUL PUSH2 0x20AC JUMP JUMPDEST NOT DUP1 DUP4 AND SWAP2 POP POP SWAP3 SWAP2 POP POP JUMP JUMPDEST PUSH0 PUSH2 0x20DF DUP4 DUP4 PUSH2 0x20B8 JUMP JUMPDEST SWAP2 POP DUP3 PUSH1 0x2 MUL DUP3 OR SWAP1 POP SWAP3 SWAP2 POP POP JUMP JUMPDEST PUSH2 0x20F8 DUP3 PUSH2 0x17F4 JUMP JUMPDEST PUSH8 0xFFFFFFFFFFFFFFFF DUP2 GT ISZERO PUSH2 0x2111 JUMPI PUSH2 0x2110 PUSH2 0x1949 JUMP JUMPDEST JUMPDEST PUSH2 0x211B DUP3 SLOAD PUSH2 0x1D1D JUMP JUMPDEST PUSH2 0x2126 DUP3 DUP3 DUP6 PUSH2 0x2066 JUMP JUMPDEST PUSH0 PUSH1 0x20 SWAP1 POP PUSH1 0x1F DUP4 GT PUSH1 0x1 DUP2 EQ PUSH2 0x2157 JUMPI PUSH0 DUP5 ISZERO PUSH2 0x2145 JUMPI DUP3 DUP8 ADD MLOAD SWAP1 POP JUMPDEST PUSH2 0x214F DUP6 DUP3 PUSH2 0x20D4 JUMP JUMPDEST DUP7 SSTORE POP PUSH2 0x21B6 JUMP JUMPDEST PUSH1 0x1F NOT DUP5 AND PUSH2 0x2165 DUP7 PUSH2 0x1F52 JUMP JUMPDEST PUSH0 JUMPDEST DUP3 DUP2 LT ISZERO PUSH2 0x218C JUMPI DUP5 DUP10 ADD MLOAD DUP3 SSTORE PUSH1 0x1 DUP3 ADD SWAP2 POP PUSH1 0x20 DUP6 ADD SWAP5 POP PUSH1 0x20 DUP2 ADD SWAP1 POP PUSH2 0x2167 JUMP JUMPDEST DUP7 DUP4 LT ISZERO PUSH2 0x21A9 JUMPI DUP5 DUP10 ADD MLOAD PUSH2 0x21A5 PUSH1 0x1F DUP10 AND DUP3 PUSH2 0x20B8 JUMP JUMPDEST DUP4 SSTORE POP JUMPDEST PUSH1 0x1 PUSH1 0x2 DUP9 MUL ADD DUP9 SSTORE POP POP POP JUMPDEST POP POP POP POP POP POP JUMP JUMPDEST PUSH0 PUSH1 0x60 DUP3 ADD SWAP1 POP DUP2 DUP2 SUB PUSH0 DUP4 ADD MSTORE PUSH2 0x21D6 DUP2 DUP7 PUSH2 0x1C62 JUMP JUMPDEST SWAP1 POP PUSH2 0x21E5 PUSH1 0x20 DUP4 ADD DUP6 PUSH2 0x1B97 JUMP JUMPDEST PUSH2 0x21F2 PUSH1 0x40 DUP4 ADD DUP5 PUSH2 0x1EB9 JUMP JUMPDEST SWAP5 SWAP4 POP POP POP POP JUMP JUMPDEST PUSH32 0x4E6563657369746173206465766F6C76657220756E612063616E746964616420 PUSH0 DUP3 ADD MSTORE PUSH32 0x706F73697469766120646520746F6B656E732E00000000000000000000000000 PUSH1 0x20 DUP3 ADD MSTORE POP JUMP JUMPDEST PUSH0 PUSH2 0x2254 PUSH1 0x33 DUP4 PUSH2 0x1C52 JUMP JUMPDEST SWAP2 POP PUSH2 0x225F DUP3 PUSH2 0x21FA JUMP JUMPDEST PUSH1 0x40 DUP3 ADD SWAP1 POP SWAP2 SWAP1 POP JUMP JUMPDEST PUSH0 PUSH1 0x20 DUP3 ADD SWAP1 POP DUP2 DUP2 SUB PUSH0 DUP4 ADD MSTORE PUSH2 0x2281 DUP2 PUSH2 0x2248 JUMP JUMPDEST SWAP1 POP SWAP2 SWAP1 POP JUMP JUMPDEST PUSH32 0x4E6F207469656E6573206C6F7320746F6B656E73207175652064657365617320 PUSH0 DUP3 ADD MSTORE PUSH32 0x6465766F6C7665722E0000000000000000000000000000000000000000000000 PUSH1 0x20 DUP3 ADD MSTORE POP JUMP JUMPDEST PUSH0 PUSH2 0x22E2 PUSH1 0x29 DUP4 PUSH2 0x1C52 JUMP JUMPDEST SWAP2 POP PUSH2 0x22ED DUP3 PUSH2 0x2288 JUMP JUMPDEST PUSH1 0x40 DUP3 ADD SWAP1 POP SWAP2 SWAP1 POP JUMP JUMPDEST PUSH0 PUSH1 0x20 DUP3 ADD SWAP1 POP DUP2 DUP2 SUB PUSH0 DUP4 ADD MSTORE PUSH2 0x230F DUP2 PUSH2 0x22D6 JUMP JUMPDEST SWAP1 POP SWAP2 SWAP1 POP JUMP JUMPDEST PUSH32 0x4E6F207469656E6573207065726D69736F73207061726120656A656375746172 PUSH0 DUP3 ADD MSTORE PUSH32 0x20657374612066756E63696F6E00000000000000000000000000000000000000 PUSH1 0x20 DUP3 ADD MSTORE POP JUMP JUMPDEST PUSH0 PUSH2 0x2370 PUSH1 0x2D DUP4 PUSH2 0x1C52 JUMP JUMPDEST SWAP2 POP PUSH2 0x237B DUP3 PUSH2 0x2316 JUMP JUMPDEST PUSH1 0x40 DUP3 ADD SWAP1 POP SWAP2 SWAP1 POP JUMP JUMPDEST PUSH0 PUSH1 0x20 DUP3 ADD SWAP1 POP DUP2 DUP2 SUB PUSH0 DUP4 ADD MSTORE PUSH2 0x239D DUP2 PUSH2 0x2364 JUMP JUMPDEST SWAP1 POP SWAP2 SWAP1 POP JUMP JUMPDEST PUSH0 PUSH1 0x20 DUP3 ADD SWAP1 POP DUP2 DUP2 SUB PUSH0 DUP4 ADD MSTORE PUSH2 0x23BC DUP2 DUP5 PUSH2 0x1C62 JUMP JUMPDEST SWAP1 POP SWAP3 SWAP2 POP POP JUMP JUMPDEST PUSH0 PUSH1 0x20 DUP3 ADD SWAP1 POP PUSH2 0x23D7 PUSH0 DUP4 ADD DUP5 PUSH2 0x1EB9 JUMP JUMPDEST SWAP3 SWAP2 POP POP JUMP JUMPDEST PUSH0 DUP2 MLOAD SWAP1 POP PUSH2 0x23EB DUP2 PUSH2 0x1ABD JUMP JUMPDEST SWAP3 SWAP2 POP POP JUMP JUMPDEST PUSH0 PUSH1 0x20 DUP3 DUP5 SUB SLT ISZERO PUSH2 0x2406 JUMPI PUSH2 0x2405 PUSH2 0x1939 JUMP JUMPDEST JUMPDEST PUSH0 PUSH2 0x2413 DUP5 DUP3 DUP6 ADD PUSH2 0x23DD JUMP JUMPDEST SWAP2 POP POP SWAP3 SWAP2 POP POP JUMP JUMPDEST PUSH0 PUSH1 0x40 DUP3 ADD SWAP1 POP DUP2 DUP2 SUB PUSH0 DUP4 ADD MSTORE PUSH2 0x2434 DUP2 DUP6 PUSH2 0x1C62 JUMP JUMPDEST SWAP1 POP PUSH2 0x2443 PUSH1 0x20 DUP4 ADD DUP5 PUSH2 0x1B97 JUMP JUMPDEST SWAP4 SWAP3 POP POP POP JUMP JUMPDEST PUSH32 0x456C20616C696D656E746F206E6F206573746120646973706F6E69626C652065 PUSH0 DUP3 ADD MSTORE PUSH32 0x6E206573746F73206D6F6D656E746F732E000000000000000000000000000000 PUSH1 0x20 DUP3 ADD MSTORE POP JUMP JUMPDEST PUSH0 PUSH2 0x24A4 PUSH1 0x31 DUP4 PUSH2 0x1C52 JUMP JUMPDEST SWAP2 POP PUSH2 0x24AF DUP3 PUSH2 0x244A JUMP JUMPDEST PUSH1 0x40 DUP3 ADD SWAP1 POP SWAP2 SWAP1 POP JUMP JUMPDEST PUSH0 PUSH1 0x20 DUP3 ADD SWAP1 POP DUP2 DUP2 SUB PUSH0 DUP4 ADD MSTORE PUSH2 0x24D1 DUP2 PUSH2 0x2498 JUMP JUMPDEST SWAP1 POP SWAP2 SWAP1 POP JUMP JUMPDEST PUSH32 0x4E6563657369746173206D617320746F6B656E732070617261206F7264656E61 PUSH0 DUP3 ADD MSTORE PUSH32 0x72206573746520616C696D656E746F2E00000000000000000000000000000000 PUSH1 0x20 DUP3 ADD MSTORE POP JUMP JUMPDEST PUSH0 PUSH2 0x2532 PUSH1 0x30 DUP4 PUSH2 0x1C52 JUMP JUMPDEST SWAP2 POP PUSH2 0x253D DUP3 PUSH2 0x24D8 JUMP JUMPDEST PUSH1 0x40 DUP3 ADD SWAP1 POP SWAP2 SWAP1 POP JUMP JUMPDEST PUSH0 PUSH1 0x20 DUP3 ADD SWAP1 POP DUP2 DUP2 SUB PUSH0 DUP4 ADD MSTORE PUSH2 0x255F DUP2 PUSH2 0x2526 JUMP JUMPDEST SWAP1 POP SWAP2 SWAP1 POP JUMP JUMPDEST PUSH32 0x436F6D707261206D656E6F7320746F6B656E73206F207061676120636F6E206D PUSH0 DUP3 ADD MSTORE PUSH32 0x6173206574686572732E00000000000000000000000000000000000000000000 PUSH1 0x20 DUP3 ADD MSTORE POP JUMP JUMPDEST PUSH0 PUSH2 0x25C0 PUSH1 0x2A DUP4 PUSH2 0x1C52 JUMP JUMPDEST SWAP2 POP PUSH2 0x25CB DUP3 PUSH2 0x2566 JUMP JUMPDEST PUSH1 0x40 DUP3 ADD SWAP1 POP SWAP2 SWAP1 POP JUMP JUMPDEST PUSH0 PUSH1 0x20 DUP3 ADD SWAP1 POP DUP2 DUP2 SUB PUSH0 DUP4 ADD MSTORE PUSH2 0x25ED DUP2 PUSH2 0x25B4 JUMP JUMPDEST SWAP1 POP SWAP2 SWAP1 POP JUMP JUMPDEST PUSH32 0x436F6D70726120756E206E756D65726F206D656E6F7220646520546F6B656E73 PUSH0 DUP3 ADD MSTORE POP JUMP JUMPDEST PUSH0 PUSH2 0x2628 PUSH1 0x20 DUP4 PUSH2 0x1C52 JUMP JUMPDEST SWAP2 POP PUSH2 0x2633 DUP3 PUSH2 0x25F4 JUMP JUMPDEST PUSH1 0x20 DUP3 ADD SWAP1 POP SWAP2 SWAP1 POP JUMP JUMPDEST PUSH0 PUSH1 0x20 DUP3 ADD SWAP1 POP DUP2 DUP2 SUB PUSH0 DUP4 ADD MSTORE PUSH2 0x2655 DUP2 PUSH2 0x261C JUMP JUMPDEST SWAP1 POP SWAP2 SWAP1 POP JUMP JUMPDEST PUSH32 0x4E487B7100000000000000000000000000000000000000000000000000000000 PUSH0 MSTORE PUSH1 0x11 PUSH1 0x4 MSTORE PUSH1 0x24 PUSH0 REVERT JUMPDEST PUSH0 PUSH2 0x2693 DUP3 PUSH2 0x1AB4 JUMP JUMPDEST SWAP2 POP PUSH2 0x269E DUP4 PUSH2 0x1AB4 JUMP JUMPDEST SWAP3 POP DUP3 DUP3 SUB SWAP1 POP DUP2 DUP2 GT ISZERO PUSH2 0x26B6 JUMPI PUSH2 0x26B5 PUSH2 0x265C JUMP JUMPDEST JUMPDEST SWAP3 SWAP2 POP POP JUMP JUMPDEST PUSH0 PUSH1 0x40 DUP3 ADD SWAP1 POP PUSH2 0x26CF PUSH0 DUP4 ADD DUP6 PUSH2 0x1EB9 JUMP JUMPDEST PUSH2 0x26DC PUSH1 0x20 DUP4 ADD DUP5 PUSH2 0x1B97 JUMP JUMPDEST SWAP4 SWAP3 POP POP POP JUMP JUMPDEST PUSH0 PUSH2 0x26ED DUP3 PUSH2 0x1AB4 JUMP JUMPDEST SWAP2 POP PUSH2 0x26F8 DUP4 PUSH2 0x1AB4 JUMP JUMPDEST SWAP3 POP DUP3 DUP3 ADD SWAP1 POP DUP1 DUP3 GT ISZERO PUSH2 0x2710 JUMPI PUSH2 0x270F PUSH2 0x265C JUMP JUMPDEST JUMPDEST SWAP3 SWAP2 POP POP JUMP JUMPDEST PUSH0 PUSH2 0x2720 DUP3 PUSH2 0x1AB4 JUMP JUMPDEST SWAP2 POP PUSH2 0x272B DUP4 PUSH2 0x1AB4 JUMP JUMPDEST SWAP3 POP DUP3 DUP3 MUL PUSH2 0x2739 DUP2 PUSH2 0x1AB4 JUMP JUMPDEST SWAP2 POP DUP3 DUP3 DIV DUP5 EQ DUP4 ISZERO OR PUSH2 0x2750 JUMPI PUSH2 0x274F PUSH2 0x265C JUMP JUMPDEST JUMPDEST POP SWAP3 SWAP2 POP POP JUMP INVALID LOG2 PUSH5 0x6970667358 0x22 SLT KECCAK256 PUSH24 0x692E147381F08A4F594F60889BCCBFEDCB58A5C423224C1 0xAC DUP5 PUSH3 0x31FCFB 0xED PUSH5 0x736F6C6343 STOP ADDMOD AND STOP CALLER PUSH1 0x80 PUSH1 0x40 MSTORE CALLVALUE DUP1 ISZERO PUSH2 0xF JUMPI PUSH0 DUP1 REVERT JUMPDEST POP PUSH1 0x40 MLOAD PUSH2 0x1083 CODESIZE SUB DUP1 PUSH2 0x1083 DUP4 CODECOPY DUP2 DUP2 ADD PUSH1 0x40 MSTORE DUP2 ADD SWAP1 PUSH2 0x31 SWAP2 SWAP1 PUSH2 0xB8 JUMP JUMPDEST DUP1 PUSH1 0x2 DUP2 SWAP1 SSTORE POP PUSH1 0x2 SLOAD PUSH0 DUP1 CALLER PUSH20 0xFFFFFFFFFFFFFFFFFFFFFFFFFFFFFFFFFFFFFFFF AND PUSH20 0xFFFFFFFFFFFFFFFFFFFFFFFFFFFFFFFFFFFFFFFF AND DUP2 MSTORE PUSH1 0x20 ADD SWAP1 DUP2 MSTORE PUSH1 0x20 ADD PUSH0 KECCAK256 DUP2 SWAP1 SSTORE POP POP PUSH2 0xE3 JUMP JUMPDEST PUSH0 DUP1 REVERT JUMPDEST PUSH0 DUP2 SWAP1 POP SWAP2 SWAP1 POP JUMP JUMPDEST PUSH2 0x97 DUP2 PUSH2 0x85 JUMP JUMPDEST DUP2 EQ PUSH2 0xA1 JUMPI PUSH0 DUP1 REVERT JUMPDEST POP JUMP JUMPDEST PUSH0 DUP2 MLOAD SWAP1 POP PUSH2 0xB2 DUP2 PUSH2 0x8E JUMP JUMPDEST SWAP3 SWAP2 POP POP JUMP JUMPDEST PUSH0 PUSH1 0x20 DUP3 DUP5 SUB SLT ISZERO PUSH2 0xCD JUMPI PUSH2 0xCC PUSH2 0x81 JUMP JUMPDEST JUMPDEST PUSH0 PUSH2 0xDA DUP5 DUP3 DUP6 ADD PUSH2 0xA4 JUMP JUMPDEST SWAP2 POP POP SWAP3 SWAP2 POP POP JUMP JUMPDEST PUSH2 0xF93 DUP1 PUSH2 0xF0 PUSH0 CODECOPY PUSH0 RETURN INVALID PUSH1 0x80 PUSH1 0x40 MSTORE CALLVALUE DUP1 ISZERO PUSH2 0xF JUMPI PUSH0 DUP1 REVERT JUMPDEST POP PUSH1 0x4 CALLDATASIZE LT PUSH2 0xA7 JUMPI PUSH0 CALLDATALOAD PUSH1 0xE0 SHR DUP1 PUSH4 0x5E413C87 GT PUSH2 0x6F JUMPI DUP1 PUSH4 0x5E413C87 EQ PUSH2 0x163 JUMPI DUP1 PUSH4 0x70A08231 EQ PUSH2 0x193 JUMPI DUP1 PUSH4 0x95D89B41 EQ PUSH2 0x1C3 JUMPI DUP1 PUSH4 0xA2A96799 EQ PUSH2 0x1E1 JUMPI DUP1 PUSH4 0xA9059CBB EQ PUSH2 0x1FF JUMPI DUP1 PUSH4 0xDD62ED3E EQ PUSH2 0x22F JUMPI PUSH2 0xA7 JUMP JUMPDEST DUP1 PUSH4 0x6FDDE03 EQ PUSH2 0xAB JUMPI DUP1 PUSH4 0x95EA7B3 EQ PUSH2 0xC9 JUMPI DUP1 PUSH4 0x1D43CC98 EQ PUSH2 0xF9 JUMPI DUP1 PUSH4 0x23B872DD EQ PUSH2 0x115 JUMPI DUP1 PUSH4 0x313CE567 EQ PUSH2 0x145 JUMPI JUMPDEST PUSH0 DUP1 REVERT JUMPDEST PUSH2 0xB3 PUSH2 0x25F JUMP JUMPDEST PUSH1 0x40 MLOAD PUSH2 0xC0 SWAP2 SWAP1 PUSH2 0xC68 JUMP JUMPDEST PUSH1 0x40 MLOAD DUP1 SWAP2 SUB SWAP1 RETURN JUMPDEST PUSH2 0xE3 PUSH1 0x4 DUP1 CALLDATASIZE SUB DUP2 ADD SWAP1 PUSH2 0xDE SWAP2 SWAP1 PUSH2 0xD19 JUMP JUMPDEST PUSH2 0x298 JUMP JUMPDEST PUSH1 0x40 MLOAD PUSH2 0xF0 SWAP2 SWAP1 PUSH2 0xD71 JUMP JUMPDEST PUSH1 0x40 MLOAD DUP1 SWAP2 SUB SWAP1 RETURN JUMPDEST PUSH2 0x113 PUSH1 0x4 DUP1 CALLDATASIZE SUB DUP2 ADD SWAP1 PUSH2 0x10E SWAP2 SWAP1 PUSH2 0xD8A JUMP JUMPDEST PUSH2 0x385 JUMP JUMPDEST STOP JUMPDEST PUSH2 0x12F PUSH1 0x4 DUP1 CALLDATASIZE SUB DUP2 ADD SWAP1 PUSH2 0x12A SWAP2 SWAP1 PUSH2 0xDB5 JUMP JUMPDEST PUSH2 0x3F2 JUMP JUMPDEST PUSH1 0x40 MLOAD PUSH2 0x13C SWAP2 SWAP1 PUSH2 0xD71 JUMP JUMPDEST PUSH1 0x40 MLOAD DUP1 SWAP2 SUB SWAP1 RETURN JUMPDEST PUSH2 0x14D PUSH2 0x73F JUMP JUMPDEST PUSH1 0x40 MLOAD PUSH2 0x15A SWAP2 SWAP1 PUSH2 0xE20 JUMP JUMPDEST PUSH1 0x40 MLOAD DUP1 SWAP2 SUB SWAP1 RETURN JUMPDEST PUSH2 0x17D PUSH1 0x4 DUP1 CALLDATASIZE SUB DUP2 ADD SWAP1 PUSH2 0x178 SWAP2 SWAP1 PUSH2 0xDB5 JUMP JUMPDEST PUSH2 0x744 JUMP JUMPDEST PUSH1 0x40 MLOAD PUSH2 0x18A SWAP2 SWAP1 PUSH2 0xD71 JUMP JUMPDEST PUSH1 0x40 MLOAD DUP1 SWAP2 SUB SWAP1 RETURN JUMPDEST PUSH2 0x1AD PUSH1 0x4 DUP1 CALLDATASIZE SUB DUP2 ADD SWAP1 PUSH2 0x1A8 SWAP2 SWAP1 PUSH2 0xE39 JUMP JUMPDEST PUSH2 0x90D JUMP JUMPDEST PUSH1 0x40 MLOAD PUSH2 0x1BA SWAP2 SWAP1 PUSH2 0xE73 JUMP JUMPDEST PUSH1 0x40 MLOAD DUP1 SWAP2 SUB SWAP1 RETURN JUMPDEST PUSH2 0x1CB PUSH2 0x952 JUMP JUMPDEST PUSH1 0x40 MLOAD PUSH2 0x1D8 SWAP2 SWAP1 PUSH2 0xC68 JUMP JUMPDEST PUSH1 0x40 MLOAD DUP1 SWAP2 SUB SWAP1 RETURN JUMPDEST PUSH2 0x1E9 PUSH2 0x98B JUMP JUMPDEST PUSH1 0x40 MLOAD PUSH2 0x1F6 SWAP2 SWAP1 PUSH2 0xE73 JUMP JUMPDEST PUSH1 0x40 MLOAD DUP1 SWAP2 SUB SWAP1 RETURN JUMPDEST PUSH2 0x219 PUSH1 0x4 DUP1 CALLDATASIZE SUB DUP2 ADD SWAP1 PUSH2 0x214 SWAP2 SWAP1 PUSH2 0xD19 JUMP JUMPDEST PUSH2 0x994 JUMP JUMPDEST PUSH1 0x40 MLOAD PUSH2 0x226 SWAP2 SWAP1 PUSH2 0xD71 JUMP JUMPDEST PUSH1 0x40 MLOAD DUP1 SWAP2 SUB SWAP1 RETURN JUMPDEST PUSH2 0x249 PUSH1 0x4 DUP1 CALLDATASIZE SUB DUP2 ADD SWAP1 PUSH2 0x244 SWAP2 SWAP1 PUSH2 0xE8C JUMP JUMPDEST PUSH2 0xB5C JUMP JUMPDEST PUSH1 0x40 MLOAD PUSH2 0x256 SWAP2 SWAP1 PUSH2 0xE73 JUMP JUMPDEST PUSH1 0x40 MLOAD DUP1 SWAP2 SUB SWAP1 RETURN JUMPDEST PUSH1 0x40 MLOAD DUP1 PUSH1 0x40 ADD PUSH1 0x40 MSTORE DUP1 PUSH1 0x11 DUP2 MSTORE PUSH1 0x20 ADD PUSH32 0x4552433230426C6F636B636861696E415A000000000000000000000000000000 DUP2 MSTORE POP DUP2 JUMP JUMPDEST PUSH0 DUP2 PUSH1 0x1 PUSH0 CALLER PUSH20 0xFFFFFFFFFFFFFFFFFFFFFFFFFFFFFFFFFFFFFFFF AND PUSH20 0xFFFFFFFFFFFFFFFFFFFFFFFFFFFFFFFFFFFFFFFF AND DUP2 MSTORE PUSH1 0x20 ADD SWAP1 DUP2 MSTORE PUSH1 0x20 ADD PUSH0 KECCAK256 PUSH0 DUP6 PUSH20 0xFFFFFFFFFFFFFFFFFFFFFFFFFFFFFFFFFFFFFFFF AND PUSH20 0xFFFFFFFFFFFFFFFFFFFFFFFFFFFFFFFFFFFFFFFF AND DUP2 MSTORE PUSH1 0x20 ADD SWAP1 DUP2 MSTORE PUSH1 0x20 ADD PUSH0 KECCAK256 DUP2 SWAP1 SSTORE POP DUP3 PUSH20 0xFFFFFFFFFFFFFFFFFFFFFFFFFFFFFFFFFFFFFFFF AND CALLER PUSH20 0xFFFFFFFFFFFFFFFFFFFFFFFFFFFFFFFFFFFFFFFF AND PUSH32 0x8C5BE1E5EBEC7D5BD14F71427D1E84F3DD0314C0F7B2291E5B200AC8C7C3B925 DUP5 PUSH1 0x40 MLOAD PUSH2 0x373 SWAP2 SWAP1 PUSH2 0xE73 JUMP JUMPDEST PUSH1 0x40 MLOAD DUP1 SWAP2 SUB SWAP1 LOG3 PUSH1 0x1 SWAP1 POP SWAP3 SWAP2 POP POP JUMP JUMPDEST DUP1 PUSH1 0x2 PUSH0 DUP3 DUP3 SLOAD PUSH2 0x396 SWAP2 SWAP1 PUSH2 0xEF7 JUMP JUMPDEST SWAP3 POP POP DUP2 SWAP1 SSTORE POP DUP1 PUSH0 DUP1 CALLER PUSH20 0xFFFFFFFFFFFFFFFFFFFFFFFFFFFFFFFFFFFFFFFF AND PUSH20 0xFFFFFFFFFFFFFFFFFFFFFFFFFFFFFFFFFFFFFFFF AND DUP2 MSTORE PUSH1 0x20 ADD SWAP1 DUP2 MSTORE PUSH1 0x20 ADD PUSH0 KECCAK256 PUSH0 DUP3 DUP3 SLOAD PUSH2 0x3E8 SWAP2 SWAP1 PUSH2 0xEF7 JUMP JUMPDEST SWAP3 POP POP DUP2 SWAP1 SSTORE POP POP JUMP JUMPDEST PUSH0 DUP1 PUSH0 DUP6 PUSH20 0xFFFFFFFFFFFFFFFFFFFFFFFFFFFFFFFFFFFFFFFF AND PUSH20 0xFFFFFFFFFFFFFFFFFFFFFFFFFFFFFFFFFFFFFFFF AND DUP2 MSTORE PUSH1 0x20 ADD SWAP1 DUP2 MSTORE PUSH1 0x20 ADD PUSH0 KECCAK256 SLOAD DUP3 GT ISZERO PUSH2 0x43B JUMPI PUSH0 DUP1 REVERT JUMPDEST PUSH1 0x1 PUSH0 DUP6 PUSH20 0xFFFFFFFFFFFFFFFFFFFFFFFFFFFFFFFFFFFFFFFF AND PUSH20 0xFFFFFFFFFFFFFFFFFFFFFFFFFFFFFFFFFFFFFFFF AND DUP2 MSTORE PUSH1 0x20 ADD SWAP1 DUP2 MSTORE PUSH1 0x20 ADD PUSH0 KECCAK256 PUSH0 CALLER PUSH20 0xFFFFFFFFFFFFFFFFFFFFFFFFFFFFFFFFFFFFFFFF AND PUSH20 0xFFFFFFFFFFFFFFFFFFFFFFFFFFFFFFFFFFFFFFFF AND DUP2 MSTORE PUSH1 0x20 ADD SWAP1 DUP2 MSTORE PUSH1 0x20 ADD PUSH0 KECCAK256 SLOAD DUP3 GT ISZERO PUSH2 0x4BF JUMPI PUSH0 DUP1 REVERT JUMPDEST DUP2 PUSH0 DUP1 DUP7 PUSH20 0xFFFFFFFFFFFFFFFFFFFFFFFFFFFFFFFFFFFFFFFF AND PUSH20 0xFFFFFFFFFFFFFFFFFFFFFFFFFFFFFFFFFFFFFFFF AND DUP2 MSTORE PUSH1 0x20 ADD SWAP1 DUP2 MSTORE PUSH1 0x20 ADD PUSH0 KECCAK256 SLOAD PUSH2 0x507 SWAP2 SWAP1 PUSH2 0xF2A JUMP JUMPDEST PUSH0 DUP1 DUP7 PUSH20 0xFFFFFFFFFFFFFFFFFFFFFFFFFFFFFFFFFFFFFFFF AND PUSH20 0xFFFFFFFFFFFFFFFFFFFFFFFFFFFFFFFFFFFFFFFF AND DUP2 MSTORE PUSH1 0x20 ADD SWAP1 DUP2 MSTORE PUSH1 0x20 ADD PUSH0 KECCAK256 DUP2 SWAP1 SSTORE POP DUP2 PUSH1 0x1 PUSH0 DUP7 PUSH20 0xFFFFFFFFFFFFFFFFFFFFFFFFFFFFFFFFFFFFFFFF AND PUSH20 0xFFFFFFFFFFFFFFFFFFFFFFFFFFFFFFFFFFFFFFFF AND DUP2 MSTORE PUSH1 0x20 ADD SWAP1 DUP2 MSTORE PUSH1 0x20 ADD PUSH0 KECCAK256 PUSH0 CALLER PUSH20 0xFFFFFFFFFFFFFFFFFFFFFFFFFFFFFFFFFFFFFFFF AND PUSH20 0xFFFFFFFFFFFFFFFFFFFFFFFFFFFFFFFFFFFFFFFF AND DUP2 MSTORE PUSH1 0x20 ADD SWAP1 DUP2 MSTORE PUSH1 0x20 ADD PUSH0 KECCAK256 SLOAD PUSH2 0x5CB SWAP2 SWAP1 PUSH2 0xF2A JUMP JUMPDEST PUSH1 0x1 PUSH0 DUP7 PUSH20 0xFFFFFFFFFFFFFFFFFFFFFFFFFFFFFFFFFFFFFFFF AND PUSH20 0xFFFFFFFFFFFFFFFFFFFFFFFFFFFFFFFFFFFFFFFF AND DUP2 MSTORE PUSH1 0x20 ADD SWAP1 DUP2 MSTORE PUSH1 0x20 ADD PUSH0 KECCAK256 PUSH0 CALLER PUSH20 0xFFFFFFFFFFFFFFFFFFFFFFFFFFFFFFFFFFFFFFFF AND PUSH20 0xFFFFFFFFFFFFFFFFFFFFFFFFFFFFFFFFFFFFFFFF AND DUP2 MSTORE PUSH1 0x20 ADD SWAP1 DUP2 MSTORE PUSH1 0x20 ADD PUSH0 KECCAK256 DUP2 SWAP1 SSTORE POP DUP2 PUSH0 DUP1 DUP6 PUSH20 0xFFFFFFFFFFFFFFFFFFFFFFFFFFFFFFFFFFFFFFFF AND PUSH20 0xFFFFFFFFFFFFFFFFFFFFFFFFFFFFFFFFFFFFFFFF AND DUP2 MSTORE PUSH1 0x20 ADD SWAP1 DUP2 MSTORE PUSH1 0x20 ADD PUSH0 KECCAK256 SLOAD PUSH2 0x68F SWAP2 SWAP1 PUSH2 0xEF7 JUMP JUMPDEST PUSH0 DUP1 DUP6 PUSH20 0xFFFFFFFFFFFFFFFFFFFFFFFFFFFFFFFFFFFFFFFF AND PUSH20 0xFFFFFFFFFFFFFFFFFFFFFFFFFFFFFFFFFFFFFFFF AND DUP2 MSTORE PUSH1 0x20 ADD SWAP1 DUP2 MSTORE PUSH1 0x20 ADD PUSH0 KECCAK256 DUP2 SWAP1 SSTORE POP DUP3 PUSH20 0xFFFFFFFFFFFFFFFFFFFFFFFFFFFFFFFFFFFFFFFF AND DUP5 PUSH20 0xFFFFFFFFFFFFFFFFFFFFFFFFFFFFFFFFFFFFFFFF AND PUSH32 0xDDF252AD1BE2C89B69C2B068FC378DAA952BA7F163C4A11628F55A4DF523B3EF DUP5 PUSH1 0x40 MLOAD PUSH2 0x72C SWAP2 SWAP1 PUSH2 0xE73 JUMP JUMPDEST PUSH1 0x40 MLOAD DUP1 SWAP2 SUB SWAP1 LOG3 PUSH1 0x1 SWAP1 POP SWAP4 SWAP3 POP POP POP JUMP JUMPDEST PUSH1 0x2 DUP2 JUMP JUMPDEST PUSH0 DUP1 PUSH0 DUP6 PUSH20 0xFFFFFFFFFFFFFFFFFFFFFFFFFFFFFFFFFFFFFFFF AND PUSH20 0xFFFFFFFFFFFFFFFFFFFFFFFFFFFFFFFFFFFFFFFF AND DUP2 MSTORE PUSH1 0x20 ADD SWAP1 DUP2 MSTORE PUSH1 0x20 ADD PUSH0 KECCAK256 SLOAD DUP3 GT ISZERO PUSH2 0x78D JUMPI PUSH0 DUP1 REVERT JUMPDEST DUP2 PUSH0 DUP1 DUP7 PUSH20 0xFFFFFFFFFFFFFFFFFFFFFFFFFFFFFFFFFFFFFFFF AND PUSH20 0xFFFFFFFFFFFFFFFFFFFFFFFFFFFFFFFFFFFFFFFF AND DUP2 MSTORE PUSH1 0x20 ADD SWAP1 DUP2 MSTORE PUSH1 0x20 ADD PUSH0 KECCAK256 SLOAD PUSH2 0x7D5 SWAP2 SWAP1 PUSH2 0xF2A JUMP JUMPDEST PUSH0 DUP1 DUP7 PUSH20 0xFFFFFFFFFFFFFFFFFFFFFFFFFFFFFFFFFFFFFFFF AND PUSH20 0xFFFFFFFFFFFFFFFFFFFFFFFFFFFFFFFFFFFFFFFF AND DUP2 MSTORE PUSH1 0x20 ADD SWAP1 DUP2 MSTORE PUSH1 0x20 ADD PUSH0 KECCAK256 DUP2 SWAP1 SSTORE POP DUP2 PUSH0 DUP1 DUP6 PUSH20 0xFFFFFFFFFFFFFFFFFFFFFFFFFFFFFFFFFFFFFFFF AND PUSH20 0xFFFFFFFFFFFFFFFFFFFFFFFFFFFFFFFFFFFFFFFF AND DUP2 MSTORE PUSH1 0x20 ADD SWAP1 DUP2 MSTORE PUSH1 0x20 ADD PUSH0 KECCAK256 SLOAD PUSH2 0x85D SWAP2 SWAP1 PUSH2 0xEF7 JUMP JUMPDEST PUSH0 DUP1 DUP6 PUSH20 0xFFFFFFFFFFFFFFFFFFFFFFFFFFFFFFFFFFFFFFFF AND PUSH20 0xFFFFFFFFFFFFFFFFFFFFFFFFFFFFFFFFFFFFFFFF AND DUP2 MSTORE PUSH1 0x20 ADD SWAP1 DUP2 MSTORE PUSH1 0x20 ADD PUSH0 KECCAK256 DUP2 SWAP1 SSTORE POP DUP3 PUSH20 0xFFFFFFFFFFFFFFFFFFFFFFFFFFFFFFFFFFFFFFFF AND DUP5 PUSH20 0xFFFFFFFFFFFFFFFFFFFFFFFFFFFFFFFFFFFFFFFF AND PUSH32 0xDDF252AD1BE2C89B69C2B068FC378DAA952BA7F163C4A11628F55A4DF523B3EF DUP5 PUSH1 0x40 MLOAD PUSH2 0x8FA SWAP2 SWAP1 PUSH2 0xE73 JUMP JUMPDEST PUSH1 0x40 MLOAD DUP1 SWAP2 SUB SWAP1 LOG3 PUSH1 0x1 SWAP1 POP SWAP4 SWAP3 POP POP POP JUMP JUMPDEST PUSH0 DUP1 PUSH0 DUP4 PUSH20 0xFFFFFFFFFFFFFFFFFFFFFFFFFFFFFFFFFFFFFFFF AND PUSH20 0xFFFFFFFFFFFFFFFFFFFFFFFFFFFFFFFFFFFFFFFF AND DUP2 MSTORE PUSH1 0x20 ADD SWAP1 DUP2 MSTORE PUSH1 0x20 ADD PUSH0 KECCAK256 SLOAD SWAP1 POP SWAP2 SWAP1 POP JUMP JUMPDEST PUSH1 0x40 MLOAD DUP1 PUSH1 0x40 ADD PUSH1 0x40 MSTORE DUP1 PUSH1 0x3 DUP2 MSTORE PUSH1 0x20 ADD PUSH32 0x4552430000000000000000000000000000000000000000000000000000000000 DUP2 MSTORE POP DUP2 JUMP JUMPDEST PUSH0 PUSH1 0x2 SLOAD SWAP1 POP SWAP1 JUMP JUMPDEST PUSH0 DUP1 PUSH0 CALLER PUSH20 0xFFFFFFFFFFFFFFFFFFFFFFFFFFFFFFFFFFFFFFFF AND PUSH20 0xFFFFFFFFFFFFFFFFFFFFFFFFFFFFFFFFFFFFFFFF AND DUP2 MSTORE PUSH1 0x20 ADD SWAP1 DUP2 MSTORE PUSH1 0x20 ADD PUSH0 KECCAK256 SLOAD DUP3 GT ISZERO PUSH2 0x9DD JUMPI PUSH0 DUP1 REVERT JUMPDEST DUP2 PUSH0 DUP1 CALLER PUSH20 0xFFFFFFFFFFFFFFFFFFFFFFFFFFFFFFFFFFFFFFFF AND PUSH20 0xFFFFFFFFFFFFFFFFFFFFFFFFFFFFFFFFFFFFFFFF AND DUP2 MSTORE PUSH1 0x20 ADD SWAP1 DUP2 MSTORE PUSH1 0x20 ADD PUSH0 KECCAK256 SLOAD PUSH2 0xA25 SWAP2 SWAP1 PUSH2 0xF2A JUMP JUMPDEST PUSH0 DUP1 CALLER PUSH20 0xFFFFFFFFFFFFFFFFFFFFFFFFFFFFFFFFFFFFFFFF AND PUSH20 0xFFFFFFFFFFFFFFFFFFFFFFFFFFFFFFFFFFFFFFFF AND DUP2 MSTORE PUSH1 0x20 ADD SWAP1 DUP2 MSTORE PUSH1 0x20 ADD PUSH0 KECCAK256 DUP2 SWAP1 SSTORE POP DUP2 PUSH0 DUP1 DUP6 PUSH20 0xFFFFFFFFFFFFFFFFFFFFFFFFFFFFFFFFFFFFFFFF AND PUSH20 0xFFFFFFFFFFFFFFFFFFFFFFFFFFFFFFFFFFFFFFFF AND DUP2 MSTORE PUSH1 0x20 ADD SWAP1 DUP2 MSTORE PUSH1 0x20 ADD PUSH0 KECCAK256 SLOAD PUSH2 0xAAD SWAP2 SWAP1 PUSH2 0xEF7 JUMP JUMPDEST PUSH0 DUP1 DUP6 PUSH20 0xFFFFFFFFFFFFFFFFFFFFFFFFFFFFFFFFFFFFFFFF AND PUSH20 0xFFFFFFFFFFFFFFFFFFFFFFFFFFFFFFFFFFFFFFFF AND DUP2 MSTORE PUSH1 0x20 ADD SWAP1 DUP2 MSTORE PUSH1 0x20 ADD PUSH0 KECCAK256 DUP2 SWAP1 SSTORE POP DUP3 PUSH20 0xFFFFFFFFFFFFFFFFFFFFFFFFFFFFFFFFFFFFFFFF AND CALLER PUSH20 0xFFFFFFFFFFFFFFFFFFFFFFFFFFFFFFFFFFFFFFFF AND PUSH32 0xDDF252AD1BE2C89B69C2B068FC378DAA952BA7F163C4A11628F55A4DF523B3EF DUP5 PUSH1 0x40 MLOAD PUSH2 0xB4A SWAP2 SWAP1 PUSH2 0xE73 JUMP JUMPDEST PUSH1 0x40 MLOAD DUP1 SWAP2 SUB SWAP1 LOG3 PUSH1 0x1 SWAP1 POP SWAP3 SWAP2 POP POP JUMP JUMPDEST PUSH0 PUSH1 0x1 PUSH0 DUP5 PUSH20 0xFFFFFFFFFFFFFFFFFFFFFFFFFFFFFFFFFFFFFFFF AND PUSH20 0xFFFFFFFFFFFFFFFFFFFFFFFFFFFFFFFFFFFFFFFF AND DUP2 MSTORE PUSH1 0x20 ADD SWAP1 DUP2 MSTORE PUSH1 0x20 ADD PUSH0 KECCAK256 PUSH0 DUP4 PUSH20 0xFFFFFFFFFFFFFFFFFFFFFFFFFFFFFFFFFFFFFFFF AND PUSH20 0xFFFFFFFFFFFFFFFFFFFFFFFFFFFFFFFFFFFFFFFF AND DUP2 MSTORE PUSH1 0x20 ADD SWAP1 DUP2 MSTORE PUSH1 0x20 ADD PUSH0 KECCAK256 SLOAD SWAP1 POP SWAP3 SWAP2 POP POP JUMP JUMPDEST PUSH0 DUP2 MLOAD SWAP1 POP SWAP2 SWAP1 POP JUMP JUMPDEST PUSH0 DUP3 DUP3 MSTORE PUSH1 0x20 DUP3 ADD SWAP1 POP SWAP3 SWAP2 POP POP JUMP JUMPDEST PUSH0 JUMPDEST DUP4 DUP2 LT ISZERO PUSH2 0xC15 JUMPI DUP1 DUP3 ADD MLOAD DUP2 DUP5 ADD MSTORE PUSH1 0x20 DUP2 ADD SWAP1 POP PUSH2 0xBFA JUMP JUMPDEST PUSH0 DUP5 DUP5 ADD MSTORE POP POP POP POP JUMP JUMPDEST PUSH0 PUSH1 0x1F NOT PUSH1 0x1F DUP4 ADD AND SWAP1 POP SWAP2 SWAP1 POP JUMP JUMPDEST PUSH0 PUSH2 0xC3A DUP3 PUSH2 0xBDE JUMP JUMPDEST PUSH2 0xC44 DUP2 DUP6 PUSH2 0xBE8 JUMP JUMPDEST SWAP4 POP PUSH2 0xC54 DUP2 DUP6 PUSH1 0x20 DUP7 ADD PUSH2 0xBF8 JUMP JUMPDEST PUSH2 0xC5D DUP2 PUSH2 0xC20 JUMP JUMPDEST DUP5 ADD SWAP2 POP POP SWAP3 SWAP2 POP POP JUMP JUMPDEST PUSH0 PUSH1 0x20 DUP3 ADD SWAP1 POP DUP2 DUP2 SUB PUSH0 DUP4 ADD MSTORE PUSH2 0xC80 DUP2 DUP5 PUSH2 0xC30 JUMP JUMPDEST SWAP1 POP SWAP3 SWAP2 POP POP JUMP JUMPDEST PUSH0 DUP1 REVERT JUMPDEST PUSH0 PUSH20 0xFFFFFFFFFFFFFFFFFFFFFFFFFFFFFFFFFFFFFFFF DUP3 AND SWAP1 POP SWAP2 SWAP1 POP JUMP JUMPDEST PUSH0 PUSH2 0xCB5 DUP3 PUSH2 0xC8C JUMP JUMPDEST SWAP1 POP SWAP2 SWAP1 POP JUMP JUMPDEST PUSH2 0xCC5 DUP2 PUSH2 0xCAB JUMP JUMPDEST DUP2 EQ PUSH2 0xCCF JUMPI PUSH0 DUP1 REVERT JUMPDEST POP JUMP JUMPDEST PUSH0 DUP2 CALLDATALOAD SWAP1 POP PUSH2 0xCE0 DUP2 PUSH2 0xCBC JUMP JUMPDEST SWAP3 SWAP2 POP POP JUMP JUMPDEST PUSH0 DUP2 SWAP1 POP SWAP2 SWAP1 POP JUMP JUMPDEST PUSH2 0xCF8 DUP2 PUSH2 0xCE6 JUMP JUMPDEST DUP2 EQ PUSH2 0xD02 JUMPI PUSH0 DUP1 REVERT JUMPDEST POP JUMP JUMPDEST PUSH0 DUP2 CALLDATALOAD SWAP1 POP PUSH2 0xD13 DUP2 PUSH2 0xCEF JUMP JUMPDEST SWAP3 SWAP2 POP POP JUMP JUMPDEST PUSH0 DUP1 PUSH1 0x40 DUP4 DUP6 SUB SLT ISZERO PUSH2 0xD2F JUMPI PUSH2 0xD2E PUSH2 0xC88 JUMP JUMPDEST JUMPDEST PUSH0 PUSH2 0xD3C DUP6 DUP3 DUP7 ADD PUSH2 0xCD2 JUMP JUMPDEST SWAP3 POP POP PUSH1 0x20 PUSH2 0xD4D DUP6 DUP3 DUP7 ADD PUSH2 0xD05 JUMP JUMPDEST SWAP2 POP POP SWAP3 POP SWAP3 SWAP1 POP JUMP JUMPDEST PUSH0 DUP2 ISZERO ISZERO SWAP1 POP SWAP2 SWAP1 POP JUMP JUMPDEST PUSH2 0xD6B DUP2 PUSH2 0xD57 JUMP JUMPDEST DUP3 MSTORE POP POP JUMP JUMPDEST PUSH0 PUSH1 0x20 DUP3 ADD SWAP1 POP PUSH2 0xD84 PUSH0 DUP4 ADD DUP5 PUSH2 0xD62 JUMP JUMPDEST SWAP3 SWAP2 POP POP JUMP JUMPDEST PUSH0 PUSH1 0x20 DUP3 DUP5 SUB SLT ISZERO PUSH2 0xD9F JUMPI PUSH2 0xD9E PUSH2 0xC88 JUMP JUMPDEST JUMPDEST PUSH0 PUSH2 0xDAC DUP5 DUP3 DUP6 ADD PUSH2 0xD05 JUMP JUMPDEST SWAP2 POP POP SWAP3 SWAP2 POP POP JUMP JUMPDEST PUSH0 DUP1 PUSH0 PUSH1 0x60 DUP5 DUP7 SUB SLT ISZERO PUSH2 0xDCC JUMPI PUSH2 0xDCB PUSH2 0xC88 JUMP JUMPDEST JUMPDEST PUSH0 PUSH2 0xDD9 DUP7 DUP3 DUP8 ADD PUSH2 0xCD2 JUMP JUMPDEST SWAP4 POP POP PUSH1 0x20 PUSH2 0xDEA DUP7 DUP3 DUP8 ADD PUSH2 0xCD2 JUMP JUMPDEST SWAP3 POP POP PUSH1 0x40 PUSH2 0xDFB DUP7 DUP3 DUP8 ADD PUSH2 0xD05 JUMP JUMPDEST SWAP2 POP POP SWAP3 POP SWAP3 POP SWAP3 JUMP JUMPDEST PUSH0 PUSH1 0xFF DUP3 AND SWAP1 POP SWAP2 SWAP1 POP JUMP JUMPDEST PUSH2 0xE1A DUP2 PUSH2 0xE05 JUMP JUMPDEST DUP3 MSTORE POP POP JUMP JUMPDEST PUSH0 PUSH1 0x20 DUP3 ADD SWAP1 POP PUSH2 0xE33 PUSH0 DUP4 ADD DUP5 PUSH2 0xE11 JUMP JUMPDEST SWAP3 SWAP2 POP POP JUMP JUMPDEST PUSH0 PUSH1 0x20 DUP3 DUP5 SUB SLT ISZERO PUSH2 0xE4E JUMPI PUSH2 0xE4D PUSH2 0xC88 JUMP JUMPDEST JUMPDEST PUSH0 PUSH2 0xE5B DUP5 DUP3 DUP6 ADD PUSH2 0xCD2 JUMP JUMPDEST SWAP2 POP POP SWAP3 SWAP2 POP POP JUMP JUMPDEST PUSH2 0xE6D DUP2 PUSH2 0xCE6 JUMP JUMPDEST DUP3 MSTORE POP POP JUMP JUMPDEST PUSH0 PUSH1 0x20 DUP3 ADD SWAP1 POP PUSH2 0xE86 PUSH0 DUP4 ADD DUP5 PUSH2 0xE64 JUMP JUMPDEST SWAP3 SWAP2 POP POP JUMP JUMPDEST PUSH0 DUP1 PUSH1 0x40 DUP4 DUP6 SUB SLT ISZERO PUSH2 0xEA2 JUMPI PUSH2 0xEA1 PUSH2 0xC88 JUMP JUMPDEST JUMPDEST PUSH0 PUSH2 0xEAF DUP6 DUP3 DUP7 ADD PUSH2 0xCD2 JUMP JUMPDEST SWAP3 POP POP PUSH1 0x20 PUSH2 0xEC0 DUP6 DUP3 DUP7 ADD PUSH2 0xCD2 JUMP JUMPDEST SWAP2 POP POP SWAP3 POP SWAP3 SWAP1 POP JUMP JUMPDEST PUSH32 0x4E487B7100000000000000000000000000000000000000000000000000000000 PUSH0 MSTORE PUSH1 0x11 PUSH1 0x4 MSTORE PUSH1 0x24 PUSH0 REVERT JUMPDEST PUSH0 PUSH2 0xF01 DUP3 PUSH2 0xCE6 JUMP JUMPDEST SWAP2 POP PUSH2 0xF0C DUP4 PUSH2 0xCE6 JUMP JUMPDEST SWAP3 POP DUP3 DUP3 ADD SWAP1 POP DUP1 DUP3 GT ISZERO PUSH2 0xF24 JUMPI PUSH2 0xF23 PUSH2 0xECA JUMP JUMPDEST JUMPDEST SWAP3 SWAP2 POP POP JUMP JUMPDEST PUSH0 PUSH2 0xF34 DUP3 PUSH2 0xCE6 JUMP JUMPDEST SWAP2 POP PUSH2 0xF3F DUP4 PUSH2 0xCE6 JUMP JUMPDEST SWAP3 POP DUP3 DUP3 SUB SWAP1 POP DUP2 DUP2 GT ISZERO PUSH2 0xF57 JUMPI PUSH2 0xF56 PUSH2 0xECA JUMP JUMPDEST JUMPDEST SWAP3 SWAP2 POP POP JUMP INVALID LOG2 PUSH5 0x6970667358 0x22 SLT KECCAK256 PUSH17 0xD68A0FEBCBB7AA5E3F4FCCF2BCA6AEB2D2 0xCD 0x2C 0x4A 0xD9 0xD6 LOG1 BYTE 0x4F 0xB1 PUSH30 0xAC21116E64736F6C63430008160033000000000000000000000000000000 "
				},
				"gasEstimates": {
					"creation": {
						"codeDepositCost": "2025000",
						"executionCost": "infinite",
						"totalCost": "infinite"
					},
					"external": {
						"addFood(string,uint256)": "infinite",
						"atractionsMapping(string)": "infinite",
						"avaiableAtractions()": "infinite",
						"balanceOf()": "infinite",
						"buyAtraction(string)": "infinite",
						"clientHistory()": "infinite",
						"clients(address)": "2838",
						"compraTokens(uint256)": "infinite",
						"createTokens(uint256)": "infinite",
						"menuMapping(string)": "infinite",
						"myTokens()": "infinite",
						"newAtraction(string,uint256)": "infinite",
						"orderFood(string)": "infinite",
						"owner()": "2531",
						"removeAtraction(string)": "infinite",
						"removeFood(string)": "infinite",
						"returnTokens(uint256)": "infinite",
						"viewMenu()": "infinite"
					},
					"internal": {
						"tokenPrice(uint256)": "infinite"
					}
				},
				"methodIdentifiers": {
					"addFood(string,uint256)": "74985f9e",
					"atractionsMapping(string)": "9d124f92",
					"avaiableAtractions()": "d3e1125f",
					"balanceOf()": "722713f7",
					"buyAtraction(string)": "316ba08b",
					"clientHistory()": "ce2cfa3e",
					"clients(address)": "61eed2a9",
					"compraTokens(uint256)": "c29dd7c9",
					"createTokens(uint256)": "7e1f2bb8",
					"menuMapping(string)": "f3a4eff9",
					"myTokens()": "949e8acd",
					"newAtraction(string,uint256)": "e3ac2342",
					"orderFood(string)": "9c92cb88",
					"owner()": "8da5cb5b",
					"removeAtraction(string)": "6c43bf2d",
					"removeFood(string)": "427cff87",
					"returnTokens(uint256)": "3ae1786f",
					"viewMenu()": "0a5795f8"
				}
			},
			"storageLayout": {
				"storage": [
					{
						"astId": 388,
						"contract": "DISNEY/Disney.sol:Disney",
						"label": "token",
						"offset": 0,
						"slot": "0",
						"type": "t_contract(ERC20)382"
					},
					{
						"astId": 390,
						"contract": "DISNEY/Disney.sol:Disney",
						"label": "owner",
						"offset": 0,
						"slot": "1",
						"type": "t_address_payable"
					},
					{
						"astId": 415,
						"contract": "DISNEY/Disney.sol:Disney",
						"label": "clients",
						"offset": 0,
						"slot": "2",
						"type": "t_mapping(t_address,t_struct(Client)396_storage)"
					},
					{
						"astId": 420,
						"contract": "DISNEY/Disney.sol:Disney",
						"label": "atractionsMapping",
						"offset": 0,
						"slot": "3",
						"type": "t_mapping(t_string_memory_ptr,t_struct(Atraction)403_storage)"
					},
					{
						"astId": 425,
						"contract": "DISNEY/Disney.sol:Disney",
						"label": "menuMapping",
						"offset": 0,
						"slot": "4",
						"type": "t_mapping(t_string_memory_ptr,t_struct(Food)410_storage)"
					},
					{
						"astId": 430,
						"contract": "DISNEY/Disney.sol:Disney",
						"label": "atractionHistory",
						"offset": 0,
						"slot": "5",
						"type": "t_mapping(t_address,t_array(t_string_storage)dyn_storage)"
					},
					{
						"astId": 435,
						"contract": "DISNEY/Disney.sol:Disney",
						"label": "clientFoodOrders",
						"offset": 0,
						"slot": "6",
						"type": "t_mapping(t_address,t_array(t_string_storage)dyn_storage)"
					},
					{
						"astId": 438,
						"contract": "DISNEY/Disney.sol:Disney",
						"label": "atractions",
						"offset": 0,
						"slot": "7",
						"type": "t_array(t_string_storage)dyn_storage"
					},
					{
						"astId": 441,
						"contract": "DISNEY/Disney.sol:Disney",
						"label": "menu",
						"offset": 0,
						"slot": "8",
						"type": "t_array(t_string_storage)dyn_storage"
					}
				],
				"types": {
					"t_address": {
						"encoding": "inplace",
						"label": "address",
						"numberOfBytes": "20"
					},
					"t_address_payable": {
						"encoding": "inplace",
						"label": "address payable",
						"numberOfBytes": "20"
					},
					"t_array(t_string_storage)dyn_storage": {
						"base": "t_string_storage",
						"encoding": "dynamic_array",
						"label": "string[]",
						"numberOfBytes": "32"
					},
					"t_bool": {
						"encoding": "inplace",
						"label": "bool",
						"numberOfBytes": "1"
					},
					"t_contract(ERC20)382": {
						"encoding": "inplace",
						"label": "contract ERC20",
						"numberOfBytes": "20"
					},
					"t_mapping(t_address,t_array(t_string_storage)dyn_storage)": {
						"encoding": "mapping",
						"key": "t_address",
						"label": "mapping(address => string[])",
						"numberOfBytes": "32",
						"value": "t_array(t_string_storage)dyn_storage"
					},
					"t_mapping(t_address,t_struct(Client)396_storage)": {
						"encoding": "mapping",
						"key": "t_address",
						"label": "mapping(address => struct Disney.Client)",
						"numberOfBytes": "32",
						"value": "t_struct(Client)396_storage"
					},
					"t_mapping(t_string_memory_ptr,t_struct(Atraction)403_storage)": {
						"encoding": "mapping",
						"key": "t_string_memory_ptr",
						"label": "mapping(string => struct Disney.Atraction)",
						"numberOfBytes": "32",
						"value": "t_struct(Atraction)403_storage"
					},
					"t_mapping(t_string_memory_ptr,t_struct(Food)410_storage)": {
						"encoding": "mapping",
						"key": "t_string_memory_ptr",
						"label": "mapping(string => struct Disney.Food)",
						"numberOfBytes": "32",
						"value": "t_struct(Food)410_storage"
					},
					"t_string_memory_ptr": {
						"encoding": "bytes",
						"label": "string",
						"numberOfBytes": "32"
					},
					"t_string_storage": {
						"encoding": "bytes",
						"label": "string",
						"numberOfBytes": "32"
					},
					"t_struct(Atraction)403_storage": {
						"encoding": "inplace",
						"label": "struct Disney.Atraction",
						"members": [
							{
								"astId": 398,
								"contract": "DISNEY/Disney.sol:Disney",
								"label": "name",
								"offset": 0,
								"slot": "0",
								"type": "t_string_storage"
							},
							{
								"astId": 400,
								"contract": "DISNEY/Disney.sol:Disney",
								"label": "price",
								"offset": 0,
								"slot": "1",
								"type": "t_uint256"
							},
							{
								"astId": 402,
								"contract": "DISNEY/Disney.sol:Disney",
								"label": "state",
								"offset": 0,
								"slot": "2",
								"type": "t_bool"
							}
						],
						"numberOfBytes": "96"
					},
					"t_struct(Client)396_storage": {
						"encoding": "inplace",
						"label": "struct Disney.Client",
						"members": [
							{
								"astId": 392,
								"contract": "DISNEY/Disney.sol:Disney",
								"label": "tokens",
								"offset": 0,
								"slot": "0",
								"type": "t_uint256"
							},
							{
								"astId": 395,
								"contract": "DISNEY/Disney.sol:Disney",
								"label": "atractions",
								"offset": 0,
								"slot": "1",
								"type": "t_array(t_string_storage)dyn_storage"
							}
						],
						"numberOfBytes": "64"
					},
					"t_struct(Food)410_storage": {
						"encoding": "inplace",
						"label": "struct Disney.Food",
						"members": [
							{
								"astId": 405,
								"contract": "DISNEY/Disney.sol:Disney",
								"label": "name",
								"offset": 0,
								"slot": "0",
								"type": "t_string_storage"
							},
							{
								"astId": 407,
								"contract": "DISNEY/Disney.sol:Disney",
								"label": "price",
								"offset": 0,
								"slot": "1",
								"type": "t_uint256"
							},
							{
								"astId": 409,
								"contract": "DISNEY/Disney.sol:Disney",
								"label": "state",
								"offset": 0,
								"slot": "2",
								"type": "t_bool"
							}
						],
						"numberOfBytes": "96"
					},
					"t_uint256": {
						"encoding": "inplace",
						"label": "uint256",
						"numberOfBytes": "32"
					}
				}
			},
			"userdoc": {
				"kind": "user",
				"methods": {},
				"version": 1
			}
		}
	}
}